{
	"data": {
		"bytecode": {
			"linkReferences": {},
			"object": "60a06040523480156200001157600080fd5b50604051620019af380380620019af8339810160408190526200003491620001da565b600080546001600160a01b031916339081178255604051909182917f8be0079c531659141344cd1fd0a4f28419497f9722a3daafe3b4186f6b6457e0908290a3506001600160a01b038216620000f75760405162461bcd60e51b815260206004820152603a60248201527f4d696e6f7269747956657374696e674d616e616765723a204f70657261746f7260448201527f2063616e277420626520746865207a65726f206164647265737300000000000060648201526084015b60405180910390fd5b6001600160a01b038116620001865760405162461bcd60e51b815260206004820152604860248201527f4d696e6f7269747956657374696e674d616e616765723a204d696e6f7269747960448201527f20746f6b656e20616464726573732063616e277420626520746865207a65726f606482015267206164647265737360c01b608482015260a401620000ee565b600380546001600160a01b0319166001600160a01b03939093169290921790915560601b6001600160601b03191660805262000211565b80516001600160a01b0381168114620001d557600080fd5b919050565b60008060408385031215620001ed578182fd5b620001f883620001bd565b91506200020860208401620001bd565b90509250929050565b60805160601c6117716200023e600039600081816101c7015281816107d10152610d5201526117716000f3fe608060405234801561001057600080fd5b50600436106100f55760003560e01c8063715018a61161009757806398fb7a981161006657806398fb7a98146102265780639c86aee8146102395780639f91d48414610242578063f2fde38b1461025557600080fd5b8063715018a6146101fc57806384f61358146102045780638adc760d1461020d5780638da5cb5b1461021557600080fd5b806356329ee6116100d357806356329ee61461018e578063570ca735146101975780635a533efd146101c25780636d3cbe21146101e957600080fd5b806320f6b0a9146100fa57806322811b9f146101585780633e34e66d1461016d575b600080fd5b61010d610108366004611450565b610268565b604080519889526020890197909752958701949094526060860192909252608085015260a08401526001600160a01b031660c0830152151560e0820152610100015b60405180910390f35b61016b610166366004611480565b610373565b005b61018061017b3660046114e9565b61060f565b60405190815260200161014f565b61018060065481565b6003546101aa906001600160a01b031681565b6040516001600160a01b03909116815260200161014f565b6101aa7f000000000000000000000000000000000000000000000000000000000000000081565b61010d6101f7366004611450565b610ba1565b61016b610c05565b61018060055481565b61016b610c79565b6000546001600160a01b03166101aa565b61016b610234366004611450565b610dd0565b61018060075481565b6101806102503660046114a1565b610fd5565b61016b61026336600461141a565b611030565b60008060008060008060008060048054905089106102a15760405162461bcd60e51b815260040161029890611629565b60405180910390fd5b600060048a815481106102c457634e487b7160e01b600052603260045260246000fd5b600091825260209182902060408051610100810182526007909302909101805480845260018201549484018590526002820154928401839052600382015460608501819052600483015460808601819052600584015460a087018190526006909401546001600160a01b03811660c0880181905260ff600160a01b90920491909116151560e0909701879052929f50959d50929b50919950929750919550909350915050919395975091939597565b6003546001600160a01b031633148061039657506000546001600160a01b031633145b6103b25760405162461bcd60e51b8152600401610298906115cc565b60045482106103d35760405162461bcd60e51b815260040161029890611629565b4281116104365760405162461bcd60e51b8152602060048201526038602482015260008051602061171c83398151915260448201527f6d75737420737461727420696e207468652066757475726500000000000000006064820152608401610298565b6004828154811061045757634e487b7160e01b600052603260045260246000fd5b906000526020600020906007020160060160149054906101000a900460ff16156104c45760405162461bcd60e51b815260206004820152602a602482015260008051602061171c8339815191526044820152691251081c995b5bdd995960b21b6064820152608401610298565b7f2ee9904f2125da26979bf6b3ffdff419c60cd5b2bb1fc5be175f8fc60218ce89826004848154811061050757634e487b7160e01b600052603260045260246000fd5b6000918252602091829020600460079092020101546040805193845291830152810183905260600160405180910390a1600061057e6004848154811061055d57634e487b7160e01b600052603260045260246000fd5b9060005260206000209060070201600301548361111a90919063ffffffff16565b905081600484815481106105a257634e487b7160e01b600052603260045260246000fd5b90600052602060002090600702016004018190555080600484815481106105d957634e487b7160e01b600052603260045260246000fd5b90600052602060002090600702016005018190555082600654141561060557610600611182565b505050565b610600838261126b565b600080546001600160a01b0316331461063a5760405162461bcd60e51b815260040161029890611597565b606486106106b05760405162461bcd60e51b815260206004820152603d60248201527f4d696e6f7269747956657374696e674d616e616765723a2043616e277420766560448201527f7374203e2031303025206f6620746f6b656e73207065722065706f63680000006064820152608401610298565b42841015806106bd575083155b61072f5760405162461bcd60e51b815260206004820152603f60248201527f4d696e6f7269747956657374696e674d616e616765723a20526577617264732060448201527f63616e277420626567696e2076657374696e6720696e207468652070617374006064820152608401610298565b6001600160a01b0383166107a45760405162461bcd60e51b8152602060048201526042602482015260008051602061171c83398151915260448201527f72656365697665722063616e277420626520746865207a65726f206164647265606482015261737360f01b608482015260a401610298565b6007546000906107b4908961111a565b905082156108fe576040516370a0823160e01b81523060048201527f00000000000000000000000000000000000000000000000000000000000000006001600160a01b0316906370a082319060240160206040518083038186803b15801561081b57600080fd5b505afa15801561082f573d6000803e3d6000fd5b505050506040513d601f19601f820116820180604052508101906108539190611468565b8111156108fe5760405162461bcd60e51b815260206004820152606760248201527f4d696e6f7269747956657374696e674d616e616765723a204e6f7420656e6f7560448201527f676820746f6b656e7320696e20636f6e747261637420746f20766573742e205460648201527f72616e7366657220746f6b656e73206265666f726520616464696e672061207360848201526663686564756c6560c81b60a482015260c401610298565b600085156109205761091b61091488603c611293565b879061111a565b610922565b855b905060006040518061010001604052808b815260200161095660646109508d8f61129390919063ffffffff16565b90611312565b81526000602082015260400161096d8a603c611293565b815260208082018a905260408083018690526001600160a01b03808b16606080860191909152600060809586018190526004805460018181018355828452895160079283027f8a35acfbc15ff81a39ae7d344fd709f28e8600b4aa8c65c6b64bfe7fe36bd19b810191909155978a01517f8a35acfbc15ff81a39ae7d344fd709f28e8600b4aa8c65c6b64bfe7fe36bd19c890155958901517f8a35acfbc15ff81a39ae7d344fd709f28e8600b4aa8c65c6b64bfe7fe36bd19d880155928801517f8a35acfbc15ff81a39ae7d344fd709f28e8600b4aa8c65c6b64bfe7fe36bd19e870155958701517f8a35acfbc15ff81a39ae7d344fd709f28e8600b4aa8c65c6b64bfe7fe36bd19f86015560a08701517f8a35acfbc15ff81a39ae7d344fd709f28e8600b4aa8c65c6b64bfe7fe36bd1a086015560c08701517f8a35acfbc15ff81a39ae7d344fd709f28e8600b4aa8c65c6b64bfe7fe36bd1a1909501805460e08901511515600160a01b026001600160a81b031990911696909416959095179290921790935591879055915492935091610b0991906116c2565b9050610b15818461126b565b815160208084015160608086015160808088015160a0808a015160c0808c0151604080518d81529a8b019b909b52898b019890985295880194909452918601528401526001600160a01b039091169082015290517fff7d5b9238fdf530d746ea0e1b517671e3e0fd1414a36e69a57867dc707dc65a9181900360e00190a19a9950505050505050505050565b60048181548110610bb157600080fd5b6000918252602090912060079091020180546001820154600283015460038401546004850154600586015460069096015494965092949193909291906001600160a01b03811690600160a01b900460ff1688565b6000546001600160a01b03163314610c2f5760405162461bcd60e51b815260040161029890611597565b600080546040516001600160a01b03909116907f8be0079c531659141344cd1fd0a4f28419497f9722a3daafe3b4186f6b6457e0908390a3600080546001600160a01b0319169055565b4260055411158015610c8c575060055415155b15610dce576000600460065481548110610cb657634e487b7160e01b600052603260045260246000fd5b60009182526020918290206040805161010081018252600793909302909101805483526001810154938301849052600281015483830152600381015460608401526004808201546080850152600582015460a08501526006909101546001600160a01b0380821660c08601819052600160a01b90920460ff16151560e0860152925163a9059cbb60e01b815291820152602481018490529193507f0000000000000000000000000000000000000000000000000000000000000000169063a9059cbb90604401602060405180830381600087803b158015610d9657600080fd5b505af1158015610daa573d6000803e3d6000fd5b505050506040513d601f19601f820116820180604052508101906106009190611434565b565b6003546001600160a01b0316331480610df357506000546001600160a01b031633145b610e0f5760405162461bcd60e51b8152600401610298906115cc565b6004548110610e305760405162461bcd60e51b815260040161029890611629565b60048181548110610e5157634e487b7160e01b600052603260045260246000fd5b906000526020600020906007020160060160149054906101000a900460ff1615610ec65760405162461bcd60e51b8152602060048201526032602482015260008051602061171c833981519152604482015271125108185b1c9958591e481c995b5bdd995960721b6064820152608401610298565b600160048281548110610ee957634e487b7160e01b600052603260045260246000fd5b906000526020600020906007020160060160146101000a81548160ff021916908315150217905550610f8a60048281548110610f3557634e487b7160e01b600052603260045260246000fd5b906000526020600020906007020160020154610f8460048481548110610f6b57634e487b7160e01b600052603260045260246000fd5b6000918252602090912060079182020154905490611354565b9061111a565b600755600654811415610f9f57610f9f611182565b6040518181527f3a9782b2e3f78dee6de9b41f31d0f34064ee9d7bd4a79e5e3f7e0c1ca528bba39060200160405180910390a150565b6003546000906001600160a01b0316331480610ffb57506000546001600160a01b031633145b6110175760405162461bcd60e51b8152600401610298906115cc565b6110268686868686600161060f565b9695505050505050565b6000546001600160a01b0316331461105a5760405162461bcd60e51b815260040161029890611597565b6001600160a01b0381166110bf5760405162461bcd60e51b815260206004820152602660248201527f4f776e61626c653a206e6577206f776e657220697320746865207a65726f206160448201526564647265737360d01b6064820152608401610298565b600080546040516001600160a01b03808516939216917f8be0079c531659141344cd1fd0a4f28419497f9722a3daafe3b4186f6b6457e091a3600080546001600160a01b0319166001600160a01b0392909216919091179055565b600080611127838561166b565b9050838110156111795760405162461bcd60e51b815260206004820152601b60248201527f536166654d6174683a206164646974696f6e206f766572666c6f7700000000006044820152606401610298565b90505b92915050565b60045460005b818110156112675760065481141580156111df5750600481815481106111be57634e487b7160e01b600052603260045260246000fd5b906000526020600020906007020160060160149054906101000a900460ff16155b156112555760006004828154811061120757634e487b7160e01b600052603260045260246000fd5b906000526020600020906007020160050154905080600014611253574281116112335760055560065550565b6005548110806112435750600554155b1561125357600581905560068290555b505b8061125f816116d9565b915050611188565b5050565b60055481108061127b5750600554155b801561128657508015155b1561126757600555600655565b6000826112a25750600061117c565b60006112ae83856116a3565b9050826112bb8583611683565b146111795760405162461bcd60e51b815260206004820152602160248201527f536166654d6174683a206d756c7469706c69636174696f6e206f766572666c6f6044820152607760f81b6064820152608401610298565b600061117983836040518060400160405280601a81526020017f536166654d6174683a206469766973696f6e206279207a65726f000000000000815250611396565b600061117983836040518060400160405280601e81526020017f536166654d6174683a207375627472616374696f6e206f766572666c6f7700008152506113cd565b600081836113b75760405162461bcd60e51b81526004016102989190611544565b5060006113c48486611683565b95945050505050565b600081848411156113f15760405162461bcd60e51b81526004016102989190611544565b5060006113c484866116c2565b80356001600160a01b038116811461141557600080fd5b919050565b60006020828403121561142b578081fd5b611179826113fe565b600060208284031215611445578081fd5b81516111798161170a565b600060208284031215611461578081fd5b5035919050565b600060208284031215611479578081fd5b5051919050565b60008060408385031215611492578081fd5b50508035926020909101359150565b600080600080600060a086880312156114b8578081fd5b853594506020860135935060408601359250606086013591506114dd608087016113fe565b90509295509295909350565b60008060008060008060c08789031215611501578081fd5b86359550602087013594506040870135935060608701359250611526608088016113fe565b915060a08701356115368161170a565b809150509295509295509295565b6000602080835283518082850152825b8181101561157057858101830151858201604001528201611554565b818111156115815783604083870101525b50601f01601f1916929092016040019392505050565b6020808252818101527f4f776e61626c653a2063616c6c6572206973206e6f7420746865206f776e6572604082015260600190565b6020808252603c908201527f4d696e6f7269747956657374696e674d616e616765723a206f6e6c792061636360408201527f65737369626c65206279206f70657261746f72206f72206f776e657200000000606082015260800190565b60208082526022908201527f4d696e6f7269747956657374696e674d616e616765723a20696e76616c696420604082015261125160f21b606082015260800190565b6000821982111561167e5761167e6116f4565b500190565b60008261169e57634e487b7160e01b81526012600452602481fd5b500490565b60008160001904831182151516156116bd576116bd6116f4565b500290565b6000828210156116d4576116d46116f4565b500390565b60006000198214156116ed576116ed6116f4565b5060010190565b634e487b7160e01b600052601160045260246000fd5b801515811461171857600080fd5b5056fe4d696e6f7269747956657374696e674d616e616765723a2076657374696e6720a2646970667358221220839cb582736b91f81d7e30f3566963e63f1a8f67195158f84b344ae067f0778764736f6c63430008040033",
			"opcodes": "PUSH1 0xA0 PUSH1 0x40 MSTORE CALLVALUE DUP1 ISZERO PUSH3 0x11 JUMPI PUSH1 0x0 DUP1 REVERT JUMPDEST POP PUSH1 0x40 MLOAD PUSH3 0x19AF CODESIZE SUB DUP1 PUSH3 0x19AF DUP4 CODECOPY DUP2 ADD PUSH1 0x40 DUP2 SWAP1 MSTORE PUSH3 0x34 SWAP2 PUSH3 0x1DA JUMP JUMPDEST PUSH1 0x0 DUP1 SLOAD PUSH1 0x1 PUSH1 0x1 PUSH1 0xA0 SHL SUB NOT AND CALLER SWAP1 DUP2 OR DUP3 SSTORE PUSH1 0x40 MLOAD SWAP1 SWAP2 DUP3 SWAP2 PUSH32 0x8BE0079C531659141344CD1FD0A4F28419497F9722A3DAAFE3B4186F6B6457E0 SWAP1 DUP3 SWAP1 LOG3 POP PUSH1 0x1 PUSH1 0x1 PUSH1 0xA0 SHL SUB DUP3 AND PUSH3 0xF7 JUMPI PUSH1 0x40 MLOAD PUSH3 0x461BCD PUSH1 0xE5 SHL DUP2 MSTORE PUSH1 0x20 PUSH1 0x4 DUP3 ADD MSTORE PUSH1 0x3A PUSH1 0x24 DUP3 ADD MSTORE PUSH32 0x4D696E6F7269747956657374696E674D616E616765723A204F70657261746F72 PUSH1 0x44 DUP3 ADD MSTORE PUSH32 0x2063616E277420626520746865207A65726F2061646472657373000000000000 PUSH1 0x64 DUP3 ADD MSTORE PUSH1 0x84 ADD JUMPDEST PUSH1 0x40 MLOAD DUP1 SWAP2 SUB SWAP1 REVERT JUMPDEST PUSH1 0x1 PUSH1 0x1 PUSH1 0xA0 SHL SUB DUP2 AND PUSH3 0x186 JUMPI PUSH1 0x40 MLOAD PUSH3 0x461BCD PUSH1 0xE5 SHL DUP2 MSTORE PUSH1 0x20 PUSH1 0x4 DUP3 ADD MSTORE PUSH1 0x48 PUSH1 0x24 DUP3 ADD MSTORE PUSH32 0x4D696E6F7269747956657374696E674D616E616765723A204D696E6F72697479 PUSH1 0x44 DUP3 ADD MSTORE PUSH32 0x20746F6B656E20616464726573732063616E277420626520746865207A65726F PUSH1 0x64 DUP3 ADD MSTORE PUSH8 0x2061646472657373 PUSH1 0xC0 SHL PUSH1 0x84 DUP3 ADD MSTORE PUSH1 0xA4 ADD PUSH3 0xEE JUMP JUMPDEST PUSH1 0x3 DUP1 SLOAD PUSH1 0x1 PUSH1 0x1 PUSH1 0xA0 SHL SUB NOT AND PUSH1 0x1 PUSH1 0x1 PUSH1 0xA0 SHL SUB SWAP4 SWAP1 SWAP4 AND SWAP3 SWAP1 SWAP3 OR SWAP1 SWAP2 SSTORE PUSH1 0x60 SHL PUSH1 0x1 PUSH1 0x1 PUSH1 0x60 SHL SUB NOT AND PUSH1 0x80 MSTORE PUSH3 0x211 JUMP JUMPDEST DUP1 MLOAD PUSH1 0x1 PUSH1 0x1 PUSH1 0xA0 SHL SUB DUP2 AND DUP2 EQ PUSH3 0x1D5 JUMPI PUSH1 0x0 DUP1 REVERT JUMPDEST SWAP2 SWAP1 POP JUMP JUMPDEST PUSH1 0x0 DUP1 PUSH1 0x40 DUP4 DUP6 SUB SLT ISZERO PUSH3 0x1ED JUMPI DUP2 DUP3 REVERT JUMPDEST PUSH3 0x1F8 DUP4 PUSH3 0x1BD JUMP JUMPDEST SWAP2 POP PUSH3 0x208 PUSH1 0x20 DUP5 ADD PUSH3 0x1BD JUMP JUMPDEST SWAP1 POP SWAP3 POP SWAP3 SWAP1 POP JUMP JUMPDEST PUSH1 0x80 MLOAD PUSH1 0x60 SHR PUSH2 0x1771 PUSH3 0x23E PUSH1 0x0 CODECOPY PUSH1 0x0 DUP2 DUP2 PUSH2 0x1C7 ADD MSTORE DUP2 DUP2 PUSH2 0x7D1 ADD MSTORE PUSH2 0xD52 ADD MSTORE PUSH2 0x1771 PUSH1 0x0 RETURN INVALID PUSH1 0x80 PUSH1 0x40 MSTORE CALLVALUE DUP1 ISZERO PUSH2 0x10 JUMPI PUSH1 0x0 DUP1 REVERT JUMPDEST POP PUSH1 0x4 CALLDATASIZE LT PUSH2 0xF5 JUMPI PUSH1 0x0 CALLDATALOAD PUSH1 0xE0 SHR DUP1 PUSH4 0x715018A6 GT PUSH2 0x97 JUMPI DUP1 PUSH4 0x98FB7A98 GT PUSH2 0x66 JUMPI DUP1 PUSH4 0x98FB7A98 EQ PUSH2 0x226 JUMPI DUP1 PUSH4 0x9C86AEE8 EQ PUSH2 0x239 JUMPI DUP1 PUSH4 0x9F91D484 EQ PUSH2 0x242 JUMPI DUP1 PUSH4 0xF2FDE38B EQ PUSH2 0x255 JUMPI PUSH1 0x0 DUP1 REVERT JUMPDEST DUP1 PUSH4 0x715018A6 EQ PUSH2 0x1FC JUMPI DUP1 PUSH4 0x84F61358 EQ PUSH2 0x204 JUMPI DUP1 PUSH4 0x8ADC760D EQ PUSH2 0x20D JUMPI DUP1 PUSH4 0x8DA5CB5B EQ PUSH2 0x215 JUMPI PUSH1 0x0 DUP1 REVERT JUMPDEST DUP1 PUSH4 0x56329EE6 GT PUSH2 0xD3 JUMPI DUP1 PUSH4 0x56329EE6 EQ PUSH2 0x18E JUMPI DUP1 PUSH4 0x570CA735 EQ PUSH2 0x197 JUMPI DUP1 PUSH4 0x5A533EFD EQ PUSH2 0x1C2 JUMPI DUP1 PUSH4 0x6D3CBE21 EQ PUSH2 0x1E9 JUMPI PUSH1 0x0 DUP1 REVERT JUMPDEST DUP1 PUSH4 0x20F6B0A9 EQ PUSH2 0xFA JUMPI DUP1 PUSH4 0x22811B9F EQ PUSH2 0x158 JUMPI DUP1 PUSH4 0x3E34E66D EQ PUSH2 0x16D JUMPI JUMPDEST PUSH1 0x0 DUP1 REVERT JUMPDEST PUSH2 0x10D PUSH2 0x108 CALLDATASIZE PUSH1 0x4 PUSH2 0x1450 JUMP JUMPDEST PUSH2 0x268 JUMP JUMPDEST PUSH1 0x40 DUP1 MLOAD SWAP9 DUP10 MSTORE PUSH1 0x20 DUP10 ADD SWAP8 SWAP1 SWAP8 MSTORE SWAP6 DUP8 ADD SWAP5 SWAP1 SWAP5 MSTORE PUSH1 0x60 DUP7 ADD SWAP3 SWAP1 SWAP3 MSTORE PUSH1 0x80 DUP6 ADD MSTORE PUSH1 0xA0 DUP5 ADD MSTORE PUSH1 0x1 PUSH1 0x1 PUSH1 0xA0 SHL SUB AND PUSH1 0xC0 DUP4 ADD MSTORE ISZERO ISZERO PUSH1 0xE0 DUP3 ADD MSTORE PUSH2 0x100 ADD JUMPDEST PUSH1 0x40 MLOAD DUP1 SWAP2 SUB SWAP1 RETURN JUMPDEST PUSH2 0x16B PUSH2 0x166 CALLDATASIZE PUSH1 0x4 PUSH2 0x1480 JUMP JUMPDEST PUSH2 0x373 JUMP JUMPDEST STOP JUMPDEST PUSH2 0x180 PUSH2 0x17B CALLDATASIZE PUSH1 0x4 PUSH2 0x14E9 JUMP JUMPDEST PUSH2 0x60F JUMP JUMPDEST PUSH1 0x40 MLOAD SWAP1 DUP2 MSTORE PUSH1 0x20 ADD PUSH2 0x14F JUMP JUMPDEST PUSH2 0x180 PUSH1 0x6 SLOAD DUP2 JUMP JUMPDEST PUSH1 0x3 SLOAD PUSH2 0x1AA SWAP1 PUSH1 0x1 PUSH1 0x1 PUSH1 0xA0 SHL SUB AND DUP2 JUMP JUMPDEST PUSH1 0x40 MLOAD PUSH1 0x1 PUSH1 0x1 PUSH1 0xA0 SHL SUB SWAP1 SWAP2 AND DUP2 MSTORE PUSH1 0x20 ADD PUSH2 0x14F JUMP JUMPDEST PUSH2 0x1AA PUSH32 0x0 DUP2 JUMP JUMPDEST PUSH2 0x10D PUSH2 0x1F7 CALLDATASIZE PUSH1 0x4 PUSH2 0x1450 JUMP JUMPDEST PUSH2 0xBA1 JUMP JUMPDEST PUSH2 0x16B PUSH2 0xC05 JUMP JUMPDEST PUSH2 0x180 PUSH1 0x5 SLOAD DUP2 JUMP JUMPDEST PUSH2 0x16B PUSH2 0xC79 JUMP JUMPDEST PUSH1 0x0 SLOAD PUSH1 0x1 PUSH1 0x1 PUSH1 0xA0 SHL SUB AND PUSH2 0x1AA JUMP JUMPDEST PUSH2 0x16B PUSH2 0x234 CALLDATASIZE PUSH1 0x4 PUSH2 0x1450 JUMP JUMPDEST PUSH2 0xDD0 JUMP JUMPDEST PUSH2 0x180 PUSH1 0x7 SLOAD DUP2 JUMP JUMPDEST PUSH2 0x180 PUSH2 0x250 CALLDATASIZE PUSH1 0x4 PUSH2 0x14A1 JUMP JUMPDEST PUSH2 0xFD5 JUMP JUMPDEST PUSH2 0x16B PUSH2 0x263 CALLDATASIZE PUSH1 0x4 PUSH2 0x141A JUMP JUMPDEST PUSH2 0x1030 JUMP JUMPDEST PUSH1 0x0 DUP1 PUSH1 0x0 DUP1 PUSH1 0x0 DUP1 PUSH1 0x0 DUP1 PUSH1 0x4 DUP1 SLOAD SWAP1 POP DUP10 LT PUSH2 0x2A1 JUMPI PUSH1 0x40 MLOAD PUSH3 0x461BCD PUSH1 0xE5 SHL DUP2 MSTORE PUSH1 0x4 ADD PUSH2 0x298 SWAP1 PUSH2 0x1629 JUMP JUMPDEST PUSH1 0x40 MLOAD DUP1 SWAP2 SUB SWAP1 REVERT JUMPDEST PUSH1 0x0 PUSH1 0x4 DUP11 DUP2 SLOAD DUP2 LT PUSH2 0x2C4 JUMPI PUSH4 0x4E487B71 PUSH1 0xE0 SHL PUSH1 0x0 MSTORE PUSH1 0x32 PUSH1 0x4 MSTORE PUSH1 0x24 PUSH1 0x0 REVERT JUMPDEST PUSH1 0x0 SWAP2 DUP3 MSTORE PUSH1 0x20 SWAP2 DUP3 SWAP1 KECCAK256 PUSH1 0x40 DUP1 MLOAD PUSH2 0x100 DUP2 ADD DUP3 MSTORE PUSH1 0x7 SWAP1 SWAP4 MUL SWAP1 SWAP2 ADD DUP1 SLOAD DUP1 DUP5 MSTORE PUSH1 0x1 DUP3 ADD SLOAD SWAP5 DUP5 ADD DUP6 SWAP1 MSTORE PUSH1 0x2 DUP3 ADD SLOAD SWAP3 DUP5 ADD DUP4 SWAP1 MSTORE PUSH1 0x3 DUP3 ADD SLOAD PUSH1 0x60 DUP6 ADD DUP2 SWAP1 MSTORE PUSH1 0x4 DUP4 ADD SLOAD PUSH1 0x80 DUP7 ADD DUP2 SWAP1 MSTORE PUSH1 0x5 DUP5 ADD SLOAD PUSH1 0xA0 DUP8 ADD DUP2 SWAP1 MSTORE PUSH1 0x6 SWAP1 SWAP5 ADD SLOAD PUSH1 0x1 PUSH1 0x1 PUSH1 0xA0 SHL SUB DUP2 AND PUSH1 0xC0 DUP9 ADD DUP2 SWAP1 MSTORE PUSH1 0xFF PUSH1 0x1 PUSH1 0xA0 SHL SWAP1 SWAP3 DIV SWAP2 SWAP1 SWAP2 AND ISZERO ISZERO PUSH1 0xE0 SWAP1 SWAP8 ADD DUP8 SWAP1 MSTORE SWAP3 SWAP16 POP SWAP6 SWAP14 POP SWAP3 SWAP12 POP SWAP2 SWAP10 POP SWAP3 SWAP8 POP SWAP2 SWAP6 POP SWAP1 SWAP4 POP SWAP2 POP POP SWAP2 SWAP4 SWAP6 SWAP8 POP SWAP2 SWAP4 SWAP6 SWAP8 JUMP JUMPDEST PUSH1 0x3 SLOAD PUSH1 0x1 PUSH1 0x1 PUSH1 0xA0 SHL SUB AND CALLER EQ DUP1 PUSH2 0x396 JUMPI POP PUSH1 0x0 SLOAD PUSH1 0x1 PUSH1 0x1 PUSH1 0xA0 SHL SUB AND CALLER EQ JUMPDEST PUSH2 0x3B2 JUMPI PUSH1 0x40 MLOAD PUSH3 0x461BCD PUSH1 0xE5 SHL DUP2 MSTORE PUSH1 0x4 ADD PUSH2 0x298 SWAP1 PUSH2 0x15CC JUMP JUMPDEST PUSH1 0x4 SLOAD DUP3 LT PUSH2 0x3D3 JUMPI PUSH1 0x40 MLOAD PUSH3 0x461BCD PUSH1 0xE5 SHL DUP2 MSTORE PUSH1 0x4 ADD PUSH2 0x298 SWAP1 PUSH2 0x1629 JUMP JUMPDEST TIMESTAMP DUP2 GT PUSH2 0x436 JUMPI PUSH1 0x40 MLOAD PUSH3 0x461BCD PUSH1 0xE5 SHL DUP2 MSTORE PUSH1 0x20 PUSH1 0x4 DUP3 ADD MSTORE PUSH1 0x38 PUSH1 0x24 DUP3 ADD MSTORE PUSH1 0x0 DUP1 MLOAD PUSH1 0x20 PUSH2 0x171C DUP4 CODECOPY DUP2 MLOAD SWAP2 MSTORE PUSH1 0x44 DUP3 ADD MSTORE PUSH32 0x6D75737420737461727420696E20746865206675747572650000000000000000 PUSH1 0x64 DUP3 ADD MSTORE PUSH1 0x84 ADD PUSH2 0x298 JUMP JUMPDEST PUSH1 0x4 DUP3 DUP2 SLOAD DUP2 LT PUSH2 0x457 JUMPI PUSH4 0x4E487B71 PUSH1 0xE0 SHL PUSH1 0x0 MSTORE PUSH1 0x32 PUSH1 0x4 MSTORE PUSH1 0x24 PUSH1 0x0 REVERT JUMPDEST SWAP1 PUSH1 0x0 MSTORE PUSH1 0x20 PUSH1 0x0 KECCAK256 SWAP1 PUSH1 0x7 MUL ADD PUSH1 0x6 ADD PUSH1 0x14 SWAP1 SLOAD SWAP1 PUSH2 0x100 EXP SWAP1 DIV PUSH1 0xFF AND ISZERO PUSH2 0x4C4 JUMPI PUSH1 0x40 MLOAD PUSH3 0x461BCD PUSH1 0xE5 SHL DUP2 MSTORE PUSH1 0x20 PUSH1 0x4 DUP3 ADD MSTORE PUSH1 0x2A PUSH1 0x24 DUP3 ADD MSTORE PUSH1 0x0 DUP1 MLOAD PUSH1 0x20 PUSH2 0x171C DUP4 CODECOPY DUP2 MLOAD SWAP2 MSTORE PUSH1 0x44 DUP3 ADD MSTORE PUSH10 0x1251081C995B5BDD9959 PUSH1 0xB2 SHL PUSH1 0x64 DUP3 ADD MSTORE PUSH1 0x84 ADD PUSH2 0x298 JUMP JUMPDEST PUSH32 0x2EE9904F2125DA26979BF6B3FFDFF419C60CD5B2BB1FC5BE175F8FC60218CE89 DUP3 PUSH1 0x4 DUP5 DUP2 SLOAD DUP2 LT PUSH2 0x507 JUMPI PUSH4 0x4E487B71 PUSH1 0xE0 SHL PUSH1 0x0 MSTORE PUSH1 0x32 PUSH1 0x4 MSTORE PUSH1 0x24 PUSH1 0x0 REVERT JUMPDEST PUSH1 0x0 SWAP2 DUP3 MSTORE PUSH1 0x20 SWAP2 DUP3 SWAP1 KECCAK256 PUSH1 0x4 PUSH1 0x7 SWAP1 SWAP3 MUL ADD ADD SLOAD PUSH1 0x40 DUP1 MLOAD SWAP4 DUP5 MSTORE SWAP2 DUP4 ADD MSTORE DUP2 ADD DUP4 SWAP1 MSTORE PUSH1 0x60 ADD PUSH1 0x40 MLOAD DUP1 SWAP2 SUB SWAP1 LOG1 PUSH1 0x0 PUSH2 0x57E PUSH1 0x4 DUP5 DUP2 SLOAD DUP2 LT PUSH2 0x55D JUMPI PUSH4 0x4E487B71 PUSH1 0xE0 SHL PUSH1 0x0 MSTORE PUSH1 0x32 PUSH1 0x4 MSTORE PUSH1 0x24 PUSH1 0x0 REVERT JUMPDEST SWAP1 PUSH1 0x0 MSTORE PUSH1 0x20 PUSH1 0x0 KECCAK256 SWAP1 PUSH1 0x7 MUL ADD PUSH1 0x3 ADD SLOAD DUP4 PUSH2 0x111A SWAP1 SWAP2 SWAP1 PUSH4 0xFFFFFFFF AND JUMP JUMPDEST SWAP1 POP DUP2 PUSH1 0x4 DUP5 DUP2 SLOAD DUP2 LT PUSH2 0x5A2 JUMPI PUSH4 0x4E487B71 PUSH1 0xE0 SHL PUSH1 0x0 MSTORE PUSH1 0x32 PUSH1 0x4 MSTORE PUSH1 0x24 PUSH1 0x0 REVERT JUMPDEST SWAP1 PUSH1 0x0 MSTORE PUSH1 0x20 PUSH1 0x0 KECCAK256 SWAP1 PUSH1 0x7 MUL ADD PUSH1 0x4 ADD DUP2 SWAP1 SSTORE POP DUP1 PUSH1 0x4 DUP5 DUP2 SLOAD DUP2 LT PUSH2 0x5D9 JUMPI PUSH4 0x4E487B71 PUSH1 0xE0 SHL PUSH1 0x0 MSTORE PUSH1 0x32 PUSH1 0x4 MSTORE PUSH1 0x24 PUSH1 0x0 REVERT JUMPDEST SWAP1 PUSH1 0x0 MSTORE PUSH1 0x20 PUSH1 0x0 KECCAK256 SWAP1 PUSH1 0x7 MUL ADD PUSH1 0x5 ADD DUP2 SWAP1 SSTORE POP DUP3 PUSH1 0x6 SLOAD EQ ISZERO PUSH2 0x605 JUMPI PUSH2 0x600 PUSH2 0x1182 JUMP JUMPDEST POP POP POP JUMP JUMPDEST PUSH2 0x600 DUP4 DUP3 PUSH2 0x126B JUMP JUMPDEST PUSH1 0x0 DUP1 SLOAD PUSH1 0x1 PUSH1 0x1 PUSH1 0xA0 SHL SUB AND CALLER EQ PUSH2 0x63A JUMPI PUSH1 0x40 MLOAD PUSH3 0x461BCD PUSH1 0xE5 SHL DUP2 MSTORE PUSH1 0x4 ADD PUSH2 0x298 SWAP1 PUSH2 0x1597 JUMP JUMPDEST PUSH1 0x64 DUP7 LT PUSH2 0x6B0 JUMPI PUSH1 0x40 MLOAD PUSH3 0x461BCD PUSH1 0xE5 SHL DUP2 MSTORE PUSH1 0x20 PUSH1 0x4 DUP3 ADD MSTORE PUSH1 0x3D PUSH1 0x24 DUP3 ADD MSTORE PUSH32 0x4D696E6F7269747956657374696E674D616E616765723A2043616E2774207665 PUSH1 0x44 DUP3 ADD MSTORE PUSH32 0x7374203E2031303025206F6620746F6B656E73207065722065706F6368000000 PUSH1 0x64 DUP3 ADD MSTORE PUSH1 0x84 ADD PUSH2 0x298 JUMP JUMPDEST TIMESTAMP DUP5 LT ISZERO DUP1 PUSH2 0x6BD JUMPI POP DUP4 ISZERO JUMPDEST PUSH2 0x72F JUMPI PUSH1 0x40 MLOAD PUSH3 0x461BCD PUSH1 0xE5 SHL DUP2 MSTORE PUSH1 0x20 PUSH1 0x4 DUP3 ADD MSTORE PUSH1 0x3F PUSH1 0x24 DUP3 ADD MSTORE PUSH32 0x4D696E6F7269747956657374696E674D616E616765723A205265776172647320 PUSH1 0x44 DUP3 ADD MSTORE PUSH32 0x63616E277420626567696E2076657374696E6720696E20746865207061737400 PUSH1 0x64 DUP3 ADD MSTORE PUSH1 0x84 ADD PUSH2 0x298 JUMP JUMPDEST PUSH1 0x1 PUSH1 0x1 PUSH1 0xA0 SHL SUB DUP4 AND PUSH2 0x7A4 JUMPI PUSH1 0x40 MLOAD PUSH3 0x461BCD PUSH1 0xE5 SHL DUP2 MSTORE PUSH1 0x20 PUSH1 0x4 DUP3 ADD MSTORE PUSH1 0x42 PUSH1 0x24 DUP3 ADD MSTORE PUSH1 0x0 DUP1 MLOAD PUSH1 0x20 PUSH2 0x171C DUP4 CODECOPY DUP2 MLOAD SWAP2 MSTORE PUSH1 0x44 DUP3 ADD MSTORE PUSH32 0x72656365697665722063616E277420626520746865207A65726F206164647265 PUSH1 0x64 DUP3 ADD MSTORE PUSH2 0x7373 PUSH1 0xF0 SHL PUSH1 0x84 DUP3 ADD MSTORE PUSH1 0xA4 ADD PUSH2 0x298 JUMP JUMPDEST PUSH1 0x7 SLOAD PUSH1 0x0 SWAP1 PUSH2 0x7B4 SWAP1 DUP10 PUSH2 0x111A JUMP JUMPDEST SWAP1 POP DUP3 ISZERO PUSH2 0x8FE JUMPI PUSH1 0x40 MLOAD PUSH4 0x70A08231 PUSH1 0xE0 SHL DUP2 MSTORE ADDRESS PUSH1 0x4 DUP3 ADD MSTORE PUSH32 0x0 PUSH1 0x1 PUSH1 0x1 PUSH1 0xA0 SHL SUB AND SWAP1 PUSH4 0x70A08231 SWAP1 PUSH1 0x24 ADD PUSH1 0x20 PUSH1 0x40 MLOAD DUP1 DUP4 SUB DUP2 DUP7 DUP1 EXTCODESIZE ISZERO DUP1 ISZERO PUSH2 0x81B JUMPI PUSH1 0x0 DUP1 REVERT JUMPDEST POP GAS STATICCALL ISZERO DUP1 ISZERO PUSH2 0x82F JUMPI RETURNDATASIZE PUSH1 0x0 DUP1 RETURNDATACOPY RETURNDATASIZE PUSH1 0x0 REVERT JUMPDEST POP POP POP POP PUSH1 0x40 MLOAD RETURNDATASIZE PUSH1 0x1F NOT PUSH1 0x1F DUP3 ADD AND DUP3 ADD DUP1 PUSH1 0x40 MSTORE POP DUP2 ADD SWAP1 PUSH2 0x853 SWAP2 SWAP1 PUSH2 0x1468 JUMP JUMPDEST DUP2 GT ISZERO PUSH2 0x8FE JUMPI PUSH1 0x40 MLOAD PUSH3 0x461BCD PUSH1 0xE5 SHL DUP2 MSTORE PUSH1 0x20 PUSH1 0x4 DUP3 ADD MSTORE PUSH1 0x67 PUSH1 0x24 DUP3 ADD MSTORE PUSH32 0x4D696E6F7269747956657374696E674D616E616765723A204E6F7420656E6F75 PUSH1 0x44 DUP3 ADD MSTORE PUSH32 0x676820746F6B656E7320696E20636F6E747261637420746F20766573742E2054 PUSH1 0x64 DUP3 ADD MSTORE PUSH32 0x72616E7366657220746F6B656E73206265666F726520616464696E6720612073 PUSH1 0x84 DUP3 ADD MSTORE PUSH7 0x63686564756C65 PUSH1 0xC8 SHL PUSH1 0xA4 DUP3 ADD MSTORE PUSH1 0xC4 ADD PUSH2 0x298 JUMP JUMPDEST PUSH1 0x0 DUP6 ISZERO PUSH2 0x920 JUMPI PUSH2 0x91B PUSH2 0x914 DUP9 PUSH1 0x3C PUSH2 0x1293 JUMP JUMPDEST DUP8 SWAP1 PUSH2 0x111A JUMP JUMPDEST PUSH2 0x922 JUMP JUMPDEST DUP6 JUMPDEST SWAP1 POP PUSH1 0x0 PUSH1 0x40 MLOAD DUP1 PUSH2 0x100 ADD PUSH1 0x40 MSTORE DUP1 DUP12 DUP2 MSTORE PUSH1 0x20 ADD PUSH2 0x956 PUSH1 0x64 PUSH2 0x950 DUP14 DUP16 PUSH2 0x1293 SWAP1 SWAP2 SWAP1 PUSH4 0xFFFFFFFF AND JUMP JUMPDEST SWAP1 PUSH2 0x1312 JUMP JUMPDEST DUP2 MSTORE PUSH1 0x0 PUSH1 0x20 DUP3 ADD MSTORE PUSH1 0x40 ADD PUSH2 0x96D DUP11 PUSH1 0x3C PUSH2 0x1293 JUMP JUMPDEST DUP2 MSTORE PUSH1 0x20 DUP1 DUP3 ADD DUP11 SWAP1 MSTORE PUSH1 0x40 DUP1 DUP4 ADD DUP7 SWAP1 MSTORE PUSH1 0x1 PUSH1 0x1 PUSH1 0xA0 SHL SUB DUP1 DUP12 AND PUSH1 0x60 DUP1 DUP7 ADD SWAP2 SWAP1 SWAP2 MSTORE PUSH1 0x0 PUSH1 0x80 SWAP6 DUP7 ADD DUP2 SWAP1 MSTORE PUSH1 0x4 DUP1 SLOAD PUSH1 0x1 DUP2 DUP2 ADD DUP4 SSTORE DUP3 DUP5 MSTORE DUP10 MLOAD PUSH1 0x7 SWAP3 DUP4 MUL PUSH32 0x8A35ACFBC15FF81A39AE7D344FD709F28E8600B4AA8C65C6B64BFE7FE36BD19B DUP2 ADD SWAP2 SWAP1 SWAP2 SSTORE SWAP8 DUP11 ADD MLOAD PUSH32 0x8A35ACFBC15FF81A39AE7D344FD709F28E8600B4AA8C65C6B64BFE7FE36BD19C DUP10 ADD SSTORE SWAP6 DUP10 ADD MLOAD PUSH32 0x8A35ACFBC15FF81A39AE7D344FD709F28E8600B4AA8C65C6B64BFE7FE36BD19D DUP9 ADD SSTORE SWAP3 DUP9 ADD MLOAD PUSH32 0x8A35ACFBC15FF81A39AE7D344FD709F28E8600B4AA8C65C6B64BFE7FE36BD19E DUP8 ADD SSTORE SWAP6 DUP8 ADD MLOAD PUSH32 0x8A35ACFBC15FF81A39AE7D344FD709F28E8600B4AA8C65C6B64BFE7FE36BD19F DUP7 ADD SSTORE PUSH1 0xA0 DUP8 ADD MLOAD PUSH32 0x8A35ACFBC15FF81A39AE7D344FD709F28E8600B4AA8C65C6B64BFE7FE36BD1A0 DUP7 ADD SSTORE PUSH1 0xC0 DUP8 ADD MLOAD PUSH32 0x8A35ACFBC15FF81A39AE7D344FD709F28E8600B4AA8C65C6B64BFE7FE36BD1A1 SWAP1 SWAP6 ADD DUP1 SLOAD PUSH1 0xE0 DUP10 ADD MLOAD ISZERO ISZERO PUSH1 0x1 PUSH1 0xA0 SHL MUL PUSH1 0x1 PUSH1 0x1 PUSH1 0xA8 SHL SUB NOT SWAP1 SWAP2 AND SWAP7 SWAP1 SWAP5 AND SWAP6 SWAP1 SWAP6 OR SWAP3 SWAP1 SWAP3 OR SWAP1 SWAP4 SSTORE SWAP2 DUP8 SWAP1 SSTORE SWAP2 SLOAD SWAP3 SWAP4 POP SWAP2 PUSH2 0xB09 SWAP2 SWAP1 PUSH2 0x16C2 JUMP JUMPDEST SWAP1 POP PUSH2 0xB15 DUP2 DUP5 PUSH2 0x126B JUMP JUMPDEST DUP2 MLOAD PUSH1 0x20 DUP1 DUP5 ADD MLOAD PUSH1 0x60 DUP1 DUP7 ADD MLOAD PUSH1 0x80 DUP1 DUP9 ADD MLOAD PUSH1 0xA0 DUP1 DUP11 ADD MLOAD PUSH1 0xC0 DUP1 DUP13 ADD MLOAD PUSH1 0x40 DUP1 MLOAD DUP14 DUP2 MSTORE SWAP11 DUP12 ADD SWAP12 SWAP1 SWAP12 MSTORE DUP10 DUP12 ADD SWAP9 SWAP1 SWAP9 MSTORE SWAP6 DUP9 ADD SWAP5 SWAP1 SWAP5 MSTORE SWAP2 DUP7 ADD MSTORE DUP5 ADD MSTORE PUSH1 0x1 PUSH1 0x1 PUSH1 0xA0 SHL SUB SWAP1 SWAP2 AND SWAP1 DUP3 ADD MSTORE SWAP1 MLOAD PUSH32 0xFF7D5B9238FDF530D746EA0E1B517671E3E0FD1414A36E69A57867DC707DC65A SWAP2 DUP2 SWAP1 SUB PUSH1 0xE0 ADD SWAP1 LOG1 SWAP11 SWAP10 POP POP POP POP POP POP POP POP POP POP JUMP JUMPDEST PUSH1 0x4 DUP2 DUP2 SLOAD DUP2 LT PUSH2 0xBB1 JUMPI PUSH1 0x0 DUP1 REVERT JUMPDEST PUSH1 0x0 SWAP2 DUP3 MSTORE PUSH1 0x20 SWAP1 SWAP2 KECCAK256 PUSH1 0x7 SWAP1 SWAP2 MUL ADD DUP1 SLOAD PUSH1 0x1 DUP3 ADD SLOAD PUSH1 0x2 DUP4 ADD SLOAD PUSH1 0x3 DUP5 ADD SLOAD PUSH1 0x4 DUP6 ADD SLOAD PUSH1 0x5 DUP7 ADD SLOAD PUSH1 0x6 SWAP1 SWAP7 ADD SLOAD SWAP5 SWAP7 POP SWAP3 SWAP5 SWAP2 SWAP4 SWAP1 SWAP3 SWAP2 SWAP1 PUSH1 0x1 PUSH1 0x1 PUSH1 0xA0 SHL SUB DUP2 AND SWAP1 PUSH1 0x1 PUSH1 0xA0 SHL SWAP1 DIV PUSH1 0xFF AND DUP9 JUMP JUMPDEST PUSH1 0x0 SLOAD PUSH1 0x1 PUSH1 0x1 PUSH1 0xA0 SHL SUB AND CALLER EQ PUSH2 0xC2F JUMPI PUSH1 0x40 MLOAD PUSH3 0x461BCD PUSH1 0xE5 SHL DUP2 MSTORE PUSH1 0x4 ADD PUSH2 0x298 SWAP1 PUSH2 0x1597 JUMP JUMPDEST PUSH1 0x0 DUP1 SLOAD PUSH1 0x40 MLOAD PUSH1 0x1 PUSH1 0x1 PUSH1 0xA0 SHL SUB SWAP1 SWAP2 AND SWAP1 PUSH32 0x8BE0079C531659141344CD1FD0A4F28419497F9722A3DAAFE3B4186F6B6457E0 SWAP1 DUP4 SWAP1 LOG3 PUSH1 0x0 DUP1 SLOAD PUSH1 0x1 PUSH1 0x1 PUSH1 0xA0 SHL SUB NOT AND SWAP1 SSTORE JUMP JUMPDEST TIMESTAMP PUSH1 0x5 SLOAD GT ISZERO DUP1 ISZERO PUSH2 0xC8C JUMPI POP PUSH1 0x5 SLOAD ISZERO ISZERO JUMPDEST ISZERO PUSH2 0xDCE JUMPI PUSH1 0x0 PUSH1 0x4 PUSH1 0x6 SLOAD DUP2 SLOAD DUP2 LT PUSH2 0xCB6 JUMPI PUSH4 0x4E487B71 PUSH1 0xE0 SHL PUSH1 0x0 MSTORE PUSH1 0x32 PUSH1 0x4 MSTORE PUSH1 0x24 PUSH1 0x0 REVERT JUMPDEST PUSH1 0x0 SWAP2 DUP3 MSTORE PUSH1 0x20 SWAP2 DUP3 SWAP1 KECCAK256 PUSH1 0x40 DUP1 MLOAD PUSH2 0x100 DUP2 ADD DUP3 MSTORE PUSH1 0x7 SWAP4 SWAP1 SWAP4 MUL SWAP1 SWAP2 ADD DUP1 SLOAD DUP4 MSTORE PUSH1 0x1 DUP2 ADD SLOAD SWAP4 DUP4 ADD DUP5 SWAP1 MSTORE PUSH1 0x2 DUP2 ADD SLOAD DUP4 DUP4 ADD MSTORE PUSH1 0x3 DUP2 ADD SLOAD PUSH1 0x60 DUP5 ADD MSTORE PUSH1 0x4 DUP1 DUP3 ADD SLOAD PUSH1 0x80 DUP6 ADD MSTORE PUSH1 0x5 DUP3 ADD SLOAD PUSH1 0xA0 DUP6 ADD MSTORE PUSH1 0x6 SWAP1 SWAP2 ADD SLOAD PUSH1 0x1 PUSH1 0x1 PUSH1 0xA0 SHL SUB DUP1 DUP3 AND PUSH1 0xC0 DUP7 ADD DUP2 SWAP1 MSTORE PUSH1 0x1 PUSH1 0xA0 SHL SWAP1 SWAP3 DIV PUSH1 0xFF AND ISZERO ISZERO PUSH1 0xE0 DUP7 ADD MSTORE SWAP3 MLOAD PUSH4 0xA9059CBB PUSH1 0xE0 SHL DUP2 MSTORE SWAP2 DUP3 ADD MSTORE PUSH1 0x24 DUP2 ADD DUP5 SWAP1 MSTORE SWAP2 SWAP4 POP PUSH32 0x0 AND SWAP1 PUSH4 0xA9059CBB SWAP1 PUSH1 0x44 ADD PUSH1 0x20 PUSH1 0x40 MLOAD DUP1 DUP4 SUB DUP2 PUSH1 0x0 DUP8 DUP1 EXTCODESIZE ISZERO DUP1 ISZERO PUSH2 0xD96 JUMPI PUSH1 0x0 DUP1 REVERT JUMPDEST POP GAS CALL ISZERO DUP1 ISZERO PUSH2 0xDAA JUMPI RETURNDATASIZE PUSH1 0x0 DUP1 RETURNDATACOPY RETURNDATASIZE PUSH1 0x0 REVERT JUMPDEST POP POP POP POP PUSH1 0x40 MLOAD RETURNDATASIZE PUSH1 0x1F NOT PUSH1 0x1F DUP3 ADD AND DUP3 ADD DUP1 PUSH1 0x40 MSTORE POP DUP2 ADD SWAP1 PUSH2 0x600 SWAP2 SWAP1 PUSH2 0x1434 JUMP JUMPDEST JUMP JUMPDEST PUSH1 0x3 SLOAD PUSH1 0x1 PUSH1 0x1 PUSH1 0xA0 SHL SUB AND CALLER EQ DUP1 PUSH2 0xDF3 JUMPI POP PUSH1 0x0 SLOAD PUSH1 0x1 PUSH1 0x1 PUSH1 0xA0 SHL SUB AND CALLER EQ JUMPDEST PUSH2 0xE0F JUMPI PUSH1 0x40 MLOAD PUSH3 0x461BCD PUSH1 0xE5 SHL DUP2 MSTORE PUSH1 0x4 ADD PUSH2 0x298 SWAP1 PUSH2 0x15CC JUMP JUMPDEST PUSH1 0x4 SLOAD DUP2 LT PUSH2 0xE30 JUMPI PUSH1 0x40 MLOAD PUSH3 0x461BCD PUSH1 0xE5 SHL DUP2 MSTORE PUSH1 0x4 ADD PUSH2 0x298 SWAP1 PUSH2 0x1629 JUMP JUMPDEST PUSH1 0x4 DUP2 DUP2 SLOAD DUP2 LT PUSH2 0xE51 JUMPI PUSH4 0x4E487B71 PUSH1 0xE0 SHL PUSH1 0x0 MSTORE PUSH1 0x32 PUSH1 0x4 MSTORE PUSH1 0x24 PUSH1 0x0 REVERT JUMPDEST SWAP1 PUSH1 0x0 MSTORE PUSH1 0x20 PUSH1 0x0 KECCAK256 SWAP1 PUSH1 0x7 MUL ADD PUSH1 0x6 ADD PUSH1 0x14 SWAP1 SLOAD SWAP1 PUSH2 0x100 EXP SWAP1 DIV PUSH1 0xFF AND ISZERO PUSH2 0xEC6 JUMPI PUSH1 0x40 MLOAD PUSH3 0x461BCD PUSH1 0xE5 SHL DUP2 MSTORE PUSH1 0x20 PUSH1 0x4 DUP3 ADD MSTORE PUSH1 0x32 PUSH1 0x24 DUP3 ADD MSTORE PUSH1 0x0 DUP1 MLOAD PUSH1 0x20 PUSH2 0x171C DUP4 CODECOPY DUP2 MLOAD SWAP2 MSTORE PUSH1 0x44 DUP3 ADD MSTORE PUSH18 0x125108185B1C9958591E481C995B5BDD9959 PUSH1 0x72 SHL PUSH1 0x64 DUP3 ADD MSTORE PUSH1 0x84 ADD PUSH2 0x298 JUMP JUMPDEST PUSH1 0x1 PUSH1 0x4 DUP3 DUP2 SLOAD DUP2 LT PUSH2 0xEE9 JUMPI PUSH4 0x4E487B71 PUSH1 0xE0 SHL PUSH1 0x0 MSTORE PUSH1 0x32 PUSH1 0x4 MSTORE PUSH1 0x24 PUSH1 0x0 REVERT JUMPDEST SWAP1 PUSH1 0x0 MSTORE PUSH1 0x20 PUSH1 0x0 KECCAK256 SWAP1 PUSH1 0x7 MUL ADD PUSH1 0x6 ADD PUSH1 0x14 PUSH2 0x100 EXP DUP2 SLOAD DUP2 PUSH1 0xFF MUL NOT AND SWAP1 DUP4 ISZERO ISZERO MUL OR SWAP1 SSTORE POP PUSH2 0xF8A PUSH1 0x4 DUP3 DUP2 SLOAD DUP2 LT PUSH2 0xF35 JUMPI PUSH4 0x4E487B71 PUSH1 0xE0 SHL PUSH1 0x0 MSTORE PUSH1 0x32 PUSH1 0x4 MSTORE PUSH1 0x24 PUSH1 0x0 REVERT JUMPDEST SWAP1 PUSH1 0x0 MSTORE PUSH1 0x20 PUSH1 0x0 KECCAK256 SWAP1 PUSH1 0x7 MUL ADD PUSH1 0x2 ADD SLOAD PUSH2 0xF84 PUSH1 0x4 DUP5 DUP2 SLOAD DUP2 LT PUSH2 0xF6B JUMPI PUSH4 0x4E487B71 PUSH1 0xE0 SHL PUSH1 0x0 MSTORE PUSH1 0x32 PUSH1 0x4 MSTORE PUSH1 0x24 PUSH1 0x0 REVERT JUMPDEST PUSH1 0x0 SWAP2 DUP3 MSTORE PUSH1 0x20 SWAP1 SWAP2 KECCAK256 PUSH1 0x7 SWAP2 DUP3 MUL ADD SLOAD SWAP1 SLOAD SWAP1 PUSH2 0x1354 JUMP JUMPDEST SWAP1 PUSH2 0x111A JUMP JUMPDEST PUSH1 0x7 SSTORE PUSH1 0x6 SLOAD DUP2 EQ ISZERO PUSH2 0xF9F JUMPI PUSH2 0xF9F PUSH2 0x1182 JUMP JUMPDEST PUSH1 0x40 MLOAD DUP2 DUP2 MSTORE PUSH32 0x3A9782B2E3F78DEE6DE9B41F31D0F34064EE9D7BD4A79E5E3F7E0C1CA528BBA3 SWAP1 PUSH1 0x20 ADD PUSH1 0x40 MLOAD DUP1 SWAP2 SUB SWAP1 LOG1 POP JUMP JUMPDEST PUSH1 0x3 SLOAD PUSH1 0x0 SWAP1 PUSH1 0x1 PUSH1 0x1 PUSH1 0xA0 SHL SUB AND CALLER EQ DUP1 PUSH2 0xFFB JUMPI POP PUSH1 0x0 SLOAD PUSH1 0x1 PUSH1 0x1 PUSH1 0xA0 SHL SUB AND CALLER EQ JUMPDEST PUSH2 0x1017 JUMPI PUSH1 0x40 MLOAD PUSH3 0x461BCD PUSH1 0xE5 SHL DUP2 MSTORE PUSH1 0x4 ADD PUSH2 0x298 SWAP1 PUSH2 0x15CC JUMP JUMPDEST PUSH2 0x1026 DUP7 DUP7 DUP7 DUP7 DUP7 PUSH1 0x1 PUSH2 0x60F JUMP JUMPDEST SWAP7 SWAP6 POP POP POP POP POP POP JUMP JUMPDEST PUSH1 0x0 SLOAD PUSH1 0x1 PUSH1 0x1 PUSH1 0xA0 SHL SUB AND CALLER EQ PUSH2 0x105A JUMPI PUSH1 0x40 MLOAD PUSH3 0x461BCD PUSH1 0xE5 SHL DUP2 MSTORE PUSH1 0x4 ADD PUSH2 0x298 SWAP1 PUSH2 0x1597 JUMP JUMPDEST PUSH1 0x1 PUSH1 0x1 PUSH1 0xA0 SHL SUB DUP2 AND PUSH2 0x10BF JUMPI PUSH1 0x40 MLOAD PUSH3 0x461BCD PUSH1 0xE5 SHL DUP2 MSTORE PUSH1 0x20 PUSH1 0x4 DUP3 ADD MSTORE PUSH1 0x26 PUSH1 0x24 DUP3 ADD MSTORE PUSH32 0x4F776E61626C653A206E6577206F776E657220697320746865207A65726F2061 PUSH1 0x44 DUP3 ADD MSTORE PUSH6 0x646472657373 PUSH1 0xD0 SHL PUSH1 0x64 DUP3 ADD MSTORE PUSH1 0x84 ADD PUSH2 0x298 JUMP JUMPDEST PUSH1 0x0 DUP1 SLOAD PUSH1 0x40 MLOAD PUSH1 0x1 PUSH1 0x1 PUSH1 0xA0 SHL SUB DUP1 DUP6 AND SWAP4 SWAP3 AND SWAP2 PUSH32 0x8BE0079C531659141344CD1FD0A4F28419497F9722A3DAAFE3B4186F6B6457E0 SWAP2 LOG3 PUSH1 0x0 DUP1 SLOAD PUSH1 0x1 PUSH1 0x1 PUSH1 0xA0 SHL SUB NOT AND PUSH1 0x1 PUSH1 0x1 PUSH1 0xA0 SHL SUB SWAP3 SWAP1 SWAP3 AND SWAP2 SWAP1 SWAP2 OR SWAP1 SSTORE JUMP JUMPDEST PUSH1 0x0 DUP1 PUSH2 0x1127 DUP4 DUP6 PUSH2 0x166B JUMP JUMPDEST SWAP1 POP DUP4 DUP2 LT ISZERO PUSH2 0x1179 JUMPI PUSH1 0x40 MLOAD PUSH3 0x461BCD PUSH1 0xE5 SHL DUP2 MSTORE PUSH1 0x20 PUSH1 0x4 DUP3 ADD MSTORE PUSH1 0x1B PUSH1 0x24 DUP3 ADD MSTORE PUSH32 0x536166654D6174683A206164646974696F6E206F766572666C6F770000000000 PUSH1 0x44 DUP3 ADD MSTORE PUSH1 0x64 ADD PUSH2 0x298 JUMP JUMPDEST SWAP1 POP JUMPDEST SWAP3 SWAP2 POP POP JUMP JUMPDEST PUSH1 0x4 SLOAD PUSH1 0x0 JUMPDEST DUP2 DUP2 LT ISZERO PUSH2 0x1267 JUMPI PUSH1 0x6 SLOAD DUP2 EQ ISZERO DUP1 ISZERO PUSH2 0x11DF JUMPI POP PUSH1 0x4 DUP2 DUP2 SLOAD DUP2 LT PUSH2 0x11BE JUMPI PUSH4 0x4E487B71 PUSH1 0xE0 SHL PUSH1 0x0 MSTORE PUSH1 0x32 PUSH1 0x4 MSTORE PUSH1 0x24 PUSH1 0x0 REVERT JUMPDEST SWAP1 PUSH1 0x0 MSTORE PUSH1 0x20 PUSH1 0x0 KECCAK256 SWAP1 PUSH1 0x7 MUL ADD PUSH1 0x6 ADD PUSH1 0x14 SWAP1 SLOAD SWAP1 PUSH2 0x100 EXP SWAP1 DIV PUSH1 0xFF AND ISZERO JUMPDEST ISZERO PUSH2 0x1255 JUMPI PUSH1 0x0 PUSH1 0x4 DUP3 DUP2 SLOAD DUP2 LT PUSH2 0x1207 JUMPI PUSH4 0x4E487B71 PUSH1 0xE0 SHL PUSH1 0x0 MSTORE PUSH1 0x32 PUSH1 0x4 MSTORE PUSH1 0x24 PUSH1 0x0 REVERT JUMPDEST SWAP1 PUSH1 0x0 MSTORE PUSH1 0x20 PUSH1 0x0 KECCAK256 SWAP1 PUSH1 0x7 MUL ADD PUSH1 0x5 ADD SLOAD SWAP1 POP DUP1 PUSH1 0x0 EQ PUSH2 0x1253 JUMPI TIMESTAMP DUP2 GT PUSH2 0x1233 JUMPI PUSH1 0x5 SSTORE PUSH1 0x6 SSTORE POP JUMP JUMPDEST PUSH1 0x5 SLOAD DUP2 LT DUP1 PUSH2 0x1243 JUMPI POP PUSH1 0x5 SLOAD ISZERO JUMPDEST ISZERO PUSH2 0x1253 JUMPI PUSH1 0x5 DUP2 SWAP1 SSTORE PUSH1 0x6 DUP3 SWAP1 SSTORE JUMPDEST POP JUMPDEST DUP1 PUSH2 0x125F DUP2 PUSH2 0x16D9 JUMP JUMPDEST SWAP2 POP POP PUSH2 0x1188 JUMP JUMPDEST POP POP JUMP JUMPDEST PUSH1 0x5 SLOAD DUP2 LT DUP1 PUSH2 0x127B JUMPI POP PUSH1 0x5 SLOAD ISZERO JUMPDEST DUP1 ISZERO PUSH2 0x1286 JUMPI POP DUP1 ISZERO ISZERO JUMPDEST ISZERO PUSH2 0x1267 JUMPI PUSH1 0x5 SSTORE PUSH1 0x6 SSTORE JUMP JUMPDEST PUSH1 0x0 DUP3 PUSH2 0x12A2 JUMPI POP PUSH1 0x0 PUSH2 0x117C JUMP JUMPDEST PUSH1 0x0 PUSH2 0x12AE DUP4 DUP6 PUSH2 0x16A3 JUMP JUMPDEST SWAP1 POP DUP3 PUSH2 0x12BB DUP6 DUP4 PUSH2 0x1683 JUMP JUMPDEST EQ PUSH2 0x1179 JUMPI PUSH1 0x40 MLOAD PUSH3 0x461BCD PUSH1 0xE5 SHL DUP2 MSTORE PUSH1 0x20 PUSH1 0x4 DUP3 ADD MSTORE PUSH1 0x21 PUSH1 0x24 DUP3 ADD MSTORE PUSH32 0x536166654D6174683A206D756C7469706C69636174696F6E206F766572666C6F PUSH1 0x44 DUP3 ADD MSTORE PUSH1 0x77 PUSH1 0xF8 SHL PUSH1 0x64 DUP3 ADD MSTORE PUSH1 0x84 ADD PUSH2 0x298 JUMP JUMPDEST PUSH1 0x0 PUSH2 0x1179 DUP4 DUP4 PUSH1 0x40 MLOAD DUP1 PUSH1 0x40 ADD PUSH1 0x40 MSTORE DUP1 PUSH1 0x1A DUP2 MSTORE PUSH1 0x20 ADD PUSH32 0x536166654D6174683A206469766973696F6E206279207A65726F000000000000 DUP2 MSTORE POP PUSH2 0x1396 JUMP JUMPDEST PUSH1 0x0 PUSH2 0x1179 DUP4 DUP4 PUSH1 0x40 MLOAD DUP1 PUSH1 0x40 ADD PUSH1 0x40 MSTORE DUP1 PUSH1 0x1E DUP2 MSTORE PUSH1 0x20 ADD PUSH32 0x536166654D6174683A207375627472616374696F6E206F766572666C6F770000 DUP2 MSTORE POP PUSH2 0x13CD JUMP JUMPDEST PUSH1 0x0 DUP2 DUP4 PUSH2 0x13B7 JUMPI PUSH1 0x40 MLOAD PUSH3 0x461BCD PUSH1 0xE5 SHL DUP2 MSTORE PUSH1 0x4 ADD PUSH2 0x298 SWAP2 SWAP1 PUSH2 0x1544 JUMP JUMPDEST POP PUSH1 0x0 PUSH2 0x13C4 DUP5 DUP7 PUSH2 0x1683 JUMP JUMPDEST SWAP6 SWAP5 POP POP POP POP POP JUMP JUMPDEST PUSH1 0x0 DUP2 DUP5 DUP5 GT ISZERO PUSH2 0x13F1 JUMPI PUSH1 0x40 MLOAD PUSH3 0x461BCD PUSH1 0xE5 SHL DUP2 MSTORE PUSH1 0x4 ADD PUSH2 0x298 SWAP2 SWAP1 PUSH2 0x1544 JUMP JUMPDEST POP PUSH1 0x0 PUSH2 0x13C4 DUP5 DUP7 PUSH2 0x16C2 JUMP JUMPDEST DUP1 CALLDATALOAD PUSH1 0x1 PUSH1 0x1 PUSH1 0xA0 SHL SUB DUP2 AND DUP2 EQ PUSH2 0x1415 JUMPI PUSH1 0x0 DUP1 REVERT JUMPDEST SWAP2 SWAP1 POP JUMP JUMPDEST PUSH1 0x0 PUSH1 0x20 DUP3 DUP5 SUB SLT ISZERO PUSH2 0x142B JUMPI DUP1 DUP2 REVERT JUMPDEST PUSH2 0x1179 DUP3 PUSH2 0x13FE JUMP JUMPDEST PUSH1 0x0 PUSH1 0x20 DUP3 DUP5 SUB SLT ISZERO PUSH2 0x1445 JUMPI DUP1 DUP2 REVERT JUMPDEST DUP2 MLOAD PUSH2 0x1179 DUP2 PUSH2 0x170A JUMP JUMPDEST PUSH1 0x0 PUSH1 0x20 DUP3 DUP5 SUB SLT ISZERO PUSH2 0x1461 JUMPI DUP1 DUP2 REVERT JUMPDEST POP CALLDATALOAD SWAP2 SWAP1 POP JUMP JUMPDEST PUSH1 0x0 PUSH1 0x20 DUP3 DUP5 SUB SLT ISZERO PUSH2 0x1479 JUMPI DUP1 DUP2 REVERT JUMPDEST POP MLOAD SWAP2 SWAP1 POP JUMP JUMPDEST PUSH1 0x0 DUP1 PUSH1 0x40 DUP4 DUP6 SUB SLT ISZERO PUSH2 0x1492 JUMPI DUP1 DUP2 REVERT JUMPDEST POP POP DUP1 CALLDATALOAD SWAP3 PUSH1 0x20 SWAP1 SWAP2 ADD CALLDATALOAD SWAP2 POP JUMP JUMPDEST PUSH1 0x0 DUP1 PUSH1 0x0 DUP1 PUSH1 0x0 PUSH1 0xA0 DUP7 DUP9 SUB SLT ISZERO PUSH2 0x14B8 JUMPI DUP1 DUP2 REVERT JUMPDEST DUP6 CALLDATALOAD SWAP5 POP PUSH1 0x20 DUP7 ADD CALLDATALOAD SWAP4 POP PUSH1 0x40 DUP7 ADD CALLDATALOAD SWAP3 POP PUSH1 0x60 DUP7 ADD CALLDATALOAD SWAP2 POP PUSH2 0x14DD PUSH1 0x80 DUP8 ADD PUSH2 0x13FE JUMP JUMPDEST SWAP1 POP SWAP3 SWAP6 POP SWAP3 SWAP6 SWAP1 SWAP4 POP JUMP JUMPDEST PUSH1 0x0 DUP1 PUSH1 0x0 DUP1 PUSH1 0x0 DUP1 PUSH1 0xC0 DUP8 DUP10 SUB SLT ISZERO PUSH2 0x1501 JUMPI DUP1 DUP2 REVERT JUMPDEST DUP7 CALLDATALOAD SWAP6 POP PUSH1 0x20 DUP8 ADD CALLDATALOAD SWAP5 POP PUSH1 0x40 DUP8 ADD CALLDATALOAD SWAP4 POP PUSH1 0x60 DUP8 ADD CALLDATALOAD SWAP3 POP PUSH2 0x1526 PUSH1 0x80 DUP9 ADD PUSH2 0x13FE JUMP JUMPDEST SWAP2 POP PUSH1 0xA0 DUP8 ADD CALLDATALOAD PUSH2 0x1536 DUP2 PUSH2 0x170A JUMP JUMPDEST DUP1 SWAP2 POP POP SWAP3 SWAP6 POP SWAP3 SWAP6 POP SWAP3 SWAP6 JUMP JUMPDEST PUSH1 0x0 PUSH1 0x20 DUP1 DUP4 MSTORE DUP4 MLOAD DUP1 DUP3 DUP6 ADD MSTORE DUP3 JUMPDEST DUP2 DUP2 LT ISZERO PUSH2 0x1570 JUMPI DUP6 DUP2 ADD DUP4 ADD MLOAD DUP6 DUP3 ADD PUSH1 0x40 ADD MSTORE DUP3 ADD PUSH2 0x1554 JUMP JUMPDEST DUP2 DUP2 GT ISZERO PUSH2 0x1581 JUMPI DUP4 PUSH1 0x40 DUP4 DUP8 ADD ADD MSTORE JUMPDEST POP PUSH1 0x1F ADD PUSH1 0x1F NOT AND SWAP3 SWAP1 SWAP3 ADD PUSH1 0x40 ADD SWAP4 SWAP3 POP POP POP JUMP JUMPDEST PUSH1 0x20 DUP1 DUP3 MSTORE DUP2 DUP2 ADD MSTORE PUSH32 0x4F776E61626C653A2063616C6C6572206973206E6F7420746865206F776E6572 PUSH1 0x40 DUP3 ADD MSTORE PUSH1 0x60 ADD SWAP1 JUMP JUMPDEST PUSH1 0x20 DUP1 DUP3 MSTORE PUSH1 0x3C SWAP1 DUP3 ADD MSTORE PUSH32 0x4D696E6F7269747956657374696E674D616E616765723A206F6E6C7920616363 PUSH1 0x40 DUP3 ADD MSTORE PUSH32 0x65737369626C65206279206F70657261746F72206F72206F776E657200000000 PUSH1 0x60 DUP3 ADD MSTORE PUSH1 0x80 ADD SWAP1 JUMP JUMPDEST PUSH1 0x20 DUP1 DUP3 MSTORE PUSH1 0x22 SWAP1 DUP3 ADD MSTORE PUSH32 0x4D696E6F7269747956657374696E674D616E616765723A20696E76616C696420 PUSH1 0x40 DUP3 ADD MSTORE PUSH2 0x1251 PUSH1 0xF2 SHL PUSH1 0x60 DUP3 ADD MSTORE PUSH1 0x80 ADD SWAP1 JUMP JUMPDEST PUSH1 0x0 DUP3 NOT DUP3 GT ISZERO PUSH2 0x167E JUMPI PUSH2 0x167E PUSH2 0x16F4 JUMP JUMPDEST POP ADD SWAP1 JUMP JUMPDEST PUSH1 0x0 DUP3 PUSH2 0x169E JUMPI PUSH4 0x4E487B71 PUSH1 0xE0 SHL DUP2 MSTORE PUSH1 0x12 PUSH1 0x4 MSTORE PUSH1 0x24 DUP2 REVERT JUMPDEST POP DIV SWAP1 JUMP JUMPDEST PUSH1 0x0 DUP2 PUSH1 0x0 NOT DIV DUP4 GT DUP3 ISZERO ISZERO AND ISZERO PUSH2 0x16BD JUMPI PUSH2 0x16BD PUSH2 0x16F4 JUMP JUMPDEST POP MUL SWAP1 JUMP JUMPDEST PUSH1 0x0 DUP3 DUP3 LT ISZERO PUSH2 0x16D4 JUMPI PUSH2 0x16D4 PUSH2 0x16F4 JUMP JUMPDEST POP SUB SWAP1 JUMP JUMPDEST PUSH1 0x0 PUSH1 0x0 NOT DUP3 EQ ISZERO PUSH2 0x16ED JUMPI PUSH2 0x16ED PUSH2 0x16F4 JUMP JUMPDEST POP PUSH1 0x1 ADD SWAP1 JUMP JUMPDEST PUSH4 0x4E487B71 PUSH1 0xE0 SHL PUSH1 0x0 MSTORE PUSH1 0x11 PUSH1 0x4 MSTORE PUSH1 0x24 PUSH1 0x0 REVERT JUMPDEST DUP1 ISZERO ISZERO DUP2 EQ PUSH2 0x1718 JUMPI PUSH1 0x0 DUP1 REVERT JUMPDEST POP JUMP INVALID 0x4D PUSH10 0x6E6F7269747956657374 PUSH10 0x6E674D616E616765723A KECCAK256 PUSH23 0x657374696E6720A2646970667358221220839CB582736B SWAP2 0xF8 SAR PUSH31 0x30F3566963E63F1A8F67195158F84B344AE067F0778764736F6C6343000804 STOP CALLER "
		},
		"gasEstimates": {
			"creation": {
				"codeDepositCost": "1200200",
				"executionCost": "infinite",
				"totalCost": "infinite"
			},
			"external": {
				"addVestingSchedule(uint256,uint256,uint256,uint256,address)": "infinite",
				"addVestingSchedule(uint256,uint256,uint256,uint256,address,bool)": "infinite",
				"executePendingVests()": "infinite",
				"getVestingInfo(uint256)": "8217",
				"minorityToken()": "infinite",
				"modifyVestingStartTime(uint256,uint256)": "infinite",
				"nextRewardDue()": "1040",
				"nextRewardID()": "1018",
				"operator()": "1082",
				"owner()": "1120",
				"removeVestingSchedule(uint256)": "infinite",
				"renounceOwnership()": "24188",
				"totalTokensUnderManagement()": "1039",
				"transferOwnership(address)": "24492",
				"vestingSchedules(uint256)": "7160"
			},
			"internal": {
				"findNextRewardID()": "infinite",
				"updateNextRewards(uint256,uint256)": "41696"
			}
		},
		"methodIdentifiers": {
			"addVestingSchedule(uint256,uint256,uint256,uint256,address)": "9f91d484",
			"addVestingSchedule(uint256,uint256,uint256,uint256,address,bool)": "3e34e66d",
			"executePendingVests()": "8adc760d",
			"getVestingInfo(uint256)": "20f6b0a9",
			"minorityToken()": "5a533efd",
			"modifyVestingStartTime(uint256,uint256)": "22811b9f",
			"nextRewardDue()": "84f61358",
			"nextRewardID()": "56329ee6",
			"operator()": "570ca735",
			"owner()": "8da5cb5b",
			"removeVestingSchedule(uint256)": "98fb7a98",
			"renounceOwnership()": "715018a6",
			"totalTokensUnderManagement()": "9c86aee8",
			"transferOwnership(address)": "f2fde38b",
			"vestingSchedules(uint256)": "6d3cbe21"
		}
	},
	"abi": [
		{
			"inputs": [
				{
					"internalType": "address",
					"name": "_operator",
					"type": "address"
				},
				{
					"internalType": "address",
					"name": "_token",
					"type": "address"
				}
			],
			"stateMutability": "nonpayable",
			"type": "constructor"
		},
		{
			"anonymous": false,
			"inputs": [
				{
					"indexed": true,
					"internalType": "address",
					"name": "previousOwner",
					"type": "address"
				},
				{
					"indexed": true,
					"internalType": "address",
					"name": "newOwner",
					"type": "address"
				}
			],
			"name": "OwnershipTransferred",
			"type": "event"
		},
		{
			"anonymous": false,
			"inputs": [
				{
					"indexed": false,
					"internalType": "uint256",
					"name": "newVestingID",
					"type": "uint256"
				},
				{
					"indexed": false,
					"internalType": "uint256",
					"name": "totalTokensToVest",
					"type": "uint256"
				},
				{
					"indexed": false,
					"internalType": "uint256",
					"name": "numberToVestEachEpoch",
					"type": "uint256"
				},
				{
					"indexed": false,
					"internalType": "uint256",
					"name": "epochLength",
					"type": "uint256"
				},
				{
					"indexed": false,
					"internalType": "uint256",
					"name": "startOfVesting",
					"type": "uint256"
				},
				{
					"indexed": false,
					"internalType": "uint256",
					"name": "nextVestingTime",
					"type": "uint256"
				},
				{
					"indexed": false,
					"internalType": "address",
					"name": "vestedTokensReceiver",
					"type": "address"
				}
			],
			"name": "ScheduleAdded",
			"type": "event"
		},
		{
			"anonymous": false,
			"inputs": [
				{
					"indexed": false,
					"internalType": "uint256",
					"name": "vestingID",
					"type": "uint256"
				}
			],
			"name": "ScheduleRemoved",
			"type": "event"
		},
		{
			"anonymous": false,
			"inputs": [
				{
					"indexed": false,
					"internalType": "uint256",
					"name": "vestingID",
					"type": "uint256"
				},
				{
					"indexed": true,
					"internalType": "address",
					"name": "vestedTokensReceiver",
					"type": "address"
				},
				{
					"indexed": false,
					"internalType": "uint256",
					"name": "tokensVested",
					"type": "uint256"
				}
			],
			"name": "TokensVested",
			"type": "event"
		},
		{
			"anonymous": false,
			"inputs": [
				{
					"indexed": false,
					"internalType": "uint256",
					"name": "vestingID",
					"type": "uint256"
				},
				{
					"indexed": false,
					"internalType": "uint256",
					"name": "oldStartOfVesting",
					"type": "uint256"
				},
				{
					"indexed": false,
					"internalType": "uint256",
					"name": "newStartOfVesting",
					"type": "uint256"
				}
			],
			"name": "VestingStartChanged",
			"type": "event"
		},
		{
			"inputs": [
				{
					"internalType": "uint256",
					"name": "_totalTokensToVest",
					"type": "uint256"
				},
				{
					"internalType": "uint256",
					"name": "_percentToVestEachEpoch",
					"type": "uint256"
				},
				{
					"internalType": "uint256",
					"name": "_epochLengthInDays",
					"type": "uint256"
				},
				{
					"internalType": "uint256",
					"name": "_startOfVesting",
					"type": "uint256"
				},
				{
					"internalType": "address",
					"name": "_vestedTokensReceiver",
					"type": "address"
				},
				{
					"internalType": "bool",
					"name": "doSafetyCheck",
					"type": "bool"
				}
			],
			"name": "addVestingSchedule",
			"outputs": [
				{
					"internalType": "uint256",
					"name": "",
					"type": "uint256"
				}
			],
			"stateMutability": "nonpayable",
			"type": "function"
		},
		{
			"inputs": [
				{
					"internalType": "uint256",
					"name": "_totalTokensToVest",
					"type": "uint256"
				},
				{
					"internalType": "uint256",
					"name": "_percentToVestEachEpoch",
					"type": "uint256"
				},
				{
					"internalType": "uint256",
					"name": "_epochLengthInDays",
					"type": "uint256"
				},
				{
					"internalType": "uint256",
					"name": "_startOfVesting",
					"type": "uint256"
				},
				{
					"internalType": "address",
					"name": "_vestedTokensReceiver",
					"type": "address"
				}
			],
			"name": "addVestingSchedule",
			"outputs": [
				{
					"internalType": "uint256",
					"name": "",
					"type": "uint256"
				}
			],
			"stateMutability": "nonpayable",
			"type": "function"
		},
		{
			"inputs": [],
			"name": "executePendingVests",
			"outputs": [],
			"stateMutability": "nonpayable",
			"type": "function"
		},
		{
			"inputs": [
				{
					"internalType": "uint256",
					"name": "vestingID",
					"type": "uint256"
				}
			],
			"name": "getVestingInfo",
			"outputs": [
				{
					"internalType": "uint256",
					"name": "",
					"type": "uint256"
				},
				{
					"internalType": "uint256",
					"name": "",
					"type": "uint256"
				},
				{
					"internalType": "uint256",
					"name": "",
					"type": "uint256"
				},
				{
					"internalType": "uint256",
					"name": "",
					"type": "uint256"
				},
				{
					"internalType": "uint256",
					"name": "",
					"type": "uint256"
				},
				{
					"internalType": "uint256",
					"name": "",
					"type": "uint256"
				},
				{
					"internalType": "address",
					"name": "",
					"type": "address"
				},
				{
					"internalType": "bool",
					"name": "",
					"type": "bool"
				}
			],
			"stateMutability": "view",
			"type": "function"
		},
		{
			"inputs": [],
			"name": "minorityToken",
			"outputs": [
				{
					"internalType": "address",
					"name": "",
					"type": "address"
				}
			],
			"stateMutability": "view",
			"type": "function"
		},
		{
			"inputs": [
				{
					"internalType": "uint256",
					"name": "vestingID",
					"type": "uint256"
				},
				{
					"internalType": "uint256",
					"name": "newVestingStart",
					"type": "uint256"
				}
			],
			"name": "modifyVestingStartTime",
			"outputs": [],
			"stateMutability": "nonpayable",
			"type": "function"
		},
		{
			"inputs": [],
			"name": "nextRewardDue",
			"outputs": [
				{
					"internalType": "uint256",
					"name": "",
					"type": "uint256"
				}
			],
			"stateMutability": "view",
			"type": "function"
		},
		{
			"inputs": [],
			"name": "nextRewardID",
			"outputs": [
				{
					"internalType": "uint256",
					"name": "",
					"type": "uint256"
				}
			],
			"stateMutability": "view",
			"type": "function"
		},
		{
			"inputs": [],
			"name": "operator",
			"outputs": [
				{
					"internalType": "address",
					"name": "",
					"type": "address"
				}
			],
			"stateMutability": "view",
			"type": "function"
		},
		{
			"inputs": [],
			"name": "owner",
			"outputs": [
				{
					"internalType": "address",
					"name": "",
					"type": "address"
				}
			],
			"stateMutability": "view",
			"type": "function"
		},
		{
			"inputs": [
				{
					"internalType": "uint256",
					"name": "vestingID",
					"type": "uint256"
				}
			],
			"name": "removeVestingSchedule",
			"outputs": [],
			"stateMutability": "nonpayable",
			"type": "function"
		},
		{
			"inputs": [],
			"name": "renounceOwnership",
			"outputs": [],
			"stateMutability": "nonpayable",
			"type": "function"
		},
		{
			"inputs": [],
			"name": "totalTokensUnderManagement",
			"outputs": [
				{
					"internalType": "uint256",
					"name": "",
					"type": "uint256"
				}
			],
			"stateMutability": "view",
			"type": "function"
		},
		{
			"inputs": [
				{
					"internalType": "address",
					"name": "newOwner",
					"type": "address"
				}
			],
			"name": "transferOwnership",
			"outputs": [],
			"stateMutability": "nonpayable",
			"type": "function"
		},
		{
			"inputs": [
				{
					"internalType": "uint256",
					"name": "",
					"type": "uint256"
				}
			],
			"name": "vestingSchedules",
			"outputs": [
				{
					"internalType": "uint256",
					"name": "totalTokensToVest",
					"type": "uint256"
				},
				{
					"internalType": "uint256",
					"name": "numberToVestEachEpoch",
					"type": "uint256"
				},
				{
					"internalType": "uint256",
					"name": "tokensVested",
					"type": "uint256"
				},
				{
					"internalType": "uint256",
					"name": "epochLength",
					"type": "uint256"
				},
				{
					"internalType": "uint256",
					"name": "startOfVesting",
					"type": "uint256"
				},
				{
					"internalType": "uint256",
					"name": "nextVestingTime",
					"type": "uint256"
				},
				{
					"internalType": "address",
					"name": "vestedTokensReceiver",
					"type": "address"
				},
				{
					"internalType": "bool",
					"name": "removed",
					"type": "bool"
				}
			],
			"stateMutability": "view",
			"type": "function"
		}
	]
}