{
	"data": {
		"bytecode": {
			"linkReferences": {},
			"object": "6080604052620000126006600a6200111d565b62000022906377359400620011dc565b620000309060001962001218565b6200003e90600019620011fe565b600c55620000fb620000536006600a6200111d565b62000063906301312d00620011dc565b620000e7620000756006600a6200111d565b62000085906305f5e100620011dc565b620000e7620000976006600a6200111d565b620000a7906305f5e100620011dc565b620000e7620000b96006600a6200111d565b620000c990630e4e1c00620011dc565b620000d76006600a6200111d565b620000e7906323c34600620011dc565b62000de360201b620016f91790919060201c565b600d55600e805464ffffffffff191664020202020217908190556200015e9060ff6401000000008204811691620000e791630100000082048116918391620100008204811691839160029161010090041662000de3602090811b620016f917901c565b600f55601080546001600160a01b0319908116733b31f5cc5136f859c8c74ec1bf8275a51709952b179091556011805482167319d3ae69b2170e9f37e3090d08a13fb2f2f2be21179055601280548216737b85cc48cae1eeae0c533d717decaea8d418d1d3179055601380548216738d8a151acb9b7556497c27a13bb454299333abb617905560148054909116731b4340f1e1e19c794ae532be142ad1327c9c46541790556016805460ff60a01b1916600160a01b1790556200024e60646200022a6006600a6200111d565b6200023a906377359400620011dc565b62000e5360201b620017581790919060201c565b6017553480156200025e57600080fd5b50600080546001600160a01b031916339081178255604051909182917f8be0079c531659141344cd1fd0a4f28419497f9722a3daafe3b4186f6b6457e0908290a350601580546001600160a01b03191673a5e0829caced8ffdd4de3c43696c57f7d7a678ff9081179091556040805163c45a015560e01b8152905163c45a015591600480820192602092909190829003018186803b1580156200030057600080fd5b505afa15801562000315573d6000803e3d6000fd5b505050506040513d601f19601f820116820180604052508101906200033b91906200100a565b6040516364e329cb60e11b815230600482015272d06725663411e6d4599f0b630ab003d4290eba60248201526001600160a01b03919091169063c9c6539690604401602060405180830381600087803b1580156200039857600080fd5b505af1158015620003ad573d6000803e3d6000fd5b505050506040513d601f19601f82011682018060405250810190620003d391906200100a565b601680546001600160a01b0319166001600160a01b0392909216919091179055604051620004019062000fe0565b604051809103906000f0801580156200041e573d6000803e3d6000fd5b50600380546001600160a01b0319166001600160a01b0392909216919091179055620004473390565b30604051620004569062000fee565b6001600160a01b03928316815291166020820152604001604051809103906000f0801580156200048a573d6000803e3d6000fd5b50600480546001600160a01b0319166001600160a01b0392909216919091179055620004b33390565b604051620004c19062000ffc565b6001600160a01b039091168152602001604051809103906000f080158015620004ee573d6000803e3d6000fd5b50600580546001600160a01b03199081166001600160a01b039384161782556000805484168152600960209081526040808320805460ff19908116600190811790925530855282852080548216831790556003548816855282852080548216831790556004805489168652838620805483168417905587548916865283862080548316841790556010548916865283862080548316841790556011548916865283862080548316841790557f46630d599ef2914c57ebca729b78827c4ff29d701ce6701cce1d0c414227a6748054831684179055601680548a168752600a95869052848720805484168517905554600b805480860182557f0175b7a638427703f0dbe7bb9bbf987a2551717b34e79f33b5b1008d1fa01db990810180548b16938d169390931790925582548b1688528588208054851686179055915482548086018455820180548a16918c1691909117905588548a168752938620805490921683179091559554865491820187559584520180549093169390941692909217905590620006b09062000683906006906200111d565b62000693906304c4b400620011dc565b620006a16006600a6200111d565b620000e790620f4240620011dc565b600580546001600160a01b0390811660009081526007602052604080822085905592549251939450911691600080516020620092c983398151915290620006fa9085815260200190565b60405180910390a3600d54600480546001600160a01b0390811660009081526007602090815260408083208690559354935194855292909116929091600080516020620092c9833981519152910160405180910390a36000620007cf620007646006600a6200111d565b62000774906304c4b400620011dc565b620007bb620007866006600a6200111d565b6200079590620f4240620011dc565b600d54620007bb90620007ab6006600a6200111d565b620007bb906377359400620011dc565b62000e9d60201b6200179a1790919060201c565b90506000620007ef82600c5462000e5360201b620017581790919060201c565b90506200080b818362000ee760201b620017dc1790919060201c565b33600081815260066020908152604080832094909455925185815291929091600080516020620092c9833981519152910160405180910390a36005546001600160a01b0316633ca852286064733292114a1527656d56a6ac914a7c6e1afc6ecae0306200087b6006600a6200111d565b6200088a90620f4240620011dc565b620008986006600a6200111d565b620008a7906207a120620011dc565b620008b56006600a6200111d565b620008c490620f4240620011dc565b72d06725663411e6d4599f0b630ab003d4290eba42620008e9816312cd5480620010a2565b620008f76006600a6200111d565b62000907906304c4b400620011dc565b60405160e08c901b6001600160e01b0319168152600481019a909a526001600160a01b0398891660248b015296881660448a01526064890195909552608488019390935260a487019190915290931660c485015260e48401929092526101048301919091526101248201526046610144820152600061016482015261018401600060405180830381600087803b158015620009a157600080fd5b505af1158015620009b6573d6000803e3d6000fd5b50506004546001600160a01b03169150633e34e66d9050620009db6006600a6200111d565b620009eb906323c34600620011dc565b6003805460405160e085901b6001600160e01b031916815260048101939093526002602484015260448301919091524260648301526001600160a01b03166084820152600060a482015260c401602060405180830381600087803b15801562000a5357600080fd5b505af115801562000a68573d6000803e3d6000fd5b505050506040513d601f19601f8201168201806040525081019062000a8e919062001033565b506004546001600160a01b0316633e34e66d62000aae6006600a6200111d565b62000abe90630e4e1c00620011dc565b60105460405160e084901b6001600160e01b0319168152600481019290925260026024830152600a60448301524260648301526001600160a01b03166084820152600060a482015260c401602060405180830381600087803b15801562000b2457600080fd5b505af115801562000b39573d6000803e3d6000fd5b505050506040513d601f19601f8201168201806040525081019062000b5f919062001033565b506004546001600160a01b0316633e34e66d62000b7f6006600a6200111d565b62000b8f906305f5e100620011dc565b60125460405160e084901b6001600160e01b03191681526004808201939093526024810192909252601e60448301524260648301526001600160a01b03166084820152600060a482015260c401602060405180830381600087803b15801562000bf757600080fd5b505af115801562000c0c573d6000803e3d6000fd5b505050506040513d601f19601f8201168201806040525081019062000c32919062001033565b506004546001600160a01b0316633e34e66d62000c526006600a6200111d565b62000c62906305f5e100620011dc565b60135460405160e084901b6001600160e01b03191681526004808201939093526024810192909252602860448301524260648301526001600160a01b03166084820152600060a482015260c401602060405180830381600087803b15801562000cca57600080fd5b505af115801562000cdf573d6000803e3d6000fd5b505050506040513d601f19601f8201168201806040525081019062000d05919062001033565b506004546001600160a01b0316633e34e66d62000d256006600a6200111d565b62000d35906301312d00620011dc565b6014805460405160e085901b6001600160e01b03191681526004810193909352602483019190915260646044830181905242908301526001600160a01b03166084820152600060a482015260c401602060405180830381600087803b15801562000d9e57600080fd5b505af115801562000db3573d6000803e3d6000fd5b505050506040513d601f19601f8201168201806040525081019062000dd9919062001033565b505050506200125b565b60008062000df28385620010a2565b90508381101562000e4a5760405162461bcd60e51b815260206004820152601b60248201527f536166654d6174683a206164646974696f6e206f766572666c6f77000000000060448201526064015b60405180910390fd5b90505b92915050565b600062000e4a83836040518060400160405280601a81526020017f536166654d6174683a206469766973696f6e206279207a65726f00000000000081525062000f6e60201b60201c565b600062000e4a83836040518060400160405280601e81526020017f536166654d6174683a207375627472616374696f6e206f766572666c6f77000081525062000faa60201b60201c565b60008262000ef85750600062000e4d565b600062000f068385620011dc565b90508262000f158583620010bd565b1462000e4a5760405162461bcd60e51b815260206004820152602160248201527f536166654d6174683a206d756c7469706c69636174696f6e206f766572666c6f6044820152607760f81b606482015260840162000e41565b6000818362000f925760405162461bcd60e51b815260040162000e4191906200104c565b50600062000fa18486620010bd565b95945050505050565b6000818484111562000fd15760405162461bcd60e51b815260040162000e4191906200104c565b50600062000fa18486620011fe565b610ed08062003d1783390190565b6119af8062004be783390190565b612d33806200659683390190565b6000602082840312156200101c578081fd5b81516001600160a01b038116811462000e4a578182fd5b60006020828403121562001045578081fd5b5051919050565b6000602080835283518082850152825b818110156200107a578581018301518582016040015282016200105c565b818111156200108c5783604083870101525b50601f01601f1916929092016040019392505050565b60008219821115620010b857620010b86200122f565b500190565b600082620010cf57620010cf62001245565b500490565b600181815b8085111562001115578160001904821115620010f957620010f96200122f565b808516156200110757918102915b93841c9390800290620010d9565b509250929050565b600062000e4a60ff841683600082620011395750600162000e4d565b81620011485750600062000e4d565b81600181146200116157600281146200116c576200118c565b600191505062000e4d565b60ff8411156200118057620011806200122f565b50506001821b62000e4d565b5060208310610133831016604e8410600b8410161715620011b1575081810a62000e4d565b620011bd8383620010d4565b8060001904821115620011d457620011d46200122f565b029392505050565b6000816000190483118215151615620011f957620011f96200122f565b500290565b6000828210156200121357620012136200122f565b500390565b6000826200122a576200122a62001245565b500690565b634e487b7160e01b600052601160045260246000fd5b634e487b7160e01b600052601260045260246000fd5b612aac806200126b6000396000f3fe6080604052600436106102e85760003560e01c806383ad799411610190578063c31c9c07116100dc578063e0899a9011610095578063f2fde38b1161006f578063f2fde38b14610955578063fb75b2c714610975578063fccc281314610995578063fce589d8146109bd57600080fd5b8063e0899a90146108dc578063e4419f6114610915578063ea2f0b371461093557600080fd5b8063c31c9c07146107ff578063c4730d5d1461081f578063c49b9a8014610835578063cc32d17614610855578063d543dbeb14610876578063dd62ed3e1461089657600080fd5b80638da5cb5b11610149578063a457c2d711610123578063a457c2d714610789578063a5041beb146107a9578063a8602fea146107bf578063a9059cbb146107df57600080fd5b80638da5cb5b1461072057806395d89b411461073e57806398118cb41461076a57600080fd5b806383ad79941461065957806388f820201461067357806389a30271146106ac5780638b424267146106d35780638c0b5e22146106f55780638cf8f71d1461070b57600080fd5b80634549b0391161024f5780635bc05e9a11610208578063715018a6116101e2578063715018a6146105ef57806375f0a8741461060457806378a2e1011461062457806381a0b3ff1461063957600080fd5b80635bc05e9a1461058f5780636bcff5b6146105af57806370a08231146105cf57600080fd5b80634549b039146104ce5780634626402b146104ee5780634a74bb021461050e57806352390c021461052f578063560aa4981461054f5780635958621e1461056f57600080fd5b80632d838119116102a15780632d83811914610402578063313ce5671461042257806332fe7b26146104445780633685d4191461046c578063395093511461048e578063437823ec146104ae57600080fd5b806306fdde03146102f4578063095ea7b31461033757806318160ddd1461036757806323b872dd1461038a5780632523fd57146103aa57806326991cc8146103e257600080fd5b366102ef57005b600080fd5b34801561030057600080fd5b5060408051808201909152600881526726b4b72a32b9ba1960c11b60208201525b60405161032e919061279d565b60405180910390f35b34801561034357600080fd5b50610357610352366004612664565b6109dd565b604051901515815260200161032e565b34801561037357600080fd5b5061037c6109f4565b60405190815260200161032e565b34801561039657600080fd5b506103576103a5366004612629565b610a15565b3480156103b657600080fd5b506005546103ca906001600160a01b031681565b6040516001600160a01b03909116815260200161032e565b3480156103ee57600080fd5b506016546103ca906001600160a01b031681565b34801561040e57600080fd5b5061037c61041d3660046126c5565b610a7e565b34801561042e57600080fd5b5060065b60405160ff909116815260200161032e565b34801561045057600080fd5b506103ca73a5e0829caced8ffdd4de3c43696c57f7d7a678ff81565b34801561047857600080fd5b5061048c6104873660046125dd565b610b1a565b005b34801561049a57600080fd5b506103576104a9366004612664565b610d51565b3480156104ba57600080fd5b5061048c6104c93660046125dd565b610d87565b3480156104da57600080fd5b5061037c6104e93660046126dd565b610dfd565b3480156104fa57600080fd5b506010546103ca906001600160a01b031681565b34801561051a57600080fd5b5060165461035790600160a01b900460ff1681565b34801561053b57600080fd5b5061048c61054a3660046125dd565b610e9f565b34801561055b57600080fd5b506004546103ca906001600160a01b031681565b34801561057b57600080fd5b5061048c61058a3660046125dd565b61102b565b34801561059b57600080fd5b506013546103ca906001600160a01b031681565b3480156105bb57600080fd5b506003546103ca906001600160a01b031681565b3480156105db57600080fd5b5061037c6105ea3660046125dd565b61109d565b3480156105fb57600080fd5b5061048c6110fc565b34801561061057600080fd5b506012546103ca906001600160a01b031681565b34801561063057600080fd5b5061037c611170565b34801561064557600080fd5b506014546103ca906001600160a01b031681565b34801561066557600080fd5b50600e546104329060ff1681565b34801561067f57600080fd5b5061035761068e3660046125dd565b6001600160a01b03166000908152600a602052604090205460ff1690565b3480156106b857600080fd5b506103ca72d06725663411e6d4599f0b630ab003d4290eba81565b3480156106df57600080fd5b50600e5461043290640100000000900460ff1681565b34801561070157600080fd5b5061037c60175481565b34801561071757600080fd5b5061037c61118c565b34801561072c57600080fd5b506000546001600160a01b03166103ca565b34801561074a57600080fd5b5060408051808201909152600381526226aa1960e91b6020820152610321565b34801561077657600080fd5b50600e5461043290610100900460ff1681565b34801561079557600080fd5b506103576107a4366004612664565b6111a6565b3480156107b557600080fd5b5061037c600f5481565b3480156107cb57600080fd5b5061048c6107da3660046125dd565b6111f5565b3480156107eb57600080fd5b506103576107fa366004612664565b611267565b34801561080b57600080fd5b506015546103ca906001600160a01b031681565b34801561082b57600080fd5b5061037c600d5481565b34801561084157600080fd5b5061048c61085036600461268d565b611274565b34801561086157600080fd5b50600e54610432906301000000900460ff1681565b34801561088257600080fd5b5061048c6108913660046126c5565b6112f6565b3480156108a257600080fd5b5061037c6108b13660046125f7565b6001600160a01b03918216600090815260086020908152604080832093909416825291909152205490565b3480156108e857600080fd5b506103576108f73660046125dd565b6001600160a01b031660009081526009602052604090205460ff1690565b34801561092157600080fd5b5061048c610930366004612739565b6113df565b34801561094157600080fd5b5061048c6109503660046125dd565b61159c565b34801561096157600080fd5b5061048c6109703660046125dd565b61160f565b34801561098157600080fd5b506011546103ca906001600160a01b031681565b3480156109a157600080fd5b506103ca733292114a1527656d56a6ac914a7c6e1afc6ecae081565b3480156109c957600080fd5b50600e546104329062010000900460ff1681565b60006109ea33848461185b565b5060015b92915050565b6000610a026006600a6128f6565b610a109063773594006129a1565b905090565b6000610a698433610a6485604051806060016040528060308152602001612a47603091396001600160a01b038a166000908152600860209081526040808320338452909152902054919061199a565b61185b565b610a748484846119d4565b5060019392505050565b6000600c54821115610afd5760405162461bcd60e51b815260206004820152603960248201527f4d696e6f72697479546f6b656e3a20416d6f756e74206d757374206265206c6560448201527f7373207468616e20746f74616c207265666c656374696f6e730000000000000060648201526084015b60405180910390fd5b6000610b07611e5c565b9050610b138382611758565b9392505050565b6000546001600160a01b03163314610b445760405162461bcd60e51b8152600401610af4906127f0565b6001600160a01b0381166000908152600a602052604090205460ff16610bbf5760405162461bcd60e51b815260206004820152602a60248201527f4d696e6f72697479546f6b656e3a204163636f756e7420697320616c726561646044820152691e481a5b98db1d59195960b21b6064820152608401610af4565b60005b600b54811015610d1957816001600160a01b0316600b8281548110610bf757634e487b7160e01b600052603260045260246000fd5b6000918252602090912001546001600160a01b03161415610d0757600b8054610c22906001906129c0565b81548110610c4057634e487b7160e01b600052603260045260246000fd5b600091825260209091200154600b80546001600160a01b039092169183908110610c7a57634e487b7160e01b600052603260045260246000fd5b600091825260208083209190910180546001600160a01b0319166001600160a01b039485161790559184168152600782526040808220829055600a90925220805460ff19169055600b805480610ce057634e487b7160e01b600052603160045260246000fd5b600082815260209020810160001990810180546001600160a01b0319169055019055610d19565b80610d11816129d7565b915050610bc2565b506040516001600160a01b038216907f47ab6b2d1f416edec684889dc42cd04ed7cc6c6244edaa04c4215e107754861490600090a250565b3360008181526008602090815260408083206001600160a01b038716845290915281205490916109ea918590610a6490866116f9565b6000546001600160a01b03163314610db15760405162461bcd60e51b8152600401610af4906127f0565b6001600160a01b038116600081815260096020526040808220805460ff19166001179055517ff1d6512ec7550bf605a5a38910e48fb6a57938ed74a5afa01753fa023001005c9190a250565b6000610e0b6006600a6128f6565b610e199063773594006129a1565b831115610e685760405162461bcd60e51b815260206004820152601f60248201527f416d6f756e74206d757374206265206c657373207468616e20737570706c79006044820152606401610af4565b81610e86576000610e7884611e7f565b509294506109ee9350505050565b6000610e9184611e7f565b509194506109ee9350505050565b6000546001600160a01b03163314610ec95760405162461bcd60e51b8152600401610af4906127f0565b6001600160a01b0381166000908152600a602052604090205460ff1615610f455760405162461bcd60e51b815260206004820152602a60248201527f4d696e6f72697479546f6b656e3a204163636f756e7420697320616c726561646044820152691e48195e18db1d59195960b21b6064820152608401610af4565b6001600160a01b03811660009081526006602052604090205415610f9f576001600160a01b038116600090815260066020526040902054610f8590610a7e565b6001600160a01b0382166000908152600760205260409020555b6001600160a01b0381166000818152600a6020526040808220805460ff19166001908117909155600b8054918201815583527f0175b7a638427703f0dbe7bb9bbf987a2551717b34e79f33b5b1008d1fa01db90180546001600160a01b03191684179055517f110b1fbed46dec7bc9019c3fba97541a3d64821a824872bb7b2ad678490855bf9190a250565b6000546001600160a01b031633146110555760405162461bcd60e51b8152600401610af4906127f0565b6001600160a01b03811661107b5760405162461bcd60e51b8152600401610af490612825565b601180546001600160a01b0319166001600160a01b0392909216919091179055565b6001600160a01b0381166000908152600a602052604081205460ff16156110da57506001600160a01b031660009081526007602052604090205490565b6001600160a01b0382166000908152600660205260409020546109ee90610a7e565b6000546001600160a01b031633146111265760405162461bcd60e51b8152600401610af4906127f0565b600080546040516001600160a01b03909116907f8be0079c531659141344cd1fd0a4f28419497f9722a3daafe3b4186f6b6457e0908390a3600080546001600160a01b0319169055565b61117c6006600a6128f6565b61118990620f42406129a1565b81565b6111986006600a6128f6565b611189906304c4b4006129a1565b60006109ea3384610a64856040518060600160405280602d8152602001612a1a602d91393360009081526008602090815260408083206001600160a01b038d168452909152902054919061199a565b6000546001600160a01b0316331461121f5760405162461bcd60e51b8152600401610af4906127f0565b6001600160a01b0381166112455760405162461bcd60e51b8152600401610af490612825565b601080546001600160a01b0319166001600160a01b0392909216919091179055565b60006109ea3384846119d4565b6000546001600160a01b0316331461129e5760405162461bcd60e51b8152600401610af4906127f0565b60168054821515600160a01b0260ff60a01b199091161790556040517f53726dfcaf90650aa7eb35524f4d3220f07413c8d6cb404cc8c18bf5591bc159906112eb90831515815260200190565b60405180910390a150565b6000546001600160a01b031633146113205760405162461bcd60e51b8152600401610af4906127f0565b6064811061137e5760405162461bcd60e51b815260206004820152602560248201527f4d696e6f72697479546f6b656e3a204d61782054782063616e2774206265203e604482015264203130302560d81b6064820152608401610af4565b600061138c6006600a6128f6565b61139a9063773594006129a1565b60175460408051918252602082018390529192507fd6f586005531e7d32112f5389278497d656f7ed9029f31f85494a3f58ca18333910160405180910390a160175550565b6000546001600160a01b031633146114095760405162461bcd60e51b8152600401610af4906127f0565b600061143f8260ff166114398560ff166114398860ff166114398b60ff168d60ff166116f990919063ffffffff16565b906116f9565b9050601981111561149d5760405162461bcd60e51b815260206004820152602260248201527f4d696e6f72697479546f6b656e3a20546f74616c206665657320746f6f2068696044820152610ced60f31b6064820152608401610af4565b600e546040805160ff808416825289811660208301526101008085048216838501528982166060840152630100000085048216608084015288821660a0840152620100008504821660c084015287821660e0840152640100000000909404811693820193909352918416610120830152517f8f37fc6afa33aae90a14fdc164ec931dc905ac72f6d86603baff1f9c411dafe3918190036101400190a1600e805460ff9384166401000000000264ff0000000019958516620100000262ff0000199786166301000000029790971663ffff0000199886166101000261ffff1990931695909916949094171795909516959095179290921716179055600f55565b6000546001600160a01b031633146115c65760405162461bcd60e51b8152600401610af4906127f0565b6001600160a01b038116600081815260096020526040808220805460ff19169055517f78ce087db51d01d3e32355f2d83455d5a39f99194c8d3d1c2614893695cee4429190a250565b6000546001600160a01b031633146116395760405162461bcd60e51b8152600401610af4906127f0565b6001600160a01b03811661169e5760405162461bcd60e51b815260206004820152602660248201527f4f776e61626c653a206e6577206f776e657220697320746865207a65726f206160448201526564647265737360d01b6064820152608401610af4565b600080546040516001600160a01b03808516939216917f8be0079c531659141344cd1fd0a4f28419497f9722a3daafe3b4186f6b6457e091a3600080546001600160a01b0319166001600160a01b0392909216919091179055565b600080611706838561287b565b905083811015610b135760405162461bcd60e51b815260206004820152601b60248201527f536166654d6174683a206164646974696f6e206f766572666c6f7700000000006044820152606401610af4565b6000610b1383836040518060400160405280601a81526020017f536166654d6174683a206469766973696f6e206279207a65726f000000000000815250611eca565b6000610b1383836040518060400160405280601e81526020017f536166654d6174683a207375627472616374696f6e206f766572666c6f77000081525061199a565b6000826117eb575060006109ee565b60006117f783856129a1565b9050826118048583612893565b14610b135760405162461bcd60e51b815260206004820152602160248201527f536166654d6174683a206d756c7469706c69636174696f6e206f766572666c6f6044820152607760f81b6064820152608401610af4565b6001600160a01b0383166118ce5760405162461bcd60e51b815260206004820152603460248201527f4d696e6f72697479546f6b656e3a203a2063616e277420617070726f76652066604482015273726f6d20746865207a65726f206164647265737360601b6064820152608401610af4565b6001600160a01b0382166119395760405162461bcd60e51b815260206004820152602c60248201527f4d696e6f72697479546f6b656e3a203a20617070726f766520746f207468652060448201526b7a65726f206164647265737360a01b6064820152608401610af4565b6001600160a01b0383811660008181526008602090815260408083209487168084529482529182902085905590518481527f8c5be1e5ebec7d5bd14f71427d1e84f3dd0314c0f7b2291e5b200ac8c7c3b925910160405180910390a3505050565b600081848411156119be5760405162461bcd60e51b8152600401610af4919061279d565b5060006119cb84866129c0565b95945050505050565b6001600160a01b038316611a405760405162461bcd60e51b815260206004820152602d60248201527f4d696e6f72697479546f6b656e3a207472616e736665722066726f6d2074686560448201526c207a65726f206164647265737360981b6064820152608401610af4565b6001600160a01b038216611aaa5760405162461bcd60e51b815260206004820152602b60248201527f4d696e6f72697479546f6b656e3a207472616e7366657220746f20746865207a60448201526a65726f206164647265737360a81b6064820152608401610af4565b60008111611b205760405162461bcd60e51b815260206004820152603860248201527f4d696e6f72697479546f6b656e3a205472616e7366657220616d6f756e74206d60448201527f7573742062652067726561746572207468616e207a65726f00000000000000006064820152608401610af4565b6000546001600160a01b03848116911614801590611b4c57506000546001600160a01b03838116911614155b15611bc957601754811115611bc95760405162461bcd60e51b815260206004820152603860248201527f4d696e6f72697479546f6b656e3a205472616e7366657220616d6f756e74206560448201527f78636565647320746865205f6d61785478416d6f756e742e00000000000000006064820152608401610af4565b600354600090611be1906001600160a01b031661109d565b90506017548110611bf157506017545b611bfd6006600a6128f6565b611c089060c86129a1565b8110158015611c9a5750600360009054906101000a90046001600160a01b03166001600160a01b0316632ae564546040518163ffffffff1660e01b815260040160206040518083038186803b158015611c6057600080fd5b505afa158015611c74573d6000803e3d6000fd5b505050506040513d601f19601f82011682018060405250810190611c9891906126a9565b155b8015611cb457506016546001600160a01b03858116911614155b8015611cc95750601654600160a01b900460ff165b15611da25760035460405163173865ad60e01b815260048101839052600091829182916001600160a01b03169063173865ad90602401606060405180830381600087803b158015611d1957600080fd5b505af1158015611d2d573d6000803e3d6000fd5b505050506040513d601f19601f82011682018060405250810190611d51919061270c565b604080518481526020810184905290810182905292955090935091507f17bbfb9a6069321b6ded73bd96327c9e6b7212a5cd51ff219cd61370acafb5619060600160405180910390a1505050611dfe565b6004805460408051638adc760d60e01b815290516001600160a01b0390921692638adc760d92828201926000929082900301818387803b158015611de557600080fd5b505af1158015611df9573d6000803e3d6000fd5b505050505b6001600160a01b03841660009081526009602052604090205460019060ff1680611e4057506001600160a01b03841660009081526009602052604090205460ff165b15611e49575060005b611e5585858584611ef8565b5050505050565b6000806000611e696120cf565b9092509050611e788282611758565b9250505090565b600080600080600080600080611e94896122e9565b9250925092506000806000611eb28c8686611ead611e5c565b612361565b919e909d50909b509599509297509395505050505050565b60008183611eeb5760405162461bcd60e51b8152600401610af4919061279d565b5060006119cb8486612893565b600080600080600085611f2157611f0e87611e7f565b50929750879650899450611f3792505050565b611f2a87611e7f565b9398509196509450925090505b6001600160a01b038916600090815260066020526040902054611f5a908661179a565b6001600160a01b03808b1660009081526006602052604080822093909355908a1681522054611f8990856116f9565b6001600160a01b03808a16600090815260066020908152604080832094909455918c168152600a909152205460ff1615611ffa576001600160a01b038916600090815260076020526040902054611fe0908861179a565b6001600160a01b038a166000908152600760205260409020555b6001600160a01b0388166000908152600a602052604090205460ff1615612058576001600160a01b03881660009081526007602052604090205461203e90836116f9565b6001600160a01b0389166000908152600760205260409020555b801561206857612068818a6123b1565b821561207757612077836124a6565b876001600160a01b0316896001600160a01b03167fddf252ad1be2c89b69c2b068fc378daa952ba7f163c4a11628f55a4df523b3ef846040516120bc91815260200190565b60405180910390a3505050505050505050565b600c546000908190816120e46006600a6128f6565b6120f29063773594006129a1565b905060005b600b5481101561228b578260066000600b848154811061212757634e487b7160e01b600052603260045260246000fd5b60009182526020808320909101546001600160a01b0316835282019290925260400190205411806121a057508160076000600b848154811061217957634e487b7160e01b600052603260045260246000fd5b60009182526020808320909101546001600160a01b03168352820192909252604001902054115b156121cd57600c546121b46006600a6128f6565b6121c29063773594006129a1565b945094505050509091565b61222160066000600b84815481106121f557634e487b7160e01b600052603260045260246000fd5b60009182526020808320909101546001600160a01b03168352820192909252604001902054849061179a565b925061227760076000600b848154811061224b57634e487b7160e01b600052603260045260246000fd5b60009182526020808320909101546001600160a01b03168352820192909252604001902054839061179a565b915080612283816129d7565b9150506120f7565b506122b261229b6006600a6128f6565b6122a99063773594006129a1565b600c5490611758565b8210156122e057600c546122c86006600a6128f6565b6122d69063773594006129a1565b9350935050509091565b90939092509050565b600e546000908190819081906123109060649061230a90889060ff166117dc565b90611758565b600e54600f5491925060009161233b9160649161230a91612334919060ff1661179a565b89906117dc565b905060006123538261234d898661179a565b9061179a565b979296509094509092505050565b600080808061237088866117dc565b9050600061237e88876117dc565b9050600061238c88886117dc565b9050600061239e8261234d868661179a565b939b939a50919850919650505050505050565b600e54600f546000916123c7919060ff1661179a565b600e549091506123fc906123ea90839061230a908790610100900460ff166117dc565b6003546001600160a01b0316846124b9565b600e546124309061241e90839061230a9087906301000000900460ff166117dc565b6010546001600160a01b0316846124b9565b600e546124659061245390839061230a908790640100000000900460ff166117dc565b6011546001600160a01b0316846124b9565b600e546124a19061248690839061230a90879062010000900460ff166117dc565b733292114a1527656d56a6ac914a7c6e1afc6ecae0846124b9565b505050565b600c546124b3908261179a565b600c5550565b60006124cd6124c6611e5c565b85906117dc565b6001600160a01b0384166000908152600660205260409020549091506124f390826116f9565b6001600160a01b038416600090815260066020908152604080832093909355600a9052205460ff161561255d576001600160a01b03831660009081526007602052604090205461254390856116f9565b6001600160a01b0384166000908152600760205260409020555b826001600160a01b0316826001600160a01b03167fddf252ad1be2c89b69c2b068fc378daa952ba7f163c4a11628f55a4df523b3ef866040516125a291815260200190565b60405180910390a350505050565b80356001600160a01b03811681146125c757600080fd5b919050565b803560ff811681146125c757600080fd5b6000602082840312156125ee578081fd5b610b13826125b0565b60008060408385031215612609578081fd5b612612836125b0565b9150612620602084016125b0565b90509250929050565b60008060006060848603121561263d578081fd5b612646846125b0565b9250612654602085016125b0565b9150604084013590509250925092565b60008060408385031215612676578182fd5b61267f836125b0565b946020939093013593505050565b60006020828403121561269e578081fd5b8135610b1381612a08565b6000602082840312156126ba578081fd5b8151610b1381612a08565b6000602082840312156126d6578081fd5b5035919050565b600080604083850312156126ef578182fd5b82359150602083013561270181612a08565b809150509250929050565b600080600060608486031215612720578283fd5b8351925060208401519150604084015190509250925092565b600080600080600060a08688031215612750578081fd5b612759866125cc565b9450612767602087016125cc565b9350612775604087016125cc565b9250612783606087016125cc565b9150612791608087016125cc565b90509295509295909350565b6000602080835283518082850152825b818110156127c9578581018301518582016040015282016127ad565b818111156127da5783604083870101525b50601f01601f1916929092016040019392505050565b6020808252818101527f4f776e61626c653a2063616c6c6572206973206e6f7420746865206f776e6572604082015260600190565b60208082526036908201527f4d696e6f72697479546f6b656e3a2057616c6c65742063616e27742062652073604082015275657420746f20746865207a65726f206164647265737360501b606082015260800190565b6000821982111561288e5761288e6129f2565b500190565b6000826128ae57634e487b7160e01b81526012600452602481fd5b500490565b600181815b808511156128ee5781600019048211156128d4576128d46129f2565b808516156128e157918102915b93841c93908002906128b8565b509250929050565b6000610b1360ff84168360008261290f575060016109ee565b8161291c575060006109ee565b8160018114612932576002811461293c57612958565b60019150506109ee565b60ff84111561294d5761294d6129f2565b50506001821b6109ee565b5060208310610133831016604e8410600b841016171561297b575081810a6109ee565b61298583836128b3565b8060001904821115612999576129996129f2565b029392505050565b60008160001904831182151516156129bb576129bb6129f2565b500290565b6000828210156129d2576129d26129f2565b500390565b60006000198214156129eb576129eb6129f2565b5060010190565b634e487b7160e01b600052601160045260246000fd5b8015158114612a1657600080fd5b5056fe4d696e6f72697479546f6b656e3a2064656372656173656420616c6c6f77616e63652062656c6f77207a65726f4d696e6f72697479546f6b656e3a207472616e7366657220616d6f756e74206578636565647320616c6c6f77616e6365a2646970667358221220905e88e5e07e80b48242d95ca6c56c7e942f5adb9085f01f7eb354ca7f4dd25d64736f6c6343000804003360e060405234801561001057600080fd5b50600080546001600160a01b031916339081178255604051909182917f8be0079c531659141344cd1fd0a4f28419497f9722a3daafe3b4186f6b6457e0908290a35033606081901b6080527ed06725663411e6d4599f0b630ab003d4290eba00000000000000000000000060a0527fa5e0829caced8ffdd4de3c43696c57f7d7a678ff00000000000000000000000060c05272d06725663411e6d4599f0b630ab003d4290eba73a5e0829caced8ffdd4de3c43696c57f7d7a678ff610d9361013d600039600081816101a90152818161066c01528181610731015281816108630152818161092f01526109e201526000818160a8015281816107c4015261095e01526000818161014d015281816105b20152818161069b015281816108990152610a110152610d936000f3fe608060405234801561001057600080fd5b506004361061009e5760003560e01c8063715018a611610066578063715018a61461016f57806389a30271146101795780638da5cb5b14610193578063c31c9c07146101a4578063f2fde38b146101cb57600080fd5b806311eac855146100a3578063173865ad146100e75780632ae564541461011557806332fe7b261461012d5780635a533efd14610148575b600080fd5b6100ca7f000000000000000000000000000000000000000000000000000000000000000081565b6040516001600160a01b0390911681526020015b60405180910390f35b6100fa6100f5366004610bc5565b6101de565b604080519384526020840192909252908201526060016100de565b61011d6102e6565b60405190151581526020016100de565b6100ca73a5e0829caced8ffdd4de3c43696c57f7d7a678ff81565b6100ca7f000000000000000000000000000000000000000000000000000000000000000081565b61017761031b565b005b6100ca72d06725663411e6d4599f0b630ab003d4290eba81565b6000546001600160a01b03166100ca565b6100ca7f000000000000000000000000000000000000000000000000000000000000000081565b6101776101d9366004610b7e565b61038f565b6003805460ff19166001179055600080806101f63390565b6000546001600160a01b0390811691161461022c5760405162461bcd60e51b815260040161022390610c75565b60405180910390fd5b600084116102905760405162461bcd60e51b815260206004820152602b60248201527f4d696e6f726974794c69717569646974794d616e616765723a204e6f20746f6b60448201526a0656e7320746f20737761760ac1b6064820152608401610223565b600061029d856002610479565b905060006102ab86836104c2565b905060006102b883610504565b905060008060006102c9858561084c565b6003805460ff19169055919c909b50909950975050505050505050565b600080546001600160a01b031633146103115760405162461bcd60e51b815260040161022390610c75565b5060035460ff1690565b6000546001600160a01b031633146103455760405162461bcd60e51b815260040161022390610c75565b600080546040516001600160a01b03909116907f8be0079c531659141344cd1fd0a4f28419497f9722a3daafe3b4186f6b6457e0908390a3600080546001600160a01b0319169055565b6000546001600160a01b031633146103b95760405162461bcd60e51b815260040161022390610c75565b6001600160a01b03811661041e5760405162461bcd60e51b815260206004820152602660248201527f4f776e61626c653a206e6577206f776e657220697320746865207a65726f206160448201526564647265737360d01b6064820152608401610223565b600080546040516001600160a01b03808516939216917f8be0079c531659141344cd1fd0a4f28419497f9722a3daafe3b4186f6b6457e091a3600080546001600160a01b0319166001600160a01b0392909216919091179055565b60006104bb83836040518060400160405280601a81526020017f536166654d6174683a206469766973696f6e206279207a65726f000000000000815250610b16565b9392505050565b60006104bb83836040518060400160405280601e81526020017f536166654d6174683a207375627472616374696f6e206f766572666c6f770000815250610b4d565b6040516370a0823160e01b8152306004820152600090819072d06725663411e6d4599f0b630ab003d4290eba906370a082319060240160206040518083038186803b15801561055257600080fd5b505afa158015610566573d6000803e3d6000fd5b505050506040513d601f19601f8201168201806040525081019061058a9190610bdd565b60408051600280825260608201835292935060009290916020830190803683370190505090507f0000000000000000000000000000000000000000000000000000000000000000816000815181106105f257634e487b7160e01b600052603260045260246000fd5b60200260200101906001600160a01b031690816001600160a01b03168152505072d06725663411e6d4599f0b630ab003d4290eba8160018151811061064757634e487b7160e01b600052603260045260246000fd5b6001600160a01b03928316602091820292909201015260405163095ea7b360e01b81527f000000000000000000000000000000000000000000000000000000000000000082166004820152602481018690527f00000000000000000000000000000000000000000000000000000000000000009091169063095ea7b390604401602060405180830381600087803b1580156106e157600080fd5b505af11580156106f5573d6000803e3d6000fd5b505050506040513d601f19601f820116820180604052508101906107199190610ba5565b50604051635c11d79560e01b81526001600160a01b037f00000000000000000000000000000000000000000000000000000000000000001690635c11d7959061076f908790600090869030904290600401610caa565b600060405180830381600087803b15801561078957600080fd5b505af115801561079d573d6000803e3d6000fd5b50506040516370a0823160e01b815230600482015261084492508491506001600160a01b037f000000000000000000000000000000000000000000000000000000000000000016906370a082319060240160206040518083038186803b15801561080657600080fd5b505afa15801561081a573d6000803e3d6000fd5b505050506040513d601f19601f8201168201806040525081019061083e9190610bdd565b906104c2565b949350505050565b60405163095ea7b360e01b81526001600160a01b037f00000000000000000000000000000000000000000000000000000000000000008116600483015260248201849052600091829182917f00000000000000000000000000000000000000000000000000000000000000009091169063095ea7b390604401602060405180830381600087803b1580156108df57600080fd5b505af11580156108f3573d6000803e3d6000fd5b505050506040513d601f19601f820116820180604052508101906109179190610ba5565b5060405163095ea7b360e01b81526001600160a01b037f000000000000000000000000000000000000000000000000000000000000000081166004830152602482018690527f0000000000000000000000000000000000000000000000000000000000000000169063095ea7b390604401602060405180830381600087803b1580156109a257600080fd5b505af11580156109b6573d6000803e3d6000fd5b505050506040513d601f19601f820116820180604052508101906109da9190610ba5565b5060008060007f00000000000000000000000000000000000000000000000000000000000000006001600160a01b031663e8e337007f000000000000000000000000000000000000000000000000000000000000000072d06725663411e6d4599f0b630ab003d4290eba8b8b600080610a5b6000546001600160a01b031690565b60405160e089901b6001600160e01b03191681526001600160a01b039788166004820152958716602487015260448601949094526064850192909252608484015260a483015290911660c48201524260e482015261010401606060405180830381600087803b158015610acd57600080fd5b505af1158015610ae1573d6000803e3d6000fd5b505050506040513d601f19601f82011682018060405250810190610b059190610bf5565b919750955093505050509250925092565b60008183610b375760405162461bcd60e51b81526004016102239190610c22565b506000610b448486610d1a565b95945050505050565b60008184841115610b715760405162461bcd60e51b81526004016102239190610c22565b506000610b448486610d3a565b600060208284031215610b8f578081fd5b81356001600160a01b03811681146104bb578182fd5b600060208284031215610bb6578081fd5b815180151581146104bb578182fd5b600060208284031215610bd6578081fd5b5035919050565b600060208284031215610bee578081fd5b5051919050565b600080600060608486031215610c09578182fd5b8351925060208401519150604084015190509250925092565b6000602080835283518082850152825b81811015610c4e57858101830151858201604001528201610c32565b81811115610c5f5783604083870101525b50601f01601f1916929092016040019392505050565b6020808252818101527f4f776e61626c653a2063616c6c6572206973206e6f7420746865206f776e6572604082015260600190565b600060a082018783526020878185015260a0604085015281875180845260c0860191508289019350845b81811015610cf95784516001600160a01b031683529383019391830191600101610cd4565b50506001600160a01b03969096166060850152505050608001529392505050565b600082610d3557634e487b7160e01b81526012600452602481fd5b500490565b600082821015610d5857634e487b7160e01b81526011600452602481fd5b50039056fea2646970667358221220903d003d7654f21f178d13c07d623f7c36a77e75ea16fc5578fecdb2f72013db64736f6c6343000804003360a06040523480156200001157600080fd5b50604051620019af380380620019af8339810160408190526200003491620001da565b600080546001600160a01b031916339081178255604051909182917f8be0079c531659141344cd1fd0a4f28419497f9722a3daafe3b4186f6b6457e0908290a3506001600160a01b038216620000f75760405162461bcd60e51b815260206004820152603a60248201527f4d696e6f7269747956657374696e674d616e616765723a204f70657261746f7260448201527f2063616e277420626520746865207a65726f206164647265737300000000000060648201526084015b60405180910390fd5b6001600160a01b038116620001865760405162461bcd60e51b815260206004820152604860248201527f4d696e6f7269747956657374696e674d616e616765723a204d696e6f7269747960448201527f20746f6b656e20616464726573732063616e277420626520746865207a65726f606482015267206164647265737360c01b608482015260a401620000ee565b600380546001600160a01b0319166001600160a01b03939093169290921790915560601b6001600160601b03191660805262000211565b80516001600160a01b0381168114620001d557600080fd5b919050565b60008060408385031215620001ed578182fd5b620001f883620001bd565b91506200020860208401620001bd565b90509250929050565b60805160601c6117716200023e600039600081816101c7015281816107d10152610d5201526117716000f3fe608060405234801561001057600080fd5b50600436106100f55760003560e01c8063715018a61161009757806398fb7a981161006657806398fb7a98146102265780639c86aee8146102395780639f91d48414610242578063f2fde38b1461025557600080fd5b8063715018a6146101fc57806384f61358146102045780638adc760d1461020d5780638da5cb5b1461021557600080fd5b806356329ee6116100d357806356329ee61461018e578063570ca735146101975780635a533efd146101c25780636d3cbe21146101e957600080fd5b806320f6b0a9146100fa57806322811b9f146101585780633e34e66d1461016d575b600080fd5b61010d610108366004611450565b610268565b604080519889526020890197909752958701949094526060860192909252608085015260a08401526001600160a01b031660c0830152151560e0820152610100015b60405180910390f35b61016b610166366004611480565b610373565b005b61018061017b3660046114e9565b61060f565b60405190815260200161014f565b61018060065481565b6003546101aa906001600160a01b031681565b6040516001600160a01b03909116815260200161014f565b6101aa7f000000000000000000000000000000000000000000000000000000000000000081565b61010d6101f7366004611450565b610ba1565b61016b610c05565b61018060055481565b61016b610c79565b6000546001600160a01b03166101aa565b61016b610234366004611450565b610dd0565b61018060075481565b6101806102503660046114a1565b610fd5565b61016b61026336600461141a565b611030565b60008060008060008060008060048054905089106102a15760405162461bcd60e51b815260040161029890611629565b60405180910390fd5b600060048a815481106102c457634e487b7160e01b600052603260045260246000fd5b600091825260209182902060408051610100810182526007909302909101805480845260018201549484018590526002820154928401839052600382015460608501819052600483015460808601819052600584015460a087018190526006909401546001600160a01b03811660c0880181905260ff600160a01b90920491909116151560e0909701879052929f50959d50929b50919950929750919550909350915050919395975091939597565b6003546001600160a01b031633148061039657506000546001600160a01b031633145b6103b25760405162461bcd60e51b8152600401610298906115cc565b60045482106103d35760405162461bcd60e51b815260040161029890611629565b4281116104365760405162461bcd60e51b8152602060048201526038602482015260008051602061171c83398151915260448201527f6d75737420737461727420696e207468652066757475726500000000000000006064820152608401610298565b6004828154811061045757634e487b7160e01b600052603260045260246000fd5b906000526020600020906007020160060160149054906101000a900460ff16156104c45760405162461bcd60e51b815260206004820152602a602482015260008051602061171c8339815191526044820152691251081c995b5bdd995960b21b6064820152608401610298565b7f2ee9904f2125da26979bf6b3ffdff419c60cd5b2bb1fc5be175f8fc60218ce89826004848154811061050757634e487b7160e01b600052603260045260246000fd5b6000918252602091829020600460079092020101546040805193845291830152810183905260600160405180910390a1600061057e6004848154811061055d57634e487b7160e01b600052603260045260246000fd5b9060005260206000209060070201600301548361111a90919063ffffffff16565b905081600484815481106105a257634e487b7160e01b600052603260045260246000fd5b90600052602060002090600702016004018190555080600484815481106105d957634e487b7160e01b600052603260045260246000fd5b90600052602060002090600702016005018190555082600654141561060557610600611182565b505050565b610600838261126b565b600080546001600160a01b0316331461063a5760405162461bcd60e51b815260040161029890611597565b606486106106b05760405162461bcd60e51b815260206004820152603d60248201527f4d696e6f7269747956657374696e674d616e616765723a2043616e277420766560448201527f7374203e2031303025206f6620746f6b656e73207065722065706f63680000006064820152608401610298565b42841015806106bd575083155b61072f5760405162461bcd60e51b815260206004820152603f60248201527f4d696e6f7269747956657374696e674d616e616765723a20526577617264732060448201527f63616e277420626567696e2076657374696e6720696e207468652070617374006064820152608401610298565b6001600160a01b0383166107a45760405162461bcd60e51b8152602060048201526042602482015260008051602061171c83398151915260448201527f72656365697665722063616e277420626520746865207a65726f206164647265606482015261737360f01b608482015260a401610298565b6007546000906107b4908961111a565b905082156108fe576040516370a0823160e01b81523060048201527f00000000000000000000000000000000000000000000000000000000000000006001600160a01b0316906370a082319060240160206040518083038186803b15801561081b57600080fd5b505afa15801561082f573d6000803e3d6000fd5b505050506040513d601f19601f820116820180604052508101906108539190611468565b8111156108fe5760405162461bcd60e51b815260206004820152606760248201527f4d696e6f7269747956657374696e674d616e616765723a204e6f7420656e6f7560448201527f676820746f6b656e7320696e20636f6e747261637420746f20766573742e205460648201527f72616e7366657220746f6b656e73206265666f726520616464696e672061207360848201526663686564756c6560c81b60a482015260c401610298565b600085156109205761091b61091488603c611293565b879061111a565b610922565b855b905060006040518061010001604052808b815260200161095660646109508d8f61129390919063ffffffff16565b90611312565b81526000602082015260400161096d8a603c611293565b815260208082018a905260408083018690526001600160a01b03808b16606080860191909152600060809586018190526004805460018181018355828452895160079283027f8a35acfbc15ff81a39ae7d344fd709f28e8600b4aa8c65c6b64bfe7fe36bd19b810191909155978a01517f8a35acfbc15ff81a39ae7d344fd709f28e8600b4aa8c65c6b64bfe7fe36bd19c890155958901517f8a35acfbc15ff81a39ae7d344fd709f28e8600b4aa8c65c6b64bfe7fe36bd19d880155928801517f8a35acfbc15ff81a39ae7d344fd709f28e8600b4aa8c65c6b64bfe7fe36bd19e870155958701517f8a35acfbc15ff81a39ae7d344fd709f28e8600b4aa8c65c6b64bfe7fe36bd19f86015560a08701517f8a35acfbc15ff81a39ae7d344fd709f28e8600b4aa8c65c6b64bfe7fe36bd1a086015560c08701517f8a35acfbc15ff81a39ae7d344fd709f28e8600b4aa8c65c6b64bfe7fe36bd1a1909501805460e08901511515600160a01b026001600160a81b031990911696909416959095179290921790935591879055915492935091610b0991906116c2565b9050610b15818461126b565b815160208084015160608086015160808088015160a0808a015160c0808c0151604080518d81529a8b019b909b52898b019890985295880194909452918601528401526001600160a01b039091169082015290517fff7d5b9238fdf530d746ea0e1b517671e3e0fd1414a36e69a57867dc707dc65a9181900360e00190a19a9950505050505050505050565b60048181548110610bb157600080fd5b6000918252602090912060079091020180546001820154600283015460038401546004850154600586015460069096015494965092949193909291906001600160a01b03811690600160a01b900460ff1688565b6000546001600160a01b03163314610c2f5760405162461bcd60e51b815260040161029890611597565b600080546040516001600160a01b03909116907f8be0079c531659141344cd1fd0a4f28419497f9722a3daafe3b4186f6b6457e0908390a3600080546001600160a01b0319169055565b4260055411158015610c8c575060055415155b15610dce576000600460065481548110610cb657634e487b7160e01b600052603260045260246000fd5b60009182526020918290206040805161010081018252600793909302909101805483526001810154938301849052600281015483830152600381015460608401526004808201546080850152600582015460a08501526006909101546001600160a01b0380821660c08601819052600160a01b90920460ff16151560e0860152925163a9059cbb60e01b815291820152602481018490529193507f0000000000000000000000000000000000000000000000000000000000000000169063a9059cbb90604401602060405180830381600087803b158015610d9657600080fd5b505af1158015610daa573d6000803e3d6000fd5b505050506040513d601f19601f820116820180604052508101906106009190611434565b565b6003546001600160a01b0316331480610df357506000546001600160a01b031633145b610e0f5760405162461bcd60e51b8152600401610298906115cc565b6004548110610e305760405162461bcd60e51b815260040161029890611629565b60048181548110610e5157634e487b7160e01b600052603260045260246000fd5b906000526020600020906007020160060160149054906101000a900460ff1615610ec65760405162461bcd60e51b8152602060048201526032602482015260008051602061171c833981519152604482015271125108185b1c9958591e481c995b5bdd995960721b6064820152608401610298565b600160048281548110610ee957634e487b7160e01b600052603260045260246000fd5b906000526020600020906007020160060160146101000a81548160ff021916908315150217905550610f8a60048281548110610f3557634e487b7160e01b600052603260045260246000fd5b906000526020600020906007020160020154610f8460048481548110610f6b57634e487b7160e01b600052603260045260246000fd5b6000918252602090912060079182020154905490611354565b9061111a565b600755600654811415610f9f57610f9f611182565b6040518181527f3a9782b2e3f78dee6de9b41f31d0f34064ee9d7bd4a79e5e3f7e0c1ca528bba39060200160405180910390a150565b6003546000906001600160a01b0316331480610ffb57506000546001600160a01b031633145b6110175760405162461bcd60e51b8152600401610298906115cc565b6110268686868686600161060f565b9695505050505050565b6000546001600160a01b0316331461105a5760405162461bcd60e51b815260040161029890611597565b6001600160a01b0381166110bf5760405162461bcd60e51b815260206004820152602660248201527f4f776e61626c653a206e6577206f776e657220697320746865207a65726f206160448201526564647265737360d01b6064820152608401610298565b600080546040516001600160a01b03808516939216917f8be0079c531659141344cd1fd0a4f28419497f9722a3daafe3b4186f6b6457e091a3600080546001600160a01b0319166001600160a01b0392909216919091179055565b600080611127838561166b565b9050838110156111795760405162461bcd60e51b815260206004820152601b60248201527f536166654d6174683a206164646974696f6e206f766572666c6f7700000000006044820152606401610298565b90505b92915050565b60045460005b818110156112675760065481141580156111df5750600481815481106111be57634e487b7160e01b600052603260045260246000fd5b906000526020600020906007020160060160149054906101000a900460ff16155b156112555760006004828154811061120757634e487b7160e01b600052603260045260246000fd5b906000526020600020906007020160050154905080600014611253574281116112335760055560065550565b6005548110806112435750600554155b1561125357600581905560068290555b505b8061125f816116d9565b915050611188565b5050565b60055481108061127b5750600554155b801561128657508015155b1561126757600555600655565b6000826112a25750600061117c565b60006112ae83856116a3565b9050826112bb8583611683565b146111795760405162461bcd60e51b815260206004820152602160248201527f536166654d6174683a206d756c7469706c69636174696f6e206f766572666c6f6044820152607760f81b6064820152608401610298565b600061117983836040518060400160405280601a81526020017f536166654d6174683a206469766973696f6e206279207a65726f000000000000815250611396565b600061117983836040518060400160405280601e81526020017f536166654d6174683a207375627472616374696f6e206f766572666c6f7700008152506113cd565b600081836113b75760405162461bcd60e51b81526004016102989190611544565b5060006113c48486611683565b95945050505050565b600081848411156113f15760405162461bcd60e51b81526004016102989190611544565b5060006113c484866116c2565b80356001600160a01b038116811461141557600080fd5b919050565b60006020828403121561142b578081fd5b611179826113fe565b600060208284031215611445578081fd5b81516111798161170a565b600060208284031215611461578081fd5b5035919050565b600060208284031215611479578081fd5b5051919050565b60008060408385031215611492578081fd5b50508035926020909101359150565b600080600080600060a086880312156114b8578081fd5b853594506020860135935060408601359250606086013591506114dd608087016113fe565b90509295509295909350565b60008060008060008060c08789031215611501578081fd5b86359550602087013594506040870135935060608701359250611526608088016113fe565b915060a08701356115368161170a565b809150509295509295509295565b6000602080835283518082850152825b8181101561157057858101830151858201604001528201611554565b818111156115815783604083870101525b50601f01601f1916929092016040019392505050565b6020808252818101527f4f776e61626c653a2063616c6c6572206973206e6f7420746865206f776e6572604082015260600190565b6020808252603c908201527f4d696e6f7269747956657374696e674d616e616765723a206f6e6c792061636360408201527f65737369626c65206279206f70657261746f72206f72206f776e657200000000606082015260800190565b60208082526022908201527f4d696e6f7269747956657374696e674d616e616765723a20696e76616c696420604082015261125160f21b606082015260800190565b6000821982111561167e5761167e6116f4565b500190565b60008261169e57634e487b7160e01b81526012600452602481fd5b500490565b60008160001904831182151516156116bd576116bd6116f4565b500290565b6000828210156116d4576116d46116f4565b500390565b60006000198214156116ed576116ed6116f4565b5060010190565b634e487b7160e01b600052601160045260246000fd5b801515811461171857600080fd5b5056fe4d696e6f7269747956657374696e674d616e616765723a2076657374696e6720a2646970667358221220839cb582736b91f81d7e30f3566963e63f1a8f67195158f84b344ae067f0778764736f6c6343000804003360a06040523480156200001157600080fd5b5060405162002d3338038062002d33833981016040819052620000349162000145565b6001600081815581546001600160a01b031916339081179092556040518291907f8be0079c531659141344cd1fd0a4f28419497f9722a3daafe3b4186f6b6457e0908290a3506001600160a01b038116620000fb5760405162461bcd60e51b815260206004820152603360248201527f4d696e6f7269747950726573616c653a204f70657261746f722063616e27742060448201527f626520746865207a65726f206164647265737300000000000000000000000000606482015260840160405180910390fd5b7fa5e0829caced8ffdd4de3c43696c57f7d7a678ff000000000000000000000000608052600480546001600160a01b0319166001600160a01b039290921691909117905562000175565b60006020828403121562000157578081fd5b81516001600160a01b03811681146200016e578182fd5b9392505050565b60805160601c612b83620001b06000396000818161065a015281816106ec015281816120f4015281816121a001526122910152612b836000f3fe60806040526004361061021e5760003560e01c80635e6911af11610123578063a4399263116100ab578063c31c9c071161006f578063c31c9c0714610648578063d91b3d071461067c578063f2fde38b14610692578063f89be593146106b2578063fc0c546a146106c857600080fd5b8063a4399263146105d2578063b071cbe6146105e7578063b5545a3c146105fd578063b7a8807c14610612578063baac251b1461062857600080fd5b806389a30271116100f257806389a30271146105395780638d167405146105605780638da5cb5b146105755780639a82a09a14610593578063a27aebbc146105b257600080fd5b80635e6911af146104da578063656768fa146104f45780636eb219291461050a578063715018a61461052457600080fd5b80633ca85228116101a657806348c54b9d1161017557806348c54b9d1461045957806349f1026e1461046e5780634b6753bc14610484578063521eb2731461049a578063570ca735146104ba57600080fd5b80633ca85228146103f95780634042b66f14610419578063467e53b11461042f57806347535d7b1461044457600080fd5b806321eff7fc116101ed57806321eff7fc1461033a5780632c4e722e146103705780633013ce291461038657806332fe7b26146103be5780633610724e146103e657600080fd5b80630276650b146102b25780631512fc22146102db5780631515bc2b146102fb578063214bb60f1461032057600080fd5b366102ad5761022b6106e8565b6102a25760405162461bcd60e51b815260206004820152603b60248201527f4d696e6f7269747950726573616c653a2043616e27742062757920627920736560448201527f6e64696e672066756e647320746f20746869732061646472657373000000000060648201526084015b60405180910390fd5b6102ab34610791565b005b600080fd5b3480156102be57600080fd5b506102c8600d5481565b6040519081526020015b60405180910390f35b3480156102e757600080fd5b506102ab6102f6366004612939565b610912565b34801561030757600080fd5b50610310610a88565b60405190151581526020016102d2565b34801561032c57600080fd5b506013546103109060ff1681565b34801561034657600080fd5b506102c861035536600461276d565b6001600160a01b03166000908152600e602052604090205490565b34801561037c57600080fd5b506102c860085481565b34801561039257600080fd5b506006546103a6906001600160a01b031681565b6040516001600160a01b0390911681526020016102d2565b3480156103ca57600080fd5b506103a673a5e0829caced8ffdd4de3c43696c57f7d7a678ff81565b6102ab6103f43660046127c1565b610791565b34801561040557600080fd5b506102ab61041436600461288c565b610aa1565b34801561042557600080fd5b506102c860095481565b34801561043b57600080fd5b506102ab61126f565b34801561045057600080fd5b5061031061134c565b34801561046557600080fd5b506102ab611365565b34801561047a57600080fd5b506102c860125481565b34801561049057600080fd5b506102c860105481565b3480156104a657600080fd5b506007546103a6906001600160a01b031681565b3480156104c657600080fd5b506004546103a6906001600160a01b031681565b3480156104e657600080fd5b50600b546009541015610310565b34801561050057600080fd5b506102c860115481565b34801561051657600080fd5b50600c546009541015610310565b34801561053057600080fd5b506102ab611607565b34801561054557600080fd5b506103a672d06725663411e6d4599f0b630ab003d4290eba81565b34801561056c57600080fd5b506103106106e8565b34801561058157600080fd5b506001546001600160a01b03166103a6565b34801561059f57600080fd5b5060135461031090610100900460ff1681565b3480156105be57600080fd5b506102ab6105cd3660046127c1565b61167b565b3480156105de57600080fd5b506102ab6117c9565b3480156105f357600080fd5b506102c8600b5481565b34801561060957600080fd5b506102ab6118f6565b34801561061e57600080fd5b506102c8600f5481565b34801561063457600080fd5b506102ab6106433660046127f1565b611b31565b34801561065457600080fd5b506103a67f000000000000000000000000000000000000000000000000000000000000000081565b34801561068857600080fd5b506102c8600a5481565b34801561069e57600080fd5b506102ab6106ad36600461276d565b611b92565b3480156106be57600080fd5b506102c8600c5481565b3480156106d457600080fd5b506005546103a6906001600160a01b031681565b60007f00000000000000000000000000000000000000000000000000000000000000006001600160a01b031663ad5c46486040518163ffffffff1660e01b815260040160206040518083038186803b15801561074357600080fd5b505afa158015610757573d6000803e3d6000fd5b505050506040513d601f19601f8201168201806040525081019061077b9190612789565b6006546001600160a01b03908116911614919050565b600260005414156107e45760405162461bcd60e51b815260206004820152601f60248201527f5265656e7472616e637947756172643a207265656e7472616e742063616c6c006044820152606401610299565b6002600090815533906107f78284611c7d565b90506000811161085b5760405162461bcd60e51b815260206004820152602960248201527f4d696e6f7269747950726573616c653a20697373756520636f6c6c656374696e60448201526819c81c185e5b595b9d60ba1b6064820152608401610299565b600061086682611ec5565b6009549091506108769083611edc565b6009556001600160a01b0383166000908152600e602052604090205461089c9083611edc565b6001600160a01b0384166000818152600e602090815260409182902093909355805185815292830184905290917f8fafebcaf9d154343dad25669bfa277f4fbacd7ac6b0c4fed522580e040a0f33910160405180910390a2600b5460095410610907576109076117c9565b505060016000555050565b6004546001600160a01b031633148061093557506001546001600160a01b031633145b6109515760405162461bcd60e51b815260040161029990612a51565b610959610a88565b156109a65760405162461bcd60e51b815260206004820152601f60248201527f4d696e6f7269747950726573616c653a20616c726561647920636c6f736564006044820152606401610299565b6109ae61134c565b15610a325760405162461bcd60e51b815260206004820152604860248201527f4d696e6f7269747950726573616c653a20616c7265616479206f70656e2c207560448201527f736520657874656e6454696d6520746f206368616e67652074686520636c6f73606482015267696e672074696d6560c01b608482015260a401610299565b600f546010546040805192835260208301859052820152606081018290527fcee39188adaf9a8b11d1c48b0a60f530d2d2923c00d7f9ac4a8294501d77e9ba9060800160405180910390a1600f91909155601055565b600060105442118015610a9c575060105415155b905090565b6001546001600160a01b03163314610acb5760405162461bcd60e51b8152600401610299906129da565b600f541580610ae95750600f54610ae59062015180611f3b565b4211155b610b525760405162461bcd60e51b815260206004820152603460248201527f4d696e6f7269747950726573616c653a2043616e2774206d6f64696679203c206044820152733120646179206265666f7265206f70656e696e6760601b6064820152608401610299565b601354610100900460ff1615610bd05760405162461bcd60e51b815260206004820152603a60248201527f4d696e6f7269747950726573616c653a2043616e27742072652d75736520612060448201527f63616e63656c6c65642070726573616c6520636f6e74726163740000000000006064820152608401610299565b60008c11610c205760405162461bcd60e51b815260206004820181905260248201527f4d696e6f7269747950726573616c653a20726174652063616e277420626520306044820152606401610299565b6001600160a01b038b16610c905760405162461bcd60e51b815260206004820152603160248201527f4d696e6f7269747950726573616c653a2077616c6c65742063616e277420626560448201527020746865207a65726f206164647265737360781b6064820152608401610299565b6001600160a01b038a16610cff5760405162461bcd60e51b815260206004820152603060248201527f4d696e6f7269747950726573616c653a20746f6b656e2063616e27742062652060448201526f746865207a65726f206164647265737360801b6064820152608401610299565b6001600160a01b038616610d7b5760405162461bcd60e51b815260206004820152603860248201527f4d696e6f7269747950726573616c653a207061796d656e7420746f6b656e206360448201527f616e277420626520746865207a65726f206164647265737300000000000000006064820152608401610299565b60008911610dd75760405162461bcd60e51b815260206004820152602360248201527f4d696e6f7269747950726573616c653a20686172646361702063616e2774206260448201526206520360ec1b6064820152608401610299565b60008811610e335760405162461bcd60e51b815260206004820152602360248201527f4d696e6f7269747950726573616c653a20736f66746361702063616e2774206260448201526206520360ec1b6064820152608401610299565b888810610e955760405162461bcd60e51b815260206004820152602a60248201527f4d696e6f7269747950726573616c653a20736f6674636170206d7573742062656044820152690203c20686172646361760b41b6064820152608401610299565b60008711610ef85760405162461bcd60e51b815260206004820152602a60248201527f4d696e6f7269747950726573616c653a20696e646976696475616c2063617020604482015269063616e277420626520360b41b6064820152608401610299565b42851015610f635760405162461bcd60e51b815260206004820152603260248201527f4d696e6f7269747950726573616c653a206f70656e696e672074696d652063616044820152711b89dd081899481a5b881d1a19481c185cdd60721b6064820152608401610299565b848411610fd85760405162461bcd60e51b815260206004820152603a60248201527f4d696e6f7269747950726573616c653a20636c6f73696e672074696d6520636160448201527f6e2774206265206265666f7265206f70656e696e672074696d650000000000006064820152608401610299565b6000831161103b5760405162461bcd60e51b815260206004820152602a60248201527f4d696e6f7269747950726573616c653a206d75737420616464203e203020746f60448201526906b656e7320746f204c560b41b6064820152608401610299565b6046821015801561104d575060648211155b6110ca5760405162461bcd60e51b815260206004820152604260248201527f4d696e6f7269747950726573616c653a206d75737420616464203e3d2037302560448201527f20616e64203c3d2031303025206f66207261697365642066756e647320746f2060648201526104c560f41b608482015260a401610299565b8015611207576110e4836110de8b8f611f7d565b90611edc565b6040516370a0823160e01b81523060048201526001600160a01b038c16906370a082319060240160206040518083038186803b15801561112357600080fd5b505afa158015611137573d6000803e3d6000fd5b505050506040513d601f19601f8201168201806040525081019061115b91906127d9565b10156112075760405162461bcd60e51b815260206004820152606960248201527f4d696e6f7269747950726573616c653a204e6f7420656e6f75676820746f6b6560448201527f6e73206f776e656420746f20636f6d706c6574652070726573616c652e20446560648201527f706f73697420746f6b656e73206265666f72652063616c6c696e67207468697360848201526810333ab731ba34b7b760b91b60a482015260c401610299565b5060089a909a55600780546001600160a01b03199081166001600160a01b039b8c1617909155600580548216998b1699909917909855600680549098169390981692909217909555600b93909355600c91909155600d55600f91909155601055601155601255565b6004546001600160a01b031633148061129257506001546001600160a01b031633145b6112ae5760405162461bcd60e51b815260040161029990612a51565b60135460ff16156112d15760405162461bcd60e51b815260040161029990612a0f565b6112d961134c565b806112e757506112e7610a88565b80156112f557506000600954115b1561130a576013805461ff0019166101001790555b60006008819055600780546001600160a01b0319169055600b819055600c819055600d819055600f8190556010819055601181905560125561134a611ffc565b565b6000600f544210158015610a9c57505060105442111590565b60135460ff166113eb5760405162461bcd60e51b8152602060048201526044602482018190527f4d696e6f7269747950726573616c653a206e6f742066696e616c697365642c20908201527f63616c6c2066696e616c697365206265666f726520636c61696d696e6720746f6064820152636b656e7360e01b608482015260a401610299565b600c546009541015611467576040805162461bcd60e51b81526020600482015260248101919091527f4d696e6f7269747950726573616c653a20536f6674636170206e6f74206d657460448201527f2c20636c61696d206120726566756e64206f6620796f7572207061796d656e746064820152608401610299565b336000818152600e602052604081205461148090611ec5565b9050600081116114f05760405162461bcd60e51b815260206004820152603560248201527f4d696e6f7269747950726573616c653a206e6f20746f6b656e7320636c61696d60448201527461626c6520666f722074686973206164647265737360581b6064820152608401610299565b6001600160a01b0382166000908152600e6020526040812055600a546115169082611f3b565b600a5560055460405163a9059cbb60e01b81526001600160a01b038481166004830152602482018490529091169063a9059cbb90604401602060405180830381600087803b15801561156757600080fd5b505af115801561157b573d6000803e3d6000fd5b505050506040513d601f19601f8201168201806040525081019061159f91906127a5565b6116035760405162461bcd60e51b815260206004820152602f60248201527f4d696e6f7269747950726573616c653a2069737375652077697468207472616e60448201526e7366657272696e6720746f6b656e7360881b6064820152608401610299565b5050565b6001546001600160a01b031633146116315760405162461bcd60e51b8152600401610299906129da565b6001546040516000916001600160a01b0316907f8be0079c531659141344cd1fd0a4f28419497f9722a3daafe3b4186f6b6457e0908390a3600180546001600160a01b0319169055565b6004546001600160a01b031633148061169e57506001546001600160a01b031633145b6116ba5760405162461bcd60e51b815260040161029990612a51565b6116c2610a88565b1561170f5760405162461bcd60e51b815260206004820152601f60248201527f4d696e6f7269747950726573616c653a20616c726561647920636c6f736564006044820152606401610299565b6010548111611788576040805162461bcd60e51b81526020600482015260248101919091527f4d696e6f7269747950726573616c653a206e657720636c6f73696e672074696d60448201527f65206973206265666f72652063757272656e7420636c6f73696e672074696d656064820152608401610299565b60105460408051918252602082018390527f36590996dea047dc12d17ec2643248f8b86eb37e78941b43d9e9049180efb7b0910160405180910390a1601055565b60135460ff16156117ec5760405162461bcd60e51b815260040161029990612a0f565b6117f4610a88565b806118035750600b5460095410155b61184f5760405162461bcd60e51b815260206004820152601b60248201527f4d696e6f7269747950726573616c653a206e6f7420636c6f73656400000000006044820152606401610299565b60085460095461185e91611f7d565b600a556013805460ff191660011790556040517f5a1e9b2ea50ef9aabe4b3c94eb63b2d60debef2647506304fbf79ad4509d1aff90600090a1600b546009541015806118ae5750600c5460095410155b156118e2576118bb6120b5565b606460125410156118ce576118ce61236f565b600b54600954101561134a5761134a61241d565b600c54600954101561134a5761134a611ffc565b60135460ff168061190e5750601354610100900460ff165b6119a65760405162461bcd60e51b815260206004820152605860248201527f4d696e6f7269747950726573616c653a206e6f742066696e616c69736564206f60448201527f722063616e63656c6c65642c207472792063616c6c696e672066696e616c697360648201527f65206265666f726520636c61696d696e6720726566756e640000000000000000608482015260a401610299565b600c5460095410611a455760405162461bcd60e51b815260206004820152605a60248201527f4d696e6f7269747950726573616c653a20736f6674636170207265616368656460448201527f2c20726566756e64732063616e277420626520636c61696d656420756e6c657360648201527f73207468652070726573616c652069732063616e63656c6c6564000000000000608482015260a401610299565b33611a4e6106e8565b15611a97576001600160a01b0381166000908152600e602052604080822054905133926108fc831502929190818181858888f19350505050158015611603573d6000803e3d6000fd5b6006546001600160a01b038281166000818152600e60205260409081902054905163a9059cbb60e01b81526004810192909252602482015291169063a9059cbb906044015b602060405180830381600087803b158015611af657600080fd5b505af1158015611b0a573d6000803e3d6000fd5b505050506040513d601f19601f8201168201806040525081019061160391906127a5565b50565b6004546001600160a01b0316331480611b5457506001546001600160a01b031633145b611b705760405162461bcd60e51b815260040161029990612a51565b611b858b8b8b8b8b8b8b8b8b8b8b6001610aa1565b5050505050505050505050565b6001546001600160a01b03163314611bbc5760405162461bcd60e51b8152600401610299906129da565b6001600160a01b038116611c215760405162461bcd60e51b815260206004820152602660248201527f4f776e61626c653a206e6577206f776e657220697320746865207a65726f206160448201526564647265737360d01b6064820152608401610299565b6001546040516001600160a01b038084169216907f8be0079c531659141344cd1fd0a4f28419497f9722a3daafe3b4186f6b6457e090600090a3600180546001600160a01b0319166001600160a01b0392909216919091179055565b6000611c8761134c565b611cd35760405162461bcd60e51b815260206004820152601960248201527f4d696e6f7269747950726573616c653a206e6f74206f70656e000000000000006044820152606401610299565b6001600160a01b038316611d425760405162461bcd60e51b815260206004820152603060248201527f4d696e6f7269747950726573616c653a2062656e65666963696172792069732060448201526f746865207a65726f206164647265737360801b6064820152608401610299565b81611d9b5760405162461bcd60e51b8152602060048201526024808201527f4d696e6f7269747950726573616c653a2030207061796d656e74207370656369604482015263199a595960e21b6064820152608401610299565b600b54600954611dab9084611edc565b1115611e2d5760405162461bcd60e51b8152602060048201526044602482018190527f4d696e6f7269747950726573616c653a206861726463617020776f756c642062908201527f652065786365656465642077697468207468697320707572636861736520616d6064820152631bdd5b9d60e21b608482015260a401610299565b600d546001600160a01b0384166000908152600e6020526040902054611e539084611edc565b1115611eb25760405162461bcd60e51b815260206004820152602860248201527f4d696e6f7269747950726573616c653a20696e646976696475616c2063617020604482015267195e18d95959195960c21b6064820152608401610299565b611ebc8383612518565b90505b92915050565b6000611ebf60085483611f7d90919063ffffffff16565b600080611ee98385612aa6565b905083811015611ebc5760405162461bcd60e51b815260206004820152601b60248201527f536166654d6174683a206164646974696f6e206f766572666c6f7700000000006044820152606401610299565b6000611ebc83836040518060400160405280601e81526020017f536166654d6174683a207375627472616374696f6e206f766572666c6f7700008152506126c8565b600082611f8c57506000611ebf565b6000611f988385612ade565b905082611fa58583612abe565b14611ebc5760405162461bcd60e51b815260206004820152602160248201527f536166654d6174683a206d756c7469706c69636174696f6e206f766572666c6f6044820152607760f81b6064820152608401610299565b6005546040516370a0823160e01b81523060048201526000916001600160a01b0316906370a082319060240160206040518083038186803b15801561204057600080fd5b505afa158015612054573d6000803e3d6000fd5b505050506040513d601f19601f8201168201806040525081019061207891906127d9565b60055460075460405163a9059cbb60e01b81526001600160a01b03918216600482015260248101849052929350169063a9059cbb90604401611adc565b60006120da600b546120d4600954601154611f7d90919063ffffffff16565b90612702565b60055460405163095ea7b360e01b81526001600160a01b037f0000000000000000000000000000000000000000000000000000000000000000811660048301526024820184905292935091169063095ea7b390604401602060405180830381600087803b15801561214a57600080fd5b505af115801561215e573d6000803e3d6000fd5b505050506040513d601f19601f8201168201806040525081019061218291906127a5565b5060065460095460405163095ea7b360e01b81526001600160a01b037f000000000000000000000000000000000000000000000000000000000000000081166004830152602482019290925291169063095ea7b390604401602060405180830381600087803b1580156121f457600080fd5b505af1158015612208573d6000803e3d6000fd5b505050506040513d601f19601f8201168201806040525081019061222c91906127a5565b5060055460065460095460075460405162e8e33760e81b81526001600160a01b039485166004820152928416602484015260448301859052606483019190915260006084830181905260a4830181905290831660c48301524260e483015291829182917f0000000000000000000000000000000000000000000000000000000000000000169063e8e337009061010401606060405180830381600087803b1580156122d657600080fd5b505af11580156122ea573d6000803e3d6000fd5b505050506040513d601f19601f8201168201806040525081019061230e919061295a565b600954604080518981526020810186905290810191909152606081018390526080810182905292955090935091507fb141efb20c72d616a1738edf3bfc091e675e9970798c20f084e967372070c25b9060a00160405180910390a150505050565b600061239961239060646120d4601254600954611f7d90919063ffffffff16565b60095490611f3b565b90506123a36106e8565b156123e2576007546040516001600160a01b039091169082156108fc029083906000818181858888f19350505050158015611603573d6000803e3d6000fd5b60065460075460405163a9059cbb60e01b81526001600160a01b0391821660048201526024810184905291169063a9059cbb90604401611adc565b600061244260085461243c600954600b54611f3b90919063ffffffff16565b90611f7d565b9050600061246f612466600b546120d4600954601154611f7d90919063ffffffff16565b60115490611f3b565b6005546007549192506001600160a01b039081169163a9059cbb91166124958585611edc565b6040516001600160e01b031960e085901b1681526001600160a01b0390921660048301526024820152604401602060405180830381600087803b1580156124db57600080fd5b505af11580156124ef573d6000803e3d6000fd5b505050506040513d601f19601f8201168201806040525081019061251391906127a5565b505050565b60006125226106e8565b1561252e575080611ebf565b6006546040516370a0823160e01b81523060048201526000916001600160a01b0316906370a082319060240160206040518083038186803b15801561257257600080fd5b505afa158015612586573d6000803e3d6000fd5b505050506040513d601f19601f820116820180604052508101906125aa91906127d9565b6006546040516323b872dd60e01b81526001600160a01b038781166004830152306024830152604482018790529293509116906323b872dd90606401602060405180830381600087803b15801561260057600080fd5b505af1158015612614573d6000803e3d6000fd5b505050506040513d601f19601f8201168201806040525081019061263891906127a5565b506006546040516370a0823160e01b81523060048201526126c09183916001600160a01b03909116906370a082319060240160206040518083038186803b15801561268257600080fd5b505afa158015612696573d6000803e3d6000fd5b505050506040513d601f19601f820116820180604052508101906126ba91906127d9565b90611f3b565b915050611ebf565b600081848411156126ec5760405162461bcd60e51b81526004016102999190612987565b5060006126f98486612afd565b95945050505050565b6000611ebc83836040518060400160405280601a81526020017f536166654d6174683a206469766973696f6e206279207a65726f000000000000815250600081836127605760405162461bcd60e51b81526004016102999190612987565b5060006126f98486612abe565b60006020828403121561277e578081fd5b8135611ebc81612b2a565b60006020828403121561279a578081fd5b8151611ebc81612b2a565b6000602082840312156127b6578081fd5b8151611ebc81612b3f565b6000602082840312156127d2578081fd5b5035919050565b6000602082840312156127ea578081fd5b5051919050565b60008060008060008060008060008060006101608c8e031215612812578687fd5b8b359a5060208c013561282481612b2a565b995060408c013561283481612b2a565b985060608c0135975060808c0135965060a08c0135955060c08c013561285981612b2a565b8095505060e08c013593506101008c013592506101208c013591506101408c013590509295989b509295989b9093969950565b6000806000806000806000806000806000806101808d8f0312156128ae578182fd5b8c359b5060208d01356128c081612b2a565b9a5060408d01356128d081612b2a565b995060608d0135985060808d0135975060a08d0135965060c08d01356128f581612b2a565b955060e08d013594506101008d013593506101208d013592506101408d013591506101608d013561292581612b3f565b809150509295989b509295989b509295989b565b6000806040838503121561294b578182fd5b50508035926020909101359150565b60008060006060848603121561296e578283fd5b8351925060208401519150604084015190509250925092565b6000602080835283518082850152825b818110156129b357858101830151858201604001528201612997565b818111156129c45783604083870101525b50601f01601f1916929092016040019392505050565b6020808252818101527f4f776e61626c653a2063616c6c6572206973206e6f7420746865206f776e6572604082015260600190565b60208082526022908201527f4d696e6f7269747950726573616c653a20616c72656164792066696e616c6973604082015261195960f21b606082015260800190565b60208082526035908201527f4d696e6f7269747950726573616c653a206f6e6c792061636365737369626c6560408201527410313c9037b832b930ba37b91037b91037bbb732b960591b606082015260800190565b60008219821115612ab957612ab9612b14565b500190565b600082612ad957634e487b7160e01b81526012600452602481fd5b500490565b6000816000190483118215151615612af857612af8612b14565b500290565b600082821015612b0f57612b0f612b14565b500390565b634e487b7160e01b600052601160045260246000fd5b6001600160a01b0381168114611b2e57600080fd5b8015158114611b2e57600080fdfea2646970667358221220314b68cfa04b484c97057bc4b824c3e514f21d4ea2b9838a8e60311f3c7aa29964736f6c63430008040033ddf252ad1be2c89b69c2b068fc378daa952ba7f163c4a11628f55a4df523b3ef",
			"opcodes": "PUSH1 0x80 PUSH1 0x40 MSTORE PUSH3 0x12 PUSH1 0x6 PUSH1 0xA PUSH3 0x111D JUMP JUMPDEST PUSH3 0x22 SWAP1 PUSH4 0x77359400 PUSH3 0x11DC JUMP JUMPDEST PUSH3 0x30 SWAP1 PUSH1 0x0 NOT PUSH3 0x1218 JUMP JUMPDEST PUSH3 0x3E SWAP1 PUSH1 0x0 NOT PUSH3 0x11FE JUMP JUMPDEST PUSH1 0xC SSTORE PUSH3 0xFB PUSH3 0x53 PUSH1 0x6 PUSH1 0xA PUSH3 0x111D JUMP JUMPDEST PUSH3 0x63 SWAP1 PUSH4 0x1312D00 PUSH3 0x11DC JUMP JUMPDEST PUSH3 0xE7 PUSH3 0x75 PUSH1 0x6 PUSH1 0xA PUSH3 0x111D JUMP JUMPDEST PUSH3 0x85 SWAP1 PUSH4 0x5F5E100 PUSH3 0x11DC JUMP JUMPDEST PUSH3 0xE7 PUSH3 0x97 PUSH1 0x6 PUSH1 0xA PUSH3 0x111D JUMP JUMPDEST PUSH3 0xA7 SWAP1 PUSH4 0x5F5E100 PUSH3 0x11DC JUMP JUMPDEST PUSH3 0xE7 PUSH3 0xB9 PUSH1 0x6 PUSH1 0xA PUSH3 0x111D JUMP JUMPDEST PUSH3 0xC9 SWAP1 PUSH4 0xE4E1C00 PUSH3 0x11DC JUMP JUMPDEST PUSH3 0xD7 PUSH1 0x6 PUSH1 0xA PUSH3 0x111D JUMP JUMPDEST PUSH3 0xE7 SWAP1 PUSH4 0x23C34600 PUSH3 0x11DC JUMP JUMPDEST PUSH3 0xDE3 PUSH1 0x20 SHL PUSH3 0x16F9 OR SWAP1 SWAP2 SWAP1 PUSH1 0x20 SHR JUMP JUMPDEST PUSH1 0xD SSTORE PUSH1 0xE DUP1 SLOAD PUSH5 0xFFFFFFFFFF NOT AND PUSH5 0x202020202 OR SWAP1 DUP2 SWAP1 SSTORE PUSH3 0x15E SWAP1 PUSH1 0xFF PUSH5 0x100000000 DUP3 DIV DUP2 AND SWAP2 PUSH3 0xE7 SWAP2 PUSH4 0x1000000 DUP3 DIV DUP2 AND SWAP2 DUP4 SWAP2 PUSH3 0x10000 DUP3 DIV DUP2 AND SWAP2 DUP4 SWAP2 PUSH1 0x2 SWAP2 PUSH2 0x100 SWAP1 DIV AND PUSH3 0xDE3 PUSH1 0x20 SWAP1 DUP2 SHL PUSH3 0x16F9 OR SWAP1 SHR JUMP JUMPDEST PUSH1 0xF SSTORE PUSH1 0x10 DUP1 SLOAD PUSH1 0x1 PUSH1 0x1 PUSH1 0xA0 SHL SUB NOT SWAP1 DUP2 AND PUSH20 0x3B31F5CC5136F859C8C74EC1BF8275A51709952B OR SWAP1 SWAP2 SSTORE PUSH1 0x11 DUP1 SLOAD DUP3 AND PUSH20 0x19D3AE69B2170E9F37E3090D08A13FB2F2F2BE21 OR SWAP1 SSTORE PUSH1 0x12 DUP1 SLOAD DUP3 AND PUSH20 0x7B85CC48CAE1EEAE0C533D717DECAEA8D418D1D3 OR SWAP1 SSTORE PUSH1 0x13 DUP1 SLOAD DUP3 AND PUSH20 0x8D8A151ACB9B7556497C27A13BB454299333ABB6 OR SWAP1 SSTORE PUSH1 0x14 DUP1 SLOAD SWAP1 SWAP2 AND PUSH20 0x1B4340F1E1E19C794AE532BE142AD1327C9C4654 OR SWAP1 SSTORE PUSH1 0x16 DUP1 SLOAD PUSH1 0xFF PUSH1 0xA0 SHL NOT AND PUSH1 0x1 PUSH1 0xA0 SHL OR SWAP1 SSTORE PUSH3 0x24E PUSH1 0x64 PUSH3 0x22A PUSH1 0x6 PUSH1 0xA PUSH3 0x111D JUMP JUMPDEST PUSH3 0x23A SWAP1 PUSH4 0x77359400 PUSH3 0x11DC JUMP JUMPDEST PUSH3 0xE53 PUSH1 0x20 SHL PUSH3 0x1758 OR SWAP1 SWAP2 SWAP1 PUSH1 0x20 SHR JUMP JUMPDEST PUSH1 0x17 SSTORE CALLVALUE DUP1 ISZERO PUSH3 0x25E JUMPI PUSH1 0x0 DUP1 REVERT JUMPDEST POP PUSH1 0x0 DUP1 SLOAD PUSH1 0x1 PUSH1 0x1 PUSH1 0xA0 SHL SUB NOT AND CALLER SWAP1 DUP2 OR DUP3 SSTORE PUSH1 0x40 MLOAD SWAP1 SWAP2 DUP3 SWAP2 PUSH32 0x8BE0079C531659141344CD1FD0A4F28419497F9722A3DAAFE3B4186F6B6457E0 SWAP1 DUP3 SWAP1 LOG3 POP PUSH1 0x15 DUP1 SLOAD PUSH1 0x1 PUSH1 0x1 PUSH1 0xA0 SHL SUB NOT AND PUSH20 0xA5E0829CACED8FFDD4DE3C43696C57F7D7A678FF SWAP1 DUP2 OR SWAP1 SWAP2 SSTORE PUSH1 0x40 DUP1 MLOAD PUSH4 0xC45A0155 PUSH1 0xE0 SHL DUP2 MSTORE SWAP1 MLOAD PUSH4 0xC45A0155 SWAP2 PUSH1 0x4 DUP1 DUP3 ADD SWAP3 PUSH1 0x20 SWAP3 SWAP1 SWAP2 SWAP1 DUP3 SWAP1 SUB ADD DUP2 DUP7 DUP1 EXTCODESIZE ISZERO DUP1 ISZERO PUSH3 0x300 JUMPI PUSH1 0x0 DUP1 REVERT JUMPDEST POP GAS STATICCALL ISZERO DUP1 ISZERO PUSH3 0x315 JUMPI RETURNDATASIZE PUSH1 0x0 DUP1 RETURNDATACOPY RETURNDATASIZE PUSH1 0x0 REVERT JUMPDEST POP POP POP POP PUSH1 0x40 MLOAD RETURNDATASIZE PUSH1 0x1F NOT PUSH1 0x1F DUP3 ADD AND DUP3 ADD DUP1 PUSH1 0x40 MSTORE POP DUP2 ADD SWAP1 PUSH3 0x33B SWAP2 SWAP1 PUSH3 0x100A JUMP JUMPDEST PUSH1 0x40 MLOAD PUSH4 0x64E329CB PUSH1 0xE1 SHL DUP2 MSTORE ADDRESS PUSH1 0x4 DUP3 ADD MSTORE PUSH19 0xD06725663411E6D4599F0B630AB003D4290EBA PUSH1 0x24 DUP3 ADD MSTORE PUSH1 0x1 PUSH1 0x1 PUSH1 0xA0 SHL SUB SWAP2 SWAP1 SWAP2 AND SWAP1 PUSH4 0xC9C65396 SWAP1 PUSH1 0x44 ADD PUSH1 0x20 PUSH1 0x40 MLOAD DUP1 DUP4 SUB DUP2 PUSH1 0x0 DUP8 DUP1 EXTCODESIZE ISZERO DUP1 ISZERO PUSH3 0x398 JUMPI PUSH1 0x0 DUP1 REVERT JUMPDEST POP GAS CALL ISZERO DUP1 ISZERO PUSH3 0x3AD JUMPI RETURNDATASIZE PUSH1 0x0 DUP1 RETURNDATACOPY RETURNDATASIZE PUSH1 0x0 REVERT JUMPDEST POP POP POP POP PUSH1 0x40 MLOAD RETURNDATASIZE PUSH1 0x1F NOT PUSH1 0x1F DUP3 ADD AND DUP3 ADD DUP1 PUSH1 0x40 MSTORE POP DUP2 ADD SWAP1 PUSH3 0x3D3 SWAP2 SWAP1 PUSH3 0x100A JUMP JUMPDEST PUSH1 0x16 DUP1 SLOAD PUSH1 0x1 PUSH1 0x1 PUSH1 0xA0 SHL SUB NOT AND PUSH1 0x1 PUSH1 0x1 PUSH1 0xA0 SHL SUB SWAP3 SWAP1 SWAP3 AND SWAP2 SWAP1 SWAP2 OR SWAP1 SSTORE PUSH1 0x40 MLOAD PUSH3 0x401 SWAP1 PUSH3 0xFE0 JUMP JUMPDEST PUSH1 0x40 MLOAD DUP1 SWAP2 SUB SWAP1 PUSH1 0x0 CREATE DUP1 ISZERO DUP1 ISZERO PUSH3 0x41E JUMPI RETURNDATASIZE PUSH1 0x0 DUP1 RETURNDATACOPY RETURNDATASIZE PUSH1 0x0 REVERT JUMPDEST POP PUSH1 0x3 DUP1 SLOAD PUSH1 0x1 PUSH1 0x1 PUSH1 0xA0 SHL SUB NOT AND PUSH1 0x1 PUSH1 0x1 PUSH1 0xA0 SHL SUB SWAP3 SWAP1 SWAP3 AND SWAP2 SWAP1 SWAP2 OR SWAP1 SSTORE PUSH3 0x447 CALLER SWAP1 JUMP JUMPDEST ADDRESS PUSH1 0x40 MLOAD PUSH3 0x456 SWAP1 PUSH3 0xFEE JUMP JUMPDEST PUSH1 0x1 PUSH1 0x1 PUSH1 0xA0 SHL SUB SWAP3 DUP4 AND DUP2 MSTORE SWAP2 AND PUSH1 0x20 DUP3 ADD MSTORE PUSH1 0x40 ADD PUSH1 0x40 MLOAD DUP1 SWAP2 SUB SWAP1 PUSH1 0x0 CREATE DUP1 ISZERO DUP1 ISZERO PUSH3 0x48A JUMPI RETURNDATASIZE PUSH1 0x0 DUP1 RETURNDATACOPY RETURNDATASIZE PUSH1 0x0 REVERT JUMPDEST POP PUSH1 0x4 DUP1 SLOAD PUSH1 0x1 PUSH1 0x1 PUSH1 0xA0 SHL SUB NOT AND PUSH1 0x1 PUSH1 0x1 PUSH1 0xA0 SHL SUB SWAP3 SWAP1 SWAP3 AND SWAP2 SWAP1 SWAP2 OR SWAP1 SSTORE PUSH3 0x4B3 CALLER SWAP1 JUMP JUMPDEST PUSH1 0x40 MLOAD PUSH3 0x4C1 SWAP1 PUSH3 0xFFC JUMP JUMPDEST PUSH1 0x1 PUSH1 0x1 PUSH1 0xA0 SHL SUB SWAP1 SWAP2 AND DUP2 MSTORE PUSH1 0x20 ADD PUSH1 0x40 MLOAD DUP1 SWAP2 SUB SWAP1 PUSH1 0x0 CREATE DUP1 ISZERO DUP1 ISZERO PUSH3 0x4EE JUMPI RETURNDATASIZE PUSH1 0x0 DUP1 RETURNDATACOPY RETURNDATASIZE PUSH1 0x0 REVERT JUMPDEST POP PUSH1 0x5 DUP1 SLOAD PUSH1 0x1 PUSH1 0x1 PUSH1 0xA0 SHL SUB NOT SWAP1 DUP2 AND PUSH1 0x1 PUSH1 0x1 PUSH1 0xA0 SHL SUB SWAP4 DUP5 AND OR DUP3 SSTORE PUSH1 0x0 DUP1 SLOAD DUP5 AND DUP2 MSTORE PUSH1 0x9 PUSH1 0x20 SWAP1 DUP2 MSTORE PUSH1 0x40 DUP1 DUP4 KECCAK256 DUP1 SLOAD PUSH1 0xFF NOT SWAP1 DUP2 AND PUSH1 0x1 SWAP1 DUP2 OR SWAP1 SWAP3 SSTORE ADDRESS DUP6 MSTORE DUP3 DUP6 KECCAK256 DUP1 SLOAD DUP3 AND DUP4 OR SWAP1 SSTORE PUSH1 0x3 SLOAD DUP9 AND DUP6 MSTORE DUP3 DUP6 KECCAK256 DUP1 SLOAD DUP3 AND DUP4 OR SWAP1 SSTORE PUSH1 0x4 DUP1 SLOAD DUP10 AND DUP7 MSTORE DUP4 DUP7 KECCAK256 DUP1 SLOAD DUP4 AND DUP5 OR SWAP1 SSTORE DUP8 SLOAD DUP10 AND DUP7 MSTORE DUP4 DUP7 KECCAK256 DUP1 SLOAD DUP4 AND DUP5 OR SWAP1 SSTORE PUSH1 0x10 SLOAD DUP10 AND DUP7 MSTORE DUP4 DUP7 KECCAK256 DUP1 SLOAD DUP4 AND DUP5 OR SWAP1 SSTORE PUSH1 0x11 SLOAD DUP10 AND DUP7 MSTORE DUP4 DUP7 KECCAK256 DUP1 SLOAD DUP4 AND DUP5 OR SWAP1 SSTORE PUSH32 0x46630D599EF2914C57EBCA729B78827C4FF29D701CE6701CCE1D0C414227A674 DUP1 SLOAD DUP4 AND DUP5 OR SWAP1 SSTORE PUSH1 0x16 DUP1 SLOAD DUP11 AND DUP8 MSTORE PUSH1 0xA SWAP6 DUP7 SWAP1 MSTORE DUP5 DUP8 KECCAK256 DUP1 SLOAD DUP5 AND DUP6 OR SWAP1 SSTORE SLOAD PUSH1 0xB DUP1 SLOAD DUP1 DUP7 ADD DUP3 SSTORE PUSH32 0x175B7A638427703F0DBE7BB9BBF987A2551717B34E79F33B5B1008D1FA01DB9 SWAP1 DUP2 ADD DUP1 SLOAD DUP12 AND SWAP4 DUP14 AND SWAP4 SWAP1 SWAP4 OR SWAP1 SWAP3 SSTORE DUP3 SLOAD DUP12 AND DUP9 MSTORE DUP6 DUP9 KECCAK256 DUP1 SLOAD DUP6 AND DUP7 OR SWAP1 SSTORE SWAP2 SLOAD DUP3 SLOAD DUP1 DUP7 ADD DUP5 SSTORE DUP3 ADD DUP1 SLOAD DUP11 AND SWAP2 DUP13 AND SWAP2 SWAP1 SWAP2 OR SWAP1 SSTORE DUP9 SLOAD DUP11 AND DUP8 MSTORE SWAP4 DUP7 KECCAK256 DUP1 SLOAD SWAP1 SWAP3 AND DUP4 OR SWAP1 SWAP2 SSTORE SWAP6 SLOAD DUP7 SLOAD SWAP2 DUP3 ADD DUP8 SSTORE SWAP6 DUP5 MSTORE ADD DUP1 SLOAD SWAP1 SWAP4 AND SWAP4 SWAP1 SWAP5 AND SWAP3 SWAP1 SWAP3 OR SWAP1 SSTORE SWAP1 PUSH3 0x6B0 SWAP1 PUSH3 0x683 SWAP1 PUSH1 0x6 SWAP1 PUSH3 0x111D JUMP JUMPDEST PUSH3 0x693 SWAP1 PUSH4 0x4C4B400 PUSH3 0x11DC JUMP JUMPDEST PUSH3 0x6A1 PUSH1 0x6 PUSH1 0xA PUSH3 0x111D JUMP JUMPDEST PUSH3 0xE7 SWAP1 PUSH3 0xF4240 PUSH3 0x11DC JUMP JUMPDEST PUSH1 0x5 DUP1 SLOAD PUSH1 0x1 PUSH1 0x1 PUSH1 0xA0 SHL SUB SWAP1 DUP2 AND PUSH1 0x0 SWAP1 DUP2 MSTORE PUSH1 0x7 PUSH1 0x20 MSTORE PUSH1 0x40 DUP1 DUP3 KECCAK256 DUP6 SWAP1 SSTORE SWAP3 SLOAD SWAP3 MLOAD SWAP4 SWAP5 POP SWAP2 AND SWAP2 PUSH1 0x0 DUP1 MLOAD PUSH1 0x20 PUSH3 0x92C9 DUP4 CODECOPY DUP2 MLOAD SWAP2 MSTORE SWAP1 PUSH3 0x6FA SWAP1 DUP6 DUP2 MSTORE PUSH1 0x20 ADD SWAP1 JUMP JUMPDEST PUSH1 0x40 MLOAD DUP1 SWAP2 SUB SWAP1 LOG3 PUSH1 0xD SLOAD PUSH1 0x4 DUP1 SLOAD PUSH1 0x1 PUSH1 0x1 PUSH1 0xA0 SHL SUB SWAP1 DUP2 AND PUSH1 0x0 SWAP1 DUP2 MSTORE PUSH1 0x7 PUSH1 0x20 SWAP1 DUP2 MSTORE PUSH1 0x40 DUP1 DUP4 KECCAK256 DUP7 SWAP1 SSTORE SWAP4 SLOAD SWAP4 MLOAD SWAP5 DUP6 MSTORE SWAP3 SWAP1 SWAP2 AND SWAP3 SWAP1 SWAP2 PUSH1 0x0 DUP1 MLOAD PUSH1 0x20 PUSH3 0x92C9 DUP4 CODECOPY DUP2 MLOAD SWAP2 MSTORE SWAP2 ADD PUSH1 0x40 MLOAD DUP1 SWAP2 SUB SWAP1 LOG3 PUSH1 0x0 PUSH3 0x7CF PUSH3 0x764 PUSH1 0x6 PUSH1 0xA PUSH3 0x111D JUMP JUMPDEST PUSH3 0x774 SWAP1 PUSH4 0x4C4B400 PUSH3 0x11DC JUMP JUMPDEST PUSH3 0x7BB PUSH3 0x786 PUSH1 0x6 PUSH1 0xA PUSH3 0x111D JUMP JUMPDEST PUSH3 0x795 SWAP1 PUSH3 0xF4240 PUSH3 0x11DC JUMP JUMPDEST PUSH1 0xD SLOAD PUSH3 0x7BB SWAP1 PUSH3 0x7AB PUSH1 0x6 PUSH1 0xA PUSH3 0x111D JUMP JUMPDEST PUSH3 0x7BB SWAP1 PUSH4 0x77359400 PUSH3 0x11DC JUMP JUMPDEST PUSH3 0xE9D PUSH1 0x20 SHL PUSH3 0x179A OR SWAP1 SWAP2 SWAP1 PUSH1 0x20 SHR JUMP JUMPDEST SWAP1 POP PUSH1 0x0 PUSH3 0x7EF DUP3 PUSH1 0xC SLOAD PUSH3 0xE53 PUSH1 0x20 SHL PUSH3 0x1758 OR SWAP1 SWAP2 SWAP1 PUSH1 0x20 SHR JUMP JUMPDEST SWAP1 POP PUSH3 0x80B DUP2 DUP4 PUSH3 0xEE7 PUSH1 0x20 SHL PUSH3 0x17DC OR SWAP1 SWAP2 SWAP1 PUSH1 0x20 SHR JUMP JUMPDEST CALLER PUSH1 0x0 DUP2 DUP2 MSTORE PUSH1 0x6 PUSH1 0x20 SWAP1 DUP2 MSTORE PUSH1 0x40 DUP1 DUP4 KECCAK256 SWAP5 SWAP1 SWAP5 SSTORE SWAP3 MLOAD DUP6 DUP2 MSTORE SWAP2 SWAP3 SWAP1 SWAP2 PUSH1 0x0 DUP1 MLOAD PUSH1 0x20 PUSH3 0x92C9 DUP4 CODECOPY DUP2 MLOAD SWAP2 MSTORE SWAP2 ADD PUSH1 0x40 MLOAD DUP1 SWAP2 SUB SWAP1 LOG3 PUSH1 0x5 SLOAD PUSH1 0x1 PUSH1 0x1 PUSH1 0xA0 SHL SUB AND PUSH4 0x3CA85228 PUSH1 0x64 PUSH20 0x3292114A1527656D56A6AC914A7C6E1AFC6ECAE0 ADDRESS PUSH3 0x87B PUSH1 0x6 PUSH1 0xA PUSH3 0x111D JUMP JUMPDEST PUSH3 0x88A SWAP1 PUSH3 0xF4240 PUSH3 0x11DC JUMP JUMPDEST PUSH3 0x898 PUSH1 0x6 PUSH1 0xA PUSH3 0x111D JUMP JUMPDEST PUSH3 0x8A7 SWAP1 PUSH3 0x7A120 PUSH3 0x11DC JUMP JUMPDEST PUSH3 0x8B5 PUSH1 0x6 PUSH1 0xA PUSH3 0x111D JUMP JUMPDEST PUSH3 0x8C4 SWAP1 PUSH3 0xF4240 PUSH3 0x11DC JUMP JUMPDEST PUSH19 0xD06725663411E6D4599F0B630AB003D4290EBA TIMESTAMP PUSH3 0x8E9 DUP2 PUSH4 0x12CD5480 PUSH3 0x10A2 JUMP JUMPDEST PUSH3 0x8F7 PUSH1 0x6 PUSH1 0xA PUSH3 0x111D JUMP JUMPDEST PUSH3 0x907 SWAP1 PUSH4 0x4C4B400 PUSH3 0x11DC JUMP JUMPDEST PUSH1 0x40 MLOAD PUSH1 0xE0 DUP13 SWAP1 SHL PUSH1 0x1 PUSH1 0x1 PUSH1 0xE0 SHL SUB NOT AND DUP2 MSTORE PUSH1 0x4 DUP2 ADD SWAP11 SWAP1 SWAP11 MSTORE PUSH1 0x1 PUSH1 0x1 PUSH1 0xA0 SHL SUB SWAP9 DUP10 AND PUSH1 0x24 DUP12 ADD MSTORE SWAP7 DUP9 AND PUSH1 0x44 DUP11 ADD MSTORE PUSH1 0x64 DUP10 ADD SWAP6 SWAP1 SWAP6 MSTORE PUSH1 0x84 DUP9 ADD SWAP4 SWAP1 SWAP4 MSTORE PUSH1 0xA4 DUP8 ADD SWAP2 SWAP1 SWAP2 MSTORE SWAP1 SWAP4 AND PUSH1 0xC4 DUP6 ADD MSTORE PUSH1 0xE4 DUP5 ADD SWAP3 SWAP1 SWAP3 MSTORE PUSH2 0x104 DUP4 ADD SWAP2 SWAP1 SWAP2 MSTORE PUSH2 0x124 DUP3 ADD MSTORE PUSH1 0x46 PUSH2 0x144 DUP3 ADD MSTORE PUSH1 0x0 PUSH2 0x164 DUP3 ADD MSTORE PUSH2 0x184 ADD PUSH1 0x0 PUSH1 0x40 MLOAD DUP1 DUP4 SUB DUP2 PUSH1 0x0 DUP8 DUP1 EXTCODESIZE ISZERO DUP1 ISZERO PUSH3 0x9A1 JUMPI PUSH1 0x0 DUP1 REVERT JUMPDEST POP GAS CALL ISZERO DUP1 ISZERO PUSH3 0x9B6 JUMPI RETURNDATASIZE PUSH1 0x0 DUP1 RETURNDATACOPY RETURNDATASIZE PUSH1 0x0 REVERT JUMPDEST POP POP PUSH1 0x4 SLOAD PUSH1 0x1 PUSH1 0x1 PUSH1 0xA0 SHL SUB AND SWAP2 POP PUSH4 0x3E34E66D SWAP1 POP PUSH3 0x9DB PUSH1 0x6 PUSH1 0xA PUSH3 0x111D JUMP JUMPDEST PUSH3 0x9EB SWAP1 PUSH4 0x23C34600 PUSH3 0x11DC JUMP JUMPDEST PUSH1 0x3 DUP1 SLOAD PUSH1 0x40 MLOAD PUSH1 0xE0 DUP6 SWAP1 SHL PUSH1 0x1 PUSH1 0x1 PUSH1 0xE0 SHL SUB NOT AND DUP2 MSTORE PUSH1 0x4 DUP2 ADD SWAP4 SWAP1 SWAP4 MSTORE PUSH1 0x2 PUSH1 0x24 DUP5 ADD MSTORE PUSH1 0x44 DUP4 ADD SWAP2 SWAP1 SWAP2 MSTORE TIMESTAMP PUSH1 0x64 DUP4 ADD MSTORE PUSH1 0x1 PUSH1 0x1 PUSH1 0xA0 SHL SUB AND PUSH1 0x84 DUP3 ADD MSTORE PUSH1 0x0 PUSH1 0xA4 DUP3 ADD MSTORE PUSH1 0xC4 ADD PUSH1 0x20 PUSH1 0x40 MLOAD DUP1 DUP4 SUB DUP2 PUSH1 0x0 DUP8 DUP1 EXTCODESIZE ISZERO DUP1 ISZERO PUSH3 0xA53 JUMPI PUSH1 0x0 DUP1 REVERT JUMPDEST POP GAS CALL ISZERO DUP1 ISZERO PUSH3 0xA68 JUMPI RETURNDATASIZE PUSH1 0x0 DUP1 RETURNDATACOPY RETURNDATASIZE PUSH1 0x0 REVERT JUMPDEST POP POP POP POP PUSH1 0x40 MLOAD RETURNDATASIZE PUSH1 0x1F NOT PUSH1 0x1F DUP3 ADD AND DUP3 ADD DUP1 PUSH1 0x40 MSTORE POP DUP2 ADD SWAP1 PUSH3 0xA8E SWAP2 SWAP1 PUSH3 0x1033 JUMP JUMPDEST POP PUSH1 0x4 SLOAD PUSH1 0x1 PUSH1 0x1 PUSH1 0xA0 SHL SUB AND PUSH4 0x3E34E66D PUSH3 0xAAE PUSH1 0x6 PUSH1 0xA PUSH3 0x111D JUMP JUMPDEST PUSH3 0xABE SWAP1 PUSH4 0xE4E1C00 PUSH3 0x11DC JUMP JUMPDEST PUSH1 0x10 SLOAD PUSH1 0x40 MLOAD PUSH1 0xE0 DUP5 SWAP1 SHL PUSH1 0x1 PUSH1 0x1 PUSH1 0xE0 SHL SUB NOT AND DUP2 MSTORE PUSH1 0x4 DUP2 ADD SWAP3 SWAP1 SWAP3 MSTORE PUSH1 0x2 PUSH1 0x24 DUP4 ADD MSTORE PUSH1 0xA PUSH1 0x44 DUP4 ADD MSTORE TIMESTAMP PUSH1 0x64 DUP4 ADD MSTORE PUSH1 0x1 PUSH1 0x1 PUSH1 0xA0 SHL SUB AND PUSH1 0x84 DUP3 ADD MSTORE PUSH1 0x0 PUSH1 0xA4 DUP3 ADD MSTORE PUSH1 0xC4 ADD PUSH1 0x20 PUSH1 0x40 MLOAD DUP1 DUP4 SUB DUP2 PUSH1 0x0 DUP8 DUP1 EXTCODESIZE ISZERO DUP1 ISZERO PUSH3 0xB24 JUMPI PUSH1 0x0 DUP1 REVERT JUMPDEST POP GAS CALL ISZERO DUP1 ISZERO PUSH3 0xB39 JUMPI RETURNDATASIZE PUSH1 0x0 DUP1 RETURNDATACOPY RETURNDATASIZE PUSH1 0x0 REVERT JUMPDEST POP POP POP POP PUSH1 0x40 MLOAD RETURNDATASIZE PUSH1 0x1F NOT PUSH1 0x1F DUP3 ADD AND DUP3 ADD DUP1 PUSH1 0x40 MSTORE POP DUP2 ADD SWAP1 PUSH3 0xB5F SWAP2 SWAP1 PUSH3 0x1033 JUMP JUMPDEST POP PUSH1 0x4 SLOAD PUSH1 0x1 PUSH1 0x1 PUSH1 0xA0 SHL SUB AND PUSH4 0x3E34E66D PUSH3 0xB7F PUSH1 0x6 PUSH1 0xA PUSH3 0x111D JUMP JUMPDEST PUSH3 0xB8F SWAP1 PUSH4 0x5F5E100 PUSH3 0x11DC JUMP JUMPDEST PUSH1 0x12 SLOAD PUSH1 0x40 MLOAD PUSH1 0xE0 DUP5 SWAP1 SHL PUSH1 0x1 PUSH1 0x1 PUSH1 0xE0 SHL SUB NOT AND DUP2 MSTORE PUSH1 0x4 DUP1 DUP3 ADD SWAP4 SWAP1 SWAP4 MSTORE PUSH1 0x24 DUP2 ADD SWAP3 SWAP1 SWAP3 MSTORE PUSH1 0x1E PUSH1 0x44 DUP4 ADD MSTORE TIMESTAMP PUSH1 0x64 DUP4 ADD MSTORE PUSH1 0x1 PUSH1 0x1 PUSH1 0xA0 SHL SUB AND PUSH1 0x84 DUP3 ADD MSTORE PUSH1 0x0 PUSH1 0xA4 DUP3 ADD MSTORE PUSH1 0xC4 ADD PUSH1 0x20 PUSH1 0x40 MLOAD DUP1 DUP4 SUB DUP2 PUSH1 0x0 DUP8 DUP1 EXTCODESIZE ISZERO DUP1 ISZERO PUSH3 0xBF7 JUMPI PUSH1 0x0 DUP1 REVERT JUMPDEST POP GAS CALL ISZERO DUP1 ISZERO PUSH3 0xC0C JUMPI RETURNDATASIZE PUSH1 0x0 DUP1 RETURNDATACOPY RETURNDATASIZE PUSH1 0x0 REVERT JUMPDEST POP POP POP POP PUSH1 0x40 MLOAD RETURNDATASIZE PUSH1 0x1F NOT PUSH1 0x1F DUP3 ADD AND DUP3 ADD DUP1 PUSH1 0x40 MSTORE POP DUP2 ADD SWAP1 PUSH3 0xC32 SWAP2 SWAP1 PUSH3 0x1033 JUMP JUMPDEST POP PUSH1 0x4 SLOAD PUSH1 0x1 PUSH1 0x1 PUSH1 0xA0 SHL SUB AND PUSH4 0x3E34E66D PUSH3 0xC52 PUSH1 0x6 PUSH1 0xA PUSH3 0x111D JUMP JUMPDEST PUSH3 0xC62 SWAP1 PUSH4 0x5F5E100 PUSH3 0x11DC JUMP JUMPDEST PUSH1 0x13 SLOAD PUSH1 0x40 MLOAD PUSH1 0xE0 DUP5 SWAP1 SHL PUSH1 0x1 PUSH1 0x1 PUSH1 0xE0 SHL SUB NOT AND DUP2 MSTORE PUSH1 0x4 DUP1 DUP3 ADD SWAP4 SWAP1 SWAP4 MSTORE PUSH1 0x24 DUP2 ADD SWAP3 SWAP1 SWAP3 MSTORE PUSH1 0x28 PUSH1 0x44 DUP4 ADD MSTORE TIMESTAMP PUSH1 0x64 DUP4 ADD MSTORE PUSH1 0x1 PUSH1 0x1 PUSH1 0xA0 SHL SUB AND PUSH1 0x84 DUP3 ADD MSTORE PUSH1 0x0 PUSH1 0xA4 DUP3 ADD MSTORE PUSH1 0xC4 ADD PUSH1 0x20 PUSH1 0x40 MLOAD DUP1 DUP4 SUB DUP2 PUSH1 0x0 DUP8 DUP1 EXTCODESIZE ISZERO DUP1 ISZERO PUSH3 0xCCA JUMPI PUSH1 0x0 DUP1 REVERT JUMPDEST POP GAS CALL ISZERO DUP1 ISZERO PUSH3 0xCDF JUMPI RETURNDATASIZE PUSH1 0x0 DUP1 RETURNDATACOPY RETURNDATASIZE PUSH1 0x0 REVERT JUMPDEST POP POP POP POP PUSH1 0x40 MLOAD RETURNDATASIZE PUSH1 0x1F NOT PUSH1 0x1F DUP3 ADD AND DUP3 ADD DUP1 PUSH1 0x40 MSTORE POP DUP2 ADD SWAP1 PUSH3 0xD05 SWAP2 SWAP1 PUSH3 0x1033 JUMP JUMPDEST POP PUSH1 0x4 SLOAD PUSH1 0x1 PUSH1 0x1 PUSH1 0xA0 SHL SUB AND PUSH4 0x3E34E66D PUSH3 0xD25 PUSH1 0x6 PUSH1 0xA PUSH3 0x111D JUMP JUMPDEST PUSH3 0xD35 SWAP1 PUSH4 0x1312D00 PUSH3 0x11DC JUMP JUMPDEST PUSH1 0x14 DUP1 SLOAD PUSH1 0x40 MLOAD PUSH1 0xE0 DUP6 SWAP1 SHL PUSH1 0x1 PUSH1 0x1 PUSH1 0xE0 SHL SUB NOT AND DUP2 MSTORE PUSH1 0x4 DUP2 ADD SWAP4 SWAP1 SWAP4 MSTORE PUSH1 0x24 DUP4 ADD SWAP2 SWAP1 SWAP2 MSTORE PUSH1 0x64 PUSH1 0x44 DUP4 ADD DUP2 SWAP1 MSTORE TIMESTAMP SWAP1 DUP4 ADD MSTORE PUSH1 0x1 PUSH1 0x1 PUSH1 0xA0 SHL SUB AND PUSH1 0x84 DUP3 ADD MSTORE PUSH1 0x0 PUSH1 0xA4 DUP3 ADD MSTORE PUSH1 0xC4 ADD PUSH1 0x20 PUSH1 0x40 MLOAD DUP1 DUP4 SUB DUP2 PUSH1 0x0 DUP8 DUP1 EXTCODESIZE ISZERO DUP1 ISZERO PUSH3 0xD9E JUMPI PUSH1 0x0 DUP1 REVERT JUMPDEST POP GAS CALL ISZERO DUP1 ISZERO PUSH3 0xDB3 JUMPI RETURNDATASIZE PUSH1 0x0 DUP1 RETURNDATACOPY RETURNDATASIZE PUSH1 0x0 REVERT JUMPDEST POP POP POP POP PUSH1 0x40 MLOAD RETURNDATASIZE PUSH1 0x1F NOT PUSH1 0x1F DUP3 ADD AND DUP3 ADD DUP1 PUSH1 0x40 MSTORE POP DUP2 ADD SWAP1 PUSH3 0xDD9 SWAP2 SWAP1 PUSH3 0x1033 JUMP JUMPDEST POP POP POP POP PUSH3 0x125B JUMP JUMPDEST PUSH1 0x0 DUP1 PUSH3 0xDF2 DUP4 DUP6 PUSH3 0x10A2 JUMP JUMPDEST SWAP1 POP DUP4 DUP2 LT ISZERO PUSH3 0xE4A JUMPI PUSH1 0x40 MLOAD PUSH3 0x461BCD PUSH1 0xE5 SHL DUP2 MSTORE PUSH1 0x20 PUSH1 0x4 DUP3 ADD MSTORE PUSH1 0x1B PUSH1 0x24 DUP3 ADD MSTORE PUSH32 0x536166654D6174683A206164646974696F6E206F766572666C6F770000000000 PUSH1 0x44 DUP3 ADD MSTORE PUSH1 0x64 ADD JUMPDEST PUSH1 0x40 MLOAD DUP1 SWAP2 SUB SWAP1 REVERT JUMPDEST SWAP1 POP JUMPDEST SWAP3 SWAP2 POP POP JUMP JUMPDEST PUSH1 0x0 PUSH3 0xE4A DUP4 DUP4 PUSH1 0x40 MLOAD DUP1 PUSH1 0x40 ADD PUSH1 0x40 MSTORE DUP1 PUSH1 0x1A DUP2 MSTORE PUSH1 0x20 ADD PUSH32 0x536166654D6174683A206469766973696F6E206279207A65726F000000000000 DUP2 MSTORE POP PUSH3 0xF6E PUSH1 0x20 SHL PUSH1 0x20 SHR JUMP JUMPDEST PUSH1 0x0 PUSH3 0xE4A DUP4 DUP4 PUSH1 0x40 MLOAD DUP1 PUSH1 0x40 ADD PUSH1 0x40 MSTORE DUP1 PUSH1 0x1E DUP2 MSTORE PUSH1 0x20 ADD PUSH32 0x536166654D6174683A207375627472616374696F6E206F766572666C6F770000 DUP2 MSTORE POP PUSH3 0xFAA PUSH1 0x20 SHL PUSH1 0x20 SHR JUMP JUMPDEST PUSH1 0x0 DUP3 PUSH3 0xEF8 JUMPI POP PUSH1 0x0 PUSH3 0xE4D JUMP JUMPDEST PUSH1 0x0 PUSH3 0xF06 DUP4 DUP6 PUSH3 0x11DC JUMP JUMPDEST SWAP1 POP DUP3 PUSH3 0xF15 DUP6 DUP4 PUSH3 0x10BD JUMP JUMPDEST EQ PUSH3 0xE4A JUMPI PUSH1 0x40 MLOAD PUSH3 0x461BCD PUSH1 0xE5 SHL DUP2 MSTORE PUSH1 0x20 PUSH1 0x4 DUP3 ADD MSTORE PUSH1 0x21 PUSH1 0x24 DUP3 ADD MSTORE PUSH32 0x536166654D6174683A206D756C7469706C69636174696F6E206F766572666C6F PUSH1 0x44 DUP3 ADD MSTORE PUSH1 0x77 PUSH1 0xF8 SHL PUSH1 0x64 DUP3 ADD MSTORE PUSH1 0x84 ADD PUSH3 0xE41 JUMP JUMPDEST PUSH1 0x0 DUP2 DUP4 PUSH3 0xF92 JUMPI PUSH1 0x40 MLOAD PUSH3 0x461BCD PUSH1 0xE5 SHL DUP2 MSTORE PUSH1 0x4 ADD PUSH3 0xE41 SWAP2 SWAP1 PUSH3 0x104C JUMP JUMPDEST POP PUSH1 0x0 PUSH3 0xFA1 DUP5 DUP7 PUSH3 0x10BD JUMP JUMPDEST SWAP6 SWAP5 POP POP POP POP POP JUMP JUMPDEST PUSH1 0x0 DUP2 DUP5 DUP5 GT ISZERO PUSH3 0xFD1 JUMPI PUSH1 0x40 MLOAD PUSH3 0x461BCD PUSH1 0xE5 SHL DUP2 MSTORE PUSH1 0x4 ADD PUSH3 0xE41 SWAP2 SWAP1 PUSH3 0x104C JUMP JUMPDEST POP PUSH1 0x0 PUSH3 0xFA1 DUP5 DUP7 PUSH3 0x11FE JUMP JUMPDEST PUSH2 0xED0 DUP1 PUSH3 0x3D17 DUP4 CODECOPY ADD SWAP1 JUMP JUMPDEST PUSH2 0x19AF DUP1 PUSH3 0x4BE7 DUP4 CODECOPY ADD SWAP1 JUMP JUMPDEST PUSH2 0x2D33 DUP1 PUSH3 0x6596 DUP4 CODECOPY ADD SWAP1 JUMP JUMPDEST PUSH1 0x0 PUSH1 0x20 DUP3 DUP5 SUB SLT ISZERO PUSH3 0x101C JUMPI DUP1 DUP2 REVERT JUMPDEST DUP2 MLOAD PUSH1 0x1 PUSH1 0x1 PUSH1 0xA0 SHL SUB DUP2 AND DUP2 EQ PUSH3 0xE4A JUMPI DUP2 DUP3 REVERT JUMPDEST PUSH1 0x0 PUSH1 0x20 DUP3 DUP5 SUB SLT ISZERO PUSH3 0x1045 JUMPI DUP1 DUP2 REVERT JUMPDEST POP MLOAD SWAP2 SWAP1 POP JUMP JUMPDEST PUSH1 0x0 PUSH1 0x20 DUP1 DUP4 MSTORE DUP4 MLOAD DUP1 DUP3 DUP6 ADD MSTORE DUP3 JUMPDEST DUP2 DUP2 LT ISZERO PUSH3 0x107A JUMPI DUP6 DUP2 ADD DUP4 ADD MLOAD DUP6 DUP3 ADD PUSH1 0x40 ADD MSTORE DUP3 ADD PUSH3 0x105C JUMP JUMPDEST DUP2 DUP2 GT ISZERO PUSH3 0x108C JUMPI DUP4 PUSH1 0x40 DUP4 DUP8 ADD ADD MSTORE JUMPDEST POP PUSH1 0x1F ADD PUSH1 0x1F NOT AND SWAP3 SWAP1 SWAP3 ADD PUSH1 0x40 ADD SWAP4 SWAP3 POP POP POP JUMP JUMPDEST PUSH1 0x0 DUP3 NOT DUP3 GT ISZERO PUSH3 0x10B8 JUMPI PUSH3 0x10B8 PUSH3 0x122F JUMP JUMPDEST POP ADD SWAP1 JUMP JUMPDEST PUSH1 0x0 DUP3 PUSH3 0x10CF JUMPI PUSH3 0x10CF PUSH3 0x1245 JUMP JUMPDEST POP DIV SWAP1 JUMP JUMPDEST PUSH1 0x1 DUP2 DUP2 JUMPDEST DUP1 DUP6 GT ISZERO PUSH3 0x1115 JUMPI DUP2 PUSH1 0x0 NOT DIV DUP3 GT ISZERO PUSH3 0x10F9 JUMPI PUSH3 0x10F9 PUSH3 0x122F JUMP JUMPDEST DUP1 DUP6 AND ISZERO PUSH3 0x1107 JUMPI SWAP2 DUP2 MUL SWAP2 JUMPDEST SWAP4 DUP5 SHR SWAP4 SWAP1 DUP1 MUL SWAP1 PUSH3 0x10D9 JUMP JUMPDEST POP SWAP3 POP SWAP3 SWAP1 POP JUMP JUMPDEST PUSH1 0x0 PUSH3 0xE4A PUSH1 0xFF DUP5 AND DUP4 PUSH1 0x0 DUP3 PUSH3 0x1139 JUMPI POP PUSH1 0x1 PUSH3 0xE4D JUMP JUMPDEST DUP2 PUSH3 0x1148 JUMPI POP PUSH1 0x0 PUSH3 0xE4D JUMP JUMPDEST DUP2 PUSH1 0x1 DUP2 EQ PUSH3 0x1161 JUMPI PUSH1 0x2 DUP2 EQ PUSH3 0x116C JUMPI PUSH3 0x118C JUMP JUMPDEST PUSH1 0x1 SWAP2 POP POP PUSH3 0xE4D JUMP JUMPDEST PUSH1 0xFF DUP5 GT ISZERO PUSH3 0x1180 JUMPI PUSH3 0x1180 PUSH3 0x122F JUMP JUMPDEST POP POP PUSH1 0x1 DUP3 SHL PUSH3 0xE4D JUMP JUMPDEST POP PUSH1 0x20 DUP4 LT PUSH2 0x133 DUP4 LT AND PUSH1 0x4E DUP5 LT PUSH1 0xB DUP5 LT AND OR ISZERO PUSH3 0x11B1 JUMPI POP DUP2 DUP2 EXP PUSH3 0xE4D JUMP JUMPDEST PUSH3 0x11BD DUP4 DUP4 PUSH3 0x10D4 JUMP JUMPDEST DUP1 PUSH1 0x0 NOT DIV DUP3 GT ISZERO PUSH3 0x11D4 JUMPI PUSH3 0x11D4 PUSH3 0x122F JUMP JUMPDEST MUL SWAP4 SWAP3 POP POP POP JUMP JUMPDEST PUSH1 0x0 DUP2 PUSH1 0x0 NOT DIV DUP4 GT DUP3 ISZERO ISZERO AND ISZERO PUSH3 0x11F9 JUMPI PUSH3 0x11F9 PUSH3 0x122F JUMP JUMPDEST POP MUL SWAP1 JUMP JUMPDEST PUSH1 0x0 DUP3 DUP3 LT ISZERO PUSH3 0x1213 JUMPI PUSH3 0x1213 PUSH3 0x122F JUMP JUMPDEST POP SUB SWAP1 JUMP JUMPDEST PUSH1 0x0 DUP3 PUSH3 0x122A JUMPI PUSH3 0x122A PUSH3 0x1245 JUMP JUMPDEST POP MOD SWAP1 JUMP JUMPDEST PUSH4 0x4E487B71 PUSH1 0xE0 SHL PUSH1 0x0 MSTORE PUSH1 0x11 PUSH1 0x4 MSTORE PUSH1 0x24 PUSH1 0x0 REVERT JUMPDEST PUSH4 0x4E487B71 PUSH1 0xE0 SHL PUSH1 0x0 MSTORE PUSH1 0x12 PUSH1 0x4 MSTORE PUSH1 0x24 PUSH1 0x0 REVERT JUMPDEST PUSH2 0x2AAC DUP1 PUSH3 0x126B PUSH1 0x0 CODECOPY PUSH1 0x0 RETURN INVALID PUSH1 0x80 PUSH1 0x40 MSTORE PUSH1 0x4 CALLDATASIZE LT PUSH2 0x2E8 JUMPI PUSH1 0x0 CALLDATALOAD PUSH1 0xE0 SHR DUP1 PUSH4 0x83AD7994 GT PUSH2 0x190 JUMPI DUP1 PUSH4 0xC31C9C07 GT PUSH2 0xDC JUMPI DUP1 PUSH4 0xE0899A90 GT PUSH2 0x95 JUMPI DUP1 PUSH4 0xF2FDE38B GT PUSH2 0x6F JUMPI DUP1 PUSH4 0xF2FDE38B EQ PUSH2 0x955 JUMPI DUP1 PUSH4 0xFB75B2C7 EQ PUSH2 0x975 JUMPI DUP1 PUSH4 0xFCCC2813 EQ PUSH2 0x995 JUMPI DUP1 PUSH4 0xFCE589D8 EQ PUSH2 0x9BD JUMPI PUSH1 0x0 DUP1 REVERT JUMPDEST DUP1 PUSH4 0xE0899A90 EQ PUSH2 0x8DC JUMPI DUP1 PUSH4 0xE4419F61 EQ PUSH2 0x915 JUMPI DUP1 PUSH4 0xEA2F0B37 EQ PUSH2 0x935 JUMPI PUSH1 0x0 DUP1 REVERT JUMPDEST DUP1 PUSH4 0xC31C9C07 EQ PUSH2 0x7FF JUMPI DUP1 PUSH4 0xC4730D5D EQ PUSH2 0x81F JUMPI DUP1 PUSH4 0xC49B9A80 EQ PUSH2 0x835 JUMPI DUP1 PUSH4 0xCC32D176 EQ PUSH2 0x855 JUMPI DUP1 PUSH4 0xD543DBEB EQ PUSH2 0x876 JUMPI DUP1 PUSH4 0xDD62ED3E EQ PUSH2 0x896 JUMPI PUSH1 0x0 DUP1 REVERT JUMPDEST DUP1 PUSH4 0x8DA5CB5B GT PUSH2 0x149 JUMPI DUP1 PUSH4 0xA457C2D7 GT PUSH2 0x123 JUMPI DUP1 PUSH4 0xA457C2D7 EQ PUSH2 0x789 JUMPI DUP1 PUSH4 0xA5041BEB EQ PUSH2 0x7A9 JUMPI DUP1 PUSH4 0xA8602FEA EQ PUSH2 0x7BF JUMPI DUP1 PUSH4 0xA9059CBB EQ PUSH2 0x7DF JUMPI PUSH1 0x0 DUP1 REVERT JUMPDEST DUP1 PUSH4 0x8DA5CB5B EQ PUSH2 0x720 JUMPI DUP1 PUSH4 0x95D89B41 EQ PUSH2 0x73E JUMPI DUP1 PUSH4 0x98118CB4 EQ PUSH2 0x76A JUMPI PUSH1 0x0 DUP1 REVERT JUMPDEST DUP1 PUSH4 0x83AD7994 EQ PUSH2 0x659 JUMPI DUP1 PUSH4 0x88F82020 EQ PUSH2 0x673 JUMPI DUP1 PUSH4 0x89A30271 EQ PUSH2 0x6AC JUMPI DUP1 PUSH4 0x8B424267 EQ PUSH2 0x6D3 JUMPI DUP1 PUSH4 0x8C0B5E22 EQ PUSH2 0x6F5 JUMPI DUP1 PUSH4 0x8CF8F71D EQ PUSH2 0x70B JUMPI PUSH1 0x0 DUP1 REVERT JUMPDEST DUP1 PUSH4 0x4549B039 GT PUSH2 0x24F JUMPI DUP1 PUSH4 0x5BC05E9A GT PUSH2 0x208 JUMPI DUP1 PUSH4 0x715018A6 GT PUSH2 0x1E2 JUMPI DUP1 PUSH4 0x715018A6 EQ PUSH2 0x5EF JUMPI DUP1 PUSH4 0x75F0A874 EQ PUSH2 0x604 JUMPI DUP1 PUSH4 0x78A2E101 EQ PUSH2 0x624 JUMPI DUP1 PUSH4 0x81A0B3FF EQ PUSH2 0x639 JUMPI PUSH1 0x0 DUP1 REVERT JUMPDEST DUP1 PUSH4 0x5BC05E9A EQ PUSH2 0x58F JUMPI DUP1 PUSH4 0x6BCFF5B6 EQ PUSH2 0x5AF JUMPI DUP1 PUSH4 0x70A08231 EQ PUSH2 0x5CF JUMPI PUSH1 0x0 DUP1 REVERT JUMPDEST DUP1 PUSH4 0x4549B039 EQ PUSH2 0x4CE JUMPI DUP1 PUSH4 0x4626402B EQ PUSH2 0x4EE JUMPI DUP1 PUSH4 0x4A74BB02 EQ PUSH2 0x50E JUMPI DUP1 PUSH4 0x52390C02 EQ PUSH2 0x52F JUMPI DUP1 PUSH4 0x560AA498 EQ PUSH2 0x54F JUMPI DUP1 PUSH4 0x5958621E EQ PUSH2 0x56F JUMPI PUSH1 0x0 DUP1 REVERT JUMPDEST DUP1 PUSH4 0x2D838119 GT PUSH2 0x2A1 JUMPI DUP1 PUSH4 0x2D838119 EQ PUSH2 0x402 JUMPI DUP1 PUSH4 0x313CE567 EQ PUSH2 0x422 JUMPI DUP1 PUSH4 0x32FE7B26 EQ PUSH2 0x444 JUMPI DUP1 PUSH4 0x3685D419 EQ PUSH2 0x46C JUMPI DUP1 PUSH4 0x39509351 EQ PUSH2 0x48E JUMPI DUP1 PUSH4 0x437823EC EQ PUSH2 0x4AE JUMPI PUSH1 0x0 DUP1 REVERT JUMPDEST DUP1 PUSH4 0x6FDDE03 EQ PUSH2 0x2F4 JUMPI DUP1 PUSH4 0x95EA7B3 EQ PUSH2 0x337 JUMPI DUP1 PUSH4 0x18160DDD EQ PUSH2 0x367 JUMPI DUP1 PUSH4 0x23B872DD EQ PUSH2 0x38A JUMPI DUP1 PUSH4 0x2523FD57 EQ PUSH2 0x3AA JUMPI DUP1 PUSH4 0x26991CC8 EQ PUSH2 0x3E2 JUMPI PUSH1 0x0 DUP1 REVERT JUMPDEST CALLDATASIZE PUSH2 0x2EF JUMPI STOP JUMPDEST PUSH1 0x0 DUP1 REVERT JUMPDEST CALLVALUE DUP1 ISZERO PUSH2 0x300 JUMPI PUSH1 0x0 DUP1 REVERT JUMPDEST POP PUSH1 0x40 DUP1 MLOAD DUP1 DUP3 ADD SWAP1 SWAP2 MSTORE PUSH1 0x8 DUP2 MSTORE PUSH8 0x26B4B72A32B9BA19 PUSH1 0xC1 SHL PUSH1 0x20 DUP3 ADD MSTORE JUMPDEST PUSH1 0x40 MLOAD PUSH2 0x32E SWAP2 SWAP1 PUSH2 0x279D JUMP JUMPDEST PUSH1 0x40 MLOAD DUP1 SWAP2 SUB SWAP1 RETURN JUMPDEST CALLVALUE DUP1 ISZERO PUSH2 0x343 JUMPI PUSH1 0x0 DUP1 REVERT JUMPDEST POP PUSH2 0x357 PUSH2 0x352 CALLDATASIZE PUSH1 0x4 PUSH2 0x2664 JUMP JUMPDEST PUSH2 0x9DD JUMP JUMPDEST PUSH1 0x40 MLOAD SWAP1 ISZERO ISZERO DUP2 MSTORE PUSH1 0x20 ADD PUSH2 0x32E JUMP JUMPDEST CALLVALUE DUP1 ISZERO PUSH2 0x373 JUMPI PUSH1 0x0 DUP1 REVERT JUMPDEST POP PUSH2 0x37C PUSH2 0x9F4 JUMP JUMPDEST PUSH1 0x40 MLOAD SWAP1 DUP2 MSTORE PUSH1 0x20 ADD PUSH2 0x32E JUMP JUMPDEST CALLVALUE DUP1 ISZERO PUSH2 0x396 JUMPI PUSH1 0x0 DUP1 REVERT JUMPDEST POP PUSH2 0x357 PUSH2 0x3A5 CALLDATASIZE PUSH1 0x4 PUSH2 0x2629 JUMP JUMPDEST PUSH2 0xA15 JUMP JUMPDEST CALLVALUE DUP1 ISZERO PUSH2 0x3B6 JUMPI PUSH1 0x0 DUP1 REVERT JUMPDEST POP PUSH1 0x5 SLOAD PUSH2 0x3CA SWAP1 PUSH1 0x1 PUSH1 0x1 PUSH1 0xA0 SHL SUB AND DUP2 JUMP JUMPDEST PUSH1 0x40 MLOAD PUSH1 0x1 PUSH1 0x1 PUSH1 0xA0 SHL SUB SWAP1 SWAP2 AND DUP2 MSTORE PUSH1 0x20 ADD PUSH2 0x32E JUMP JUMPDEST CALLVALUE DUP1 ISZERO PUSH2 0x3EE JUMPI PUSH1 0x0 DUP1 REVERT JUMPDEST POP PUSH1 0x16 SLOAD PUSH2 0x3CA SWAP1 PUSH1 0x1 PUSH1 0x1 PUSH1 0xA0 SHL SUB AND DUP2 JUMP JUMPDEST CALLVALUE DUP1 ISZERO PUSH2 0x40E JUMPI PUSH1 0x0 DUP1 REVERT JUMPDEST POP PUSH2 0x37C PUSH2 0x41D CALLDATASIZE PUSH1 0x4 PUSH2 0x26C5 JUMP JUMPDEST PUSH2 0xA7E JUMP JUMPDEST CALLVALUE DUP1 ISZERO PUSH2 0x42E JUMPI PUSH1 0x0 DUP1 REVERT JUMPDEST POP PUSH1 0x6 JUMPDEST PUSH1 0x40 MLOAD PUSH1 0xFF SWAP1 SWAP2 AND DUP2 MSTORE PUSH1 0x20 ADD PUSH2 0x32E JUMP JUMPDEST CALLVALUE DUP1 ISZERO PUSH2 0x450 JUMPI PUSH1 0x0 DUP1 REVERT JUMPDEST POP PUSH2 0x3CA PUSH20 0xA5E0829CACED8FFDD4DE3C43696C57F7D7A678FF DUP2 JUMP JUMPDEST CALLVALUE DUP1 ISZERO PUSH2 0x478 JUMPI PUSH1 0x0 DUP1 REVERT JUMPDEST POP PUSH2 0x48C PUSH2 0x487 CALLDATASIZE PUSH1 0x4 PUSH2 0x25DD JUMP JUMPDEST PUSH2 0xB1A JUMP JUMPDEST STOP JUMPDEST CALLVALUE DUP1 ISZERO PUSH2 0x49A JUMPI PUSH1 0x0 DUP1 REVERT JUMPDEST POP PUSH2 0x357 PUSH2 0x4A9 CALLDATASIZE PUSH1 0x4 PUSH2 0x2664 JUMP JUMPDEST PUSH2 0xD51 JUMP JUMPDEST CALLVALUE DUP1 ISZERO PUSH2 0x4BA JUMPI PUSH1 0x0 DUP1 REVERT JUMPDEST POP PUSH2 0x48C PUSH2 0x4C9 CALLDATASIZE PUSH1 0x4 PUSH2 0x25DD JUMP JUMPDEST PUSH2 0xD87 JUMP JUMPDEST CALLVALUE DUP1 ISZERO PUSH2 0x4DA JUMPI PUSH1 0x0 DUP1 REVERT JUMPDEST POP PUSH2 0x37C PUSH2 0x4E9 CALLDATASIZE PUSH1 0x4 PUSH2 0x26DD JUMP JUMPDEST PUSH2 0xDFD JUMP JUMPDEST CALLVALUE DUP1 ISZERO PUSH2 0x4FA JUMPI PUSH1 0x0 DUP1 REVERT JUMPDEST POP PUSH1 0x10 SLOAD PUSH2 0x3CA SWAP1 PUSH1 0x1 PUSH1 0x1 PUSH1 0xA0 SHL SUB AND DUP2 JUMP JUMPDEST CALLVALUE DUP1 ISZERO PUSH2 0x51A JUMPI PUSH1 0x0 DUP1 REVERT JUMPDEST POP PUSH1 0x16 SLOAD PUSH2 0x357 SWAP1 PUSH1 0x1 PUSH1 0xA0 SHL SWAP1 DIV PUSH1 0xFF AND DUP2 JUMP JUMPDEST CALLVALUE DUP1 ISZERO PUSH2 0x53B JUMPI PUSH1 0x0 DUP1 REVERT JUMPDEST POP PUSH2 0x48C PUSH2 0x54A CALLDATASIZE PUSH1 0x4 PUSH2 0x25DD JUMP JUMPDEST PUSH2 0xE9F JUMP JUMPDEST CALLVALUE DUP1 ISZERO PUSH2 0x55B JUMPI PUSH1 0x0 DUP1 REVERT JUMPDEST POP PUSH1 0x4 SLOAD PUSH2 0x3CA SWAP1 PUSH1 0x1 PUSH1 0x1 PUSH1 0xA0 SHL SUB AND DUP2 JUMP JUMPDEST CALLVALUE DUP1 ISZERO PUSH2 0x57B JUMPI PUSH1 0x0 DUP1 REVERT JUMPDEST POP PUSH2 0x48C PUSH2 0x58A CALLDATASIZE PUSH1 0x4 PUSH2 0x25DD JUMP JUMPDEST PUSH2 0x102B JUMP JUMPDEST CALLVALUE DUP1 ISZERO PUSH2 0x59B JUMPI PUSH1 0x0 DUP1 REVERT JUMPDEST POP PUSH1 0x13 SLOAD PUSH2 0x3CA SWAP1 PUSH1 0x1 PUSH1 0x1 PUSH1 0xA0 SHL SUB AND DUP2 JUMP JUMPDEST CALLVALUE DUP1 ISZERO PUSH2 0x5BB JUMPI PUSH1 0x0 DUP1 REVERT JUMPDEST POP PUSH1 0x3 SLOAD PUSH2 0x3CA SWAP1 PUSH1 0x1 PUSH1 0x1 PUSH1 0xA0 SHL SUB AND DUP2 JUMP JUMPDEST CALLVALUE DUP1 ISZERO PUSH2 0x5DB JUMPI PUSH1 0x0 DUP1 REVERT JUMPDEST POP PUSH2 0x37C PUSH2 0x5EA CALLDATASIZE PUSH1 0x4 PUSH2 0x25DD JUMP JUMPDEST PUSH2 0x109D JUMP JUMPDEST CALLVALUE DUP1 ISZERO PUSH2 0x5FB JUMPI PUSH1 0x0 DUP1 REVERT JUMPDEST POP PUSH2 0x48C PUSH2 0x10FC JUMP JUMPDEST CALLVALUE DUP1 ISZERO PUSH2 0x610 JUMPI PUSH1 0x0 DUP1 REVERT JUMPDEST POP PUSH1 0x12 SLOAD PUSH2 0x3CA SWAP1 PUSH1 0x1 PUSH1 0x1 PUSH1 0xA0 SHL SUB AND DUP2 JUMP JUMPDEST CALLVALUE DUP1 ISZERO PUSH2 0x630 JUMPI PUSH1 0x0 DUP1 REVERT JUMPDEST POP PUSH2 0x37C PUSH2 0x1170 JUMP JUMPDEST CALLVALUE DUP1 ISZERO PUSH2 0x645 JUMPI PUSH1 0x0 DUP1 REVERT JUMPDEST POP PUSH1 0x14 SLOAD PUSH2 0x3CA SWAP1 PUSH1 0x1 PUSH1 0x1 PUSH1 0xA0 SHL SUB AND DUP2 JUMP JUMPDEST CALLVALUE DUP1 ISZERO PUSH2 0x665 JUMPI PUSH1 0x0 DUP1 REVERT JUMPDEST POP PUSH1 0xE SLOAD PUSH2 0x432 SWAP1 PUSH1 0xFF AND DUP2 JUMP JUMPDEST CALLVALUE DUP1 ISZERO PUSH2 0x67F JUMPI PUSH1 0x0 DUP1 REVERT JUMPDEST POP PUSH2 0x357 PUSH2 0x68E CALLDATASIZE PUSH1 0x4 PUSH2 0x25DD JUMP JUMPDEST PUSH1 0x1 PUSH1 0x1 PUSH1 0xA0 SHL SUB AND PUSH1 0x0 SWAP1 DUP2 MSTORE PUSH1 0xA PUSH1 0x20 MSTORE PUSH1 0x40 SWAP1 KECCAK256 SLOAD PUSH1 0xFF AND SWAP1 JUMP JUMPDEST CALLVALUE DUP1 ISZERO PUSH2 0x6B8 JUMPI PUSH1 0x0 DUP1 REVERT JUMPDEST POP PUSH2 0x3CA PUSH19 0xD06725663411E6D4599F0B630AB003D4290EBA DUP2 JUMP JUMPDEST CALLVALUE DUP1 ISZERO PUSH2 0x6DF JUMPI PUSH1 0x0 DUP1 REVERT JUMPDEST POP PUSH1 0xE SLOAD PUSH2 0x432 SWAP1 PUSH5 0x100000000 SWAP1 DIV PUSH1 0xFF AND DUP2 JUMP JUMPDEST CALLVALUE DUP1 ISZERO PUSH2 0x701 JUMPI PUSH1 0x0 DUP1 REVERT JUMPDEST POP PUSH2 0x37C PUSH1 0x17 SLOAD DUP2 JUMP JUMPDEST CALLVALUE DUP1 ISZERO PUSH2 0x717 JUMPI PUSH1 0x0 DUP1 REVERT JUMPDEST POP PUSH2 0x37C PUSH2 0x118C JUMP JUMPDEST CALLVALUE DUP1 ISZERO PUSH2 0x72C JUMPI PUSH1 0x0 DUP1 REVERT JUMPDEST POP PUSH1 0x0 SLOAD PUSH1 0x1 PUSH1 0x1 PUSH1 0xA0 SHL SUB AND PUSH2 0x3CA JUMP JUMPDEST CALLVALUE DUP1 ISZERO PUSH2 0x74A JUMPI PUSH1 0x0 DUP1 REVERT JUMPDEST POP PUSH1 0x40 DUP1 MLOAD DUP1 DUP3 ADD SWAP1 SWAP2 MSTORE PUSH1 0x3 DUP2 MSTORE PUSH3 0x26AA19 PUSH1 0xE9 SHL PUSH1 0x20 DUP3 ADD MSTORE PUSH2 0x321 JUMP JUMPDEST CALLVALUE DUP1 ISZERO PUSH2 0x776 JUMPI PUSH1 0x0 DUP1 REVERT JUMPDEST POP PUSH1 0xE SLOAD PUSH2 0x432 SWAP1 PUSH2 0x100 SWAP1 DIV PUSH1 0xFF AND DUP2 JUMP JUMPDEST CALLVALUE DUP1 ISZERO PUSH2 0x795 JUMPI PUSH1 0x0 DUP1 REVERT JUMPDEST POP PUSH2 0x357 PUSH2 0x7A4 CALLDATASIZE PUSH1 0x4 PUSH2 0x2664 JUMP JUMPDEST PUSH2 0x11A6 JUMP JUMPDEST CALLVALUE DUP1 ISZERO PUSH2 0x7B5 JUMPI PUSH1 0x0 DUP1 REVERT JUMPDEST POP PUSH2 0x37C PUSH1 0xF SLOAD DUP2 JUMP JUMPDEST CALLVALUE DUP1 ISZERO PUSH2 0x7CB JUMPI PUSH1 0x0 DUP1 REVERT JUMPDEST POP PUSH2 0x48C PUSH2 0x7DA CALLDATASIZE PUSH1 0x4 PUSH2 0x25DD JUMP JUMPDEST PUSH2 0x11F5 JUMP JUMPDEST CALLVALUE DUP1 ISZERO PUSH2 0x7EB JUMPI PUSH1 0x0 DUP1 REVERT JUMPDEST POP PUSH2 0x357 PUSH2 0x7FA CALLDATASIZE PUSH1 0x4 PUSH2 0x2664 JUMP JUMPDEST PUSH2 0x1267 JUMP JUMPDEST CALLVALUE DUP1 ISZERO PUSH2 0x80B JUMPI PUSH1 0x0 DUP1 REVERT JUMPDEST POP PUSH1 0x15 SLOAD PUSH2 0x3CA SWAP1 PUSH1 0x1 PUSH1 0x1 PUSH1 0xA0 SHL SUB AND DUP2 JUMP JUMPDEST CALLVALUE DUP1 ISZERO PUSH2 0x82B JUMPI PUSH1 0x0 DUP1 REVERT JUMPDEST POP PUSH2 0x37C PUSH1 0xD SLOAD DUP2 JUMP JUMPDEST CALLVALUE DUP1 ISZERO PUSH2 0x841 JUMPI PUSH1 0x0 DUP1 REVERT JUMPDEST POP PUSH2 0x48C PUSH2 0x850 CALLDATASIZE PUSH1 0x4 PUSH2 0x268D JUMP JUMPDEST PUSH2 0x1274 JUMP JUMPDEST CALLVALUE DUP1 ISZERO PUSH2 0x861 JUMPI PUSH1 0x0 DUP1 REVERT JUMPDEST POP PUSH1 0xE SLOAD PUSH2 0x432 SWAP1 PUSH4 0x1000000 SWAP1 DIV PUSH1 0xFF AND DUP2 JUMP JUMPDEST CALLVALUE DUP1 ISZERO PUSH2 0x882 JUMPI PUSH1 0x0 DUP1 REVERT JUMPDEST POP PUSH2 0x48C PUSH2 0x891 CALLDATASIZE PUSH1 0x4 PUSH2 0x26C5 JUMP JUMPDEST PUSH2 0x12F6 JUMP JUMPDEST CALLVALUE DUP1 ISZERO PUSH2 0x8A2 JUMPI PUSH1 0x0 DUP1 REVERT JUMPDEST POP PUSH2 0x37C PUSH2 0x8B1 CALLDATASIZE PUSH1 0x4 PUSH2 0x25F7 JUMP JUMPDEST PUSH1 0x1 PUSH1 0x1 PUSH1 0xA0 SHL SUB SWAP2 DUP3 AND PUSH1 0x0 SWAP1 DUP2 MSTORE PUSH1 0x8 PUSH1 0x20 SWAP1 DUP2 MSTORE PUSH1 0x40 DUP1 DUP4 KECCAK256 SWAP4 SWAP1 SWAP5 AND DUP3 MSTORE SWAP2 SWAP1 SWAP2 MSTORE KECCAK256 SLOAD SWAP1 JUMP JUMPDEST CALLVALUE DUP1 ISZERO PUSH2 0x8E8 JUMPI PUSH1 0x0 DUP1 REVERT JUMPDEST POP PUSH2 0x357 PUSH2 0x8F7 CALLDATASIZE PUSH1 0x4 PUSH2 0x25DD JUMP JUMPDEST PUSH1 0x1 PUSH1 0x1 PUSH1 0xA0 SHL SUB AND PUSH1 0x0 SWAP1 DUP2 MSTORE PUSH1 0x9 PUSH1 0x20 MSTORE PUSH1 0x40 SWAP1 KECCAK256 SLOAD PUSH1 0xFF AND SWAP1 JUMP JUMPDEST CALLVALUE DUP1 ISZERO PUSH2 0x921 JUMPI PUSH1 0x0 DUP1 REVERT JUMPDEST POP PUSH2 0x48C PUSH2 0x930 CALLDATASIZE PUSH1 0x4 PUSH2 0x2739 JUMP JUMPDEST PUSH2 0x13DF JUMP JUMPDEST CALLVALUE DUP1 ISZERO PUSH2 0x941 JUMPI PUSH1 0x0 DUP1 REVERT JUMPDEST POP PUSH2 0x48C PUSH2 0x950 CALLDATASIZE PUSH1 0x4 PUSH2 0x25DD JUMP JUMPDEST PUSH2 0x159C JUMP JUMPDEST CALLVALUE DUP1 ISZERO PUSH2 0x961 JUMPI PUSH1 0x0 DUP1 REVERT JUMPDEST POP PUSH2 0x48C PUSH2 0x970 CALLDATASIZE PUSH1 0x4 PUSH2 0x25DD JUMP JUMPDEST PUSH2 0x160F JUMP JUMPDEST CALLVALUE DUP1 ISZERO PUSH2 0x981 JUMPI PUSH1 0x0 DUP1 REVERT JUMPDEST POP PUSH1 0x11 SLOAD PUSH2 0x3CA SWAP1 PUSH1 0x1 PUSH1 0x1 PUSH1 0xA0 SHL SUB AND DUP2 JUMP JUMPDEST CALLVALUE DUP1 ISZERO PUSH2 0x9A1 JUMPI PUSH1 0x0 DUP1 REVERT JUMPDEST POP PUSH2 0x3CA PUSH20 0x3292114A1527656D56A6AC914A7C6E1AFC6ECAE0 DUP2 JUMP JUMPDEST CALLVALUE DUP1 ISZERO PUSH2 0x9C9 JUMPI PUSH1 0x0 DUP1 REVERT JUMPDEST POP PUSH1 0xE SLOAD PUSH2 0x432 SWAP1 PUSH3 0x10000 SWAP1 DIV PUSH1 0xFF AND DUP2 JUMP JUMPDEST PUSH1 0x0 PUSH2 0x9EA CALLER DUP5 DUP5 PUSH2 0x185B JUMP JUMPDEST POP PUSH1 0x1 JUMPDEST SWAP3 SWAP2 POP POP JUMP JUMPDEST PUSH1 0x0 PUSH2 0xA02 PUSH1 0x6 PUSH1 0xA PUSH2 0x28F6 JUMP JUMPDEST PUSH2 0xA10 SWAP1 PUSH4 0x77359400 PUSH2 0x29A1 JUMP JUMPDEST SWAP1 POP SWAP1 JUMP JUMPDEST PUSH1 0x0 PUSH2 0xA69 DUP5 CALLER PUSH2 0xA64 DUP6 PUSH1 0x40 MLOAD DUP1 PUSH1 0x60 ADD PUSH1 0x40 MSTORE DUP1 PUSH1 0x30 DUP2 MSTORE PUSH1 0x20 ADD PUSH2 0x2A47 PUSH1 0x30 SWAP2 CODECOPY PUSH1 0x1 PUSH1 0x1 PUSH1 0xA0 SHL SUB DUP11 AND PUSH1 0x0 SWAP1 DUP2 MSTORE PUSH1 0x8 PUSH1 0x20 SWAP1 DUP2 MSTORE PUSH1 0x40 DUP1 DUP4 KECCAK256 CALLER DUP5 MSTORE SWAP1 SWAP2 MSTORE SWAP1 KECCAK256 SLOAD SWAP2 SWAP1 PUSH2 0x199A JUMP JUMPDEST PUSH2 0x185B JUMP JUMPDEST PUSH2 0xA74 DUP5 DUP5 DUP5 PUSH2 0x19D4 JUMP JUMPDEST POP PUSH1 0x1 SWAP4 SWAP3 POP POP POP JUMP JUMPDEST PUSH1 0x0 PUSH1 0xC SLOAD DUP3 GT ISZERO PUSH2 0xAFD JUMPI PUSH1 0x40 MLOAD PUSH3 0x461BCD PUSH1 0xE5 SHL DUP2 MSTORE PUSH1 0x20 PUSH1 0x4 DUP3 ADD MSTORE PUSH1 0x39 PUSH1 0x24 DUP3 ADD MSTORE PUSH32 0x4D696E6F72697479546F6B656E3A20416D6F756E74206D757374206265206C65 PUSH1 0x44 DUP3 ADD MSTORE PUSH32 0x7373207468616E20746F74616C207265666C656374696F6E7300000000000000 PUSH1 0x64 DUP3 ADD MSTORE PUSH1 0x84 ADD JUMPDEST PUSH1 0x40 MLOAD DUP1 SWAP2 SUB SWAP1 REVERT JUMPDEST PUSH1 0x0 PUSH2 0xB07 PUSH2 0x1E5C JUMP JUMPDEST SWAP1 POP PUSH2 0xB13 DUP4 DUP3 PUSH2 0x1758 JUMP JUMPDEST SWAP4 SWAP3 POP POP POP JUMP JUMPDEST PUSH1 0x0 SLOAD PUSH1 0x1 PUSH1 0x1 PUSH1 0xA0 SHL SUB AND CALLER EQ PUSH2 0xB44 JUMPI PUSH1 0x40 MLOAD PUSH3 0x461BCD PUSH1 0xE5 SHL DUP2 MSTORE PUSH1 0x4 ADD PUSH2 0xAF4 SWAP1 PUSH2 0x27F0 JUMP JUMPDEST PUSH1 0x1 PUSH1 0x1 PUSH1 0xA0 SHL SUB DUP2 AND PUSH1 0x0 SWAP1 DUP2 MSTORE PUSH1 0xA PUSH1 0x20 MSTORE PUSH1 0x40 SWAP1 KECCAK256 SLOAD PUSH1 0xFF AND PUSH2 0xBBF JUMPI PUSH1 0x40 MLOAD PUSH3 0x461BCD PUSH1 0xE5 SHL DUP2 MSTORE PUSH1 0x20 PUSH1 0x4 DUP3 ADD MSTORE PUSH1 0x2A PUSH1 0x24 DUP3 ADD MSTORE PUSH32 0x4D696E6F72697479546F6B656E3A204163636F756E7420697320616C72656164 PUSH1 0x44 DUP3 ADD MSTORE PUSH10 0x1E481A5B98DB1D591959 PUSH1 0xB2 SHL PUSH1 0x64 DUP3 ADD MSTORE PUSH1 0x84 ADD PUSH2 0xAF4 JUMP JUMPDEST PUSH1 0x0 JUMPDEST PUSH1 0xB SLOAD DUP2 LT ISZERO PUSH2 0xD19 JUMPI DUP2 PUSH1 0x1 PUSH1 0x1 PUSH1 0xA0 SHL SUB AND PUSH1 0xB DUP3 DUP2 SLOAD DUP2 LT PUSH2 0xBF7 JUMPI PUSH4 0x4E487B71 PUSH1 0xE0 SHL PUSH1 0x0 MSTORE PUSH1 0x32 PUSH1 0x4 MSTORE PUSH1 0x24 PUSH1 0x0 REVERT JUMPDEST PUSH1 0x0 SWAP2 DUP3 MSTORE PUSH1 0x20 SWAP1 SWAP2 KECCAK256 ADD SLOAD PUSH1 0x1 PUSH1 0x1 PUSH1 0xA0 SHL SUB AND EQ ISZERO PUSH2 0xD07 JUMPI PUSH1 0xB DUP1 SLOAD PUSH2 0xC22 SWAP1 PUSH1 0x1 SWAP1 PUSH2 0x29C0 JUMP JUMPDEST DUP2 SLOAD DUP2 LT PUSH2 0xC40 JUMPI PUSH4 0x4E487B71 PUSH1 0xE0 SHL PUSH1 0x0 MSTORE PUSH1 0x32 PUSH1 0x4 MSTORE PUSH1 0x24 PUSH1 0x0 REVERT JUMPDEST PUSH1 0x0 SWAP2 DUP3 MSTORE PUSH1 0x20 SWAP1 SWAP2 KECCAK256 ADD SLOAD PUSH1 0xB DUP1 SLOAD PUSH1 0x1 PUSH1 0x1 PUSH1 0xA0 SHL SUB SWAP1 SWAP3 AND SWAP2 DUP4 SWAP1 DUP2 LT PUSH2 0xC7A JUMPI PUSH4 0x4E487B71 PUSH1 0xE0 SHL PUSH1 0x0 MSTORE PUSH1 0x32 PUSH1 0x4 MSTORE PUSH1 0x24 PUSH1 0x0 REVERT JUMPDEST PUSH1 0x0 SWAP2 DUP3 MSTORE PUSH1 0x20 DUP1 DUP4 KECCAK256 SWAP2 SWAP1 SWAP2 ADD DUP1 SLOAD PUSH1 0x1 PUSH1 0x1 PUSH1 0xA0 SHL SUB NOT AND PUSH1 0x1 PUSH1 0x1 PUSH1 0xA0 SHL SUB SWAP5 DUP6 AND OR SWAP1 SSTORE SWAP2 DUP5 AND DUP2 MSTORE PUSH1 0x7 DUP3 MSTORE PUSH1 0x40 DUP1 DUP3 KECCAK256 DUP3 SWAP1 SSTORE PUSH1 0xA SWAP1 SWAP3 MSTORE KECCAK256 DUP1 SLOAD PUSH1 0xFF NOT AND SWAP1 SSTORE PUSH1 0xB DUP1 SLOAD DUP1 PUSH2 0xCE0 JUMPI PUSH4 0x4E487B71 PUSH1 0xE0 SHL PUSH1 0x0 MSTORE PUSH1 0x31 PUSH1 0x4 MSTORE PUSH1 0x24 PUSH1 0x0 REVERT JUMPDEST PUSH1 0x0 DUP3 DUP2 MSTORE PUSH1 0x20 SWAP1 KECCAK256 DUP2 ADD PUSH1 0x0 NOT SWAP1 DUP2 ADD DUP1 SLOAD PUSH1 0x1 PUSH1 0x1 PUSH1 0xA0 SHL SUB NOT AND SWAP1 SSTORE ADD SWAP1 SSTORE PUSH2 0xD19 JUMP JUMPDEST DUP1 PUSH2 0xD11 DUP2 PUSH2 0x29D7 JUMP JUMPDEST SWAP2 POP POP PUSH2 0xBC2 JUMP JUMPDEST POP PUSH1 0x40 MLOAD PUSH1 0x1 PUSH1 0x1 PUSH1 0xA0 SHL SUB DUP3 AND SWAP1 PUSH32 0x47AB6B2D1F416EDEC684889DC42CD04ED7CC6C6244EDAA04C4215E1077548614 SWAP1 PUSH1 0x0 SWAP1 LOG2 POP JUMP JUMPDEST CALLER PUSH1 0x0 DUP2 DUP2 MSTORE PUSH1 0x8 PUSH1 0x20 SWAP1 DUP2 MSTORE PUSH1 0x40 DUP1 DUP4 KECCAK256 PUSH1 0x1 PUSH1 0x1 PUSH1 0xA0 SHL SUB DUP8 AND DUP5 MSTORE SWAP1 SWAP2 MSTORE DUP2 KECCAK256 SLOAD SWAP1 SWAP2 PUSH2 0x9EA SWAP2 DUP6 SWAP1 PUSH2 0xA64 SWAP1 DUP7 PUSH2 0x16F9 JUMP JUMPDEST PUSH1 0x0 SLOAD PUSH1 0x1 PUSH1 0x1 PUSH1 0xA0 SHL SUB AND CALLER EQ PUSH2 0xDB1 JUMPI PUSH1 0x40 MLOAD PUSH3 0x461BCD PUSH1 0xE5 SHL DUP2 MSTORE PUSH1 0x4 ADD PUSH2 0xAF4 SWAP1 PUSH2 0x27F0 JUMP JUMPDEST PUSH1 0x1 PUSH1 0x1 PUSH1 0xA0 SHL SUB DUP2 AND PUSH1 0x0 DUP2 DUP2 MSTORE PUSH1 0x9 PUSH1 0x20 MSTORE PUSH1 0x40 DUP1 DUP3 KECCAK256 DUP1 SLOAD PUSH1 0xFF NOT AND PUSH1 0x1 OR SWAP1 SSTORE MLOAD PUSH32 0xF1D6512EC7550BF605A5A38910E48FB6A57938ED74A5AFA01753FA023001005C SWAP2 SWAP1 LOG2 POP JUMP JUMPDEST PUSH1 0x0 PUSH2 0xE0B PUSH1 0x6 PUSH1 0xA PUSH2 0x28F6 JUMP JUMPDEST PUSH2 0xE19 SWAP1 PUSH4 0x77359400 PUSH2 0x29A1 JUMP JUMPDEST DUP4 GT ISZERO PUSH2 0xE68 JUMPI PUSH1 0x40 MLOAD PUSH3 0x461BCD PUSH1 0xE5 SHL DUP2 MSTORE PUSH1 0x20 PUSH1 0x4 DUP3 ADD MSTORE PUSH1 0x1F PUSH1 0x24 DUP3 ADD MSTORE PUSH32 0x416D6F756E74206D757374206265206C657373207468616E20737570706C7900 PUSH1 0x44 DUP3 ADD MSTORE PUSH1 0x64 ADD PUSH2 0xAF4 JUMP JUMPDEST DUP2 PUSH2 0xE86 JUMPI PUSH1 0x0 PUSH2 0xE78 DUP5 PUSH2 0x1E7F JUMP JUMPDEST POP SWAP3 SWAP5 POP PUSH2 0x9EE SWAP4 POP POP POP POP JUMP JUMPDEST PUSH1 0x0 PUSH2 0xE91 DUP5 PUSH2 0x1E7F JUMP JUMPDEST POP SWAP2 SWAP5 POP PUSH2 0x9EE SWAP4 POP POP POP POP JUMP JUMPDEST PUSH1 0x0 SLOAD PUSH1 0x1 PUSH1 0x1 PUSH1 0xA0 SHL SUB AND CALLER EQ PUSH2 0xEC9 JUMPI PUSH1 0x40 MLOAD PUSH3 0x461BCD PUSH1 0xE5 SHL DUP2 MSTORE PUSH1 0x4 ADD PUSH2 0xAF4 SWAP1 PUSH2 0x27F0 JUMP JUMPDEST PUSH1 0x1 PUSH1 0x1 PUSH1 0xA0 SHL SUB DUP2 AND PUSH1 0x0 SWAP1 DUP2 MSTORE PUSH1 0xA PUSH1 0x20 MSTORE PUSH1 0x40 SWAP1 KECCAK256 SLOAD PUSH1 0xFF AND ISZERO PUSH2 0xF45 JUMPI PUSH1 0x40 MLOAD PUSH3 0x461BCD PUSH1 0xE5 SHL DUP2 MSTORE PUSH1 0x20 PUSH1 0x4 DUP3 ADD MSTORE PUSH1 0x2A PUSH1 0x24 DUP3 ADD MSTORE PUSH32 0x4D696E6F72697479546F6B656E3A204163636F756E7420697320616C72656164 PUSH1 0x44 DUP3 ADD MSTORE PUSH10 0x1E48195E18DB1D591959 PUSH1 0xB2 SHL PUSH1 0x64 DUP3 ADD MSTORE PUSH1 0x84 ADD PUSH2 0xAF4 JUMP JUMPDEST PUSH1 0x1 PUSH1 0x1 PUSH1 0xA0 SHL SUB DUP2 AND PUSH1 0x0 SWAP1 DUP2 MSTORE PUSH1 0x6 PUSH1 0x20 MSTORE PUSH1 0x40 SWAP1 KECCAK256 SLOAD ISZERO PUSH2 0xF9F JUMPI PUSH1 0x1 PUSH1 0x1 PUSH1 0xA0 SHL SUB DUP2 AND PUSH1 0x0 SWAP1 DUP2 MSTORE PUSH1 0x6 PUSH1 0x20 MSTORE PUSH1 0x40 SWAP1 KECCAK256 SLOAD PUSH2 0xF85 SWAP1 PUSH2 0xA7E JUMP JUMPDEST PUSH1 0x1 PUSH1 0x1 PUSH1 0xA0 SHL SUB DUP3 AND PUSH1 0x0 SWAP1 DUP2 MSTORE PUSH1 0x7 PUSH1 0x20 MSTORE PUSH1 0x40 SWAP1 KECCAK256 SSTORE JUMPDEST PUSH1 0x1 PUSH1 0x1 PUSH1 0xA0 SHL SUB DUP2 AND PUSH1 0x0 DUP2 DUP2 MSTORE PUSH1 0xA PUSH1 0x20 MSTORE PUSH1 0x40 DUP1 DUP3 KECCAK256 DUP1 SLOAD PUSH1 0xFF NOT AND PUSH1 0x1 SWAP1 DUP2 OR SWAP1 SWAP2 SSTORE PUSH1 0xB DUP1 SLOAD SWAP2 DUP3 ADD DUP2 SSTORE DUP4 MSTORE PUSH32 0x175B7A638427703F0DBE7BB9BBF987A2551717B34E79F33B5B1008D1FA01DB9 ADD DUP1 SLOAD PUSH1 0x1 PUSH1 0x1 PUSH1 0xA0 SHL SUB NOT AND DUP5 OR SWAP1 SSTORE MLOAD PUSH32 0x110B1FBED46DEC7BC9019C3FBA97541A3D64821A824872BB7B2AD678490855BF SWAP2 SWAP1 LOG2 POP JUMP JUMPDEST PUSH1 0x0 SLOAD PUSH1 0x1 PUSH1 0x1 PUSH1 0xA0 SHL SUB AND CALLER EQ PUSH2 0x1055 JUMPI PUSH1 0x40 MLOAD PUSH3 0x461BCD PUSH1 0xE5 SHL DUP2 MSTORE PUSH1 0x4 ADD PUSH2 0xAF4 SWAP1 PUSH2 0x27F0 JUMP JUMPDEST PUSH1 0x1 PUSH1 0x1 PUSH1 0xA0 SHL SUB DUP2 AND PUSH2 0x107B JUMPI PUSH1 0x40 MLOAD PUSH3 0x461BCD PUSH1 0xE5 SHL DUP2 MSTORE PUSH1 0x4 ADD PUSH2 0xAF4 SWAP1 PUSH2 0x2825 JUMP JUMPDEST PUSH1 0x11 DUP1 SLOAD PUSH1 0x1 PUSH1 0x1 PUSH1 0xA0 SHL SUB NOT AND PUSH1 0x1 PUSH1 0x1 PUSH1 0xA0 SHL SUB SWAP3 SWAP1 SWAP3 AND SWAP2 SWAP1 SWAP2 OR SWAP1 SSTORE JUMP JUMPDEST PUSH1 0x1 PUSH1 0x1 PUSH1 0xA0 SHL SUB DUP2 AND PUSH1 0x0 SWAP1 DUP2 MSTORE PUSH1 0xA PUSH1 0x20 MSTORE PUSH1 0x40 DUP2 KECCAK256 SLOAD PUSH1 0xFF AND ISZERO PUSH2 0x10DA JUMPI POP PUSH1 0x1 PUSH1 0x1 PUSH1 0xA0 SHL SUB AND PUSH1 0x0 SWAP1 DUP2 MSTORE PUSH1 0x7 PUSH1 0x20 MSTORE PUSH1 0x40 SWAP1 KECCAK256 SLOAD SWAP1 JUMP JUMPDEST PUSH1 0x1 PUSH1 0x1 PUSH1 0xA0 SHL SUB DUP3 AND PUSH1 0x0 SWAP1 DUP2 MSTORE PUSH1 0x6 PUSH1 0x20 MSTORE PUSH1 0x40 SWAP1 KECCAK256 SLOAD PUSH2 0x9EE SWAP1 PUSH2 0xA7E JUMP JUMPDEST PUSH1 0x0 SLOAD PUSH1 0x1 PUSH1 0x1 PUSH1 0xA0 SHL SUB AND CALLER EQ PUSH2 0x1126 JUMPI PUSH1 0x40 MLOAD PUSH3 0x461BCD PUSH1 0xE5 SHL DUP2 MSTORE PUSH1 0x4 ADD PUSH2 0xAF4 SWAP1 PUSH2 0x27F0 JUMP JUMPDEST PUSH1 0x0 DUP1 SLOAD PUSH1 0x40 MLOAD PUSH1 0x1 PUSH1 0x1 PUSH1 0xA0 SHL SUB SWAP1 SWAP2 AND SWAP1 PUSH32 0x8BE0079C531659141344CD1FD0A4F28419497F9722A3DAAFE3B4186F6B6457E0 SWAP1 DUP4 SWAP1 LOG3 PUSH1 0x0 DUP1 SLOAD PUSH1 0x1 PUSH1 0x1 PUSH1 0xA0 SHL SUB NOT AND SWAP1 SSTORE JUMP JUMPDEST PUSH2 0x117C PUSH1 0x6 PUSH1 0xA PUSH2 0x28F6 JUMP JUMPDEST PUSH2 0x1189 SWAP1 PUSH3 0xF4240 PUSH2 0x29A1 JUMP JUMPDEST DUP2 JUMP JUMPDEST PUSH2 0x1198 PUSH1 0x6 PUSH1 0xA PUSH2 0x28F6 JUMP JUMPDEST PUSH2 0x1189 SWAP1 PUSH4 0x4C4B400 PUSH2 0x29A1 JUMP JUMPDEST PUSH1 0x0 PUSH2 0x9EA CALLER DUP5 PUSH2 0xA64 DUP6 PUSH1 0x40 MLOAD DUP1 PUSH1 0x60 ADD PUSH1 0x40 MSTORE DUP1 PUSH1 0x2D DUP2 MSTORE PUSH1 0x20 ADD PUSH2 0x2A1A PUSH1 0x2D SWAP2 CODECOPY CALLER PUSH1 0x0 SWAP1 DUP2 MSTORE PUSH1 0x8 PUSH1 0x20 SWAP1 DUP2 MSTORE PUSH1 0x40 DUP1 DUP4 KECCAK256 PUSH1 0x1 PUSH1 0x1 PUSH1 0xA0 SHL SUB DUP14 AND DUP5 MSTORE SWAP1 SWAP2 MSTORE SWAP1 KECCAK256 SLOAD SWAP2 SWAP1 PUSH2 0x199A JUMP JUMPDEST PUSH1 0x0 SLOAD PUSH1 0x1 PUSH1 0x1 PUSH1 0xA0 SHL SUB AND CALLER EQ PUSH2 0x121F JUMPI PUSH1 0x40 MLOAD PUSH3 0x461BCD PUSH1 0xE5 SHL DUP2 MSTORE PUSH1 0x4 ADD PUSH2 0xAF4 SWAP1 PUSH2 0x27F0 JUMP JUMPDEST PUSH1 0x1 PUSH1 0x1 PUSH1 0xA0 SHL SUB DUP2 AND PUSH2 0x1245 JUMPI PUSH1 0x40 MLOAD PUSH3 0x461BCD PUSH1 0xE5 SHL DUP2 MSTORE PUSH1 0x4 ADD PUSH2 0xAF4 SWAP1 PUSH2 0x2825 JUMP JUMPDEST PUSH1 0x10 DUP1 SLOAD PUSH1 0x1 PUSH1 0x1 PUSH1 0xA0 SHL SUB NOT AND PUSH1 0x1 PUSH1 0x1 PUSH1 0xA0 SHL SUB SWAP3 SWAP1 SWAP3 AND SWAP2 SWAP1 SWAP2 OR SWAP1 SSTORE JUMP JUMPDEST PUSH1 0x0 PUSH2 0x9EA CALLER DUP5 DUP5 PUSH2 0x19D4 JUMP JUMPDEST PUSH1 0x0 SLOAD PUSH1 0x1 PUSH1 0x1 PUSH1 0xA0 SHL SUB AND CALLER EQ PUSH2 0x129E JUMPI PUSH1 0x40 MLOAD PUSH3 0x461BCD PUSH1 0xE5 SHL DUP2 MSTORE PUSH1 0x4 ADD PUSH2 0xAF4 SWAP1 PUSH2 0x27F0 JUMP JUMPDEST PUSH1 0x16 DUP1 SLOAD DUP3 ISZERO ISZERO PUSH1 0x1 PUSH1 0xA0 SHL MUL PUSH1 0xFF PUSH1 0xA0 SHL NOT SWAP1 SWAP2 AND OR SWAP1 SSTORE PUSH1 0x40 MLOAD PUSH32 0x53726DFCAF90650AA7EB35524F4D3220F07413C8D6CB404CC8C18BF5591BC159 SWAP1 PUSH2 0x12EB SWAP1 DUP4 ISZERO ISZERO DUP2 MSTORE PUSH1 0x20 ADD SWAP1 JUMP JUMPDEST PUSH1 0x40 MLOAD DUP1 SWAP2 SUB SWAP1 LOG1 POP JUMP JUMPDEST PUSH1 0x0 SLOAD PUSH1 0x1 PUSH1 0x1 PUSH1 0xA0 SHL SUB AND CALLER EQ PUSH2 0x1320 JUMPI PUSH1 0x40 MLOAD PUSH3 0x461BCD PUSH1 0xE5 SHL DUP2 MSTORE PUSH1 0x4 ADD PUSH2 0xAF4 SWAP1 PUSH2 0x27F0 JUMP JUMPDEST PUSH1 0x64 DUP2 LT PUSH2 0x137E JUMPI PUSH1 0x40 MLOAD PUSH3 0x461BCD PUSH1 0xE5 SHL DUP2 MSTORE PUSH1 0x20 PUSH1 0x4 DUP3 ADD MSTORE PUSH1 0x25 PUSH1 0x24 DUP3 ADD MSTORE PUSH32 0x4D696E6F72697479546F6B656E3A204D61782054782063616E2774206265203E PUSH1 0x44 DUP3 ADD MSTORE PUSH5 0x2031303025 PUSH1 0xD8 SHL PUSH1 0x64 DUP3 ADD MSTORE PUSH1 0x84 ADD PUSH2 0xAF4 JUMP JUMPDEST PUSH1 0x0 PUSH2 0x138C PUSH1 0x6 PUSH1 0xA PUSH2 0x28F6 JUMP JUMPDEST PUSH2 0x139A SWAP1 PUSH4 0x77359400 PUSH2 0x29A1 JUMP JUMPDEST PUSH1 0x17 SLOAD PUSH1 0x40 DUP1 MLOAD SWAP2 DUP3 MSTORE PUSH1 0x20 DUP3 ADD DUP4 SWAP1 MSTORE SWAP2 SWAP3 POP PUSH32 0xD6F586005531E7D32112F5389278497D656F7ED9029F31F85494A3F58CA18333 SWAP2 ADD PUSH1 0x40 MLOAD DUP1 SWAP2 SUB SWAP1 LOG1 PUSH1 0x17 SSTORE POP JUMP JUMPDEST PUSH1 0x0 SLOAD PUSH1 0x1 PUSH1 0x1 PUSH1 0xA0 SHL SUB AND CALLER EQ PUSH2 0x1409 JUMPI PUSH1 0x40 MLOAD PUSH3 0x461BCD PUSH1 0xE5 SHL DUP2 MSTORE PUSH1 0x4 ADD PUSH2 0xAF4 SWAP1 PUSH2 0x27F0 JUMP JUMPDEST PUSH1 0x0 PUSH2 0x143F DUP3 PUSH1 0xFF AND PUSH2 0x1439 DUP6 PUSH1 0xFF AND PUSH2 0x1439 DUP9 PUSH1 0xFF AND PUSH2 0x1439 DUP12 PUSH1 0xFF AND DUP14 PUSH1 0xFF AND PUSH2 0x16F9 SWAP1 SWAP2 SWAP1 PUSH4 0xFFFFFFFF AND JUMP JUMPDEST SWAP1 PUSH2 0x16F9 JUMP JUMPDEST SWAP1 POP PUSH1 0x19 DUP2 GT ISZERO PUSH2 0x149D JUMPI PUSH1 0x40 MLOAD PUSH3 0x461BCD PUSH1 0xE5 SHL DUP2 MSTORE PUSH1 0x20 PUSH1 0x4 DUP3 ADD MSTORE PUSH1 0x22 PUSH1 0x24 DUP3 ADD MSTORE PUSH32 0x4D696E6F72697479546F6B656E3A20546F74616C206665657320746F6F206869 PUSH1 0x44 DUP3 ADD MSTORE PUSH2 0xCED PUSH1 0xF3 SHL PUSH1 0x64 DUP3 ADD MSTORE PUSH1 0x84 ADD PUSH2 0xAF4 JUMP JUMPDEST PUSH1 0xE SLOAD PUSH1 0x40 DUP1 MLOAD PUSH1 0xFF DUP1 DUP5 AND DUP3 MSTORE DUP10 DUP2 AND PUSH1 0x20 DUP4 ADD MSTORE PUSH2 0x100 DUP1 DUP6 DIV DUP3 AND DUP4 DUP6 ADD MSTORE DUP10 DUP3 AND PUSH1 0x60 DUP5 ADD MSTORE PUSH4 0x1000000 DUP6 DIV DUP3 AND PUSH1 0x80 DUP5 ADD MSTORE DUP9 DUP3 AND PUSH1 0xA0 DUP5 ADD MSTORE PUSH3 0x10000 DUP6 DIV DUP3 AND PUSH1 0xC0 DUP5 ADD MSTORE DUP8 DUP3 AND PUSH1 0xE0 DUP5 ADD MSTORE PUSH5 0x100000000 SWAP1 SWAP5 DIV DUP2 AND SWAP4 DUP3 ADD SWAP4 SWAP1 SWAP4 MSTORE SWAP2 DUP5 AND PUSH2 0x120 DUP4 ADD MSTORE MLOAD PUSH32 0x8F37FC6AFA33AAE90A14FDC164EC931DC905AC72F6D86603BAFF1F9C411DAFE3 SWAP2 DUP2 SWAP1 SUB PUSH2 0x140 ADD SWAP1 LOG1 PUSH1 0xE DUP1 SLOAD PUSH1 0xFF SWAP4 DUP5 AND PUSH5 0x100000000 MUL PUSH5 0xFF00000000 NOT SWAP6 DUP6 AND PUSH3 0x10000 MUL PUSH3 0xFF0000 NOT SWAP8 DUP7 AND PUSH4 0x1000000 MUL SWAP8 SWAP1 SWAP8 AND PUSH4 0xFFFF0000 NOT SWAP9 DUP7 AND PUSH2 0x100 MUL PUSH2 0xFFFF NOT SWAP1 SWAP4 AND SWAP6 SWAP1 SWAP10 AND SWAP5 SWAP1 SWAP5 OR OR SWAP6 SWAP1 SWAP6 AND SWAP6 SWAP1 SWAP6 OR SWAP3 SWAP1 SWAP3 OR AND OR SWAP1 SSTORE PUSH1 0xF SSTORE JUMP JUMPDEST PUSH1 0x0 SLOAD PUSH1 0x1 PUSH1 0x1 PUSH1 0xA0 SHL SUB AND CALLER EQ PUSH2 0x15C6 JUMPI PUSH1 0x40 MLOAD PUSH3 0x461BCD PUSH1 0xE5 SHL DUP2 MSTORE PUSH1 0x4 ADD PUSH2 0xAF4 SWAP1 PUSH2 0x27F0 JUMP JUMPDEST PUSH1 0x1 PUSH1 0x1 PUSH1 0xA0 SHL SUB DUP2 AND PUSH1 0x0 DUP2 DUP2 MSTORE PUSH1 0x9 PUSH1 0x20 MSTORE PUSH1 0x40 DUP1 DUP3 KECCAK256 DUP1 SLOAD PUSH1 0xFF NOT AND SWAP1 SSTORE MLOAD PUSH32 0x78CE087DB51D01D3E32355F2D83455D5A39F99194C8D3D1C2614893695CEE442 SWAP2 SWAP1 LOG2 POP JUMP JUMPDEST PUSH1 0x0 SLOAD PUSH1 0x1 PUSH1 0x1 PUSH1 0xA0 SHL SUB AND CALLER EQ PUSH2 0x1639 JUMPI PUSH1 0x40 MLOAD PUSH3 0x461BCD PUSH1 0xE5 SHL DUP2 MSTORE PUSH1 0x4 ADD PUSH2 0xAF4 SWAP1 PUSH2 0x27F0 JUMP JUMPDEST PUSH1 0x1 PUSH1 0x1 PUSH1 0xA0 SHL SUB DUP2 AND PUSH2 0x169E JUMPI PUSH1 0x40 MLOAD PUSH3 0x461BCD PUSH1 0xE5 SHL DUP2 MSTORE PUSH1 0x20 PUSH1 0x4 DUP3 ADD MSTORE PUSH1 0x26 PUSH1 0x24 DUP3 ADD MSTORE PUSH32 0x4F776E61626C653A206E6577206F776E657220697320746865207A65726F2061 PUSH1 0x44 DUP3 ADD MSTORE PUSH6 0x646472657373 PUSH1 0xD0 SHL PUSH1 0x64 DUP3 ADD MSTORE PUSH1 0x84 ADD PUSH2 0xAF4 JUMP JUMPDEST PUSH1 0x0 DUP1 SLOAD PUSH1 0x40 MLOAD PUSH1 0x1 PUSH1 0x1 PUSH1 0xA0 SHL SUB DUP1 DUP6 AND SWAP4 SWAP3 AND SWAP2 PUSH32 0x8BE0079C531659141344CD1FD0A4F28419497F9722A3DAAFE3B4186F6B6457E0 SWAP2 LOG3 PUSH1 0x0 DUP1 SLOAD PUSH1 0x1 PUSH1 0x1 PUSH1 0xA0 SHL SUB NOT AND PUSH1 0x1 PUSH1 0x1 PUSH1 0xA0 SHL SUB SWAP3 SWAP1 SWAP3 AND SWAP2 SWAP1 SWAP2 OR SWAP1 SSTORE JUMP JUMPDEST PUSH1 0x0 DUP1 PUSH2 0x1706 DUP4 DUP6 PUSH2 0x287B JUMP JUMPDEST SWAP1 POP DUP4 DUP2 LT ISZERO PUSH2 0xB13 JUMPI PUSH1 0x40 MLOAD PUSH3 0x461BCD PUSH1 0xE5 SHL DUP2 MSTORE PUSH1 0x20 PUSH1 0x4 DUP3 ADD MSTORE PUSH1 0x1B PUSH1 0x24 DUP3 ADD MSTORE PUSH32 0x536166654D6174683A206164646974696F6E206F766572666C6F770000000000 PUSH1 0x44 DUP3 ADD MSTORE PUSH1 0x64 ADD PUSH2 0xAF4 JUMP JUMPDEST PUSH1 0x0 PUSH2 0xB13 DUP4 DUP4 PUSH1 0x40 MLOAD DUP1 PUSH1 0x40 ADD PUSH1 0x40 MSTORE DUP1 PUSH1 0x1A DUP2 MSTORE PUSH1 0x20 ADD PUSH32 0x536166654D6174683A206469766973696F6E206279207A65726F000000000000 DUP2 MSTORE POP PUSH2 0x1ECA JUMP JUMPDEST PUSH1 0x0 PUSH2 0xB13 DUP4 DUP4 PUSH1 0x40 MLOAD DUP1 PUSH1 0x40 ADD PUSH1 0x40 MSTORE DUP1 PUSH1 0x1E DUP2 MSTORE PUSH1 0x20 ADD PUSH32 0x536166654D6174683A207375627472616374696F6E206F766572666C6F770000 DUP2 MSTORE POP PUSH2 0x199A JUMP JUMPDEST PUSH1 0x0 DUP3 PUSH2 0x17EB JUMPI POP PUSH1 0x0 PUSH2 0x9EE JUMP JUMPDEST PUSH1 0x0 PUSH2 0x17F7 DUP4 DUP6 PUSH2 0x29A1 JUMP JUMPDEST SWAP1 POP DUP3 PUSH2 0x1804 DUP6 DUP4 PUSH2 0x2893 JUMP JUMPDEST EQ PUSH2 0xB13 JUMPI PUSH1 0x40 MLOAD PUSH3 0x461BCD PUSH1 0xE5 SHL DUP2 MSTORE PUSH1 0x20 PUSH1 0x4 DUP3 ADD MSTORE PUSH1 0x21 PUSH1 0x24 DUP3 ADD MSTORE PUSH32 0x536166654D6174683A206D756C7469706C69636174696F6E206F766572666C6F PUSH1 0x44 DUP3 ADD MSTORE PUSH1 0x77 PUSH1 0xF8 SHL PUSH1 0x64 DUP3 ADD MSTORE PUSH1 0x84 ADD PUSH2 0xAF4 JUMP JUMPDEST PUSH1 0x1 PUSH1 0x1 PUSH1 0xA0 SHL SUB DUP4 AND PUSH2 0x18CE JUMPI PUSH1 0x40 MLOAD PUSH3 0x461BCD PUSH1 0xE5 SHL DUP2 MSTORE PUSH1 0x20 PUSH1 0x4 DUP3 ADD MSTORE PUSH1 0x34 PUSH1 0x24 DUP3 ADD MSTORE PUSH32 0x4D696E6F72697479546F6B656E3A203A2063616E277420617070726F76652066 PUSH1 0x44 DUP3 ADD MSTORE PUSH20 0x726F6D20746865207A65726F2061646472657373 PUSH1 0x60 SHL PUSH1 0x64 DUP3 ADD MSTORE PUSH1 0x84 ADD PUSH2 0xAF4 JUMP JUMPDEST PUSH1 0x1 PUSH1 0x1 PUSH1 0xA0 SHL SUB DUP3 AND PUSH2 0x1939 JUMPI PUSH1 0x40 MLOAD PUSH3 0x461BCD PUSH1 0xE5 SHL DUP2 MSTORE PUSH1 0x20 PUSH1 0x4 DUP3 ADD MSTORE PUSH1 0x2C PUSH1 0x24 DUP3 ADD MSTORE PUSH32 0x4D696E6F72697479546F6B656E3A203A20617070726F766520746F2074686520 PUSH1 0x44 DUP3 ADD MSTORE PUSH12 0x7A65726F2061646472657373 PUSH1 0xA0 SHL PUSH1 0x64 DUP3 ADD MSTORE PUSH1 0x84 ADD PUSH2 0xAF4 JUMP JUMPDEST PUSH1 0x1 PUSH1 0x1 PUSH1 0xA0 SHL SUB DUP4 DUP2 AND PUSH1 0x0 DUP2 DUP2 MSTORE PUSH1 0x8 PUSH1 0x20 SWAP1 DUP2 MSTORE PUSH1 0x40 DUP1 DUP4 KECCAK256 SWAP5 DUP8 AND DUP1 DUP5 MSTORE SWAP5 DUP3 MSTORE SWAP2 DUP3 SWAP1 KECCAK256 DUP6 SWAP1 SSTORE SWAP1 MLOAD DUP5 DUP2 MSTORE PUSH32 0x8C5BE1E5EBEC7D5BD14F71427D1E84F3DD0314C0F7B2291E5B200AC8C7C3B925 SWAP2 ADD PUSH1 0x40 MLOAD DUP1 SWAP2 SUB SWAP1 LOG3 POP POP POP JUMP JUMPDEST PUSH1 0x0 DUP2 DUP5 DUP5 GT ISZERO PUSH2 0x19BE JUMPI PUSH1 0x40 MLOAD PUSH3 0x461BCD PUSH1 0xE5 SHL DUP2 MSTORE PUSH1 0x4 ADD PUSH2 0xAF4 SWAP2 SWAP1 PUSH2 0x279D JUMP JUMPDEST POP PUSH1 0x0 PUSH2 0x19CB DUP5 DUP7 PUSH2 0x29C0 JUMP JUMPDEST SWAP6 SWAP5 POP POP POP POP POP JUMP JUMPDEST PUSH1 0x1 PUSH1 0x1 PUSH1 0xA0 SHL SUB DUP4 AND PUSH2 0x1A40 JUMPI PUSH1 0x40 MLOAD PUSH3 0x461BCD PUSH1 0xE5 SHL DUP2 MSTORE PUSH1 0x20 PUSH1 0x4 DUP3 ADD MSTORE PUSH1 0x2D PUSH1 0x24 DUP3 ADD MSTORE PUSH32 0x4D696E6F72697479546F6B656E3A207472616E736665722066726F6D20746865 PUSH1 0x44 DUP3 ADD MSTORE PUSH13 0x207A65726F2061646472657373 PUSH1 0x98 SHL PUSH1 0x64 DUP3 ADD MSTORE PUSH1 0x84 ADD PUSH2 0xAF4 JUMP JUMPDEST PUSH1 0x1 PUSH1 0x1 PUSH1 0xA0 SHL SUB DUP3 AND PUSH2 0x1AAA JUMPI PUSH1 0x40 MLOAD PUSH3 0x461BCD PUSH1 0xE5 SHL DUP2 MSTORE PUSH1 0x20 PUSH1 0x4 DUP3 ADD MSTORE PUSH1 0x2B PUSH1 0x24 DUP3 ADD MSTORE PUSH32 0x4D696E6F72697479546F6B656E3A207472616E7366657220746F20746865207A PUSH1 0x44 DUP3 ADD MSTORE PUSH11 0x65726F2061646472657373 PUSH1 0xA8 SHL PUSH1 0x64 DUP3 ADD MSTORE PUSH1 0x84 ADD PUSH2 0xAF4 JUMP JUMPDEST PUSH1 0x0 DUP2 GT PUSH2 0x1B20 JUMPI PUSH1 0x40 MLOAD PUSH3 0x461BCD PUSH1 0xE5 SHL DUP2 MSTORE PUSH1 0x20 PUSH1 0x4 DUP3 ADD MSTORE PUSH1 0x38 PUSH1 0x24 DUP3 ADD MSTORE PUSH32 0x4D696E6F72697479546F6B656E3A205472616E7366657220616D6F756E74206D PUSH1 0x44 DUP3 ADD MSTORE PUSH32 0x7573742062652067726561746572207468616E207A65726F0000000000000000 PUSH1 0x64 DUP3 ADD MSTORE PUSH1 0x84 ADD PUSH2 0xAF4 JUMP JUMPDEST PUSH1 0x0 SLOAD PUSH1 0x1 PUSH1 0x1 PUSH1 0xA0 SHL SUB DUP5 DUP2 AND SWAP2 AND EQ DUP1 ISZERO SWAP1 PUSH2 0x1B4C JUMPI POP PUSH1 0x0 SLOAD PUSH1 0x1 PUSH1 0x1 PUSH1 0xA0 SHL SUB DUP4 DUP2 AND SWAP2 AND EQ ISZERO JUMPDEST ISZERO PUSH2 0x1BC9 JUMPI PUSH1 0x17 SLOAD DUP2 GT ISZERO PUSH2 0x1BC9 JUMPI PUSH1 0x40 MLOAD PUSH3 0x461BCD PUSH1 0xE5 SHL DUP2 MSTORE PUSH1 0x20 PUSH1 0x4 DUP3 ADD MSTORE PUSH1 0x38 PUSH1 0x24 DUP3 ADD MSTORE PUSH32 0x4D696E6F72697479546F6B656E3A205472616E7366657220616D6F756E742065 PUSH1 0x44 DUP3 ADD MSTORE PUSH32 0x78636565647320746865205F6D61785478416D6F756E742E0000000000000000 PUSH1 0x64 DUP3 ADD MSTORE PUSH1 0x84 ADD PUSH2 0xAF4 JUMP JUMPDEST PUSH1 0x3 SLOAD PUSH1 0x0 SWAP1 PUSH2 0x1BE1 SWAP1 PUSH1 0x1 PUSH1 0x1 PUSH1 0xA0 SHL SUB AND PUSH2 0x109D JUMP JUMPDEST SWAP1 POP PUSH1 0x17 SLOAD DUP2 LT PUSH2 0x1BF1 JUMPI POP PUSH1 0x17 SLOAD JUMPDEST PUSH2 0x1BFD PUSH1 0x6 PUSH1 0xA PUSH2 0x28F6 JUMP JUMPDEST PUSH2 0x1C08 SWAP1 PUSH1 0xC8 PUSH2 0x29A1 JUMP JUMPDEST DUP2 LT ISZERO DUP1 ISZERO PUSH2 0x1C9A JUMPI POP PUSH1 0x3 PUSH1 0x0 SWAP1 SLOAD SWAP1 PUSH2 0x100 EXP SWAP1 DIV PUSH1 0x1 PUSH1 0x1 PUSH1 0xA0 SHL SUB AND PUSH1 0x1 PUSH1 0x1 PUSH1 0xA0 SHL SUB AND PUSH4 0x2AE56454 PUSH1 0x40 MLOAD DUP2 PUSH4 0xFFFFFFFF AND PUSH1 0xE0 SHL DUP2 MSTORE PUSH1 0x4 ADD PUSH1 0x20 PUSH1 0x40 MLOAD DUP1 DUP4 SUB DUP2 DUP7 DUP1 EXTCODESIZE ISZERO DUP1 ISZERO PUSH2 0x1C60 JUMPI PUSH1 0x0 DUP1 REVERT JUMPDEST POP GAS STATICCALL ISZERO DUP1 ISZERO PUSH2 0x1C74 JUMPI RETURNDATASIZE PUSH1 0x0 DUP1 RETURNDATACOPY RETURNDATASIZE PUSH1 0x0 REVERT JUMPDEST POP POP POP POP PUSH1 0x40 MLOAD RETURNDATASIZE PUSH1 0x1F NOT PUSH1 0x1F DUP3 ADD AND DUP3 ADD DUP1 PUSH1 0x40 MSTORE POP DUP2 ADD SWAP1 PUSH2 0x1C98 SWAP2 SWAP1 PUSH2 0x26A9 JUMP JUMPDEST ISZERO JUMPDEST DUP1 ISZERO PUSH2 0x1CB4 JUMPI POP PUSH1 0x16 SLOAD PUSH1 0x1 PUSH1 0x1 PUSH1 0xA0 SHL SUB DUP6 DUP2 AND SWAP2 AND EQ ISZERO JUMPDEST DUP1 ISZERO PUSH2 0x1CC9 JUMPI POP PUSH1 0x16 SLOAD PUSH1 0x1 PUSH1 0xA0 SHL SWAP1 DIV PUSH1 0xFF AND JUMPDEST ISZERO PUSH2 0x1DA2 JUMPI PUSH1 0x3 SLOAD PUSH1 0x40 MLOAD PUSH4 0x173865AD PUSH1 0xE0 SHL DUP2 MSTORE PUSH1 0x4 DUP2 ADD DUP4 SWAP1 MSTORE PUSH1 0x0 SWAP2 DUP3 SWAP2 DUP3 SWAP2 PUSH1 0x1 PUSH1 0x1 PUSH1 0xA0 SHL SUB AND SWAP1 PUSH4 0x173865AD SWAP1 PUSH1 0x24 ADD PUSH1 0x60 PUSH1 0x40 MLOAD DUP1 DUP4 SUB DUP2 PUSH1 0x0 DUP8 DUP1 EXTCODESIZE ISZERO DUP1 ISZERO PUSH2 0x1D19 JUMPI PUSH1 0x0 DUP1 REVERT JUMPDEST POP GAS CALL ISZERO DUP1 ISZERO PUSH2 0x1D2D JUMPI RETURNDATASIZE PUSH1 0x0 DUP1 RETURNDATACOPY RETURNDATASIZE PUSH1 0x0 REVERT JUMPDEST POP POP POP POP PUSH1 0x40 MLOAD RETURNDATASIZE PUSH1 0x1F NOT PUSH1 0x1F DUP3 ADD AND DUP3 ADD DUP1 PUSH1 0x40 MSTORE POP DUP2 ADD SWAP1 PUSH2 0x1D51 SWAP2 SWAP1 PUSH2 0x270C JUMP JUMPDEST PUSH1 0x40 DUP1 MLOAD DUP5 DUP2 MSTORE PUSH1 0x20 DUP2 ADD DUP5 SWAP1 MSTORE SWAP1 DUP2 ADD DUP3 SWAP1 MSTORE SWAP3 SWAP6 POP SWAP1 SWAP4 POP SWAP2 POP PUSH32 0x17BBFB9A6069321B6DED73BD96327C9E6B7212A5CD51FF219CD61370ACAFB561 SWAP1 PUSH1 0x60 ADD PUSH1 0x40 MLOAD DUP1 SWAP2 SUB SWAP1 LOG1 POP POP POP PUSH2 0x1DFE JUMP JUMPDEST PUSH1 0x4 DUP1 SLOAD PUSH1 0x40 DUP1 MLOAD PUSH4 0x8ADC760D PUSH1 0xE0 SHL DUP2 MSTORE SWAP1 MLOAD PUSH1 0x1 PUSH1 0x1 PUSH1 0xA0 SHL SUB SWAP1 SWAP3 AND SWAP3 PUSH4 0x8ADC760D SWAP3 DUP3 DUP3 ADD SWAP3 PUSH1 0x0 SWAP3 SWAP1 DUP3 SWAP1 SUB ADD DUP2 DUP4 DUP8 DUP1 EXTCODESIZE ISZERO DUP1 ISZERO PUSH2 0x1DE5 JUMPI PUSH1 0x0 DUP1 REVERT JUMPDEST POP GAS CALL ISZERO DUP1 ISZERO PUSH2 0x1DF9 JUMPI RETURNDATASIZE PUSH1 0x0 DUP1 RETURNDATACOPY RETURNDATASIZE PUSH1 0x0 REVERT JUMPDEST POP POP POP POP JUMPDEST PUSH1 0x1 PUSH1 0x1 PUSH1 0xA0 SHL SUB DUP5 AND PUSH1 0x0 SWAP1 DUP2 MSTORE PUSH1 0x9 PUSH1 0x20 MSTORE PUSH1 0x40 SWAP1 KECCAK256 SLOAD PUSH1 0x1 SWAP1 PUSH1 0xFF AND DUP1 PUSH2 0x1E40 JUMPI POP PUSH1 0x1 PUSH1 0x1 PUSH1 0xA0 SHL SUB DUP5 AND PUSH1 0x0 SWAP1 DUP2 MSTORE PUSH1 0x9 PUSH1 0x20 MSTORE PUSH1 0x40 SWAP1 KECCAK256 SLOAD PUSH1 0xFF AND JUMPDEST ISZERO PUSH2 0x1E49 JUMPI POP PUSH1 0x0 JUMPDEST PUSH2 0x1E55 DUP6 DUP6 DUP6 DUP5 PUSH2 0x1EF8 JUMP JUMPDEST POP POP POP POP POP JUMP JUMPDEST PUSH1 0x0 DUP1 PUSH1 0x0 PUSH2 0x1E69 PUSH2 0x20CF JUMP JUMPDEST SWAP1 SWAP3 POP SWAP1 POP PUSH2 0x1E78 DUP3 DUP3 PUSH2 0x1758 JUMP JUMPDEST SWAP3 POP POP POP SWAP1 JUMP JUMPDEST PUSH1 0x0 DUP1 PUSH1 0x0 DUP1 PUSH1 0x0 DUP1 PUSH1 0x0 DUP1 PUSH2 0x1E94 DUP10 PUSH2 0x22E9 JUMP JUMPDEST SWAP3 POP SWAP3 POP SWAP3 POP PUSH1 0x0 DUP1 PUSH1 0x0 PUSH2 0x1EB2 DUP13 DUP7 DUP7 PUSH2 0x1EAD PUSH2 0x1E5C JUMP JUMPDEST PUSH2 0x2361 JUMP JUMPDEST SWAP2 SWAP15 SWAP1 SWAP14 POP SWAP1 SWAP12 POP SWAP6 SWAP10 POP SWAP3 SWAP8 POP SWAP4 SWAP6 POP POP POP POP POP POP JUMP JUMPDEST PUSH1 0x0 DUP2 DUP4 PUSH2 0x1EEB JUMPI PUSH1 0x40 MLOAD PUSH3 0x461BCD PUSH1 0xE5 SHL DUP2 MSTORE PUSH1 0x4 ADD PUSH2 0xAF4 SWAP2 SWAP1 PUSH2 0x279D JUMP JUMPDEST POP PUSH1 0x0 PUSH2 0x19CB DUP5 DUP7 PUSH2 0x2893 JUMP JUMPDEST PUSH1 0x0 DUP1 PUSH1 0x0 DUP1 PUSH1 0x0 DUP6 PUSH2 0x1F21 JUMPI PUSH2 0x1F0E DUP8 PUSH2 0x1E7F JUMP JUMPDEST POP SWAP3 SWAP8 POP DUP8 SWAP7 POP DUP10 SWAP5 POP PUSH2 0x1F37 SWAP3 POP POP POP JUMP JUMPDEST PUSH2 0x1F2A DUP8 PUSH2 0x1E7F JUMP JUMPDEST SWAP4 SWAP9 POP SWAP2 SWAP7 POP SWAP5 POP SWAP3 POP SWAP1 POP JUMPDEST PUSH1 0x1 PUSH1 0x1 PUSH1 0xA0 SHL SUB DUP10 AND PUSH1 0x0 SWAP1 DUP2 MSTORE PUSH1 0x6 PUSH1 0x20 MSTORE PUSH1 0x40 SWAP1 KECCAK256 SLOAD PUSH2 0x1F5A SWAP1 DUP7 PUSH2 0x179A JUMP JUMPDEST PUSH1 0x1 PUSH1 0x1 PUSH1 0xA0 SHL SUB DUP1 DUP12 AND PUSH1 0x0 SWAP1 DUP2 MSTORE PUSH1 0x6 PUSH1 0x20 MSTORE PUSH1 0x40 DUP1 DUP3 KECCAK256 SWAP4 SWAP1 SWAP4 SSTORE SWAP1 DUP11 AND DUP2 MSTORE KECCAK256 SLOAD PUSH2 0x1F89 SWAP1 DUP6 PUSH2 0x16F9 JUMP JUMPDEST PUSH1 0x1 PUSH1 0x1 PUSH1 0xA0 SHL SUB DUP1 DUP11 AND PUSH1 0x0 SWAP1 DUP2 MSTORE PUSH1 0x6 PUSH1 0x20 SWAP1 DUP2 MSTORE PUSH1 0x40 DUP1 DUP4 KECCAK256 SWAP5 SWAP1 SWAP5 SSTORE SWAP2 DUP13 AND DUP2 MSTORE PUSH1 0xA SWAP1 SWAP2 MSTORE KECCAK256 SLOAD PUSH1 0xFF AND ISZERO PUSH2 0x1FFA JUMPI PUSH1 0x1 PUSH1 0x1 PUSH1 0xA0 SHL SUB DUP10 AND PUSH1 0x0 SWAP1 DUP2 MSTORE PUSH1 0x7 PUSH1 0x20 MSTORE PUSH1 0x40 SWAP1 KECCAK256 SLOAD PUSH2 0x1FE0 SWAP1 DUP9 PUSH2 0x179A JUMP JUMPDEST PUSH1 0x1 PUSH1 0x1 PUSH1 0xA0 SHL SUB DUP11 AND PUSH1 0x0 SWAP1 DUP2 MSTORE PUSH1 0x7 PUSH1 0x20 MSTORE PUSH1 0x40 SWAP1 KECCAK256 SSTORE JUMPDEST PUSH1 0x1 PUSH1 0x1 PUSH1 0xA0 SHL SUB DUP9 AND PUSH1 0x0 SWAP1 DUP2 MSTORE PUSH1 0xA PUSH1 0x20 MSTORE PUSH1 0x40 SWAP1 KECCAK256 SLOAD PUSH1 0xFF AND ISZERO PUSH2 0x2058 JUMPI PUSH1 0x1 PUSH1 0x1 PUSH1 0xA0 SHL SUB DUP9 AND PUSH1 0x0 SWAP1 DUP2 MSTORE PUSH1 0x7 PUSH1 0x20 MSTORE PUSH1 0x40 SWAP1 KECCAK256 SLOAD PUSH2 0x203E SWAP1 DUP4 PUSH2 0x16F9 JUMP JUMPDEST PUSH1 0x1 PUSH1 0x1 PUSH1 0xA0 SHL SUB DUP10 AND PUSH1 0x0 SWAP1 DUP2 MSTORE PUSH1 0x7 PUSH1 0x20 MSTORE PUSH1 0x40 SWAP1 KECCAK256 SSTORE JUMPDEST DUP1 ISZERO PUSH2 0x2068 JUMPI PUSH2 0x2068 DUP2 DUP11 PUSH2 0x23B1 JUMP JUMPDEST DUP3 ISZERO PUSH2 0x2077 JUMPI PUSH2 0x2077 DUP4 PUSH2 0x24A6 JUMP JUMPDEST DUP8 PUSH1 0x1 PUSH1 0x1 PUSH1 0xA0 SHL SUB AND DUP10 PUSH1 0x1 PUSH1 0x1 PUSH1 0xA0 SHL SUB AND PUSH32 0xDDF252AD1BE2C89B69C2B068FC378DAA952BA7F163C4A11628F55A4DF523B3EF DUP5 PUSH1 0x40 MLOAD PUSH2 0x20BC SWAP2 DUP2 MSTORE PUSH1 0x20 ADD SWAP1 JUMP JUMPDEST PUSH1 0x40 MLOAD DUP1 SWAP2 SUB SWAP1 LOG3 POP POP POP POP POP POP POP POP POP JUMP JUMPDEST PUSH1 0xC SLOAD PUSH1 0x0 SWAP1 DUP2 SWAP1 DUP2 PUSH2 0x20E4 PUSH1 0x6 PUSH1 0xA PUSH2 0x28F6 JUMP JUMPDEST PUSH2 0x20F2 SWAP1 PUSH4 0x77359400 PUSH2 0x29A1 JUMP JUMPDEST SWAP1 POP PUSH1 0x0 JUMPDEST PUSH1 0xB SLOAD DUP2 LT ISZERO PUSH2 0x228B JUMPI DUP3 PUSH1 0x6 PUSH1 0x0 PUSH1 0xB DUP5 DUP2 SLOAD DUP2 LT PUSH2 0x2127 JUMPI PUSH4 0x4E487B71 PUSH1 0xE0 SHL PUSH1 0x0 MSTORE PUSH1 0x32 PUSH1 0x4 MSTORE PUSH1 0x24 PUSH1 0x0 REVERT JUMPDEST PUSH1 0x0 SWAP2 DUP3 MSTORE PUSH1 0x20 DUP1 DUP4 KECCAK256 SWAP1 SWAP2 ADD SLOAD PUSH1 0x1 PUSH1 0x1 PUSH1 0xA0 SHL SUB AND DUP4 MSTORE DUP3 ADD SWAP3 SWAP1 SWAP3 MSTORE PUSH1 0x40 ADD SWAP1 KECCAK256 SLOAD GT DUP1 PUSH2 0x21A0 JUMPI POP DUP2 PUSH1 0x7 PUSH1 0x0 PUSH1 0xB DUP5 DUP2 SLOAD DUP2 LT PUSH2 0x2179 JUMPI PUSH4 0x4E487B71 PUSH1 0xE0 SHL PUSH1 0x0 MSTORE PUSH1 0x32 PUSH1 0x4 MSTORE PUSH1 0x24 PUSH1 0x0 REVERT JUMPDEST PUSH1 0x0 SWAP2 DUP3 MSTORE PUSH1 0x20 DUP1 DUP4 KECCAK256 SWAP1 SWAP2 ADD SLOAD PUSH1 0x1 PUSH1 0x1 PUSH1 0xA0 SHL SUB AND DUP4 MSTORE DUP3 ADD SWAP3 SWAP1 SWAP3 MSTORE PUSH1 0x40 ADD SWAP1 KECCAK256 SLOAD GT JUMPDEST ISZERO PUSH2 0x21CD JUMPI PUSH1 0xC SLOAD PUSH2 0x21B4 PUSH1 0x6 PUSH1 0xA PUSH2 0x28F6 JUMP JUMPDEST PUSH2 0x21C2 SWAP1 PUSH4 0x77359400 PUSH2 0x29A1 JUMP JUMPDEST SWAP5 POP SWAP5 POP POP POP POP SWAP1 SWAP2 JUMP JUMPDEST PUSH2 0x2221 PUSH1 0x6 PUSH1 0x0 PUSH1 0xB DUP5 DUP2 SLOAD DUP2 LT PUSH2 0x21F5 JUMPI PUSH4 0x4E487B71 PUSH1 0xE0 SHL PUSH1 0x0 MSTORE PUSH1 0x32 PUSH1 0x4 MSTORE PUSH1 0x24 PUSH1 0x0 REVERT JUMPDEST PUSH1 0x0 SWAP2 DUP3 MSTORE PUSH1 0x20 DUP1 DUP4 KECCAK256 SWAP1 SWAP2 ADD SLOAD PUSH1 0x1 PUSH1 0x1 PUSH1 0xA0 SHL SUB AND DUP4 MSTORE DUP3 ADD SWAP3 SWAP1 SWAP3 MSTORE PUSH1 0x40 ADD SWAP1 KECCAK256 SLOAD DUP5 SWAP1 PUSH2 0x179A JUMP JUMPDEST SWAP3 POP PUSH2 0x2277 PUSH1 0x7 PUSH1 0x0 PUSH1 0xB DUP5 DUP2 SLOAD DUP2 LT PUSH2 0x224B JUMPI PUSH4 0x4E487B71 PUSH1 0xE0 SHL PUSH1 0x0 MSTORE PUSH1 0x32 PUSH1 0x4 MSTORE PUSH1 0x24 PUSH1 0x0 REVERT JUMPDEST PUSH1 0x0 SWAP2 DUP3 MSTORE PUSH1 0x20 DUP1 DUP4 KECCAK256 SWAP1 SWAP2 ADD SLOAD PUSH1 0x1 PUSH1 0x1 PUSH1 0xA0 SHL SUB AND DUP4 MSTORE DUP3 ADD SWAP3 SWAP1 SWAP3 MSTORE PUSH1 0x40 ADD SWAP1 KECCAK256 SLOAD DUP4 SWAP1 PUSH2 0x179A JUMP JUMPDEST SWAP2 POP DUP1 PUSH2 0x2283 DUP2 PUSH2 0x29D7 JUMP JUMPDEST SWAP2 POP POP PUSH2 0x20F7 JUMP JUMPDEST POP PUSH2 0x22B2 PUSH2 0x229B PUSH1 0x6 PUSH1 0xA PUSH2 0x28F6 JUMP JUMPDEST PUSH2 0x22A9 SWAP1 PUSH4 0x77359400 PUSH2 0x29A1 JUMP JUMPDEST PUSH1 0xC SLOAD SWAP1 PUSH2 0x1758 JUMP JUMPDEST DUP3 LT ISZERO PUSH2 0x22E0 JUMPI PUSH1 0xC SLOAD PUSH2 0x22C8 PUSH1 0x6 PUSH1 0xA PUSH2 0x28F6 JUMP JUMPDEST PUSH2 0x22D6 SWAP1 PUSH4 0x77359400 PUSH2 0x29A1 JUMP JUMPDEST SWAP4 POP SWAP4 POP POP POP SWAP1 SWAP2 JUMP JUMPDEST SWAP1 SWAP4 SWAP1 SWAP3 POP SWAP1 POP JUMP JUMPDEST PUSH1 0xE SLOAD PUSH1 0x0 SWAP1 DUP2 SWAP1 DUP2 SWAP1 DUP2 SWAP1 PUSH2 0x2310 SWAP1 PUSH1 0x64 SWAP1 PUSH2 0x230A SWAP1 DUP9 SWAP1 PUSH1 0xFF AND PUSH2 0x17DC JUMP JUMPDEST SWAP1 PUSH2 0x1758 JUMP JUMPDEST PUSH1 0xE SLOAD PUSH1 0xF SLOAD SWAP2 SWAP3 POP PUSH1 0x0 SWAP2 PUSH2 0x233B SWAP2 PUSH1 0x64 SWAP2 PUSH2 0x230A SWAP2 PUSH2 0x2334 SWAP2 SWAP1 PUSH1 0xFF AND PUSH2 0x179A JUMP JUMPDEST DUP10 SWAP1 PUSH2 0x17DC JUMP JUMPDEST SWAP1 POP PUSH1 0x0 PUSH2 0x2353 DUP3 PUSH2 0x234D DUP10 DUP7 PUSH2 0x179A JUMP JUMPDEST SWAP1 PUSH2 0x179A JUMP JUMPDEST SWAP8 SWAP3 SWAP7 POP SWAP1 SWAP5 POP SWAP1 SWAP3 POP POP POP JUMP JUMPDEST PUSH1 0x0 DUP1 DUP1 DUP1 PUSH2 0x2370 DUP9 DUP7 PUSH2 0x17DC JUMP JUMPDEST SWAP1 POP PUSH1 0x0 PUSH2 0x237E DUP9 DUP8 PUSH2 0x17DC JUMP JUMPDEST SWAP1 POP PUSH1 0x0 PUSH2 0x238C DUP9 DUP9 PUSH2 0x17DC JUMP JUMPDEST SWAP1 POP PUSH1 0x0 PUSH2 0x239E DUP3 PUSH2 0x234D DUP7 DUP7 PUSH2 0x179A JUMP JUMPDEST SWAP4 SWAP12 SWAP4 SWAP11 POP SWAP2 SWAP9 POP SWAP2 SWAP7 POP POP POP POP POP POP POP JUMP JUMPDEST PUSH1 0xE SLOAD PUSH1 0xF SLOAD PUSH1 0x0 SWAP2 PUSH2 0x23C7 SWAP2 SWAP1 PUSH1 0xFF AND PUSH2 0x179A JUMP JUMPDEST PUSH1 0xE SLOAD SWAP1 SWAP2 POP PUSH2 0x23FC SWAP1 PUSH2 0x23EA SWAP1 DUP4 SWAP1 PUSH2 0x230A SWAP1 DUP8 SWAP1 PUSH2 0x100 SWAP1 DIV PUSH1 0xFF AND PUSH2 0x17DC JUMP JUMPDEST PUSH1 0x3 SLOAD PUSH1 0x1 PUSH1 0x1 PUSH1 0xA0 SHL SUB AND DUP5 PUSH2 0x24B9 JUMP JUMPDEST PUSH1 0xE SLOAD PUSH2 0x2430 SWAP1 PUSH2 0x241E SWAP1 DUP4 SWAP1 PUSH2 0x230A SWAP1 DUP8 SWAP1 PUSH4 0x1000000 SWAP1 DIV PUSH1 0xFF AND PUSH2 0x17DC JUMP JUMPDEST PUSH1 0x10 SLOAD PUSH1 0x1 PUSH1 0x1 PUSH1 0xA0 SHL SUB AND DUP5 PUSH2 0x24B9 JUMP JUMPDEST PUSH1 0xE SLOAD PUSH2 0x2465 SWAP1 PUSH2 0x2453 SWAP1 DUP4 SWAP1 PUSH2 0x230A SWAP1 DUP8 SWAP1 PUSH5 0x100000000 SWAP1 DIV PUSH1 0xFF AND PUSH2 0x17DC JUMP JUMPDEST PUSH1 0x11 SLOAD PUSH1 0x1 PUSH1 0x1 PUSH1 0xA0 SHL SUB AND DUP5 PUSH2 0x24B9 JUMP JUMPDEST PUSH1 0xE SLOAD PUSH2 0x24A1 SWAP1 PUSH2 0x2486 SWAP1 DUP4 SWAP1 PUSH2 0x230A SWAP1 DUP8 SWAP1 PUSH3 0x10000 SWAP1 DIV PUSH1 0xFF AND PUSH2 0x17DC JUMP JUMPDEST PUSH20 0x3292114A1527656D56A6AC914A7C6E1AFC6ECAE0 DUP5 PUSH2 0x24B9 JUMP JUMPDEST POP POP POP JUMP JUMPDEST PUSH1 0xC SLOAD PUSH2 0x24B3 SWAP1 DUP3 PUSH2 0x179A JUMP JUMPDEST PUSH1 0xC SSTORE POP JUMP JUMPDEST PUSH1 0x0 PUSH2 0x24CD PUSH2 0x24C6 PUSH2 0x1E5C JUMP JUMPDEST DUP6 SWAP1 PUSH2 0x17DC JUMP JUMPDEST PUSH1 0x1 PUSH1 0x1 PUSH1 0xA0 SHL SUB DUP5 AND PUSH1 0x0 SWAP1 DUP2 MSTORE PUSH1 0x6 PUSH1 0x20 MSTORE PUSH1 0x40 SWAP1 KECCAK256 SLOAD SWAP1 SWAP2 POP PUSH2 0x24F3 SWAP1 DUP3 PUSH2 0x16F9 JUMP JUMPDEST PUSH1 0x1 PUSH1 0x1 PUSH1 0xA0 SHL SUB DUP5 AND PUSH1 0x0 SWAP1 DUP2 MSTORE PUSH1 0x6 PUSH1 0x20 SWAP1 DUP2 MSTORE PUSH1 0x40 DUP1 DUP4 KECCAK256 SWAP4 SWAP1 SWAP4 SSTORE PUSH1 0xA SWAP1 MSTORE KECCAK256 SLOAD PUSH1 0xFF AND ISZERO PUSH2 0x255D JUMPI PUSH1 0x1 PUSH1 0x1 PUSH1 0xA0 SHL SUB DUP4 AND PUSH1 0x0 SWAP1 DUP2 MSTORE PUSH1 0x7 PUSH1 0x20 MSTORE PUSH1 0x40 SWAP1 KECCAK256 SLOAD PUSH2 0x2543 SWAP1 DUP6 PUSH2 0x16F9 JUMP JUMPDEST PUSH1 0x1 PUSH1 0x1 PUSH1 0xA0 SHL SUB DUP5 AND PUSH1 0x0 SWAP1 DUP2 MSTORE PUSH1 0x7 PUSH1 0x20 MSTORE PUSH1 0x40 SWAP1 KECCAK256 SSTORE JUMPDEST DUP3 PUSH1 0x1 PUSH1 0x1 PUSH1 0xA0 SHL SUB AND DUP3 PUSH1 0x1 PUSH1 0x1 PUSH1 0xA0 SHL SUB AND PUSH32 0xDDF252AD1BE2C89B69C2B068FC378DAA952BA7F163C4A11628F55A4DF523B3EF DUP7 PUSH1 0x40 MLOAD PUSH2 0x25A2 SWAP2 DUP2 MSTORE PUSH1 0x20 ADD SWAP1 JUMP JUMPDEST PUSH1 0x40 MLOAD DUP1 SWAP2 SUB SWAP1 LOG3 POP POP POP POP JUMP JUMPDEST DUP1 CALLDATALOAD PUSH1 0x1 PUSH1 0x1 PUSH1 0xA0 SHL SUB DUP2 AND DUP2 EQ PUSH2 0x25C7 JUMPI PUSH1 0x0 DUP1 REVERT JUMPDEST SWAP2 SWAP1 POP JUMP JUMPDEST DUP1 CALLDATALOAD PUSH1 0xFF DUP2 AND DUP2 EQ PUSH2 0x25C7 JUMPI PUSH1 0x0 DUP1 REVERT JUMPDEST PUSH1 0x0 PUSH1 0x20 DUP3 DUP5 SUB SLT ISZERO PUSH2 0x25EE JUMPI DUP1 DUP2 REVERT JUMPDEST PUSH2 0xB13 DUP3 PUSH2 0x25B0 JUMP JUMPDEST PUSH1 0x0 DUP1 PUSH1 0x40 DUP4 DUP6 SUB SLT ISZERO PUSH2 0x2609 JUMPI DUP1 DUP2 REVERT JUMPDEST PUSH2 0x2612 DUP4 PUSH2 0x25B0 JUMP JUMPDEST SWAP2 POP PUSH2 0x2620 PUSH1 0x20 DUP5 ADD PUSH2 0x25B0 JUMP JUMPDEST SWAP1 POP SWAP3 POP SWAP3 SWAP1 POP JUMP JUMPDEST PUSH1 0x0 DUP1 PUSH1 0x0 PUSH1 0x60 DUP5 DUP7 SUB SLT ISZERO PUSH2 0x263D JUMPI DUP1 DUP2 REVERT JUMPDEST PUSH2 0x2646 DUP5 PUSH2 0x25B0 JUMP JUMPDEST SWAP3 POP PUSH2 0x2654 PUSH1 0x20 DUP6 ADD PUSH2 0x25B0 JUMP JUMPDEST SWAP2 POP PUSH1 0x40 DUP5 ADD CALLDATALOAD SWAP1 POP SWAP3 POP SWAP3 POP SWAP3 JUMP JUMPDEST PUSH1 0x0 DUP1 PUSH1 0x40 DUP4 DUP6 SUB SLT ISZERO PUSH2 0x2676 JUMPI DUP2 DUP3 REVERT JUMPDEST PUSH2 0x267F DUP4 PUSH2 0x25B0 JUMP JUMPDEST SWAP5 PUSH1 0x20 SWAP4 SWAP1 SWAP4 ADD CALLDATALOAD SWAP4 POP POP POP JUMP JUMPDEST PUSH1 0x0 PUSH1 0x20 DUP3 DUP5 SUB SLT ISZERO PUSH2 0x269E JUMPI DUP1 DUP2 REVERT JUMPDEST DUP2 CALLDATALOAD PUSH2 0xB13 DUP2 PUSH2 0x2A08 JUMP JUMPDEST PUSH1 0x0 PUSH1 0x20 DUP3 DUP5 SUB SLT ISZERO PUSH2 0x26BA JUMPI DUP1 DUP2 REVERT JUMPDEST DUP2 MLOAD PUSH2 0xB13 DUP2 PUSH2 0x2A08 JUMP JUMPDEST PUSH1 0x0 PUSH1 0x20 DUP3 DUP5 SUB SLT ISZERO PUSH2 0x26D6 JUMPI DUP1 DUP2 REVERT JUMPDEST POP CALLDATALOAD SWAP2 SWAP1 POP JUMP JUMPDEST PUSH1 0x0 DUP1 PUSH1 0x40 DUP4 DUP6 SUB SLT ISZERO PUSH2 0x26EF JUMPI DUP2 DUP3 REVERT JUMPDEST DUP3 CALLDATALOAD SWAP2 POP PUSH1 0x20 DUP4 ADD CALLDATALOAD PUSH2 0x2701 DUP2 PUSH2 0x2A08 JUMP JUMPDEST DUP1 SWAP2 POP POP SWAP3 POP SWAP3 SWAP1 POP JUMP JUMPDEST PUSH1 0x0 DUP1 PUSH1 0x0 PUSH1 0x60 DUP5 DUP7 SUB SLT ISZERO PUSH2 0x2720 JUMPI DUP3 DUP4 REVERT JUMPDEST DUP4 MLOAD SWAP3 POP PUSH1 0x20 DUP5 ADD MLOAD SWAP2 POP PUSH1 0x40 DUP5 ADD MLOAD SWAP1 POP SWAP3 POP SWAP3 POP SWAP3 JUMP JUMPDEST PUSH1 0x0 DUP1 PUSH1 0x0 DUP1 PUSH1 0x0 PUSH1 0xA0 DUP7 DUP9 SUB SLT ISZERO PUSH2 0x2750 JUMPI DUP1 DUP2 REVERT JUMPDEST PUSH2 0x2759 DUP7 PUSH2 0x25CC JUMP JUMPDEST SWAP5 POP PUSH2 0x2767 PUSH1 0x20 DUP8 ADD PUSH2 0x25CC JUMP JUMPDEST SWAP4 POP PUSH2 0x2775 PUSH1 0x40 DUP8 ADD PUSH2 0x25CC JUMP JUMPDEST SWAP3 POP PUSH2 0x2783 PUSH1 0x60 DUP8 ADD PUSH2 0x25CC JUMP JUMPDEST SWAP2 POP PUSH2 0x2791 PUSH1 0x80 DUP8 ADD PUSH2 0x25CC JUMP JUMPDEST SWAP1 POP SWAP3 SWAP6 POP SWAP3 SWAP6 SWAP1 SWAP4 POP JUMP JUMPDEST PUSH1 0x0 PUSH1 0x20 DUP1 DUP4 MSTORE DUP4 MLOAD DUP1 DUP3 DUP6 ADD MSTORE DUP3 JUMPDEST DUP2 DUP2 LT ISZERO PUSH2 0x27C9 JUMPI DUP6 DUP2 ADD DUP4 ADD MLOAD DUP6 DUP3 ADD PUSH1 0x40 ADD MSTORE DUP3 ADD PUSH2 0x27AD JUMP JUMPDEST DUP2 DUP2 GT ISZERO PUSH2 0x27DA JUMPI DUP4 PUSH1 0x40 DUP4 DUP8 ADD ADD MSTORE JUMPDEST POP PUSH1 0x1F ADD PUSH1 0x1F NOT AND SWAP3 SWAP1 SWAP3 ADD PUSH1 0x40 ADD SWAP4 SWAP3 POP POP POP JUMP JUMPDEST PUSH1 0x20 DUP1 DUP3 MSTORE DUP2 DUP2 ADD MSTORE PUSH32 0x4F776E61626C653A2063616C6C6572206973206E6F7420746865206F776E6572 PUSH1 0x40 DUP3 ADD MSTORE PUSH1 0x60 ADD SWAP1 JUMP JUMPDEST PUSH1 0x20 DUP1 DUP3 MSTORE PUSH1 0x36 SWAP1 DUP3 ADD MSTORE PUSH32 0x4D696E6F72697479546F6B656E3A2057616C6C65742063616E27742062652073 PUSH1 0x40 DUP3 ADD MSTORE PUSH22 0x657420746F20746865207A65726F2061646472657373 PUSH1 0x50 SHL PUSH1 0x60 DUP3 ADD MSTORE PUSH1 0x80 ADD SWAP1 JUMP JUMPDEST PUSH1 0x0 DUP3 NOT DUP3 GT ISZERO PUSH2 0x288E JUMPI PUSH2 0x288E PUSH2 0x29F2 JUMP JUMPDEST POP ADD SWAP1 JUMP JUMPDEST PUSH1 0x0 DUP3 PUSH2 0x28AE JUMPI PUSH4 0x4E487B71 PUSH1 0xE0 SHL DUP2 MSTORE PUSH1 0x12 PUSH1 0x4 MSTORE PUSH1 0x24 DUP2 REVERT JUMPDEST POP DIV SWAP1 JUMP JUMPDEST PUSH1 0x1 DUP2 DUP2 JUMPDEST DUP1 DUP6 GT ISZERO PUSH2 0x28EE JUMPI DUP2 PUSH1 0x0 NOT DIV DUP3 GT ISZERO PUSH2 0x28D4 JUMPI PUSH2 0x28D4 PUSH2 0x29F2 JUMP JUMPDEST DUP1 DUP6 AND ISZERO PUSH2 0x28E1 JUMPI SWAP2 DUP2 MUL SWAP2 JUMPDEST SWAP4 DUP5 SHR SWAP4 SWAP1 DUP1 MUL SWAP1 PUSH2 0x28B8 JUMP JUMPDEST POP SWAP3 POP SWAP3 SWAP1 POP JUMP JUMPDEST PUSH1 0x0 PUSH2 0xB13 PUSH1 0xFF DUP5 AND DUP4 PUSH1 0x0 DUP3 PUSH2 0x290F JUMPI POP PUSH1 0x1 PUSH2 0x9EE JUMP JUMPDEST DUP2 PUSH2 0x291C JUMPI POP PUSH1 0x0 PUSH2 0x9EE JUMP JUMPDEST DUP2 PUSH1 0x1 DUP2 EQ PUSH2 0x2932 JUMPI PUSH1 0x2 DUP2 EQ PUSH2 0x293C JUMPI PUSH2 0x2958 JUMP JUMPDEST PUSH1 0x1 SWAP2 POP POP PUSH2 0x9EE JUMP JUMPDEST PUSH1 0xFF DUP5 GT ISZERO PUSH2 0x294D JUMPI PUSH2 0x294D PUSH2 0x29F2 JUMP JUMPDEST POP POP PUSH1 0x1 DUP3 SHL PUSH2 0x9EE JUMP JUMPDEST POP PUSH1 0x20 DUP4 LT PUSH2 0x133 DUP4 LT AND PUSH1 0x4E DUP5 LT PUSH1 0xB DUP5 LT AND OR ISZERO PUSH2 0x297B JUMPI POP DUP2 DUP2 EXP PUSH2 0x9EE JUMP JUMPDEST PUSH2 0x2985 DUP4 DUP4 PUSH2 0x28B3 JUMP JUMPDEST DUP1 PUSH1 0x0 NOT DIV DUP3 GT ISZERO PUSH2 0x2999 JUMPI PUSH2 0x2999 PUSH2 0x29F2 JUMP JUMPDEST MUL SWAP4 SWAP3 POP POP POP JUMP JUMPDEST PUSH1 0x0 DUP2 PUSH1 0x0 NOT DIV DUP4 GT DUP3 ISZERO ISZERO AND ISZERO PUSH2 0x29BB JUMPI PUSH2 0x29BB PUSH2 0x29F2 JUMP JUMPDEST POP MUL SWAP1 JUMP JUMPDEST PUSH1 0x0 DUP3 DUP3 LT ISZERO PUSH2 0x29D2 JUMPI PUSH2 0x29D2 PUSH2 0x29F2 JUMP JUMPDEST POP SUB SWAP1 JUMP JUMPDEST PUSH1 0x0 PUSH1 0x0 NOT DUP3 EQ ISZERO PUSH2 0x29EB JUMPI PUSH2 0x29EB PUSH2 0x29F2 JUMP JUMPDEST POP PUSH1 0x1 ADD SWAP1 JUMP JUMPDEST PUSH4 0x4E487B71 PUSH1 0xE0 SHL PUSH1 0x0 MSTORE PUSH1 0x11 PUSH1 0x4 MSTORE PUSH1 0x24 PUSH1 0x0 REVERT JUMPDEST DUP1 ISZERO ISZERO DUP2 EQ PUSH2 0x2A16 JUMPI PUSH1 0x0 DUP1 REVERT JUMPDEST POP JUMP INVALID 0x4D PUSH10 0x6E6F72697479546F6B65 PUSH15 0x3A2064656372656173656420616C6C PUSH16 0x77616E63652062656C6F77207A65726F 0x4D PUSH10 0x6E6F72697479546F6B65 PUSH15 0x3A207472616E7366657220616D6F75 PUSH15 0x74206578636565647320616C6C6F77 PUSH2 0x6E63 PUSH6 0xA26469706673 PC 0x22 SLT KECCAK256 SWAP1 0x5E DUP9 0xE5 0xE0 PUSH31 0x80B48242D95CA6C56C7E942F5ADB9085F01F7EB354CA7F4DD25D64736F6C63 NUMBER STOP ADDMOD DIV STOP CALLER PUSH1 0xE0 PUSH1 0x40 MSTORE CALLVALUE DUP1 ISZERO PUSH2 0x10 JUMPI PUSH1 0x0 DUP1 REVERT JUMPDEST POP PUSH1 0x0 DUP1 SLOAD PUSH1 0x1 PUSH1 0x1 PUSH1 0xA0 SHL SUB NOT AND CALLER SWAP1 DUP2 OR DUP3 SSTORE PUSH1 0x40 MLOAD SWAP1 SWAP2 DUP3 SWAP2 PUSH32 0x8BE0079C531659141344CD1FD0A4F28419497F9722A3DAAFE3B4186F6B6457E0 SWAP1 DUP3 SWAP1 LOG3 POP CALLER PUSH1 0x60 DUP2 SWAP1 SHL PUSH1 0x80 MSTORE PUSH31 0xD06725663411E6D4599F0B630AB003D4290EBA000000000000000000000000 PUSH1 0xA0 MSTORE PUSH32 0xA5E0829CACED8FFDD4DE3C43696C57F7D7A678FF000000000000000000000000 PUSH1 0xC0 MSTORE PUSH19 0xD06725663411E6D4599F0B630AB003D4290EBA PUSH20 0xA5E0829CACED8FFDD4DE3C43696C57F7D7A678FF PUSH2 0xD93 PUSH2 0x13D PUSH1 0x0 CODECOPY PUSH1 0x0 DUP2 DUP2 PUSH2 0x1A9 ADD MSTORE DUP2 DUP2 PUSH2 0x66C ADD MSTORE DUP2 DUP2 PUSH2 0x731 ADD MSTORE DUP2 DUP2 PUSH2 0x863 ADD MSTORE DUP2 DUP2 PUSH2 0x92F ADD MSTORE PUSH2 0x9E2 ADD MSTORE PUSH1 0x0 DUP2 DUP2 PUSH1 0xA8 ADD MSTORE DUP2 DUP2 PUSH2 0x7C4 ADD MSTORE PUSH2 0x95E ADD MSTORE PUSH1 0x0 DUP2 DUP2 PUSH2 0x14D ADD MSTORE DUP2 DUP2 PUSH2 0x5B2 ADD MSTORE DUP2 DUP2 PUSH2 0x69B ADD MSTORE DUP2 DUP2 PUSH2 0x899 ADD MSTORE PUSH2 0xA11 ADD MSTORE PUSH2 0xD93 PUSH1 0x0 RETURN INVALID PUSH1 0x80 PUSH1 0x40 MSTORE CALLVALUE DUP1 ISZERO PUSH2 0x10 JUMPI PUSH1 0x0 DUP1 REVERT JUMPDEST POP PUSH1 0x4 CALLDATASIZE LT PUSH2 0x9E JUMPI PUSH1 0x0 CALLDATALOAD PUSH1 0xE0 SHR DUP1 PUSH4 0x715018A6 GT PUSH2 0x66 JUMPI DUP1 PUSH4 0x715018A6 EQ PUSH2 0x16F JUMPI DUP1 PUSH4 0x89A30271 EQ PUSH2 0x179 JUMPI DUP1 PUSH4 0x8DA5CB5B EQ PUSH2 0x193 JUMPI DUP1 PUSH4 0xC31C9C07 EQ PUSH2 0x1A4 JUMPI DUP1 PUSH4 0xF2FDE38B EQ PUSH2 0x1CB JUMPI PUSH1 0x0 DUP1 REVERT JUMPDEST DUP1 PUSH4 0x11EAC855 EQ PUSH2 0xA3 JUMPI DUP1 PUSH4 0x173865AD EQ PUSH2 0xE7 JUMPI DUP1 PUSH4 0x2AE56454 EQ PUSH2 0x115 JUMPI DUP1 PUSH4 0x32FE7B26 EQ PUSH2 0x12D JUMPI DUP1 PUSH4 0x5A533EFD EQ PUSH2 0x148 JUMPI JUMPDEST PUSH1 0x0 DUP1 REVERT JUMPDEST PUSH2 0xCA PUSH32 0x0 DUP2 JUMP JUMPDEST PUSH1 0x40 MLOAD PUSH1 0x1 PUSH1 0x1 PUSH1 0xA0 SHL SUB SWAP1 SWAP2 AND DUP2 MSTORE PUSH1 0x20 ADD JUMPDEST PUSH1 0x40 MLOAD DUP1 SWAP2 SUB SWAP1 RETURN JUMPDEST PUSH2 0xFA PUSH2 0xF5 CALLDATASIZE PUSH1 0x4 PUSH2 0xBC5 JUMP JUMPDEST PUSH2 0x1DE JUMP JUMPDEST PUSH1 0x40 DUP1 MLOAD SWAP4 DUP5 MSTORE PUSH1 0x20 DUP5 ADD SWAP3 SWAP1 SWAP3 MSTORE SWAP1 DUP3 ADD MSTORE PUSH1 0x60 ADD PUSH2 0xDE JUMP JUMPDEST PUSH2 0x11D PUSH2 0x2E6 JUMP JUMPDEST PUSH1 0x40 MLOAD SWAP1 ISZERO ISZERO DUP2 MSTORE PUSH1 0x20 ADD PUSH2 0xDE JUMP JUMPDEST PUSH2 0xCA PUSH20 0xA5E0829CACED8FFDD4DE3C43696C57F7D7A678FF DUP2 JUMP JUMPDEST PUSH2 0xCA PUSH32 0x0 DUP2 JUMP JUMPDEST PUSH2 0x177 PUSH2 0x31B JUMP JUMPDEST STOP JUMPDEST PUSH2 0xCA PUSH19 0xD06725663411E6D4599F0B630AB003D4290EBA DUP2 JUMP JUMPDEST PUSH1 0x0 SLOAD PUSH1 0x1 PUSH1 0x1 PUSH1 0xA0 SHL SUB AND PUSH2 0xCA JUMP JUMPDEST PUSH2 0xCA PUSH32 0x0 DUP2 JUMP JUMPDEST PUSH2 0x177 PUSH2 0x1D9 CALLDATASIZE PUSH1 0x4 PUSH2 0xB7E JUMP JUMPDEST PUSH2 0x38F JUMP JUMPDEST PUSH1 0x3 DUP1 SLOAD PUSH1 0xFF NOT AND PUSH1 0x1 OR SWAP1 SSTORE PUSH1 0x0 DUP1 DUP1 PUSH2 0x1F6 CALLER SWAP1 JUMP JUMPDEST PUSH1 0x0 SLOAD PUSH1 0x1 PUSH1 0x1 PUSH1 0xA0 SHL SUB SWAP1 DUP2 AND SWAP2 AND EQ PUSH2 0x22C JUMPI PUSH1 0x40 MLOAD PUSH3 0x461BCD PUSH1 0xE5 SHL DUP2 MSTORE PUSH1 0x4 ADD PUSH2 0x223 SWAP1 PUSH2 0xC75 JUMP JUMPDEST PUSH1 0x40 MLOAD DUP1 SWAP2 SUB SWAP1 REVERT JUMPDEST PUSH1 0x0 DUP5 GT PUSH2 0x290 JUMPI PUSH1 0x40 MLOAD PUSH3 0x461BCD PUSH1 0xE5 SHL DUP2 MSTORE PUSH1 0x20 PUSH1 0x4 DUP3 ADD MSTORE PUSH1 0x2B PUSH1 0x24 DUP3 ADD MSTORE PUSH32 0x4D696E6F726974794C69717569646974794D616E616765723A204E6F20746F6B PUSH1 0x44 DUP3 ADD MSTORE PUSH11 0x656E7320746F207377617 PUSH1 0xAC SHL PUSH1 0x64 DUP3 ADD MSTORE PUSH1 0x84 ADD PUSH2 0x223 JUMP JUMPDEST PUSH1 0x0 PUSH2 0x29D DUP6 PUSH1 0x2 PUSH2 0x479 JUMP JUMPDEST SWAP1 POP PUSH1 0x0 PUSH2 0x2AB DUP7 DUP4 PUSH2 0x4C2 JUMP JUMPDEST SWAP1 POP PUSH1 0x0 PUSH2 0x2B8 DUP4 PUSH2 0x504 JUMP JUMPDEST SWAP1 POP PUSH1 0x0 DUP1 PUSH1 0x0 PUSH2 0x2C9 DUP6 DUP6 PUSH2 0x84C JUMP JUMPDEST PUSH1 0x3 DUP1 SLOAD PUSH1 0xFF NOT AND SWAP1 SSTORE SWAP2 SWAP13 SWAP1 SWAP12 POP SWAP1 SWAP10 POP SWAP8 POP POP POP POP POP POP POP POP JUMP JUMPDEST PUSH1 0x0 DUP1 SLOAD PUSH1 0x1 PUSH1 0x1 PUSH1 0xA0 SHL SUB AND CALLER EQ PUSH2 0x311 JUMPI PUSH1 0x40 MLOAD PUSH3 0x461BCD PUSH1 0xE5 SHL DUP2 MSTORE PUSH1 0x4 ADD PUSH2 0x223 SWAP1 PUSH2 0xC75 JUMP JUMPDEST POP PUSH1 0x3 SLOAD PUSH1 0xFF AND SWAP1 JUMP JUMPDEST PUSH1 0x0 SLOAD PUSH1 0x1 PUSH1 0x1 PUSH1 0xA0 SHL SUB AND CALLER EQ PUSH2 0x345 JUMPI PUSH1 0x40 MLOAD PUSH3 0x461BCD PUSH1 0xE5 SHL DUP2 MSTORE PUSH1 0x4 ADD PUSH2 0x223 SWAP1 PUSH2 0xC75 JUMP JUMPDEST PUSH1 0x0 DUP1 SLOAD PUSH1 0x40 MLOAD PUSH1 0x1 PUSH1 0x1 PUSH1 0xA0 SHL SUB SWAP1 SWAP2 AND SWAP1 PUSH32 0x8BE0079C531659141344CD1FD0A4F28419497F9722A3DAAFE3B4186F6B6457E0 SWAP1 DUP4 SWAP1 LOG3 PUSH1 0x0 DUP1 SLOAD PUSH1 0x1 PUSH1 0x1 PUSH1 0xA0 SHL SUB NOT AND SWAP1 SSTORE JUMP JUMPDEST PUSH1 0x0 SLOAD PUSH1 0x1 PUSH1 0x1 PUSH1 0xA0 SHL SUB AND CALLER EQ PUSH2 0x3B9 JUMPI PUSH1 0x40 MLOAD PUSH3 0x461BCD PUSH1 0xE5 SHL DUP2 MSTORE PUSH1 0x4 ADD PUSH2 0x223 SWAP1 PUSH2 0xC75 JUMP JUMPDEST PUSH1 0x1 PUSH1 0x1 PUSH1 0xA0 SHL SUB DUP2 AND PUSH2 0x41E JUMPI PUSH1 0x40 MLOAD PUSH3 0x461BCD PUSH1 0xE5 SHL DUP2 MSTORE PUSH1 0x20 PUSH1 0x4 DUP3 ADD MSTORE PUSH1 0x26 PUSH1 0x24 DUP3 ADD MSTORE PUSH32 0x4F776E61626C653A206E6577206F776E657220697320746865207A65726F2061 PUSH1 0x44 DUP3 ADD MSTORE PUSH6 0x646472657373 PUSH1 0xD0 SHL PUSH1 0x64 DUP3 ADD MSTORE PUSH1 0x84 ADD PUSH2 0x223 JUMP JUMPDEST PUSH1 0x0 DUP1 SLOAD PUSH1 0x40 MLOAD PUSH1 0x1 PUSH1 0x1 PUSH1 0xA0 SHL SUB DUP1 DUP6 AND SWAP4 SWAP3 AND SWAP2 PUSH32 0x8BE0079C531659141344CD1FD0A4F28419497F9722A3DAAFE3B4186F6B6457E0 SWAP2 LOG3 PUSH1 0x0 DUP1 SLOAD PUSH1 0x1 PUSH1 0x1 PUSH1 0xA0 SHL SUB NOT AND PUSH1 0x1 PUSH1 0x1 PUSH1 0xA0 SHL SUB SWAP3 SWAP1 SWAP3 AND SWAP2 SWAP1 SWAP2 OR SWAP1 SSTORE JUMP JUMPDEST PUSH1 0x0 PUSH2 0x4BB DUP4 DUP4 PUSH1 0x40 MLOAD DUP1 PUSH1 0x40 ADD PUSH1 0x40 MSTORE DUP1 PUSH1 0x1A DUP2 MSTORE PUSH1 0x20 ADD PUSH32 0x536166654D6174683A206469766973696F6E206279207A65726F000000000000 DUP2 MSTORE POP PUSH2 0xB16 JUMP JUMPDEST SWAP4 SWAP3 POP POP POP JUMP JUMPDEST PUSH1 0x0 PUSH2 0x4BB DUP4 DUP4 PUSH1 0x40 MLOAD DUP1 PUSH1 0x40 ADD PUSH1 0x40 MSTORE DUP1 PUSH1 0x1E DUP2 MSTORE PUSH1 0x20 ADD PUSH32 0x536166654D6174683A207375627472616374696F6E206F766572666C6F770000 DUP2 MSTORE POP PUSH2 0xB4D JUMP JUMPDEST PUSH1 0x40 MLOAD PUSH4 0x70A08231 PUSH1 0xE0 SHL DUP2 MSTORE ADDRESS PUSH1 0x4 DUP3 ADD MSTORE PUSH1 0x0 SWAP1 DUP2 SWAP1 PUSH19 0xD06725663411E6D4599F0B630AB003D4290EBA SWAP1 PUSH4 0x70A08231 SWAP1 PUSH1 0x24 ADD PUSH1 0x20 PUSH1 0x40 MLOAD DUP1 DUP4 SUB DUP2 DUP7 DUP1 EXTCODESIZE ISZERO DUP1 ISZERO PUSH2 0x552 JUMPI PUSH1 0x0 DUP1 REVERT JUMPDEST POP GAS STATICCALL ISZERO DUP1 ISZERO PUSH2 0x566 JUMPI RETURNDATASIZE PUSH1 0x0 DUP1 RETURNDATACOPY RETURNDATASIZE PUSH1 0x0 REVERT JUMPDEST POP POP POP POP PUSH1 0x40 MLOAD RETURNDATASIZE PUSH1 0x1F NOT PUSH1 0x1F DUP3 ADD AND DUP3 ADD DUP1 PUSH1 0x40 MSTORE POP DUP2 ADD SWAP1 PUSH2 0x58A SWAP2 SWAP1 PUSH2 0xBDD JUMP JUMPDEST PUSH1 0x40 DUP1 MLOAD PUSH1 0x2 DUP1 DUP3 MSTORE PUSH1 0x60 DUP3 ADD DUP4 MSTORE SWAP3 SWAP4 POP PUSH1 0x0 SWAP3 SWAP1 SWAP2 PUSH1 0x20 DUP4 ADD SWAP1 DUP1 CALLDATASIZE DUP4 CALLDATACOPY ADD SWAP1 POP POP SWAP1 POP PUSH32 0x0 DUP2 PUSH1 0x0 DUP2 MLOAD DUP2 LT PUSH2 0x5F2 JUMPI PUSH4 0x4E487B71 PUSH1 0xE0 SHL PUSH1 0x0 MSTORE PUSH1 0x32 PUSH1 0x4 MSTORE PUSH1 0x24 PUSH1 0x0 REVERT JUMPDEST PUSH1 0x20 MUL PUSH1 0x20 ADD ADD SWAP1 PUSH1 0x1 PUSH1 0x1 PUSH1 0xA0 SHL SUB AND SWAP1 DUP2 PUSH1 0x1 PUSH1 0x1 PUSH1 0xA0 SHL SUB AND DUP2 MSTORE POP POP PUSH19 0xD06725663411E6D4599F0B630AB003D4290EBA DUP2 PUSH1 0x1 DUP2 MLOAD DUP2 LT PUSH2 0x647 JUMPI PUSH4 0x4E487B71 PUSH1 0xE0 SHL PUSH1 0x0 MSTORE PUSH1 0x32 PUSH1 0x4 MSTORE PUSH1 0x24 PUSH1 0x0 REVERT JUMPDEST PUSH1 0x1 PUSH1 0x1 PUSH1 0xA0 SHL SUB SWAP3 DUP4 AND PUSH1 0x20 SWAP2 DUP3 MUL SWAP3 SWAP1 SWAP3 ADD ADD MSTORE PUSH1 0x40 MLOAD PUSH4 0x95EA7B3 PUSH1 0xE0 SHL DUP2 MSTORE PUSH32 0x0 DUP3 AND PUSH1 0x4 DUP3 ADD MSTORE PUSH1 0x24 DUP2 ADD DUP7 SWAP1 MSTORE PUSH32 0x0 SWAP1 SWAP2 AND SWAP1 PUSH4 0x95EA7B3 SWAP1 PUSH1 0x44 ADD PUSH1 0x20 PUSH1 0x40 MLOAD DUP1 DUP4 SUB DUP2 PUSH1 0x0 DUP8 DUP1 EXTCODESIZE ISZERO DUP1 ISZERO PUSH2 0x6E1 JUMPI PUSH1 0x0 DUP1 REVERT JUMPDEST POP GAS CALL ISZERO DUP1 ISZERO PUSH2 0x6F5 JUMPI RETURNDATASIZE PUSH1 0x0 DUP1 RETURNDATACOPY RETURNDATASIZE PUSH1 0x0 REVERT JUMPDEST POP POP POP POP PUSH1 0x40 MLOAD RETURNDATASIZE PUSH1 0x1F NOT PUSH1 0x1F DUP3 ADD AND DUP3 ADD DUP1 PUSH1 0x40 MSTORE POP DUP2 ADD SWAP1 PUSH2 0x719 SWAP2 SWAP1 PUSH2 0xBA5 JUMP JUMPDEST POP PUSH1 0x40 MLOAD PUSH4 0x5C11D795 PUSH1 0xE0 SHL DUP2 MSTORE PUSH1 0x1 PUSH1 0x1 PUSH1 0xA0 SHL SUB PUSH32 0x0 AND SWAP1 PUSH4 0x5C11D795 SWAP1 PUSH2 0x76F SWAP1 DUP8 SWAP1 PUSH1 0x0 SWAP1 DUP7 SWAP1 ADDRESS SWAP1 TIMESTAMP SWAP1 PUSH1 0x4 ADD PUSH2 0xCAA JUMP JUMPDEST PUSH1 0x0 PUSH1 0x40 MLOAD DUP1 DUP4 SUB DUP2 PUSH1 0x0 DUP8 DUP1 EXTCODESIZE ISZERO DUP1 ISZERO PUSH2 0x789 JUMPI PUSH1 0x0 DUP1 REVERT JUMPDEST POP GAS CALL ISZERO DUP1 ISZERO PUSH2 0x79D JUMPI RETURNDATASIZE PUSH1 0x0 DUP1 RETURNDATACOPY RETURNDATASIZE PUSH1 0x0 REVERT JUMPDEST POP POP PUSH1 0x40 MLOAD PUSH4 0x70A08231 PUSH1 0xE0 SHL DUP2 MSTORE ADDRESS PUSH1 0x4 DUP3 ADD MSTORE PUSH2 0x844 SWAP3 POP DUP5 SWAP2 POP PUSH1 0x1 PUSH1 0x1 PUSH1 0xA0 SHL SUB PUSH32 0x0 AND SWAP1 PUSH4 0x70A08231 SWAP1 PUSH1 0x24 ADD PUSH1 0x20 PUSH1 0x40 MLOAD DUP1 DUP4 SUB DUP2 DUP7 DUP1 EXTCODESIZE ISZERO DUP1 ISZERO PUSH2 0x806 JUMPI PUSH1 0x0 DUP1 REVERT JUMPDEST POP GAS STATICCALL ISZERO DUP1 ISZERO PUSH2 0x81A JUMPI RETURNDATASIZE PUSH1 0x0 DUP1 RETURNDATACOPY RETURNDATASIZE PUSH1 0x0 REVERT JUMPDEST POP POP POP POP PUSH1 0x40 MLOAD RETURNDATASIZE PUSH1 0x1F NOT PUSH1 0x1F DUP3 ADD AND DUP3 ADD DUP1 PUSH1 0x40 MSTORE POP DUP2 ADD SWAP1 PUSH2 0x83E SWAP2 SWAP1 PUSH2 0xBDD JUMP JUMPDEST SWAP1 PUSH2 0x4C2 JUMP JUMPDEST SWAP5 SWAP4 POP POP POP POP JUMP JUMPDEST PUSH1 0x40 MLOAD PUSH4 0x95EA7B3 PUSH1 0xE0 SHL DUP2 MSTORE PUSH1 0x1 PUSH1 0x1 PUSH1 0xA0 SHL SUB PUSH32 0x0 DUP2 AND PUSH1 0x4 DUP4 ADD MSTORE PUSH1 0x24 DUP3 ADD DUP5 SWAP1 MSTORE PUSH1 0x0 SWAP2 DUP3 SWAP2 DUP3 SWAP2 PUSH32 0x0 SWAP1 SWAP2 AND SWAP1 PUSH4 0x95EA7B3 SWAP1 PUSH1 0x44 ADD PUSH1 0x20 PUSH1 0x40 MLOAD DUP1 DUP4 SUB DUP2 PUSH1 0x0 DUP8 DUP1 EXTCODESIZE ISZERO DUP1 ISZERO PUSH2 0x8DF JUMPI PUSH1 0x0 DUP1 REVERT JUMPDEST POP GAS CALL ISZERO DUP1 ISZERO PUSH2 0x8F3 JUMPI RETURNDATASIZE PUSH1 0x0 DUP1 RETURNDATACOPY RETURNDATASIZE PUSH1 0x0 REVERT JUMPDEST POP POP POP POP PUSH1 0x40 MLOAD RETURNDATASIZE PUSH1 0x1F NOT PUSH1 0x1F DUP3 ADD AND DUP3 ADD DUP1 PUSH1 0x40 MSTORE POP DUP2 ADD SWAP1 PUSH2 0x917 SWAP2 SWAP1 PUSH2 0xBA5 JUMP JUMPDEST POP PUSH1 0x40 MLOAD PUSH4 0x95EA7B3 PUSH1 0xE0 SHL DUP2 MSTORE PUSH1 0x1 PUSH1 0x1 PUSH1 0xA0 SHL SUB PUSH32 0x0 DUP2 AND PUSH1 0x4 DUP4 ADD MSTORE PUSH1 0x24 DUP3 ADD DUP7 SWAP1 MSTORE PUSH32 0x0 AND SWAP1 PUSH4 0x95EA7B3 SWAP1 PUSH1 0x44 ADD PUSH1 0x20 PUSH1 0x40 MLOAD DUP1 DUP4 SUB DUP2 PUSH1 0x0 DUP8 DUP1 EXTCODESIZE ISZERO DUP1 ISZERO PUSH2 0x9A2 JUMPI PUSH1 0x0 DUP1 REVERT JUMPDEST POP GAS CALL ISZERO DUP1 ISZERO PUSH2 0x9B6 JUMPI RETURNDATASIZE PUSH1 0x0 DUP1 RETURNDATACOPY RETURNDATASIZE PUSH1 0x0 REVERT JUMPDEST POP POP POP POP PUSH1 0x40 MLOAD RETURNDATASIZE PUSH1 0x1F NOT PUSH1 0x1F DUP3 ADD AND DUP3 ADD DUP1 PUSH1 0x40 MSTORE POP DUP2 ADD SWAP1 PUSH2 0x9DA SWAP2 SWAP1 PUSH2 0xBA5 JUMP JUMPDEST POP PUSH1 0x0 DUP1 PUSH1 0x0 PUSH32 0x0 PUSH1 0x1 PUSH1 0x1 PUSH1 0xA0 SHL SUB AND PUSH4 0xE8E33700 PUSH32 0x0 PUSH19 0xD06725663411E6D4599F0B630AB003D4290EBA DUP12 DUP12 PUSH1 0x0 DUP1 PUSH2 0xA5B PUSH1 0x0 SLOAD PUSH1 0x1 PUSH1 0x1 PUSH1 0xA0 SHL SUB AND SWAP1 JUMP JUMPDEST PUSH1 0x40 MLOAD PUSH1 0xE0 DUP10 SWAP1 SHL PUSH1 0x1 PUSH1 0x1 PUSH1 0xE0 SHL SUB NOT AND DUP2 MSTORE PUSH1 0x1 PUSH1 0x1 PUSH1 0xA0 SHL SUB SWAP8 DUP9 AND PUSH1 0x4 DUP3 ADD MSTORE SWAP6 DUP8 AND PUSH1 0x24 DUP8 ADD MSTORE PUSH1 0x44 DUP7 ADD SWAP5 SWAP1 SWAP5 MSTORE PUSH1 0x64 DUP6 ADD SWAP3 SWAP1 SWAP3 MSTORE PUSH1 0x84 DUP5 ADD MSTORE PUSH1 0xA4 DUP4 ADD MSTORE SWAP1 SWAP2 AND PUSH1 0xC4 DUP3 ADD MSTORE TIMESTAMP PUSH1 0xE4 DUP3 ADD MSTORE PUSH2 0x104 ADD PUSH1 0x60 PUSH1 0x40 MLOAD DUP1 DUP4 SUB DUP2 PUSH1 0x0 DUP8 DUP1 EXTCODESIZE ISZERO DUP1 ISZERO PUSH2 0xACD JUMPI PUSH1 0x0 DUP1 REVERT JUMPDEST POP GAS CALL ISZERO DUP1 ISZERO PUSH2 0xAE1 JUMPI RETURNDATASIZE PUSH1 0x0 DUP1 RETURNDATACOPY RETURNDATASIZE PUSH1 0x0 REVERT JUMPDEST POP POP POP POP PUSH1 0x40 MLOAD RETURNDATASIZE PUSH1 0x1F NOT PUSH1 0x1F DUP3 ADD AND DUP3 ADD DUP1 PUSH1 0x40 MSTORE POP DUP2 ADD SWAP1 PUSH2 0xB05 SWAP2 SWAP1 PUSH2 0xBF5 JUMP JUMPDEST SWAP2 SWAP8 POP SWAP6 POP SWAP4 POP POP POP POP SWAP3 POP SWAP3 POP SWAP3 JUMP JUMPDEST PUSH1 0x0 DUP2 DUP4 PUSH2 0xB37 JUMPI PUSH1 0x40 MLOAD PUSH3 0x461BCD PUSH1 0xE5 SHL DUP2 MSTORE PUSH1 0x4 ADD PUSH2 0x223 SWAP2 SWAP1 PUSH2 0xC22 JUMP JUMPDEST POP PUSH1 0x0 PUSH2 0xB44 DUP5 DUP7 PUSH2 0xD1A JUMP JUMPDEST SWAP6 SWAP5 POP POP POP POP POP JUMP JUMPDEST PUSH1 0x0 DUP2 DUP5 DUP5 GT ISZERO PUSH2 0xB71 JUMPI PUSH1 0x40 MLOAD PUSH3 0x461BCD PUSH1 0xE5 SHL DUP2 MSTORE PUSH1 0x4 ADD PUSH2 0x223 SWAP2 SWAP1 PUSH2 0xC22 JUMP JUMPDEST POP PUSH1 0x0 PUSH2 0xB44 DUP5 DUP7 PUSH2 0xD3A JUMP JUMPDEST PUSH1 0x0 PUSH1 0x20 DUP3 DUP5 SUB SLT ISZERO PUSH2 0xB8F JUMPI DUP1 DUP2 REVERT JUMPDEST DUP2 CALLDATALOAD PUSH1 0x1 PUSH1 0x1 PUSH1 0xA0 SHL SUB DUP2 AND DUP2 EQ PUSH2 0x4BB JUMPI DUP2 DUP3 REVERT JUMPDEST PUSH1 0x0 PUSH1 0x20 DUP3 DUP5 SUB SLT ISZERO PUSH2 0xBB6 JUMPI DUP1 DUP2 REVERT JUMPDEST DUP2 MLOAD DUP1 ISZERO ISZERO DUP2 EQ PUSH2 0x4BB JUMPI DUP2 DUP3 REVERT JUMPDEST PUSH1 0x0 PUSH1 0x20 DUP3 DUP5 SUB SLT ISZERO PUSH2 0xBD6 JUMPI DUP1 DUP2 REVERT JUMPDEST POP CALLDATALOAD SWAP2 SWAP1 POP JUMP JUMPDEST PUSH1 0x0 PUSH1 0x20 DUP3 DUP5 SUB SLT ISZERO PUSH2 0xBEE JUMPI DUP1 DUP2 REVERT JUMPDEST POP MLOAD SWAP2 SWAP1 POP JUMP JUMPDEST PUSH1 0x0 DUP1 PUSH1 0x0 PUSH1 0x60 DUP5 DUP7 SUB SLT ISZERO PUSH2 0xC09 JUMPI DUP2 DUP3 REVERT JUMPDEST DUP4 MLOAD SWAP3 POP PUSH1 0x20 DUP5 ADD MLOAD SWAP2 POP PUSH1 0x40 DUP5 ADD MLOAD SWAP1 POP SWAP3 POP SWAP3 POP SWAP3 JUMP JUMPDEST PUSH1 0x0 PUSH1 0x20 DUP1 DUP4 MSTORE DUP4 MLOAD DUP1 DUP3 DUP6 ADD MSTORE DUP3 JUMPDEST DUP2 DUP2 LT ISZERO PUSH2 0xC4E JUMPI DUP6 DUP2 ADD DUP4 ADD MLOAD DUP6 DUP3 ADD PUSH1 0x40 ADD MSTORE DUP3 ADD PUSH2 0xC32 JUMP JUMPDEST DUP2 DUP2 GT ISZERO PUSH2 0xC5F JUMPI DUP4 PUSH1 0x40 DUP4 DUP8 ADD ADD MSTORE JUMPDEST POP PUSH1 0x1F ADD PUSH1 0x1F NOT AND SWAP3 SWAP1 SWAP3 ADD PUSH1 0x40 ADD SWAP4 SWAP3 POP POP POP JUMP JUMPDEST PUSH1 0x20 DUP1 DUP3 MSTORE DUP2 DUP2 ADD MSTORE PUSH32 0x4F776E61626C653A2063616C6C6572206973206E6F7420746865206F776E6572 PUSH1 0x40 DUP3 ADD MSTORE PUSH1 0x60 ADD SWAP1 JUMP JUMPDEST PUSH1 0x0 PUSH1 0xA0 DUP3 ADD DUP8 DUP4 MSTORE PUSH1 0x20 DUP8 DUP2 DUP6 ADD MSTORE PUSH1 0xA0 PUSH1 0x40 DUP6 ADD MSTORE DUP2 DUP8 MLOAD DUP1 DUP5 MSTORE PUSH1 0xC0 DUP7 ADD SWAP2 POP DUP3 DUP10 ADD SWAP4 POP DUP5 JUMPDEST DUP2 DUP2 LT ISZERO PUSH2 0xCF9 JUMPI DUP5 MLOAD PUSH1 0x1 PUSH1 0x1 PUSH1 0xA0 SHL SUB AND DUP4 MSTORE SWAP4 DUP4 ADD SWAP4 SWAP2 DUP4 ADD SWAP2 PUSH1 0x1 ADD PUSH2 0xCD4 JUMP JUMPDEST POP POP PUSH1 0x1 PUSH1 0x1 PUSH1 0xA0 SHL SUB SWAP7 SWAP1 SWAP7 AND PUSH1 0x60 DUP6 ADD MSTORE POP POP POP PUSH1 0x80 ADD MSTORE SWAP4 SWAP3 POP POP POP JUMP JUMPDEST PUSH1 0x0 DUP3 PUSH2 0xD35 JUMPI PUSH4 0x4E487B71 PUSH1 0xE0 SHL DUP2 MSTORE PUSH1 0x12 PUSH1 0x4 MSTORE PUSH1 0x24 DUP2 REVERT JUMPDEST POP DIV SWAP1 JUMP JUMPDEST PUSH1 0x0 DUP3 DUP3 LT ISZERO PUSH2 0xD58 JUMPI PUSH4 0x4E487B71 PUSH1 0xE0 SHL DUP2 MSTORE PUSH1 0x11 PUSH1 0x4 MSTORE PUSH1 0x24 DUP2 REVERT JUMPDEST POP SUB SWAP1 JUMP INVALID LOG2 PUSH5 0x6970667358 0x22 SLT KECCAK256 SWAP1 RETURNDATASIZE STOP RETURNDATASIZE PUSH23 0x54F21F178D13C07D623F7C36A77E75EA16FC5578FECDB2 0xF7 KECCAK256 SGT 0xDB PUSH5 0x736F6C6343 STOP ADDMOD DIV STOP CALLER PUSH1 0xA0 PUSH1 0x40 MSTORE CALLVALUE DUP1 ISZERO PUSH3 0x11 JUMPI PUSH1 0x0 DUP1 REVERT JUMPDEST POP PUSH1 0x40 MLOAD PUSH3 0x19AF CODESIZE SUB DUP1 PUSH3 0x19AF DUP4 CODECOPY DUP2 ADD PUSH1 0x40 DUP2 SWAP1 MSTORE PUSH3 0x34 SWAP2 PUSH3 0x1DA JUMP JUMPDEST PUSH1 0x0 DUP1 SLOAD PUSH1 0x1 PUSH1 0x1 PUSH1 0xA0 SHL SUB NOT AND CALLER SWAP1 DUP2 OR DUP3 SSTORE PUSH1 0x40 MLOAD SWAP1 SWAP2 DUP3 SWAP2 PUSH32 0x8BE0079C531659141344CD1FD0A4F28419497F9722A3DAAFE3B4186F6B6457E0 SWAP1 DUP3 SWAP1 LOG3 POP PUSH1 0x1 PUSH1 0x1 PUSH1 0xA0 SHL SUB DUP3 AND PUSH3 0xF7 JUMPI PUSH1 0x40 MLOAD PUSH3 0x461BCD PUSH1 0xE5 SHL DUP2 MSTORE PUSH1 0x20 PUSH1 0x4 DUP3 ADD MSTORE PUSH1 0x3A PUSH1 0x24 DUP3 ADD MSTORE PUSH32 0x4D696E6F7269747956657374696E674D616E616765723A204F70657261746F72 PUSH1 0x44 DUP3 ADD MSTORE PUSH32 0x2063616E277420626520746865207A65726F2061646472657373000000000000 PUSH1 0x64 DUP3 ADD MSTORE PUSH1 0x84 ADD JUMPDEST PUSH1 0x40 MLOAD DUP1 SWAP2 SUB SWAP1 REVERT JUMPDEST PUSH1 0x1 PUSH1 0x1 PUSH1 0xA0 SHL SUB DUP2 AND PUSH3 0x186 JUMPI PUSH1 0x40 MLOAD PUSH3 0x461BCD PUSH1 0xE5 SHL DUP2 MSTORE PUSH1 0x20 PUSH1 0x4 DUP3 ADD MSTORE PUSH1 0x48 PUSH1 0x24 DUP3 ADD MSTORE PUSH32 0x4D696E6F7269747956657374696E674D616E616765723A204D696E6F72697479 PUSH1 0x44 DUP3 ADD MSTORE PUSH32 0x20746F6B656E20616464726573732063616E277420626520746865207A65726F PUSH1 0x64 DUP3 ADD MSTORE PUSH8 0x2061646472657373 PUSH1 0xC0 SHL PUSH1 0x84 DUP3 ADD MSTORE PUSH1 0xA4 ADD PUSH3 0xEE JUMP JUMPDEST PUSH1 0x3 DUP1 SLOAD PUSH1 0x1 PUSH1 0x1 PUSH1 0xA0 SHL SUB NOT AND PUSH1 0x1 PUSH1 0x1 PUSH1 0xA0 SHL SUB SWAP4 SWAP1 SWAP4 AND SWAP3 SWAP1 SWAP3 OR SWAP1 SWAP2 SSTORE PUSH1 0x60 SHL PUSH1 0x1 PUSH1 0x1 PUSH1 0x60 SHL SUB NOT AND PUSH1 0x80 MSTORE PUSH3 0x211 JUMP JUMPDEST DUP1 MLOAD PUSH1 0x1 PUSH1 0x1 PUSH1 0xA0 SHL SUB DUP2 AND DUP2 EQ PUSH3 0x1D5 JUMPI PUSH1 0x0 DUP1 REVERT JUMPDEST SWAP2 SWAP1 POP JUMP JUMPDEST PUSH1 0x0 DUP1 PUSH1 0x40 DUP4 DUP6 SUB SLT ISZERO PUSH3 0x1ED JUMPI DUP2 DUP3 REVERT JUMPDEST PUSH3 0x1F8 DUP4 PUSH3 0x1BD JUMP JUMPDEST SWAP2 POP PUSH3 0x208 PUSH1 0x20 DUP5 ADD PUSH3 0x1BD JUMP JUMPDEST SWAP1 POP SWAP3 POP SWAP3 SWAP1 POP JUMP JUMPDEST PUSH1 0x80 MLOAD PUSH1 0x60 SHR PUSH2 0x1771 PUSH3 0x23E PUSH1 0x0 CODECOPY PUSH1 0x0 DUP2 DUP2 PUSH2 0x1C7 ADD MSTORE DUP2 DUP2 PUSH2 0x7D1 ADD MSTORE PUSH2 0xD52 ADD MSTORE PUSH2 0x1771 PUSH1 0x0 RETURN INVALID PUSH1 0x80 PUSH1 0x40 MSTORE CALLVALUE DUP1 ISZERO PUSH2 0x10 JUMPI PUSH1 0x0 DUP1 REVERT JUMPDEST POP PUSH1 0x4 CALLDATASIZE LT PUSH2 0xF5 JUMPI PUSH1 0x0 CALLDATALOAD PUSH1 0xE0 SHR DUP1 PUSH4 0x715018A6 GT PUSH2 0x97 JUMPI DUP1 PUSH4 0x98FB7A98 GT PUSH2 0x66 JUMPI DUP1 PUSH4 0x98FB7A98 EQ PUSH2 0x226 JUMPI DUP1 PUSH4 0x9C86AEE8 EQ PUSH2 0x239 JUMPI DUP1 PUSH4 0x9F91D484 EQ PUSH2 0x242 JUMPI DUP1 PUSH4 0xF2FDE38B EQ PUSH2 0x255 JUMPI PUSH1 0x0 DUP1 REVERT JUMPDEST DUP1 PUSH4 0x715018A6 EQ PUSH2 0x1FC JUMPI DUP1 PUSH4 0x84F61358 EQ PUSH2 0x204 JUMPI DUP1 PUSH4 0x8ADC760D EQ PUSH2 0x20D JUMPI DUP1 PUSH4 0x8DA5CB5B EQ PUSH2 0x215 JUMPI PUSH1 0x0 DUP1 REVERT JUMPDEST DUP1 PUSH4 0x56329EE6 GT PUSH2 0xD3 JUMPI DUP1 PUSH4 0x56329EE6 EQ PUSH2 0x18E JUMPI DUP1 PUSH4 0x570CA735 EQ PUSH2 0x197 JUMPI DUP1 PUSH4 0x5A533EFD EQ PUSH2 0x1C2 JUMPI DUP1 PUSH4 0x6D3CBE21 EQ PUSH2 0x1E9 JUMPI PUSH1 0x0 DUP1 REVERT JUMPDEST DUP1 PUSH4 0x20F6B0A9 EQ PUSH2 0xFA JUMPI DUP1 PUSH4 0x22811B9F EQ PUSH2 0x158 JUMPI DUP1 PUSH4 0x3E34E66D EQ PUSH2 0x16D JUMPI JUMPDEST PUSH1 0x0 DUP1 REVERT JUMPDEST PUSH2 0x10D PUSH2 0x108 CALLDATASIZE PUSH1 0x4 PUSH2 0x1450 JUMP JUMPDEST PUSH2 0x268 JUMP JUMPDEST PUSH1 0x40 DUP1 MLOAD SWAP9 DUP10 MSTORE PUSH1 0x20 DUP10 ADD SWAP8 SWAP1 SWAP8 MSTORE SWAP6 DUP8 ADD SWAP5 SWAP1 SWAP5 MSTORE PUSH1 0x60 DUP7 ADD SWAP3 SWAP1 SWAP3 MSTORE PUSH1 0x80 DUP6 ADD MSTORE PUSH1 0xA0 DUP5 ADD MSTORE PUSH1 0x1 PUSH1 0x1 PUSH1 0xA0 SHL SUB AND PUSH1 0xC0 DUP4 ADD MSTORE ISZERO ISZERO PUSH1 0xE0 DUP3 ADD MSTORE PUSH2 0x100 ADD JUMPDEST PUSH1 0x40 MLOAD DUP1 SWAP2 SUB SWAP1 RETURN JUMPDEST PUSH2 0x16B PUSH2 0x166 CALLDATASIZE PUSH1 0x4 PUSH2 0x1480 JUMP JUMPDEST PUSH2 0x373 JUMP JUMPDEST STOP JUMPDEST PUSH2 0x180 PUSH2 0x17B CALLDATASIZE PUSH1 0x4 PUSH2 0x14E9 JUMP JUMPDEST PUSH2 0x60F JUMP JUMPDEST PUSH1 0x40 MLOAD SWAP1 DUP2 MSTORE PUSH1 0x20 ADD PUSH2 0x14F JUMP JUMPDEST PUSH2 0x180 PUSH1 0x6 SLOAD DUP2 JUMP JUMPDEST PUSH1 0x3 SLOAD PUSH2 0x1AA SWAP1 PUSH1 0x1 PUSH1 0x1 PUSH1 0xA0 SHL SUB AND DUP2 JUMP JUMPDEST PUSH1 0x40 MLOAD PUSH1 0x1 PUSH1 0x1 PUSH1 0xA0 SHL SUB SWAP1 SWAP2 AND DUP2 MSTORE PUSH1 0x20 ADD PUSH2 0x14F JUMP JUMPDEST PUSH2 0x1AA PUSH32 0x0 DUP2 JUMP JUMPDEST PUSH2 0x10D PUSH2 0x1F7 CALLDATASIZE PUSH1 0x4 PUSH2 0x1450 JUMP JUMPDEST PUSH2 0xBA1 JUMP JUMPDEST PUSH2 0x16B PUSH2 0xC05 JUMP JUMPDEST PUSH2 0x180 PUSH1 0x5 SLOAD DUP2 JUMP JUMPDEST PUSH2 0x16B PUSH2 0xC79 JUMP JUMPDEST PUSH1 0x0 SLOAD PUSH1 0x1 PUSH1 0x1 PUSH1 0xA0 SHL SUB AND PUSH2 0x1AA JUMP JUMPDEST PUSH2 0x16B PUSH2 0x234 CALLDATASIZE PUSH1 0x4 PUSH2 0x1450 JUMP JUMPDEST PUSH2 0xDD0 JUMP JUMPDEST PUSH2 0x180 PUSH1 0x7 SLOAD DUP2 JUMP JUMPDEST PUSH2 0x180 PUSH2 0x250 CALLDATASIZE PUSH1 0x4 PUSH2 0x14A1 JUMP JUMPDEST PUSH2 0xFD5 JUMP JUMPDEST PUSH2 0x16B PUSH2 0x263 CALLDATASIZE PUSH1 0x4 PUSH2 0x141A JUMP JUMPDEST PUSH2 0x1030 JUMP JUMPDEST PUSH1 0x0 DUP1 PUSH1 0x0 DUP1 PUSH1 0x0 DUP1 PUSH1 0x0 DUP1 PUSH1 0x4 DUP1 SLOAD SWAP1 POP DUP10 LT PUSH2 0x2A1 JUMPI PUSH1 0x40 MLOAD PUSH3 0x461BCD PUSH1 0xE5 SHL DUP2 MSTORE PUSH1 0x4 ADD PUSH2 0x298 SWAP1 PUSH2 0x1629 JUMP JUMPDEST PUSH1 0x40 MLOAD DUP1 SWAP2 SUB SWAP1 REVERT JUMPDEST PUSH1 0x0 PUSH1 0x4 DUP11 DUP2 SLOAD DUP2 LT PUSH2 0x2C4 JUMPI PUSH4 0x4E487B71 PUSH1 0xE0 SHL PUSH1 0x0 MSTORE PUSH1 0x32 PUSH1 0x4 MSTORE PUSH1 0x24 PUSH1 0x0 REVERT JUMPDEST PUSH1 0x0 SWAP2 DUP3 MSTORE PUSH1 0x20 SWAP2 DUP3 SWAP1 KECCAK256 PUSH1 0x40 DUP1 MLOAD PUSH2 0x100 DUP2 ADD DUP3 MSTORE PUSH1 0x7 SWAP1 SWAP4 MUL SWAP1 SWAP2 ADD DUP1 SLOAD DUP1 DUP5 MSTORE PUSH1 0x1 DUP3 ADD SLOAD SWAP5 DUP5 ADD DUP6 SWAP1 MSTORE PUSH1 0x2 DUP3 ADD SLOAD SWAP3 DUP5 ADD DUP4 SWAP1 MSTORE PUSH1 0x3 DUP3 ADD SLOAD PUSH1 0x60 DUP6 ADD DUP2 SWAP1 MSTORE PUSH1 0x4 DUP4 ADD SLOAD PUSH1 0x80 DUP7 ADD DUP2 SWAP1 MSTORE PUSH1 0x5 DUP5 ADD SLOAD PUSH1 0xA0 DUP8 ADD DUP2 SWAP1 MSTORE PUSH1 0x6 SWAP1 SWAP5 ADD SLOAD PUSH1 0x1 PUSH1 0x1 PUSH1 0xA0 SHL SUB DUP2 AND PUSH1 0xC0 DUP9 ADD DUP2 SWAP1 MSTORE PUSH1 0xFF PUSH1 0x1 PUSH1 0xA0 SHL SWAP1 SWAP3 DIV SWAP2 SWAP1 SWAP2 AND ISZERO ISZERO PUSH1 0xE0 SWAP1 SWAP8 ADD DUP8 SWAP1 MSTORE SWAP3 SWAP16 POP SWAP6 SWAP14 POP SWAP3 SWAP12 POP SWAP2 SWAP10 POP SWAP3 SWAP8 POP SWAP2 SWAP6 POP SWAP1 SWAP4 POP SWAP2 POP POP SWAP2 SWAP4 SWAP6 SWAP8 POP SWAP2 SWAP4 SWAP6 SWAP8 JUMP JUMPDEST PUSH1 0x3 SLOAD PUSH1 0x1 PUSH1 0x1 PUSH1 0xA0 SHL SUB AND CALLER EQ DUP1 PUSH2 0x396 JUMPI POP PUSH1 0x0 SLOAD PUSH1 0x1 PUSH1 0x1 PUSH1 0xA0 SHL SUB AND CALLER EQ JUMPDEST PUSH2 0x3B2 JUMPI PUSH1 0x40 MLOAD PUSH3 0x461BCD PUSH1 0xE5 SHL DUP2 MSTORE PUSH1 0x4 ADD PUSH2 0x298 SWAP1 PUSH2 0x15CC JUMP JUMPDEST PUSH1 0x4 SLOAD DUP3 LT PUSH2 0x3D3 JUMPI PUSH1 0x40 MLOAD PUSH3 0x461BCD PUSH1 0xE5 SHL DUP2 MSTORE PUSH1 0x4 ADD PUSH2 0x298 SWAP1 PUSH2 0x1629 JUMP JUMPDEST TIMESTAMP DUP2 GT PUSH2 0x436 JUMPI PUSH1 0x40 MLOAD PUSH3 0x461BCD PUSH1 0xE5 SHL DUP2 MSTORE PUSH1 0x20 PUSH1 0x4 DUP3 ADD MSTORE PUSH1 0x38 PUSH1 0x24 DUP3 ADD MSTORE PUSH1 0x0 DUP1 MLOAD PUSH1 0x20 PUSH2 0x171C DUP4 CODECOPY DUP2 MLOAD SWAP2 MSTORE PUSH1 0x44 DUP3 ADD MSTORE PUSH32 0x6D75737420737461727420696E20746865206675747572650000000000000000 PUSH1 0x64 DUP3 ADD MSTORE PUSH1 0x84 ADD PUSH2 0x298 JUMP JUMPDEST PUSH1 0x4 DUP3 DUP2 SLOAD DUP2 LT PUSH2 0x457 JUMPI PUSH4 0x4E487B71 PUSH1 0xE0 SHL PUSH1 0x0 MSTORE PUSH1 0x32 PUSH1 0x4 MSTORE PUSH1 0x24 PUSH1 0x0 REVERT JUMPDEST SWAP1 PUSH1 0x0 MSTORE PUSH1 0x20 PUSH1 0x0 KECCAK256 SWAP1 PUSH1 0x7 MUL ADD PUSH1 0x6 ADD PUSH1 0x14 SWAP1 SLOAD SWAP1 PUSH2 0x100 EXP SWAP1 DIV PUSH1 0xFF AND ISZERO PUSH2 0x4C4 JUMPI PUSH1 0x40 MLOAD PUSH3 0x461BCD PUSH1 0xE5 SHL DUP2 MSTORE PUSH1 0x20 PUSH1 0x4 DUP3 ADD MSTORE PUSH1 0x2A PUSH1 0x24 DUP3 ADD MSTORE PUSH1 0x0 DUP1 MLOAD PUSH1 0x20 PUSH2 0x171C DUP4 CODECOPY DUP2 MLOAD SWAP2 MSTORE PUSH1 0x44 DUP3 ADD MSTORE PUSH10 0x1251081C995B5BDD9959 PUSH1 0xB2 SHL PUSH1 0x64 DUP3 ADD MSTORE PUSH1 0x84 ADD PUSH2 0x298 JUMP JUMPDEST PUSH32 0x2EE9904F2125DA26979BF6B3FFDFF419C60CD5B2BB1FC5BE175F8FC60218CE89 DUP3 PUSH1 0x4 DUP5 DUP2 SLOAD DUP2 LT PUSH2 0x507 JUMPI PUSH4 0x4E487B71 PUSH1 0xE0 SHL PUSH1 0x0 MSTORE PUSH1 0x32 PUSH1 0x4 MSTORE PUSH1 0x24 PUSH1 0x0 REVERT JUMPDEST PUSH1 0x0 SWAP2 DUP3 MSTORE PUSH1 0x20 SWAP2 DUP3 SWAP1 KECCAK256 PUSH1 0x4 PUSH1 0x7 SWAP1 SWAP3 MUL ADD ADD SLOAD PUSH1 0x40 DUP1 MLOAD SWAP4 DUP5 MSTORE SWAP2 DUP4 ADD MSTORE DUP2 ADD DUP4 SWAP1 MSTORE PUSH1 0x60 ADD PUSH1 0x40 MLOAD DUP1 SWAP2 SUB SWAP1 LOG1 PUSH1 0x0 PUSH2 0x57E PUSH1 0x4 DUP5 DUP2 SLOAD DUP2 LT PUSH2 0x55D JUMPI PUSH4 0x4E487B71 PUSH1 0xE0 SHL PUSH1 0x0 MSTORE PUSH1 0x32 PUSH1 0x4 MSTORE PUSH1 0x24 PUSH1 0x0 REVERT JUMPDEST SWAP1 PUSH1 0x0 MSTORE PUSH1 0x20 PUSH1 0x0 KECCAK256 SWAP1 PUSH1 0x7 MUL ADD PUSH1 0x3 ADD SLOAD DUP4 PUSH2 0x111A SWAP1 SWAP2 SWAP1 PUSH4 0xFFFFFFFF AND JUMP JUMPDEST SWAP1 POP DUP2 PUSH1 0x4 DUP5 DUP2 SLOAD DUP2 LT PUSH2 0x5A2 JUMPI PUSH4 0x4E487B71 PUSH1 0xE0 SHL PUSH1 0x0 MSTORE PUSH1 0x32 PUSH1 0x4 MSTORE PUSH1 0x24 PUSH1 0x0 REVERT JUMPDEST SWAP1 PUSH1 0x0 MSTORE PUSH1 0x20 PUSH1 0x0 KECCAK256 SWAP1 PUSH1 0x7 MUL ADD PUSH1 0x4 ADD DUP2 SWAP1 SSTORE POP DUP1 PUSH1 0x4 DUP5 DUP2 SLOAD DUP2 LT PUSH2 0x5D9 JUMPI PUSH4 0x4E487B71 PUSH1 0xE0 SHL PUSH1 0x0 MSTORE PUSH1 0x32 PUSH1 0x4 MSTORE PUSH1 0x24 PUSH1 0x0 REVERT JUMPDEST SWAP1 PUSH1 0x0 MSTORE PUSH1 0x20 PUSH1 0x0 KECCAK256 SWAP1 PUSH1 0x7 MUL ADD PUSH1 0x5 ADD DUP2 SWAP1 SSTORE POP DUP3 PUSH1 0x6 SLOAD EQ ISZERO PUSH2 0x605 JUMPI PUSH2 0x600 PUSH2 0x1182 JUMP JUMPDEST POP POP POP JUMP JUMPDEST PUSH2 0x600 DUP4 DUP3 PUSH2 0x126B JUMP JUMPDEST PUSH1 0x0 DUP1 SLOAD PUSH1 0x1 PUSH1 0x1 PUSH1 0xA0 SHL SUB AND CALLER EQ PUSH2 0x63A JUMPI PUSH1 0x40 MLOAD PUSH3 0x461BCD PUSH1 0xE5 SHL DUP2 MSTORE PUSH1 0x4 ADD PUSH2 0x298 SWAP1 PUSH2 0x1597 JUMP JUMPDEST PUSH1 0x64 DUP7 LT PUSH2 0x6B0 JUMPI PUSH1 0x40 MLOAD PUSH3 0x461BCD PUSH1 0xE5 SHL DUP2 MSTORE PUSH1 0x20 PUSH1 0x4 DUP3 ADD MSTORE PUSH1 0x3D PUSH1 0x24 DUP3 ADD MSTORE PUSH32 0x4D696E6F7269747956657374696E674D616E616765723A2043616E2774207665 PUSH1 0x44 DUP3 ADD MSTORE PUSH32 0x7374203E2031303025206F6620746F6B656E73207065722065706F6368000000 PUSH1 0x64 DUP3 ADD MSTORE PUSH1 0x84 ADD PUSH2 0x298 JUMP JUMPDEST TIMESTAMP DUP5 LT ISZERO DUP1 PUSH2 0x6BD JUMPI POP DUP4 ISZERO JUMPDEST PUSH2 0x72F JUMPI PUSH1 0x40 MLOAD PUSH3 0x461BCD PUSH1 0xE5 SHL DUP2 MSTORE PUSH1 0x20 PUSH1 0x4 DUP3 ADD MSTORE PUSH1 0x3F PUSH1 0x24 DUP3 ADD MSTORE PUSH32 0x4D696E6F7269747956657374696E674D616E616765723A205265776172647320 PUSH1 0x44 DUP3 ADD MSTORE PUSH32 0x63616E277420626567696E2076657374696E6720696E20746865207061737400 PUSH1 0x64 DUP3 ADD MSTORE PUSH1 0x84 ADD PUSH2 0x298 JUMP JUMPDEST PUSH1 0x1 PUSH1 0x1 PUSH1 0xA0 SHL SUB DUP4 AND PUSH2 0x7A4 JUMPI PUSH1 0x40 MLOAD PUSH3 0x461BCD PUSH1 0xE5 SHL DUP2 MSTORE PUSH1 0x20 PUSH1 0x4 DUP3 ADD MSTORE PUSH1 0x42 PUSH1 0x24 DUP3 ADD MSTORE PUSH1 0x0 DUP1 MLOAD PUSH1 0x20 PUSH2 0x171C DUP4 CODECOPY DUP2 MLOAD SWAP2 MSTORE PUSH1 0x44 DUP3 ADD MSTORE PUSH32 0x72656365697665722063616E277420626520746865207A65726F206164647265 PUSH1 0x64 DUP3 ADD MSTORE PUSH2 0x7373 PUSH1 0xF0 SHL PUSH1 0x84 DUP3 ADD MSTORE PUSH1 0xA4 ADD PUSH2 0x298 JUMP JUMPDEST PUSH1 0x7 SLOAD PUSH1 0x0 SWAP1 PUSH2 0x7B4 SWAP1 DUP10 PUSH2 0x111A JUMP JUMPDEST SWAP1 POP DUP3 ISZERO PUSH2 0x8FE JUMPI PUSH1 0x40 MLOAD PUSH4 0x70A08231 PUSH1 0xE0 SHL DUP2 MSTORE ADDRESS PUSH1 0x4 DUP3 ADD MSTORE PUSH32 0x0 PUSH1 0x1 PUSH1 0x1 PUSH1 0xA0 SHL SUB AND SWAP1 PUSH4 0x70A08231 SWAP1 PUSH1 0x24 ADD PUSH1 0x20 PUSH1 0x40 MLOAD DUP1 DUP4 SUB DUP2 DUP7 DUP1 EXTCODESIZE ISZERO DUP1 ISZERO PUSH2 0x81B JUMPI PUSH1 0x0 DUP1 REVERT JUMPDEST POP GAS STATICCALL ISZERO DUP1 ISZERO PUSH2 0x82F JUMPI RETURNDATASIZE PUSH1 0x0 DUP1 RETURNDATACOPY RETURNDATASIZE PUSH1 0x0 REVERT JUMPDEST POP POP POP POP PUSH1 0x40 MLOAD RETURNDATASIZE PUSH1 0x1F NOT PUSH1 0x1F DUP3 ADD AND DUP3 ADD DUP1 PUSH1 0x40 MSTORE POP DUP2 ADD SWAP1 PUSH2 0x853 SWAP2 SWAP1 PUSH2 0x1468 JUMP JUMPDEST DUP2 GT ISZERO PUSH2 0x8FE JUMPI PUSH1 0x40 MLOAD PUSH3 0x461BCD PUSH1 0xE5 SHL DUP2 MSTORE PUSH1 0x20 PUSH1 0x4 DUP3 ADD MSTORE PUSH1 0x67 PUSH1 0x24 DUP3 ADD MSTORE PUSH32 0x4D696E6F7269747956657374696E674D616E616765723A204E6F7420656E6F75 PUSH1 0x44 DUP3 ADD MSTORE PUSH32 0x676820746F6B656E7320696E20636F6E747261637420746F20766573742E2054 PUSH1 0x64 DUP3 ADD MSTORE PUSH32 0x72616E7366657220746F6B656E73206265666F726520616464696E6720612073 PUSH1 0x84 DUP3 ADD MSTORE PUSH7 0x63686564756C65 PUSH1 0xC8 SHL PUSH1 0xA4 DUP3 ADD MSTORE PUSH1 0xC4 ADD PUSH2 0x298 JUMP JUMPDEST PUSH1 0x0 DUP6 ISZERO PUSH2 0x920 JUMPI PUSH2 0x91B PUSH2 0x914 DUP9 PUSH1 0x3C PUSH2 0x1293 JUMP JUMPDEST DUP8 SWAP1 PUSH2 0x111A JUMP JUMPDEST PUSH2 0x922 JUMP JUMPDEST DUP6 JUMPDEST SWAP1 POP PUSH1 0x0 PUSH1 0x40 MLOAD DUP1 PUSH2 0x100 ADD PUSH1 0x40 MSTORE DUP1 DUP12 DUP2 MSTORE PUSH1 0x20 ADD PUSH2 0x956 PUSH1 0x64 PUSH2 0x950 DUP14 DUP16 PUSH2 0x1293 SWAP1 SWAP2 SWAP1 PUSH4 0xFFFFFFFF AND JUMP JUMPDEST SWAP1 PUSH2 0x1312 JUMP JUMPDEST DUP2 MSTORE PUSH1 0x0 PUSH1 0x20 DUP3 ADD MSTORE PUSH1 0x40 ADD PUSH2 0x96D DUP11 PUSH1 0x3C PUSH2 0x1293 JUMP JUMPDEST DUP2 MSTORE PUSH1 0x20 DUP1 DUP3 ADD DUP11 SWAP1 MSTORE PUSH1 0x40 DUP1 DUP4 ADD DUP7 SWAP1 MSTORE PUSH1 0x1 PUSH1 0x1 PUSH1 0xA0 SHL SUB DUP1 DUP12 AND PUSH1 0x60 DUP1 DUP7 ADD SWAP2 SWAP1 SWAP2 MSTORE PUSH1 0x0 PUSH1 0x80 SWAP6 DUP7 ADD DUP2 SWAP1 MSTORE PUSH1 0x4 DUP1 SLOAD PUSH1 0x1 DUP2 DUP2 ADD DUP4 SSTORE DUP3 DUP5 MSTORE DUP10 MLOAD PUSH1 0x7 SWAP3 DUP4 MUL PUSH32 0x8A35ACFBC15FF81A39AE7D344FD709F28E8600B4AA8C65C6B64BFE7FE36BD19B DUP2 ADD SWAP2 SWAP1 SWAP2 SSTORE SWAP8 DUP11 ADD MLOAD PUSH32 0x8A35ACFBC15FF81A39AE7D344FD709F28E8600B4AA8C65C6B64BFE7FE36BD19C DUP10 ADD SSTORE SWAP6 DUP10 ADD MLOAD PUSH32 0x8A35ACFBC15FF81A39AE7D344FD709F28E8600B4AA8C65C6B64BFE7FE36BD19D DUP9 ADD SSTORE SWAP3 DUP9 ADD MLOAD PUSH32 0x8A35ACFBC15FF81A39AE7D344FD709F28E8600B4AA8C65C6B64BFE7FE36BD19E DUP8 ADD SSTORE SWAP6 DUP8 ADD MLOAD PUSH32 0x8A35ACFBC15FF81A39AE7D344FD709F28E8600B4AA8C65C6B64BFE7FE36BD19F DUP7 ADD SSTORE PUSH1 0xA0 DUP8 ADD MLOAD PUSH32 0x8A35ACFBC15FF81A39AE7D344FD709F28E8600B4AA8C65C6B64BFE7FE36BD1A0 DUP7 ADD SSTORE PUSH1 0xC0 DUP8 ADD MLOAD PUSH32 0x8A35ACFBC15FF81A39AE7D344FD709F28E8600B4AA8C65C6B64BFE7FE36BD1A1 SWAP1 SWAP6 ADD DUP1 SLOAD PUSH1 0xE0 DUP10 ADD MLOAD ISZERO ISZERO PUSH1 0x1 PUSH1 0xA0 SHL MUL PUSH1 0x1 PUSH1 0x1 PUSH1 0xA8 SHL SUB NOT SWAP1 SWAP2 AND SWAP7 SWAP1 SWAP5 AND SWAP6 SWAP1 SWAP6 OR SWAP3 SWAP1 SWAP3 OR SWAP1 SWAP4 SSTORE SWAP2 DUP8 SWAP1 SSTORE SWAP2 SLOAD SWAP3 SWAP4 POP SWAP2 PUSH2 0xB09 SWAP2 SWAP1 PUSH2 0x16C2 JUMP JUMPDEST SWAP1 POP PUSH2 0xB15 DUP2 DUP5 PUSH2 0x126B JUMP JUMPDEST DUP2 MLOAD PUSH1 0x20 DUP1 DUP5 ADD MLOAD PUSH1 0x60 DUP1 DUP7 ADD MLOAD PUSH1 0x80 DUP1 DUP9 ADD MLOAD PUSH1 0xA0 DUP1 DUP11 ADD MLOAD PUSH1 0xC0 DUP1 DUP13 ADD MLOAD PUSH1 0x40 DUP1 MLOAD DUP14 DUP2 MSTORE SWAP11 DUP12 ADD SWAP12 SWAP1 SWAP12 MSTORE DUP10 DUP12 ADD SWAP9 SWAP1 SWAP9 MSTORE SWAP6 DUP9 ADD SWAP5 SWAP1 SWAP5 MSTORE SWAP2 DUP7 ADD MSTORE DUP5 ADD MSTORE PUSH1 0x1 PUSH1 0x1 PUSH1 0xA0 SHL SUB SWAP1 SWAP2 AND SWAP1 DUP3 ADD MSTORE SWAP1 MLOAD PUSH32 0xFF7D5B9238FDF530D746EA0E1B517671E3E0FD1414A36E69A57867DC707DC65A SWAP2 DUP2 SWAP1 SUB PUSH1 0xE0 ADD SWAP1 LOG1 SWAP11 SWAP10 POP POP POP POP POP POP POP POP POP POP JUMP JUMPDEST PUSH1 0x4 DUP2 DUP2 SLOAD DUP2 LT PUSH2 0xBB1 JUMPI PUSH1 0x0 DUP1 REVERT JUMPDEST PUSH1 0x0 SWAP2 DUP3 MSTORE PUSH1 0x20 SWAP1 SWAP2 KECCAK256 PUSH1 0x7 SWAP1 SWAP2 MUL ADD DUP1 SLOAD PUSH1 0x1 DUP3 ADD SLOAD PUSH1 0x2 DUP4 ADD SLOAD PUSH1 0x3 DUP5 ADD SLOAD PUSH1 0x4 DUP6 ADD SLOAD PUSH1 0x5 DUP7 ADD SLOAD PUSH1 0x6 SWAP1 SWAP7 ADD SLOAD SWAP5 SWAP7 POP SWAP3 SWAP5 SWAP2 SWAP4 SWAP1 SWAP3 SWAP2 SWAP1 PUSH1 0x1 PUSH1 0x1 PUSH1 0xA0 SHL SUB DUP2 AND SWAP1 PUSH1 0x1 PUSH1 0xA0 SHL SWAP1 DIV PUSH1 0xFF AND DUP9 JUMP JUMPDEST PUSH1 0x0 SLOAD PUSH1 0x1 PUSH1 0x1 PUSH1 0xA0 SHL SUB AND CALLER EQ PUSH2 0xC2F JUMPI PUSH1 0x40 MLOAD PUSH3 0x461BCD PUSH1 0xE5 SHL DUP2 MSTORE PUSH1 0x4 ADD PUSH2 0x298 SWAP1 PUSH2 0x1597 JUMP JUMPDEST PUSH1 0x0 DUP1 SLOAD PUSH1 0x40 MLOAD PUSH1 0x1 PUSH1 0x1 PUSH1 0xA0 SHL SUB SWAP1 SWAP2 AND SWAP1 PUSH32 0x8BE0079C531659141344CD1FD0A4F28419497F9722A3DAAFE3B4186F6B6457E0 SWAP1 DUP4 SWAP1 LOG3 PUSH1 0x0 DUP1 SLOAD PUSH1 0x1 PUSH1 0x1 PUSH1 0xA0 SHL SUB NOT AND SWAP1 SSTORE JUMP JUMPDEST TIMESTAMP PUSH1 0x5 SLOAD GT ISZERO DUP1 ISZERO PUSH2 0xC8C JUMPI POP PUSH1 0x5 SLOAD ISZERO ISZERO JUMPDEST ISZERO PUSH2 0xDCE JUMPI PUSH1 0x0 PUSH1 0x4 PUSH1 0x6 SLOAD DUP2 SLOAD DUP2 LT PUSH2 0xCB6 JUMPI PUSH4 0x4E487B71 PUSH1 0xE0 SHL PUSH1 0x0 MSTORE PUSH1 0x32 PUSH1 0x4 MSTORE PUSH1 0x24 PUSH1 0x0 REVERT JUMPDEST PUSH1 0x0 SWAP2 DUP3 MSTORE PUSH1 0x20 SWAP2 DUP3 SWAP1 KECCAK256 PUSH1 0x40 DUP1 MLOAD PUSH2 0x100 DUP2 ADD DUP3 MSTORE PUSH1 0x7 SWAP4 SWAP1 SWAP4 MUL SWAP1 SWAP2 ADD DUP1 SLOAD DUP4 MSTORE PUSH1 0x1 DUP2 ADD SLOAD SWAP4 DUP4 ADD DUP5 SWAP1 MSTORE PUSH1 0x2 DUP2 ADD SLOAD DUP4 DUP4 ADD MSTORE PUSH1 0x3 DUP2 ADD SLOAD PUSH1 0x60 DUP5 ADD MSTORE PUSH1 0x4 DUP1 DUP3 ADD SLOAD PUSH1 0x80 DUP6 ADD MSTORE PUSH1 0x5 DUP3 ADD SLOAD PUSH1 0xA0 DUP6 ADD MSTORE PUSH1 0x6 SWAP1 SWAP2 ADD SLOAD PUSH1 0x1 PUSH1 0x1 PUSH1 0xA0 SHL SUB DUP1 DUP3 AND PUSH1 0xC0 DUP7 ADD DUP2 SWAP1 MSTORE PUSH1 0x1 PUSH1 0xA0 SHL SWAP1 SWAP3 DIV PUSH1 0xFF AND ISZERO ISZERO PUSH1 0xE0 DUP7 ADD MSTORE SWAP3 MLOAD PUSH4 0xA9059CBB PUSH1 0xE0 SHL DUP2 MSTORE SWAP2 DUP3 ADD MSTORE PUSH1 0x24 DUP2 ADD DUP5 SWAP1 MSTORE SWAP2 SWAP4 POP PUSH32 0x0 AND SWAP1 PUSH4 0xA9059CBB SWAP1 PUSH1 0x44 ADD PUSH1 0x20 PUSH1 0x40 MLOAD DUP1 DUP4 SUB DUP2 PUSH1 0x0 DUP8 DUP1 EXTCODESIZE ISZERO DUP1 ISZERO PUSH2 0xD96 JUMPI PUSH1 0x0 DUP1 REVERT JUMPDEST POP GAS CALL ISZERO DUP1 ISZERO PUSH2 0xDAA JUMPI RETURNDATASIZE PUSH1 0x0 DUP1 RETURNDATACOPY RETURNDATASIZE PUSH1 0x0 REVERT JUMPDEST POP POP POP POP PUSH1 0x40 MLOAD RETURNDATASIZE PUSH1 0x1F NOT PUSH1 0x1F DUP3 ADD AND DUP3 ADD DUP1 PUSH1 0x40 MSTORE POP DUP2 ADD SWAP1 PUSH2 0x600 SWAP2 SWAP1 PUSH2 0x1434 JUMP JUMPDEST JUMP JUMPDEST PUSH1 0x3 SLOAD PUSH1 0x1 PUSH1 0x1 PUSH1 0xA0 SHL SUB AND CALLER EQ DUP1 PUSH2 0xDF3 JUMPI POP PUSH1 0x0 SLOAD PUSH1 0x1 PUSH1 0x1 PUSH1 0xA0 SHL SUB AND CALLER EQ JUMPDEST PUSH2 0xE0F JUMPI PUSH1 0x40 MLOAD PUSH3 0x461BCD PUSH1 0xE5 SHL DUP2 MSTORE PUSH1 0x4 ADD PUSH2 0x298 SWAP1 PUSH2 0x15CC JUMP JUMPDEST PUSH1 0x4 SLOAD DUP2 LT PUSH2 0xE30 JUMPI PUSH1 0x40 MLOAD PUSH3 0x461BCD PUSH1 0xE5 SHL DUP2 MSTORE PUSH1 0x4 ADD PUSH2 0x298 SWAP1 PUSH2 0x1629 JUMP JUMPDEST PUSH1 0x4 DUP2 DUP2 SLOAD DUP2 LT PUSH2 0xE51 JUMPI PUSH4 0x4E487B71 PUSH1 0xE0 SHL PUSH1 0x0 MSTORE PUSH1 0x32 PUSH1 0x4 MSTORE PUSH1 0x24 PUSH1 0x0 REVERT JUMPDEST SWAP1 PUSH1 0x0 MSTORE PUSH1 0x20 PUSH1 0x0 KECCAK256 SWAP1 PUSH1 0x7 MUL ADD PUSH1 0x6 ADD PUSH1 0x14 SWAP1 SLOAD SWAP1 PUSH2 0x100 EXP SWAP1 DIV PUSH1 0xFF AND ISZERO PUSH2 0xEC6 JUMPI PUSH1 0x40 MLOAD PUSH3 0x461BCD PUSH1 0xE5 SHL DUP2 MSTORE PUSH1 0x20 PUSH1 0x4 DUP3 ADD MSTORE PUSH1 0x32 PUSH1 0x24 DUP3 ADD MSTORE PUSH1 0x0 DUP1 MLOAD PUSH1 0x20 PUSH2 0x171C DUP4 CODECOPY DUP2 MLOAD SWAP2 MSTORE PUSH1 0x44 DUP3 ADD MSTORE PUSH18 0x125108185B1C9958591E481C995B5BDD9959 PUSH1 0x72 SHL PUSH1 0x64 DUP3 ADD MSTORE PUSH1 0x84 ADD PUSH2 0x298 JUMP JUMPDEST PUSH1 0x1 PUSH1 0x4 DUP3 DUP2 SLOAD DUP2 LT PUSH2 0xEE9 JUMPI PUSH4 0x4E487B71 PUSH1 0xE0 SHL PUSH1 0x0 MSTORE PUSH1 0x32 PUSH1 0x4 MSTORE PUSH1 0x24 PUSH1 0x0 REVERT JUMPDEST SWAP1 PUSH1 0x0 MSTORE PUSH1 0x20 PUSH1 0x0 KECCAK256 SWAP1 PUSH1 0x7 MUL ADD PUSH1 0x6 ADD PUSH1 0x14 PUSH2 0x100 EXP DUP2 SLOAD DUP2 PUSH1 0xFF MUL NOT AND SWAP1 DUP4 ISZERO ISZERO MUL OR SWAP1 SSTORE POP PUSH2 0xF8A PUSH1 0x4 DUP3 DUP2 SLOAD DUP2 LT PUSH2 0xF35 JUMPI PUSH4 0x4E487B71 PUSH1 0xE0 SHL PUSH1 0x0 MSTORE PUSH1 0x32 PUSH1 0x4 MSTORE PUSH1 0x24 PUSH1 0x0 REVERT JUMPDEST SWAP1 PUSH1 0x0 MSTORE PUSH1 0x20 PUSH1 0x0 KECCAK256 SWAP1 PUSH1 0x7 MUL ADD PUSH1 0x2 ADD SLOAD PUSH2 0xF84 PUSH1 0x4 DUP5 DUP2 SLOAD DUP2 LT PUSH2 0xF6B JUMPI PUSH4 0x4E487B71 PUSH1 0xE0 SHL PUSH1 0x0 MSTORE PUSH1 0x32 PUSH1 0x4 MSTORE PUSH1 0x24 PUSH1 0x0 REVERT JUMPDEST PUSH1 0x0 SWAP2 DUP3 MSTORE PUSH1 0x20 SWAP1 SWAP2 KECCAK256 PUSH1 0x7 SWAP2 DUP3 MUL ADD SLOAD SWAP1 SLOAD SWAP1 PUSH2 0x1354 JUMP JUMPDEST SWAP1 PUSH2 0x111A JUMP JUMPDEST PUSH1 0x7 SSTORE PUSH1 0x6 SLOAD DUP2 EQ ISZERO PUSH2 0xF9F JUMPI PUSH2 0xF9F PUSH2 0x1182 JUMP JUMPDEST PUSH1 0x40 MLOAD DUP2 DUP2 MSTORE PUSH32 0x3A9782B2E3F78DEE6DE9B41F31D0F34064EE9D7BD4A79E5E3F7E0C1CA528BBA3 SWAP1 PUSH1 0x20 ADD PUSH1 0x40 MLOAD DUP1 SWAP2 SUB SWAP1 LOG1 POP JUMP JUMPDEST PUSH1 0x3 SLOAD PUSH1 0x0 SWAP1 PUSH1 0x1 PUSH1 0x1 PUSH1 0xA0 SHL SUB AND CALLER EQ DUP1 PUSH2 0xFFB JUMPI POP PUSH1 0x0 SLOAD PUSH1 0x1 PUSH1 0x1 PUSH1 0xA0 SHL SUB AND CALLER EQ JUMPDEST PUSH2 0x1017 JUMPI PUSH1 0x40 MLOAD PUSH3 0x461BCD PUSH1 0xE5 SHL DUP2 MSTORE PUSH1 0x4 ADD PUSH2 0x298 SWAP1 PUSH2 0x15CC JUMP JUMPDEST PUSH2 0x1026 DUP7 DUP7 DUP7 DUP7 DUP7 PUSH1 0x1 PUSH2 0x60F JUMP JUMPDEST SWAP7 SWAP6 POP POP POP POP POP POP JUMP JUMPDEST PUSH1 0x0 SLOAD PUSH1 0x1 PUSH1 0x1 PUSH1 0xA0 SHL SUB AND CALLER EQ PUSH2 0x105A JUMPI PUSH1 0x40 MLOAD PUSH3 0x461BCD PUSH1 0xE5 SHL DUP2 MSTORE PUSH1 0x4 ADD PUSH2 0x298 SWAP1 PUSH2 0x1597 JUMP JUMPDEST PUSH1 0x1 PUSH1 0x1 PUSH1 0xA0 SHL SUB DUP2 AND PUSH2 0x10BF JUMPI PUSH1 0x40 MLOAD PUSH3 0x461BCD PUSH1 0xE5 SHL DUP2 MSTORE PUSH1 0x20 PUSH1 0x4 DUP3 ADD MSTORE PUSH1 0x26 PUSH1 0x24 DUP3 ADD MSTORE PUSH32 0x4F776E61626C653A206E6577206F776E657220697320746865207A65726F2061 PUSH1 0x44 DUP3 ADD MSTORE PUSH6 0x646472657373 PUSH1 0xD0 SHL PUSH1 0x64 DUP3 ADD MSTORE PUSH1 0x84 ADD PUSH2 0x298 JUMP JUMPDEST PUSH1 0x0 DUP1 SLOAD PUSH1 0x40 MLOAD PUSH1 0x1 PUSH1 0x1 PUSH1 0xA0 SHL SUB DUP1 DUP6 AND SWAP4 SWAP3 AND SWAP2 PUSH32 0x8BE0079C531659141344CD1FD0A4F28419497F9722A3DAAFE3B4186F6B6457E0 SWAP2 LOG3 PUSH1 0x0 DUP1 SLOAD PUSH1 0x1 PUSH1 0x1 PUSH1 0xA0 SHL SUB NOT AND PUSH1 0x1 PUSH1 0x1 PUSH1 0xA0 SHL SUB SWAP3 SWAP1 SWAP3 AND SWAP2 SWAP1 SWAP2 OR SWAP1 SSTORE JUMP JUMPDEST PUSH1 0x0 DUP1 PUSH2 0x1127 DUP4 DUP6 PUSH2 0x166B JUMP JUMPDEST SWAP1 POP DUP4 DUP2 LT ISZERO PUSH2 0x1179 JUMPI PUSH1 0x40 MLOAD PUSH3 0x461BCD PUSH1 0xE5 SHL DUP2 MSTORE PUSH1 0x20 PUSH1 0x4 DUP3 ADD MSTORE PUSH1 0x1B PUSH1 0x24 DUP3 ADD MSTORE PUSH32 0x536166654D6174683A206164646974696F6E206F766572666C6F770000000000 PUSH1 0x44 DUP3 ADD MSTORE PUSH1 0x64 ADD PUSH2 0x298 JUMP JUMPDEST SWAP1 POP JUMPDEST SWAP3 SWAP2 POP POP JUMP JUMPDEST PUSH1 0x4 SLOAD PUSH1 0x0 JUMPDEST DUP2 DUP2 LT ISZERO PUSH2 0x1267 JUMPI PUSH1 0x6 SLOAD DUP2 EQ ISZERO DUP1 ISZERO PUSH2 0x11DF JUMPI POP PUSH1 0x4 DUP2 DUP2 SLOAD DUP2 LT PUSH2 0x11BE JUMPI PUSH4 0x4E487B71 PUSH1 0xE0 SHL PUSH1 0x0 MSTORE PUSH1 0x32 PUSH1 0x4 MSTORE PUSH1 0x24 PUSH1 0x0 REVERT JUMPDEST SWAP1 PUSH1 0x0 MSTORE PUSH1 0x20 PUSH1 0x0 KECCAK256 SWAP1 PUSH1 0x7 MUL ADD PUSH1 0x6 ADD PUSH1 0x14 SWAP1 SLOAD SWAP1 PUSH2 0x100 EXP SWAP1 DIV PUSH1 0xFF AND ISZERO JUMPDEST ISZERO PUSH2 0x1255 JUMPI PUSH1 0x0 PUSH1 0x4 DUP3 DUP2 SLOAD DUP2 LT PUSH2 0x1207 JUMPI PUSH4 0x4E487B71 PUSH1 0xE0 SHL PUSH1 0x0 MSTORE PUSH1 0x32 PUSH1 0x4 MSTORE PUSH1 0x24 PUSH1 0x0 REVERT JUMPDEST SWAP1 PUSH1 0x0 MSTORE PUSH1 0x20 PUSH1 0x0 KECCAK256 SWAP1 PUSH1 0x7 MUL ADD PUSH1 0x5 ADD SLOAD SWAP1 POP DUP1 PUSH1 0x0 EQ PUSH2 0x1253 JUMPI TIMESTAMP DUP2 GT PUSH2 0x1233 JUMPI PUSH1 0x5 SSTORE PUSH1 0x6 SSTORE POP JUMP JUMPDEST PUSH1 0x5 SLOAD DUP2 LT DUP1 PUSH2 0x1243 JUMPI POP PUSH1 0x5 SLOAD ISZERO JUMPDEST ISZERO PUSH2 0x1253 JUMPI PUSH1 0x5 DUP2 SWAP1 SSTORE PUSH1 0x6 DUP3 SWAP1 SSTORE JUMPDEST POP JUMPDEST DUP1 PUSH2 0x125F DUP2 PUSH2 0x16D9 JUMP JUMPDEST SWAP2 POP POP PUSH2 0x1188 JUMP JUMPDEST POP POP JUMP JUMPDEST PUSH1 0x5 SLOAD DUP2 LT DUP1 PUSH2 0x127B JUMPI POP PUSH1 0x5 SLOAD ISZERO JUMPDEST DUP1 ISZERO PUSH2 0x1286 JUMPI POP DUP1 ISZERO ISZERO JUMPDEST ISZERO PUSH2 0x1267 JUMPI PUSH1 0x5 SSTORE PUSH1 0x6 SSTORE JUMP JUMPDEST PUSH1 0x0 DUP3 PUSH2 0x12A2 JUMPI POP PUSH1 0x0 PUSH2 0x117C JUMP JUMPDEST PUSH1 0x0 PUSH2 0x12AE DUP4 DUP6 PUSH2 0x16A3 JUMP JUMPDEST SWAP1 POP DUP3 PUSH2 0x12BB DUP6 DUP4 PUSH2 0x1683 JUMP JUMPDEST EQ PUSH2 0x1179 JUMPI PUSH1 0x40 MLOAD PUSH3 0x461BCD PUSH1 0xE5 SHL DUP2 MSTORE PUSH1 0x20 PUSH1 0x4 DUP3 ADD MSTORE PUSH1 0x21 PUSH1 0x24 DUP3 ADD MSTORE PUSH32 0x536166654D6174683A206D756C7469706C69636174696F6E206F766572666C6F PUSH1 0x44 DUP3 ADD MSTORE PUSH1 0x77 PUSH1 0xF8 SHL PUSH1 0x64 DUP3 ADD MSTORE PUSH1 0x84 ADD PUSH2 0x298 JUMP JUMPDEST PUSH1 0x0 PUSH2 0x1179 DUP4 DUP4 PUSH1 0x40 MLOAD DUP1 PUSH1 0x40 ADD PUSH1 0x40 MSTORE DUP1 PUSH1 0x1A DUP2 MSTORE PUSH1 0x20 ADD PUSH32 0x536166654D6174683A206469766973696F6E206279207A65726F000000000000 DUP2 MSTORE POP PUSH2 0x1396 JUMP JUMPDEST PUSH1 0x0 PUSH2 0x1179 DUP4 DUP4 PUSH1 0x40 MLOAD DUP1 PUSH1 0x40 ADD PUSH1 0x40 MSTORE DUP1 PUSH1 0x1E DUP2 MSTORE PUSH1 0x20 ADD PUSH32 0x536166654D6174683A207375627472616374696F6E206F766572666C6F770000 DUP2 MSTORE POP PUSH2 0x13CD JUMP JUMPDEST PUSH1 0x0 DUP2 DUP4 PUSH2 0x13B7 JUMPI PUSH1 0x40 MLOAD PUSH3 0x461BCD PUSH1 0xE5 SHL DUP2 MSTORE PUSH1 0x4 ADD PUSH2 0x298 SWAP2 SWAP1 PUSH2 0x1544 JUMP JUMPDEST POP PUSH1 0x0 PUSH2 0x13C4 DUP5 DUP7 PUSH2 0x1683 JUMP JUMPDEST SWAP6 SWAP5 POP POP POP POP POP JUMP JUMPDEST PUSH1 0x0 DUP2 DUP5 DUP5 GT ISZERO PUSH2 0x13F1 JUMPI PUSH1 0x40 MLOAD PUSH3 0x461BCD PUSH1 0xE5 SHL DUP2 MSTORE PUSH1 0x4 ADD PUSH2 0x298 SWAP2 SWAP1 PUSH2 0x1544 JUMP JUMPDEST POP PUSH1 0x0 PUSH2 0x13C4 DUP5 DUP7 PUSH2 0x16C2 JUMP JUMPDEST DUP1 CALLDATALOAD PUSH1 0x1 PUSH1 0x1 PUSH1 0xA0 SHL SUB DUP2 AND DUP2 EQ PUSH2 0x1415 JUMPI PUSH1 0x0 DUP1 REVERT JUMPDEST SWAP2 SWAP1 POP JUMP JUMPDEST PUSH1 0x0 PUSH1 0x20 DUP3 DUP5 SUB SLT ISZERO PUSH2 0x142B JUMPI DUP1 DUP2 REVERT JUMPDEST PUSH2 0x1179 DUP3 PUSH2 0x13FE JUMP JUMPDEST PUSH1 0x0 PUSH1 0x20 DUP3 DUP5 SUB SLT ISZERO PUSH2 0x1445 JUMPI DUP1 DUP2 REVERT JUMPDEST DUP2 MLOAD PUSH2 0x1179 DUP2 PUSH2 0x170A JUMP JUMPDEST PUSH1 0x0 PUSH1 0x20 DUP3 DUP5 SUB SLT ISZERO PUSH2 0x1461 JUMPI DUP1 DUP2 REVERT JUMPDEST POP CALLDATALOAD SWAP2 SWAP1 POP JUMP JUMPDEST PUSH1 0x0 PUSH1 0x20 DUP3 DUP5 SUB SLT ISZERO PUSH2 0x1479 JUMPI DUP1 DUP2 REVERT JUMPDEST POP MLOAD SWAP2 SWAP1 POP JUMP JUMPDEST PUSH1 0x0 DUP1 PUSH1 0x40 DUP4 DUP6 SUB SLT ISZERO PUSH2 0x1492 JUMPI DUP1 DUP2 REVERT JUMPDEST POP POP DUP1 CALLDATALOAD SWAP3 PUSH1 0x20 SWAP1 SWAP2 ADD CALLDATALOAD SWAP2 POP JUMP JUMPDEST PUSH1 0x0 DUP1 PUSH1 0x0 DUP1 PUSH1 0x0 PUSH1 0xA0 DUP7 DUP9 SUB SLT ISZERO PUSH2 0x14B8 JUMPI DUP1 DUP2 REVERT JUMPDEST DUP6 CALLDATALOAD SWAP5 POP PUSH1 0x20 DUP7 ADD CALLDATALOAD SWAP4 POP PUSH1 0x40 DUP7 ADD CALLDATALOAD SWAP3 POP PUSH1 0x60 DUP7 ADD CALLDATALOAD SWAP2 POP PUSH2 0x14DD PUSH1 0x80 DUP8 ADD PUSH2 0x13FE JUMP JUMPDEST SWAP1 POP SWAP3 SWAP6 POP SWAP3 SWAP6 SWAP1 SWAP4 POP JUMP JUMPDEST PUSH1 0x0 DUP1 PUSH1 0x0 DUP1 PUSH1 0x0 DUP1 PUSH1 0xC0 DUP8 DUP10 SUB SLT ISZERO PUSH2 0x1501 JUMPI DUP1 DUP2 REVERT JUMPDEST DUP7 CALLDATALOAD SWAP6 POP PUSH1 0x20 DUP8 ADD CALLDATALOAD SWAP5 POP PUSH1 0x40 DUP8 ADD CALLDATALOAD SWAP4 POP PUSH1 0x60 DUP8 ADD CALLDATALOAD SWAP3 POP PUSH2 0x1526 PUSH1 0x80 DUP9 ADD PUSH2 0x13FE JUMP JUMPDEST SWAP2 POP PUSH1 0xA0 DUP8 ADD CALLDATALOAD PUSH2 0x1536 DUP2 PUSH2 0x170A JUMP JUMPDEST DUP1 SWAP2 POP POP SWAP3 SWAP6 POP SWAP3 SWAP6 POP SWAP3 SWAP6 JUMP JUMPDEST PUSH1 0x0 PUSH1 0x20 DUP1 DUP4 MSTORE DUP4 MLOAD DUP1 DUP3 DUP6 ADD MSTORE DUP3 JUMPDEST DUP2 DUP2 LT ISZERO PUSH2 0x1570 JUMPI DUP6 DUP2 ADD DUP4 ADD MLOAD DUP6 DUP3 ADD PUSH1 0x40 ADD MSTORE DUP3 ADD PUSH2 0x1554 JUMP JUMPDEST DUP2 DUP2 GT ISZERO PUSH2 0x1581 JUMPI DUP4 PUSH1 0x40 DUP4 DUP8 ADD ADD MSTORE JUMPDEST POP PUSH1 0x1F ADD PUSH1 0x1F NOT AND SWAP3 SWAP1 SWAP3 ADD PUSH1 0x40 ADD SWAP4 SWAP3 POP POP POP JUMP JUMPDEST PUSH1 0x20 DUP1 DUP3 MSTORE DUP2 DUP2 ADD MSTORE PUSH32 0x4F776E61626C653A2063616C6C6572206973206E6F7420746865206F776E6572 PUSH1 0x40 DUP3 ADD MSTORE PUSH1 0x60 ADD SWAP1 JUMP JUMPDEST PUSH1 0x20 DUP1 DUP3 MSTORE PUSH1 0x3C SWAP1 DUP3 ADD MSTORE PUSH32 0x4D696E6F7269747956657374696E674D616E616765723A206F6E6C7920616363 PUSH1 0x40 DUP3 ADD MSTORE PUSH32 0x65737369626C65206279206F70657261746F72206F72206F776E657200000000 PUSH1 0x60 DUP3 ADD MSTORE PUSH1 0x80 ADD SWAP1 JUMP JUMPDEST PUSH1 0x20 DUP1 DUP3 MSTORE PUSH1 0x22 SWAP1 DUP3 ADD MSTORE PUSH32 0x4D696E6F7269747956657374696E674D616E616765723A20696E76616C696420 PUSH1 0x40 DUP3 ADD MSTORE PUSH2 0x1251 PUSH1 0xF2 SHL PUSH1 0x60 DUP3 ADD MSTORE PUSH1 0x80 ADD SWAP1 JUMP JUMPDEST PUSH1 0x0 DUP3 NOT DUP3 GT ISZERO PUSH2 0x167E JUMPI PUSH2 0x167E PUSH2 0x16F4 JUMP JUMPDEST POP ADD SWAP1 JUMP JUMPDEST PUSH1 0x0 DUP3 PUSH2 0x169E JUMPI PUSH4 0x4E487B71 PUSH1 0xE0 SHL DUP2 MSTORE PUSH1 0x12 PUSH1 0x4 MSTORE PUSH1 0x24 DUP2 REVERT JUMPDEST POP DIV SWAP1 JUMP JUMPDEST PUSH1 0x0 DUP2 PUSH1 0x0 NOT DIV DUP4 GT DUP3 ISZERO ISZERO AND ISZERO PUSH2 0x16BD JUMPI PUSH2 0x16BD PUSH2 0x16F4 JUMP JUMPDEST POP MUL SWAP1 JUMP JUMPDEST PUSH1 0x0 DUP3 DUP3 LT ISZERO PUSH2 0x16D4 JUMPI PUSH2 0x16D4 PUSH2 0x16F4 JUMP JUMPDEST POP SUB SWAP1 JUMP JUMPDEST PUSH1 0x0 PUSH1 0x0 NOT DUP3 EQ ISZERO PUSH2 0x16ED JUMPI PUSH2 0x16ED PUSH2 0x16F4 JUMP JUMPDEST POP PUSH1 0x1 ADD SWAP1 JUMP JUMPDEST PUSH4 0x4E487B71 PUSH1 0xE0 SHL PUSH1 0x0 MSTORE PUSH1 0x11 PUSH1 0x4 MSTORE PUSH1 0x24 PUSH1 0x0 REVERT JUMPDEST DUP1 ISZERO ISZERO DUP2 EQ PUSH2 0x1718 JUMPI PUSH1 0x0 DUP1 REVERT JUMPDEST POP JUMP INVALID 0x4D PUSH10 0x6E6F7269747956657374 PUSH10 0x6E674D616E616765723A KECCAK256 PUSH23 0x657374696E6720A2646970667358221220839CB582736B SWAP2 0xF8 SAR PUSH31 0x30F3566963E63F1A8F67195158F84B344AE067F0778764736F6C6343000804 STOP CALLER PUSH1 0xA0 PUSH1 0x40 MSTORE CALLVALUE DUP1 ISZERO PUSH3 0x11 JUMPI PUSH1 0x0 DUP1 REVERT JUMPDEST POP PUSH1 0x40 MLOAD PUSH3 0x2D33 CODESIZE SUB DUP1 PUSH3 0x2D33 DUP4 CODECOPY DUP2 ADD PUSH1 0x40 DUP2 SWAP1 MSTORE PUSH3 0x34 SWAP2 PUSH3 0x145 JUMP JUMPDEST PUSH1 0x1 PUSH1 0x0 DUP2 DUP2 SSTORE DUP2 SLOAD PUSH1 0x1 PUSH1 0x1 PUSH1 0xA0 SHL SUB NOT AND CALLER SWAP1 DUP2 OR SWAP1 SWAP3 SSTORE PUSH1 0x40 MLOAD DUP3 SWAP2 SWAP1 PUSH32 0x8BE0079C531659141344CD1FD0A4F28419497F9722A3DAAFE3B4186F6B6457E0 SWAP1 DUP3 SWAP1 LOG3 POP PUSH1 0x1 PUSH1 0x1 PUSH1 0xA0 SHL SUB DUP2 AND PUSH3 0xFB JUMPI PUSH1 0x40 MLOAD PUSH3 0x461BCD PUSH1 0xE5 SHL DUP2 MSTORE PUSH1 0x20 PUSH1 0x4 DUP3 ADD MSTORE PUSH1 0x33 PUSH1 0x24 DUP3 ADD MSTORE PUSH32 0x4D696E6F7269747950726573616C653A204F70657261746F722063616E277420 PUSH1 0x44 DUP3 ADD MSTORE PUSH32 0x626520746865207A65726F206164647265737300000000000000000000000000 PUSH1 0x64 DUP3 ADD MSTORE PUSH1 0x84 ADD PUSH1 0x40 MLOAD DUP1 SWAP2 SUB SWAP1 REVERT JUMPDEST PUSH32 0xA5E0829CACED8FFDD4DE3C43696C57F7D7A678FF000000000000000000000000 PUSH1 0x80 MSTORE PUSH1 0x4 DUP1 SLOAD PUSH1 0x1 PUSH1 0x1 PUSH1 0xA0 SHL SUB NOT AND PUSH1 0x1 PUSH1 0x1 PUSH1 0xA0 SHL SUB SWAP3 SWAP1 SWAP3 AND SWAP2 SWAP1 SWAP2 OR SWAP1 SSTORE PUSH3 0x175 JUMP JUMPDEST PUSH1 0x0 PUSH1 0x20 DUP3 DUP5 SUB SLT ISZERO PUSH3 0x157 JUMPI DUP1 DUP2 REVERT JUMPDEST DUP2 MLOAD PUSH1 0x1 PUSH1 0x1 PUSH1 0xA0 SHL SUB DUP2 AND DUP2 EQ PUSH3 0x16E JUMPI DUP2 DUP3 REVERT JUMPDEST SWAP4 SWAP3 POP POP POP JUMP JUMPDEST PUSH1 0x80 MLOAD PUSH1 0x60 SHR PUSH2 0x2B83 PUSH3 0x1B0 PUSH1 0x0 CODECOPY PUSH1 0x0 DUP2 DUP2 PUSH2 0x65A ADD MSTORE DUP2 DUP2 PUSH2 0x6EC ADD MSTORE DUP2 DUP2 PUSH2 0x20F4 ADD MSTORE DUP2 DUP2 PUSH2 0x21A0 ADD MSTORE PUSH2 0x2291 ADD MSTORE PUSH2 0x2B83 PUSH1 0x0 RETURN INVALID PUSH1 0x80 PUSH1 0x40 MSTORE PUSH1 0x4 CALLDATASIZE LT PUSH2 0x21E JUMPI PUSH1 0x0 CALLDATALOAD PUSH1 0xE0 SHR DUP1 PUSH4 0x5E6911AF GT PUSH2 0x123 JUMPI DUP1 PUSH4 0xA4399263 GT PUSH2 0xAB JUMPI DUP1 PUSH4 0xC31C9C07 GT PUSH2 0x6F JUMPI DUP1 PUSH4 0xC31C9C07 EQ PUSH2 0x648 JUMPI DUP1 PUSH4 0xD91B3D07 EQ PUSH2 0x67C JUMPI DUP1 PUSH4 0xF2FDE38B EQ PUSH2 0x692 JUMPI DUP1 PUSH4 0xF89BE593 EQ PUSH2 0x6B2 JUMPI DUP1 PUSH4 0xFC0C546A EQ PUSH2 0x6C8 JUMPI PUSH1 0x0 DUP1 REVERT JUMPDEST DUP1 PUSH4 0xA4399263 EQ PUSH2 0x5D2 JUMPI DUP1 PUSH4 0xB071CBE6 EQ PUSH2 0x5E7 JUMPI DUP1 PUSH4 0xB5545A3C EQ PUSH2 0x5FD JUMPI DUP1 PUSH4 0xB7A8807C EQ PUSH2 0x612 JUMPI DUP1 PUSH4 0xBAAC251B EQ PUSH2 0x628 JUMPI PUSH1 0x0 DUP1 REVERT JUMPDEST DUP1 PUSH4 0x89A30271 GT PUSH2 0xF2 JUMPI DUP1 PUSH4 0x89A30271 EQ PUSH2 0x539 JUMPI DUP1 PUSH4 0x8D167405 EQ PUSH2 0x560 JUMPI DUP1 PUSH4 0x8DA5CB5B EQ PUSH2 0x575 JUMPI DUP1 PUSH4 0x9A82A09A EQ PUSH2 0x593 JUMPI DUP1 PUSH4 0xA27AEBBC EQ PUSH2 0x5B2 JUMPI PUSH1 0x0 DUP1 REVERT JUMPDEST DUP1 PUSH4 0x5E6911AF EQ PUSH2 0x4DA JUMPI DUP1 PUSH4 0x656768FA EQ PUSH2 0x4F4 JUMPI DUP1 PUSH4 0x6EB21929 EQ PUSH2 0x50A JUMPI DUP1 PUSH4 0x715018A6 EQ PUSH2 0x524 JUMPI PUSH1 0x0 DUP1 REVERT JUMPDEST DUP1 PUSH4 0x3CA85228 GT PUSH2 0x1A6 JUMPI DUP1 PUSH4 0x48C54B9D GT PUSH2 0x175 JUMPI DUP1 PUSH4 0x48C54B9D EQ PUSH2 0x459 JUMPI DUP1 PUSH4 0x49F1026E EQ PUSH2 0x46E JUMPI DUP1 PUSH4 0x4B6753BC EQ PUSH2 0x484 JUMPI DUP1 PUSH4 0x521EB273 EQ PUSH2 0x49A JUMPI DUP1 PUSH4 0x570CA735 EQ PUSH2 0x4BA JUMPI PUSH1 0x0 DUP1 REVERT JUMPDEST DUP1 PUSH4 0x3CA85228 EQ PUSH2 0x3F9 JUMPI DUP1 PUSH4 0x4042B66F EQ PUSH2 0x419 JUMPI DUP1 PUSH4 0x467E53B1 EQ PUSH2 0x42F JUMPI DUP1 PUSH4 0x47535D7B EQ PUSH2 0x444 JUMPI PUSH1 0x0 DUP1 REVERT JUMPDEST DUP1 PUSH4 0x21EFF7FC GT PUSH2 0x1ED JUMPI DUP1 PUSH4 0x21EFF7FC EQ PUSH2 0x33A JUMPI DUP1 PUSH4 0x2C4E722E EQ PUSH2 0x370 JUMPI DUP1 PUSH4 0x3013CE29 EQ PUSH2 0x386 JUMPI DUP1 PUSH4 0x32FE7B26 EQ PUSH2 0x3BE JUMPI DUP1 PUSH4 0x3610724E EQ PUSH2 0x3E6 JUMPI PUSH1 0x0 DUP1 REVERT JUMPDEST DUP1 PUSH4 0x276650B EQ PUSH2 0x2B2 JUMPI DUP1 PUSH4 0x1512FC22 EQ PUSH2 0x2DB JUMPI DUP1 PUSH4 0x1515BC2B EQ PUSH2 0x2FB JUMPI DUP1 PUSH4 0x214BB60F EQ PUSH2 0x320 JUMPI PUSH1 0x0 DUP1 REVERT JUMPDEST CALLDATASIZE PUSH2 0x2AD JUMPI PUSH2 0x22B PUSH2 0x6E8 JUMP JUMPDEST PUSH2 0x2A2 JUMPI PUSH1 0x40 MLOAD PUSH3 0x461BCD PUSH1 0xE5 SHL DUP2 MSTORE PUSH1 0x20 PUSH1 0x4 DUP3 ADD MSTORE PUSH1 0x3B PUSH1 0x24 DUP3 ADD MSTORE PUSH32 0x4D696E6F7269747950726573616C653A2043616E277420627579206279207365 PUSH1 0x44 DUP3 ADD MSTORE PUSH32 0x6E64696E672066756E647320746F207468697320616464726573730000000000 PUSH1 0x64 DUP3 ADD MSTORE PUSH1 0x84 ADD JUMPDEST PUSH1 0x40 MLOAD DUP1 SWAP2 SUB SWAP1 REVERT JUMPDEST PUSH2 0x2AB CALLVALUE PUSH2 0x791 JUMP JUMPDEST STOP JUMPDEST PUSH1 0x0 DUP1 REVERT JUMPDEST CALLVALUE DUP1 ISZERO PUSH2 0x2BE JUMPI PUSH1 0x0 DUP1 REVERT JUMPDEST POP PUSH2 0x2C8 PUSH1 0xD SLOAD DUP2 JUMP JUMPDEST PUSH1 0x40 MLOAD SWAP1 DUP2 MSTORE PUSH1 0x20 ADD JUMPDEST PUSH1 0x40 MLOAD DUP1 SWAP2 SUB SWAP1 RETURN JUMPDEST CALLVALUE DUP1 ISZERO PUSH2 0x2E7 JUMPI PUSH1 0x0 DUP1 REVERT JUMPDEST POP PUSH2 0x2AB PUSH2 0x2F6 CALLDATASIZE PUSH1 0x4 PUSH2 0x2939 JUMP JUMPDEST PUSH2 0x912 JUMP JUMPDEST CALLVALUE DUP1 ISZERO PUSH2 0x307 JUMPI PUSH1 0x0 DUP1 REVERT JUMPDEST POP PUSH2 0x310 PUSH2 0xA88 JUMP JUMPDEST PUSH1 0x40 MLOAD SWAP1 ISZERO ISZERO DUP2 MSTORE PUSH1 0x20 ADD PUSH2 0x2D2 JUMP JUMPDEST CALLVALUE DUP1 ISZERO PUSH2 0x32C JUMPI PUSH1 0x0 DUP1 REVERT JUMPDEST POP PUSH1 0x13 SLOAD PUSH2 0x310 SWAP1 PUSH1 0xFF AND DUP2 JUMP JUMPDEST CALLVALUE DUP1 ISZERO PUSH2 0x346 JUMPI PUSH1 0x0 DUP1 REVERT JUMPDEST POP PUSH2 0x2C8 PUSH2 0x355 CALLDATASIZE PUSH1 0x4 PUSH2 0x276D JUMP JUMPDEST PUSH1 0x1 PUSH1 0x1 PUSH1 0xA0 SHL SUB AND PUSH1 0x0 SWAP1 DUP2 MSTORE PUSH1 0xE PUSH1 0x20 MSTORE PUSH1 0x40 SWAP1 KECCAK256 SLOAD SWAP1 JUMP JUMPDEST CALLVALUE DUP1 ISZERO PUSH2 0x37C JUMPI PUSH1 0x0 DUP1 REVERT JUMPDEST POP PUSH2 0x2C8 PUSH1 0x8 SLOAD DUP2 JUMP JUMPDEST CALLVALUE DUP1 ISZERO PUSH2 0x392 JUMPI PUSH1 0x0 DUP1 REVERT JUMPDEST POP PUSH1 0x6 SLOAD PUSH2 0x3A6 SWAP1 PUSH1 0x1 PUSH1 0x1 PUSH1 0xA0 SHL SUB AND DUP2 JUMP JUMPDEST PUSH1 0x40 MLOAD PUSH1 0x1 PUSH1 0x1 PUSH1 0xA0 SHL SUB SWAP1 SWAP2 AND DUP2 MSTORE PUSH1 0x20 ADD PUSH2 0x2D2 JUMP JUMPDEST CALLVALUE DUP1 ISZERO PUSH2 0x3CA JUMPI PUSH1 0x0 DUP1 REVERT JUMPDEST POP PUSH2 0x3A6 PUSH20 0xA5E0829CACED8FFDD4DE3C43696C57F7D7A678FF DUP2 JUMP JUMPDEST PUSH2 0x2AB PUSH2 0x3F4 CALLDATASIZE PUSH1 0x4 PUSH2 0x27C1 JUMP JUMPDEST PUSH2 0x791 JUMP JUMPDEST CALLVALUE DUP1 ISZERO PUSH2 0x405 JUMPI PUSH1 0x0 DUP1 REVERT JUMPDEST POP PUSH2 0x2AB PUSH2 0x414 CALLDATASIZE PUSH1 0x4 PUSH2 0x288C JUMP JUMPDEST PUSH2 0xAA1 JUMP JUMPDEST CALLVALUE DUP1 ISZERO PUSH2 0x425 JUMPI PUSH1 0x0 DUP1 REVERT JUMPDEST POP PUSH2 0x2C8 PUSH1 0x9 SLOAD DUP2 JUMP JUMPDEST CALLVALUE DUP1 ISZERO PUSH2 0x43B JUMPI PUSH1 0x0 DUP1 REVERT JUMPDEST POP PUSH2 0x2AB PUSH2 0x126F JUMP JUMPDEST CALLVALUE DUP1 ISZERO PUSH2 0x450 JUMPI PUSH1 0x0 DUP1 REVERT JUMPDEST POP PUSH2 0x310 PUSH2 0x134C JUMP JUMPDEST CALLVALUE DUP1 ISZERO PUSH2 0x465 JUMPI PUSH1 0x0 DUP1 REVERT JUMPDEST POP PUSH2 0x2AB PUSH2 0x1365 JUMP JUMPDEST CALLVALUE DUP1 ISZERO PUSH2 0x47A JUMPI PUSH1 0x0 DUP1 REVERT JUMPDEST POP PUSH2 0x2C8 PUSH1 0x12 SLOAD DUP2 JUMP JUMPDEST CALLVALUE DUP1 ISZERO PUSH2 0x490 JUMPI PUSH1 0x0 DUP1 REVERT JUMPDEST POP PUSH2 0x2C8 PUSH1 0x10 SLOAD DUP2 JUMP JUMPDEST CALLVALUE DUP1 ISZERO PUSH2 0x4A6 JUMPI PUSH1 0x0 DUP1 REVERT JUMPDEST POP PUSH1 0x7 SLOAD PUSH2 0x3A6 SWAP1 PUSH1 0x1 PUSH1 0x1 PUSH1 0xA0 SHL SUB AND DUP2 JUMP JUMPDEST CALLVALUE DUP1 ISZERO PUSH2 0x4C6 JUMPI PUSH1 0x0 DUP1 REVERT JUMPDEST POP PUSH1 0x4 SLOAD PUSH2 0x3A6 SWAP1 PUSH1 0x1 PUSH1 0x1 PUSH1 0xA0 SHL SUB AND DUP2 JUMP JUMPDEST CALLVALUE DUP1 ISZERO PUSH2 0x4E6 JUMPI PUSH1 0x0 DUP1 REVERT JUMPDEST POP PUSH1 0xB SLOAD PUSH1 0x9 SLOAD LT ISZERO PUSH2 0x310 JUMP JUMPDEST CALLVALUE DUP1 ISZERO PUSH2 0x500 JUMPI PUSH1 0x0 DUP1 REVERT JUMPDEST POP PUSH2 0x2C8 PUSH1 0x11 SLOAD DUP2 JUMP JUMPDEST CALLVALUE DUP1 ISZERO PUSH2 0x516 JUMPI PUSH1 0x0 DUP1 REVERT JUMPDEST POP PUSH1 0xC SLOAD PUSH1 0x9 SLOAD LT ISZERO PUSH2 0x310 JUMP JUMPDEST CALLVALUE DUP1 ISZERO PUSH2 0x530 JUMPI PUSH1 0x0 DUP1 REVERT JUMPDEST POP PUSH2 0x2AB PUSH2 0x1607 JUMP JUMPDEST CALLVALUE DUP1 ISZERO PUSH2 0x545 JUMPI PUSH1 0x0 DUP1 REVERT JUMPDEST POP PUSH2 0x3A6 PUSH19 0xD06725663411E6D4599F0B630AB003D4290EBA DUP2 JUMP JUMPDEST CALLVALUE DUP1 ISZERO PUSH2 0x56C JUMPI PUSH1 0x0 DUP1 REVERT JUMPDEST POP PUSH2 0x310 PUSH2 0x6E8 JUMP JUMPDEST CALLVALUE DUP1 ISZERO PUSH2 0x581 JUMPI PUSH1 0x0 DUP1 REVERT JUMPDEST POP PUSH1 0x1 SLOAD PUSH1 0x1 PUSH1 0x1 PUSH1 0xA0 SHL SUB AND PUSH2 0x3A6 JUMP JUMPDEST CALLVALUE DUP1 ISZERO PUSH2 0x59F JUMPI PUSH1 0x0 DUP1 REVERT JUMPDEST POP PUSH1 0x13 SLOAD PUSH2 0x310 SWAP1 PUSH2 0x100 SWAP1 DIV PUSH1 0xFF AND DUP2 JUMP JUMPDEST CALLVALUE DUP1 ISZERO PUSH2 0x5BE JUMPI PUSH1 0x0 DUP1 REVERT JUMPDEST POP PUSH2 0x2AB PUSH2 0x5CD CALLDATASIZE PUSH1 0x4 PUSH2 0x27C1 JUMP JUMPDEST PUSH2 0x167B JUMP JUMPDEST CALLVALUE DUP1 ISZERO PUSH2 0x5DE JUMPI PUSH1 0x0 DUP1 REVERT JUMPDEST POP PUSH2 0x2AB PUSH2 0x17C9 JUMP JUMPDEST CALLVALUE DUP1 ISZERO PUSH2 0x5F3 JUMPI PUSH1 0x0 DUP1 REVERT JUMPDEST POP PUSH2 0x2C8 PUSH1 0xB SLOAD DUP2 JUMP JUMPDEST CALLVALUE DUP1 ISZERO PUSH2 0x609 JUMPI PUSH1 0x0 DUP1 REVERT JUMPDEST POP PUSH2 0x2AB PUSH2 0x18F6 JUMP JUMPDEST CALLVALUE DUP1 ISZERO PUSH2 0x61E JUMPI PUSH1 0x0 DUP1 REVERT JUMPDEST POP PUSH2 0x2C8 PUSH1 0xF SLOAD DUP2 JUMP JUMPDEST CALLVALUE DUP1 ISZERO PUSH2 0x634 JUMPI PUSH1 0x0 DUP1 REVERT JUMPDEST POP PUSH2 0x2AB PUSH2 0x643 CALLDATASIZE PUSH1 0x4 PUSH2 0x27F1 JUMP JUMPDEST PUSH2 0x1B31 JUMP JUMPDEST CALLVALUE DUP1 ISZERO PUSH2 0x654 JUMPI PUSH1 0x0 DUP1 REVERT JUMPDEST POP PUSH2 0x3A6 PUSH32 0x0 DUP2 JUMP JUMPDEST CALLVALUE DUP1 ISZERO PUSH2 0x688 JUMPI PUSH1 0x0 DUP1 REVERT JUMPDEST POP PUSH2 0x2C8 PUSH1 0xA SLOAD DUP2 JUMP JUMPDEST CALLVALUE DUP1 ISZERO PUSH2 0x69E JUMPI PUSH1 0x0 DUP1 REVERT JUMPDEST POP PUSH2 0x2AB PUSH2 0x6AD CALLDATASIZE PUSH1 0x4 PUSH2 0x276D JUMP JUMPDEST PUSH2 0x1B92 JUMP JUMPDEST CALLVALUE DUP1 ISZERO PUSH2 0x6BE JUMPI PUSH1 0x0 DUP1 REVERT JUMPDEST POP PUSH2 0x2C8 PUSH1 0xC SLOAD DUP2 JUMP JUMPDEST CALLVALUE DUP1 ISZERO PUSH2 0x6D4 JUMPI PUSH1 0x0 DUP1 REVERT JUMPDEST POP PUSH1 0x5 SLOAD PUSH2 0x3A6 SWAP1 PUSH1 0x1 PUSH1 0x1 PUSH1 0xA0 SHL SUB AND DUP2 JUMP JUMPDEST PUSH1 0x0 PUSH32 0x0 PUSH1 0x1 PUSH1 0x1 PUSH1 0xA0 SHL SUB AND PUSH4 0xAD5C4648 PUSH1 0x40 MLOAD DUP2 PUSH4 0xFFFFFFFF AND PUSH1 0xE0 SHL DUP2 MSTORE PUSH1 0x4 ADD PUSH1 0x20 PUSH1 0x40 MLOAD DUP1 DUP4 SUB DUP2 DUP7 DUP1 EXTCODESIZE ISZERO DUP1 ISZERO PUSH2 0x743 JUMPI PUSH1 0x0 DUP1 REVERT JUMPDEST POP GAS STATICCALL ISZERO DUP1 ISZERO PUSH2 0x757 JUMPI RETURNDATASIZE PUSH1 0x0 DUP1 RETURNDATACOPY RETURNDATASIZE PUSH1 0x0 REVERT JUMPDEST POP POP POP POP PUSH1 0x40 MLOAD RETURNDATASIZE PUSH1 0x1F NOT PUSH1 0x1F DUP3 ADD AND DUP3 ADD DUP1 PUSH1 0x40 MSTORE POP DUP2 ADD SWAP1 PUSH2 0x77B SWAP2 SWAP1 PUSH2 0x2789 JUMP JUMPDEST PUSH1 0x6 SLOAD PUSH1 0x1 PUSH1 0x1 PUSH1 0xA0 SHL SUB SWAP1 DUP2 AND SWAP2 AND EQ SWAP2 SWAP1 POP JUMP JUMPDEST PUSH1 0x2 PUSH1 0x0 SLOAD EQ ISZERO PUSH2 0x7E4 JUMPI PUSH1 0x40 MLOAD PUSH3 0x461BCD PUSH1 0xE5 SHL DUP2 MSTORE PUSH1 0x20 PUSH1 0x4 DUP3 ADD MSTORE PUSH1 0x1F PUSH1 0x24 DUP3 ADD MSTORE PUSH32 0x5265656E7472616E637947756172643A207265656E7472616E742063616C6C00 PUSH1 0x44 DUP3 ADD MSTORE PUSH1 0x64 ADD PUSH2 0x299 JUMP JUMPDEST PUSH1 0x2 PUSH1 0x0 SWAP1 DUP2 SSTORE CALLER SWAP1 PUSH2 0x7F7 DUP3 DUP5 PUSH2 0x1C7D JUMP JUMPDEST SWAP1 POP PUSH1 0x0 DUP2 GT PUSH2 0x85B JUMPI PUSH1 0x40 MLOAD PUSH3 0x461BCD PUSH1 0xE5 SHL DUP2 MSTORE PUSH1 0x20 PUSH1 0x4 DUP3 ADD MSTORE PUSH1 0x29 PUSH1 0x24 DUP3 ADD MSTORE PUSH32 0x4D696E6F7269747950726573616C653A20697373756520636F6C6C656374696E PUSH1 0x44 DUP3 ADD MSTORE PUSH9 0x19C81C185E5B595B9D PUSH1 0xBA SHL PUSH1 0x64 DUP3 ADD MSTORE PUSH1 0x84 ADD PUSH2 0x299 JUMP JUMPDEST PUSH1 0x0 PUSH2 0x866 DUP3 PUSH2 0x1EC5 JUMP JUMPDEST PUSH1 0x9 SLOAD SWAP1 SWAP2 POP PUSH2 0x876 SWAP1 DUP4 PUSH2 0x1EDC JUMP JUMPDEST PUSH1 0x9 SSTORE PUSH1 0x1 PUSH1 0x1 PUSH1 0xA0 SHL SUB DUP4 AND PUSH1 0x0 SWAP1 DUP2 MSTORE PUSH1 0xE PUSH1 0x20 MSTORE PUSH1 0x40 SWAP1 KECCAK256 SLOAD PUSH2 0x89C SWAP1 DUP4 PUSH2 0x1EDC JUMP JUMPDEST PUSH1 0x1 PUSH1 0x1 PUSH1 0xA0 SHL SUB DUP5 AND PUSH1 0x0 DUP2 DUP2 MSTORE PUSH1 0xE PUSH1 0x20 SWAP1 DUP2 MSTORE PUSH1 0x40 SWAP2 DUP3 SWAP1 KECCAK256 SWAP4 SWAP1 SWAP4 SSTORE DUP1 MLOAD DUP6 DUP2 MSTORE SWAP3 DUP4 ADD DUP5 SWAP1 MSTORE SWAP1 SWAP2 PUSH32 0x8FAFEBCAF9D154343DAD25669BFA277F4FBACD7AC6B0C4FED522580E040A0F33 SWAP2 ADD PUSH1 0x40 MLOAD DUP1 SWAP2 SUB SWAP1 LOG2 PUSH1 0xB SLOAD PUSH1 0x9 SLOAD LT PUSH2 0x907 JUMPI PUSH2 0x907 PUSH2 0x17C9 JUMP JUMPDEST POP POP PUSH1 0x1 PUSH1 0x0 SSTORE POP POP JUMP JUMPDEST PUSH1 0x4 SLOAD PUSH1 0x1 PUSH1 0x1 PUSH1 0xA0 SHL SUB AND CALLER EQ DUP1 PUSH2 0x935 JUMPI POP PUSH1 0x1 SLOAD PUSH1 0x1 PUSH1 0x1 PUSH1 0xA0 SHL SUB AND CALLER EQ JUMPDEST PUSH2 0x951 JUMPI PUSH1 0x40 MLOAD PUSH3 0x461BCD PUSH1 0xE5 SHL DUP2 MSTORE PUSH1 0x4 ADD PUSH2 0x299 SWAP1 PUSH2 0x2A51 JUMP JUMPDEST PUSH2 0x959 PUSH2 0xA88 JUMP JUMPDEST ISZERO PUSH2 0x9A6 JUMPI PUSH1 0x40 MLOAD PUSH3 0x461BCD PUSH1 0xE5 SHL DUP2 MSTORE PUSH1 0x20 PUSH1 0x4 DUP3 ADD MSTORE PUSH1 0x1F PUSH1 0x24 DUP3 ADD MSTORE PUSH32 0x4D696E6F7269747950726573616C653A20616C726561647920636C6F73656400 PUSH1 0x44 DUP3 ADD MSTORE PUSH1 0x64 ADD PUSH2 0x299 JUMP JUMPDEST PUSH2 0x9AE PUSH2 0x134C JUMP JUMPDEST ISZERO PUSH2 0xA32 JUMPI PUSH1 0x40 MLOAD PUSH3 0x461BCD PUSH1 0xE5 SHL DUP2 MSTORE PUSH1 0x20 PUSH1 0x4 DUP3 ADD MSTORE PUSH1 0x48 PUSH1 0x24 DUP3 ADD MSTORE PUSH32 0x4D696E6F7269747950726573616C653A20616C7265616479206F70656E2C2075 PUSH1 0x44 DUP3 ADD MSTORE PUSH32 0x736520657874656E6454696D6520746F206368616E67652074686520636C6F73 PUSH1 0x64 DUP3 ADD MSTORE PUSH8 0x696E672074696D65 PUSH1 0xC0 SHL PUSH1 0x84 DUP3 ADD MSTORE PUSH1 0xA4 ADD PUSH2 0x299 JUMP JUMPDEST PUSH1 0xF SLOAD PUSH1 0x10 SLOAD PUSH1 0x40 DUP1 MLOAD SWAP3 DUP4 MSTORE PUSH1 0x20 DUP4 ADD DUP6 SWAP1 MSTORE DUP3 ADD MSTORE PUSH1 0x60 DUP2 ADD DUP3 SWAP1 MSTORE PUSH32 0xCEE39188ADAF9A8B11D1C48B0A60F530D2D2923C00D7F9AC4A8294501D77E9BA SWAP1 PUSH1 0x80 ADD PUSH1 0x40 MLOAD DUP1 SWAP2 SUB SWAP1 LOG1 PUSH1 0xF SWAP2 SWAP1 SWAP2 SSTORE PUSH1 0x10 SSTORE JUMP JUMPDEST PUSH1 0x0 PUSH1 0x10 SLOAD TIMESTAMP GT DUP1 ISZERO PUSH2 0xA9C JUMPI POP PUSH1 0x10 SLOAD ISZERO ISZERO JUMPDEST SWAP1 POP SWAP1 JUMP JUMPDEST PUSH1 0x1 SLOAD PUSH1 0x1 PUSH1 0x1 PUSH1 0xA0 SHL SUB AND CALLER EQ PUSH2 0xACB JUMPI PUSH1 0x40 MLOAD PUSH3 0x461BCD PUSH1 0xE5 SHL DUP2 MSTORE PUSH1 0x4 ADD PUSH2 0x299 SWAP1 PUSH2 0x29DA JUMP JUMPDEST PUSH1 0xF SLOAD ISZERO DUP1 PUSH2 0xAE9 JUMPI POP PUSH1 0xF SLOAD PUSH2 0xAE5 SWAP1 PUSH3 0x15180 PUSH2 0x1F3B JUMP JUMPDEST TIMESTAMP GT ISZERO JUMPDEST PUSH2 0xB52 JUMPI PUSH1 0x40 MLOAD PUSH3 0x461BCD PUSH1 0xE5 SHL DUP2 MSTORE PUSH1 0x20 PUSH1 0x4 DUP3 ADD MSTORE PUSH1 0x34 PUSH1 0x24 DUP3 ADD MSTORE PUSH32 0x4D696E6F7269747950726573616C653A2043616E2774206D6F64696679203C20 PUSH1 0x44 DUP3 ADD MSTORE PUSH20 0x3120646179206265666F7265206F70656E696E67 PUSH1 0x60 SHL PUSH1 0x64 DUP3 ADD MSTORE PUSH1 0x84 ADD PUSH2 0x299 JUMP JUMPDEST PUSH1 0x13 SLOAD PUSH2 0x100 SWAP1 DIV PUSH1 0xFF AND ISZERO PUSH2 0xBD0 JUMPI PUSH1 0x40 MLOAD PUSH3 0x461BCD PUSH1 0xE5 SHL DUP2 MSTORE PUSH1 0x20 PUSH1 0x4 DUP3 ADD MSTORE PUSH1 0x3A PUSH1 0x24 DUP3 ADD MSTORE PUSH32 0x4D696E6F7269747950726573616C653A2043616E27742072652D757365206120 PUSH1 0x44 DUP3 ADD MSTORE PUSH32 0x63616E63656C6C65642070726573616C6520636F6E7472616374000000000000 PUSH1 0x64 DUP3 ADD MSTORE PUSH1 0x84 ADD PUSH2 0x299 JUMP JUMPDEST PUSH1 0x0 DUP13 GT PUSH2 0xC20 JUMPI PUSH1 0x40 MLOAD PUSH3 0x461BCD PUSH1 0xE5 SHL DUP2 MSTORE PUSH1 0x20 PUSH1 0x4 DUP3 ADD DUP2 SWAP1 MSTORE PUSH1 0x24 DUP3 ADD MSTORE PUSH32 0x4D696E6F7269747950726573616C653A20726174652063616E27742062652030 PUSH1 0x44 DUP3 ADD MSTORE PUSH1 0x64 ADD PUSH2 0x299 JUMP JUMPDEST PUSH1 0x1 PUSH1 0x1 PUSH1 0xA0 SHL SUB DUP12 AND PUSH2 0xC90 JUMPI PUSH1 0x40 MLOAD PUSH3 0x461BCD PUSH1 0xE5 SHL DUP2 MSTORE PUSH1 0x20 PUSH1 0x4 DUP3 ADD MSTORE PUSH1 0x31 PUSH1 0x24 DUP3 ADD MSTORE PUSH32 0x4D696E6F7269747950726573616C653A2077616C6C65742063616E2774206265 PUSH1 0x44 DUP3 ADD MSTORE PUSH17 0x20746865207A65726F2061646472657373 PUSH1 0x78 SHL PUSH1 0x64 DUP3 ADD MSTORE PUSH1 0x84 ADD PUSH2 0x299 JUMP JUMPDEST PUSH1 0x1 PUSH1 0x1 PUSH1 0xA0 SHL SUB DUP11 AND PUSH2 0xCFF JUMPI PUSH1 0x40 MLOAD PUSH3 0x461BCD PUSH1 0xE5 SHL DUP2 MSTORE PUSH1 0x20 PUSH1 0x4 DUP3 ADD MSTORE PUSH1 0x30 PUSH1 0x24 DUP3 ADD MSTORE PUSH32 0x4D696E6F7269747950726573616C653A20746F6B656E2063616E277420626520 PUSH1 0x44 DUP3 ADD MSTORE PUSH16 0x746865207A65726F2061646472657373 PUSH1 0x80 SHL PUSH1 0x64 DUP3 ADD MSTORE PUSH1 0x84 ADD PUSH2 0x299 JUMP JUMPDEST PUSH1 0x1 PUSH1 0x1 PUSH1 0xA0 SHL SUB DUP7 AND PUSH2 0xD7B JUMPI PUSH1 0x40 MLOAD PUSH3 0x461BCD PUSH1 0xE5 SHL DUP2 MSTORE PUSH1 0x20 PUSH1 0x4 DUP3 ADD MSTORE PUSH1 0x38 PUSH1 0x24 DUP3 ADD MSTORE PUSH32 0x4D696E6F7269747950726573616C653A207061796D656E7420746F6B656E2063 PUSH1 0x44 DUP3 ADD MSTORE PUSH32 0x616E277420626520746865207A65726F20616464726573730000000000000000 PUSH1 0x64 DUP3 ADD MSTORE PUSH1 0x84 ADD PUSH2 0x299 JUMP JUMPDEST PUSH1 0x0 DUP10 GT PUSH2 0xDD7 JUMPI PUSH1 0x40 MLOAD PUSH3 0x461BCD PUSH1 0xE5 SHL DUP2 MSTORE PUSH1 0x20 PUSH1 0x4 DUP3 ADD MSTORE PUSH1 0x23 PUSH1 0x24 DUP3 ADD MSTORE PUSH32 0x4D696E6F7269747950726573616C653A20686172646361702063616E27742062 PUSH1 0x44 DUP3 ADD MSTORE PUSH3 0x65203 PUSH1 0xEC SHL PUSH1 0x64 DUP3 ADD MSTORE PUSH1 0x84 ADD PUSH2 0x299 JUMP JUMPDEST PUSH1 0x0 DUP9 GT PUSH2 0xE33 JUMPI PUSH1 0x40 MLOAD PUSH3 0x461BCD PUSH1 0xE5 SHL DUP2 MSTORE PUSH1 0x20 PUSH1 0x4 DUP3 ADD MSTORE PUSH1 0x23 PUSH1 0x24 DUP3 ADD MSTORE PUSH32 0x4D696E6F7269747950726573616C653A20736F66746361702063616E27742062 PUSH1 0x44 DUP3 ADD MSTORE PUSH3 0x65203 PUSH1 0xEC SHL PUSH1 0x64 DUP3 ADD MSTORE PUSH1 0x84 ADD PUSH2 0x299 JUMP JUMPDEST DUP9 DUP9 LT PUSH2 0xE95 JUMPI PUSH1 0x40 MLOAD PUSH3 0x461BCD PUSH1 0xE5 SHL DUP2 MSTORE PUSH1 0x20 PUSH1 0x4 DUP3 ADD MSTORE PUSH1 0x2A PUSH1 0x24 DUP3 ADD MSTORE PUSH32 0x4D696E6F7269747950726573616C653A20736F6674636170206D757374206265 PUSH1 0x44 DUP3 ADD MSTORE PUSH10 0x203C206861726463617 PUSH1 0xB4 SHL PUSH1 0x64 DUP3 ADD MSTORE PUSH1 0x84 ADD PUSH2 0x299 JUMP JUMPDEST PUSH1 0x0 DUP8 GT PUSH2 0xEF8 JUMPI PUSH1 0x40 MLOAD PUSH3 0x461BCD PUSH1 0xE5 SHL DUP2 MSTORE PUSH1 0x20 PUSH1 0x4 DUP3 ADD MSTORE PUSH1 0x2A PUSH1 0x24 DUP3 ADD MSTORE PUSH32 0x4D696E6F7269747950726573616C653A20696E646976696475616C2063617020 PUSH1 0x44 DUP3 ADD MSTORE PUSH10 0x63616E2774206265203 PUSH1 0xB4 SHL PUSH1 0x64 DUP3 ADD MSTORE PUSH1 0x84 ADD PUSH2 0x299 JUMP JUMPDEST TIMESTAMP DUP6 LT ISZERO PUSH2 0xF63 JUMPI PUSH1 0x40 MLOAD PUSH3 0x461BCD PUSH1 0xE5 SHL DUP2 MSTORE PUSH1 0x20 PUSH1 0x4 DUP3 ADD MSTORE PUSH1 0x32 PUSH1 0x24 DUP3 ADD MSTORE PUSH32 0x4D696E6F7269747950726573616C653A206F70656E696E672074696D65206361 PUSH1 0x44 DUP3 ADD MSTORE PUSH18 0x1B89DD081899481A5B881D1A19481C185CDD PUSH1 0x72 SHL PUSH1 0x64 DUP3 ADD MSTORE PUSH1 0x84 ADD PUSH2 0x299 JUMP JUMPDEST DUP5 DUP5 GT PUSH2 0xFD8 JUMPI PUSH1 0x40 MLOAD PUSH3 0x461BCD PUSH1 0xE5 SHL DUP2 MSTORE PUSH1 0x20 PUSH1 0x4 DUP3 ADD MSTORE PUSH1 0x3A PUSH1 0x24 DUP3 ADD MSTORE PUSH32 0x4D696E6F7269747950726573616C653A20636C6F73696E672074696D65206361 PUSH1 0x44 DUP3 ADD MSTORE PUSH32 0x6E2774206265206265666F7265206F70656E696E672074696D65000000000000 PUSH1 0x64 DUP3 ADD MSTORE PUSH1 0x84 ADD PUSH2 0x299 JUMP JUMPDEST PUSH1 0x0 DUP4 GT PUSH2 0x103B JUMPI PUSH1 0x40 MLOAD PUSH3 0x461BCD PUSH1 0xE5 SHL DUP2 MSTORE PUSH1 0x20 PUSH1 0x4 DUP3 ADD MSTORE PUSH1 0x2A PUSH1 0x24 DUP3 ADD MSTORE PUSH32 0x4D696E6F7269747950726573616C653A206D75737420616464203E203020746F PUSH1 0x44 DUP3 ADD MSTORE PUSH10 0x6B656E7320746F204C5 PUSH1 0xB4 SHL PUSH1 0x64 DUP3 ADD MSTORE PUSH1 0x84 ADD PUSH2 0x299 JUMP JUMPDEST PUSH1 0x46 DUP3 LT ISZERO DUP1 ISZERO PUSH2 0x104D JUMPI POP PUSH1 0x64 DUP3 GT ISZERO JUMPDEST PUSH2 0x10CA JUMPI PUSH1 0x40 MLOAD PUSH3 0x461BCD PUSH1 0xE5 SHL DUP2 MSTORE PUSH1 0x20 PUSH1 0x4 DUP3 ADD MSTORE PUSH1 0x42 PUSH1 0x24 DUP3 ADD MSTORE PUSH32 0x4D696E6F7269747950726573616C653A206D75737420616464203E3D20373025 PUSH1 0x44 DUP3 ADD MSTORE PUSH32 0x20616E64203C3D2031303025206F66207261697365642066756E647320746F20 PUSH1 0x64 DUP3 ADD MSTORE PUSH2 0x4C5 PUSH1 0xF4 SHL PUSH1 0x84 DUP3 ADD MSTORE PUSH1 0xA4 ADD PUSH2 0x299 JUMP JUMPDEST DUP1 ISZERO PUSH2 0x1207 JUMPI PUSH2 0x10E4 DUP4 PUSH2 0x10DE DUP12 DUP16 PUSH2 0x1F7D JUMP JUMPDEST SWAP1 PUSH2 0x1EDC JUMP JUMPDEST PUSH1 0x40 MLOAD PUSH4 0x70A08231 PUSH1 0xE0 SHL DUP2 MSTORE ADDRESS PUSH1 0x4 DUP3 ADD MSTORE PUSH1 0x1 PUSH1 0x1 PUSH1 0xA0 SHL SUB DUP13 AND SWAP1 PUSH4 0x70A08231 SWAP1 PUSH1 0x24 ADD PUSH1 0x20 PUSH1 0x40 MLOAD DUP1 DUP4 SUB DUP2 DUP7 DUP1 EXTCODESIZE ISZERO DUP1 ISZERO PUSH2 0x1123 JUMPI PUSH1 0x0 DUP1 REVERT JUMPDEST POP GAS STATICCALL ISZERO DUP1 ISZERO PUSH2 0x1137 JUMPI RETURNDATASIZE PUSH1 0x0 DUP1 RETURNDATACOPY RETURNDATASIZE PUSH1 0x0 REVERT JUMPDEST POP POP POP POP PUSH1 0x40 MLOAD RETURNDATASIZE PUSH1 0x1F NOT PUSH1 0x1F DUP3 ADD AND DUP3 ADD DUP1 PUSH1 0x40 MSTORE POP DUP2 ADD SWAP1 PUSH2 0x115B SWAP2 SWAP1 PUSH2 0x27D9 JUMP JUMPDEST LT ISZERO PUSH2 0x1207 JUMPI PUSH1 0x40 MLOAD PUSH3 0x461BCD PUSH1 0xE5 SHL DUP2 MSTORE PUSH1 0x20 PUSH1 0x4 DUP3 ADD MSTORE PUSH1 0x69 PUSH1 0x24 DUP3 ADD MSTORE PUSH32 0x4D696E6F7269747950726573616C653A204E6F7420656E6F75676820746F6B65 PUSH1 0x44 DUP3 ADD MSTORE PUSH32 0x6E73206F776E656420746F20636F6D706C6574652070726573616C652E204465 PUSH1 0x64 DUP3 ADD MSTORE PUSH32 0x706F73697420746F6B656E73206265666F72652063616C6C696E672074686973 PUSH1 0x84 DUP3 ADD MSTORE PUSH9 0x10333AB731BA34B7B7 PUSH1 0xB9 SHL PUSH1 0xA4 DUP3 ADD MSTORE PUSH1 0xC4 ADD PUSH2 0x299 JUMP JUMPDEST POP PUSH1 0x8 SWAP11 SWAP1 SWAP11 SSTORE PUSH1 0x7 DUP1 SLOAD PUSH1 0x1 PUSH1 0x1 PUSH1 0xA0 SHL SUB NOT SWAP1 DUP2 AND PUSH1 0x1 PUSH1 0x1 PUSH1 0xA0 SHL SUB SWAP12 DUP13 AND OR SWAP1 SWAP2 SSTORE PUSH1 0x5 DUP1 SLOAD DUP3 AND SWAP10 DUP12 AND SWAP10 SWAP1 SWAP10 OR SWAP1 SWAP9 SSTORE PUSH1 0x6 DUP1 SLOAD SWAP1 SWAP9 AND SWAP4 SWAP1 SWAP9 AND SWAP3 SWAP1 SWAP3 OR SWAP1 SWAP6 SSTORE PUSH1 0xB SWAP4 SWAP1 SWAP4 SSTORE PUSH1 0xC SWAP2 SWAP1 SWAP2 SSTORE PUSH1 0xD SSTORE PUSH1 0xF SWAP2 SWAP1 SWAP2 SSTORE PUSH1 0x10 SSTORE PUSH1 0x11 SSTORE PUSH1 0x12 SSTORE JUMP JUMPDEST PUSH1 0x4 SLOAD PUSH1 0x1 PUSH1 0x1 PUSH1 0xA0 SHL SUB AND CALLER EQ DUP1 PUSH2 0x1292 JUMPI POP PUSH1 0x1 SLOAD PUSH1 0x1 PUSH1 0x1 PUSH1 0xA0 SHL SUB AND CALLER EQ JUMPDEST PUSH2 0x12AE JUMPI PUSH1 0x40 MLOAD PUSH3 0x461BCD PUSH1 0xE5 SHL DUP2 MSTORE PUSH1 0x4 ADD PUSH2 0x299 SWAP1 PUSH2 0x2A51 JUMP JUMPDEST PUSH1 0x13 SLOAD PUSH1 0xFF AND ISZERO PUSH2 0x12D1 JUMPI PUSH1 0x40 MLOAD PUSH3 0x461BCD PUSH1 0xE5 SHL DUP2 MSTORE PUSH1 0x4 ADD PUSH2 0x299 SWAP1 PUSH2 0x2A0F JUMP JUMPDEST PUSH2 0x12D9 PUSH2 0x134C JUMP JUMPDEST DUP1 PUSH2 0x12E7 JUMPI POP PUSH2 0x12E7 PUSH2 0xA88 JUMP JUMPDEST DUP1 ISZERO PUSH2 0x12F5 JUMPI POP PUSH1 0x0 PUSH1 0x9 SLOAD GT JUMPDEST ISZERO PUSH2 0x130A JUMPI PUSH1 0x13 DUP1 SLOAD PUSH2 0xFF00 NOT AND PUSH2 0x100 OR SWAP1 SSTORE JUMPDEST PUSH1 0x0 PUSH1 0x8 DUP2 SWAP1 SSTORE PUSH1 0x7 DUP1 SLOAD PUSH1 0x1 PUSH1 0x1 PUSH1 0xA0 SHL SUB NOT AND SWAP1 SSTORE PUSH1 0xB DUP2 SWAP1 SSTORE PUSH1 0xC DUP2 SWAP1 SSTORE PUSH1 0xD DUP2 SWAP1 SSTORE PUSH1 0xF DUP2 SWAP1 SSTORE PUSH1 0x10 DUP2 SWAP1 SSTORE PUSH1 0x11 DUP2 SWAP1 SSTORE PUSH1 0x12 SSTORE PUSH2 0x134A PUSH2 0x1FFC JUMP JUMPDEST JUMP JUMPDEST PUSH1 0x0 PUSH1 0xF SLOAD TIMESTAMP LT ISZERO DUP1 ISZERO PUSH2 0xA9C JUMPI POP POP PUSH1 0x10 SLOAD TIMESTAMP GT ISZERO SWAP1 JUMP JUMPDEST PUSH1 0x13 SLOAD PUSH1 0xFF AND PUSH2 0x13EB JUMPI PUSH1 0x40 MLOAD PUSH3 0x461BCD PUSH1 0xE5 SHL DUP2 MSTORE PUSH1 0x20 PUSH1 0x4 DUP3 ADD MSTORE PUSH1 0x44 PUSH1 0x24 DUP3 ADD DUP2 SWAP1 MSTORE PUSH32 0x4D696E6F7269747950726573616C653A206E6F742066696E616C697365642C20 SWAP1 DUP3 ADD MSTORE PUSH32 0x63616C6C2066696E616C697365206265666F726520636C61696D696E6720746F PUSH1 0x64 DUP3 ADD MSTORE PUSH4 0x6B656E73 PUSH1 0xE0 SHL PUSH1 0x84 DUP3 ADD MSTORE PUSH1 0xA4 ADD PUSH2 0x299 JUMP JUMPDEST PUSH1 0xC SLOAD PUSH1 0x9 SLOAD LT ISZERO PUSH2 0x1467 JUMPI PUSH1 0x40 DUP1 MLOAD PUSH3 0x461BCD PUSH1 0xE5 SHL DUP2 MSTORE PUSH1 0x20 PUSH1 0x4 DUP3 ADD MSTORE PUSH1 0x24 DUP2 ADD SWAP2 SWAP1 SWAP2 MSTORE PUSH32 0x4D696E6F7269747950726573616C653A20536F6674636170206E6F74206D6574 PUSH1 0x44 DUP3 ADD MSTORE PUSH32 0x2C20636C61696D206120726566756E64206F6620796F7572207061796D656E74 PUSH1 0x64 DUP3 ADD MSTORE PUSH1 0x84 ADD PUSH2 0x299 JUMP JUMPDEST CALLER PUSH1 0x0 DUP2 DUP2 MSTORE PUSH1 0xE PUSH1 0x20 MSTORE PUSH1 0x40 DUP2 KECCAK256 SLOAD PUSH2 0x1480 SWAP1 PUSH2 0x1EC5 JUMP JUMPDEST SWAP1 POP PUSH1 0x0 DUP2 GT PUSH2 0x14F0 JUMPI PUSH1 0x40 MLOAD PUSH3 0x461BCD PUSH1 0xE5 SHL DUP2 MSTORE PUSH1 0x20 PUSH1 0x4 DUP3 ADD MSTORE PUSH1 0x35 PUSH1 0x24 DUP3 ADD MSTORE PUSH32 0x4D696E6F7269747950726573616C653A206E6F20746F6B656E7320636C61696D PUSH1 0x44 DUP3 ADD MSTORE PUSH21 0x61626C6520666F7220746869732061646472657373 PUSH1 0x58 SHL PUSH1 0x64 DUP3 ADD MSTORE PUSH1 0x84 ADD PUSH2 0x299 JUMP JUMPDEST PUSH1 0x1 PUSH1 0x1 PUSH1 0xA0 SHL SUB DUP3 AND PUSH1 0x0 SWAP1 DUP2 MSTORE PUSH1 0xE PUSH1 0x20 MSTORE PUSH1 0x40 DUP2 KECCAK256 SSTORE PUSH1 0xA SLOAD PUSH2 0x1516 SWAP1 DUP3 PUSH2 0x1F3B JUMP JUMPDEST PUSH1 0xA SSTORE PUSH1 0x5 SLOAD PUSH1 0x40 MLOAD PUSH4 0xA9059CBB PUSH1 0xE0 SHL DUP2 MSTORE PUSH1 0x1 PUSH1 0x1 PUSH1 0xA0 SHL SUB DUP5 DUP2 AND PUSH1 0x4 DUP4 ADD MSTORE PUSH1 0x24 DUP3 ADD DUP5 SWAP1 MSTORE SWAP1 SWAP2 AND SWAP1 PUSH4 0xA9059CBB SWAP1 PUSH1 0x44 ADD PUSH1 0x20 PUSH1 0x40 MLOAD DUP1 DUP4 SUB DUP2 PUSH1 0x0 DUP8 DUP1 EXTCODESIZE ISZERO DUP1 ISZERO PUSH2 0x1567 JUMPI PUSH1 0x0 DUP1 REVERT JUMPDEST POP GAS CALL ISZERO DUP1 ISZERO PUSH2 0x157B JUMPI RETURNDATASIZE PUSH1 0x0 DUP1 RETURNDATACOPY RETURNDATASIZE PUSH1 0x0 REVERT JUMPDEST POP POP POP POP PUSH1 0x40 MLOAD RETURNDATASIZE PUSH1 0x1F NOT PUSH1 0x1F DUP3 ADD AND DUP3 ADD DUP1 PUSH1 0x40 MSTORE POP DUP2 ADD SWAP1 PUSH2 0x159F SWAP2 SWAP1 PUSH2 0x27A5 JUMP JUMPDEST PUSH2 0x1603 JUMPI PUSH1 0x40 MLOAD PUSH3 0x461BCD PUSH1 0xE5 SHL DUP2 MSTORE PUSH1 0x20 PUSH1 0x4 DUP3 ADD MSTORE PUSH1 0x2F PUSH1 0x24 DUP3 ADD MSTORE PUSH32 0x4D696E6F7269747950726573616C653A2069737375652077697468207472616E PUSH1 0x44 DUP3 ADD MSTORE PUSH15 0x7366657272696E6720746F6B656E73 PUSH1 0x88 SHL PUSH1 0x64 DUP3 ADD MSTORE PUSH1 0x84 ADD PUSH2 0x299 JUMP JUMPDEST POP POP JUMP JUMPDEST PUSH1 0x1 SLOAD PUSH1 0x1 PUSH1 0x1 PUSH1 0xA0 SHL SUB AND CALLER EQ PUSH2 0x1631 JUMPI PUSH1 0x40 MLOAD PUSH3 0x461BCD PUSH1 0xE5 SHL DUP2 MSTORE PUSH1 0x4 ADD PUSH2 0x299 SWAP1 PUSH2 0x29DA JUMP JUMPDEST PUSH1 0x1 SLOAD PUSH1 0x40 MLOAD PUSH1 0x0 SWAP2 PUSH1 0x1 PUSH1 0x1 PUSH1 0xA0 SHL SUB AND SWAP1 PUSH32 0x8BE0079C531659141344CD1FD0A4F28419497F9722A3DAAFE3B4186F6B6457E0 SWAP1 DUP4 SWAP1 LOG3 PUSH1 0x1 DUP1 SLOAD PUSH1 0x1 PUSH1 0x1 PUSH1 0xA0 SHL SUB NOT AND SWAP1 SSTORE JUMP JUMPDEST PUSH1 0x4 SLOAD PUSH1 0x1 PUSH1 0x1 PUSH1 0xA0 SHL SUB AND CALLER EQ DUP1 PUSH2 0x169E JUMPI POP PUSH1 0x1 SLOAD PUSH1 0x1 PUSH1 0x1 PUSH1 0xA0 SHL SUB AND CALLER EQ JUMPDEST PUSH2 0x16BA JUMPI PUSH1 0x40 MLOAD PUSH3 0x461BCD PUSH1 0xE5 SHL DUP2 MSTORE PUSH1 0x4 ADD PUSH2 0x299 SWAP1 PUSH2 0x2A51 JUMP JUMPDEST PUSH2 0x16C2 PUSH2 0xA88 JUMP JUMPDEST ISZERO PUSH2 0x170F JUMPI PUSH1 0x40 MLOAD PUSH3 0x461BCD PUSH1 0xE5 SHL DUP2 MSTORE PUSH1 0x20 PUSH1 0x4 DUP3 ADD MSTORE PUSH1 0x1F PUSH1 0x24 DUP3 ADD MSTORE PUSH32 0x4D696E6F7269747950726573616C653A20616C726561647920636C6F73656400 PUSH1 0x44 DUP3 ADD MSTORE PUSH1 0x64 ADD PUSH2 0x299 JUMP JUMPDEST PUSH1 0x10 SLOAD DUP2 GT PUSH2 0x1788 JUMPI PUSH1 0x40 DUP1 MLOAD PUSH3 0x461BCD PUSH1 0xE5 SHL DUP2 MSTORE PUSH1 0x20 PUSH1 0x4 DUP3 ADD MSTORE PUSH1 0x24 DUP2 ADD SWAP2 SWAP1 SWAP2 MSTORE PUSH32 0x4D696E6F7269747950726573616C653A206E657720636C6F73696E672074696D PUSH1 0x44 DUP3 ADD MSTORE PUSH32 0x65206973206265666F72652063757272656E7420636C6F73696E672074696D65 PUSH1 0x64 DUP3 ADD MSTORE PUSH1 0x84 ADD PUSH2 0x299 JUMP JUMPDEST PUSH1 0x10 SLOAD PUSH1 0x40 DUP1 MLOAD SWAP2 DUP3 MSTORE PUSH1 0x20 DUP3 ADD DUP4 SWAP1 MSTORE PUSH32 0x36590996DEA047DC12D17EC2643248F8B86EB37E78941B43D9E9049180EFB7B0 SWAP2 ADD PUSH1 0x40 MLOAD DUP1 SWAP2 SUB SWAP1 LOG1 PUSH1 0x10 SSTORE JUMP JUMPDEST PUSH1 0x13 SLOAD PUSH1 0xFF AND ISZERO PUSH2 0x17EC JUMPI PUSH1 0x40 MLOAD PUSH3 0x461BCD PUSH1 0xE5 SHL DUP2 MSTORE PUSH1 0x4 ADD PUSH2 0x299 SWAP1 PUSH2 0x2A0F JUMP JUMPDEST PUSH2 0x17F4 PUSH2 0xA88 JUMP JUMPDEST DUP1 PUSH2 0x1803 JUMPI POP PUSH1 0xB SLOAD PUSH1 0x9 SLOAD LT ISZERO JUMPDEST PUSH2 0x184F JUMPI PUSH1 0x40 MLOAD PUSH3 0x461BCD PUSH1 0xE5 SHL DUP2 MSTORE PUSH1 0x20 PUSH1 0x4 DUP3 ADD MSTORE PUSH1 0x1B PUSH1 0x24 DUP3 ADD MSTORE PUSH32 0x4D696E6F7269747950726573616C653A206E6F7420636C6F7365640000000000 PUSH1 0x44 DUP3 ADD MSTORE PUSH1 0x64 ADD PUSH2 0x299 JUMP JUMPDEST PUSH1 0x8 SLOAD PUSH1 0x9 SLOAD PUSH2 0x185E SWAP2 PUSH2 0x1F7D JUMP JUMPDEST PUSH1 0xA SSTORE PUSH1 0x13 DUP1 SLOAD PUSH1 0xFF NOT AND PUSH1 0x1 OR SWAP1 SSTORE PUSH1 0x40 MLOAD PUSH32 0x5A1E9B2EA50EF9AABE4B3C94EB63B2D60DEBEF2647506304FBF79AD4509D1AFF SWAP1 PUSH1 0x0 SWAP1 LOG1 PUSH1 0xB SLOAD PUSH1 0x9 SLOAD LT ISZERO DUP1 PUSH2 0x18AE JUMPI POP PUSH1 0xC SLOAD PUSH1 0x9 SLOAD LT ISZERO JUMPDEST ISZERO PUSH2 0x18E2 JUMPI PUSH2 0x18BB PUSH2 0x20B5 JUMP JUMPDEST PUSH1 0x64 PUSH1 0x12 SLOAD LT ISZERO PUSH2 0x18CE JUMPI PUSH2 0x18CE PUSH2 0x236F JUMP JUMPDEST PUSH1 0xB SLOAD PUSH1 0x9 SLOAD LT ISZERO PUSH2 0x134A JUMPI PUSH2 0x134A PUSH2 0x241D JUMP JUMPDEST PUSH1 0xC SLOAD PUSH1 0x9 SLOAD LT ISZERO PUSH2 0x134A JUMPI PUSH2 0x134A PUSH2 0x1FFC JUMP JUMPDEST PUSH1 0x13 SLOAD PUSH1 0xFF AND DUP1 PUSH2 0x190E JUMPI POP PUSH1 0x13 SLOAD PUSH2 0x100 SWAP1 DIV PUSH1 0xFF AND JUMPDEST PUSH2 0x19A6 JUMPI PUSH1 0x40 MLOAD PUSH3 0x461BCD PUSH1 0xE5 SHL DUP2 MSTORE PUSH1 0x20 PUSH1 0x4 DUP3 ADD MSTORE PUSH1 0x58 PUSH1 0x24 DUP3 ADD MSTORE PUSH32 0x4D696E6F7269747950726573616C653A206E6F742066696E616C69736564206F PUSH1 0x44 DUP3 ADD MSTORE PUSH32 0x722063616E63656C6C65642C207472792063616C6C696E672066696E616C6973 PUSH1 0x64 DUP3 ADD MSTORE PUSH32 0x65206265666F726520636C61696D696E6720726566756E640000000000000000 PUSH1 0x84 DUP3 ADD MSTORE PUSH1 0xA4 ADD PUSH2 0x299 JUMP JUMPDEST PUSH1 0xC SLOAD PUSH1 0x9 SLOAD LT PUSH2 0x1A45 JUMPI PUSH1 0x40 MLOAD PUSH3 0x461BCD PUSH1 0xE5 SHL DUP2 MSTORE PUSH1 0x20 PUSH1 0x4 DUP3 ADD MSTORE PUSH1 0x5A PUSH1 0x24 DUP3 ADD MSTORE PUSH32 0x4D696E6F7269747950726573616C653A20736F66746361702072656163686564 PUSH1 0x44 DUP3 ADD MSTORE PUSH32 0x2C20726566756E64732063616E277420626520636C61696D656420756E6C6573 PUSH1 0x64 DUP3 ADD MSTORE PUSH32 0x73207468652070726573616C652069732063616E63656C6C6564000000000000 PUSH1 0x84 DUP3 ADD MSTORE PUSH1 0xA4 ADD PUSH2 0x299 JUMP JUMPDEST CALLER PUSH2 0x1A4E PUSH2 0x6E8 JUMP JUMPDEST ISZERO PUSH2 0x1A97 JUMPI PUSH1 0x1 PUSH1 0x1 PUSH1 0xA0 SHL SUB DUP2 AND PUSH1 0x0 SWAP1 DUP2 MSTORE PUSH1 0xE PUSH1 0x20 MSTORE PUSH1 0x40 DUP1 DUP3 KECCAK256 SLOAD SWAP1 MLOAD CALLER SWAP3 PUSH2 0x8FC DUP4 ISZERO MUL SWAP3 SWAP2 SWAP1 DUP2 DUP2 DUP2 DUP6 DUP9 DUP9 CALL SWAP4 POP POP POP POP ISZERO DUP1 ISZERO PUSH2 0x1603 JUMPI RETURNDATASIZE PUSH1 0x0 DUP1 RETURNDATACOPY RETURNDATASIZE PUSH1 0x0 REVERT JUMPDEST PUSH1 0x6 SLOAD PUSH1 0x1 PUSH1 0x1 PUSH1 0xA0 SHL SUB DUP3 DUP2 AND PUSH1 0x0 DUP2 DUP2 MSTORE PUSH1 0xE PUSH1 0x20 MSTORE PUSH1 0x40 SWAP1 DUP2 SWAP1 KECCAK256 SLOAD SWAP1 MLOAD PUSH4 0xA9059CBB PUSH1 0xE0 SHL DUP2 MSTORE PUSH1 0x4 DUP2 ADD SWAP3 SWAP1 SWAP3 MSTORE PUSH1 0x24 DUP3 ADD MSTORE SWAP2 AND SWAP1 PUSH4 0xA9059CBB SWAP1 PUSH1 0x44 ADD JUMPDEST PUSH1 0x20 PUSH1 0x40 MLOAD DUP1 DUP4 SUB DUP2 PUSH1 0x0 DUP8 DUP1 EXTCODESIZE ISZERO DUP1 ISZERO PUSH2 0x1AF6 JUMPI PUSH1 0x0 DUP1 REVERT JUMPDEST POP GAS CALL ISZERO DUP1 ISZERO PUSH2 0x1B0A JUMPI RETURNDATASIZE PUSH1 0x0 DUP1 RETURNDATACOPY RETURNDATASIZE PUSH1 0x0 REVERT JUMPDEST POP POP POP POP PUSH1 0x40 MLOAD RETURNDATASIZE PUSH1 0x1F NOT PUSH1 0x1F DUP3 ADD AND DUP3 ADD DUP1 PUSH1 0x40 MSTORE POP DUP2 ADD SWAP1 PUSH2 0x1603 SWAP2 SWAP1 PUSH2 0x27A5 JUMP JUMPDEST POP JUMP JUMPDEST PUSH1 0x4 SLOAD PUSH1 0x1 PUSH1 0x1 PUSH1 0xA0 SHL SUB AND CALLER EQ DUP1 PUSH2 0x1B54 JUMPI POP PUSH1 0x1 SLOAD PUSH1 0x1 PUSH1 0x1 PUSH1 0xA0 SHL SUB AND CALLER EQ JUMPDEST PUSH2 0x1B70 JUMPI PUSH1 0x40 MLOAD PUSH3 0x461BCD PUSH1 0xE5 SHL DUP2 MSTORE PUSH1 0x4 ADD PUSH2 0x299 SWAP1 PUSH2 0x2A51 JUMP JUMPDEST PUSH2 0x1B85 DUP12 DUP12 DUP12 DUP12 DUP12 DUP12 DUP12 DUP12 DUP12 DUP12 DUP12 PUSH1 0x1 PUSH2 0xAA1 JUMP JUMPDEST POP POP POP POP POP POP POP POP POP POP POP JUMP JUMPDEST PUSH1 0x1 SLOAD PUSH1 0x1 PUSH1 0x1 PUSH1 0xA0 SHL SUB AND CALLER EQ PUSH2 0x1BBC JUMPI PUSH1 0x40 MLOAD PUSH3 0x461BCD PUSH1 0xE5 SHL DUP2 MSTORE PUSH1 0x4 ADD PUSH2 0x299 SWAP1 PUSH2 0x29DA JUMP JUMPDEST PUSH1 0x1 PUSH1 0x1 PUSH1 0xA0 SHL SUB DUP2 AND PUSH2 0x1C21 JUMPI PUSH1 0x40 MLOAD PUSH3 0x461BCD PUSH1 0xE5 SHL DUP2 MSTORE PUSH1 0x20 PUSH1 0x4 DUP3 ADD MSTORE PUSH1 0x26 PUSH1 0x24 DUP3 ADD MSTORE PUSH32 0x4F776E61626C653A206E6577206F776E657220697320746865207A65726F2061 PUSH1 0x44 DUP3 ADD MSTORE PUSH6 0x646472657373 PUSH1 0xD0 SHL PUSH1 0x64 DUP3 ADD MSTORE PUSH1 0x84 ADD PUSH2 0x299 JUMP JUMPDEST PUSH1 0x1 SLOAD PUSH1 0x40 MLOAD PUSH1 0x1 PUSH1 0x1 PUSH1 0xA0 SHL SUB DUP1 DUP5 AND SWAP3 AND SWAP1 PUSH32 0x8BE0079C531659141344CD1FD0A4F28419497F9722A3DAAFE3B4186F6B6457E0 SWAP1 PUSH1 0x0 SWAP1 LOG3 PUSH1 0x1 DUP1 SLOAD PUSH1 0x1 PUSH1 0x1 PUSH1 0xA0 SHL SUB NOT AND PUSH1 0x1 PUSH1 0x1 PUSH1 0xA0 SHL SUB SWAP3 SWAP1 SWAP3 AND SWAP2 SWAP1 SWAP2 OR SWAP1 SSTORE JUMP JUMPDEST PUSH1 0x0 PUSH2 0x1C87 PUSH2 0x134C JUMP JUMPDEST PUSH2 0x1CD3 JUMPI PUSH1 0x40 MLOAD PUSH3 0x461BCD PUSH1 0xE5 SHL DUP2 MSTORE PUSH1 0x20 PUSH1 0x4 DUP3 ADD MSTORE PUSH1 0x19 PUSH1 0x24 DUP3 ADD MSTORE PUSH32 0x4D696E6F7269747950726573616C653A206E6F74206F70656E00000000000000 PUSH1 0x44 DUP3 ADD MSTORE PUSH1 0x64 ADD PUSH2 0x299 JUMP JUMPDEST PUSH1 0x1 PUSH1 0x1 PUSH1 0xA0 SHL SUB DUP4 AND PUSH2 0x1D42 JUMPI PUSH1 0x40 MLOAD PUSH3 0x461BCD PUSH1 0xE5 SHL DUP2 MSTORE PUSH1 0x20 PUSH1 0x4 DUP3 ADD MSTORE PUSH1 0x30 PUSH1 0x24 DUP3 ADD MSTORE PUSH32 0x4D696E6F7269747950726573616C653A2062656E656669636961727920697320 PUSH1 0x44 DUP3 ADD MSTORE PUSH16 0x746865207A65726F2061646472657373 PUSH1 0x80 SHL PUSH1 0x64 DUP3 ADD MSTORE PUSH1 0x84 ADD PUSH2 0x299 JUMP JUMPDEST DUP2 PUSH2 0x1D9B JUMPI PUSH1 0x40 MLOAD PUSH3 0x461BCD PUSH1 0xE5 SHL DUP2 MSTORE PUSH1 0x20 PUSH1 0x4 DUP3 ADD MSTORE PUSH1 0x24 DUP1 DUP3 ADD MSTORE PUSH32 0x4D696E6F7269747950726573616C653A2030207061796D656E74207370656369 PUSH1 0x44 DUP3 ADD MSTORE PUSH4 0x199A5959 PUSH1 0xE2 SHL PUSH1 0x64 DUP3 ADD MSTORE PUSH1 0x84 ADD PUSH2 0x299 JUMP JUMPDEST PUSH1 0xB SLOAD PUSH1 0x9 SLOAD PUSH2 0x1DAB SWAP1 DUP5 PUSH2 0x1EDC JUMP JUMPDEST GT ISZERO PUSH2 0x1E2D JUMPI PUSH1 0x40 MLOAD PUSH3 0x461BCD PUSH1 0xE5 SHL DUP2 MSTORE PUSH1 0x20 PUSH1 0x4 DUP3 ADD MSTORE PUSH1 0x44 PUSH1 0x24 DUP3 ADD DUP2 SWAP1 MSTORE PUSH32 0x4D696E6F7269747950726573616C653A206861726463617020776F756C642062 SWAP1 DUP3 ADD MSTORE PUSH32 0x652065786365656465642077697468207468697320707572636861736520616D PUSH1 0x64 DUP3 ADD MSTORE PUSH4 0x1BDD5B9D PUSH1 0xE2 SHL PUSH1 0x84 DUP3 ADD MSTORE PUSH1 0xA4 ADD PUSH2 0x299 JUMP JUMPDEST PUSH1 0xD SLOAD PUSH1 0x1 PUSH1 0x1 PUSH1 0xA0 SHL SUB DUP5 AND PUSH1 0x0 SWAP1 DUP2 MSTORE PUSH1 0xE PUSH1 0x20 MSTORE PUSH1 0x40 SWAP1 KECCAK256 SLOAD PUSH2 0x1E53 SWAP1 DUP5 PUSH2 0x1EDC JUMP JUMPDEST GT ISZERO PUSH2 0x1EB2 JUMPI PUSH1 0x40 MLOAD PUSH3 0x461BCD PUSH1 0xE5 SHL DUP2 MSTORE PUSH1 0x20 PUSH1 0x4 DUP3 ADD MSTORE PUSH1 0x28 PUSH1 0x24 DUP3 ADD MSTORE PUSH32 0x4D696E6F7269747950726573616C653A20696E646976696475616C2063617020 PUSH1 0x44 DUP3 ADD MSTORE PUSH8 0x195E18D959591959 PUSH1 0xC2 SHL PUSH1 0x64 DUP3 ADD MSTORE PUSH1 0x84 ADD PUSH2 0x299 JUMP JUMPDEST PUSH2 0x1EBC DUP4 DUP4 PUSH2 0x2518 JUMP JUMPDEST SWAP1 POP JUMPDEST SWAP3 SWAP2 POP POP JUMP JUMPDEST PUSH1 0x0 PUSH2 0x1EBF PUSH1 0x8 SLOAD DUP4 PUSH2 0x1F7D SWAP1 SWAP2 SWAP1 PUSH4 0xFFFFFFFF AND JUMP JUMPDEST PUSH1 0x0 DUP1 PUSH2 0x1EE9 DUP4 DUP6 PUSH2 0x2AA6 JUMP JUMPDEST SWAP1 POP DUP4 DUP2 LT ISZERO PUSH2 0x1EBC JUMPI PUSH1 0x40 MLOAD PUSH3 0x461BCD PUSH1 0xE5 SHL DUP2 MSTORE PUSH1 0x20 PUSH1 0x4 DUP3 ADD MSTORE PUSH1 0x1B PUSH1 0x24 DUP3 ADD MSTORE PUSH32 0x536166654D6174683A206164646974696F6E206F766572666C6F770000000000 PUSH1 0x44 DUP3 ADD MSTORE PUSH1 0x64 ADD PUSH2 0x299 JUMP JUMPDEST PUSH1 0x0 PUSH2 0x1EBC DUP4 DUP4 PUSH1 0x40 MLOAD DUP1 PUSH1 0x40 ADD PUSH1 0x40 MSTORE DUP1 PUSH1 0x1E DUP2 MSTORE PUSH1 0x20 ADD PUSH32 0x536166654D6174683A207375627472616374696F6E206F766572666C6F770000 DUP2 MSTORE POP PUSH2 0x26C8 JUMP JUMPDEST PUSH1 0x0 DUP3 PUSH2 0x1F8C JUMPI POP PUSH1 0x0 PUSH2 0x1EBF JUMP JUMPDEST PUSH1 0x0 PUSH2 0x1F98 DUP4 DUP6 PUSH2 0x2ADE JUMP JUMPDEST SWAP1 POP DUP3 PUSH2 0x1FA5 DUP6 DUP4 PUSH2 0x2ABE JUMP JUMPDEST EQ PUSH2 0x1EBC JUMPI PUSH1 0x40 MLOAD PUSH3 0x461BCD PUSH1 0xE5 SHL DUP2 MSTORE PUSH1 0x20 PUSH1 0x4 DUP3 ADD MSTORE PUSH1 0x21 PUSH1 0x24 DUP3 ADD MSTORE PUSH32 0x536166654D6174683A206D756C7469706C69636174696F6E206F766572666C6F PUSH1 0x44 DUP3 ADD MSTORE PUSH1 0x77 PUSH1 0xF8 SHL PUSH1 0x64 DUP3 ADD MSTORE PUSH1 0x84 ADD PUSH2 0x299 JUMP JUMPDEST PUSH1 0x5 SLOAD PUSH1 0x40 MLOAD PUSH4 0x70A08231 PUSH1 0xE0 SHL DUP2 MSTORE ADDRESS PUSH1 0x4 DUP3 ADD MSTORE PUSH1 0x0 SWAP2 PUSH1 0x1 PUSH1 0x1 PUSH1 0xA0 SHL SUB AND SWAP1 PUSH4 0x70A08231 SWAP1 PUSH1 0x24 ADD PUSH1 0x20 PUSH1 0x40 MLOAD DUP1 DUP4 SUB DUP2 DUP7 DUP1 EXTCODESIZE ISZERO DUP1 ISZERO PUSH2 0x2040 JUMPI PUSH1 0x0 DUP1 REVERT JUMPDEST POP GAS STATICCALL ISZERO DUP1 ISZERO PUSH2 0x2054 JUMPI RETURNDATASIZE PUSH1 0x0 DUP1 RETURNDATACOPY RETURNDATASIZE PUSH1 0x0 REVERT JUMPDEST POP POP POP POP PUSH1 0x40 MLOAD RETURNDATASIZE PUSH1 0x1F NOT PUSH1 0x1F DUP3 ADD AND DUP3 ADD DUP1 PUSH1 0x40 MSTORE POP DUP2 ADD SWAP1 PUSH2 0x2078 SWAP2 SWAP1 PUSH2 0x27D9 JUMP JUMPDEST PUSH1 0x5 SLOAD PUSH1 0x7 SLOAD PUSH1 0x40 MLOAD PUSH4 0xA9059CBB PUSH1 0xE0 SHL DUP2 MSTORE PUSH1 0x1 PUSH1 0x1 PUSH1 0xA0 SHL SUB SWAP2 DUP3 AND PUSH1 0x4 DUP3 ADD MSTORE PUSH1 0x24 DUP2 ADD DUP5 SWAP1 MSTORE SWAP3 SWAP4 POP AND SWAP1 PUSH4 0xA9059CBB SWAP1 PUSH1 0x44 ADD PUSH2 0x1ADC JUMP JUMPDEST PUSH1 0x0 PUSH2 0x20DA PUSH1 0xB SLOAD PUSH2 0x20D4 PUSH1 0x9 SLOAD PUSH1 0x11 SLOAD PUSH2 0x1F7D SWAP1 SWAP2 SWAP1 PUSH4 0xFFFFFFFF AND JUMP JUMPDEST SWAP1 PUSH2 0x2702 JUMP JUMPDEST PUSH1 0x5 SLOAD PUSH1 0x40 MLOAD PUSH4 0x95EA7B3 PUSH1 0xE0 SHL DUP2 MSTORE PUSH1 0x1 PUSH1 0x1 PUSH1 0xA0 SHL SUB PUSH32 0x0 DUP2 AND PUSH1 0x4 DUP4 ADD MSTORE PUSH1 0x24 DUP3 ADD DUP5 SWAP1 MSTORE SWAP3 SWAP4 POP SWAP2 AND SWAP1 PUSH4 0x95EA7B3 SWAP1 PUSH1 0x44 ADD PUSH1 0x20 PUSH1 0x40 MLOAD DUP1 DUP4 SUB DUP2 PUSH1 0x0 DUP8 DUP1 EXTCODESIZE ISZERO DUP1 ISZERO PUSH2 0x214A JUMPI PUSH1 0x0 DUP1 REVERT JUMPDEST POP GAS CALL ISZERO DUP1 ISZERO PUSH2 0x215E JUMPI RETURNDATASIZE PUSH1 0x0 DUP1 RETURNDATACOPY RETURNDATASIZE PUSH1 0x0 REVERT JUMPDEST POP POP POP POP PUSH1 0x40 MLOAD RETURNDATASIZE PUSH1 0x1F NOT PUSH1 0x1F DUP3 ADD AND DUP3 ADD DUP1 PUSH1 0x40 MSTORE POP DUP2 ADD SWAP1 PUSH2 0x2182 SWAP2 SWAP1 PUSH2 0x27A5 JUMP JUMPDEST POP PUSH1 0x6 SLOAD PUSH1 0x9 SLOAD PUSH1 0x40 MLOAD PUSH4 0x95EA7B3 PUSH1 0xE0 SHL DUP2 MSTORE PUSH1 0x1 PUSH1 0x1 PUSH1 0xA0 SHL SUB PUSH32 0x0 DUP2 AND PUSH1 0x4 DUP4 ADD MSTORE PUSH1 0x24 DUP3 ADD SWAP3 SWAP1 SWAP3 MSTORE SWAP2 AND SWAP1 PUSH4 0x95EA7B3 SWAP1 PUSH1 0x44 ADD PUSH1 0x20 PUSH1 0x40 MLOAD DUP1 DUP4 SUB DUP2 PUSH1 0x0 DUP8 DUP1 EXTCODESIZE ISZERO DUP1 ISZERO PUSH2 0x21F4 JUMPI PUSH1 0x0 DUP1 REVERT JUMPDEST POP GAS CALL ISZERO DUP1 ISZERO PUSH2 0x2208 JUMPI RETURNDATASIZE PUSH1 0x0 DUP1 RETURNDATACOPY RETURNDATASIZE PUSH1 0x0 REVERT JUMPDEST POP POP POP POP PUSH1 0x40 MLOAD RETURNDATASIZE PUSH1 0x1F NOT PUSH1 0x1F DUP3 ADD AND DUP3 ADD DUP1 PUSH1 0x40 MSTORE POP DUP2 ADD SWAP1 PUSH2 0x222C SWAP2 SWAP1 PUSH2 0x27A5 JUMP JUMPDEST POP PUSH1 0x5 SLOAD PUSH1 0x6 SLOAD PUSH1 0x9 SLOAD PUSH1 0x7 SLOAD PUSH1 0x40 MLOAD PUSH3 0xE8E337 PUSH1 0xE8 SHL DUP2 MSTORE PUSH1 0x1 PUSH1 0x1 PUSH1 0xA0 SHL SUB SWAP5 DUP6 AND PUSH1 0x4 DUP3 ADD MSTORE SWAP3 DUP5 AND PUSH1 0x24 DUP5 ADD MSTORE PUSH1 0x44 DUP4 ADD DUP6 SWAP1 MSTORE PUSH1 0x64 DUP4 ADD SWAP2 SWAP1 SWAP2 MSTORE PUSH1 0x0 PUSH1 0x84 DUP4 ADD DUP2 SWAP1 MSTORE PUSH1 0xA4 DUP4 ADD DUP2 SWAP1 MSTORE SWAP1 DUP4 AND PUSH1 0xC4 DUP4 ADD MSTORE TIMESTAMP PUSH1 0xE4 DUP4 ADD MSTORE SWAP2 DUP3 SWAP2 DUP3 SWAP2 PUSH32 0x0 AND SWAP1 PUSH4 0xE8E33700 SWAP1 PUSH2 0x104 ADD PUSH1 0x60 PUSH1 0x40 MLOAD DUP1 DUP4 SUB DUP2 PUSH1 0x0 DUP8 DUP1 EXTCODESIZE ISZERO DUP1 ISZERO PUSH2 0x22D6 JUMPI PUSH1 0x0 DUP1 REVERT JUMPDEST POP GAS CALL ISZERO DUP1 ISZERO PUSH2 0x22EA JUMPI RETURNDATASIZE PUSH1 0x0 DUP1 RETURNDATACOPY RETURNDATASIZE PUSH1 0x0 REVERT JUMPDEST POP POP POP POP PUSH1 0x40 MLOAD RETURNDATASIZE PUSH1 0x1F NOT PUSH1 0x1F DUP3 ADD AND DUP3 ADD DUP1 PUSH1 0x40 MSTORE POP DUP2 ADD SWAP1 PUSH2 0x230E SWAP2 SWAP1 PUSH2 0x295A JUMP JUMPDEST PUSH1 0x9 SLOAD PUSH1 0x40 DUP1 MLOAD DUP10 DUP2 MSTORE PUSH1 0x20 DUP2 ADD DUP7 SWAP1 MSTORE SWAP1 DUP2 ADD SWAP2 SWAP1 SWAP2 MSTORE PUSH1 0x60 DUP2 ADD DUP4 SWAP1 MSTORE PUSH1 0x80 DUP2 ADD DUP3 SWAP1 MSTORE SWAP3 SWAP6 POP SWAP1 SWAP4 POP SWAP2 POP PUSH32 0xB141EFB20C72D616A1738EDF3BFC091E675E9970798C20F084E967372070C25B SWAP1 PUSH1 0xA0 ADD PUSH1 0x40 MLOAD DUP1 SWAP2 SUB SWAP1 LOG1 POP POP POP POP JUMP JUMPDEST PUSH1 0x0 PUSH2 0x2399 PUSH2 0x2390 PUSH1 0x64 PUSH2 0x20D4 PUSH1 0x12 SLOAD PUSH1 0x9 SLOAD PUSH2 0x1F7D SWAP1 SWAP2 SWAP1 PUSH4 0xFFFFFFFF AND JUMP JUMPDEST PUSH1 0x9 SLOAD SWAP1 PUSH2 0x1F3B JUMP JUMPDEST SWAP1 POP PUSH2 0x23A3 PUSH2 0x6E8 JUMP JUMPDEST ISZERO PUSH2 0x23E2 JUMPI PUSH1 0x7 SLOAD PUSH1 0x40 MLOAD PUSH1 0x1 PUSH1 0x1 PUSH1 0xA0 SHL SUB SWAP1 SWAP2 AND SWAP1 DUP3 ISZERO PUSH2 0x8FC MUL SWAP1 DUP4 SWAP1 PUSH1 0x0 DUP2 DUP2 DUP2 DUP6 DUP9 DUP9 CALL SWAP4 POP POP POP POP ISZERO DUP1 ISZERO PUSH2 0x1603 JUMPI RETURNDATASIZE PUSH1 0x0 DUP1 RETURNDATACOPY RETURNDATASIZE PUSH1 0x0 REVERT JUMPDEST PUSH1 0x6 SLOAD PUSH1 0x7 SLOAD PUSH1 0x40 MLOAD PUSH4 0xA9059CBB PUSH1 0xE0 SHL DUP2 MSTORE PUSH1 0x1 PUSH1 0x1 PUSH1 0xA0 SHL SUB SWAP2 DUP3 AND PUSH1 0x4 DUP3 ADD MSTORE PUSH1 0x24 DUP2 ADD DUP5 SWAP1 MSTORE SWAP2 AND SWAP1 PUSH4 0xA9059CBB SWAP1 PUSH1 0x44 ADD PUSH2 0x1ADC JUMP JUMPDEST PUSH1 0x0 PUSH2 0x2442 PUSH1 0x8 SLOAD PUSH2 0x243C PUSH1 0x9 SLOAD PUSH1 0xB SLOAD PUSH2 0x1F3B SWAP1 SWAP2 SWAP1 PUSH4 0xFFFFFFFF AND JUMP JUMPDEST SWAP1 PUSH2 0x1F7D JUMP JUMPDEST SWAP1 POP PUSH1 0x0 PUSH2 0x246F PUSH2 0x2466 PUSH1 0xB SLOAD PUSH2 0x20D4 PUSH1 0x9 SLOAD PUSH1 0x11 SLOAD PUSH2 0x1F7D SWAP1 SWAP2 SWAP1 PUSH4 0xFFFFFFFF AND JUMP JUMPDEST PUSH1 0x11 SLOAD SWAP1 PUSH2 0x1F3B JUMP JUMPDEST PUSH1 0x5 SLOAD PUSH1 0x7 SLOAD SWAP2 SWAP3 POP PUSH1 0x1 PUSH1 0x1 PUSH1 0xA0 SHL SUB SWAP1 DUP2 AND SWAP2 PUSH4 0xA9059CBB SWAP2 AND PUSH2 0x2495 DUP6 DUP6 PUSH2 0x1EDC JUMP JUMPDEST PUSH1 0x40 MLOAD PUSH1 0x1 PUSH1 0x1 PUSH1 0xE0 SHL SUB NOT PUSH1 0xE0 DUP6 SWAP1 SHL AND DUP2 MSTORE PUSH1 0x1 PUSH1 0x1 PUSH1 0xA0 SHL SUB SWAP1 SWAP3 AND PUSH1 0x4 DUP4 ADD MSTORE PUSH1 0x24 DUP3 ADD MSTORE PUSH1 0x44 ADD PUSH1 0x20 PUSH1 0x40 MLOAD DUP1 DUP4 SUB DUP2 PUSH1 0x0 DUP8 DUP1 EXTCODESIZE ISZERO DUP1 ISZERO PUSH2 0x24DB JUMPI PUSH1 0x0 DUP1 REVERT JUMPDEST POP GAS CALL ISZERO DUP1 ISZERO PUSH2 0x24EF JUMPI RETURNDATASIZE PUSH1 0x0 DUP1 RETURNDATACOPY RETURNDATASIZE PUSH1 0x0 REVERT JUMPDEST POP POP POP POP PUSH1 0x40 MLOAD RETURNDATASIZE PUSH1 0x1F NOT PUSH1 0x1F DUP3 ADD AND DUP3 ADD DUP1 PUSH1 0x40 MSTORE POP DUP2 ADD SWAP1 PUSH2 0x2513 SWAP2 SWAP1 PUSH2 0x27A5 JUMP JUMPDEST POP POP POP JUMP JUMPDEST PUSH1 0x0 PUSH2 0x2522 PUSH2 0x6E8 JUMP JUMPDEST ISZERO PUSH2 0x252E JUMPI POP DUP1 PUSH2 0x1EBF JUMP JUMPDEST PUSH1 0x6 SLOAD PUSH1 0x40 MLOAD PUSH4 0x70A08231 PUSH1 0xE0 SHL DUP2 MSTORE ADDRESS PUSH1 0x4 DUP3 ADD MSTORE PUSH1 0x0 SWAP2 PUSH1 0x1 PUSH1 0x1 PUSH1 0xA0 SHL SUB AND SWAP1 PUSH4 0x70A08231 SWAP1 PUSH1 0x24 ADD PUSH1 0x20 PUSH1 0x40 MLOAD DUP1 DUP4 SUB DUP2 DUP7 DUP1 EXTCODESIZE ISZERO DUP1 ISZERO PUSH2 0x2572 JUMPI PUSH1 0x0 DUP1 REVERT JUMPDEST POP GAS STATICCALL ISZERO DUP1 ISZERO PUSH2 0x2586 JUMPI RETURNDATASIZE PUSH1 0x0 DUP1 RETURNDATACOPY RETURNDATASIZE PUSH1 0x0 REVERT JUMPDEST POP POP POP POP PUSH1 0x40 MLOAD RETURNDATASIZE PUSH1 0x1F NOT PUSH1 0x1F DUP3 ADD AND DUP3 ADD DUP1 PUSH1 0x40 MSTORE POP DUP2 ADD SWAP1 PUSH2 0x25AA SWAP2 SWAP1 PUSH2 0x27D9 JUMP JUMPDEST PUSH1 0x6 SLOAD PUSH1 0x40 MLOAD PUSH4 0x23B872DD PUSH1 0xE0 SHL DUP2 MSTORE PUSH1 0x1 PUSH1 0x1 PUSH1 0xA0 SHL SUB DUP8 DUP2 AND PUSH1 0x4 DUP4 ADD MSTORE ADDRESS PUSH1 0x24 DUP4 ADD MSTORE PUSH1 0x44 DUP3 ADD DUP8 SWAP1 MSTORE SWAP3 SWAP4 POP SWAP2 AND SWAP1 PUSH4 0x23B872DD SWAP1 PUSH1 0x64 ADD PUSH1 0x20 PUSH1 0x40 MLOAD DUP1 DUP4 SUB DUP2 PUSH1 0x0 DUP8 DUP1 EXTCODESIZE ISZERO DUP1 ISZERO PUSH2 0x2600 JUMPI PUSH1 0x0 DUP1 REVERT JUMPDEST POP GAS CALL ISZERO DUP1 ISZERO PUSH2 0x2614 JUMPI RETURNDATASIZE PUSH1 0x0 DUP1 RETURNDATACOPY RETURNDATASIZE PUSH1 0x0 REVERT JUMPDEST POP POP POP POP PUSH1 0x40 MLOAD RETURNDATASIZE PUSH1 0x1F NOT PUSH1 0x1F DUP3 ADD AND DUP3 ADD DUP1 PUSH1 0x40 MSTORE POP DUP2 ADD SWAP1 PUSH2 0x2638 SWAP2 SWAP1 PUSH2 0x27A5 JUMP JUMPDEST POP PUSH1 0x6 SLOAD PUSH1 0x40 MLOAD PUSH4 0x70A08231 PUSH1 0xE0 SHL DUP2 MSTORE ADDRESS PUSH1 0x4 DUP3 ADD MSTORE PUSH2 0x26C0 SWAP2 DUP4 SWAP2 PUSH1 0x1 PUSH1 0x1 PUSH1 0xA0 SHL SUB SWAP1 SWAP2 AND SWAP1 PUSH4 0x70A08231 SWAP1 PUSH1 0x24 ADD PUSH1 0x20 PUSH1 0x40 MLOAD DUP1 DUP4 SUB DUP2 DUP7 DUP1 EXTCODESIZE ISZERO DUP1 ISZERO PUSH2 0x2682 JUMPI PUSH1 0x0 DUP1 REVERT JUMPDEST POP GAS STATICCALL ISZERO DUP1 ISZERO PUSH2 0x2696 JUMPI RETURNDATASIZE PUSH1 0x0 DUP1 RETURNDATACOPY RETURNDATASIZE PUSH1 0x0 REVERT JUMPDEST POP POP POP POP PUSH1 0x40 MLOAD RETURNDATASIZE PUSH1 0x1F NOT PUSH1 0x1F DUP3 ADD AND DUP3 ADD DUP1 PUSH1 0x40 MSTORE POP DUP2 ADD SWAP1 PUSH2 0x26BA SWAP2 SWAP1 PUSH2 0x27D9 JUMP JUMPDEST SWAP1 PUSH2 0x1F3B JUMP JUMPDEST SWAP2 POP POP PUSH2 0x1EBF JUMP JUMPDEST PUSH1 0x0 DUP2 DUP5 DUP5 GT ISZERO PUSH2 0x26EC JUMPI PUSH1 0x40 MLOAD PUSH3 0x461BCD PUSH1 0xE5 SHL DUP2 MSTORE PUSH1 0x4 ADD PUSH2 0x299 SWAP2 SWAP1 PUSH2 0x2987 JUMP JUMPDEST POP PUSH1 0x0 PUSH2 0x26F9 DUP5 DUP7 PUSH2 0x2AFD JUMP JUMPDEST SWAP6 SWAP5 POP POP POP POP POP JUMP JUMPDEST PUSH1 0x0 PUSH2 0x1EBC DUP4 DUP4 PUSH1 0x40 MLOAD DUP1 PUSH1 0x40 ADD PUSH1 0x40 MSTORE DUP1 PUSH1 0x1A DUP2 MSTORE PUSH1 0x20 ADD PUSH32 0x536166654D6174683A206469766973696F6E206279207A65726F000000000000 DUP2 MSTORE POP PUSH1 0x0 DUP2 DUP4 PUSH2 0x2760 JUMPI PUSH1 0x40 MLOAD PUSH3 0x461BCD PUSH1 0xE5 SHL DUP2 MSTORE PUSH1 0x4 ADD PUSH2 0x299 SWAP2 SWAP1 PUSH2 0x2987 JUMP JUMPDEST POP PUSH1 0x0 PUSH2 0x26F9 DUP5 DUP7 PUSH2 0x2ABE JUMP JUMPDEST PUSH1 0x0 PUSH1 0x20 DUP3 DUP5 SUB SLT ISZERO PUSH2 0x277E JUMPI DUP1 DUP2 REVERT JUMPDEST DUP2 CALLDATALOAD PUSH2 0x1EBC DUP2 PUSH2 0x2B2A JUMP JUMPDEST PUSH1 0x0 PUSH1 0x20 DUP3 DUP5 SUB SLT ISZERO PUSH2 0x279A JUMPI DUP1 DUP2 REVERT JUMPDEST DUP2 MLOAD PUSH2 0x1EBC DUP2 PUSH2 0x2B2A JUMP JUMPDEST PUSH1 0x0 PUSH1 0x20 DUP3 DUP5 SUB SLT ISZERO PUSH2 0x27B6 JUMPI DUP1 DUP2 REVERT JUMPDEST DUP2 MLOAD PUSH2 0x1EBC DUP2 PUSH2 0x2B3F JUMP JUMPDEST PUSH1 0x0 PUSH1 0x20 DUP3 DUP5 SUB SLT ISZERO PUSH2 0x27D2 JUMPI DUP1 DUP2 REVERT JUMPDEST POP CALLDATALOAD SWAP2 SWAP1 POP JUMP JUMPDEST PUSH1 0x0 PUSH1 0x20 DUP3 DUP5 SUB SLT ISZERO PUSH2 0x27EA JUMPI DUP1 DUP2 REVERT JUMPDEST POP MLOAD SWAP2 SWAP1 POP JUMP JUMPDEST PUSH1 0x0 DUP1 PUSH1 0x0 DUP1 PUSH1 0x0 DUP1 PUSH1 0x0 DUP1 PUSH1 0x0 DUP1 PUSH1 0x0 PUSH2 0x160 DUP13 DUP15 SUB SLT ISZERO PUSH2 0x2812 JUMPI DUP7 DUP8 REVERT JUMPDEST DUP12 CALLDATALOAD SWAP11 POP PUSH1 0x20 DUP13 ADD CALLDATALOAD PUSH2 0x2824 DUP2 PUSH2 0x2B2A JUMP JUMPDEST SWAP10 POP PUSH1 0x40 DUP13 ADD CALLDATALOAD PUSH2 0x2834 DUP2 PUSH2 0x2B2A JUMP JUMPDEST SWAP9 POP PUSH1 0x60 DUP13 ADD CALLDATALOAD SWAP8 POP PUSH1 0x80 DUP13 ADD CALLDATALOAD SWAP7 POP PUSH1 0xA0 DUP13 ADD CALLDATALOAD SWAP6 POP PUSH1 0xC0 DUP13 ADD CALLDATALOAD PUSH2 0x2859 DUP2 PUSH2 0x2B2A JUMP JUMPDEST DUP1 SWAP6 POP POP PUSH1 0xE0 DUP13 ADD CALLDATALOAD SWAP4 POP PUSH2 0x100 DUP13 ADD CALLDATALOAD SWAP3 POP PUSH2 0x120 DUP13 ADD CALLDATALOAD SWAP2 POP PUSH2 0x140 DUP13 ADD CALLDATALOAD SWAP1 POP SWAP3 SWAP6 SWAP9 SWAP12 POP SWAP3 SWAP6 SWAP9 SWAP12 SWAP1 SWAP4 SWAP7 SWAP10 POP JUMP JUMPDEST PUSH1 0x0 DUP1 PUSH1 0x0 DUP1 PUSH1 0x0 DUP1 PUSH1 0x0 DUP1 PUSH1 0x0 DUP1 PUSH1 0x0 DUP1 PUSH2 0x180 DUP14 DUP16 SUB SLT ISZERO PUSH2 0x28AE JUMPI DUP2 DUP3 REVERT JUMPDEST DUP13 CALLDATALOAD SWAP12 POP PUSH1 0x20 DUP14 ADD CALLDATALOAD PUSH2 0x28C0 DUP2 PUSH2 0x2B2A JUMP JUMPDEST SWAP11 POP PUSH1 0x40 DUP14 ADD CALLDATALOAD PUSH2 0x28D0 DUP2 PUSH2 0x2B2A JUMP JUMPDEST SWAP10 POP PUSH1 0x60 DUP14 ADD CALLDATALOAD SWAP9 POP PUSH1 0x80 DUP14 ADD CALLDATALOAD SWAP8 POP PUSH1 0xA0 DUP14 ADD CALLDATALOAD SWAP7 POP PUSH1 0xC0 DUP14 ADD CALLDATALOAD PUSH2 0x28F5 DUP2 PUSH2 0x2B2A JUMP JUMPDEST SWAP6 POP PUSH1 0xE0 DUP14 ADD CALLDATALOAD SWAP5 POP PUSH2 0x100 DUP14 ADD CALLDATALOAD SWAP4 POP PUSH2 0x120 DUP14 ADD CALLDATALOAD SWAP3 POP PUSH2 0x140 DUP14 ADD CALLDATALOAD SWAP2 POP PUSH2 0x160 DUP14 ADD CALLDATALOAD PUSH2 0x2925 DUP2 PUSH2 0x2B3F JUMP JUMPDEST DUP1 SWAP2 POP POP SWAP3 SWAP6 SWAP9 SWAP12 POP SWAP3 SWAP6 SWAP9 SWAP12 POP SWAP3 SWAP6 SWAP9 SWAP12 JUMP JUMPDEST PUSH1 0x0 DUP1 PUSH1 0x40 DUP4 DUP6 SUB SLT ISZERO PUSH2 0x294B JUMPI DUP2 DUP3 REVERT JUMPDEST POP POP DUP1 CALLDATALOAD SWAP3 PUSH1 0x20 SWAP1 SWAP2 ADD CALLDATALOAD SWAP2 POP JUMP JUMPDEST PUSH1 0x0 DUP1 PUSH1 0x0 PUSH1 0x60 DUP5 DUP7 SUB SLT ISZERO PUSH2 0x296E JUMPI DUP3 DUP4 REVERT JUMPDEST DUP4 MLOAD SWAP3 POP PUSH1 0x20 DUP5 ADD MLOAD SWAP2 POP PUSH1 0x40 DUP5 ADD MLOAD SWAP1 POP SWAP3 POP SWAP3 POP SWAP3 JUMP JUMPDEST PUSH1 0x0 PUSH1 0x20 DUP1 DUP4 MSTORE DUP4 MLOAD DUP1 DUP3 DUP6 ADD MSTORE DUP3 JUMPDEST DUP2 DUP2 LT ISZERO PUSH2 0x29B3 JUMPI DUP6 DUP2 ADD DUP4 ADD MLOAD DUP6 DUP3 ADD PUSH1 0x40 ADD MSTORE DUP3 ADD PUSH2 0x2997 JUMP JUMPDEST DUP2 DUP2 GT ISZERO PUSH2 0x29C4 JUMPI DUP4 PUSH1 0x40 DUP4 DUP8 ADD ADD MSTORE JUMPDEST POP PUSH1 0x1F ADD PUSH1 0x1F NOT AND SWAP3 SWAP1 SWAP3 ADD PUSH1 0x40 ADD SWAP4 SWAP3 POP POP POP JUMP JUMPDEST PUSH1 0x20 DUP1 DUP3 MSTORE DUP2 DUP2 ADD MSTORE PUSH32 0x4F776E61626C653A2063616C6C6572206973206E6F7420746865206F776E6572 PUSH1 0x40 DUP3 ADD MSTORE PUSH1 0x60 ADD SWAP1 JUMP JUMPDEST PUSH1 0x20 DUP1 DUP3 MSTORE PUSH1 0x22 SWAP1 DUP3 ADD MSTORE PUSH32 0x4D696E6F7269747950726573616C653A20616C72656164792066696E616C6973 PUSH1 0x40 DUP3 ADD MSTORE PUSH2 0x1959 PUSH1 0xF2 SHL PUSH1 0x60 DUP3 ADD MSTORE PUSH1 0x80 ADD SWAP1 JUMP JUMPDEST PUSH1 0x20 DUP1 DUP3 MSTORE PUSH1 0x35 SWAP1 DUP3 ADD MSTORE PUSH32 0x4D696E6F7269747950726573616C653A206F6E6C792061636365737369626C65 PUSH1 0x40 DUP3 ADD MSTORE PUSH21 0x10313C9037B832B930BA37B91037B91037BBB732B9 PUSH1 0x59 SHL PUSH1 0x60 DUP3 ADD MSTORE PUSH1 0x80 ADD SWAP1 JUMP JUMPDEST PUSH1 0x0 DUP3 NOT DUP3 GT ISZERO PUSH2 0x2AB9 JUMPI PUSH2 0x2AB9 PUSH2 0x2B14 JUMP JUMPDEST POP ADD SWAP1 JUMP JUMPDEST PUSH1 0x0 DUP3 PUSH2 0x2AD9 JUMPI PUSH4 0x4E487B71 PUSH1 0xE0 SHL DUP2 MSTORE PUSH1 0x12 PUSH1 0x4 MSTORE PUSH1 0x24 DUP2 REVERT JUMPDEST POP DIV SWAP1 JUMP JUMPDEST PUSH1 0x0 DUP2 PUSH1 0x0 NOT DIV DUP4 GT DUP3 ISZERO ISZERO AND ISZERO PUSH2 0x2AF8 JUMPI PUSH2 0x2AF8 PUSH2 0x2B14 JUMP JUMPDEST POP MUL SWAP1 JUMP JUMPDEST PUSH1 0x0 DUP3 DUP3 LT ISZERO PUSH2 0x2B0F JUMPI PUSH2 0x2B0F PUSH2 0x2B14 JUMP JUMPDEST POP SUB SWAP1 JUMP JUMPDEST PUSH4 0x4E487B71 PUSH1 0xE0 SHL PUSH1 0x0 MSTORE PUSH1 0x11 PUSH1 0x4 MSTORE PUSH1 0x24 PUSH1 0x0 REVERT JUMPDEST PUSH1 0x1 PUSH1 0x1 PUSH1 0xA0 SHL SUB DUP2 AND DUP2 EQ PUSH2 0x1B2E JUMPI PUSH1 0x0 DUP1 REVERT JUMPDEST DUP1 ISZERO ISZERO DUP2 EQ PUSH2 0x1B2E JUMPI PUSH1 0x0 DUP1 REVERT INVALID LOG2 PUSH5 0x6970667358 0x22 SLT KECCAK256 BALANCE 0x4B PUSH9 0xCFA04B484C97057BC4 0xB8 0x24 0xC3 0xE5 EQ CALLCODE SAR 0x4E LOG2 0xB9 DUP4 DUP11 DUP15 PUSH1 0x31 0x1F EXTCODECOPY PUSH27 0xA29964736F6C63430008040033DDF252AD1BE2C89B69C2B068FC37 DUP14 0xAA SWAP6 0x2B 0xA7 CALL PUSH4 0xC4A11628 CREATE2 GAS 0x4D CREATE2 0x23 0xB3 0xEF "
		},
		"gasEstimates": {
			"creation": {
				"codeDepositCost": "2184800",
				"executionCost": "infinite",
				"totalCost": "infinite"
			},
			"external": {
				"BURN_ADDRESS()": "326",
				"ROUTER()": "306",
				"TOKENS_FOR_POST_PRESALE_LP()": "770",
				"TOKENS_FOR_PRESALE()": "725",
				"USDC()": "306",
				"allowance(address,address)": "infinite",
				"approve(address,uint256)": "22566",
				"balanceOf(address)": "infinite",
				"burnFee()": "1156",
				"checkIfExcludedFromFee(address)": "1316",
				"dappWallet()": "1105",
				"decimals()": "258",
				"decreaseAllowance(address,uint256)": "infinite",
				"excludeFromFee(address)": "23351",
				"excludeFromReward(address)": "infinite",
				"includeInFee(address)": "23300",
				"includeInReward(address)": "infinite",
				"increaseAllowance(address,uint256)": "23745",
				"isExcludedFromReward(address)": "1317",
				"liquidityFee()": "1136",
				"marketingWallet()": "1126",
				"maxTxAmount()": "1129",
				"minorityLiquidityManager()": "1127",
				"minorityPresale()": "1172",
				"minorityVestingManager()": "1171",
				"name()": "infinite",
				"owner()": "1099",
				"reflectionFee()": "1059",
				"reflectionFromToken(uint256,bool)": "infinite",
				"renounceOwnership()": "24232",
				"rewardFee()": "1136",
				"rewardWallet()": "1125",
				"setFeePercentages(uint8,uint8,uint8,uint8,uint8)": "infinite",
				"setMaxTxPercent(uint256)": "23780",
				"setRewardWallet(address)": "22202",
				"setSwapAndLiquifyEnabled(bool)": "23152",
				"setTreasuryWallet(address)": "22157",
				"swapAndLiquifyEnabled()": "1117",
				"swapPair()": "1194",
				"swapRouter()": "1082",
				"symbol()": "infinite",
				"thinkTankWallet()": "1170",
				"tokenFromReflection(uint256)": "infinite",
				"tokensToVest()": "1062",
				"totalSupply()": "713",
				"totalTxFees()": "1084",
				"transfer(address,uint256)": "infinite",
				"transferFrom(address,address,uint256)": "infinite",
				"transferOwnership(address)": "24466",
				"treasuryFee()": "1135",
				"treasuryWallet()": "1105"
			},
			"internal": {
				"_approve(address,address,uint256)": "infinite",
				"_transfer(address,address,uint256)": "infinite",
				"getCurrentSupply()": "infinite",
				"getRValues(uint256,uint256,uint256,uint256)": "infinite",
				"getRate()": "infinite",
				"getTValues(uint256)": "infinite",
				"getValues(uint256)": "infinite",
				"reflectFee(uint256)": "infinite",
				"takeFee(uint256,address,address)": "infinite",
				"takeOtherFees(uint256,address)": "infinite",
				"tokenTransfer(address,address,uint256,bool)": "infinite"
			}
		},
		"methodIdentifiers": {
			"BURN_ADDRESS()": "fccc2813",
			"ROUTER()": "32fe7b26",
			"TOKENS_FOR_POST_PRESALE_LP()": "8cf8f71d",
			"TOKENS_FOR_PRESALE()": "78a2e101",
			"USDC()": "89a30271",
			"allowance(address,address)": "dd62ed3e",
			"approve(address,uint256)": "095ea7b3",
			"balanceOf(address)": "70a08231",
			"burnFee()": "fce589d8",
			"checkIfExcludedFromFee(address)": "e0899a90",
			"dappWallet()": "5bc05e9a",
			"decimals()": "313ce567",
			"decreaseAllowance(address,uint256)": "a457c2d7",
			"excludeFromFee(address)": "437823ec",
			"excludeFromReward(address)": "52390c02",
			"includeInFee(address)": "ea2f0b37",
			"includeInReward(address)": "3685d419",
			"increaseAllowance(address,uint256)": "39509351",
			"isExcludedFromReward(address)": "88f82020",
			"liquidityFee()": "98118cb4",
			"marketingWallet()": "75f0a874",
			"maxTxAmount()": "8c0b5e22",
			"minorityLiquidityManager()": "6bcff5b6",
			"minorityPresale()": "2523fd57",
			"minorityVestingManager()": "560aa498",
			"name()": "06fdde03",
			"owner()": "8da5cb5b",
			"reflectionFee()": "83ad7994",
			"reflectionFromToken(uint256,bool)": "4549b039",
			"renounceOwnership()": "715018a6",
			"rewardFee()": "8b424267",
			"rewardWallet()": "fb75b2c7",
			"setFeePercentages(uint8,uint8,uint8,uint8,uint8)": "e4419f61",
			"setMaxTxPercent(uint256)": "d543dbeb",
			"setRewardWallet(address)": "5958621e",
			"setSwapAndLiquifyEnabled(bool)": "c49b9a80",
			"setTreasuryWallet(address)": "a8602fea",
			"swapAndLiquifyEnabled()": "4a74bb02",
			"swapPair()": "26991cc8",
			"swapRouter()": "c31c9c07",
			"symbol()": "95d89b41",
			"thinkTankWallet()": "81a0b3ff",
			"tokenFromReflection(uint256)": "2d838119",
			"tokensToVest()": "c4730d5d",
			"totalSupply()": "18160ddd",
			"totalTxFees()": "a5041beb",
			"transfer(address,uint256)": "a9059cbb",
			"transferFrom(address,address,uint256)": "23b872dd",
			"transferOwnership(address)": "f2fde38b",
			"treasuryFee()": "cc32d176",
			"treasuryWallet()": "4626402b"
		}
	},
	"abi": [
		{
			"inputs": [],
			"stateMutability": "nonpayable",
			"type": "constructor"
		},
		{
			"anonymous": false,
			"inputs": [
				{
					"indexed": true,
					"internalType": "address",
					"name": "owner",
					"type": "address"
				},
				{
					"indexed": true,
					"internalType": "address",
					"name": "spender",
					"type": "address"
				},
				{
					"indexed": false,
					"internalType": "uint256",
					"name": "value",
					"type": "uint256"
				}
			],
			"name": "Approval",
			"type": "event"
		},
		{
			"anonymous": false,
			"inputs": [
				{
					"indexed": true,
					"internalType": "address",
					"name": "account",
					"type": "address"
				}
			],
			"name": "ExcludedFromFee",
			"type": "event"
		},
		{
			"anonymous": false,
			"inputs": [
				{
					"indexed": true,
					"internalType": "address",
					"name": "account",
					"type": "address"
				}
			],
			"name": "ExcludedFromReward",
			"type": "event"
		},
		{
			"anonymous": false,
			"inputs": [
				{
					"indexed": false,
					"internalType": "uint256",
					"name": "oldReflectionFee",
					"type": "uint256"
				},
				{
					"indexed": false,
					"internalType": "uint256",
					"name": "newReflectionFee",
					"type": "uint256"
				},
				{
					"indexed": false,
					"internalType": "uint256",
					"name": "oldLiquidityFee",
					"type": "uint256"
				},
				{
					"indexed": false,
					"internalType": "uint256",
					"name": "newLiquidityFee",
					"type": "uint256"
				},
				{
					"indexed": false,
					"internalType": "uint256",
					"name": "oldTreasuryFee",
					"type": "uint256"
				},
				{
					"indexed": false,
					"internalType": "uint256",
					"name": "newTreasuryFee",
					"type": "uint256"
				},
				{
					"indexed": false,
					"internalType": "uint256",
					"name": "oldBurnFee",
					"type": "uint256"
				},
				{
					"indexed": false,
					"internalType": "uint256",
					"name": "newBurnFee",
					"type": "uint256"
				},
				{
					"indexed": false,
					"internalType": "uint256",
					"name": "oldRewardFee",
					"type": "uint256"
				},
				{
					"indexed": false,
					"internalType": "uint256",
					"name": "newRewardFee",
					"type": "uint256"
				}
			],
			"name": "FeesChanged",
			"type": "event"
		},
		{
			"anonymous": false,
			"inputs": [
				{
					"indexed": true,
					"internalType": "address",
					"name": "account",
					"type": "address"
				}
			],
			"name": "IncludedInFee",
			"type": "event"
		},
		{
			"anonymous": false,
			"inputs": [
				{
					"indexed": true,
					"internalType": "address",
					"name": "account",
					"type": "address"
				}
			],
			"name": "IncludedInReward",
			"type": "event"
		},
		{
			"anonymous": false,
			"inputs": [
				{
					"indexed": false,
					"internalType": "uint256",
					"name": "oldMaxTxAmount",
					"type": "uint256"
				},
				{
					"indexed": false,
					"internalType": "uint256",
					"name": "newMaxTxAmount",
					"type": "uint256"
				}
			],
			"name": "MaxTxAmountChanged",
			"type": "event"
		},
		{
			"anonymous": false,
			"inputs": [
				{
					"indexed": false,
					"internalType": "uint256",
					"name": "minTokensBeforeSwap",
					"type": "uint256"
				}
			],
			"name": "MinTokensBeforeSwapUpdated",
			"type": "event"
		},
		{
			"anonymous": false,
			"inputs": [
				{
					"indexed": true,
					"internalType": "address",
					"name": "previousOwner",
					"type": "address"
				},
				{
					"indexed": true,
					"internalType": "address",
					"name": "newOwner",
					"type": "address"
				}
			],
			"name": "OwnershipTransferred",
			"type": "event"
		},
		{
			"anonymous": false,
			"inputs": [
				{
					"indexed": false,
					"internalType": "uint256",
					"name": "minorityTokensAdded",
					"type": "uint256"
				},
				{
					"indexed": false,
					"internalType": "uint256",
					"name": "usdcAdded",
					"type": "uint256"
				},
				{
					"indexed": false,
					"internalType": "uint256",
					"name": "lpTokensCreated",
					"type": "uint256"
				}
			],
			"name": "SwapAndLiquify",
			"type": "event"
		},
		{
			"anonymous": false,
			"inputs": [
				{
					"indexed": false,
					"internalType": "bool",
					"name": "enabled",
					"type": "bool"
				}
			],
			"name": "SwapAndLiquifyEnabledUpdated",
			"type": "event"
		},
		{
			"anonymous": false,
			"inputs": [
				{
					"indexed": true,
					"internalType": "address",
					"name": "from",
					"type": "address"
				},
				{
					"indexed": true,
					"internalType": "address",
					"name": "to",
					"type": "address"
				},
				{
					"indexed": false,
					"internalType": "uint256",
					"name": "value",
					"type": "uint256"
				}
			],
			"name": "Transfer",
			"type": "event"
		},
		{
			"inputs": [],
			"name": "BURN_ADDRESS",
			"outputs": [
				{
					"internalType": "address",
					"name": "",
					"type": "address"
				}
			],
			"stateMutability": "view",
			"type": "function"
		},
		{
			"inputs": [],
			"name": "ROUTER",
			"outputs": [
				{
					"internalType": "address",
					"name": "",
					"type": "address"
				}
			],
			"stateMutability": "view",
			"type": "function"
		},
		{
			"inputs": [],
			"name": "TOKENS_FOR_POST_PRESALE_LP",
			"outputs": [
				{
					"internalType": "uint256",
					"name": "",
					"type": "uint256"
				}
			],
			"stateMutability": "view",
			"type": "function"
		},
		{
			"inputs": [],
			"name": "TOKENS_FOR_PRESALE",
			"outputs": [
				{
					"internalType": "uint256",
					"name": "",
					"type": "uint256"
				}
			],
			"stateMutability": "view",
			"type": "function"
		},
		{
			"inputs": [],
			"name": "USDC",
			"outputs": [
				{
					"internalType": "address",
					"name": "",
					"type": "address"
				}
			],
			"stateMutability": "view",
			"type": "function"
		},
		{
			"inputs": [
				{
					"internalType": "address",
					"name": "owner",
					"type": "address"
				},
				{
					"internalType": "address",
					"name": "spender",
					"type": "address"
				}
			],
			"name": "allowance",
			"outputs": [
				{
					"internalType": "uint256",
					"name": "",
					"type": "uint256"
				}
			],
			"stateMutability": "view",
			"type": "function"
		},
		{
			"inputs": [
				{
					"internalType": "address",
					"name": "spender",
					"type": "address"
				},
				{
					"internalType": "uint256",
					"name": "amount",
					"type": "uint256"
				}
			],
			"name": "approve",
			"outputs": [
				{
					"internalType": "bool",
					"name": "",
					"type": "bool"
				}
			],
			"stateMutability": "nonpayable",
			"type": "function"
		},
		{
			"inputs": [
				{
					"internalType": "address",
					"name": "account",
					"type": "address"
				}
			],
			"name": "balanceOf",
			"outputs": [
				{
					"internalType": "uint256",
					"name": "",
					"type": "uint256"
				}
			],
			"stateMutability": "view",
			"type": "function"
		},
		{
			"inputs": [],
			"name": "burnFee",
			"outputs": [
				{
					"internalType": "uint8",
					"name": "",
					"type": "uint8"
				}
			],
			"stateMutability": "view",
			"type": "function"
		},
		{
			"inputs": [
				{
					"internalType": "address",
					"name": "account",
					"type": "address"
				}
			],
			"name": "checkIfExcludedFromFee",
			"outputs": [
				{
					"internalType": "bool",
					"name": "",
					"type": "bool"
				}
			],
			"stateMutability": "view",
			"type": "function"
		},
		{
			"inputs": [],
			"name": "dappWallet",
			"outputs": [
				{
					"internalType": "address",
					"name": "",
					"type": "address"
				}
			],
			"stateMutability": "view",
			"type": "function"
		},
		{
			"inputs": [],
			"name": "decimals",
			"outputs": [
				{
					"internalType": "uint8",
					"name": "",
					"type": "uint8"
				}
			],
			"stateMutability": "pure",
			"type": "function"
		},
		{
			"inputs": [
				{
					"internalType": "address",
					"name": "spender",
					"type": "address"
				},
				{
					"internalType": "uint256",
					"name": "subtractedValue",
					"type": "uint256"
				}
			],
			"name": "decreaseAllowance",
			"outputs": [
				{
					"internalType": "bool",
					"name": "",
					"type": "bool"
				}
			],
			"stateMutability": "nonpayable",
			"type": "function"
		},
		{
			"inputs": [
				{
					"internalType": "address",
					"name": "account",
					"type": "address"
				}
			],
			"name": "excludeFromFee",
			"outputs": [],
			"stateMutability": "nonpayable",
			"type": "function"
		},
		{
			"inputs": [
				{
					"internalType": "address",
					"name": "account",
					"type": "address"
				}
			],
			"name": "excludeFromReward",
			"outputs": [],
			"stateMutability": "nonpayable",
			"type": "function"
		},
		{
			"inputs": [
				{
					"internalType": "address",
					"name": "account",
					"type": "address"
				}
			],
			"name": "includeInFee",
			"outputs": [],
			"stateMutability": "nonpayable",
			"type": "function"
		},
		{
			"inputs": [
				{
					"internalType": "address",
					"name": "account",
					"type": "address"
				}
			],
			"name": "includeInReward",
			"outputs": [],
			"stateMutability": "nonpayable",
			"type": "function"
		},
		{
			"inputs": [
				{
					"internalType": "address",
					"name": "spender",
					"type": "address"
				},
				{
					"internalType": "uint256",
					"name": "addedValue",
					"type": "uint256"
				}
			],
			"name": "increaseAllowance",
			"outputs": [
				{
					"internalType": "bool",
					"name": "",
					"type": "bool"
				}
			],
			"stateMutability": "nonpayable",
			"type": "function"
		},
		{
			"inputs": [
				{
					"internalType": "address",
					"name": "account",
					"type": "address"
				}
			],
			"name": "isExcludedFromReward",
			"outputs": [
				{
					"internalType": "bool",
					"name": "",
					"type": "bool"
				}
			],
			"stateMutability": "view",
			"type": "function"
		},
		{
			"inputs": [],
			"name": "liquidityFee",
			"outputs": [
				{
					"internalType": "uint8",
					"name": "",
					"type": "uint8"
				}
			],
			"stateMutability": "view",
			"type": "function"
		},
		{
			"inputs": [],
			"name": "marketingWallet",
			"outputs": [
				{
					"internalType": "address",
					"name": "",
					"type": "address"
				}
			],
			"stateMutability": "view",
			"type": "function"
		},
		{
			"inputs": [],
			"name": "maxTxAmount",
			"outputs": [
				{
					"internalType": "uint256",
					"name": "",
					"type": "uint256"
				}
			],
			"stateMutability": "view",
			"type": "function"
		},
		{
			"inputs": [],
			"name": "minorityLiquidityManager",
			"outputs": [
				{
					"internalType": "contract MinorityLiquidityManager",
					"name": "",
					"type": "address"
				}
			],
			"stateMutability": "view",
			"type": "function"
		},
		{
			"inputs": [],
			"name": "minorityPresale",
			"outputs": [
				{
					"internalType": "contract MinorityPresale",
					"name": "",
					"type": "address"
				}
			],
			"stateMutability": "view",
			"type": "function"
		},
		{
			"inputs": [],
			"name": "minorityVestingManager",
			"outputs": [
				{
					"internalType": "contract MinorityVestingManager",
					"name": "",
					"type": "address"
				}
			],
			"stateMutability": "view",
			"type": "function"
		},
		{
			"inputs": [],
			"name": "name",
			"outputs": [
				{
					"internalType": "string",
					"name": "",
					"type": "string"
				}
			],
			"stateMutability": "pure",
			"type": "function"
		},
		{
			"inputs": [],
			"name": "owner",
			"outputs": [
				{
					"internalType": "address",
					"name": "",
					"type": "address"
				}
			],
			"stateMutability": "view",
			"type": "function"
		},
		{
			"inputs": [],
			"name": "reflectionFee",
			"outputs": [
				{
					"internalType": "uint8",
					"name": "",
					"type": "uint8"
				}
			],
			"stateMutability": "view",
			"type": "function"
		},
		{
			"inputs": [
				{
					"internalType": "uint256",
					"name": "amount",
					"type": "uint256"
				},
				{
					"internalType": "bool",
					"name": "deductTransferFee",
					"type": "bool"
				}
			],
			"name": "reflectionFromToken",
			"outputs": [
				{
					"internalType": "uint256",
					"name": "",
					"type": "uint256"
				}
			],
			"stateMutability": "view",
			"type": "function"
		},
		{
			"inputs": [],
			"name": "renounceOwnership",
			"outputs": [],
			"stateMutability": "nonpayable",
			"type": "function"
		},
		{
			"inputs": [],
			"name": "rewardFee",
			"outputs": [
				{
					"internalType": "uint8",
					"name": "",
					"type": "uint8"
				}
			],
			"stateMutability": "view",
			"type": "function"
		},
		{
			"inputs": [],
			"name": "rewardWallet",
			"outputs": [
				{
					"internalType": "address",
					"name": "",
					"type": "address"
				}
			],
			"stateMutability": "view",
			"type": "function"
		},
		{
			"inputs": [
				{
					"internalType": "uint8",
					"name": "_reflectionFee",
					"type": "uint8"
				},
				{
					"internalType": "uint8",
					"name": "_liquidityFee",
					"type": "uint8"
				},
				{
					"internalType": "uint8",
					"name": "_treasuryFee",
					"type": "uint8"
				},
				{
					"internalType": "uint8",
					"name": "_burnFee",
					"type": "uint8"
				},
				{
					"internalType": "uint8",
					"name": "_rewardFee",
					"type": "uint8"
				}
			],
			"name": "setFeePercentages",
			"outputs": [],
			"stateMutability": "nonpayable",
			"type": "function"
		},
		{
			"inputs": [
				{
					"internalType": "uint256",
					"name": "maxTxPercent",
					"type": "uint256"
				}
			],
			"name": "setMaxTxPercent",
			"outputs": [],
			"stateMutability": "nonpayable",
			"type": "function"
		},
		{
			"inputs": [
				{
					"internalType": "address",
					"name": "_rewardWallet",
					"type": "address"
				}
			],
			"name": "setRewardWallet",
			"outputs": [],
			"stateMutability": "nonpayable",
			"type": "function"
		},
		{
			"inputs": [
				{
					"internalType": "bool",
					"name": "_enabled",
					"type": "bool"
				}
			],
			"name": "setSwapAndLiquifyEnabled",
			"outputs": [],
			"stateMutability": "nonpayable",
			"type": "function"
		},
		{
			"inputs": [
				{
					"internalType": "address",
					"name": "_treasuryWallet",
					"type": "address"
				}
			],
			"name": "setTreasuryWallet",
			"outputs": [],
			"stateMutability": "nonpayable",
			"type": "function"
		},
		{
			"inputs": [],
			"name": "swapAndLiquifyEnabled",
			"outputs": [
				{
					"internalType": "bool",
					"name": "",
					"type": "bool"
				}
			],
			"stateMutability": "view",
			"type": "function"
		},
		{
			"inputs": [],
			"name": "swapPair",
			"outputs": [
				{
					"internalType": "address",
					"name": "",
					"type": "address"
				}
			],
			"stateMutability": "view",
			"type": "function"
		},
		{
			"inputs": [],
			"name": "swapRouter",
			"outputs": [
				{
					"internalType": "contract ISwapRouter02",
					"name": "",
					"type": "address"
				}
			],
			"stateMutability": "view",
			"type": "function"
		},
		{
			"inputs": [],
			"name": "symbol",
			"outputs": [
				{
					"internalType": "string",
					"name": "",
					"type": "string"
				}
			],
			"stateMutability": "pure",
			"type": "function"
		},
		{
			"inputs": [],
			"name": "thinkTankWallet",
			"outputs": [
				{
					"internalType": "address",
					"name": "",
					"type": "address"
				}
			],
			"stateMutability": "view",
			"type": "function"
		},
		{
			"inputs": [
				{
					"internalType": "uint256",
					"name": "reflectionAmount",
					"type": "uint256"
				}
			],
			"name": "tokenFromReflection",
			"outputs": [
				{
					"internalType": "uint256",
					"name": "",
					"type": "uint256"
				}
			],
			"stateMutability": "view",
			"type": "function"
		},
		{
			"inputs": [],
			"name": "tokensToVest",
			"outputs": [
				{
					"internalType": "uint256",
					"name": "",
					"type": "uint256"
				}
			],
			"stateMutability": "view",
			"type": "function"
		},
		{
			"inputs": [],
			"name": "totalSupply",
			"outputs": [
				{
					"internalType": "uint256",
					"name": "",
					"type": "uint256"
				}
			],
			"stateMutability": "pure",
			"type": "function"
		},
		{
			"inputs": [],
			"name": "totalTxFees",
			"outputs": [
				{
					"internalType": "uint256",
					"name": "",
					"type": "uint256"
				}
			],
			"stateMutability": "view",
			"type": "function"
		},
		{
			"inputs": [
				{
					"internalType": "address",
					"name": "recipient",
					"type": "address"
				},
				{
					"internalType": "uint256",
					"name": "amount",
					"type": "uint256"
				}
			],
			"name": "transfer",
			"outputs": [
				{
					"internalType": "bool",
					"name": "",
					"type": "bool"
				}
			],
			"stateMutability": "nonpayable",
			"type": "function"
		},
		{
			"inputs": [
				{
					"internalType": "address",
					"name": "sender",
					"type": "address"
				},
				{
					"internalType": "address",
					"name": "recipient",
					"type": "address"
				},
				{
					"internalType": "uint256",
					"name": "amount",
					"type": "uint256"
				}
			],
			"name": "transferFrom",
			"outputs": [
				{
					"internalType": "bool",
					"name": "",
					"type": "bool"
				}
			],
			"stateMutability": "nonpayable",
			"type": "function"
		},
		{
			"inputs": [
				{
					"internalType": "address",
					"name": "newOwner",
					"type": "address"
				}
			],
			"name": "transferOwnership",
			"outputs": [],
			"stateMutability": "nonpayable",
			"type": "function"
		},
		{
			"inputs": [],
			"name": "treasuryFee",
			"outputs": [
				{
					"internalType": "uint8",
					"name": "",
					"type": "uint8"
				}
			],
			"stateMutability": "view",
			"type": "function"
		},
		{
			"inputs": [],
			"name": "treasuryWallet",
			"outputs": [
				{
					"internalType": "address",
					"name": "",
					"type": "address"
				}
			],
			"stateMutability": "view",
			"type": "function"
		},
		{
			"stateMutability": "payable",
			"type": "receive"
		}
	]
}