{
	"data": {
		"bytecode": {
			"linkReferences": {},
			"object": "60a06040523480156200001157600080fd5b5060405162002d3438038062002d34833981016040819052620000349162000145565b6001600081815581546001600160a01b031916339081179092556040518291907f8be0079c531659141344cd1fd0a4f28419497f9722a3daafe3b4186f6b6457e0908290a3506001600160a01b038116620000fb5760405162461bcd60e51b815260206004820152603360248201527f4d696e6f7269747950726573616c653a204f70657261746f722063616e27742060448201527f626520746865207a65726f206164647265737300000000000000000000000000606482015260840160405180910390fd5b7fa5e0829caced8ffdd4de3c43696c57f7d7a678ff000000000000000000000000608052600480546001600160a01b0319166001600160a01b039290921691909117905562000175565b60006020828403121562000157578081fd5b81516001600160a01b03811681146200016e578182fd5b9392505050565b60805160601c612b84620001b06000396000818161065b015281816106ed015281816120f5015281816121a101526122920152612b846000f3fe60806040526004361061021e5760003560e01c80635e6911af11610123578063a4399263116100ab578063c31c9c071161006f578063c31c9c0714610649578063d91b3d071461067d578063f2fde38b14610693578063f89be593146106b3578063fc0c546a146106c957600080fd5b8063a4399263146105d3578063b071cbe6146105e8578063b5545a3c146105fe578063b7a8807c14610613578063baac251b1461062957600080fd5b806389a30271116100f257806389a30271146105395780638d167405146105615780638da5cb5b146105765780639a82a09a14610594578063a27aebbc146105b357600080fd5b80635e6911af146104da578063656768fa146104f45780636eb219291461050a578063715018a61461052457600080fd5b80633ca85228116101a657806348c54b9d1161017557806348c54b9d1461045957806349f1026e1461046e5780634b6753bc14610484578063521eb2731461049a578063570ca735146104ba57600080fd5b80633ca85228146103f95780634042b66f14610419578063467e53b11461042f57806347535d7b1461044457600080fd5b806321eff7fc116101ed57806321eff7fc1461033a5780632c4e722e146103705780633013ce291461038657806332fe7b26146103be5780633610724e146103e657600080fd5b80630276650b146102b25780631512fc22146102db5780631515bc2b146102fb578063214bb60f1461032057600080fd5b366102ad5761022b6106e9565b6102a25760405162461bcd60e51b815260206004820152603b60248201527f4d696e6f7269747950726573616c653a2043616e27742062757920627920736560448201527f6e64696e672066756e647320746f20746869732061646472657373000000000060648201526084015b60405180910390fd5b6102ab34610792565b005b600080fd5b3480156102be57600080fd5b506102c8600d5481565b6040519081526020015b60405180910390f35b3480156102e757600080fd5b506102ab6102f636600461293a565b610913565b34801561030757600080fd5b50610310610a89565b60405190151581526020016102d2565b34801561032c57600080fd5b506013546103109060ff1681565b34801561034657600080fd5b506102c861035536600461276e565b6001600160a01b03166000908152600e602052604090205490565b34801561037c57600080fd5b506102c860085481565b34801561039257600080fd5b506006546103a6906001600160a01b031681565b6040516001600160a01b0390911681526020016102d2565b3480156103ca57600080fd5b506103a673a5e0829caced8ffdd4de3c43696c57f7d7a678ff81565b6102ab6103f43660046127c2565b610792565b34801561040557600080fd5b506102ab61041436600461288d565b610aa2565b34801561042557600080fd5b506102c860095481565b34801561043b57600080fd5b506102ab611270565b34801561045057600080fd5b5061031061134d565b34801561046557600080fd5b506102ab611366565b34801561047a57600080fd5b506102c860125481565b34801561049057600080fd5b506102c860105481565b3480156104a657600080fd5b506007546103a6906001600160a01b031681565b3480156104c657600080fd5b506004546103a6906001600160a01b031681565b3480156104e657600080fd5b50600b546009541015610310565b34801561050057600080fd5b506102c860115481565b34801561051657600080fd5b50600c546009541015610310565b34801561053057600080fd5b506102ab611608565b34801561054557600080fd5b506103a6732791bca1f2de4661ed88a30c99a7a9449aa8417481565b34801561056d57600080fd5b506103106106e9565b34801561058257600080fd5b506001546001600160a01b03166103a6565b3480156105a057600080fd5b5060135461031090610100900460ff1681565b3480156105bf57600080fd5b506102ab6105ce3660046127c2565b61167c565b3480156105df57600080fd5b506102ab6117ca565b3480156105f457600080fd5b506102c8600b5481565b34801561060a57600080fd5b506102ab6118f7565b34801561061f57600080fd5b506102c8600f5481565b34801561063557600080fd5b506102ab6106443660046127f2565b611b32565b34801561065557600080fd5b506103a67f000000000000000000000000000000000000000000000000000000000000000081565b34801561068957600080fd5b506102c8600a5481565b34801561069f57600080fd5b506102ab6106ae36600461276e565b611b93565b3480156106bf57600080fd5b506102c8600c5481565b3480156106d557600080fd5b506005546103a6906001600160a01b031681565b60007f00000000000000000000000000000000000000000000000000000000000000006001600160a01b031663ad5c46486040518163ffffffff1660e01b815260040160206040518083038186803b15801561074457600080fd5b505afa158015610758573d6000803e3d6000fd5b505050506040513d601f19601f8201168201806040525081019061077c919061278a565b6006546001600160a01b03908116911614919050565b600260005414156107e55760405162461bcd60e51b815260206004820152601f60248201527f5265656e7472616e637947756172643a207265656e7472616e742063616c6c006044820152606401610299565b6002600090815533906107f88284611c7e565b90506000811161085c5760405162461bcd60e51b815260206004820152602960248201527f4d696e6f7269747950726573616c653a20697373756520636f6c6c656374696e60448201526819c81c185e5b595b9d60ba1b6064820152608401610299565b600061086782611ec6565b6009549091506108779083611edd565b6009556001600160a01b0383166000908152600e602052604090205461089d9083611edd565b6001600160a01b0384166000818152600e602090815260409182902093909355805185815292830184905290917f8fafebcaf9d154343dad25669bfa277f4fbacd7ac6b0c4fed522580e040a0f33910160405180910390a2600b5460095410610908576109086117ca565b505060016000555050565b6004546001600160a01b031633148061093657506001546001600160a01b031633145b6109525760405162461bcd60e51b815260040161029990612a52565b61095a610a89565b156109a75760405162461bcd60e51b815260206004820152601f60248201527f4d696e6f7269747950726573616c653a20616c726561647920636c6f736564006044820152606401610299565b6109af61134d565b15610a335760405162461bcd60e51b815260206004820152604860248201527f4d696e6f7269747950726573616c653a20616c7265616479206f70656e2c207560448201527f736520657874656e6454696d6520746f206368616e67652074686520636c6f73606482015267696e672074696d6560c01b608482015260a401610299565b600f546010546040805192835260208301859052820152606081018290527fcee39188adaf9a8b11d1c48b0a60f530d2d2923c00d7f9ac4a8294501d77e9ba9060800160405180910390a1600f91909155601055565b600060105442118015610a9d575060105415155b905090565b6001546001600160a01b03163314610acc5760405162461bcd60e51b8152600401610299906129db565b600f541580610aea5750600f54610ae69062015180611f3c565b4211155b610b535760405162461bcd60e51b815260206004820152603460248201527f4d696e6f7269747950726573616c653a2043616e2774206d6f64696679203c206044820152733120646179206265666f7265206f70656e696e6760601b6064820152608401610299565b601354610100900460ff1615610bd15760405162461bcd60e51b815260206004820152603a60248201527f4d696e6f7269747950726573616c653a2043616e27742072652d75736520612060448201527f63616e63656c6c65642070726573616c6520636f6e74726163740000000000006064820152608401610299565b60008c11610c215760405162461bcd60e51b815260206004820181905260248201527f4d696e6f7269747950726573616c653a20726174652063616e277420626520306044820152606401610299565b6001600160a01b038b16610c915760405162461bcd60e51b815260206004820152603160248201527f4d696e6f7269747950726573616c653a2077616c6c65742063616e277420626560448201527020746865207a65726f206164647265737360781b6064820152608401610299565b6001600160a01b038a16610d005760405162461bcd60e51b815260206004820152603060248201527f4d696e6f7269747950726573616c653a20746f6b656e2063616e27742062652060448201526f746865207a65726f206164647265737360801b6064820152608401610299565b6001600160a01b038616610d7c5760405162461bcd60e51b815260206004820152603860248201527f4d696e6f7269747950726573616c653a207061796d656e7420746f6b656e206360448201527f616e277420626520746865207a65726f206164647265737300000000000000006064820152608401610299565b60008911610dd85760405162461bcd60e51b815260206004820152602360248201527f4d696e6f7269747950726573616c653a20686172646361702063616e2774206260448201526206520360ec1b6064820152608401610299565b60008811610e345760405162461bcd60e51b815260206004820152602360248201527f4d696e6f7269747950726573616c653a20736f66746361702063616e2774206260448201526206520360ec1b6064820152608401610299565b888810610e965760405162461bcd60e51b815260206004820152602a60248201527f4d696e6f7269747950726573616c653a20736f6674636170206d7573742062656044820152690203c20686172646361760b41b6064820152608401610299565b60008711610ef95760405162461bcd60e51b815260206004820152602a60248201527f4d696e6f7269747950726573616c653a20696e646976696475616c2063617020604482015269063616e277420626520360b41b6064820152608401610299565b42851015610f645760405162461bcd60e51b815260206004820152603260248201527f4d696e6f7269747950726573616c653a206f70656e696e672074696d652063616044820152711b89dd081899481a5b881d1a19481c185cdd60721b6064820152608401610299565b848411610fd95760405162461bcd60e51b815260206004820152603a60248201527f4d696e6f7269747950726573616c653a20636c6f73696e672074696d6520636160448201527f6e2774206265206265666f7265206f70656e696e672074696d650000000000006064820152608401610299565b6000831161103c5760405162461bcd60e51b815260206004820152602a60248201527f4d696e6f7269747950726573616c653a206d75737420616464203e203020746f60448201526906b656e7320746f204c560b41b6064820152608401610299565b6046821015801561104e575060648211155b6110cb5760405162461bcd60e51b815260206004820152604260248201527f4d696e6f7269747950726573616c653a206d75737420616464203e3d2037302560448201527f20616e64203c3d2031303025206f66207261697365642066756e647320746f2060648201526104c560f41b608482015260a401610299565b8015611208576110e5836110df8b8f611f7e565b90611edd565b6040516370a0823160e01b81523060048201526001600160a01b038c16906370a082319060240160206040518083038186803b15801561112457600080fd5b505afa158015611138573d6000803e3d6000fd5b505050506040513d601f19601f8201168201806040525081019061115c91906127da565b10156112085760405162461bcd60e51b815260206004820152606960248201527f4d696e6f7269747950726573616c653a204e6f7420656e6f75676820746f6b6560448201527f6e73206f776e656420746f20636f6d706c6574652070726573616c652e20446560648201527f706f73697420746f6b656e73206265666f72652063616c6c696e67207468697360848201526810333ab731ba34b7b760b91b60a482015260c401610299565b5060089a909a55600780546001600160a01b03199081166001600160a01b039b8c1617909155600580548216998b1699909917909855600680549098169390981692909217909555600b93909355600c91909155600d55600f91909155601055601155601255565b6004546001600160a01b031633148061129357506001546001600160a01b031633145b6112af5760405162461bcd60e51b815260040161029990612a52565b60135460ff16156112d25760405162461bcd60e51b815260040161029990612a10565b6112da61134d565b806112e857506112e8610a89565b80156112f657506000600954115b1561130b576013805461ff0019166101001790555b60006008819055600780546001600160a01b0319169055600b819055600c819055600d819055600f8190556010819055601181905560125561134b611ffd565b565b6000600f544210158015610a9d57505060105442111590565b60135460ff166113ec5760405162461bcd60e51b8152602060048201526044602482018190527f4d696e6f7269747950726573616c653a206e6f742066696e616c697365642c20908201527f63616c6c2066696e616c697365206265666f726520636c61696d696e6720746f6064820152636b656e7360e01b608482015260a401610299565b600c546009541015611468576040805162461bcd60e51b81526020600482015260248101919091527f4d696e6f7269747950726573616c653a20536f6674636170206e6f74206d657460448201527f2c20636c61696d206120726566756e64206f6620796f7572207061796d656e746064820152608401610299565b336000818152600e602052604081205461148190611ec6565b9050600081116114f15760405162461bcd60e51b815260206004820152603560248201527f4d696e6f7269747950726573616c653a206e6f20746f6b656e7320636c61696d60448201527461626c6520666f722074686973206164647265737360581b6064820152608401610299565b6001600160a01b0382166000908152600e6020526040812055600a546115179082611f3c565b600a5560055460405163a9059cbb60e01b81526001600160a01b038481166004830152602482018490529091169063a9059cbb90604401602060405180830381600087803b15801561156857600080fd5b505af115801561157c573d6000803e3d6000fd5b505050506040513d601f19601f820116820180604052508101906115a091906127a6565b6116045760405162461bcd60e51b815260206004820152602f60248201527f4d696e6f7269747950726573616c653a2069737375652077697468207472616e60448201526e7366657272696e6720746f6b656e7360881b6064820152608401610299565b5050565b6001546001600160a01b031633146116325760405162461bcd60e51b8152600401610299906129db565b6001546040516000916001600160a01b0316907f8be0079c531659141344cd1fd0a4f28419497f9722a3daafe3b4186f6b6457e0908390a3600180546001600160a01b0319169055565b6004546001600160a01b031633148061169f57506001546001600160a01b031633145b6116bb5760405162461bcd60e51b815260040161029990612a52565b6116c3610a89565b156117105760405162461bcd60e51b815260206004820152601f60248201527f4d696e6f7269747950726573616c653a20616c726561647920636c6f736564006044820152606401610299565b6010548111611789576040805162461bcd60e51b81526020600482015260248101919091527f4d696e6f7269747950726573616c653a206e657720636c6f73696e672074696d60448201527f65206973206265666f72652063757272656e7420636c6f73696e672074696d656064820152608401610299565b60105460408051918252602082018390527f36590996dea047dc12d17ec2643248f8b86eb37e78941b43d9e9049180efb7b0910160405180910390a1601055565b60135460ff16156117ed5760405162461bcd60e51b815260040161029990612a10565b6117f5610a89565b806118045750600b5460095410155b6118505760405162461bcd60e51b815260206004820152601b60248201527f4d696e6f7269747950726573616c653a206e6f7420636c6f73656400000000006044820152606401610299565b60085460095461185f91611f7e565b600a556013805460ff191660011790556040517f5a1e9b2ea50ef9aabe4b3c94eb63b2d60debef2647506304fbf79ad4509d1aff90600090a1600b546009541015806118af5750600c5460095410155b156118e3576118bc6120b6565b606460125410156118cf576118cf612370565b600b54600954101561134b5761134b61241e565b600c54600954101561134b5761134b611ffd565b60135460ff168061190f5750601354610100900460ff165b6119a75760405162461bcd60e51b815260206004820152605860248201527f4d696e6f7269747950726573616c653a206e6f742066696e616c69736564206f60448201527f722063616e63656c6c65642c207472792063616c6c696e672066696e616c697360648201527f65206265666f726520636c61696d696e6720726566756e640000000000000000608482015260a401610299565b600c5460095410611a465760405162461bcd60e51b815260206004820152605a60248201527f4d696e6f7269747950726573616c653a20736f6674636170207265616368656460448201527f2c20726566756e64732063616e277420626520636c61696d656420756e6c657360648201527f73207468652070726573616c652069732063616e63656c6c6564000000000000608482015260a401610299565b33611a4f6106e9565b15611a98576001600160a01b0381166000908152600e602052604080822054905133926108fc831502929190818181858888f19350505050158015611604573d6000803e3d6000fd5b6006546001600160a01b038281166000818152600e60205260409081902054905163a9059cbb60e01b81526004810192909252602482015291169063a9059cbb906044015b602060405180830381600087803b158015611af757600080fd5b505af1158015611b0b573d6000803e3d6000fd5b505050506040513d601f19601f8201168201806040525081019061160491906127a6565b50565b6004546001600160a01b0316331480611b5557506001546001600160a01b031633145b611b715760405162461bcd60e51b815260040161029990612a52565b611b868b8b8b8b8b8b8b8b8b8b8b6001610aa2565b5050505050505050505050565b6001546001600160a01b03163314611bbd5760405162461bcd60e51b8152600401610299906129db565b6001600160a01b038116611c225760405162461bcd60e51b815260206004820152602660248201527f4f776e61626c653a206e6577206f776e657220697320746865207a65726f206160448201526564647265737360d01b6064820152608401610299565b6001546040516001600160a01b038084169216907f8be0079c531659141344cd1fd0a4f28419497f9722a3daafe3b4186f6b6457e090600090a3600180546001600160a01b0319166001600160a01b0392909216919091179055565b6000611c8861134d565b611cd45760405162461bcd60e51b815260206004820152601960248201527f4d696e6f7269747950726573616c653a206e6f74206f70656e000000000000006044820152606401610299565b6001600160a01b038316611d435760405162461bcd60e51b815260206004820152603060248201527f4d696e6f7269747950726573616c653a2062656e65666963696172792069732060448201526f746865207a65726f206164647265737360801b6064820152608401610299565b81611d9c5760405162461bcd60e51b8152602060048201526024808201527f4d696e6f7269747950726573616c653a2030207061796d656e74207370656369604482015263199a595960e21b6064820152608401610299565b600b54600954611dac9084611edd565b1115611e2e5760405162461bcd60e51b8152602060048201526044602482018190527f4d696e6f7269747950726573616c653a206861726463617020776f756c642062908201527f652065786365656465642077697468207468697320707572636861736520616d6064820152631bdd5b9d60e21b608482015260a401610299565b600d546001600160a01b0384166000908152600e6020526040902054611e549084611edd565b1115611eb35760405162461bcd60e51b815260206004820152602860248201527f4d696e6f7269747950726573616c653a20696e646976696475616c2063617020604482015267195e18d95959195960c21b6064820152608401610299565b611ebd8383612519565b90505b92915050565b6000611ec060085483611f7e90919063ffffffff16565b600080611eea8385612aa7565b905083811015611ebd5760405162461bcd60e51b815260206004820152601b60248201527f536166654d6174683a206164646974696f6e206f766572666c6f7700000000006044820152606401610299565b6000611ebd83836040518060400160405280601e81526020017f536166654d6174683a207375627472616374696f6e206f766572666c6f7700008152506126c9565b600082611f8d57506000611ec0565b6000611f998385612adf565b905082611fa68583612abf565b14611ebd5760405162461bcd60e51b815260206004820152602160248201527f536166654d6174683a206d756c7469706c69636174696f6e206f766572666c6f6044820152607760f81b6064820152608401610299565b6005546040516370a0823160e01b81523060048201526000916001600160a01b0316906370a082319060240160206040518083038186803b15801561204157600080fd5b505afa158015612055573d6000803e3d6000fd5b505050506040513d601f19601f8201168201806040525081019061207991906127da565b60055460075460405163a9059cbb60e01b81526001600160a01b03918216600482015260248101849052929350169063a9059cbb90604401611add565b60006120db600b546120d5600954601154611f7e90919063ffffffff16565b90612703565b60055460405163095ea7b360e01b81526001600160a01b037f0000000000000000000000000000000000000000000000000000000000000000811660048301526024820184905292935091169063095ea7b390604401602060405180830381600087803b15801561214b57600080fd5b505af115801561215f573d6000803e3d6000fd5b505050506040513d601f19601f8201168201806040525081019061218391906127a6565b5060065460095460405163095ea7b360e01b81526001600160a01b037f000000000000000000000000000000000000000000000000000000000000000081166004830152602482019290925291169063095ea7b390604401602060405180830381600087803b1580156121f557600080fd5b505af1158015612209573d6000803e3d6000fd5b505050506040513d601f19601f8201168201806040525081019061222d91906127a6565b5060055460065460095460075460405162e8e33760e81b81526001600160a01b039485166004820152928416602484015260448301859052606483019190915260006084830181905260a4830181905290831660c48301524260e483015291829182917f0000000000000000000000000000000000000000000000000000000000000000169063e8e337009061010401606060405180830381600087803b1580156122d757600080fd5b505af11580156122eb573d6000803e3d6000fd5b505050506040513d601f19601f8201168201806040525081019061230f919061295b565b600954604080518981526020810186905290810191909152606081018390526080810182905292955090935091507fb141efb20c72d616a1738edf3bfc091e675e9970798c20f084e967372070c25b9060a00160405180910390a150505050565b600061239a61239160646120d5601254600954611f7e90919063ffffffff16565b60095490611f3c565b90506123a46106e9565b156123e3576007546040516001600160a01b039091169082156108fc029083906000818181858888f19350505050158015611604573d6000803e3d6000fd5b60065460075460405163a9059cbb60e01b81526001600160a01b0391821660048201526024810184905291169063a9059cbb90604401611add565b600061244360085461243d600954600b54611f3c90919063ffffffff16565b90611f7e565b90506000612470612467600b546120d5600954601154611f7e90919063ffffffff16565b60115490611f3c565b6005546007549192506001600160a01b039081169163a9059cbb91166124968585611edd565b6040516001600160e01b031960e085901b1681526001600160a01b0390921660048301526024820152604401602060405180830381600087803b1580156124dc57600080fd5b505af11580156124f0573d6000803e3d6000fd5b505050506040513d601f19601f8201168201806040525081019061251491906127a6565b505050565b60006125236106e9565b1561252f575080611ec0565b6006546040516370a0823160e01b81523060048201526000916001600160a01b0316906370a082319060240160206040518083038186803b15801561257357600080fd5b505afa158015612587573d6000803e3d6000fd5b505050506040513d601f19601f820116820180604052508101906125ab91906127da565b6006546040516323b872dd60e01b81526001600160a01b038781166004830152306024830152604482018790529293509116906323b872dd90606401602060405180830381600087803b15801561260157600080fd5b505af1158015612615573d6000803e3d6000fd5b505050506040513d601f19601f8201168201806040525081019061263991906127a6565b506006546040516370a0823160e01b81523060048201526126c19183916001600160a01b03909116906370a082319060240160206040518083038186803b15801561268357600080fd5b505afa158015612697573d6000803e3d6000fd5b505050506040513d601f19601f820116820180604052508101906126bb91906127da565b90611f3c565b915050611ec0565b600081848411156126ed5760405162461bcd60e51b81526004016102999190612988565b5060006126fa8486612afe565b95945050505050565b6000611ebd83836040518060400160405280601a81526020017f536166654d6174683a206469766973696f6e206279207a65726f000000000000815250600081836127615760405162461bcd60e51b81526004016102999190612988565b5060006126fa8486612abf565b60006020828403121561277f578081fd5b8135611ebd81612b2b565b60006020828403121561279b578081fd5b8151611ebd81612b2b565b6000602082840312156127b7578081fd5b8151611ebd81612b40565b6000602082840312156127d3578081fd5b5035919050565b6000602082840312156127eb578081fd5b5051919050565b60008060008060008060008060008060006101608c8e031215612813578687fd5b8b359a5060208c013561282581612b2b565b995060408c013561283581612b2b565b985060608c0135975060808c0135965060a08c0135955060c08c013561285a81612b2b565b8095505060e08c013593506101008c013592506101208c013591506101408c013590509295989b509295989b9093969950565b6000806000806000806000806000806000806101808d8f0312156128af578182fd5b8c359b5060208d01356128c181612b2b565b9a5060408d01356128d181612b2b565b995060608d0135985060808d0135975060a08d0135965060c08d01356128f681612b2b565b955060e08d013594506101008d013593506101208d013592506101408d013591506101608d013561292681612b40565b809150509295989b509295989b509295989b565b6000806040838503121561294c578182fd5b50508035926020909101359150565b60008060006060848603121561296f578283fd5b8351925060208401519150604084015190509250925092565b6000602080835283518082850152825b818110156129b457858101830151858201604001528201612998565b818111156129c55783604083870101525b50601f01601f1916929092016040019392505050565b6020808252818101527f4f776e61626c653a2063616c6c6572206973206e6f7420746865206f776e6572604082015260600190565b60208082526022908201527f4d696e6f7269747950726573616c653a20616c72656164792066696e616c6973604082015261195960f21b606082015260800190565b60208082526035908201527f4d696e6f7269747950726573616c653a206f6e6c792061636365737369626c6560408201527410313c9037b832b930ba37b91037b91037bbb732b960591b606082015260800190565b60008219821115612aba57612aba612b15565b500190565b600082612ada57634e487b7160e01b81526012600452602481fd5b500490565b6000816000190483118215151615612af957612af9612b15565b500290565b600082821015612b1057612b10612b15565b500390565b634e487b7160e01b600052601160045260246000fd5b6001600160a01b0381168114611b2f57600080fd5b8015158114611b2f57600080fdfea26469706673582212202b64e059d00f759b3391dc341d4bb18fcd46d4164c4562c389d3d23ebd2f418764736f6c63430008040033",
			"opcodes": "PUSH1 0xA0 PUSH1 0x40 MSTORE CALLVALUE DUP1 ISZERO PUSH3 0x11 JUMPI PUSH1 0x0 DUP1 REVERT JUMPDEST POP PUSH1 0x40 MLOAD PUSH3 0x2D34 CODESIZE SUB DUP1 PUSH3 0x2D34 DUP4 CODECOPY DUP2 ADD PUSH1 0x40 DUP2 SWAP1 MSTORE PUSH3 0x34 SWAP2 PUSH3 0x145 JUMP JUMPDEST PUSH1 0x1 PUSH1 0x0 DUP2 DUP2 SSTORE DUP2 SLOAD PUSH1 0x1 PUSH1 0x1 PUSH1 0xA0 SHL SUB NOT AND CALLER SWAP1 DUP2 OR SWAP1 SWAP3 SSTORE PUSH1 0x40 MLOAD DUP3 SWAP2 SWAP1 PUSH32 0x8BE0079C531659141344CD1FD0A4F28419497F9722A3DAAFE3B4186F6B6457E0 SWAP1 DUP3 SWAP1 LOG3 POP PUSH1 0x1 PUSH1 0x1 PUSH1 0xA0 SHL SUB DUP2 AND PUSH3 0xFB JUMPI PUSH1 0x40 MLOAD PUSH3 0x461BCD PUSH1 0xE5 SHL DUP2 MSTORE PUSH1 0x20 PUSH1 0x4 DUP3 ADD MSTORE PUSH1 0x33 PUSH1 0x24 DUP3 ADD MSTORE PUSH32 0x4D696E6F7269747950726573616C653A204F70657261746F722063616E277420 PUSH1 0x44 DUP3 ADD MSTORE PUSH32 0x626520746865207A65726F206164647265737300000000000000000000000000 PUSH1 0x64 DUP3 ADD MSTORE PUSH1 0x84 ADD PUSH1 0x40 MLOAD DUP1 SWAP2 SUB SWAP1 REVERT JUMPDEST PUSH32 0xA5E0829CACED8FFDD4DE3C43696C57F7D7A678FF000000000000000000000000 PUSH1 0x80 MSTORE PUSH1 0x4 DUP1 SLOAD PUSH1 0x1 PUSH1 0x1 PUSH1 0xA0 SHL SUB NOT AND PUSH1 0x1 PUSH1 0x1 PUSH1 0xA0 SHL SUB SWAP3 SWAP1 SWAP3 AND SWAP2 SWAP1 SWAP2 OR SWAP1 SSTORE PUSH3 0x175 JUMP JUMPDEST PUSH1 0x0 PUSH1 0x20 DUP3 DUP5 SUB SLT ISZERO PUSH3 0x157 JUMPI DUP1 DUP2 REVERT JUMPDEST DUP2 MLOAD PUSH1 0x1 PUSH1 0x1 PUSH1 0xA0 SHL SUB DUP2 AND DUP2 EQ PUSH3 0x16E JUMPI DUP2 DUP3 REVERT JUMPDEST SWAP4 SWAP3 POP POP POP JUMP JUMPDEST PUSH1 0x80 MLOAD PUSH1 0x60 SHR PUSH2 0x2B84 PUSH3 0x1B0 PUSH1 0x0 CODECOPY PUSH1 0x0 DUP2 DUP2 PUSH2 0x65B ADD MSTORE DUP2 DUP2 PUSH2 0x6ED ADD MSTORE DUP2 DUP2 PUSH2 0x20F5 ADD MSTORE DUP2 DUP2 PUSH2 0x21A1 ADD MSTORE PUSH2 0x2292 ADD MSTORE PUSH2 0x2B84 PUSH1 0x0 RETURN INVALID PUSH1 0x80 PUSH1 0x40 MSTORE PUSH1 0x4 CALLDATASIZE LT PUSH2 0x21E JUMPI PUSH1 0x0 CALLDATALOAD PUSH1 0xE0 SHR DUP1 PUSH4 0x5E6911AF GT PUSH2 0x123 JUMPI DUP1 PUSH4 0xA4399263 GT PUSH2 0xAB JUMPI DUP1 PUSH4 0xC31C9C07 GT PUSH2 0x6F JUMPI DUP1 PUSH4 0xC31C9C07 EQ PUSH2 0x649 JUMPI DUP1 PUSH4 0xD91B3D07 EQ PUSH2 0x67D JUMPI DUP1 PUSH4 0xF2FDE38B EQ PUSH2 0x693 JUMPI DUP1 PUSH4 0xF89BE593 EQ PUSH2 0x6B3 JUMPI DUP1 PUSH4 0xFC0C546A EQ PUSH2 0x6C9 JUMPI PUSH1 0x0 DUP1 REVERT JUMPDEST DUP1 PUSH4 0xA4399263 EQ PUSH2 0x5D3 JUMPI DUP1 PUSH4 0xB071CBE6 EQ PUSH2 0x5E8 JUMPI DUP1 PUSH4 0xB5545A3C EQ PUSH2 0x5FE JUMPI DUP1 PUSH4 0xB7A8807C EQ PUSH2 0x613 JUMPI DUP1 PUSH4 0xBAAC251B EQ PUSH2 0x629 JUMPI PUSH1 0x0 DUP1 REVERT JUMPDEST DUP1 PUSH4 0x89A30271 GT PUSH2 0xF2 JUMPI DUP1 PUSH4 0x89A30271 EQ PUSH2 0x539 JUMPI DUP1 PUSH4 0x8D167405 EQ PUSH2 0x561 JUMPI DUP1 PUSH4 0x8DA5CB5B EQ PUSH2 0x576 JUMPI DUP1 PUSH4 0x9A82A09A EQ PUSH2 0x594 JUMPI DUP1 PUSH4 0xA27AEBBC EQ PUSH2 0x5B3 JUMPI PUSH1 0x0 DUP1 REVERT JUMPDEST DUP1 PUSH4 0x5E6911AF EQ PUSH2 0x4DA JUMPI DUP1 PUSH4 0x656768FA EQ PUSH2 0x4F4 JUMPI DUP1 PUSH4 0x6EB21929 EQ PUSH2 0x50A JUMPI DUP1 PUSH4 0x715018A6 EQ PUSH2 0x524 JUMPI PUSH1 0x0 DUP1 REVERT JUMPDEST DUP1 PUSH4 0x3CA85228 GT PUSH2 0x1A6 JUMPI DUP1 PUSH4 0x48C54B9D GT PUSH2 0x175 JUMPI DUP1 PUSH4 0x48C54B9D EQ PUSH2 0x459 JUMPI DUP1 PUSH4 0x49F1026E EQ PUSH2 0x46E JUMPI DUP1 PUSH4 0x4B6753BC EQ PUSH2 0x484 JUMPI DUP1 PUSH4 0x521EB273 EQ PUSH2 0x49A JUMPI DUP1 PUSH4 0x570CA735 EQ PUSH2 0x4BA JUMPI PUSH1 0x0 DUP1 REVERT JUMPDEST DUP1 PUSH4 0x3CA85228 EQ PUSH2 0x3F9 JUMPI DUP1 PUSH4 0x4042B66F EQ PUSH2 0x419 JUMPI DUP1 PUSH4 0x467E53B1 EQ PUSH2 0x42F JUMPI DUP1 PUSH4 0x47535D7B EQ PUSH2 0x444 JUMPI PUSH1 0x0 DUP1 REVERT JUMPDEST DUP1 PUSH4 0x21EFF7FC GT PUSH2 0x1ED JUMPI DUP1 PUSH4 0x21EFF7FC EQ PUSH2 0x33A JUMPI DUP1 PUSH4 0x2C4E722E EQ PUSH2 0x370 JUMPI DUP1 PUSH4 0x3013CE29 EQ PUSH2 0x386 JUMPI DUP1 PUSH4 0x32FE7B26 EQ PUSH2 0x3BE JUMPI DUP1 PUSH4 0x3610724E EQ PUSH2 0x3E6 JUMPI PUSH1 0x0 DUP1 REVERT JUMPDEST DUP1 PUSH4 0x276650B EQ PUSH2 0x2B2 JUMPI DUP1 PUSH4 0x1512FC22 EQ PUSH2 0x2DB JUMPI DUP1 PUSH4 0x1515BC2B EQ PUSH2 0x2FB JUMPI DUP1 PUSH4 0x214BB60F EQ PUSH2 0x320 JUMPI PUSH1 0x0 DUP1 REVERT JUMPDEST CALLDATASIZE PUSH2 0x2AD JUMPI PUSH2 0x22B PUSH2 0x6E9 JUMP JUMPDEST PUSH2 0x2A2 JUMPI PUSH1 0x40 MLOAD PUSH3 0x461BCD PUSH1 0xE5 SHL DUP2 MSTORE PUSH1 0x20 PUSH1 0x4 DUP3 ADD MSTORE PUSH1 0x3B PUSH1 0x24 DUP3 ADD MSTORE PUSH32 0x4D696E6F7269747950726573616C653A2043616E277420627579206279207365 PUSH1 0x44 DUP3 ADD MSTORE PUSH32 0x6E64696E672066756E647320746F207468697320616464726573730000000000 PUSH1 0x64 DUP3 ADD MSTORE PUSH1 0x84 ADD JUMPDEST PUSH1 0x40 MLOAD DUP1 SWAP2 SUB SWAP1 REVERT JUMPDEST PUSH2 0x2AB CALLVALUE PUSH2 0x792 JUMP JUMPDEST STOP JUMPDEST PUSH1 0x0 DUP1 REVERT JUMPDEST CALLVALUE DUP1 ISZERO PUSH2 0x2BE JUMPI PUSH1 0x0 DUP1 REVERT JUMPDEST POP PUSH2 0x2C8 PUSH1 0xD SLOAD DUP2 JUMP JUMPDEST PUSH1 0x40 MLOAD SWAP1 DUP2 MSTORE PUSH1 0x20 ADD JUMPDEST PUSH1 0x40 MLOAD DUP1 SWAP2 SUB SWAP1 RETURN JUMPDEST CALLVALUE DUP1 ISZERO PUSH2 0x2E7 JUMPI PUSH1 0x0 DUP1 REVERT JUMPDEST POP PUSH2 0x2AB PUSH2 0x2F6 CALLDATASIZE PUSH1 0x4 PUSH2 0x293A JUMP JUMPDEST PUSH2 0x913 JUMP JUMPDEST CALLVALUE DUP1 ISZERO PUSH2 0x307 JUMPI PUSH1 0x0 DUP1 REVERT JUMPDEST POP PUSH2 0x310 PUSH2 0xA89 JUMP JUMPDEST PUSH1 0x40 MLOAD SWAP1 ISZERO ISZERO DUP2 MSTORE PUSH1 0x20 ADD PUSH2 0x2D2 JUMP JUMPDEST CALLVALUE DUP1 ISZERO PUSH2 0x32C JUMPI PUSH1 0x0 DUP1 REVERT JUMPDEST POP PUSH1 0x13 SLOAD PUSH2 0x310 SWAP1 PUSH1 0xFF AND DUP2 JUMP JUMPDEST CALLVALUE DUP1 ISZERO PUSH2 0x346 JUMPI PUSH1 0x0 DUP1 REVERT JUMPDEST POP PUSH2 0x2C8 PUSH2 0x355 CALLDATASIZE PUSH1 0x4 PUSH2 0x276E JUMP JUMPDEST PUSH1 0x1 PUSH1 0x1 PUSH1 0xA0 SHL SUB AND PUSH1 0x0 SWAP1 DUP2 MSTORE PUSH1 0xE PUSH1 0x20 MSTORE PUSH1 0x40 SWAP1 KECCAK256 SLOAD SWAP1 JUMP JUMPDEST CALLVALUE DUP1 ISZERO PUSH2 0x37C JUMPI PUSH1 0x0 DUP1 REVERT JUMPDEST POP PUSH2 0x2C8 PUSH1 0x8 SLOAD DUP2 JUMP JUMPDEST CALLVALUE DUP1 ISZERO PUSH2 0x392 JUMPI PUSH1 0x0 DUP1 REVERT JUMPDEST POP PUSH1 0x6 SLOAD PUSH2 0x3A6 SWAP1 PUSH1 0x1 PUSH1 0x1 PUSH1 0xA0 SHL SUB AND DUP2 JUMP JUMPDEST PUSH1 0x40 MLOAD PUSH1 0x1 PUSH1 0x1 PUSH1 0xA0 SHL SUB SWAP1 SWAP2 AND DUP2 MSTORE PUSH1 0x20 ADD PUSH2 0x2D2 JUMP JUMPDEST CALLVALUE DUP1 ISZERO PUSH2 0x3CA JUMPI PUSH1 0x0 DUP1 REVERT JUMPDEST POP PUSH2 0x3A6 PUSH20 0xA5E0829CACED8FFDD4DE3C43696C57F7D7A678FF DUP2 JUMP JUMPDEST PUSH2 0x2AB PUSH2 0x3F4 CALLDATASIZE PUSH1 0x4 PUSH2 0x27C2 JUMP JUMPDEST PUSH2 0x792 JUMP JUMPDEST CALLVALUE DUP1 ISZERO PUSH2 0x405 JUMPI PUSH1 0x0 DUP1 REVERT JUMPDEST POP PUSH2 0x2AB PUSH2 0x414 CALLDATASIZE PUSH1 0x4 PUSH2 0x288D JUMP JUMPDEST PUSH2 0xAA2 JUMP JUMPDEST CALLVALUE DUP1 ISZERO PUSH2 0x425 JUMPI PUSH1 0x0 DUP1 REVERT JUMPDEST POP PUSH2 0x2C8 PUSH1 0x9 SLOAD DUP2 JUMP JUMPDEST CALLVALUE DUP1 ISZERO PUSH2 0x43B JUMPI PUSH1 0x0 DUP1 REVERT JUMPDEST POP PUSH2 0x2AB PUSH2 0x1270 JUMP JUMPDEST CALLVALUE DUP1 ISZERO PUSH2 0x450 JUMPI PUSH1 0x0 DUP1 REVERT JUMPDEST POP PUSH2 0x310 PUSH2 0x134D JUMP JUMPDEST CALLVALUE DUP1 ISZERO PUSH2 0x465 JUMPI PUSH1 0x0 DUP1 REVERT JUMPDEST POP PUSH2 0x2AB PUSH2 0x1366 JUMP JUMPDEST CALLVALUE DUP1 ISZERO PUSH2 0x47A JUMPI PUSH1 0x0 DUP1 REVERT JUMPDEST POP PUSH2 0x2C8 PUSH1 0x12 SLOAD DUP2 JUMP JUMPDEST CALLVALUE DUP1 ISZERO PUSH2 0x490 JUMPI PUSH1 0x0 DUP1 REVERT JUMPDEST POP PUSH2 0x2C8 PUSH1 0x10 SLOAD DUP2 JUMP JUMPDEST CALLVALUE DUP1 ISZERO PUSH2 0x4A6 JUMPI PUSH1 0x0 DUP1 REVERT JUMPDEST POP PUSH1 0x7 SLOAD PUSH2 0x3A6 SWAP1 PUSH1 0x1 PUSH1 0x1 PUSH1 0xA0 SHL SUB AND DUP2 JUMP JUMPDEST CALLVALUE DUP1 ISZERO PUSH2 0x4C6 JUMPI PUSH1 0x0 DUP1 REVERT JUMPDEST POP PUSH1 0x4 SLOAD PUSH2 0x3A6 SWAP1 PUSH1 0x1 PUSH1 0x1 PUSH1 0xA0 SHL SUB AND DUP2 JUMP JUMPDEST CALLVALUE DUP1 ISZERO PUSH2 0x4E6 JUMPI PUSH1 0x0 DUP1 REVERT JUMPDEST POP PUSH1 0xB SLOAD PUSH1 0x9 SLOAD LT ISZERO PUSH2 0x310 JUMP JUMPDEST CALLVALUE DUP1 ISZERO PUSH2 0x500 JUMPI PUSH1 0x0 DUP1 REVERT JUMPDEST POP PUSH2 0x2C8 PUSH1 0x11 SLOAD DUP2 JUMP JUMPDEST CALLVALUE DUP1 ISZERO PUSH2 0x516 JUMPI PUSH1 0x0 DUP1 REVERT JUMPDEST POP PUSH1 0xC SLOAD PUSH1 0x9 SLOAD LT ISZERO PUSH2 0x310 JUMP JUMPDEST CALLVALUE DUP1 ISZERO PUSH2 0x530 JUMPI PUSH1 0x0 DUP1 REVERT JUMPDEST POP PUSH2 0x2AB PUSH2 0x1608 JUMP JUMPDEST CALLVALUE DUP1 ISZERO PUSH2 0x545 JUMPI PUSH1 0x0 DUP1 REVERT JUMPDEST POP PUSH2 0x3A6 PUSH20 0x2791BCA1F2DE4661ED88A30C99A7A9449AA84174 DUP2 JUMP JUMPDEST CALLVALUE DUP1 ISZERO PUSH2 0x56D JUMPI PUSH1 0x0 DUP1 REVERT JUMPDEST POP PUSH2 0x310 PUSH2 0x6E9 JUMP JUMPDEST CALLVALUE DUP1 ISZERO PUSH2 0x582 JUMPI PUSH1 0x0 DUP1 REVERT JUMPDEST POP PUSH1 0x1 SLOAD PUSH1 0x1 PUSH1 0x1 PUSH1 0xA0 SHL SUB AND PUSH2 0x3A6 JUMP JUMPDEST CALLVALUE DUP1 ISZERO PUSH2 0x5A0 JUMPI PUSH1 0x0 DUP1 REVERT JUMPDEST POP PUSH1 0x13 SLOAD PUSH2 0x310 SWAP1 PUSH2 0x100 SWAP1 DIV PUSH1 0xFF AND DUP2 JUMP JUMPDEST CALLVALUE DUP1 ISZERO PUSH2 0x5BF JUMPI PUSH1 0x0 DUP1 REVERT JUMPDEST POP PUSH2 0x2AB PUSH2 0x5CE CALLDATASIZE PUSH1 0x4 PUSH2 0x27C2 JUMP JUMPDEST PUSH2 0x167C JUMP JUMPDEST CALLVALUE DUP1 ISZERO PUSH2 0x5DF JUMPI PUSH1 0x0 DUP1 REVERT JUMPDEST POP PUSH2 0x2AB PUSH2 0x17CA JUMP JUMPDEST CALLVALUE DUP1 ISZERO PUSH2 0x5F4 JUMPI PUSH1 0x0 DUP1 REVERT JUMPDEST POP PUSH2 0x2C8 PUSH1 0xB SLOAD DUP2 JUMP JUMPDEST CALLVALUE DUP1 ISZERO PUSH2 0x60A JUMPI PUSH1 0x0 DUP1 REVERT JUMPDEST POP PUSH2 0x2AB PUSH2 0x18F7 JUMP JUMPDEST CALLVALUE DUP1 ISZERO PUSH2 0x61F JUMPI PUSH1 0x0 DUP1 REVERT JUMPDEST POP PUSH2 0x2C8 PUSH1 0xF SLOAD DUP2 JUMP JUMPDEST CALLVALUE DUP1 ISZERO PUSH2 0x635 JUMPI PUSH1 0x0 DUP1 REVERT JUMPDEST POP PUSH2 0x2AB PUSH2 0x644 CALLDATASIZE PUSH1 0x4 PUSH2 0x27F2 JUMP JUMPDEST PUSH2 0x1B32 JUMP JUMPDEST CALLVALUE DUP1 ISZERO PUSH2 0x655 JUMPI PUSH1 0x0 DUP1 REVERT JUMPDEST POP PUSH2 0x3A6 PUSH32 0x0 DUP2 JUMP JUMPDEST CALLVALUE DUP1 ISZERO PUSH2 0x689 JUMPI PUSH1 0x0 DUP1 REVERT JUMPDEST POP PUSH2 0x2C8 PUSH1 0xA SLOAD DUP2 JUMP JUMPDEST CALLVALUE DUP1 ISZERO PUSH2 0x69F JUMPI PUSH1 0x0 DUP1 REVERT JUMPDEST POP PUSH2 0x2AB PUSH2 0x6AE CALLDATASIZE PUSH1 0x4 PUSH2 0x276E JUMP JUMPDEST PUSH2 0x1B93 JUMP JUMPDEST CALLVALUE DUP1 ISZERO PUSH2 0x6BF JUMPI PUSH1 0x0 DUP1 REVERT JUMPDEST POP PUSH2 0x2C8 PUSH1 0xC SLOAD DUP2 JUMP JUMPDEST CALLVALUE DUP1 ISZERO PUSH2 0x6D5 JUMPI PUSH1 0x0 DUP1 REVERT JUMPDEST POP PUSH1 0x5 SLOAD PUSH2 0x3A6 SWAP1 PUSH1 0x1 PUSH1 0x1 PUSH1 0xA0 SHL SUB AND DUP2 JUMP JUMPDEST PUSH1 0x0 PUSH32 0x0 PUSH1 0x1 PUSH1 0x1 PUSH1 0xA0 SHL SUB AND PUSH4 0xAD5C4648 PUSH1 0x40 MLOAD DUP2 PUSH4 0xFFFFFFFF AND PUSH1 0xE0 SHL DUP2 MSTORE PUSH1 0x4 ADD PUSH1 0x20 PUSH1 0x40 MLOAD DUP1 DUP4 SUB DUP2 DUP7 DUP1 EXTCODESIZE ISZERO DUP1 ISZERO PUSH2 0x744 JUMPI PUSH1 0x0 DUP1 REVERT JUMPDEST POP GAS STATICCALL ISZERO DUP1 ISZERO PUSH2 0x758 JUMPI RETURNDATASIZE PUSH1 0x0 DUP1 RETURNDATACOPY RETURNDATASIZE PUSH1 0x0 REVERT JUMPDEST POP POP POP POP PUSH1 0x40 MLOAD RETURNDATASIZE PUSH1 0x1F NOT PUSH1 0x1F DUP3 ADD AND DUP3 ADD DUP1 PUSH1 0x40 MSTORE POP DUP2 ADD SWAP1 PUSH2 0x77C SWAP2 SWAP1 PUSH2 0x278A JUMP JUMPDEST PUSH1 0x6 SLOAD PUSH1 0x1 PUSH1 0x1 PUSH1 0xA0 SHL SUB SWAP1 DUP2 AND SWAP2 AND EQ SWAP2 SWAP1 POP JUMP JUMPDEST PUSH1 0x2 PUSH1 0x0 SLOAD EQ ISZERO PUSH2 0x7E5 JUMPI PUSH1 0x40 MLOAD PUSH3 0x461BCD PUSH1 0xE5 SHL DUP2 MSTORE PUSH1 0x20 PUSH1 0x4 DUP3 ADD MSTORE PUSH1 0x1F PUSH1 0x24 DUP3 ADD MSTORE PUSH32 0x5265656E7472616E637947756172643A207265656E7472616E742063616C6C00 PUSH1 0x44 DUP3 ADD MSTORE PUSH1 0x64 ADD PUSH2 0x299 JUMP JUMPDEST PUSH1 0x2 PUSH1 0x0 SWAP1 DUP2 SSTORE CALLER SWAP1 PUSH2 0x7F8 DUP3 DUP5 PUSH2 0x1C7E JUMP JUMPDEST SWAP1 POP PUSH1 0x0 DUP2 GT PUSH2 0x85C JUMPI PUSH1 0x40 MLOAD PUSH3 0x461BCD PUSH1 0xE5 SHL DUP2 MSTORE PUSH1 0x20 PUSH1 0x4 DUP3 ADD MSTORE PUSH1 0x29 PUSH1 0x24 DUP3 ADD MSTORE PUSH32 0x4D696E6F7269747950726573616C653A20697373756520636F6C6C656374696E PUSH1 0x44 DUP3 ADD MSTORE PUSH9 0x19C81C185E5B595B9D PUSH1 0xBA SHL PUSH1 0x64 DUP3 ADD MSTORE PUSH1 0x84 ADD PUSH2 0x299 JUMP JUMPDEST PUSH1 0x0 PUSH2 0x867 DUP3 PUSH2 0x1EC6 JUMP JUMPDEST PUSH1 0x9 SLOAD SWAP1 SWAP2 POP PUSH2 0x877 SWAP1 DUP4 PUSH2 0x1EDD JUMP JUMPDEST PUSH1 0x9 SSTORE PUSH1 0x1 PUSH1 0x1 PUSH1 0xA0 SHL SUB DUP4 AND PUSH1 0x0 SWAP1 DUP2 MSTORE PUSH1 0xE PUSH1 0x20 MSTORE PUSH1 0x40 SWAP1 KECCAK256 SLOAD PUSH2 0x89D SWAP1 DUP4 PUSH2 0x1EDD JUMP JUMPDEST PUSH1 0x1 PUSH1 0x1 PUSH1 0xA0 SHL SUB DUP5 AND PUSH1 0x0 DUP2 DUP2 MSTORE PUSH1 0xE PUSH1 0x20 SWAP1 DUP2 MSTORE PUSH1 0x40 SWAP2 DUP3 SWAP1 KECCAK256 SWAP4 SWAP1 SWAP4 SSTORE DUP1 MLOAD DUP6 DUP2 MSTORE SWAP3 DUP4 ADD DUP5 SWAP1 MSTORE SWAP1 SWAP2 PUSH32 0x8FAFEBCAF9D154343DAD25669BFA277F4FBACD7AC6B0C4FED522580E040A0F33 SWAP2 ADD PUSH1 0x40 MLOAD DUP1 SWAP2 SUB SWAP1 LOG2 PUSH1 0xB SLOAD PUSH1 0x9 SLOAD LT PUSH2 0x908 JUMPI PUSH2 0x908 PUSH2 0x17CA JUMP JUMPDEST POP POP PUSH1 0x1 PUSH1 0x0 SSTORE POP POP JUMP JUMPDEST PUSH1 0x4 SLOAD PUSH1 0x1 PUSH1 0x1 PUSH1 0xA0 SHL SUB AND CALLER EQ DUP1 PUSH2 0x936 JUMPI POP PUSH1 0x1 SLOAD PUSH1 0x1 PUSH1 0x1 PUSH1 0xA0 SHL SUB AND CALLER EQ JUMPDEST PUSH2 0x952 JUMPI PUSH1 0x40 MLOAD PUSH3 0x461BCD PUSH1 0xE5 SHL DUP2 MSTORE PUSH1 0x4 ADD PUSH2 0x299 SWAP1 PUSH2 0x2A52 JUMP JUMPDEST PUSH2 0x95A PUSH2 0xA89 JUMP JUMPDEST ISZERO PUSH2 0x9A7 JUMPI PUSH1 0x40 MLOAD PUSH3 0x461BCD PUSH1 0xE5 SHL DUP2 MSTORE PUSH1 0x20 PUSH1 0x4 DUP3 ADD MSTORE PUSH1 0x1F PUSH1 0x24 DUP3 ADD MSTORE PUSH32 0x4D696E6F7269747950726573616C653A20616C726561647920636C6F73656400 PUSH1 0x44 DUP3 ADD MSTORE PUSH1 0x64 ADD PUSH2 0x299 JUMP JUMPDEST PUSH2 0x9AF PUSH2 0x134D JUMP JUMPDEST ISZERO PUSH2 0xA33 JUMPI PUSH1 0x40 MLOAD PUSH3 0x461BCD PUSH1 0xE5 SHL DUP2 MSTORE PUSH1 0x20 PUSH1 0x4 DUP3 ADD MSTORE PUSH1 0x48 PUSH1 0x24 DUP3 ADD MSTORE PUSH32 0x4D696E6F7269747950726573616C653A20616C7265616479206F70656E2C2075 PUSH1 0x44 DUP3 ADD MSTORE PUSH32 0x736520657874656E6454696D6520746F206368616E67652074686520636C6F73 PUSH1 0x64 DUP3 ADD MSTORE PUSH8 0x696E672074696D65 PUSH1 0xC0 SHL PUSH1 0x84 DUP3 ADD MSTORE PUSH1 0xA4 ADD PUSH2 0x299 JUMP JUMPDEST PUSH1 0xF SLOAD PUSH1 0x10 SLOAD PUSH1 0x40 DUP1 MLOAD SWAP3 DUP4 MSTORE PUSH1 0x20 DUP4 ADD DUP6 SWAP1 MSTORE DUP3 ADD MSTORE PUSH1 0x60 DUP2 ADD DUP3 SWAP1 MSTORE PUSH32 0xCEE39188ADAF9A8B11D1C48B0A60F530D2D2923C00D7F9AC4A8294501D77E9BA SWAP1 PUSH1 0x80 ADD PUSH1 0x40 MLOAD DUP1 SWAP2 SUB SWAP1 LOG1 PUSH1 0xF SWAP2 SWAP1 SWAP2 SSTORE PUSH1 0x10 SSTORE JUMP JUMPDEST PUSH1 0x0 PUSH1 0x10 SLOAD TIMESTAMP GT DUP1 ISZERO PUSH2 0xA9D JUMPI POP PUSH1 0x10 SLOAD ISZERO ISZERO JUMPDEST SWAP1 POP SWAP1 JUMP JUMPDEST PUSH1 0x1 SLOAD PUSH1 0x1 PUSH1 0x1 PUSH1 0xA0 SHL SUB AND CALLER EQ PUSH2 0xACC JUMPI PUSH1 0x40 MLOAD PUSH3 0x461BCD PUSH1 0xE5 SHL DUP2 MSTORE PUSH1 0x4 ADD PUSH2 0x299 SWAP1 PUSH2 0x29DB JUMP JUMPDEST PUSH1 0xF SLOAD ISZERO DUP1 PUSH2 0xAEA JUMPI POP PUSH1 0xF SLOAD PUSH2 0xAE6 SWAP1 PUSH3 0x15180 PUSH2 0x1F3C JUMP JUMPDEST TIMESTAMP GT ISZERO JUMPDEST PUSH2 0xB53 JUMPI PUSH1 0x40 MLOAD PUSH3 0x461BCD PUSH1 0xE5 SHL DUP2 MSTORE PUSH1 0x20 PUSH1 0x4 DUP3 ADD MSTORE PUSH1 0x34 PUSH1 0x24 DUP3 ADD MSTORE PUSH32 0x4D696E6F7269747950726573616C653A2043616E2774206D6F64696679203C20 PUSH1 0x44 DUP3 ADD MSTORE PUSH20 0x3120646179206265666F7265206F70656E696E67 PUSH1 0x60 SHL PUSH1 0x64 DUP3 ADD MSTORE PUSH1 0x84 ADD PUSH2 0x299 JUMP JUMPDEST PUSH1 0x13 SLOAD PUSH2 0x100 SWAP1 DIV PUSH1 0xFF AND ISZERO PUSH2 0xBD1 JUMPI PUSH1 0x40 MLOAD PUSH3 0x461BCD PUSH1 0xE5 SHL DUP2 MSTORE PUSH1 0x20 PUSH1 0x4 DUP3 ADD MSTORE PUSH1 0x3A PUSH1 0x24 DUP3 ADD MSTORE PUSH32 0x4D696E6F7269747950726573616C653A2043616E27742072652D757365206120 PUSH1 0x44 DUP3 ADD MSTORE PUSH32 0x63616E63656C6C65642070726573616C6520636F6E7472616374000000000000 PUSH1 0x64 DUP3 ADD MSTORE PUSH1 0x84 ADD PUSH2 0x299 JUMP JUMPDEST PUSH1 0x0 DUP13 GT PUSH2 0xC21 JUMPI PUSH1 0x40 MLOAD PUSH3 0x461BCD PUSH1 0xE5 SHL DUP2 MSTORE PUSH1 0x20 PUSH1 0x4 DUP3 ADD DUP2 SWAP1 MSTORE PUSH1 0x24 DUP3 ADD MSTORE PUSH32 0x4D696E6F7269747950726573616C653A20726174652063616E27742062652030 PUSH1 0x44 DUP3 ADD MSTORE PUSH1 0x64 ADD PUSH2 0x299 JUMP JUMPDEST PUSH1 0x1 PUSH1 0x1 PUSH1 0xA0 SHL SUB DUP12 AND PUSH2 0xC91 JUMPI PUSH1 0x40 MLOAD PUSH3 0x461BCD PUSH1 0xE5 SHL DUP2 MSTORE PUSH1 0x20 PUSH1 0x4 DUP3 ADD MSTORE PUSH1 0x31 PUSH1 0x24 DUP3 ADD MSTORE PUSH32 0x4D696E6F7269747950726573616C653A2077616C6C65742063616E2774206265 PUSH1 0x44 DUP3 ADD MSTORE PUSH17 0x20746865207A65726F2061646472657373 PUSH1 0x78 SHL PUSH1 0x64 DUP3 ADD MSTORE PUSH1 0x84 ADD PUSH2 0x299 JUMP JUMPDEST PUSH1 0x1 PUSH1 0x1 PUSH1 0xA0 SHL SUB DUP11 AND PUSH2 0xD00 JUMPI PUSH1 0x40 MLOAD PUSH3 0x461BCD PUSH1 0xE5 SHL DUP2 MSTORE PUSH1 0x20 PUSH1 0x4 DUP3 ADD MSTORE PUSH1 0x30 PUSH1 0x24 DUP3 ADD MSTORE PUSH32 0x4D696E6F7269747950726573616C653A20746F6B656E2063616E277420626520 PUSH1 0x44 DUP3 ADD MSTORE PUSH16 0x746865207A65726F2061646472657373 PUSH1 0x80 SHL PUSH1 0x64 DUP3 ADD MSTORE PUSH1 0x84 ADD PUSH2 0x299 JUMP JUMPDEST PUSH1 0x1 PUSH1 0x1 PUSH1 0xA0 SHL SUB DUP7 AND PUSH2 0xD7C JUMPI PUSH1 0x40 MLOAD PUSH3 0x461BCD PUSH1 0xE5 SHL DUP2 MSTORE PUSH1 0x20 PUSH1 0x4 DUP3 ADD MSTORE PUSH1 0x38 PUSH1 0x24 DUP3 ADD MSTORE PUSH32 0x4D696E6F7269747950726573616C653A207061796D656E7420746F6B656E2063 PUSH1 0x44 DUP3 ADD MSTORE PUSH32 0x616E277420626520746865207A65726F20616464726573730000000000000000 PUSH1 0x64 DUP3 ADD MSTORE PUSH1 0x84 ADD PUSH2 0x299 JUMP JUMPDEST PUSH1 0x0 DUP10 GT PUSH2 0xDD8 JUMPI PUSH1 0x40 MLOAD PUSH3 0x461BCD PUSH1 0xE5 SHL DUP2 MSTORE PUSH1 0x20 PUSH1 0x4 DUP3 ADD MSTORE PUSH1 0x23 PUSH1 0x24 DUP3 ADD MSTORE PUSH32 0x4D696E6F7269747950726573616C653A20686172646361702063616E27742062 PUSH1 0x44 DUP3 ADD MSTORE PUSH3 0x65203 PUSH1 0xEC SHL PUSH1 0x64 DUP3 ADD MSTORE PUSH1 0x84 ADD PUSH2 0x299 JUMP JUMPDEST PUSH1 0x0 DUP9 GT PUSH2 0xE34 JUMPI PUSH1 0x40 MLOAD PUSH3 0x461BCD PUSH1 0xE5 SHL DUP2 MSTORE PUSH1 0x20 PUSH1 0x4 DUP3 ADD MSTORE PUSH1 0x23 PUSH1 0x24 DUP3 ADD MSTORE PUSH32 0x4D696E6F7269747950726573616C653A20736F66746361702063616E27742062 PUSH1 0x44 DUP3 ADD MSTORE PUSH3 0x65203 PUSH1 0xEC SHL PUSH1 0x64 DUP3 ADD MSTORE PUSH1 0x84 ADD PUSH2 0x299 JUMP JUMPDEST DUP9 DUP9 LT PUSH2 0xE96 JUMPI PUSH1 0x40 MLOAD PUSH3 0x461BCD PUSH1 0xE5 SHL DUP2 MSTORE PUSH1 0x20 PUSH1 0x4 DUP3 ADD MSTORE PUSH1 0x2A PUSH1 0x24 DUP3 ADD MSTORE PUSH32 0x4D696E6F7269747950726573616C653A20736F6674636170206D757374206265 PUSH1 0x44 DUP3 ADD MSTORE PUSH10 0x203C206861726463617 PUSH1 0xB4 SHL PUSH1 0x64 DUP3 ADD MSTORE PUSH1 0x84 ADD PUSH2 0x299 JUMP JUMPDEST PUSH1 0x0 DUP8 GT PUSH2 0xEF9 JUMPI PUSH1 0x40 MLOAD PUSH3 0x461BCD PUSH1 0xE5 SHL DUP2 MSTORE PUSH1 0x20 PUSH1 0x4 DUP3 ADD MSTORE PUSH1 0x2A PUSH1 0x24 DUP3 ADD MSTORE PUSH32 0x4D696E6F7269747950726573616C653A20696E646976696475616C2063617020 PUSH1 0x44 DUP3 ADD MSTORE PUSH10 0x63616E2774206265203 PUSH1 0xB4 SHL PUSH1 0x64 DUP3 ADD MSTORE PUSH1 0x84 ADD PUSH2 0x299 JUMP JUMPDEST TIMESTAMP DUP6 LT ISZERO PUSH2 0xF64 JUMPI PUSH1 0x40 MLOAD PUSH3 0x461BCD PUSH1 0xE5 SHL DUP2 MSTORE PUSH1 0x20 PUSH1 0x4 DUP3 ADD MSTORE PUSH1 0x32 PUSH1 0x24 DUP3 ADD MSTORE PUSH32 0x4D696E6F7269747950726573616C653A206F70656E696E672074696D65206361 PUSH1 0x44 DUP3 ADD MSTORE PUSH18 0x1B89DD081899481A5B881D1A19481C185CDD PUSH1 0x72 SHL PUSH1 0x64 DUP3 ADD MSTORE PUSH1 0x84 ADD PUSH2 0x299 JUMP JUMPDEST DUP5 DUP5 GT PUSH2 0xFD9 JUMPI PUSH1 0x40 MLOAD PUSH3 0x461BCD PUSH1 0xE5 SHL DUP2 MSTORE PUSH1 0x20 PUSH1 0x4 DUP3 ADD MSTORE PUSH1 0x3A PUSH1 0x24 DUP3 ADD MSTORE PUSH32 0x4D696E6F7269747950726573616C653A20636C6F73696E672074696D65206361 PUSH1 0x44 DUP3 ADD MSTORE PUSH32 0x6E2774206265206265666F7265206F70656E696E672074696D65000000000000 PUSH1 0x64 DUP3 ADD MSTORE PUSH1 0x84 ADD PUSH2 0x299 JUMP JUMPDEST PUSH1 0x0 DUP4 GT PUSH2 0x103C JUMPI PUSH1 0x40 MLOAD PUSH3 0x461BCD PUSH1 0xE5 SHL DUP2 MSTORE PUSH1 0x20 PUSH1 0x4 DUP3 ADD MSTORE PUSH1 0x2A PUSH1 0x24 DUP3 ADD MSTORE PUSH32 0x4D696E6F7269747950726573616C653A206D75737420616464203E203020746F PUSH1 0x44 DUP3 ADD MSTORE PUSH10 0x6B656E7320746F204C5 PUSH1 0xB4 SHL PUSH1 0x64 DUP3 ADD MSTORE PUSH1 0x84 ADD PUSH2 0x299 JUMP JUMPDEST PUSH1 0x46 DUP3 LT ISZERO DUP1 ISZERO PUSH2 0x104E JUMPI POP PUSH1 0x64 DUP3 GT ISZERO JUMPDEST PUSH2 0x10CB JUMPI PUSH1 0x40 MLOAD PUSH3 0x461BCD PUSH1 0xE5 SHL DUP2 MSTORE PUSH1 0x20 PUSH1 0x4 DUP3 ADD MSTORE PUSH1 0x42 PUSH1 0x24 DUP3 ADD MSTORE PUSH32 0x4D696E6F7269747950726573616C653A206D75737420616464203E3D20373025 PUSH1 0x44 DUP3 ADD MSTORE PUSH32 0x20616E64203C3D2031303025206F66207261697365642066756E647320746F20 PUSH1 0x64 DUP3 ADD MSTORE PUSH2 0x4C5 PUSH1 0xF4 SHL PUSH1 0x84 DUP3 ADD MSTORE PUSH1 0xA4 ADD PUSH2 0x299 JUMP JUMPDEST DUP1 ISZERO PUSH2 0x1208 JUMPI PUSH2 0x10E5 DUP4 PUSH2 0x10DF DUP12 DUP16 PUSH2 0x1F7E JUMP JUMPDEST SWAP1 PUSH2 0x1EDD JUMP JUMPDEST PUSH1 0x40 MLOAD PUSH4 0x70A08231 PUSH1 0xE0 SHL DUP2 MSTORE ADDRESS PUSH1 0x4 DUP3 ADD MSTORE PUSH1 0x1 PUSH1 0x1 PUSH1 0xA0 SHL SUB DUP13 AND SWAP1 PUSH4 0x70A08231 SWAP1 PUSH1 0x24 ADD PUSH1 0x20 PUSH1 0x40 MLOAD DUP1 DUP4 SUB DUP2 DUP7 DUP1 EXTCODESIZE ISZERO DUP1 ISZERO PUSH2 0x1124 JUMPI PUSH1 0x0 DUP1 REVERT JUMPDEST POP GAS STATICCALL ISZERO DUP1 ISZERO PUSH2 0x1138 JUMPI RETURNDATASIZE PUSH1 0x0 DUP1 RETURNDATACOPY RETURNDATASIZE PUSH1 0x0 REVERT JUMPDEST POP POP POP POP PUSH1 0x40 MLOAD RETURNDATASIZE PUSH1 0x1F NOT PUSH1 0x1F DUP3 ADD AND DUP3 ADD DUP1 PUSH1 0x40 MSTORE POP DUP2 ADD SWAP1 PUSH2 0x115C SWAP2 SWAP1 PUSH2 0x27DA JUMP JUMPDEST LT ISZERO PUSH2 0x1208 JUMPI PUSH1 0x40 MLOAD PUSH3 0x461BCD PUSH1 0xE5 SHL DUP2 MSTORE PUSH1 0x20 PUSH1 0x4 DUP3 ADD MSTORE PUSH1 0x69 PUSH1 0x24 DUP3 ADD MSTORE PUSH32 0x4D696E6F7269747950726573616C653A204E6F7420656E6F75676820746F6B65 PUSH1 0x44 DUP3 ADD MSTORE PUSH32 0x6E73206F776E656420746F20636F6D706C6574652070726573616C652E204465 PUSH1 0x64 DUP3 ADD MSTORE PUSH32 0x706F73697420746F6B656E73206265666F72652063616C6C696E672074686973 PUSH1 0x84 DUP3 ADD MSTORE PUSH9 0x10333AB731BA34B7B7 PUSH1 0xB9 SHL PUSH1 0xA4 DUP3 ADD MSTORE PUSH1 0xC4 ADD PUSH2 0x299 JUMP JUMPDEST POP PUSH1 0x8 SWAP11 SWAP1 SWAP11 SSTORE PUSH1 0x7 DUP1 SLOAD PUSH1 0x1 PUSH1 0x1 PUSH1 0xA0 SHL SUB NOT SWAP1 DUP2 AND PUSH1 0x1 PUSH1 0x1 PUSH1 0xA0 SHL SUB SWAP12 DUP13 AND OR SWAP1 SWAP2 SSTORE PUSH1 0x5 DUP1 SLOAD DUP3 AND SWAP10 DUP12 AND SWAP10 SWAP1 SWAP10 OR SWAP1 SWAP9 SSTORE PUSH1 0x6 DUP1 SLOAD SWAP1 SWAP9 AND SWAP4 SWAP1 SWAP9 AND SWAP3 SWAP1 SWAP3 OR SWAP1 SWAP6 SSTORE PUSH1 0xB SWAP4 SWAP1 SWAP4 SSTORE PUSH1 0xC SWAP2 SWAP1 SWAP2 SSTORE PUSH1 0xD SSTORE PUSH1 0xF SWAP2 SWAP1 SWAP2 SSTORE PUSH1 0x10 SSTORE PUSH1 0x11 SSTORE PUSH1 0x12 SSTORE JUMP JUMPDEST PUSH1 0x4 SLOAD PUSH1 0x1 PUSH1 0x1 PUSH1 0xA0 SHL SUB AND CALLER EQ DUP1 PUSH2 0x1293 JUMPI POP PUSH1 0x1 SLOAD PUSH1 0x1 PUSH1 0x1 PUSH1 0xA0 SHL SUB AND CALLER EQ JUMPDEST PUSH2 0x12AF JUMPI PUSH1 0x40 MLOAD PUSH3 0x461BCD PUSH1 0xE5 SHL DUP2 MSTORE PUSH1 0x4 ADD PUSH2 0x299 SWAP1 PUSH2 0x2A52 JUMP JUMPDEST PUSH1 0x13 SLOAD PUSH1 0xFF AND ISZERO PUSH2 0x12D2 JUMPI PUSH1 0x40 MLOAD PUSH3 0x461BCD PUSH1 0xE5 SHL DUP2 MSTORE PUSH1 0x4 ADD PUSH2 0x299 SWAP1 PUSH2 0x2A10 JUMP JUMPDEST PUSH2 0x12DA PUSH2 0x134D JUMP JUMPDEST DUP1 PUSH2 0x12E8 JUMPI POP PUSH2 0x12E8 PUSH2 0xA89 JUMP JUMPDEST DUP1 ISZERO PUSH2 0x12F6 JUMPI POP PUSH1 0x0 PUSH1 0x9 SLOAD GT JUMPDEST ISZERO PUSH2 0x130B JUMPI PUSH1 0x13 DUP1 SLOAD PUSH2 0xFF00 NOT AND PUSH2 0x100 OR SWAP1 SSTORE JUMPDEST PUSH1 0x0 PUSH1 0x8 DUP2 SWAP1 SSTORE PUSH1 0x7 DUP1 SLOAD PUSH1 0x1 PUSH1 0x1 PUSH1 0xA0 SHL SUB NOT AND SWAP1 SSTORE PUSH1 0xB DUP2 SWAP1 SSTORE PUSH1 0xC DUP2 SWAP1 SSTORE PUSH1 0xD DUP2 SWAP1 SSTORE PUSH1 0xF DUP2 SWAP1 SSTORE PUSH1 0x10 DUP2 SWAP1 SSTORE PUSH1 0x11 DUP2 SWAP1 SSTORE PUSH1 0x12 SSTORE PUSH2 0x134B PUSH2 0x1FFD JUMP JUMPDEST JUMP JUMPDEST PUSH1 0x0 PUSH1 0xF SLOAD TIMESTAMP LT ISZERO DUP1 ISZERO PUSH2 0xA9D JUMPI POP POP PUSH1 0x10 SLOAD TIMESTAMP GT ISZERO SWAP1 JUMP JUMPDEST PUSH1 0x13 SLOAD PUSH1 0xFF AND PUSH2 0x13EC JUMPI PUSH1 0x40 MLOAD PUSH3 0x461BCD PUSH1 0xE5 SHL DUP2 MSTORE PUSH1 0x20 PUSH1 0x4 DUP3 ADD MSTORE PUSH1 0x44 PUSH1 0x24 DUP3 ADD DUP2 SWAP1 MSTORE PUSH32 0x4D696E6F7269747950726573616C653A206E6F742066696E616C697365642C20 SWAP1 DUP3 ADD MSTORE PUSH32 0x63616C6C2066696E616C697365206265666F726520636C61696D696E6720746F PUSH1 0x64 DUP3 ADD MSTORE PUSH4 0x6B656E73 PUSH1 0xE0 SHL PUSH1 0x84 DUP3 ADD MSTORE PUSH1 0xA4 ADD PUSH2 0x299 JUMP JUMPDEST PUSH1 0xC SLOAD PUSH1 0x9 SLOAD LT ISZERO PUSH2 0x1468 JUMPI PUSH1 0x40 DUP1 MLOAD PUSH3 0x461BCD PUSH1 0xE5 SHL DUP2 MSTORE PUSH1 0x20 PUSH1 0x4 DUP3 ADD MSTORE PUSH1 0x24 DUP2 ADD SWAP2 SWAP1 SWAP2 MSTORE PUSH32 0x4D696E6F7269747950726573616C653A20536F6674636170206E6F74206D6574 PUSH1 0x44 DUP3 ADD MSTORE PUSH32 0x2C20636C61696D206120726566756E64206F6620796F7572207061796D656E74 PUSH1 0x64 DUP3 ADD MSTORE PUSH1 0x84 ADD PUSH2 0x299 JUMP JUMPDEST CALLER PUSH1 0x0 DUP2 DUP2 MSTORE PUSH1 0xE PUSH1 0x20 MSTORE PUSH1 0x40 DUP2 KECCAK256 SLOAD PUSH2 0x1481 SWAP1 PUSH2 0x1EC6 JUMP JUMPDEST SWAP1 POP PUSH1 0x0 DUP2 GT PUSH2 0x14F1 JUMPI PUSH1 0x40 MLOAD PUSH3 0x461BCD PUSH1 0xE5 SHL DUP2 MSTORE PUSH1 0x20 PUSH1 0x4 DUP3 ADD MSTORE PUSH1 0x35 PUSH1 0x24 DUP3 ADD MSTORE PUSH32 0x4D696E6F7269747950726573616C653A206E6F20746F6B656E7320636C61696D PUSH1 0x44 DUP3 ADD MSTORE PUSH21 0x61626C6520666F7220746869732061646472657373 PUSH1 0x58 SHL PUSH1 0x64 DUP3 ADD MSTORE PUSH1 0x84 ADD PUSH2 0x299 JUMP JUMPDEST PUSH1 0x1 PUSH1 0x1 PUSH1 0xA0 SHL SUB DUP3 AND PUSH1 0x0 SWAP1 DUP2 MSTORE PUSH1 0xE PUSH1 0x20 MSTORE PUSH1 0x40 DUP2 KECCAK256 SSTORE PUSH1 0xA SLOAD PUSH2 0x1517 SWAP1 DUP3 PUSH2 0x1F3C JUMP JUMPDEST PUSH1 0xA SSTORE PUSH1 0x5 SLOAD PUSH1 0x40 MLOAD PUSH4 0xA9059CBB PUSH1 0xE0 SHL DUP2 MSTORE PUSH1 0x1 PUSH1 0x1 PUSH1 0xA0 SHL SUB DUP5 DUP2 AND PUSH1 0x4 DUP4 ADD MSTORE PUSH1 0x24 DUP3 ADD DUP5 SWAP1 MSTORE SWAP1 SWAP2 AND SWAP1 PUSH4 0xA9059CBB SWAP1 PUSH1 0x44 ADD PUSH1 0x20 PUSH1 0x40 MLOAD DUP1 DUP4 SUB DUP2 PUSH1 0x0 DUP8 DUP1 EXTCODESIZE ISZERO DUP1 ISZERO PUSH2 0x1568 JUMPI PUSH1 0x0 DUP1 REVERT JUMPDEST POP GAS CALL ISZERO DUP1 ISZERO PUSH2 0x157C JUMPI RETURNDATASIZE PUSH1 0x0 DUP1 RETURNDATACOPY RETURNDATASIZE PUSH1 0x0 REVERT JUMPDEST POP POP POP POP PUSH1 0x40 MLOAD RETURNDATASIZE PUSH1 0x1F NOT PUSH1 0x1F DUP3 ADD AND DUP3 ADD DUP1 PUSH1 0x40 MSTORE POP DUP2 ADD SWAP1 PUSH2 0x15A0 SWAP2 SWAP1 PUSH2 0x27A6 JUMP JUMPDEST PUSH2 0x1604 JUMPI PUSH1 0x40 MLOAD PUSH3 0x461BCD PUSH1 0xE5 SHL DUP2 MSTORE PUSH1 0x20 PUSH1 0x4 DUP3 ADD MSTORE PUSH1 0x2F PUSH1 0x24 DUP3 ADD MSTORE PUSH32 0x4D696E6F7269747950726573616C653A2069737375652077697468207472616E PUSH1 0x44 DUP3 ADD MSTORE PUSH15 0x7366657272696E6720746F6B656E73 PUSH1 0x88 SHL PUSH1 0x64 DUP3 ADD MSTORE PUSH1 0x84 ADD PUSH2 0x299 JUMP JUMPDEST POP POP JUMP JUMPDEST PUSH1 0x1 SLOAD PUSH1 0x1 PUSH1 0x1 PUSH1 0xA0 SHL SUB AND CALLER EQ PUSH2 0x1632 JUMPI PUSH1 0x40 MLOAD PUSH3 0x461BCD PUSH1 0xE5 SHL DUP2 MSTORE PUSH1 0x4 ADD PUSH2 0x299 SWAP1 PUSH2 0x29DB JUMP JUMPDEST PUSH1 0x1 SLOAD PUSH1 0x40 MLOAD PUSH1 0x0 SWAP2 PUSH1 0x1 PUSH1 0x1 PUSH1 0xA0 SHL SUB AND SWAP1 PUSH32 0x8BE0079C531659141344CD1FD0A4F28419497F9722A3DAAFE3B4186F6B6457E0 SWAP1 DUP4 SWAP1 LOG3 PUSH1 0x1 DUP1 SLOAD PUSH1 0x1 PUSH1 0x1 PUSH1 0xA0 SHL SUB NOT AND SWAP1 SSTORE JUMP JUMPDEST PUSH1 0x4 SLOAD PUSH1 0x1 PUSH1 0x1 PUSH1 0xA0 SHL SUB AND CALLER EQ DUP1 PUSH2 0x169F JUMPI POP PUSH1 0x1 SLOAD PUSH1 0x1 PUSH1 0x1 PUSH1 0xA0 SHL SUB AND CALLER EQ JUMPDEST PUSH2 0x16BB JUMPI PUSH1 0x40 MLOAD PUSH3 0x461BCD PUSH1 0xE5 SHL DUP2 MSTORE PUSH1 0x4 ADD PUSH2 0x299 SWAP1 PUSH2 0x2A52 JUMP JUMPDEST PUSH2 0x16C3 PUSH2 0xA89 JUMP JUMPDEST ISZERO PUSH2 0x1710 JUMPI PUSH1 0x40 MLOAD PUSH3 0x461BCD PUSH1 0xE5 SHL DUP2 MSTORE PUSH1 0x20 PUSH1 0x4 DUP3 ADD MSTORE PUSH1 0x1F PUSH1 0x24 DUP3 ADD MSTORE PUSH32 0x4D696E6F7269747950726573616C653A20616C726561647920636C6F73656400 PUSH1 0x44 DUP3 ADD MSTORE PUSH1 0x64 ADD PUSH2 0x299 JUMP JUMPDEST PUSH1 0x10 SLOAD DUP2 GT PUSH2 0x1789 JUMPI PUSH1 0x40 DUP1 MLOAD PUSH3 0x461BCD PUSH1 0xE5 SHL DUP2 MSTORE PUSH1 0x20 PUSH1 0x4 DUP3 ADD MSTORE PUSH1 0x24 DUP2 ADD SWAP2 SWAP1 SWAP2 MSTORE PUSH32 0x4D696E6F7269747950726573616C653A206E657720636C6F73696E672074696D PUSH1 0x44 DUP3 ADD MSTORE PUSH32 0x65206973206265666F72652063757272656E7420636C6F73696E672074696D65 PUSH1 0x64 DUP3 ADD MSTORE PUSH1 0x84 ADD PUSH2 0x299 JUMP JUMPDEST PUSH1 0x10 SLOAD PUSH1 0x40 DUP1 MLOAD SWAP2 DUP3 MSTORE PUSH1 0x20 DUP3 ADD DUP4 SWAP1 MSTORE PUSH32 0x36590996DEA047DC12D17EC2643248F8B86EB37E78941B43D9E9049180EFB7B0 SWAP2 ADD PUSH1 0x40 MLOAD DUP1 SWAP2 SUB SWAP1 LOG1 PUSH1 0x10 SSTORE JUMP JUMPDEST PUSH1 0x13 SLOAD PUSH1 0xFF AND ISZERO PUSH2 0x17ED JUMPI PUSH1 0x40 MLOAD PUSH3 0x461BCD PUSH1 0xE5 SHL DUP2 MSTORE PUSH1 0x4 ADD PUSH2 0x299 SWAP1 PUSH2 0x2A10 JUMP JUMPDEST PUSH2 0x17F5 PUSH2 0xA89 JUMP JUMPDEST DUP1 PUSH2 0x1804 JUMPI POP PUSH1 0xB SLOAD PUSH1 0x9 SLOAD LT ISZERO JUMPDEST PUSH2 0x1850 JUMPI PUSH1 0x40 MLOAD PUSH3 0x461BCD PUSH1 0xE5 SHL DUP2 MSTORE PUSH1 0x20 PUSH1 0x4 DUP3 ADD MSTORE PUSH1 0x1B PUSH1 0x24 DUP3 ADD MSTORE PUSH32 0x4D696E6F7269747950726573616C653A206E6F7420636C6F7365640000000000 PUSH1 0x44 DUP3 ADD MSTORE PUSH1 0x64 ADD PUSH2 0x299 JUMP JUMPDEST PUSH1 0x8 SLOAD PUSH1 0x9 SLOAD PUSH2 0x185F SWAP2 PUSH2 0x1F7E JUMP JUMPDEST PUSH1 0xA SSTORE PUSH1 0x13 DUP1 SLOAD PUSH1 0xFF NOT AND PUSH1 0x1 OR SWAP1 SSTORE PUSH1 0x40 MLOAD PUSH32 0x5A1E9B2EA50EF9AABE4B3C94EB63B2D60DEBEF2647506304FBF79AD4509D1AFF SWAP1 PUSH1 0x0 SWAP1 LOG1 PUSH1 0xB SLOAD PUSH1 0x9 SLOAD LT ISZERO DUP1 PUSH2 0x18AF JUMPI POP PUSH1 0xC SLOAD PUSH1 0x9 SLOAD LT ISZERO JUMPDEST ISZERO PUSH2 0x18E3 JUMPI PUSH2 0x18BC PUSH2 0x20B6 JUMP JUMPDEST PUSH1 0x64 PUSH1 0x12 SLOAD LT ISZERO PUSH2 0x18CF JUMPI PUSH2 0x18CF PUSH2 0x2370 JUMP JUMPDEST PUSH1 0xB SLOAD PUSH1 0x9 SLOAD LT ISZERO PUSH2 0x134B JUMPI PUSH2 0x134B PUSH2 0x241E JUMP JUMPDEST PUSH1 0xC SLOAD PUSH1 0x9 SLOAD LT ISZERO PUSH2 0x134B JUMPI PUSH2 0x134B PUSH2 0x1FFD JUMP JUMPDEST PUSH1 0x13 SLOAD PUSH1 0xFF AND DUP1 PUSH2 0x190F JUMPI POP PUSH1 0x13 SLOAD PUSH2 0x100 SWAP1 DIV PUSH1 0xFF AND JUMPDEST PUSH2 0x19A7 JUMPI PUSH1 0x40 MLOAD PUSH3 0x461BCD PUSH1 0xE5 SHL DUP2 MSTORE PUSH1 0x20 PUSH1 0x4 DUP3 ADD MSTORE PUSH1 0x58 PUSH1 0x24 DUP3 ADD MSTORE PUSH32 0x4D696E6F7269747950726573616C653A206E6F742066696E616C69736564206F PUSH1 0x44 DUP3 ADD MSTORE PUSH32 0x722063616E63656C6C65642C207472792063616C6C696E672066696E616C6973 PUSH1 0x64 DUP3 ADD MSTORE PUSH32 0x65206265666F726520636C61696D696E6720726566756E640000000000000000 PUSH1 0x84 DUP3 ADD MSTORE PUSH1 0xA4 ADD PUSH2 0x299 JUMP JUMPDEST PUSH1 0xC SLOAD PUSH1 0x9 SLOAD LT PUSH2 0x1A46 JUMPI PUSH1 0x40 MLOAD PUSH3 0x461BCD PUSH1 0xE5 SHL DUP2 MSTORE PUSH1 0x20 PUSH1 0x4 DUP3 ADD MSTORE PUSH1 0x5A PUSH1 0x24 DUP3 ADD MSTORE PUSH32 0x4D696E6F7269747950726573616C653A20736F66746361702072656163686564 PUSH1 0x44 DUP3 ADD MSTORE PUSH32 0x2C20726566756E64732063616E277420626520636C61696D656420756E6C6573 PUSH1 0x64 DUP3 ADD MSTORE PUSH32 0x73207468652070726573616C652069732063616E63656C6C6564000000000000 PUSH1 0x84 DUP3 ADD MSTORE PUSH1 0xA4 ADD PUSH2 0x299 JUMP JUMPDEST CALLER PUSH2 0x1A4F PUSH2 0x6E9 JUMP JUMPDEST ISZERO PUSH2 0x1A98 JUMPI PUSH1 0x1 PUSH1 0x1 PUSH1 0xA0 SHL SUB DUP2 AND PUSH1 0x0 SWAP1 DUP2 MSTORE PUSH1 0xE PUSH1 0x20 MSTORE PUSH1 0x40 DUP1 DUP3 KECCAK256 SLOAD SWAP1 MLOAD CALLER SWAP3 PUSH2 0x8FC DUP4 ISZERO MUL SWAP3 SWAP2 SWAP1 DUP2 DUP2 DUP2 DUP6 DUP9 DUP9 CALL SWAP4 POP POP POP POP ISZERO DUP1 ISZERO PUSH2 0x1604 JUMPI RETURNDATASIZE PUSH1 0x0 DUP1 RETURNDATACOPY RETURNDATASIZE PUSH1 0x0 REVERT JUMPDEST PUSH1 0x6 SLOAD PUSH1 0x1 PUSH1 0x1 PUSH1 0xA0 SHL SUB DUP3 DUP2 AND PUSH1 0x0 DUP2 DUP2 MSTORE PUSH1 0xE PUSH1 0x20 MSTORE PUSH1 0x40 SWAP1 DUP2 SWAP1 KECCAK256 SLOAD SWAP1 MLOAD PUSH4 0xA9059CBB PUSH1 0xE0 SHL DUP2 MSTORE PUSH1 0x4 DUP2 ADD SWAP3 SWAP1 SWAP3 MSTORE PUSH1 0x24 DUP3 ADD MSTORE SWAP2 AND SWAP1 PUSH4 0xA9059CBB SWAP1 PUSH1 0x44 ADD JUMPDEST PUSH1 0x20 PUSH1 0x40 MLOAD DUP1 DUP4 SUB DUP2 PUSH1 0x0 DUP8 DUP1 EXTCODESIZE ISZERO DUP1 ISZERO PUSH2 0x1AF7 JUMPI PUSH1 0x0 DUP1 REVERT JUMPDEST POP GAS CALL ISZERO DUP1 ISZERO PUSH2 0x1B0B JUMPI RETURNDATASIZE PUSH1 0x0 DUP1 RETURNDATACOPY RETURNDATASIZE PUSH1 0x0 REVERT JUMPDEST POP POP POP POP PUSH1 0x40 MLOAD RETURNDATASIZE PUSH1 0x1F NOT PUSH1 0x1F DUP3 ADD AND DUP3 ADD DUP1 PUSH1 0x40 MSTORE POP DUP2 ADD SWAP1 PUSH2 0x1604 SWAP2 SWAP1 PUSH2 0x27A6 JUMP JUMPDEST POP JUMP JUMPDEST PUSH1 0x4 SLOAD PUSH1 0x1 PUSH1 0x1 PUSH1 0xA0 SHL SUB AND CALLER EQ DUP1 PUSH2 0x1B55 JUMPI POP PUSH1 0x1 SLOAD PUSH1 0x1 PUSH1 0x1 PUSH1 0xA0 SHL SUB AND CALLER EQ JUMPDEST PUSH2 0x1B71 JUMPI PUSH1 0x40 MLOAD PUSH3 0x461BCD PUSH1 0xE5 SHL DUP2 MSTORE PUSH1 0x4 ADD PUSH2 0x299 SWAP1 PUSH2 0x2A52 JUMP JUMPDEST PUSH2 0x1B86 DUP12 DUP12 DUP12 DUP12 DUP12 DUP12 DUP12 DUP12 DUP12 DUP12 DUP12 PUSH1 0x1 PUSH2 0xAA2 JUMP JUMPDEST POP POP POP POP POP POP POP POP POP POP POP JUMP JUMPDEST PUSH1 0x1 SLOAD PUSH1 0x1 PUSH1 0x1 PUSH1 0xA0 SHL SUB AND CALLER EQ PUSH2 0x1BBD JUMPI PUSH1 0x40 MLOAD PUSH3 0x461BCD PUSH1 0xE5 SHL DUP2 MSTORE PUSH1 0x4 ADD PUSH2 0x299 SWAP1 PUSH2 0x29DB JUMP JUMPDEST PUSH1 0x1 PUSH1 0x1 PUSH1 0xA0 SHL SUB DUP2 AND PUSH2 0x1C22 JUMPI PUSH1 0x40 MLOAD PUSH3 0x461BCD PUSH1 0xE5 SHL DUP2 MSTORE PUSH1 0x20 PUSH1 0x4 DUP3 ADD MSTORE PUSH1 0x26 PUSH1 0x24 DUP3 ADD MSTORE PUSH32 0x4F776E61626C653A206E6577206F776E657220697320746865207A65726F2061 PUSH1 0x44 DUP3 ADD MSTORE PUSH6 0x646472657373 PUSH1 0xD0 SHL PUSH1 0x64 DUP3 ADD MSTORE PUSH1 0x84 ADD PUSH2 0x299 JUMP JUMPDEST PUSH1 0x1 SLOAD PUSH1 0x40 MLOAD PUSH1 0x1 PUSH1 0x1 PUSH1 0xA0 SHL SUB DUP1 DUP5 AND SWAP3 AND SWAP1 PUSH32 0x8BE0079C531659141344CD1FD0A4F28419497F9722A3DAAFE3B4186F6B6457E0 SWAP1 PUSH1 0x0 SWAP1 LOG3 PUSH1 0x1 DUP1 SLOAD PUSH1 0x1 PUSH1 0x1 PUSH1 0xA0 SHL SUB NOT AND PUSH1 0x1 PUSH1 0x1 PUSH1 0xA0 SHL SUB SWAP3 SWAP1 SWAP3 AND SWAP2 SWAP1 SWAP2 OR SWAP1 SSTORE JUMP JUMPDEST PUSH1 0x0 PUSH2 0x1C88 PUSH2 0x134D JUMP JUMPDEST PUSH2 0x1CD4 JUMPI PUSH1 0x40 MLOAD PUSH3 0x461BCD PUSH1 0xE5 SHL DUP2 MSTORE PUSH1 0x20 PUSH1 0x4 DUP3 ADD MSTORE PUSH1 0x19 PUSH1 0x24 DUP3 ADD MSTORE PUSH32 0x4D696E6F7269747950726573616C653A206E6F74206F70656E00000000000000 PUSH1 0x44 DUP3 ADD MSTORE PUSH1 0x64 ADD PUSH2 0x299 JUMP JUMPDEST PUSH1 0x1 PUSH1 0x1 PUSH1 0xA0 SHL SUB DUP4 AND PUSH2 0x1D43 JUMPI PUSH1 0x40 MLOAD PUSH3 0x461BCD PUSH1 0xE5 SHL DUP2 MSTORE PUSH1 0x20 PUSH1 0x4 DUP3 ADD MSTORE PUSH1 0x30 PUSH1 0x24 DUP3 ADD MSTORE PUSH32 0x4D696E6F7269747950726573616C653A2062656E656669636961727920697320 PUSH1 0x44 DUP3 ADD MSTORE PUSH16 0x746865207A65726F2061646472657373 PUSH1 0x80 SHL PUSH1 0x64 DUP3 ADD MSTORE PUSH1 0x84 ADD PUSH2 0x299 JUMP JUMPDEST DUP2 PUSH2 0x1D9C JUMPI PUSH1 0x40 MLOAD PUSH3 0x461BCD PUSH1 0xE5 SHL DUP2 MSTORE PUSH1 0x20 PUSH1 0x4 DUP3 ADD MSTORE PUSH1 0x24 DUP1 DUP3 ADD MSTORE PUSH32 0x4D696E6F7269747950726573616C653A2030207061796D656E74207370656369 PUSH1 0x44 DUP3 ADD MSTORE PUSH4 0x199A5959 PUSH1 0xE2 SHL PUSH1 0x64 DUP3 ADD MSTORE PUSH1 0x84 ADD PUSH2 0x299 JUMP JUMPDEST PUSH1 0xB SLOAD PUSH1 0x9 SLOAD PUSH2 0x1DAC SWAP1 DUP5 PUSH2 0x1EDD JUMP JUMPDEST GT ISZERO PUSH2 0x1E2E JUMPI PUSH1 0x40 MLOAD PUSH3 0x461BCD PUSH1 0xE5 SHL DUP2 MSTORE PUSH1 0x20 PUSH1 0x4 DUP3 ADD MSTORE PUSH1 0x44 PUSH1 0x24 DUP3 ADD DUP2 SWAP1 MSTORE PUSH32 0x4D696E6F7269747950726573616C653A206861726463617020776F756C642062 SWAP1 DUP3 ADD MSTORE PUSH32 0x652065786365656465642077697468207468697320707572636861736520616D PUSH1 0x64 DUP3 ADD MSTORE PUSH4 0x1BDD5B9D PUSH1 0xE2 SHL PUSH1 0x84 DUP3 ADD MSTORE PUSH1 0xA4 ADD PUSH2 0x299 JUMP JUMPDEST PUSH1 0xD SLOAD PUSH1 0x1 PUSH1 0x1 PUSH1 0xA0 SHL SUB DUP5 AND PUSH1 0x0 SWAP1 DUP2 MSTORE PUSH1 0xE PUSH1 0x20 MSTORE PUSH1 0x40 SWAP1 KECCAK256 SLOAD PUSH2 0x1E54 SWAP1 DUP5 PUSH2 0x1EDD JUMP JUMPDEST GT ISZERO PUSH2 0x1EB3 JUMPI PUSH1 0x40 MLOAD PUSH3 0x461BCD PUSH1 0xE5 SHL DUP2 MSTORE PUSH1 0x20 PUSH1 0x4 DUP3 ADD MSTORE PUSH1 0x28 PUSH1 0x24 DUP3 ADD MSTORE PUSH32 0x4D696E6F7269747950726573616C653A20696E646976696475616C2063617020 PUSH1 0x44 DUP3 ADD MSTORE PUSH8 0x195E18D959591959 PUSH1 0xC2 SHL PUSH1 0x64 DUP3 ADD MSTORE PUSH1 0x84 ADD PUSH2 0x299 JUMP JUMPDEST PUSH2 0x1EBD DUP4 DUP4 PUSH2 0x2519 JUMP JUMPDEST SWAP1 POP JUMPDEST SWAP3 SWAP2 POP POP JUMP JUMPDEST PUSH1 0x0 PUSH2 0x1EC0 PUSH1 0x8 SLOAD DUP4 PUSH2 0x1F7E SWAP1 SWAP2 SWAP1 PUSH4 0xFFFFFFFF AND JUMP JUMPDEST PUSH1 0x0 DUP1 PUSH2 0x1EEA DUP4 DUP6 PUSH2 0x2AA7 JUMP JUMPDEST SWAP1 POP DUP4 DUP2 LT ISZERO PUSH2 0x1EBD JUMPI PUSH1 0x40 MLOAD PUSH3 0x461BCD PUSH1 0xE5 SHL DUP2 MSTORE PUSH1 0x20 PUSH1 0x4 DUP3 ADD MSTORE PUSH1 0x1B PUSH1 0x24 DUP3 ADD MSTORE PUSH32 0x536166654D6174683A206164646974696F6E206F766572666C6F770000000000 PUSH1 0x44 DUP3 ADD MSTORE PUSH1 0x64 ADD PUSH2 0x299 JUMP JUMPDEST PUSH1 0x0 PUSH2 0x1EBD DUP4 DUP4 PUSH1 0x40 MLOAD DUP1 PUSH1 0x40 ADD PUSH1 0x40 MSTORE DUP1 PUSH1 0x1E DUP2 MSTORE PUSH1 0x20 ADD PUSH32 0x536166654D6174683A207375627472616374696F6E206F766572666C6F770000 DUP2 MSTORE POP PUSH2 0x26C9 JUMP JUMPDEST PUSH1 0x0 DUP3 PUSH2 0x1F8D JUMPI POP PUSH1 0x0 PUSH2 0x1EC0 JUMP JUMPDEST PUSH1 0x0 PUSH2 0x1F99 DUP4 DUP6 PUSH2 0x2ADF JUMP JUMPDEST SWAP1 POP DUP3 PUSH2 0x1FA6 DUP6 DUP4 PUSH2 0x2ABF JUMP JUMPDEST EQ PUSH2 0x1EBD JUMPI PUSH1 0x40 MLOAD PUSH3 0x461BCD PUSH1 0xE5 SHL DUP2 MSTORE PUSH1 0x20 PUSH1 0x4 DUP3 ADD MSTORE PUSH1 0x21 PUSH1 0x24 DUP3 ADD MSTORE PUSH32 0x536166654D6174683A206D756C7469706C69636174696F6E206F766572666C6F PUSH1 0x44 DUP3 ADD MSTORE PUSH1 0x77 PUSH1 0xF8 SHL PUSH1 0x64 DUP3 ADD MSTORE PUSH1 0x84 ADD PUSH2 0x299 JUMP JUMPDEST PUSH1 0x5 SLOAD PUSH1 0x40 MLOAD PUSH4 0x70A08231 PUSH1 0xE0 SHL DUP2 MSTORE ADDRESS PUSH1 0x4 DUP3 ADD MSTORE PUSH1 0x0 SWAP2 PUSH1 0x1 PUSH1 0x1 PUSH1 0xA0 SHL SUB AND SWAP1 PUSH4 0x70A08231 SWAP1 PUSH1 0x24 ADD PUSH1 0x20 PUSH1 0x40 MLOAD DUP1 DUP4 SUB DUP2 DUP7 DUP1 EXTCODESIZE ISZERO DUP1 ISZERO PUSH2 0x2041 JUMPI PUSH1 0x0 DUP1 REVERT JUMPDEST POP GAS STATICCALL ISZERO DUP1 ISZERO PUSH2 0x2055 JUMPI RETURNDATASIZE PUSH1 0x0 DUP1 RETURNDATACOPY RETURNDATASIZE PUSH1 0x0 REVERT JUMPDEST POP POP POP POP PUSH1 0x40 MLOAD RETURNDATASIZE PUSH1 0x1F NOT PUSH1 0x1F DUP3 ADD AND DUP3 ADD DUP1 PUSH1 0x40 MSTORE POP DUP2 ADD SWAP1 PUSH2 0x2079 SWAP2 SWAP1 PUSH2 0x27DA JUMP JUMPDEST PUSH1 0x5 SLOAD PUSH1 0x7 SLOAD PUSH1 0x40 MLOAD PUSH4 0xA9059CBB PUSH1 0xE0 SHL DUP2 MSTORE PUSH1 0x1 PUSH1 0x1 PUSH1 0xA0 SHL SUB SWAP2 DUP3 AND PUSH1 0x4 DUP3 ADD MSTORE PUSH1 0x24 DUP2 ADD DUP5 SWAP1 MSTORE SWAP3 SWAP4 POP AND SWAP1 PUSH4 0xA9059CBB SWAP1 PUSH1 0x44 ADD PUSH2 0x1ADD JUMP JUMPDEST PUSH1 0x0 PUSH2 0x20DB PUSH1 0xB SLOAD PUSH2 0x20D5 PUSH1 0x9 SLOAD PUSH1 0x11 SLOAD PUSH2 0x1F7E SWAP1 SWAP2 SWAP1 PUSH4 0xFFFFFFFF AND JUMP JUMPDEST SWAP1 PUSH2 0x2703 JUMP JUMPDEST PUSH1 0x5 SLOAD PUSH1 0x40 MLOAD PUSH4 0x95EA7B3 PUSH1 0xE0 SHL DUP2 MSTORE PUSH1 0x1 PUSH1 0x1 PUSH1 0xA0 SHL SUB PUSH32 0x0 DUP2 AND PUSH1 0x4 DUP4 ADD MSTORE PUSH1 0x24 DUP3 ADD DUP5 SWAP1 MSTORE SWAP3 SWAP4 POP SWAP2 AND SWAP1 PUSH4 0x95EA7B3 SWAP1 PUSH1 0x44 ADD PUSH1 0x20 PUSH1 0x40 MLOAD DUP1 DUP4 SUB DUP2 PUSH1 0x0 DUP8 DUP1 EXTCODESIZE ISZERO DUP1 ISZERO PUSH2 0x214B JUMPI PUSH1 0x0 DUP1 REVERT JUMPDEST POP GAS CALL ISZERO DUP1 ISZERO PUSH2 0x215F JUMPI RETURNDATASIZE PUSH1 0x0 DUP1 RETURNDATACOPY RETURNDATASIZE PUSH1 0x0 REVERT JUMPDEST POP POP POP POP PUSH1 0x40 MLOAD RETURNDATASIZE PUSH1 0x1F NOT PUSH1 0x1F DUP3 ADD AND DUP3 ADD DUP1 PUSH1 0x40 MSTORE POP DUP2 ADD SWAP1 PUSH2 0x2183 SWAP2 SWAP1 PUSH2 0x27A6 JUMP JUMPDEST POP PUSH1 0x6 SLOAD PUSH1 0x9 SLOAD PUSH1 0x40 MLOAD PUSH4 0x95EA7B3 PUSH1 0xE0 SHL DUP2 MSTORE PUSH1 0x1 PUSH1 0x1 PUSH1 0xA0 SHL SUB PUSH32 0x0 DUP2 AND PUSH1 0x4 DUP4 ADD MSTORE PUSH1 0x24 DUP3 ADD SWAP3 SWAP1 SWAP3 MSTORE SWAP2 AND SWAP1 PUSH4 0x95EA7B3 SWAP1 PUSH1 0x44 ADD PUSH1 0x20 PUSH1 0x40 MLOAD DUP1 DUP4 SUB DUP2 PUSH1 0x0 DUP8 DUP1 EXTCODESIZE ISZERO DUP1 ISZERO PUSH2 0x21F5 JUMPI PUSH1 0x0 DUP1 REVERT JUMPDEST POP GAS CALL ISZERO DUP1 ISZERO PUSH2 0x2209 JUMPI RETURNDATASIZE PUSH1 0x0 DUP1 RETURNDATACOPY RETURNDATASIZE PUSH1 0x0 REVERT JUMPDEST POP POP POP POP PUSH1 0x40 MLOAD RETURNDATASIZE PUSH1 0x1F NOT PUSH1 0x1F DUP3 ADD AND DUP3 ADD DUP1 PUSH1 0x40 MSTORE POP DUP2 ADD SWAP1 PUSH2 0x222D SWAP2 SWAP1 PUSH2 0x27A6 JUMP JUMPDEST POP PUSH1 0x5 SLOAD PUSH1 0x6 SLOAD PUSH1 0x9 SLOAD PUSH1 0x7 SLOAD PUSH1 0x40 MLOAD PUSH3 0xE8E337 PUSH1 0xE8 SHL DUP2 MSTORE PUSH1 0x1 PUSH1 0x1 PUSH1 0xA0 SHL SUB SWAP5 DUP6 AND PUSH1 0x4 DUP3 ADD MSTORE SWAP3 DUP5 AND PUSH1 0x24 DUP5 ADD MSTORE PUSH1 0x44 DUP4 ADD DUP6 SWAP1 MSTORE PUSH1 0x64 DUP4 ADD SWAP2 SWAP1 SWAP2 MSTORE PUSH1 0x0 PUSH1 0x84 DUP4 ADD DUP2 SWAP1 MSTORE PUSH1 0xA4 DUP4 ADD DUP2 SWAP1 MSTORE SWAP1 DUP4 AND PUSH1 0xC4 DUP4 ADD MSTORE TIMESTAMP PUSH1 0xE4 DUP4 ADD MSTORE SWAP2 DUP3 SWAP2 DUP3 SWAP2 PUSH32 0x0 AND SWAP1 PUSH4 0xE8E33700 SWAP1 PUSH2 0x104 ADD PUSH1 0x60 PUSH1 0x40 MLOAD DUP1 DUP4 SUB DUP2 PUSH1 0x0 DUP8 DUP1 EXTCODESIZE ISZERO DUP1 ISZERO PUSH2 0x22D7 JUMPI PUSH1 0x0 DUP1 REVERT JUMPDEST POP GAS CALL ISZERO DUP1 ISZERO PUSH2 0x22EB JUMPI RETURNDATASIZE PUSH1 0x0 DUP1 RETURNDATACOPY RETURNDATASIZE PUSH1 0x0 REVERT JUMPDEST POP POP POP POP PUSH1 0x40 MLOAD RETURNDATASIZE PUSH1 0x1F NOT PUSH1 0x1F DUP3 ADD AND DUP3 ADD DUP1 PUSH1 0x40 MSTORE POP DUP2 ADD SWAP1 PUSH2 0x230F SWAP2 SWAP1 PUSH2 0x295B JUMP JUMPDEST PUSH1 0x9 SLOAD PUSH1 0x40 DUP1 MLOAD DUP10 DUP2 MSTORE PUSH1 0x20 DUP2 ADD DUP7 SWAP1 MSTORE SWAP1 DUP2 ADD SWAP2 SWAP1 SWAP2 MSTORE PUSH1 0x60 DUP2 ADD DUP4 SWAP1 MSTORE PUSH1 0x80 DUP2 ADD DUP3 SWAP1 MSTORE SWAP3 SWAP6 POP SWAP1 SWAP4 POP SWAP2 POP PUSH32 0xB141EFB20C72D616A1738EDF3BFC091E675E9970798C20F084E967372070C25B SWAP1 PUSH1 0xA0 ADD PUSH1 0x40 MLOAD DUP1 SWAP2 SUB SWAP1 LOG1 POP POP POP POP JUMP JUMPDEST PUSH1 0x0 PUSH2 0x239A PUSH2 0x2391 PUSH1 0x64 PUSH2 0x20D5 PUSH1 0x12 SLOAD PUSH1 0x9 SLOAD PUSH2 0x1F7E SWAP1 SWAP2 SWAP1 PUSH4 0xFFFFFFFF AND JUMP JUMPDEST PUSH1 0x9 SLOAD SWAP1 PUSH2 0x1F3C JUMP JUMPDEST SWAP1 POP PUSH2 0x23A4 PUSH2 0x6E9 JUMP JUMPDEST ISZERO PUSH2 0x23E3 JUMPI PUSH1 0x7 SLOAD PUSH1 0x40 MLOAD PUSH1 0x1 PUSH1 0x1 PUSH1 0xA0 SHL SUB SWAP1 SWAP2 AND SWAP1 DUP3 ISZERO PUSH2 0x8FC MUL SWAP1 DUP4 SWAP1 PUSH1 0x0 DUP2 DUP2 DUP2 DUP6 DUP9 DUP9 CALL SWAP4 POP POP POP POP ISZERO DUP1 ISZERO PUSH2 0x1604 JUMPI RETURNDATASIZE PUSH1 0x0 DUP1 RETURNDATACOPY RETURNDATASIZE PUSH1 0x0 REVERT JUMPDEST PUSH1 0x6 SLOAD PUSH1 0x7 SLOAD PUSH1 0x40 MLOAD PUSH4 0xA9059CBB PUSH1 0xE0 SHL DUP2 MSTORE PUSH1 0x1 PUSH1 0x1 PUSH1 0xA0 SHL SUB SWAP2 DUP3 AND PUSH1 0x4 DUP3 ADD MSTORE PUSH1 0x24 DUP2 ADD DUP5 SWAP1 MSTORE SWAP2 AND SWAP1 PUSH4 0xA9059CBB SWAP1 PUSH1 0x44 ADD PUSH2 0x1ADD JUMP JUMPDEST PUSH1 0x0 PUSH2 0x2443 PUSH1 0x8 SLOAD PUSH2 0x243D PUSH1 0x9 SLOAD PUSH1 0xB SLOAD PUSH2 0x1F3C SWAP1 SWAP2 SWAP1 PUSH4 0xFFFFFFFF AND JUMP JUMPDEST SWAP1 PUSH2 0x1F7E JUMP JUMPDEST SWAP1 POP PUSH1 0x0 PUSH2 0x2470 PUSH2 0x2467 PUSH1 0xB SLOAD PUSH2 0x20D5 PUSH1 0x9 SLOAD PUSH1 0x11 SLOAD PUSH2 0x1F7E SWAP1 SWAP2 SWAP1 PUSH4 0xFFFFFFFF AND JUMP JUMPDEST PUSH1 0x11 SLOAD SWAP1 PUSH2 0x1F3C JUMP JUMPDEST PUSH1 0x5 SLOAD PUSH1 0x7 SLOAD SWAP2 SWAP3 POP PUSH1 0x1 PUSH1 0x1 PUSH1 0xA0 SHL SUB SWAP1 DUP2 AND SWAP2 PUSH4 0xA9059CBB SWAP2 AND PUSH2 0x2496 DUP6 DUP6 PUSH2 0x1EDD JUMP JUMPDEST PUSH1 0x40 MLOAD PUSH1 0x1 PUSH1 0x1 PUSH1 0xE0 SHL SUB NOT PUSH1 0xE0 DUP6 SWAP1 SHL AND DUP2 MSTORE PUSH1 0x1 PUSH1 0x1 PUSH1 0xA0 SHL SUB SWAP1 SWAP3 AND PUSH1 0x4 DUP4 ADD MSTORE PUSH1 0x24 DUP3 ADD MSTORE PUSH1 0x44 ADD PUSH1 0x20 PUSH1 0x40 MLOAD DUP1 DUP4 SUB DUP2 PUSH1 0x0 DUP8 DUP1 EXTCODESIZE ISZERO DUP1 ISZERO PUSH2 0x24DC JUMPI PUSH1 0x0 DUP1 REVERT JUMPDEST POP GAS CALL ISZERO DUP1 ISZERO PUSH2 0x24F0 JUMPI RETURNDATASIZE PUSH1 0x0 DUP1 RETURNDATACOPY RETURNDATASIZE PUSH1 0x0 REVERT JUMPDEST POP POP POP POP PUSH1 0x40 MLOAD RETURNDATASIZE PUSH1 0x1F NOT PUSH1 0x1F DUP3 ADD AND DUP3 ADD DUP1 PUSH1 0x40 MSTORE POP DUP2 ADD SWAP1 PUSH2 0x2514 SWAP2 SWAP1 PUSH2 0x27A6 JUMP JUMPDEST POP POP POP JUMP JUMPDEST PUSH1 0x0 PUSH2 0x2523 PUSH2 0x6E9 JUMP JUMPDEST ISZERO PUSH2 0x252F JUMPI POP DUP1 PUSH2 0x1EC0 JUMP JUMPDEST PUSH1 0x6 SLOAD PUSH1 0x40 MLOAD PUSH4 0x70A08231 PUSH1 0xE0 SHL DUP2 MSTORE ADDRESS PUSH1 0x4 DUP3 ADD MSTORE PUSH1 0x0 SWAP2 PUSH1 0x1 PUSH1 0x1 PUSH1 0xA0 SHL SUB AND SWAP1 PUSH4 0x70A08231 SWAP1 PUSH1 0x24 ADD PUSH1 0x20 PUSH1 0x40 MLOAD DUP1 DUP4 SUB DUP2 DUP7 DUP1 EXTCODESIZE ISZERO DUP1 ISZERO PUSH2 0x2573 JUMPI PUSH1 0x0 DUP1 REVERT JUMPDEST POP GAS STATICCALL ISZERO DUP1 ISZERO PUSH2 0x2587 JUMPI RETURNDATASIZE PUSH1 0x0 DUP1 RETURNDATACOPY RETURNDATASIZE PUSH1 0x0 REVERT JUMPDEST POP POP POP POP PUSH1 0x40 MLOAD RETURNDATASIZE PUSH1 0x1F NOT PUSH1 0x1F DUP3 ADD AND DUP3 ADD DUP1 PUSH1 0x40 MSTORE POP DUP2 ADD SWAP1 PUSH2 0x25AB SWAP2 SWAP1 PUSH2 0x27DA JUMP JUMPDEST PUSH1 0x6 SLOAD PUSH1 0x40 MLOAD PUSH4 0x23B872DD PUSH1 0xE0 SHL DUP2 MSTORE PUSH1 0x1 PUSH1 0x1 PUSH1 0xA0 SHL SUB DUP8 DUP2 AND PUSH1 0x4 DUP4 ADD MSTORE ADDRESS PUSH1 0x24 DUP4 ADD MSTORE PUSH1 0x44 DUP3 ADD DUP8 SWAP1 MSTORE SWAP3 SWAP4 POP SWAP2 AND SWAP1 PUSH4 0x23B872DD SWAP1 PUSH1 0x64 ADD PUSH1 0x20 PUSH1 0x40 MLOAD DUP1 DUP4 SUB DUP2 PUSH1 0x0 DUP8 DUP1 EXTCODESIZE ISZERO DUP1 ISZERO PUSH2 0x2601 JUMPI PUSH1 0x0 DUP1 REVERT JUMPDEST POP GAS CALL ISZERO DUP1 ISZERO PUSH2 0x2615 JUMPI RETURNDATASIZE PUSH1 0x0 DUP1 RETURNDATACOPY RETURNDATASIZE PUSH1 0x0 REVERT JUMPDEST POP POP POP POP PUSH1 0x40 MLOAD RETURNDATASIZE PUSH1 0x1F NOT PUSH1 0x1F DUP3 ADD AND DUP3 ADD DUP1 PUSH1 0x40 MSTORE POP DUP2 ADD SWAP1 PUSH2 0x2639 SWAP2 SWAP1 PUSH2 0x27A6 JUMP JUMPDEST POP PUSH1 0x6 SLOAD PUSH1 0x40 MLOAD PUSH4 0x70A08231 PUSH1 0xE0 SHL DUP2 MSTORE ADDRESS PUSH1 0x4 DUP3 ADD MSTORE PUSH2 0x26C1 SWAP2 DUP4 SWAP2 PUSH1 0x1 PUSH1 0x1 PUSH1 0xA0 SHL SUB SWAP1 SWAP2 AND SWAP1 PUSH4 0x70A08231 SWAP1 PUSH1 0x24 ADD PUSH1 0x20 PUSH1 0x40 MLOAD DUP1 DUP4 SUB DUP2 DUP7 DUP1 EXTCODESIZE ISZERO DUP1 ISZERO PUSH2 0x2683 JUMPI PUSH1 0x0 DUP1 REVERT JUMPDEST POP GAS STATICCALL ISZERO DUP1 ISZERO PUSH2 0x2697 JUMPI RETURNDATASIZE PUSH1 0x0 DUP1 RETURNDATACOPY RETURNDATASIZE PUSH1 0x0 REVERT JUMPDEST POP POP POP POP PUSH1 0x40 MLOAD RETURNDATASIZE PUSH1 0x1F NOT PUSH1 0x1F DUP3 ADD AND DUP3 ADD DUP1 PUSH1 0x40 MSTORE POP DUP2 ADD SWAP1 PUSH2 0x26BB SWAP2 SWAP1 PUSH2 0x27DA JUMP JUMPDEST SWAP1 PUSH2 0x1F3C JUMP JUMPDEST SWAP2 POP POP PUSH2 0x1EC0 JUMP JUMPDEST PUSH1 0x0 DUP2 DUP5 DUP5 GT ISZERO PUSH2 0x26ED JUMPI PUSH1 0x40 MLOAD PUSH3 0x461BCD PUSH1 0xE5 SHL DUP2 MSTORE PUSH1 0x4 ADD PUSH2 0x299 SWAP2 SWAP1 PUSH2 0x2988 JUMP JUMPDEST POP PUSH1 0x0 PUSH2 0x26FA DUP5 DUP7 PUSH2 0x2AFE JUMP JUMPDEST SWAP6 SWAP5 POP POP POP POP POP JUMP JUMPDEST PUSH1 0x0 PUSH2 0x1EBD DUP4 DUP4 PUSH1 0x40 MLOAD DUP1 PUSH1 0x40 ADD PUSH1 0x40 MSTORE DUP1 PUSH1 0x1A DUP2 MSTORE PUSH1 0x20 ADD PUSH32 0x536166654D6174683A206469766973696F6E206279207A65726F000000000000 DUP2 MSTORE POP PUSH1 0x0 DUP2 DUP4 PUSH2 0x2761 JUMPI PUSH1 0x40 MLOAD PUSH3 0x461BCD PUSH1 0xE5 SHL DUP2 MSTORE PUSH1 0x4 ADD PUSH2 0x299 SWAP2 SWAP1 PUSH2 0x2988 JUMP JUMPDEST POP PUSH1 0x0 PUSH2 0x26FA DUP5 DUP7 PUSH2 0x2ABF JUMP JUMPDEST PUSH1 0x0 PUSH1 0x20 DUP3 DUP5 SUB SLT ISZERO PUSH2 0x277F JUMPI DUP1 DUP2 REVERT JUMPDEST DUP2 CALLDATALOAD PUSH2 0x1EBD DUP2 PUSH2 0x2B2B JUMP JUMPDEST PUSH1 0x0 PUSH1 0x20 DUP3 DUP5 SUB SLT ISZERO PUSH2 0x279B JUMPI DUP1 DUP2 REVERT JUMPDEST DUP2 MLOAD PUSH2 0x1EBD DUP2 PUSH2 0x2B2B JUMP JUMPDEST PUSH1 0x0 PUSH1 0x20 DUP3 DUP5 SUB SLT ISZERO PUSH2 0x27B7 JUMPI DUP1 DUP2 REVERT JUMPDEST DUP2 MLOAD PUSH2 0x1EBD DUP2 PUSH2 0x2B40 JUMP JUMPDEST PUSH1 0x0 PUSH1 0x20 DUP3 DUP5 SUB SLT ISZERO PUSH2 0x27D3 JUMPI DUP1 DUP2 REVERT JUMPDEST POP CALLDATALOAD SWAP2 SWAP1 POP JUMP JUMPDEST PUSH1 0x0 PUSH1 0x20 DUP3 DUP5 SUB SLT ISZERO PUSH2 0x27EB JUMPI DUP1 DUP2 REVERT JUMPDEST POP MLOAD SWAP2 SWAP1 POP JUMP JUMPDEST PUSH1 0x0 DUP1 PUSH1 0x0 DUP1 PUSH1 0x0 DUP1 PUSH1 0x0 DUP1 PUSH1 0x0 DUP1 PUSH1 0x0 PUSH2 0x160 DUP13 DUP15 SUB SLT ISZERO PUSH2 0x2813 JUMPI DUP7 DUP8 REVERT JUMPDEST DUP12 CALLDATALOAD SWAP11 POP PUSH1 0x20 DUP13 ADD CALLDATALOAD PUSH2 0x2825 DUP2 PUSH2 0x2B2B JUMP JUMPDEST SWAP10 POP PUSH1 0x40 DUP13 ADD CALLDATALOAD PUSH2 0x2835 DUP2 PUSH2 0x2B2B JUMP JUMPDEST SWAP9 POP PUSH1 0x60 DUP13 ADD CALLDATALOAD SWAP8 POP PUSH1 0x80 DUP13 ADD CALLDATALOAD SWAP7 POP PUSH1 0xA0 DUP13 ADD CALLDATALOAD SWAP6 POP PUSH1 0xC0 DUP13 ADD CALLDATALOAD PUSH2 0x285A DUP2 PUSH2 0x2B2B JUMP JUMPDEST DUP1 SWAP6 POP POP PUSH1 0xE0 DUP13 ADD CALLDATALOAD SWAP4 POP PUSH2 0x100 DUP13 ADD CALLDATALOAD SWAP3 POP PUSH2 0x120 DUP13 ADD CALLDATALOAD SWAP2 POP PUSH2 0x140 DUP13 ADD CALLDATALOAD SWAP1 POP SWAP3 SWAP6 SWAP9 SWAP12 POP SWAP3 SWAP6 SWAP9 SWAP12 SWAP1 SWAP4 SWAP7 SWAP10 POP JUMP JUMPDEST PUSH1 0x0 DUP1 PUSH1 0x0 DUP1 PUSH1 0x0 DUP1 PUSH1 0x0 DUP1 PUSH1 0x0 DUP1 PUSH1 0x0 DUP1 PUSH2 0x180 DUP14 DUP16 SUB SLT ISZERO PUSH2 0x28AF JUMPI DUP2 DUP3 REVERT JUMPDEST DUP13 CALLDATALOAD SWAP12 POP PUSH1 0x20 DUP14 ADD CALLDATALOAD PUSH2 0x28C1 DUP2 PUSH2 0x2B2B JUMP JUMPDEST SWAP11 POP PUSH1 0x40 DUP14 ADD CALLDATALOAD PUSH2 0x28D1 DUP2 PUSH2 0x2B2B JUMP JUMPDEST SWAP10 POP PUSH1 0x60 DUP14 ADD CALLDATALOAD SWAP9 POP PUSH1 0x80 DUP14 ADD CALLDATALOAD SWAP8 POP PUSH1 0xA0 DUP14 ADD CALLDATALOAD SWAP7 POP PUSH1 0xC0 DUP14 ADD CALLDATALOAD PUSH2 0x28F6 DUP2 PUSH2 0x2B2B JUMP JUMPDEST SWAP6 POP PUSH1 0xE0 DUP14 ADD CALLDATALOAD SWAP5 POP PUSH2 0x100 DUP14 ADD CALLDATALOAD SWAP4 POP PUSH2 0x120 DUP14 ADD CALLDATALOAD SWAP3 POP PUSH2 0x140 DUP14 ADD CALLDATALOAD SWAP2 POP PUSH2 0x160 DUP14 ADD CALLDATALOAD PUSH2 0x2926 DUP2 PUSH2 0x2B40 JUMP JUMPDEST DUP1 SWAP2 POP POP SWAP3 SWAP6 SWAP9 SWAP12 POP SWAP3 SWAP6 SWAP9 SWAP12 POP SWAP3 SWAP6 SWAP9 SWAP12 JUMP JUMPDEST PUSH1 0x0 DUP1 PUSH1 0x40 DUP4 DUP6 SUB SLT ISZERO PUSH2 0x294C JUMPI DUP2 DUP3 REVERT JUMPDEST POP POP DUP1 CALLDATALOAD SWAP3 PUSH1 0x20 SWAP1 SWAP2 ADD CALLDATALOAD SWAP2 POP JUMP JUMPDEST PUSH1 0x0 DUP1 PUSH1 0x0 PUSH1 0x60 DUP5 DUP7 SUB SLT ISZERO PUSH2 0x296F JUMPI DUP3 DUP4 REVERT JUMPDEST DUP4 MLOAD SWAP3 POP PUSH1 0x20 DUP5 ADD MLOAD SWAP2 POP PUSH1 0x40 DUP5 ADD MLOAD SWAP1 POP SWAP3 POP SWAP3 POP SWAP3 JUMP JUMPDEST PUSH1 0x0 PUSH1 0x20 DUP1 DUP4 MSTORE DUP4 MLOAD DUP1 DUP3 DUP6 ADD MSTORE DUP3 JUMPDEST DUP2 DUP2 LT ISZERO PUSH2 0x29B4 JUMPI DUP6 DUP2 ADD DUP4 ADD MLOAD DUP6 DUP3 ADD PUSH1 0x40 ADD MSTORE DUP3 ADD PUSH2 0x2998 JUMP JUMPDEST DUP2 DUP2 GT ISZERO PUSH2 0x29C5 JUMPI DUP4 PUSH1 0x40 DUP4 DUP8 ADD ADD MSTORE JUMPDEST POP PUSH1 0x1F ADD PUSH1 0x1F NOT AND SWAP3 SWAP1 SWAP3 ADD PUSH1 0x40 ADD SWAP4 SWAP3 POP POP POP JUMP JUMPDEST PUSH1 0x20 DUP1 DUP3 MSTORE DUP2 DUP2 ADD MSTORE PUSH32 0x4F776E61626C653A2063616C6C6572206973206E6F7420746865206F776E6572 PUSH1 0x40 DUP3 ADD MSTORE PUSH1 0x60 ADD SWAP1 JUMP JUMPDEST PUSH1 0x20 DUP1 DUP3 MSTORE PUSH1 0x22 SWAP1 DUP3 ADD MSTORE PUSH32 0x4D696E6F7269747950726573616C653A20616C72656164792066696E616C6973 PUSH1 0x40 DUP3 ADD MSTORE PUSH2 0x1959 PUSH1 0xF2 SHL PUSH1 0x60 DUP3 ADD MSTORE PUSH1 0x80 ADD SWAP1 JUMP JUMPDEST PUSH1 0x20 DUP1 DUP3 MSTORE PUSH1 0x35 SWAP1 DUP3 ADD MSTORE PUSH32 0x4D696E6F7269747950726573616C653A206F6E6C792061636365737369626C65 PUSH1 0x40 DUP3 ADD MSTORE PUSH21 0x10313C9037B832B930BA37B91037B91037BBB732B9 PUSH1 0x59 SHL PUSH1 0x60 DUP3 ADD MSTORE PUSH1 0x80 ADD SWAP1 JUMP JUMPDEST PUSH1 0x0 DUP3 NOT DUP3 GT ISZERO PUSH2 0x2ABA JUMPI PUSH2 0x2ABA PUSH2 0x2B15 JUMP JUMPDEST POP ADD SWAP1 JUMP JUMPDEST PUSH1 0x0 DUP3 PUSH2 0x2ADA JUMPI PUSH4 0x4E487B71 PUSH1 0xE0 SHL DUP2 MSTORE PUSH1 0x12 PUSH1 0x4 MSTORE PUSH1 0x24 DUP2 REVERT JUMPDEST POP DIV SWAP1 JUMP JUMPDEST PUSH1 0x0 DUP2 PUSH1 0x0 NOT DIV DUP4 GT DUP3 ISZERO ISZERO AND ISZERO PUSH2 0x2AF9 JUMPI PUSH2 0x2AF9 PUSH2 0x2B15 JUMP JUMPDEST POP MUL SWAP1 JUMP JUMPDEST PUSH1 0x0 DUP3 DUP3 LT ISZERO PUSH2 0x2B10 JUMPI PUSH2 0x2B10 PUSH2 0x2B15 JUMP JUMPDEST POP SUB SWAP1 JUMP JUMPDEST PUSH4 0x4E487B71 PUSH1 0xE0 SHL PUSH1 0x0 MSTORE PUSH1 0x11 PUSH1 0x4 MSTORE PUSH1 0x24 PUSH1 0x0 REVERT JUMPDEST PUSH1 0x1 PUSH1 0x1 PUSH1 0xA0 SHL SUB DUP2 AND DUP2 EQ PUSH2 0x1B2F JUMPI PUSH1 0x0 DUP1 REVERT JUMPDEST DUP1 ISZERO ISZERO DUP2 EQ PUSH2 0x1B2F JUMPI PUSH1 0x0 DUP1 REVERT INVALID LOG2 PUSH5 0x6970667358 0x22 SLT KECCAK256 0x2B PUSH5 0xE059D00F75 SWAP12 CALLER SWAP2 0xDC CALLVALUE SAR 0x4B 0xB1 DUP16 0xCD CHAINID 0xD4 AND 0x4C GASLIMIT PUSH3 0xC389D3 0xD2 RETURNDATACOPY 0xBD 0x2F COINBASE DUP8 PUSH5 0x736F6C6343 STOP ADDMOD DIV STOP CALLER "
		},
		"gasEstimates": {
			"creation": {
				"codeDepositCost": "2228000",
				"executionCost": "infinite",
				"totalCost": "infinite"
			},
			"external": {
				"ROUTER()": "328",
				"USDC()": "261",
				"buyTokens(uint256)": "infinite",
				"cancelPresale()": "infinite",
				"cancelled()": "1132",
				"changePresaleTimings(uint256,uint256)": "infinite",
				"claimRefund()": "infinite",
				"claimTokens()": "infinite",
				"closingTime()": "1073",
				"contributionsToClaim()": "1050",
				"extendTime(uint256)": "26693",
				"finalise()": "infinite",
				"finalised()": "1123",
				"getContribution(address)": "1270",
				"hardcap()": "1051",
				"hardcapReached()": "1853",
				"hasClosed()": "1948",
				"individualCap()": "1031",
				"isOpen()": "1970",
				"numTokensToAddToLP()": "1052",
				"openingTime()": "1095",
				"operator()": "1170",
				"owner()": "1120",
				"paymentInWeth()": "infinite",
				"paymentToken()": "1127",
				"percentFundsToAddToLP()": "1051",
				"rate()": "1052",
				"renounceOwnership()": "24274",
				"setUpPresale(uint256,address,address,uint256,uint256,uint256,address,uint256,uint256,uint256,uint256)": "infinite",
				"setUpPresale(uint256,address,address,uint256,uint256,uint256,address,uint256,uint256,uint256,uint256,bool)": "infinite",
				"softcap()": "1094",
				"softcapReached()": "1897",
				"swapRouter()": "infinite",
				"token()": "1169",
				"transferOwnership(address)": "24486",
				"wallet()": "1148",
				"weiRaised()": "1052"
			},
			"internal": {
				"addLiquidity()": "infinite",
				"collectPayment(address,uint256)": "infinite",
				"forwardAllTokens()": "infinite",
				"forwardFunds()": "infinite",
				"forwardRemainingTokens()": "infinite",
				"getTokenAmount(uint256)": "infinite",
				"preValidatePurchase(address,uint256)": "infinite"
			}
		},
		"methodIdentifiers": {
			"ROUTER()": "32fe7b26",
			"USDC()": "89a30271",
			"buyTokens(uint256)": "3610724e",
			"cancelPresale()": "467e53b1",
			"cancelled()": "9a82a09a",
			"changePresaleTimings(uint256,uint256)": "1512fc22",
			"claimRefund()": "b5545a3c",
			"claimTokens()": "48c54b9d",
			"closingTime()": "4b6753bc",
			"contributionsToClaim()": "d91b3d07",
			"extendTime(uint256)": "a27aebbc",
			"finalise()": "a4399263",
			"finalised()": "214bb60f",
			"getContribution(address)": "21eff7fc",
			"hardcap()": "b071cbe6",
			"hardcapReached()": "5e6911af",
			"hasClosed()": "1515bc2b",
			"individualCap()": "0276650b",
			"isOpen()": "47535d7b",
			"numTokensToAddToLP()": "656768fa",
			"openingTime()": "b7a8807c",
			"operator()": "570ca735",
			"owner()": "8da5cb5b",
			"paymentInWeth()": "8d167405",
			"paymentToken()": "3013ce29",
			"percentFundsToAddToLP()": "49f1026e",
			"rate()": "2c4e722e",
			"renounceOwnership()": "715018a6",
			"setUpPresale(uint256,address,address,uint256,uint256,uint256,address,uint256,uint256,uint256,uint256)": "baac251b",
			"setUpPresale(uint256,address,address,uint256,uint256,uint256,address,uint256,uint256,uint256,uint256,bool)": "3ca85228",
			"softcap()": "f89be593",
			"softcapReached()": "6eb21929",
			"swapRouter()": "c31c9c07",
			"token()": "fc0c546a",
			"transferOwnership(address)": "f2fde38b",
			"wallet()": "521eb273",
			"weiRaised()": "4042b66f"
		}
	},
	"abi": [
		{
			"inputs": [
				{
					"internalType": "address",
					"name": "_operator",
					"type": "address"
				}
			],
			"stateMutability": "nonpayable",
			"type": "constructor"
		},
		{
			"anonymous": false,
			"inputs": [
				{
					"indexed": false,
					"internalType": "uint256",
					"name": "expectedTokensAdded",
					"type": "uint256"
				},
				{
					"indexed": false,
					"internalType": "uint256",
					"name": "actualTokensAdded",
					"type": "uint256"
				},
				{
					"indexed": false,
					"internalType": "uint256",
					"name": "expectedPaymentTokensAdded",
					"type": "uint256"
				},
				{
					"indexed": false,
					"internalType": "uint256",
					"name": "actualPaymentTokensAdded",
					"type": "uint256"
				},
				{
					"indexed": false,
					"internalType": "uint256",
					"name": "liquidityCreated",
					"type": "uint256"
				}
			],
			"name": "LiquidityAdded",
			"type": "event"
		},
		{
			"anonymous": false,
			"inputs": [
				{
					"indexed": true,
					"internalType": "address",
					"name": "previousOwner",
					"type": "address"
				},
				{
					"indexed": true,
					"internalType": "address",
					"name": "newOwner",
					"type": "address"
				}
			],
			"name": "OwnershipTransferred",
			"type": "event"
		},
		{
			"anonymous": false,
			"inputs": [
				{
					"indexed": false,
					"internalType": "uint256",
					"name": "oldClosingTime",
					"type": "uint256"
				},
				{
					"indexed": false,
					"internalType": "uint256",
					"name": "newClosingTime",
					"type": "uint256"
				}
			],
			"name": "PresaleExtended",
			"type": "event"
		},
		{
			"anonymous": false,
			"inputs": [],
			"name": "PresaleFinalised",
			"type": "event"
		},
		{
			"anonymous": false,
			"inputs": [
				{
					"indexed": false,
					"internalType": "uint256",
					"name": "oldOpeningTime",
					"type": "uint256"
				},
				{
					"indexed": false,
					"internalType": "uint256",
					"name": "newOpeningTime",
					"type": "uint256"
				},
				{
					"indexed": false,
					"internalType": "uint256",
					"name": "oldClosingTime",
					"type": "uint256"
				},
				{
					"indexed": false,
					"internalType": "uint256",
					"name": "newClosingTime",
					"type": "uint256"
				}
			],
			"name": "PresaleTimesChanged",
			"type": "event"
		},
		{
			"anonymous": false,
			"inputs": [
				{
					"indexed": true,
					"internalType": "address",
					"name": "purchaser",
					"type": "address"
				},
				{
					"indexed": false,
					"internalType": "uint256",
					"name": "amountPaid",
					"type": "uint256"
				},
				{
					"indexed": false,
					"internalType": "uint256",
					"name": "tokensReserved",
					"type": "uint256"
				}
			],
			"name": "TokensPurchased",
			"type": "event"
		},
		{
			"inputs": [],
			"name": "ROUTER",
			"outputs": [
				{
					"internalType": "address",
					"name": "",
					"type": "address"
				}
			],
			"stateMutability": "view",
			"type": "function"
		},
		{
			"inputs": [],
			"name": "USDC",
			"outputs": [
				{
					"internalType": "address",
					"name": "",
					"type": "address"
				}
			],
			"stateMutability": "view",
			"type": "function"
		},
		{
			"inputs": [
				{
					"internalType": "uint256",
					"name": "weiAmount",
					"type": "uint256"
				}
			],
			"name": "buyTokens",
			"outputs": [],
			"stateMutability": "payable",
			"type": "function"
		},
		{
			"inputs": [],
			"name": "cancelPresale",
			"outputs": [],
			"stateMutability": "nonpayable",
			"type": "function"
		},
		{
			"inputs": [],
			"name": "cancelled",
			"outputs": [
				{
					"internalType": "bool",
					"name": "",
					"type": "bool"
				}
			],
			"stateMutability": "view",
			"type": "function"
		},
		{
			"inputs": [
				{
					"internalType": "uint256",
					"name": "newOpeningTime",
					"type": "uint256"
				},
				{
					"internalType": "uint256",
					"name": "newClosingTime",
					"type": "uint256"
				}
			],
			"name": "changePresaleTimings",
			"outputs": [],
			"stateMutability": "nonpayable",
			"type": "function"
		},
		{
			"inputs": [],
			"name": "claimRefund",
			"outputs": [],
			"stateMutability": "nonpayable",
			"type": "function"
		},
		{
			"inputs": [],
			"name": "claimTokens",
			"outputs": [],
			"stateMutability": "nonpayable",
			"type": "function"
		},
		{
			"inputs": [],
			"name": "closingTime",
			"outputs": [
				{
					"internalType": "uint256",
					"name": "",
					"type": "uint256"
				}
			],
			"stateMutability": "view",
			"type": "function"
		},
		{
			"inputs": [],
			"name": "contributionsToClaim",
			"outputs": [
				{
					"internalType": "uint256",
					"name": "",
					"type": "uint256"
				}
			],
			"stateMutability": "view",
			"type": "function"
		},
		{
			"inputs": [
				{
					"internalType": "uint256",
					"name": "newClosingTime",
					"type": "uint256"
				}
			],
			"name": "extendTime",
			"outputs": [],
			"stateMutability": "nonpayable",
			"type": "function"
		},
		{
			"inputs": [],
			"name": "finalise",
			"outputs": [],
			"stateMutability": "nonpayable",
			"type": "function"
		},
		{
			"inputs": [],
			"name": "finalised",
			"outputs": [
				{
					"internalType": "bool",
					"name": "",
					"type": "bool"
				}
			],
			"stateMutability": "view",
			"type": "function"
		},
		{
			"inputs": [
				{
					"internalType": "address",
					"name": "beneficiary",
					"type": "address"
				}
			],
			"name": "getContribution",
			"outputs": [
				{
					"internalType": "uint256",
					"name": "",
					"type": "uint256"
				}
			],
			"stateMutability": "view",
			"type": "function"
		},
		{
			"inputs": [],
			"name": "hardcap",
			"outputs": [
				{
					"internalType": "uint256",
					"name": "",
					"type": "uint256"
				}
			],
			"stateMutability": "view",
			"type": "function"
		},
		{
			"inputs": [],
			"name": "hardcapReached",
			"outputs": [
				{
					"internalType": "bool",
					"name": "",
					"type": "bool"
				}
			],
			"stateMutability": "view",
			"type": "function"
		},
		{
			"inputs": [],
			"name": "hasClosed",
			"outputs": [
				{
					"internalType": "bool",
					"name": "",
					"type": "bool"
				}
			],
			"stateMutability": "view",
			"type": "function"
		},
		{
			"inputs": [],
			"name": "individualCap",
			"outputs": [
				{
					"internalType": "uint256",
					"name": "",
					"type": "uint256"
				}
			],
			"stateMutability": "view",
			"type": "function"
		},
		{
			"inputs": [],
			"name": "isOpen",
			"outputs": [
				{
					"internalType": "bool",
					"name": "",
					"type": "bool"
				}
			],
			"stateMutability": "view",
			"type": "function"
		},
		{
			"inputs": [],
			"name": "numTokensToAddToLP",
			"outputs": [
				{
					"internalType": "uint256",
					"name": "",
					"type": "uint256"
				}
			],
			"stateMutability": "view",
			"type": "function"
		},
		{
			"inputs": [],
			"name": "openingTime",
			"outputs": [
				{
					"internalType": "uint256",
					"name": "",
					"type": "uint256"
				}
			],
			"stateMutability": "view",
			"type": "function"
		},
		{
			"inputs": [],
			"name": "operator",
			"outputs": [
				{
					"internalType": "address",
					"name": "",
					"type": "address"
				}
			],
			"stateMutability": "view",
			"type": "function"
		},
		{
			"inputs": [],
			"name": "owner",
			"outputs": [
				{
					"internalType": "address",
					"name": "",
					"type": "address"
				}
			],
			"stateMutability": "view",
			"type": "function"
		},
		{
			"inputs": [],
			"name": "paymentInWeth",
			"outputs": [
				{
					"internalType": "bool",
					"name": "",
					"type": "bool"
				}
			],
			"stateMutability": "view",
			"type": "function"
		},
		{
			"inputs": [],
			"name": "paymentToken",
			"outputs": [
				{
					"internalType": "contract IERC20",
					"name": "",
					"type": "address"
				}
			],
			"stateMutability": "view",
			"type": "function"
		},
		{
			"inputs": [],
			"name": "percentFundsToAddToLP",
			"outputs": [
				{
					"internalType": "uint256",
					"name": "",
					"type": "uint256"
				}
			],
			"stateMutability": "view",
			"type": "function"
		},
		{
			"inputs": [],
			"name": "rate",
			"outputs": [
				{
					"internalType": "uint256",
					"name": "",
					"type": "uint256"
				}
			],
			"stateMutability": "view",
			"type": "function"
		},
		{
			"inputs": [],
			"name": "renounceOwnership",
			"outputs": [],
			"stateMutability": "nonpayable",
			"type": "function"
		},
		{
			"inputs": [
				{
					"internalType": "uint256",
					"name": "_rate",
					"type": "uint256"
				},
				{
					"internalType": "address",
					"name": "_wallet",
					"type": "address"
				},
				{
					"internalType": "address",
					"name": "_token",
					"type": "address"
				},
				{
					"internalType": "uint256",
					"name": "_hardcap",
					"type": "uint256"
				},
				{
					"internalType": "uint256",
					"name": "_softcap",
					"type": "uint256"
				},
				{
					"internalType": "uint256",
					"name": "_individualCap",
					"type": "uint256"
				},
				{
					"internalType": "address",
					"name": "_paymentToken",
					"type": "address"
				},
				{
					"internalType": "uint256",
					"name": "_openingTime",
					"type": "uint256"
				},
				{
					"internalType": "uint256",
					"name": "_closingTime",
					"type": "uint256"
				},
				{
					"internalType": "uint256",
					"name": "_numTokensToAddToLP",
					"type": "uint256"
				},
				{
					"internalType": "uint256",
					"name": "_percentFundsToAddToLP",
					"type": "uint256"
				},
				{
					"internalType": "bool",
					"name": "doSafetyCheck",
					"type": "bool"
				}
			],
			"name": "setUpPresale",
			"outputs": [],
			"stateMutability": "nonpayable",
			"type": "function"
		},
		{
			"inputs": [
				{
					"internalType": "uint256",
					"name": "_rate",
					"type": "uint256"
				},
				{
					"internalType": "address",
					"name": "_wallet",
					"type": "address"
				},
				{
					"internalType": "address",
					"name": "_token",
					"type": "address"
				},
				{
					"internalType": "uint256",
					"name": "_hardcap",
					"type": "uint256"
				},
				{
					"internalType": "uint256",
					"name": "_softcap",
					"type": "uint256"
				},
				{
					"internalType": "uint256",
					"name": "_individualCap",
					"type": "uint256"
				},
				{
					"internalType": "address",
					"name": "_paymentToken",
					"type": "address"
				},
				{
					"internalType": "uint256",
					"name": "_openingTime",
					"type": "uint256"
				},
				{
					"internalType": "uint256",
					"name": "_closingTime",
					"type": "uint256"
				},
				{
					"internalType": "uint256",
					"name": "_numTokensToAddToLP",
					"type": "uint256"
				},
				{
					"internalType": "uint256",
					"name": "_percentFundsToAddToLP",
					"type": "uint256"
				}
			],
			"name": "setUpPresale",
			"outputs": [],
			"stateMutability": "nonpayable",
			"type": "function"
		},
		{
			"inputs": [],
			"name": "softcap",
			"outputs": [
				{
					"internalType": "uint256",
					"name": "",
					"type": "uint256"
				}
			],
			"stateMutability": "view",
			"type": "function"
		},
		{
			"inputs": [],
			"name": "softcapReached",
			"outputs": [
				{
					"internalType": "bool",
					"name": "",
					"type": "bool"
				}
			],
			"stateMutability": "view",
			"type": "function"
		},
		{
			"inputs": [],
			"name": "swapRouter",
			"outputs": [
				{
					"internalType": "contract ISwapRouter02",
					"name": "",
					"type": "address"
				}
			],
			"stateMutability": "view",
			"type": "function"
		},
		{
			"inputs": [],
			"name": "token",
			"outputs": [
				{
					"internalType": "contract IERC20",
					"name": "",
					"type": "address"
				}
			],
			"stateMutability": "view",
			"type": "function"
		},
		{
			"inputs": [
				{
					"internalType": "address",
					"name": "newOwner",
					"type": "address"
				}
			],
			"name": "transferOwnership",
			"outputs": [],
			"stateMutability": "nonpayable",
			"type": "function"
		},
		{
			"inputs": [],
			"name": "wallet",
			"outputs": [
				{
					"internalType": "address",
					"name": "",
					"type": "address"
				}
			],
			"stateMutability": "view",
			"type": "function"
		},
		{
			"inputs": [],
			"name": "weiRaised",
			"outputs": [
				{
					"internalType": "uint256",
					"name": "",
					"type": "uint256"
				}
			],
			"stateMutability": "view",
			"type": "function"
		},
		{
			"stateMutability": "payable",
			"type": "receive"
		}
	]
}