{
	"data": {
		"bytecode": {
			"linkReferences": {},
			"object": "60a06040523480156200001157600080fd5b5060405162001b2438038062001b248339810160408190526200003491620001da565b600080546001600160a01b031916339081178255604051909182917f8be0079c531659141344cd1fd0a4f28419497f9722a3daafe3b4186f6b6457e0908290a3506001600160a01b038216620000f75760405162461bcd60e51b815260206004820152603a60248201527f4d696e6f7269747956657374696e674d616e616765723a204f70657261746f7260448201527f2063616e277420626520746865207a65726f206164647265737300000000000060648201526084015b60405180910390fd5b6001600160a01b038116620001865760405162461bcd60e51b815260206004820152604860248201527f4d696e6f7269747956657374696e674d616e616765723a204d696e6f7269747960448201527f20746f6b656e20616464726573732063616e277420626520746865207a65726f606482015267206164647265737360c01b608482015260a401620000ee565b600380546001600160a01b0319166001600160a01b03939093169290921790915560601b6001600160601b03191660805262000211565b80516001600160a01b0381168114620001d557600080fd5b919050565b60008060408385031215620001ed578182fd5b620001f883620001bd565b91506200020860208401620001bd565b90509250929050565b60805160601c6118e66200023e600039600081816101c7015281816107d10152610e6a01526118e66000f3fe608060405234801561001057600080fd5b50600436106100f55760003560e01c8063715018a61161009757806398fb7a981161006657806398fb7a98146102265780639c86aee8146102395780639f91d48414610242578063f2fde38b1461025557600080fd5b8063715018a6146101fc57806384f61358146102045780638adc760d1461020d5780638da5cb5b1461021557600080fd5b806356329ee6116100d357806356329ee61461018e578063570ca735146101975780635a533efd146101c25780636d3cbe21146101e957600080fd5b806320f6b0a9146100fa57806322811b9f146101585780633e34e66d1461016d575b600080fd5b61010d6101083660046115c5565b610268565b604080519889526020890197909752958701949094526060860192909252608085015260a08401526001600160a01b031660c0830152151560e0820152610100015b60405180910390f35b61016b6101663660046115f5565b610373565b005b61018061017b36600461165e565b61060f565b60405190815260200161014f565b61018060065481565b6003546101aa906001600160a01b031681565b6040516001600160a01b03909116815260200161014f565b6101aa7f000000000000000000000000000000000000000000000000000000000000000081565b61010d6101f73660046115c5565b610ba5565b61016b610c09565b61018060055481565b61016b610c7d565b6000546001600160a01b03166101aa565b61016b6102343660046115c5565b610f45565b61018060075481565b610180610250366004611616565b61114a565b61016b61026336600461158f565b6111a5565b60008060008060008060008060048054905089106102a15760405162461bcd60e51b81526004016102989061179e565b60405180910390fd5b600060048a815481106102c457634e487b7160e01b600052603260045260246000fd5b600091825260209182902060408051610100810182526007909302909101805480845260018201549484018590526002820154928401839052600382015460608501819052600483015460808601819052600584015460a087018190526006909401546001600160a01b03811660c0880181905260ff600160a01b90920491909116151560e0909701879052929f50959d50929b50919950929750919550909350915050919395975091939597565b6003546001600160a01b031633148061039657506000546001600160a01b031633145b6103b25760405162461bcd60e51b815260040161029890611741565b60045482106103d35760405162461bcd60e51b81526004016102989061179e565b4281116104365760405162461bcd60e51b8152602060048201526038602482015260008051602061189183398151915260448201527f6d75737420737461727420696e207468652066757475726500000000000000006064820152608401610298565b6004828154811061045757634e487b7160e01b600052603260045260246000fd5b906000526020600020906007020160060160149054906101000a900460ff16156104c45760405162461bcd60e51b815260206004820152602a60248201526000805160206118918339815191526044820152691251081c995b5bdd995960b21b6064820152608401610298565b7f2ee9904f2125da26979bf6b3ffdff419c60cd5b2bb1fc5be175f8fc60218ce89826004848154811061050757634e487b7160e01b600052603260045260246000fd5b6000918252602091829020600460079092020101546040805193845291830152810183905260600160405180910390a1600061057e6004848154811061055d57634e487b7160e01b600052603260045260246000fd5b9060005260206000209060070201600301548361128f90919063ffffffff16565b905081600484815481106105a257634e487b7160e01b600052603260045260246000fd5b90600052602060002090600702016004018190555080600484815481106105d957634e487b7160e01b600052603260045260246000fd5b906000526020600020906007020160050181905550826006541415610605576106006112f7565b505050565b61060083826113e0565b600080546001600160a01b0316331461063a5760405162461bcd60e51b81526004016102989061170c565b606486106106b05760405162461bcd60e51b815260206004820152603d60248201527f4d696e6f7269747956657374696e674d616e616765723a2043616e277420766560448201527f7374203e2031303025206f6620746f6b656e73207065722065706f63680000006064820152608401610298565b42841015806106bd575083155b61072f5760405162461bcd60e51b815260206004820152603f60248201527f4d696e6f7269747956657374696e674d616e616765723a20526577617264732060448201527f63616e277420626567696e2076657374696e6720696e207468652070617374006064820152608401610298565b6001600160a01b0383166107a45760405162461bcd60e51b8152602060048201526042602482015260008051602061189183398151915260448201527f72656365697665722063616e277420626520746865207a65726f206164647265606482015261737360f01b608482015260a401610298565b6007546000906107b4908961128f565b905082156108fe576040516370a0823160e01b81523060048201527f00000000000000000000000000000000000000000000000000000000000000006001600160a01b0316906370a082319060240160206040518083038186803b15801561081b57600080fd5b505afa15801561082f573d6000803e3d6000fd5b505050506040513d601f19601f8201168201806040525081019061085391906115dd565b8111156108fe5760405162461bcd60e51b815260206004820152606760248201527f4d696e6f7269747956657374696e674d616e616765723a204e6f7420656e6f7560448201527f676820746f6b656e7320696e20636f6e747261637420746f20766573742e205460648201527f72616e7366657220746f6b656e73206265666f726520616464696e672061207360848201526663686564756c6560c81b60a482015260c401610298565b600085156109225761091d6109168862015180611408565b879061128f565b610924565b855b905060006040518061010001604052808b815260200161095860646109528d8f61140890919063ffffffff16565b90611487565b8152600060208201526040016109718a62015180611408565b815260208082018a905260408083018690526001600160a01b03808b16606080860191909152600060809586018190526004805460018181018355828452895160079283027f8a35acfbc15ff81a39ae7d344fd709f28e8600b4aa8c65c6b64bfe7fe36bd19b810191909155978a01517f8a35acfbc15ff81a39ae7d344fd709f28e8600b4aa8c65c6b64bfe7fe36bd19c890155958901517f8a35acfbc15ff81a39ae7d344fd709f28e8600b4aa8c65c6b64bfe7fe36bd19d880155928801517f8a35acfbc15ff81a39ae7d344fd709f28e8600b4aa8c65c6b64bfe7fe36bd19e870155958701517f8a35acfbc15ff81a39ae7d344fd709f28e8600b4aa8c65c6b64bfe7fe36bd19f86015560a08701517f8a35acfbc15ff81a39ae7d344fd709f28e8600b4aa8c65c6b64bfe7fe36bd1a086015560c08701517f8a35acfbc15ff81a39ae7d344fd709f28e8600b4aa8c65c6b64bfe7fe36bd1a1909501805460e08901511515600160a01b026001600160a81b031990911696909416959095179290921790935591879055915492935091610b0d9190611837565b9050610b1981846113e0565b815160208084015160608086015160808088015160a0808a015160c0808c0151604080518d81529a8b019b909b52898b019890985295880194909452918601528401526001600160a01b039091169082015290517fff7d5b9238fdf530d746ea0e1b517671e3e0fd1414a36e69a57867dc707dc65a9181900360e00190a19a9950505050505050505050565b60048181548110610bb557600080fd5b6000918252602090912060079091020180546001820154600283015460038401546004850154600586015460069096015494965092949193909291906001600160a01b03811690600160a01b900460ff1688565b6000546001600160a01b03163314610c335760405162461bcd60e51b81526004016102989061170c565b600080546040516001600160a01b03909116907f8be0079c531659141344cd1fd0a4f28419497f9722a3daafe3b4186f6b6457e0908390a3600080546001600160a01b0319169055565b4260055411158015610c90575060055415155b15610f43576000600460065481548110610cba57634e487b7160e01b600052603260045260246000fd5b60009182526020808320604080516101008101825260079094029091018054845260018101549284019290925260028201549083015260038101546060830181905260048201546080840152600582015460a08401526006909101546001600160a01b03811660c084015260ff600160a01b90910416151560e0830152909250610d44904261128f565b60058190556020830151835160408501519293509091610d64908361128f565b1115610dbf5760408301518351610d7a916114c9565b90506000600460065481548110610da157634e487b7160e01b600052603260045260246000fd5b60009182526020822060056007909202018101929092559055610df9565b81600460065481548110610de357634e487b7160e01b600052603260045260246000fd5b9060005260206000209060070201600501819055505b6040830151610e08908261128f565b600460065481548110610e2b57634e487b7160e01b600052603260045260246000fd5b600091825260209091206007909102016002015560c083015160405163a9059cbb60e01b81526001600160a01b039182166004820152602481018390527f00000000000000000000000000000000000000000000000000000000000000009091169063a9059cbb90604401602060405180830381600087803b158015610eb057600080fd5b505af1158015610ec4573d6000803e3d6000fd5b505050506040513d601f19601f82011682018060405250810190610ee891906115a9565b508260c001516001600160a01b03167fd02fe226269dcd9a9e174ef0dd99b931a3f1475ce6bceeb671b2f45b4aa1ccce60065483604051610f33929190918252602082015260400190565b60405180910390a26106006112f7565b565b6003546001600160a01b0316331480610f6857506000546001600160a01b031633145b610f845760405162461bcd60e51b815260040161029890611741565b6004548110610fa55760405162461bcd60e51b81526004016102989061179e565b60048181548110610fc657634e487b7160e01b600052603260045260246000fd5b906000526020600020906007020160060160149054906101000a900460ff161561103b5760405162461bcd60e51b81526020600482015260326024820152600080516020611891833981519152604482015271125108185b1c9958591e481c995b5bdd995960721b6064820152608401610298565b60016004828154811061105e57634e487b7160e01b600052603260045260246000fd5b906000526020600020906007020160060160146101000a81548160ff0219169083151502179055506110ff600482815481106110aa57634e487b7160e01b600052603260045260246000fd5b9060005260206000209060070201600201546110f9600484815481106110e057634e487b7160e01b600052603260045260246000fd5b60009182526020909120600791820201549054906114c9565b9061128f565b600755600654811415611114576111146112f7565b6040518181527f3a9782b2e3f78dee6de9b41f31d0f34064ee9d7bd4a79e5e3f7e0c1ca528bba39060200160405180910390a150565b6003546000906001600160a01b031633148061117057506000546001600160a01b031633145b61118c5760405162461bcd60e51b815260040161029890611741565b61119b8686868686600161060f565b9695505050505050565b6000546001600160a01b031633146111cf5760405162461bcd60e51b81526004016102989061170c565b6001600160a01b0381166112345760405162461bcd60e51b815260206004820152602660248201527f4f776e61626c653a206e6577206f776e657220697320746865207a65726f206160448201526564647265737360d01b6064820152608401610298565b600080546040516001600160a01b03808516939216917f8be0079c531659141344cd1fd0a4f28419497f9722a3daafe3b4186f6b6457e091a3600080546001600160a01b0319166001600160a01b0392909216919091179055565b60008061129c83856117e0565b9050838110156112ee5760405162461bcd60e51b815260206004820152601b60248201527f536166654d6174683a206164646974696f6e206f766572666c6f7700000000006044820152606401610298565b90505b92915050565b60045460005b818110156113dc57600654811415801561135457506004818154811061133357634e487b7160e01b600052603260045260246000fd5b906000526020600020906007020160060160149054906101000a900460ff16155b156113ca5760006004828154811061137c57634e487b7160e01b600052603260045260246000fd5b9060005260206000209060070201600501549050806000146113c8574281116113a85760055560065550565b6005548110806113b85750600554155b156113c857600581905560068290555b505b806113d48161184e565b9150506112fd565b5050565b6005548110806113f05750600554155b80156113fb57508015155b156113dc57600555600655565b600082611417575060006112f1565b60006114238385611818565b90508261143085836117f8565b146112ee5760405162461bcd60e51b815260206004820152602160248201527f536166654d6174683a206d756c7469706c69636174696f6e206f766572666c6f6044820152607760f81b6064820152608401610298565b60006112ee83836040518060400160405280601a81526020017f536166654d6174683a206469766973696f6e206279207a65726f00000000000081525061150b565b60006112ee83836040518060400160405280601e81526020017f536166654d6174683a207375627472616374696f6e206f766572666c6f770000815250611542565b6000818361152c5760405162461bcd60e51b815260040161029891906116b9565b50600061153984866117f8565b95945050505050565b600081848411156115665760405162461bcd60e51b815260040161029891906116b9565b5060006115398486611837565b80356001600160a01b038116811461158a57600080fd5b919050565b6000602082840312156115a0578081fd5b6112ee82611573565b6000602082840312156115ba578081fd5b81516112ee8161187f565b6000602082840312156115d6578081fd5b5035919050565b6000602082840312156115ee578081fd5b5051919050565b60008060408385031215611607578081fd5b50508035926020909101359150565b600080600080600060a0868803121561162d578081fd5b8535945060208601359350604086013592506060860135915061165260808701611573565b90509295509295909350565b60008060008060008060c08789031215611676578081fd5b8635955060208701359450604087013593506060870135925061169b60808801611573565b915060a08701356116ab8161187f565b809150509295509295509295565b6000602080835283518082850152825b818110156116e5578581018301518582016040015282016116c9565b818111156116f65783604083870101525b50601f01601f1916929092016040019392505050565b6020808252818101527f4f776e61626c653a2063616c6c6572206973206e6f7420746865206f776e6572604082015260600190565b6020808252603c908201527f4d696e6f7269747956657374696e674d616e616765723a206f6e6c792061636360408201527f65737369626c65206279206f70657261746f72206f72206f776e657200000000606082015260800190565b60208082526022908201527f4d696e6f7269747956657374696e674d616e616765723a20696e76616c696420604082015261125160f21b606082015260800190565b600082198211156117f3576117f3611869565b500190565b60008261181357634e487b7160e01b81526012600452602481fd5b500490565b600081600019048311821515161561183257611832611869565b500290565b60008282101561184957611849611869565b500390565b600060001982141561186257611862611869565b5060010190565b634e487b7160e01b600052601160045260246000fd5b801515811461188d57600080fd5b5056fe4d696e6f7269747956657374696e674d616e616765723a2076657374696e6720a2646970667358221220da48155c03d9b838f3d98686ff66a4657208d7d5ecc042531b109e5f1bc0cb7e64736f6c63430008040033",
			"opcodes": "PUSH1 0xA0 PUSH1 0x40 MSTORE CALLVALUE DUP1 ISZERO PUSH3 0x11 JUMPI PUSH1 0x0 DUP1 REVERT JUMPDEST POP PUSH1 0x40 MLOAD PUSH3 0x1B24 CODESIZE SUB DUP1 PUSH3 0x1B24 DUP4 CODECOPY DUP2 ADD PUSH1 0x40 DUP2 SWAP1 MSTORE PUSH3 0x34 SWAP2 PUSH3 0x1DA JUMP JUMPDEST PUSH1 0x0 DUP1 SLOAD PUSH1 0x1 PUSH1 0x1 PUSH1 0xA0 SHL SUB NOT AND CALLER SWAP1 DUP2 OR DUP3 SSTORE PUSH1 0x40 MLOAD SWAP1 SWAP2 DUP3 SWAP2 PUSH32 0x8BE0079C531659141344CD1FD0A4F28419497F9722A3DAAFE3B4186F6B6457E0 SWAP1 DUP3 SWAP1 LOG3 POP PUSH1 0x1 PUSH1 0x1 PUSH1 0xA0 SHL SUB DUP3 AND PUSH3 0xF7 JUMPI PUSH1 0x40 MLOAD PUSH3 0x461BCD PUSH1 0xE5 SHL DUP2 MSTORE PUSH1 0x20 PUSH1 0x4 DUP3 ADD MSTORE PUSH1 0x3A PUSH1 0x24 DUP3 ADD MSTORE PUSH32 0x4D696E6F7269747956657374696E674D616E616765723A204F70657261746F72 PUSH1 0x44 DUP3 ADD MSTORE PUSH32 0x2063616E277420626520746865207A65726F2061646472657373000000000000 PUSH1 0x64 DUP3 ADD MSTORE PUSH1 0x84 ADD JUMPDEST PUSH1 0x40 MLOAD DUP1 SWAP2 SUB SWAP1 REVERT JUMPDEST PUSH1 0x1 PUSH1 0x1 PUSH1 0xA0 SHL SUB DUP2 AND PUSH3 0x186 JUMPI PUSH1 0x40 MLOAD PUSH3 0x461BCD PUSH1 0xE5 SHL DUP2 MSTORE PUSH1 0x20 PUSH1 0x4 DUP3 ADD MSTORE PUSH1 0x48 PUSH1 0x24 DUP3 ADD MSTORE PUSH32 0x4D696E6F7269747956657374696E674D616E616765723A204D696E6F72697479 PUSH1 0x44 DUP3 ADD MSTORE PUSH32 0x20746F6B656E20616464726573732063616E277420626520746865207A65726F PUSH1 0x64 DUP3 ADD MSTORE PUSH8 0x2061646472657373 PUSH1 0xC0 SHL PUSH1 0x84 DUP3 ADD MSTORE PUSH1 0xA4 ADD PUSH3 0xEE JUMP JUMPDEST PUSH1 0x3 DUP1 SLOAD PUSH1 0x1 PUSH1 0x1 PUSH1 0xA0 SHL SUB NOT AND PUSH1 0x1 PUSH1 0x1 PUSH1 0xA0 SHL SUB SWAP4 SWAP1 SWAP4 AND SWAP3 SWAP1 SWAP3 OR SWAP1 SWAP2 SSTORE PUSH1 0x60 SHL PUSH1 0x1 PUSH1 0x1 PUSH1 0x60 SHL SUB NOT AND PUSH1 0x80 MSTORE PUSH3 0x211 JUMP JUMPDEST DUP1 MLOAD PUSH1 0x1 PUSH1 0x1 PUSH1 0xA0 SHL SUB DUP2 AND DUP2 EQ PUSH3 0x1D5 JUMPI PUSH1 0x0 DUP1 REVERT JUMPDEST SWAP2 SWAP1 POP JUMP JUMPDEST PUSH1 0x0 DUP1 PUSH1 0x40 DUP4 DUP6 SUB SLT ISZERO PUSH3 0x1ED JUMPI DUP2 DUP3 REVERT JUMPDEST PUSH3 0x1F8 DUP4 PUSH3 0x1BD JUMP JUMPDEST SWAP2 POP PUSH3 0x208 PUSH1 0x20 DUP5 ADD PUSH3 0x1BD JUMP JUMPDEST SWAP1 POP SWAP3 POP SWAP3 SWAP1 POP JUMP JUMPDEST PUSH1 0x80 MLOAD PUSH1 0x60 SHR PUSH2 0x18E6 PUSH3 0x23E PUSH1 0x0 CODECOPY PUSH1 0x0 DUP2 DUP2 PUSH2 0x1C7 ADD MSTORE DUP2 DUP2 PUSH2 0x7D1 ADD MSTORE PUSH2 0xE6A ADD MSTORE PUSH2 0x18E6 PUSH1 0x0 RETURN INVALID PUSH1 0x80 PUSH1 0x40 MSTORE CALLVALUE DUP1 ISZERO PUSH2 0x10 JUMPI PUSH1 0x0 DUP1 REVERT JUMPDEST POP PUSH1 0x4 CALLDATASIZE LT PUSH2 0xF5 JUMPI PUSH1 0x0 CALLDATALOAD PUSH1 0xE0 SHR DUP1 PUSH4 0x715018A6 GT PUSH2 0x97 JUMPI DUP1 PUSH4 0x98FB7A98 GT PUSH2 0x66 JUMPI DUP1 PUSH4 0x98FB7A98 EQ PUSH2 0x226 JUMPI DUP1 PUSH4 0x9C86AEE8 EQ PUSH2 0x239 JUMPI DUP1 PUSH4 0x9F91D484 EQ PUSH2 0x242 JUMPI DUP1 PUSH4 0xF2FDE38B EQ PUSH2 0x255 JUMPI PUSH1 0x0 DUP1 REVERT JUMPDEST DUP1 PUSH4 0x715018A6 EQ PUSH2 0x1FC JUMPI DUP1 PUSH4 0x84F61358 EQ PUSH2 0x204 JUMPI DUP1 PUSH4 0x8ADC760D EQ PUSH2 0x20D JUMPI DUP1 PUSH4 0x8DA5CB5B EQ PUSH2 0x215 JUMPI PUSH1 0x0 DUP1 REVERT JUMPDEST DUP1 PUSH4 0x56329EE6 GT PUSH2 0xD3 JUMPI DUP1 PUSH4 0x56329EE6 EQ PUSH2 0x18E JUMPI DUP1 PUSH4 0x570CA735 EQ PUSH2 0x197 JUMPI DUP1 PUSH4 0x5A533EFD EQ PUSH2 0x1C2 JUMPI DUP1 PUSH4 0x6D3CBE21 EQ PUSH2 0x1E9 JUMPI PUSH1 0x0 DUP1 REVERT JUMPDEST DUP1 PUSH4 0x20F6B0A9 EQ PUSH2 0xFA JUMPI DUP1 PUSH4 0x22811B9F EQ PUSH2 0x158 JUMPI DUP1 PUSH4 0x3E34E66D EQ PUSH2 0x16D JUMPI JUMPDEST PUSH1 0x0 DUP1 REVERT JUMPDEST PUSH2 0x10D PUSH2 0x108 CALLDATASIZE PUSH1 0x4 PUSH2 0x15C5 JUMP JUMPDEST PUSH2 0x268 JUMP JUMPDEST PUSH1 0x40 DUP1 MLOAD SWAP9 DUP10 MSTORE PUSH1 0x20 DUP10 ADD SWAP8 SWAP1 SWAP8 MSTORE SWAP6 DUP8 ADD SWAP5 SWAP1 SWAP5 MSTORE PUSH1 0x60 DUP7 ADD SWAP3 SWAP1 SWAP3 MSTORE PUSH1 0x80 DUP6 ADD MSTORE PUSH1 0xA0 DUP5 ADD MSTORE PUSH1 0x1 PUSH1 0x1 PUSH1 0xA0 SHL SUB AND PUSH1 0xC0 DUP4 ADD MSTORE ISZERO ISZERO PUSH1 0xE0 DUP3 ADD MSTORE PUSH2 0x100 ADD JUMPDEST PUSH1 0x40 MLOAD DUP1 SWAP2 SUB SWAP1 RETURN JUMPDEST PUSH2 0x16B PUSH2 0x166 CALLDATASIZE PUSH1 0x4 PUSH2 0x15F5 JUMP JUMPDEST PUSH2 0x373 JUMP JUMPDEST STOP JUMPDEST PUSH2 0x180 PUSH2 0x17B CALLDATASIZE PUSH1 0x4 PUSH2 0x165E JUMP JUMPDEST PUSH2 0x60F JUMP JUMPDEST PUSH1 0x40 MLOAD SWAP1 DUP2 MSTORE PUSH1 0x20 ADD PUSH2 0x14F JUMP JUMPDEST PUSH2 0x180 PUSH1 0x6 SLOAD DUP2 JUMP JUMPDEST PUSH1 0x3 SLOAD PUSH2 0x1AA SWAP1 PUSH1 0x1 PUSH1 0x1 PUSH1 0xA0 SHL SUB AND DUP2 JUMP JUMPDEST PUSH1 0x40 MLOAD PUSH1 0x1 PUSH1 0x1 PUSH1 0xA0 SHL SUB SWAP1 SWAP2 AND DUP2 MSTORE PUSH1 0x20 ADD PUSH2 0x14F JUMP JUMPDEST PUSH2 0x1AA PUSH32 0x0 DUP2 JUMP JUMPDEST PUSH2 0x10D PUSH2 0x1F7 CALLDATASIZE PUSH1 0x4 PUSH2 0x15C5 JUMP JUMPDEST PUSH2 0xBA5 JUMP JUMPDEST PUSH2 0x16B PUSH2 0xC09 JUMP JUMPDEST PUSH2 0x180 PUSH1 0x5 SLOAD DUP2 JUMP JUMPDEST PUSH2 0x16B PUSH2 0xC7D JUMP JUMPDEST PUSH1 0x0 SLOAD PUSH1 0x1 PUSH1 0x1 PUSH1 0xA0 SHL SUB AND PUSH2 0x1AA JUMP JUMPDEST PUSH2 0x16B PUSH2 0x234 CALLDATASIZE PUSH1 0x4 PUSH2 0x15C5 JUMP JUMPDEST PUSH2 0xF45 JUMP JUMPDEST PUSH2 0x180 PUSH1 0x7 SLOAD DUP2 JUMP JUMPDEST PUSH2 0x180 PUSH2 0x250 CALLDATASIZE PUSH1 0x4 PUSH2 0x1616 JUMP JUMPDEST PUSH2 0x114A JUMP JUMPDEST PUSH2 0x16B PUSH2 0x263 CALLDATASIZE PUSH1 0x4 PUSH2 0x158F JUMP JUMPDEST PUSH2 0x11A5 JUMP JUMPDEST PUSH1 0x0 DUP1 PUSH1 0x0 DUP1 PUSH1 0x0 DUP1 PUSH1 0x0 DUP1 PUSH1 0x4 DUP1 SLOAD SWAP1 POP DUP10 LT PUSH2 0x2A1 JUMPI PUSH1 0x40 MLOAD PUSH3 0x461BCD PUSH1 0xE5 SHL DUP2 MSTORE PUSH1 0x4 ADD PUSH2 0x298 SWAP1 PUSH2 0x179E JUMP JUMPDEST PUSH1 0x40 MLOAD DUP1 SWAP2 SUB SWAP1 REVERT JUMPDEST PUSH1 0x0 PUSH1 0x4 DUP11 DUP2 SLOAD DUP2 LT PUSH2 0x2C4 JUMPI PUSH4 0x4E487B71 PUSH1 0xE0 SHL PUSH1 0x0 MSTORE PUSH1 0x32 PUSH1 0x4 MSTORE PUSH1 0x24 PUSH1 0x0 REVERT JUMPDEST PUSH1 0x0 SWAP2 DUP3 MSTORE PUSH1 0x20 SWAP2 DUP3 SWAP1 KECCAK256 PUSH1 0x40 DUP1 MLOAD PUSH2 0x100 DUP2 ADD DUP3 MSTORE PUSH1 0x7 SWAP1 SWAP4 MUL SWAP1 SWAP2 ADD DUP1 SLOAD DUP1 DUP5 MSTORE PUSH1 0x1 DUP3 ADD SLOAD SWAP5 DUP5 ADD DUP6 SWAP1 MSTORE PUSH1 0x2 DUP3 ADD SLOAD SWAP3 DUP5 ADD DUP4 SWAP1 MSTORE PUSH1 0x3 DUP3 ADD SLOAD PUSH1 0x60 DUP6 ADD DUP2 SWAP1 MSTORE PUSH1 0x4 DUP4 ADD SLOAD PUSH1 0x80 DUP7 ADD DUP2 SWAP1 MSTORE PUSH1 0x5 DUP5 ADD SLOAD PUSH1 0xA0 DUP8 ADD DUP2 SWAP1 MSTORE PUSH1 0x6 SWAP1 SWAP5 ADD SLOAD PUSH1 0x1 PUSH1 0x1 PUSH1 0xA0 SHL SUB DUP2 AND PUSH1 0xC0 DUP9 ADD DUP2 SWAP1 MSTORE PUSH1 0xFF PUSH1 0x1 PUSH1 0xA0 SHL SWAP1 SWAP3 DIV SWAP2 SWAP1 SWAP2 AND ISZERO ISZERO PUSH1 0xE0 SWAP1 SWAP8 ADD DUP8 SWAP1 MSTORE SWAP3 SWAP16 POP SWAP6 SWAP14 POP SWAP3 SWAP12 POP SWAP2 SWAP10 POP SWAP3 SWAP8 POP SWAP2 SWAP6 POP SWAP1 SWAP4 POP SWAP2 POP POP SWAP2 SWAP4 SWAP6 SWAP8 POP SWAP2 SWAP4 SWAP6 SWAP8 JUMP JUMPDEST PUSH1 0x3 SLOAD PUSH1 0x1 PUSH1 0x1 PUSH1 0xA0 SHL SUB AND CALLER EQ DUP1 PUSH2 0x396 JUMPI POP PUSH1 0x0 SLOAD PUSH1 0x1 PUSH1 0x1 PUSH1 0xA0 SHL SUB AND CALLER EQ JUMPDEST PUSH2 0x3B2 JUMPI PUSH1 0x40 MLOAD PUSH3 0x461BCD PUSH1 0xE5 SHL DUP2 MSTORE PUSH1 0x4 ADD PUSH2 0x298 SWAP1 PUSH2 0x1741 JUMP JUMPDEST PUSH1 0x4 SLOAD DUP3 LT PUSH2 0x3D3 JUMPI PUSH1 0x40 MLOAD PUSH3 0x461BCD PUSH1 0xE5 SHL DUP2 MSTORE PUSH1 0x4 ADD PUSH2 0x298 SWAP1 PUSH2 0x179E JUMP JUMPDEST TIMESTAMP DUP2 GT PUSH2 0x436 JUMPI PUSH1 0x40 MLOAD PUSH3 0x461BCD PUSH1 0xE5 SHL DUP2 MSTORE PUSH1 0x20 PUSH1 0x4 DUP3 ADD MSTORE PUSH1 0x38 PUSH1 0x24 DUP3 ADD MSTORE PUSH1 0x0 DUP1 MLOAD PUSH1 0x20 PUSH2 0x1891 DUP4 CODECOPY DUP2 MLOAD SWAP2 MSTORE PUSH1 0x44 DUP3 ADD MSTORE PUSH32 0x6D75737420737461727420696E20746865206675747572650000000000000000 PUSH1 0x64 DUP3 ADD MSTORE PUSH1 0x84 ADD PUSH2 0x298 JUMP JUMPDEST PUSH1 0x4 DUP3 DUP2 SLOAD DUP2 LT PUSH2 0x457 JUMPI PUSH4 0x4E487B71 PUSH1 0xE0 SHL PUSH1 0x0 MSTORE PUSH1 0x32 PUSH1 0x4 MSTORE PUSH1 0x24 PUSH1 0x0 REVERT JUMPDEST SWAP1 PUSH1 0x0 MSTORE PUSH1 0x20 PUSH1 0x0 KECCAK256 SWAP1 PUSH1 0x7 MUL ADD PUSH1 0x6 ADD PUSH1 0x14 SWAP1 SLOAD SWAP1 PUSH2 0x100 EXP SWAP1 DIV PUSH1 0xFF AND ISZERO PUSH2 0x4C4 JUMPI PUSH1 0x40 MLOAD PUSH3 0x461BCD PUSH1 0xE5 SHL DUP2 MSTORE PUSH1 0x20 PUSH1 0x4 DUP3 ADD MSTORE PUSH1 0x2A PUSH1 0x24 DUP3 ADD MSTORE PUSH1 0x0 DUP1 MLOAD PUSH1 0x20 PUSH2 0x1891 DUP4 CODECOPY DUP2 MLOAD SWAP2 MSTORE PUSH1 0x44 DUP3 ADD MSTORE PUSH10 0x1251081C995B5BDD9959 PUSH1 0xB2 SHL PUSH1 0x64 DUP3 ADD MSTORE PUSH1 0x84 ADD PUSH2 0x298 JUMP JUMPDEST PUSH32 0x2EE9904F2125DA26979BF6B3FFDFF419C60CD5B2BB1FC5BE175F8FC60218CE89 DUP3 PUSH1 0x4 DUP5 DUP2 SLOAD DUP2 LT PUSH2 0x507 JUMPI PUSH4 0x4E487B71 PUSH1 0xE0 SHL PUSH1 0x0 MSTORE PUSH1 0x32 PUSH1 0x4 MSTORE PUSH1 0x24 PUSH1 0x0 REVERT JUMPDEST PUSH1 0x0 SWAP2 DUP3 MSTORE PUSH1 0x20 SWAP2 DUP3 SWAP1 KECCAK256 PUSH1 0x4 PUSH1 0x7 SWAP1 SWAP3 MUL ADD ADD SLOAD PUSH1 0x40 DUP1 MLOAD SWAP4 DUP5 MSTORE SWAP2 DUP4 ADD MSTORE DUP2 ADD DUP4 SWAP1 MSTORE PUSH1 0x60 ADD PUSH1 0x40 MLOAD DUP1 SWAP2 SUB SWAP1 LOG1 PUSH1 0x0 PUSH2 0x57E PUSH1 0x4 DUP5 DUP2 SLOAD DUP2 LT PUSH2 0x55D JUMPI PUSH4 0x4E487B71 PUSH1 0xE0 SHL PUSH1 0x0 MSTORE PUSH1 0x32 PUSH1 0x4 MSTORE PUSH1 0x24 PUSH1 0x0 REVERT JUMPDEST SWAP1 PUSH1 0x0 MSTORE PUSH1 0x20 PUSH1 0x0 KECCAK256 SWAP1 PUSH1 0x7 MUL ADD PUSH1 0x3 ADD SLOAD DUP4 PUSH2 0x128F SWAP1 SWAP2 SWAP1 PUSH4 0xFFFFFFFF AND JUMP JUMPDEST SWAP1 POP DUP2 PUSH1 0x4 DUP5 DUP2 SLOAD DUP2 LT PUSH2 0x5A2 JUMPI PUSH4 0x4E487B71 PUSH1 0xE0 SHL PUSH1 0x0 MSTORE PUSH1 0x32 PUSH1 0x4 MSTORE PUSH1 0x24 PUSH1 0x0 REVERT JUMPDEST SWAP1 PUSH1 0x0 MSTORE PUSH1 0x20 PUSH1 0x0 KECCAK256 SWAP1 PUSH1 0x7 MUL ADD PUSH1 0x4 ADD DUP2 SWAP1 SSTORE POP DUP1 PUSH1 0x4 DUP5 DUP2 SLOAD DUP2 LT PUSH2 0x5D9 JUMPI PUSH4 0x4E487B71 PUSH1 0xE0 SHL PUSH1 0x0 MSTORE PUSH1 0x32 PUSH1 0x4 MSTORE PUSH1 0x24 PUSH1 0x0 REVERT JUMPDEST SWAP1 PUSH1 0x0 MSTORE PUSH1 0x20 PUSH1 0x0 KECCAK256 SWAP1 PUSH1 0x7 MUL ADD PUSH1 0x5 ADD DUP2 SWAP1 SSTORE POP DUP3 PUSH1 0x6 SLOAD EQ ISZERO PUSH2 0x605 JUMPI PUSH2 0x600 PUSH2 0x12F7 JUMP JUMPDEST POP POP POP JUMP JUMPDEST PUSH2 0x600 DUP4 DUP3 PUSH2 0x13E0 JUMP JUMPDEST PUSH1 0x0 DUP1 SLOAD PUSH1 0x1 PUSH1 0x1 PUSH1 0xA0 SHL SUB AND CALLER EQ PUSH2 0x63A JUMPI PUSH1 0x40 MLOAD PUSH3 0x461BCD PUSH1 0xE5 SHL DUP2 MSTORE PUSH1 0x4 ADD PUSH2 0x298 SWAP1 PUSH2 0x170C JUMP JUMPDEST PUSH1 0x64 DUP7 LT PUSH2 0x6B0 JUMPI PUSH1 0x40 MLOAD PUSH3 0x461BCD PUSH1 0xE5 SHL DUP2 MSTORE PUSH1 0x20 PUSH1 0x4 DUP3 ADD MSTORE PUSH1 0x3D PUSH1 0x24 DUP3 ADD MSTORE PUSH32 0x4D696E6F7269747956657374696E674D616E616765723A2043616E2774207665 PUSH1 0x44 DUP3 ADD MSTORE PUSH32 0x7374203E2031303025206F6620746F6B656E73207065722065706F6368000000 PUSH1 0x64 DUP3 ADD MSTORE PUSH1 0x84 ADD PUSH2 0x298 JUMP JUMPDEST TIMESTAMP DUP5 LT ISZERO DUP1 PUSH2 0x6BD JUMPI POP DUP4 ISZERO JUMPDEST PUSH2 0x72F JUMPI PUSH1 0x40 MLOAD PUSH3 0x461BCD PUSH1 0xE5 SHL DUP2 MSTORE PUSH1 0x20 PUSH1 0x4 DUP3 ADD MSTORE PUSH1 0x3F PUSH1 0x24 DUP3 ADD MSTORE PUSH32 0x4D696E6F7269747956657374696E674D616E616765723A205265776172647320 PUSH1 0x44 DUP3 ADD MSTORE PUSH32 0x63616E277420626567696E2076657374696E6720696E20746865207061737400 PUSH1 0x64 DUP3 ADD MSTORE PUSH1 0x84 ADD PUSH2 0x298 JUMP JUMPDEST PUSH1 0x1 PUSH1 0x1 PUSH1 0xA0 SHL SUB DUP4 AND PUSH2 0x7A4 JUMPI PUSH1 0x40 MLOAD PUSH3 0x461BCD PUSH1 0xE5 SHL DUP2 MSTORE PUSH1 0x20 PUSH1 0x4 DUP3 ADD MSTORE PUSH1 0x42 PUSH1 0x24 DUP3 ADD MSTORE PUSH1 0x0 DUP1 MLOAD PUSH1 0x20 PUSH2 0x1891 DUP4 CODECOPY DUP2 MLOAD SWAP2 MSTORE PUSH1 0x44 DUP3 ADD MSTORE PUSH32 0x72656365697665722063616E277420626520746865207A65726F206164647265 PUSH1 0x64 DUP3 ADD MSTORE PUSH2 0x7373 PUSH1 0xF0 SHL PUSH1 0x84 DUP3 ADD MSTORE PUSH1 0xA4 ADD PUSH2 0x298 JUMP JUMPDEST PUSH1 0x7 SLOAD PUSH1 0x0 SWAP1 PUSH2 0x7B4 SWAP1 DUP10 PUSH2 0x128F JUMP JUMPDEST SWAP1 POP DUP3 ISZERO PUSH2 0x8FE JUMPI PUSH1 0x40 MLOAD PUSH4 0x70A08231 PUSH1 0xE0 SHL DUP2 MSTORE ADDRESS PUSH1 0x4 DUP3 ADD MSTORE PUSH32 0x0 PUSH1 0x1 PUSH1 0x1 PUSH1 0xA0 SHL SUB AND SWAP1 PUSH4 0x70A08231 SWAP1 PUSH1 0x24 ADD PUSH1 0x20 PUSH1 0x40 MLOAD DUP1 DUP4 SUB DUP2 DUP7 DUP1 EXTCODESIZE ISZERO DUP1 ISZERO PUSH2 0x81B JUMPI PUSH1 0x0 DUP1 REVERT JUMPDEST POP GAS STATICCALL ISZERO DUP1 ISZERO PUSH2 0x82F JUMPI RETURNDATASIZE PUSH1 0x0 DUP1 RETURNDATACOPY RETURNDATASIZE PUSH1 0x0 REVERT JUMPDEST POP POP POP POP PUSH1 0x40 MLOAD RETURNDATASIZE PUSH1 0x1F NOT PUSH1 0x1F DUP3 ADD AND DUP3 ADD DUP1 PUSH1 0x40 MSTORE POP DUP2 ADD SWAP1 PUSH2 0x853 SWAP2 SWAP1 PUSH2 0x15DD JUMP JUMPDEST DUP2 GT ISZERO PUSH2 0x8FE JUMPI PUSH1 0x40 MLOAD PUSH3 0x461BCD PUSH1 0xE5 SHL DUP2 MSTORE PUSH1 0x20 PUSH1 0x4 DUP3 ADD MSTORE PUSH1 0x67 PUSH1 0x24 DUP3 ADD MSTORE PUSH32 0x4D696E6F7269747956657374696E674D616E616765723A204E6F7420656E6F75 PUSH1 0x44 DUP3 ADD MSTORE PUSH32 0x676820746F6B656E7320696E20636F6E747261637420746F20766573742E2054 PUSH1 0x64 DUP3 ADD MSTORE PUSH32 0x72616E7366657220746F6B656E73206265666F726520616464696E6720612073 PUSH1 0x84 DUP3 ADD MSTORE PUSH7 0x63686564756C65 PUSH1 0xC8 SHL PUSH1 0xA4 DUP3 ADD MSTORE PUSH1 0xC4 ADD PUSH2 0x298 JUMP JUMPDEST PUSH1 0x0 DUP6 ISZERO PUSH2 0x922 JUMPI PUSH2 0x91D PUSH2 0x916 DUP9 PUSH3 0x15180 PUSH2 0x1408 JUMP JUMPDEST DUP8 SWAP1 PUSH2 0x128F JUMP JUMPDEST PUSH2 0x924 JUMP JUMPDEST DUP6 JUMPDEST SWAP1 POP PUSH1 0x0 PUSH1 0x40 MLOAD DUP1 PUSH2 0x100 ADD PUSH1 0x40 MSTORE DUP1 DUP12 DUP2 MSTORE PUSH1 0x20 ADD PUSH2 0x958 PUSH1 0x64 PUSH2 0x952 DUP14 DUP16 PUSH2 0x1408 SWAP1 SWAP2 SWAP1 PUSH4 0xFFFFFFFF AND JUMP JUMPDEST SWAP1 PUSH2 0x1487 JUMP JUMPDEST DUP2 MSTORE PUSH1 0x0 PUSH1 0x20 DUP3 ADD MSTORE PUSH1 0x40 ADD PUSH2 0x971 DUP11 PUSH3 0x15180 PUSH2 0x1408 JUMP JUMPDEST DUP2 MSTORE PUSH1 0x20 DUP1 DUP3 ADD DUP11 SWAP1 MSTORE PUSH1 0x40 DUP1 DUP4 ADD DUP7 SWAP1 MSTORE PUSH1 0x1 PUSH1 0x1 PUSH1 0xA0 SHL SUB DUP1 DUP12 AND PUSH1 0x60 DUP1 DUP7 ADD SWAP2 SWAP1 SWAP2 MSTORE PUSH1 0x0 PUSH1 0x80 SWAP6 DUP7 ADD DUP2 SWAP1 MSTORE PUSH1 0x4 DUP1 SLOAD PUSH1 0x1 DUP2 DUP2 ADD DUP4 SSTORE DUP3 DUP5 MSTORE DUP10 MLOAD PUSH1 0x7 SWAP3 DUP4 MUL PUSH32 0x8A35ACFBC15FF81A39AE7D344FD709F28E8600B4AA8C65C6B64BFE7FE36BD19B DUP2 ADD SWAP2 SWAP1 SWAP2 SSTORE SWAP8 DUP11 ADD MLOAD PUSH32 0x8A35ACFBC15FF81A39AE7D344FD709F28E8600B4AA8C65C6B64BFE7FE36BD19C DUP10 ADD SSTORE SWAP6 DUP10 ADD MLOAD PUSH32 0x8A35ACFBC15FF81A39AE7D344FD709F28E8600B4AA8C65C6B64BFE7FE36BD19D DUP9 ADD SSTORE SWAP3 DUP9 ADD MLOAD PUSH32 0x8A35ACFBC15FF81A39AE7D344FD709F28E8600B4AA8C65C6B64BFE7FE36BD19E DUP8 ADD SSTORE SWAP6 DUP8 ADD MLOAD PUSH32 0x8A35ACFBC15FF81A39AE7D344FD709F28E8600B4AA8C65C6B64BFE7FE36BD19F DUP7 ADD SSTORE PUSH1 0xA0 DUP8 ADD MLOAD PUSH32 0x8A35ACFBC15FF81A39AE7D344FD709F28E8600B4AA8C65C6B64BFE7FE36BD1A0 DUP7 ADD SSTORE PUSH1 0xC0 DUP8 ADD MLOAD PUSH32 0x8A35ACFBC15FF81A39AE7D344FD709F28E8600B4AA8C65C6B64BFE7FE36BD1A1 SWAP1 SWAP6 ADD DUP1 SLOAD PUSH1 0xE0 DUP10 ADD MLOAD ISZERO ISZERO PUSH1 0x1 PUSH1 0xA0 SHL MUL PUSH1 0x1 PUSH1 0x1 PUSH1 0xA8 SHL SUB NOT SWAP1 SWAP2 AND SWAP7 SWAP1 SWAP5 AND SWAP6 SWAP1 SWAP6 OR SWAP3 SWAP1 SWAP3 OR SWAP1 SWAP4 SSTORE SWAP2 DUP8 SWAP1 SSTORE SWAP2 SLOAD SWAP3 SWAP4 POP SWAP2 PUSH2 0xB0D SWAP2 SWAP1 PUSH2 0x1837 JUMP JUMPDEST SWAP1 POP PUSH2 0xB19 DUP2 DUP5 PUSH2 0x13E0 JUMP JUMPDEST DUP2 MLOAD PUSH1 0x20 DUP1 DUP5 ADD MLOAD PUSH1 0x60 DUP1 DUP7 ADD MLOAD PUSH1 0x80 DUP1 DUP9 ADD MLOAD PUSH1 0xA0 DUP1 DUP11 ADD MLOAD PUSH1 0xC0 DUP1 DUP13 ADD MLOAD PUSH1 0x40 DUP1 MLOAD DUP14 DUP2 MSTORE SWAP11 DUP12 ADD SWAP12 SWAP1 SWAP12 MSTORE DUP10 DUP12 ADD SWAP9 SWAP1 SWAP9 MSTORE SWAP6 DUP9 ADD SWAP5 SWAP1 SWAP5 MSTORE SWAP2 DUP7 ADD MSTORE DUP5 ADD MSTORE PUSH1 0x1 PUSH1 0x1 PUSH1 0xA0 SHL SUB SWAP1 SWAP2 AND SWAP1 DUP3 ADD MSTORE SWAP1 MLOAD PUSH32 0xFF7D5B9238FDF530D746EA0E1B517671E3E0FD1414A36E69A57867DC707DC65A SWAP2 DUP2 SWAP1 SUB PUSH1 0xE0 ADD SWAP1 LOG1 SWAP11 SWAP10 POP POP POP POP POP POP POP POP POP POP JUMP JUMPDEST PUSH1 0x4 DUP2 DUP2 SLOAD DUP2 LT PUSH2 0xBB5 JUMPI PUSH1 0x0 DUP1 REVERT JUMPDEST PUSH1 0x0 SWAP2 DUP3 MSTORE PUSH1 0x20 SWAP1 SWAP2 KECCAK256 PUSH1 0x7 SWAP1 SWAP2 MUL ADD DUP1 SLOAD PUSH1 0x1 DUP3 ADD SLOAD PUSH1 0x2 DUP4 ADD SLOAD PUSH1 0x3 DUP5 ADD SLOAD PUSH1 0x4 DUP6 ADD SLOAD PUSH1 0x5 DUP7 ADD SLOAD PUSH1 0x6 SWAP1 SWAP7 ADD SLOAD SWAP5 SWAP7 POP SWAP3 SWAP5 SWAP2 SWAP4 SWAP1 SWAP3 SWAP2 SWAP1 PUSH1 0x1 PUSH1 0x1 PUSH1 0xA0 SHL SUB DUP2 AND SWAP1 PUSH1 0x1 PUSH1 0xA0 SHL SWAP1 DIV PUSH1 0xFF AND DUP9 JUMP JUMPDEST PUSH1 0x0 SLOAD PUSH1 0x1 PUSH1 0x1 PUSH1 0xA0 SHL SUB AND CALLER EQ PUSH2 0xC33 JUMPI PUSH1 0x40 MLOAD PUSH3 0x461BCD PUSH1 0xE5 SHL DUP2 MSTORE PUSH1 0x4 ADD PUSH2 0x298 SWAP1 PUSH2 0x170C JUMP JUMPDEST PUSH1 0x0 DUP1 SLOAD PUSH1 0x40 MLOAD PUSH1 0x1 PUSH1 0x1 PUSH1 0xA0 SHL SUB SWAP1 SWAP2 AND SWAP1 PUSH32 0x8BE0079C531659141344CD1FD0A4F28419497F9722A3DAAFE3B4186F6B6457E0 SWAP1 DUP4 SWAP1 LOG3 PUSH1 0x0 DUP1 SLOAD PUSH1 0x1 PUSH1 0x1 PUSH1 0xA0 SHL SUB NOT AND SWAP1 SSTORE JUMP JUMPDEST TIMESTAMP PUSH1 0x5 SLOAD GT ISZERO DUP1 ISZERO PUSH2 0xC90 JUMPI POP PUSH1 0x5 SLOAD ISZERO ISZERO JUMPDEST ISZERO PUSH2 0xF43 JUMPI PUSH1 0x0 PUSH1 0x4 PUSH1 0x6 SLOAD DUP2 SLOAD DUP2 LT PUSH2 0xCBA JUMPI PUSH4 0x4E487B71 PUSH1 0xE0 SHL PUSH1 0x0 MSTORE PUSH1 0x32 PUSH1 0x4 MSTORE PUSH1 0x24 PUSH1 0x0 REVERT JUMPDEST PUSH1 0x0 SWAP2 DUP3 MSTORE PUSH1 0x20 DUP1 DUP4 KECCAK256 PUSH1 0x40 DUP1 MLOAD PUSH2 0x100 DUP2 ADD DUP3 MSTORE PUSH1 0x7 SWAP1 SWAP5 MUL SWAP1 SWAP2 ADD DUP1 SLOAD DUP5 MSTORE PUSH1 0x1 DUP2 ADD SLOAD SWAP3 DUP5 ADD SWAP3 SWAP1 SWAP3 MSTORE PUSH1 0x2 DUP3 ADD SLOAD SWAP1 DUP4 ADD MSTORE PUSH1 0x3 DUP2 ADD SLOAD PUSH1 0x60 DUP4 ADD DUP2 SWAP1 MSTORE PUSH1 0x4 DUP3 ADD SLOAD PUSH1 0x80 DUP5 ADD MSTORE PUSH1 0x5 DUP3 ADD SLOAD PUSH1 0xA0 DUP5 ADD MSTORE PUSH1 0x6 SWAP1 SWAP2 ADD SLOAD PUSH1 0x1 PUSH1 0x1 PUSH1 0xA0 SHL SUB DUP2 AND PUSH1 0xC0 DUP5 ADD MSTORE PUSH1 0xFF PUSH1 0x1 PUSH1 0xA0 SHL SWAP1 SWAP2 DIV AND ISZERO ISZERO PUSH1 0xE0 DUP4 ADD MSTORE SWAP1 SWAP3 POP PUSH2 0xD44 SWAP1 TIMESTAMP PUSH2 0x128F JUMP JUMPDEST PUSH1 0x5 DUP2 SWAP1 SSTORE PUSH1 0x20 DUP4 ADD MLOAD DUP4 MLOAD PUSH1 0x40 DUP6 ADD MLOAD SWAP3 SWAP4 POP SWAP1 SWAP2 PUSH2 0xD64 SWAP1 DUP4 PUSH2 0x128F JUMP JUMPDEST GT ISZERO PUSH2 0xDBF JUMPI PUSH1 0x40 DUP4 ADD MLOAD DUP4 MLOAD PUSH2 0xD7A SWAP2 PUSH2 0x14C9 JUMP JUMPDEST SWAP1 POP PUSH1 0x0 PUSH1 0x4 PUSH1 0x6 SLOAD DUP2 SLOAD DUP2 LT PUSH2 0xDA1 JUMPI PUSH4 0x4E487B71 PUSH1 0xE0 SHL PUSH1 0x0 MSTORE PUSH1 0x32 PUSH1 0x4 MSTORE PUSH1 0x24 PUSH1 0x0 REVERT JUMPDEST PUSH1 0x0 SWAP2 DUP3 MSTORE PUSH1 0x20 DUP3 KECCAK256 PUSH1 0x5 PUSH1 0x7 SWAP1 SWAP3 MUL ADD DUP2 ADD SWAP3 SWAP1 SWAP3 SSTORE SWAP1 SSTORE PUSH2 0xDF9 JUMP JUMPDEST DUP2 PUSH1 0x4 PUSH1 0x6 SLOAD DUP2 SLOAD DUP2 LT PUSH2 0xDE3 JUMPI PUSH4 0x4E487B71 PUSH1 0xE0 SHL PUSH1 0x0 MSTORE PUSH1 0x32 PUSH1 0x4 MSTORE PUSH1 0x24 PUSH1 0x0 REVERT JUMPDEST SWAP1 PUSH1 0x0 MSTORE PUSH1 0x20 PUSH1 0x0 KECCAK256 SWAP1 PUSH1 0x7 MUL ADD PUSH1 0x5 ADD DUP2 SWAP1 SSTORE POP JUMPDEST PUSH1 0x40 DUP4 ADD MLOAD PUSH2 0xE08 SWAP1 DUP3 PUSH2 0x128F JUMP JUMPDEST PUSH1 0x4 PUSH1 0x6 SLOAD DUP2 SLOAD DUP2 LT PUSH2 0xE2B JUMPI PUSH4 0x4E487B71 PUSH1 0xE0 SHL PUSH1 0x0 MSTORE PUSH1 0x32 PUSH1 0x4 MSTORE PUSH1 0x24 PUSH1 0x0 REVERT JUMPDEST PUSH1 0x0 SWAP2 DUP3 MSTORE PUSH1 0x20 SWAP1 SWAP2 KECCAK256 PUSH1 0x7 SWAP1 SWAP2 MUL ADD PUSH1 0x2 ADD SSTORE PUSH1 0xC0 DUP4 ADD MLOAD PUSH1 0x40 MLOAD PUSH4 0xA9059CBB PUSH1 0xE0 SHL DUP2 MSTORE PUSH1 0x1 PUSH1 0x1 PUSH1 0xA0 SHL SUB SWAP2 DUP3 AND PUSH1 0x4 DUP3 ADD MSTORE PUSH1 0x24 DUP2 ADD DUP4 SWAP1 MSTORE PUSH32 0x0 SWAP1 SWAP2 AND SWAP1 PUSH4 0xA9059CBB SWAP1 PUSH1 0x44 ADD PUSH1 0x20 PUSH1 0x40 MLOAD DUP1 DUP4 SUB DUP2 PUSH1 0x0 DUP8 DUP1 EXTCODESIZE ISZERO DUP1 ISZERO PUSH2 0xEB0 JUMPI PUSH1 0x0 DUP1 REVERT JUMPDEST POP GAS CALL ISZERO DUP1 ISZERO PUSH2 0xEC4 JUMPI RETURNDATASIZE PUSH1 0x0 DUP1 RETURNDATACOPY RETURNDATASIZE PUSH1 0x0 REVERT JUMPDEST POP POP POP POP PUSH1 0x40 MLOAD RETURNDATASIZE PUSH1 0x1F NOT PUSH1 0x1F DUP3 ADD AND DUP3 ADD DUP1 PUSH1 0x40 MSTORE POP DUP2 ADD SWAP1 PUSH2 0xEE8 SWAP2 SWAP1 PUSH2 0x15A9 JUMP JUMPDEST POP DUP3 PUSH1 0xC0 ADD MLOAD PUSH1 0x1 PUSH1 0x1 PUSH1 0xA0 SHL SUB AND PUSH32 0xD02FE226269DCD9A9E174EF0DD99B931A3F1475CE6BCEEB671B2F45B4AA1CCCE PUSH1 0x6 SLOAD DUP4 PUSH1 0x40 MLOAD PUSH2 0xF33 SWAP3 SWAP2 SWAP1 SWAP2 DUP3 MSTORE PUSH1 0x20 DUP3 ADD MSTORE PUSH1 0x40 ADD SWAP1 JUMP JUMPDEST PUSH1 0x40 MLOAD DUP1 SWAP2 SUB SWAP1 LOG2 PUSH2 0x600 PUSH2 0x12F7 JUMP JUMPDEST JUMP JUMPDEST PUSH1 0x3 SLOAD PUSH1 0x1 PUSH1 0x1 PUSH1 0xA0 SHL SUB AND CALLER EQ DUP1 PUSH2 0xF68 JUMPI POP PUSH1 0x0 SLOAD PUSH1 0x1 PUSH1 0x1 PUSH1 0xA0 SHL SUB AND CALLER EQ JUMPDEST PUSH2 0xF84 JUMPI PUSH1 0x40 MLOAD PUSH3 0x461BCD PUSH1 0xE5 SHL DUP2 MSTORE PUSH1 0x4 ADD PUSH2 0x298 SWAP1 PUSH2 0x1741 JUMP JUMPDEST PUSH1 0x4 SLOAD DUP2 LT PUSH2 0xFA5 JUMPI PUSH1 0x40 MLOAD PUSH3 0x461BCD PUSH1 0xE5 SHL DUP2 MSTORE PUSH1 0x4 ADD PUSH2 0x298 SWAP1 PUSH2 0x179E JUMP JUMPDEST PUSH1 0x4 DUP2 DUP2 SLOAD DUP2 LT PUSH2 0xFC6 JUMPI PUSH4 0x4E487B71 PUSH1 0xE0 SHL PUSH1 0x0 MSTORE PUSH1 0x32 PUSH1 0x4 MSTORE PUSH1 0x24 PUSH1 0x0 REVERT JUMPDEST SWAP1 PUSH1 0x0 MSTORE PUSH1 0x20 PUSH1 0x0 KECCAK256 SWAP1 PUSH1 0x7 MUL ADD PUSH1 0x6 ADD PUSH1 0x14 SWAP1 SLOAD SWAP1 PUSH2 0x100 EXP SWAP1 DIV PUSH1 0xFF AND ISZERO PUSH2 0x103B JUMPI PUSH1 0x40 MLOAD PUSH3 0x461BCD PUSH1 0xE5 SHL DUP2 MSTORE PUSH1 0x20 PUSH1 0x4 DUP3 ADD MSTORE PUSH1 0x32 PUSH1 0x24 DUP3 ADD MSTORE PUSH1 0x0 DUP1 MLOAD PUSH1 0x20 PUSH2 0x1891 DUP4 CODECOPY DUP2 MLOAD SWAP2 MSTORE PUSH1 0x44 DUP3 ADD MSTORE PUSH18 0x125108185B1C9958591E481C995B5BDD9959 PUSH1 0x72 SHL PUSH1 0x64 DUP3 ADD MSTORE PUSH1 0x84 ADD PUSH2 0x298 JUMP JUMPDEST PUSH1 0x1 PUSH1 0x4 DUP3 DUP2 SLOAD DUP2 LT PUSH2 0x105E JUMPI PUSH4 0x4E487B71 PUSH1 0xE0 SHL PUSH1 0x0 MSTORE PUSH1 0x32 PUSH1 0x4 MSTORE PUSH1 0x24 PUSH1 0x0 REVERT JUMPDEST SWAP1 PUSH1 0x0 MSTORE PUSH1 0x20 PUSH1 0x0 KECCAK256 SWAP1 PUSH1 0x7 MUL ADD PUSH1 0x6 ADD PUSH1 0x14 PUSH2 0x100 EXP DUP2 SLOAD DUP2 PUSH1 0xFF MUL NOT AND SWAP1 DUP4 ISZERO ISZERO MUL OR SWAP1 SSTORE POP PUSH2 0x10FF PUSH1 0x4 DUP3 DUP2 SLOAD DUP2 LT PUSH2 0x10AA JUMPI PUSH4 0x4E487B71 PUSH1 0xE0 SHL PUSH1 0x0 MSTORE PUSH1 0x32 PUSH1 0x4 MSTORE PUSH1 0x24 PUSH1 0x0 REVERT JUMPDEST SWAP1 PUSH1 0x0 MSTORE PUSH1 0x20 PUSH1 0x0 KECCAK256 SWAP1 PUSH1 0x7 MUL ADD PUSH1 0x2 ADD SLOAD PUSH2 0x10F9 PUSH1 0x4 DUP5 DUP2 SLOAD DUP2 LT PUSH2 0x10E0 JUMPI PUSH4 0x4E487B71 PUSH1 0xE0 SHL PUSH1 0x0 MSTORE PUSH1 0x32 PUSH1 0x4 MSTORE PUSH1 0x24 PUSH1 0x0 REVERT JUMPDEST PUSH1 0x0 SWAP2 DUP3 MSTORE PUSH1 0x20 SWAP1 SWAP2 KECCAK256 PUSH1 0x7 SWAP2 DUP3 MUL ADD SLOAD SWAP1 SLOAD SWAP1 PUSH2 0x14C9 JUMP JUMPDEST SWAP1 PUSH2 0x128F JUMP JUMPDEST PUSH1 0x7 SSTORE PUSH1 0x6 SLOAD DUP2 EQ ISZERO PUSH2 0x1114 JUMPI PUSH2 0x1114 PUSH2 0x12F7 JUMP JUMPDEST PUSH1 0x40 MLOAD DUP2 DUP2 MSTORE PUSH32 0x3A9782B2E3F78DEE6DE9B41F31D0F34064EE9D7BD4A79E5E3F7E0C1CA528BBA3 SWAP1 PUSH1 0x20 ADD PUSH1 0x40 MLOAD DUP1 SWAP2 SUB SWAP1 LOG1 POP JUMP JUMPDEST PUSH1 0x3 SLOAD PUSH1 0x0 SWAP1 PUSH1 0x1 PUSH1 0x1 PUSH1 0xA0 SHL SUB AND CALLER EQ DUP1 PUSH2 0x1170 JUMPI POP PUSH1 0x0 SLOAD PUSH1 0x1 PUSH1 0x1 PUSH1 0xA0 SHL SUB AND CALLER EQ JUMPDEST PUSH2 0x118C JUMPI PUSH1 0x40 MLOAD PUSH3 0x461BCD PUSH1 0xE5 SHL DUP2 MSTORE PUSH1 0x4 ADD PUSH2 0x298 SWAP1 PUSH2 0x1741 JUMP JUMPDEST PUSH2 0x119B DUP7 DUP7 DUP7 DUP7 DUP7 PUSH1 0x1 PUSH2 0x60F JUMP JUMPDEST SWAP7 SWAP6 POP POP POP POP POP POP JUMP JUMPDEST PUSH1 0x0 SLOAD PUSH1 0x1 PUSH1 0x1 PUSH1 0xA0 SHL SUB AND CALLER EQ PUSH2 0x11CF JUMPI PUSH1 0x40 MLOAD PUSH3 0x461BCD PUSH1 0xE5 SHL DUP2 MSTORE PUSH1 0x4 ADD PUSH2 0x298 SWAP1 PUSH2 0x170C JUMP JUMPDEST PUSH1 0x1 PUSH1 0x1 PUSH1 0xA0 SHL SUB DUP2 AND PUSH2 0x1234 JUMPI PUSH1 0x40 MLOAD PUSH3 0x461BCD PUSH1 0xE5 SHL DUP2 MSTORE PUSH1 0x20 PUSH1 0x4 DUP3 ADD MSTORE PUSH1 0x26 PUSH1 0x24 DUP3 ADD MSTORE PUSH32 0x4F776E61626C653A206E6577206F776E657220697320746865207A65726F2061 PUSH1 0x44 DUP3 ADD MSTORE PUSH6 0x646472657373 PUSH1 0xD0 SHL PUSH1 0x64 DUP3 ADD MSTORE PUSH1 0x84 ADD PUSH2 0x298 JUMP JUMPDEST PUSH1 0x0 DUP1 SLOAD PUSH1 0x40 MLOAD PUSH1 0x1 PUSH1 0x1 PUSH1 0xA0 SHL SUB DUP1 DUP6 AND SWAP4 SWAP3 AND SWAP2 PUSH32 0x8BE0079C531659141344CD1FD0A4F28419497F9722A3DAAFE3B4186F6B6457E0 SWAP2 LOG3 PUSH1 0x0 DUP1 SLOAD PUSH1 0x1 PUSH1 0x1 PUSH1 0xA0 SHL SUB NOT AND PUSH1 0x1 PUSH1 0x1 PUSH1 0xA0 SHL SUB SWAP3 SWAP1 SWAP3 AND SWAP2 SWAP1 SWAP2 OR SWAP1 SSTORE JUMP JUMPDEST PUSH1 0x0 DUP1 PUSH2 0x129C DUP4 DUP6 PUSH2 0x17E0 JUMP JUMPDEST SWAP1 POP DUP4 DUP2 LT ISZERO PUSH2 0x12EE JUMPI PUSH1 0x40 MLOAD PUSH3 0x461BCD PUSH1 0xE5 SHL DUP2 MSTORE PUSH1 0x20 PUSH1 0x4 DUP3 ADD MSTORE PUSH1 0x1B PUSH1 0x24 DUP3 ADD MSTORE PUSH32 0x536166654D6174683A206164646974696F6E206F766572666C6F770000000000 PUSH1 0x44 DUP3 ADD MSTORE PUSH1 0x64 ADD PUSH2 0x298 JUMP JUMPDEST SWAP1 POP JUMPDEST SWAP3 SWAP2 POP POP JUMP JUMPDEST PUSH1 0x4 SLOAD PUSH1 0x0 JUMPDEST DUP2 DUP2 LT ISZERO PUSH2 0x13DC JUMPI PUSH1 0x6 SLOAD DUP2 EQ ISZERO DUP1 ISZERO PUSH2 0x1354 JUMPI POP PUSH1 0x4 DUP2 DUP2 SLOAD DUP2 LT PUSH2 0x1333 JUMPI PUSH4 0x4E487B71 PUSH1 0xE0 SHL PUSH1 0x0 MSTORE PUSH1 0x32 PUSH1 0x4 MSTORE PUSH1 0x24 PUSH1 0x0 REVERT JUMPDEST SWAP1 PUSH1 0x0 MSTORE PUSH1 0x20 PUSH1 0x0 KECCAK256 SWAP1 PUSH1 0x7 MUL ADD PUSH1 0x6 ADD PUSH1 0x14 SWAP1 SLOAD SWAP1 PUSH2 0x100 EXP SWAP1 DIV PUSH1 0xFF AND ISZERO JUMPDEST ISZERO PUSH2 0x13CA JUMPI PUSH1 0x0 PUSH1 0x4 DUP3 DUP2 SLOAD DUP2 LT PUSH2 0x137C JUMPI PUSH4 0x4E487B71 PUSH1 0xE0 SHL PUSH1 0x0 MSTORE PUSH1 0x32 PUSH1 0x4 MSTORE PUSH1 0x24 PUSH1 0x0 REVERT JUMPDEST SWAP1 PUSH1 0x0 MSTORE PUSH1 0x20 PUSH1 0x0 KECCAK256 SWAP1 PUSH1 0x7 MUL ADD PUSH1 0x5 ADD SLOAD SWAP1 POP DUP1 PUSH1 0x0 EQ PUSH2 0x13C8 JUMPI TIMESTAMP DUP2 GT PUSH2 0x13A8 JUMPI PUSH1 0x5 SSTORE PUSH1 0x6 SSTORE POP JUMP JUMPDEST PUSH1 0x5 SLOAD DUP2 LT DUP1 PUSH2 0x13B8 JUMPI POP PUSH1 0x5 SLOAD ISZERO JUMPDEST ISZERO PUSH2 0x13C8 JUMPI PUSH1 0x5 DUP2 SWAP1 SSTORE PUSH1 0x6 DUP3 SWAP1 SSTORE JUMPDEST POP JUMPDEST DUP1 PUSH2 0x13D4 DUP2 PUSH2 0x184E JUMP JUMPDEST SWAP2 POP POP PUSH2 0x12FD JUMP JUMPDEST POP POP JUMP JUMPDEST PUSH1 0x5 SLOAD DUP2 LT DUP1 PUSH2 0x13F0 JUMPI POP PUSH1 0x5 SLOAD ISZERO JUMPDEST DUP1 ISZERO PUSH2 0x13FB JUMPI POP DUP1 ISZERO ISZERO JUMPDEST ISZERO PUSH2 0x13DC JUMPI PUSH1 0x5 SSTORE PUSH1 0x6 SSTORE JUMP JUMPDEST PUSH1 0x0 DUP3 PUSH2 0x1417 JUMPI POP PUSH1 0x0 PUSH2 0x12F1 JUMP JUMPDEST PUSH1 0x0 PUSH2 0x1423 DUP4 DUP6 PUSH2 0x1818 JUMP JUMPDEST SWAP1 POP DUP3 PUSH2 0x1430 DUP6 DUP4 PUSH2 0x17F8 JUMP JUMPDEST EQ PUSH2 0x12EE JUMPI PUSH1 0x40 MLOAD PUSH3 0x461BCD PUSH1 0xE5 SHL DUP2 MSTORE PUSH1 0x20 PUSH1 0x4 DUP3 ADD MSTORE PUSH1 0x21 PUSH1 0x24 DUP3 ADD MSTORE PUSH32 0x536166654D6174683A206D756C7469706C69636174696F6E206F766572666C6F PUSH1 0x44 DUP3 ADD MSTORE PUSH1 0x77 PUSH1 0xF8 SHL PUSH1 0x64 DUP3 ADD MSTORE PUSH1 0x84 ADD PUSH2 0x298 JUMP JUMPDEST PUSH1 0x0 PUSH2 0x12EE DUP4 DUP4 PUSH1 0x40 MLOAD DUP1 PUSH1 0x40 ADD PUSH1 0x40 MSTORE DUP1 PUSH1 0x1A DUP2 MSTORE PUSH1 0x20 ADD PUSH32 0x536166654D6174683A206469766973696F6E206279207A65726F000000000000 DUP2 MSTORE POP PUSH2 0x150B JUMP JUMPDEST PUSH1 0x0 PUSH2 0x12EE DUP4 DUP4 PUSH1 0x40 MLOAD DUP1 PUSH1 0x40 ADD PUSH1 0x40 MSTORE DUP1 PUSH1 0x1E DUP2 MSTORE PUSH1 0x20 ADD PUSH32 0x536166654D6174683A207375627472616374696F6E206F766572666C6F770000 DUP2 MSTORE POP PUSH2 0x1542 JUMP JUMPDEST PUSH1 0x0 DUP2 DUP4 PUSH2 0x152C JUMPI PUSH1 0x40 MLOAD PUSH3 0x461BCD PUSH1 0xE5 SHL DUP2 MSTORE PUSH1 0x4 ADD PUSH2 0x298 SWAP2 SWAP1 PUSH2 0x16B9 JUMP JUMPDEST POP PUSH1 0x0 PUSH2 0x1539 DUP5 DUP7 PUSH2 0x17F8 JUMP JUMPDEST SWAP6 SWAP5 POP POP POP POP POP JUMP JUMPDEST PUSH1 0x0 DUP2 DUP5 DUP5 GT ISZERO PUSH2 0x1566 JUMPI PUSH1 0x40 MLOAD PUSH3 0x461BCD PUSH1 0xE5 SHL DUP2 MSTORE PUSH1 0x4 ADD PUSH2 0x298 SWAP2 SWAP1 PUSH2 0x16B9 JUMP JUMPDEST POP PUSH1 0x0 PUSH2 0x1539 DUP5 DUP7 PUSH2 0x1837 JUMP JUMPDEST DUP1 CALLDATALOAD PUSH1 0x1 PUSH1 0x1 PUSH1 0xA0 SHL SUB DUP2 AND DUP2 EQ PUSH2 0x158A JUMPI PUSH1 0x0 DUP1 REVERT JUMPDEST SWAP2 SWAP1 POP JUMP JUMPDEST PUSH1 0x0 PUSH1 0x20 DUP3 DUP5 SUB SLT ISZERO PUSH2 0x15A0 JUMPI DUP1 DUP2 REVERT JUMPDEST PUSH2 0x12EE DUP3 PUSH2 0x1573 JUMP JUMPDEST PUSH1 0x0 PUSH1 0x20 DUP3 DUP5 SUB SLT ISZERO PUSH2 0x15BA JUMPI DUP1 DUP2 REVERT JUMPDEST DUP2 MLOAD PUSH2 0x12EE DUP2 PUSH2 0x187F JUMP JUMPDEST PUSH1 0x0 PUSH1 0x20 DUP3 DUP5 SUB SLT ISZERO PUSH2 0x15D6 JUMPI DUP1 DUP2 REVERT JUMPDEST POP CALLDATALOAD SWAP2 SWAP1 POP JUMP JUMPDEST PUSH1 0x0 PUSH1 0x20 DUP3 DUP5 SUB SLT ISZERO PUSH2 0x15EE JUMPI DUP1 DUP2 REVERT JUMPDEST POP MLOAD SWAP2 SWAP1 POP JUMP JUMPDEST PUSH1 0x0 DUP1 PUSH1 0x40 DUP4 DUP6 SUB SLT ISZERO PUSH2 0x1607 JUMPI DUP1 DUP2 REVERT JUMPDEST POP POP DUP1 CALLDATALOAD SWAP3 PUSH1 0x20 SWAP1 SWAP2 ADD CALLDATALOAD SWAP2 POP JUMP JUMPDEST PUSH1 0x0 DUP1 PUSH1 0x0 DUP1 PUSH1 0x0 PUSH1 0xA0 DUP7 DUP9 SUB SLT ISZERO PUSH2 0x162D JUMPI DUP1 DUP2 REVERT JUMPDEST DUP6 CALLDATALOAD SWAP5 POP PUSH1 0x20 DUP7 ADD CALLDATALOAD SWAP4 POP PUSH1 0x40 DUP7 ADD CALLDATALOAD SWAP3 POP PUSH1 0x60 DUP7 ADD CALLDATALOAD SWAP2 POP PUSH2 0x1652 PUSH1 0x80 DUP8 ADD PUSH2 0x1573 JUMP JUMPDEST SWAP1 POP SWAP3 SWAP6 POP SWAP3 SWAP6 SWAP1 SWAP4 POP JUMP JUMPDEST PUSH1 0x0 DUP1 PUSH1 0x0 DUP1 PUSH1 0x0 DUP1 PUSH1 0xC0 DUP8 DUP10 SUB SLT ISZERO PUSH2 0x1676 JUMPI DUP1 DUP2 REVERT JUMPDEST DUP7 CALLDATALOAD SWAP6 POP PUSH1 0x20 DUP8 ADD CALLDATALOAD SWAP5 POP PUSH1 0x40 DUP8 ADD CALLDATALOAD SWAP4 POP PUSH1 0x60 DUP8 ADD CALLDATALOAD SWAP3 POP PUSH2 0x169B PUSH1 0x80 DUP9 ADD PUSH2 0x1573 JUMP JUMPDEST SWAP2 POP PUSH1 0xA0 DUP8 ADD CALLDATALOAD PUSH2 0x16AB DUP2 PUSH2 0x187F JUMP JUMPDEST DUP1 SWAP2 POP POP SWAP3 SWAP6 POP SWAP3 SWAP6 POP SWAP3 SWAP6 JUMP JUMPDEST PUSH1 0x0 PUSH1 0x20 DUP1 DUP4 MSTORE DUP4 MLOAD DUP1 DUP3 DUP6 ADD MSTORE DUP3 JUMPDEST DUP2 DUP2 LT ISZERO PUSH2 0x16E5 JUMPI DUP6 DUP2 ADD DUP4 ADD MLOAD DUP6 DUP3 ADD PUSH1 0x40 ADD MSTORE DUP3 ADD PUSH2 0x16C9 JUMP JUMPDEST DUP2 DUP2 GT ISZERO PUSH2 0x16F6 JUMPI DUP4 PUSH1 0x40 DUP4 DUP8 ADD ADD MSTORE JUMPDEST POP PUSH1 0x1F ADD PUSH1 0x1F NOT AND SWAP3 SWAP1 SWAP3 ADD PUSH1 0x40 ADD SWAP4 SWAP3 POP POP POP JUMP JUMPDEST PUSH1 0x20 DUP1 DUP3 MSTORE DUP2 DUP2 ADD MSTORE PUSH32 0x4F776E61626C653A2063616C6C6572206973206E6F7420746865206F776E6572 PUSH1 0x40 DUP3 ADD MSTORE PUSH1 0x60 ADD SWAP1 JUMP JUMPDEST PUSH1 0x20 DUP1 DUP3 MSTORE PUSH1 0x3C SWAP1 DUP3 ADD MSTORE PUSH32 0x4D696E6F7269747956657374696E674D616E616765723A206F6E6C7920616363 PUSH1 0x40 DUP3 ADD MSTORE PUSH32 0x65737369626C65206279206F70657261746F72206F72206F776E657200000000 PUSH1 0x60 DUP3 ADD MSTORE PUSH1 0x80 ADD SWAP1 JUMP JUMPDEST PUSH1 0x20 DUP1 DUP3 MSTORE PUSH1 0x22 SWAP1 DUP3 ADD MSTORE PUSH32 0x4D696E6F7269747956657374696E674D616E616765723A20696E76616C696420 PUSH1 0x40 DUP3 ADD MSTORE PUSH2 0x1251 PUSH1 0xF2 SHL PUSH1 0x60 DUP3 ADD MSTORE PUSH1 0x80 ADD SWAP1 JUMP JUMPDEST PUSH1 0x0 DUP3 NOT DUP3 GT ISZERO PUSH2 0x17F3 JUMPI PUSH2 0x17F3 PUSH2 0x1869 JUMP JUMPDEST POP ADD SWAP1 JUMP JUMPDEST PUSH1 0x0 DUP3 PUSH2 0x1813 JUMPI PUSH4 0x4E487B71 PUSH1 0xE0 SHL DUP2 MSTORE PUSH1 0x12 PUSH1 0x4 MSTORE PUSH1 0x24 DUP2 REVERT JUMPDEST POP DIV SWAP1 JUMP JUMPDEST PUSH1 0x0 DUP2 PUSH1 0x0 NOT DIV DUP4 GT DUP3 ISZERO ISZERO AND ISZERO PUSH2 0x1832 JUMPI PUSH2 0x1832 PUSH2 0x1869 JUMP JUMPDEST POP MUL SWAP1 JUMP JUMPDEST PUSH1 0x0 DUP3 DUP3 LT ISZERO PUSH2 0x1849 JUMPI PUSH2 0x1849 PUSH2 0x1869 JUMP JUMPDEST POP SUB SWAP1 JUMP JUMPDEST PUSH1 0x0 PUSH1 0x0 NOT DUP3 EQ ISZERO PUSH2 0x1862 JUMPI PUSH2 0x1862 PUSH2 0x1869 JUMP JUMPDEST POP PUSH1 0x1 ADD SWAP1 JUMP JUMPDEST PUSH4 0x4E487B71 PUSH1 0xE0 SHL PUSH1 0x0 MSTORE PUSH1 0x11 PUSH1 0x4 MSTORE PUSH1 0x24 PUSH1 0x0 REVERT JUMPDEST DUP1 ISZERO ISZERO DUP2 EQ PUSH2 0x188D JUMPI PUSH1 0x0 DUP1 REVERT JUMPDEST POP JUMP INVALID 0x4D PUSH10 0x6E6F7269747956657374 PUSH10 0x6E674D616E616765723A KECCAK256 PUSH23 0x657374696E6720A2646970667358221220DA48155C03D9 0xB8 CODESIZE RETURN 0xD9 DUP7 DUP7 SELFDESTRUCT PUSH7 0xA4657208D7D5EC 0xC0 TIMESTAMP MSTORE8 SHL LT SWAP15 0x5F SHL 0xC0 0xCB PUSH31 0x64736F6C634300080400330000000000000000000000000000000000000000 "
		},
		"gasEstimates": {
			"creation": {
				"codeDepositCost": "1274800",
				"executionCost": "infinite",
				"totalCost": "infinite"
			},
			"external": {
				"addVestingSchedule(uint256,uint256,uint256,uint256,address)": "infinite",
				"addVestingSchedule(uint256,uint256,uint256,uint256,address,bool)": "infinite",
				"executePendingVests()": "infinite",
				"getVestingInfo(uint256)": "8217",
				"minorityToken()": "infinite",
				"modifyVestingStartTime(uint256,uint256)": "infinite",
				"nextRewardDue()": "1040",
				"nextRewardID()": "1018",
				"operator()": "1082",
				"owner()": "1120",
				"removeVestingSchedule(uint256)": "infinite",
				"renounceOwnership()": "24188",
				"totalTokensUnderManagement()": "1039",
				"transferOwnership(address)": "24492",
				"vestingSchedules(uint256)": "7160"
			},
			"internal": {
				"findNextRewardID()": "infinite",
				"updateNextRewards(uint256,uint256)": "41696"
			}
		},
		"methodIdentifiers": {
			"addVestingSchedule(uint256,uint256,uint256,uint256,address)": "9f91d484",
			"addVestingSchedule(uint256,uint256,uint256,uint256,address,bool)": "3e34e66d",
			"executePendingVests()": "8adc760d",
			"getVestingInfo(uint256)": "20f6b0a9",
			"minorityToken()": "5a533efd",
			"modifyVestingStartTime(uint256,uint256)": "22811b9f",
			"nextRewardDue()": "84f61358",
			"nextRewardID()": "56329ee6",
			"operator()": "570ca735",
			"owner()": "8da5cb5b",
			"removeVestingSchedule(uint256)": "98fb7a98",
			"renounceOwnership()": "715018a6",
			"totalTokensUnderManagement()": "9c86aee8",
			"transferOwnership(address)": "f2fde38b",
			"vestingSchedules(uint256)": "6d3cbe21"
		}
	},
	"abi": [
		{
			"inputs": [
				{
					"internalType": "address",
					"name": "_operator",
					"type": "address"
				},
				{
					"internalType": "address",
					"name": "_token",
					"type": "address"
				}
			],
			"stateMutability": "nonpayable",
			"type": "constructor"
		},
		{
			"anonymous": false,
			"inputs": [
				{
					"indexed": true,
					"internalType": "address",
					"name": "previousOwner",
					"type": "address"
				},
				{
					"indexed": true,
					"internalType": "address",
					"name": "newOwner",
					"type": "address"
				}
			],
			"name": "OwnershipTransferred",
			"type": "event"
		},
		{
			"anonymous": false,
			"inputs": [
				{
					"indexed": false,
					"internalType": "uint256",
					"name": "newVestingID",
					"type": "uint256"
				},
				{
					"indexed": false,
					"internalType": "uint256",
					"name": "totalTokensToVest",
					"type": "uint256"
				},
				{
					"indexed": false,
					"internalType": "uint256",
					"name": "numberToVestEachEpoch",
					"type": "uint256"
				},
				{
					"indexed": false,
					"internalType": "uint256",
					"name": "epochLength",
					"type": "uint256"
				},
				{
					"indexed": false,
					"internalType": "uint256",
					"name": "startOfVesting",
					"type": "uint256"
				},
				{
					"indexed": false,
					"internalType": "uint256",
					"name": "nextVestingTime",
					"type": "uint256"
				},
				{
					"indexed": false,
					"internalType": "address",
					"name": "vestedTokensReceiver",
					"type": "address"
				}
			],
			"name": "ScheduleAdded",
			"type": "event"
		},
		{
			"anonymous": false,
			"inputs": [
				{
					"indexed": false,
					"internalType": "uint256",
					"name": "vestingID",
					"type": "uint256"
				}
			],
			"name": "ScheduleRemoved",
			"type": "event"
		},
		{
			"anonymous": false,
			"inputs": [
				{
					"indexed": false,
					"internalType": "uint256",
					"name": "vestingID",
					"type": "uint256"
				},
				{
					"indexed": true,
					"internalType": "address",
					"name": "vestedTokensReceiver",
					"type": "address"
				},
				{
					"indexed": false,
					"internalType": "uint256",
					"name": "tokensVested",
					"type": "uint256"
				}
			],
			"name": "TokensVested",
			"type": "event"
		},
		{
			"anonymous": false,
			"inputs": [
				{
					"indexed": false,
					"internalType": "uint256",
					"name": "vestingID",
					"type": "uint256"
				},
				{
					"indexed": false,
					"internalType": "uint256",
					"name": "oldStartOfVesting",
					"type": "uint256"
				},
				{
					"indexed": false,
					"internalType": "uint256",
					"name": "newStartOfVesting",
					"type": "uint256"
				}
			],
			"name": "VestingStartChanged",
			"type": "event"
		},
		{
			"inputs": [
				{
					"internalType": "uint256",
					"name": "_totalTokensToVest",
					"type": "uint256"
				},
				{
					"internalType": "uint256",
					"name": "_percentToVestEachEpoch",
					"type": "uint256"
				},
				{
					"internalType": "uint256",
					"name": "_epochLengthInDays",
					"type": "uint256"
				},
				{
					"internalType": "uint256",
					"name": "_startOfVesting",
					"type": "uint256"
				},
				{
					"internalType": "address",
					"name": "_vestedTokensReceiver",
					"type": "address"
				},
				{
					"internalType": "bool",
					"name": "doSafetyCheck",
					"type": "bool"
				}
			],
			"name": "addVestingSchedule",
			"outputs": [
				{
					"internalType": "uint256",
					"name": "",
					"type": "uint256"
				}
			],
			"stateMutability": "nonpayable",
			"type": "function"
		},
		{
			"inputs": [
				{
					"internalType": "uint256",
					"name": "_totalTokensToVest",
					"type": "uint256"
				},
				{
					"internalType": "uint256",
					"name": "_percentToVestEachEpoch",
					"type": "uint256"
				},
				{
					"internalType": "uint256",
					"name": "_epochLengthInDays",
					"type": "uint256"
				},
				{
					"internalType": "uint256",
					"name": "_startOfVesting",
					"type": "uint256"
				},
				{
					"internalType": "address",
					"name": "_vestedTokensReceiver",
					"type": "address"
				}
			],
			"name": "addVestingSchedule",
			"outputs": [
				{
					"internalType": "uint256",
					"name": "",
					"type": "uint256"
				}
			],
			"stateMutability": "nonpayable",
			"type": "function"
		},
		{
			"inputs": [],
			"name": "executePendingVests",
			"outputs": [],
			"stateMutability": "nonpayable",
			"type": "function"
		},
		{
			"inputs": [
				{
					"internalType": "uint256",
					"name": "vestingID",
					"type": "uint256"
				}
			],
			"name": "getVestingInfo",
			"outputs": [
				{
					"internalType": "uint256",
					"name": "",
					"type": "uint256"
				},
				{
					"internalType": "uint256",
					"name": "",
					"type": "uint256"
				},
				{
					"internalType": "uint256",
					"name": "",
					"type": "uint256"
				},
				{
					"internalType": "uint256",
					"name": "",
					"type": "uint256"
				},
				{
					"internalType": "uint256",
					"name": "",
					"type": "uint256"
				},
				{
					"internalType": "uint256",
					"name": "",
					"type": "uint256"
				},
				{
					"internalType": "address",
					"name": "",
					"type": "address"
				},
				{
					"internalType": "bool",
					"name": "",
					"type": "bool"
				}
			],
			"stateMutability": "view",
			"type": "function"
		},
		{
			"inputs": [],
			"name": "minorityToken",
			"outputs": [
				{
					"internalType": "address",
					"name": "",
					"type": "address"
				}
			],
			"stateMutability": "view",
			"type": "function"
		},
		{
			"inputs": [
				{
					"internalType": "uint256",
					"name": "vestingID",
					"type": "uint256"
				},
				{
					"internalType": "uint256",
					"name": "newVestingStart",
					"type": "uint256"
				}
			],
			"name": "modifyVestingStartTime",
			"outputs": [],
			"stateMutability": "nonpayable",
			"type": "function"
		},
		{
			"inputs": [],
			"name": "nextRewardDue",
			"outputs": [
				{
					"internalType": "uint256",
					"name": "",
					"type": "uint256"
				}
			],
			"stateMutability": "view",
			"type": "function"
		},
		{
			"inputs": [],
			"name": "nextRewardID",
			"outputs": [
				{
					"internalType": "uint256",
					"name": "",
					"type": "uint256"
				}
			],
			"stateMutability": "view",
			"type": "function"
		},
		{
			"inputs": [],
			"name": "operator",
			"outputs": [
				{
					"internalType": "address",
					"name": "",
					"type": "address"
				}
			],
			"stateMutability": "view",
			"type": "function"
		},
		{
			"inputs": [],
			"name": "owner",
			"outputs": [
				{
					"internalType": "address",
					"name": "",
					"type": "address"
				}
			],
			"stateMutability": "view",
			"type": "function"
		},
		{
			"inputs": [
				{
					"internalType": "uint256",
					"name": "vestingID",
					"type": "uint256"
				}
			],
			"name": "removeVestingSchedule",
			"outputs": [],
			"stateMutability": "nonpayable",
			"type": "function"
		},
		{
			"inputs": [],
			"name": "renounceOwnership",
			"outputs": [],
			"stateMutability": "nonpayable",
			"type": "function"
		},
		{
			"inputs": [],
			"name": "totalTokensUnderManagement",
			"outputs": [
				{
					"internalType": "uint256",
					"name": "",
					"type": "uint256"
				}
			],
			"stateMutability": "view",
			"type": "function"
		},
		{
			"inputs": [
				{
					"internalType": "address",
					"name": "newOwner",
					"type": "address"
				}
			],
			"name": "transferOwnership",
			"outputs": [],
			"stateMutability": "nonpayable",
			"type": "function"
		},
		{
			"inputs": [
				{
					"internalType": "uint256",
					"name": "",
					"type": "uint256"
				}
			],
			"name": "vestingSchedules",
			"outputs": [
				{
					"internalType": "uint256",
					"name": "totalTokensToVest",
					"type": "uint256"
				},
				{
					"internalType": "uint256",
					"name": "numberToVestEachEpoch",
					"type": "uint256"
				},
				{
					"internalType": "uint256",
					"name": "tokensVested",
					"type": "uint256"
				},
				{
					"internalType": "uint256",
					"name": "epochLength",
					"type": "uint256"
				},
				{
					"internalType": "uint256",
					"name": "startOfVesting",
					"type": "uint256"
				},
				{
					"internalType": "uint256",
					"name": "nextVestingTime",
					"type": "uint256"
				},
				{
					"internalType": "address",
					"name": "vestedTokensReceiver",
					"type": "address"
				},
				{
					"internalType": "bool",
					"name": "removed",
					"type": "bool"
				}
			],
			"stateMutability": "view",
			"type": "function"
		}
	]
}