{
	"data": {
		"bytecode": {
			"linkReferences": {},
			"object": "6080604052348015600f57600080fd5b5060bc8061001e6000396000f3fe6080604052348015600f57600080fd5b506004361060325760003560e01c806332fe7b2614603757806389a3027114606d575b600080fd5b605173a5e0829caced8ffdd4de3c43696c57f7d7a678ff81565b6040516001600160a01b03909116815260200160405180910390f35b605172d06725663411e6d4599f0b630ab003d4290eba8156fea2646970667358221220fa977e9f71047f0fe672bce084ba3f94b8cd0cfef51dd1a00d4dffefdfccccee64736f6c63430008040033",
			"opcodes": "PUSH1 0x80 PUSH1 0x40 MSTORE CALLVALUE DUP1 ISZERO PUSH1 0xF JUMPI PUSH1 0x0 DUP1 REVERT JUMPDEST POP PUSH1 0xBC DUP1 PUSH2 0x1E PUSH1 0x0 CODECOPY PUSH1 0x0 RETURN INVALID PUSH1 0x80 PUSH1 0x40 MSTORE CALLVALUE DUP1 ISZERO PUSH1 0xF JUMPI PUSH1 0x0 DUP1 REVERT JUMPDEST POP PUSH1 0x4 CALLDATASIZE LT PUSH1 0x32 JUMPI PUSH1 0x0 CALLDATALOAD PUSH1 0xE0 SHR DUP1 PUSH4 0x32FE7B26 EQ PUSH1 0x37 JUMPI DUP1 PUSH4 0x89A30271 EQ PUSH1 0x6D JUMPI JUMPDEST PUSH1 0x0 DUP1 REVERT JUMPDEST PUSH1 0x51 PUSH20 0xA5E0829CACED8FFDD4DE3C43696C57F7D7A678FF DUP2 JUMP JUMPDEST PUSH1 0x40 MLOAD PUSH1 0x1 PUSH1 0x1 PUSH1 0xA0 SHL SUB SWAP1 SWAP2 AND DUP2 MSTORE PUSH1 0x20 ADD PUSH1 0x40 MLOAD DUP1 SWAP2 SUB SWAP1 RETURN JUMPDEST PUSH1 0x51 PUSH19 0xD06725663411E6D4599F0B630AB003D4290EBA DUP2 JUMP INVALID LOG2 PUSH5 0x6970667358 0x22 SLT KECCAK256 STATICCALL SWAP8 PUSH31 0x9F71047F0FE672BCE084BA3F94B8CD0CFEF51DD1A00D4DFFEFDFCCCCEE6473 PUSH16 0x6C634300080400330000000000000000 "
		},
		"gasEstimates": {
			"creation": {
				"codeDepositCost": "37600",
				"executionCost": "87",
				"totalCost": "37687"
			},
			"external": {
				"ROUTER()": "182",
				"USDC()": "204"
			}
		},
		"methodIdentifiers": {
			"ROUTER()": "32fe7b26",
			"USDC()": "89a30271"
		}
	},
	"abi": [
		{
			"inputs": [],
			"name": "ROUTER",
			"outputs": [
				{
					"internalType": "address",
					"name": "",
					"type": "address"
				}
			],
			"stateMutability": "view",
			"type": "function"
		},
		{
			"inputs": [],
			"name": "USDC",
			"outputs": [
				{
					"internalType": "address",
					"name": "",
					"type": "address"
				}
			],
			"stateMutability": "view",
			"type": "function"
		}
	]
}