{
	"data": {
		"bytecode": {
			"linkReferences": {},
			"object": "6080604052620000126012600a6200111f565b62000022906377359400620011de565b62000030906000196200121a565b6200003e9060001962001200565b600c55620000fb620000536012600a6200111f565b62000063906301312d00620011de565b620000e7620000756012600a6200111f565b62000085906305f5e100620011de565b620000e7620000976012600a6200111f565b620000a7906305f5e100620011de565b620000e7620000b96012600a6200111f565b620000c990630e4e1c00620011de565b620000d76012600a6200111f565b620000e7906323c34600620011de565b62000de560201b620016fe1790919060201c565b600d55600e805464ffffffffff191664020202020217908190556200015e9060ff6401000000008204811691620000e791630100000082048116918391620100008204811691839160029161010090041662000de5602090811b620016fe17901c565b600f55601080546001600160a01b0319908116733b31f5cc5136f859c8c74ec1bf8275a51709952b179091556011805482167319d3ae69b2170e9f37e3090d08a13fb2f2f2be21179055601280548216737b85cc48cae1eeae0c533d717decaea8d418d1d3178155601380548316738d8a151acb9b7556497c27a13bb454299333abb617905560148054909216731b4340f1e1e19c794ae532be142ad1327c9c4654179091556016805460ff60a01b1916600160a01b17905562000250906064906200022c90600a6200111f565b6200023c906377359400620011de565b62000e5560201b6200175d1790919060201c565b6017553480156200026057600080fd5b50600080546001600160a01b031916339081178255604051909182917f8be0079c531659141344cd1fd0a4f28419497f9722a3daafe3b4186f6b6457e0908290a350601580546001600160a01b03191673a5e0829caced8ffdd4de3c43696c57f7d7a678ff9081179091556040805163c45a015560e01b8152905163c45a015591600480820192602092909190829003018186803b1580156200030257600080fd5b505afa15801562000317573d6000803e3d6000fd5b505050506040513d601f19601f820116820180604052508101906200033d91906200100c565b6040516364e329cb60e11b815230600482015273d26a9ddc4108a6ccda4e23c87b0fb2bdd875d10060248201526001600160a01b03919091169063c9c6539690604401602060405180830381600087803b1580156200039b57600080fd5b505af1158015620003b0573d6000803e3d6000fd5b505050506040513d601f19601f82011682018060405250810190620003d691906200100c565b601680546001600160a01b0319166001600160a01b0392909216919091179055604051620004049062000fe2565b604051809103906000f08015801562000421573d6000803e3d6000fd5b50600380546001600160a01b0319166001600160a01b03929092169190911790556200044a3390565b30604051620004599062000ff0565b6001600160a01b03928316815291166020820152604001604051809103906000f0801580156200048d573d6000803e3d6000fd5b50600480546001600160a01b0319166001600160a01b0392909216919091179055620004b63390565b604051620004c49062000ffe565b6001600160a01b039091168152602001604051809103906000f080158015620004f1573d6000803e3d6000fd5b50600580546001600160a01b03199081166001600160a01b039384161782556000805484168152600960209081526040808320805460ff19908116600190811790925530855282852080548216831790556003548816855282852080548216831790556004805489168652838620805483168417905587548916865283862080548316841790556010548916865283862080548316841790556011548916865283862080548316841790557f960b1051749987b45b5679007fff577a1c2f763ec21c15a6c5eb1930750037858054831684179055601680548a168752600a95869052848720805484168517905554600b805480860182557f0175b7a638427703f0dbe7bb9bbf987a2551717b34e79f33b5b1008d1fa01db990810180548b16938d169390931790925582548b1688528588208054851686179055915482548086018455820180548a16918c1691909117905588548a168752938620805490921683179091559554865491820187559584520180549093169390941692909217905590620006b49062000686906012906200111f565b62000696906304c4b400620011de565b620006a46012600a6200111f565b620000e7906305f5e100620011de565b600580546001600160a01b03908116600090815260076020526040808220859055925492519394509116916000805160206200943483398151915290620006fe9085815260200190565b60405180910390a3600d54600480546001600160a01b039081166000908152600760209081526040808320869055935493519485529290911692909160008051602062009434833981519152910160405180910390a36000620007d4620007686012600a6200111f565b62000778906304c4b400620011de565b620007c06200078a6012600a6200111f565b6200079a906305f5e100620011de565b600d54620007c090620007b06012600a6200111f565b620007c0906377359400620011de565b62000e9f60201b6200179f1790919060201c565b90506000620007f482600c5462000e5560201b6200175d1790919060201c565b905062000810818362000ee960201b620017e11790919060201c565b3360008181526006602090815260408083209490945592518581529192909160008051602062009434833981519152910160405180910390a36005546001600160a01b0316633ca85228606461dead306200086e6012600a6200111f565b6200087d90620f4240620011de565b6200088b6012600a6200111f565b6200089a906207a120620011de565b620008a86012600a6200111f565b620008b6906161a8620011de565b73d26a9ddc4108a6ccda4e23c87b0fb2bdd875d100620008db426312cc0300620010a4565b620008eb426312cd5480620010a4565b620008f96012600a6200111f565b62000909906304c4b400620011de565b60405160e08c901b6001600160e01b0319168152600481019a909a526001600160a01b0398891660248b015296881660448a01526064808a0196909652608489019490945260a488019290925290941660c486015260e4850193909352610104840192909252610124830152610144820152600061016482015261018401600060405180830381600087803b158015620009a257600080fd5b505af1158015620009b7573d6000803e3d6000fd5b50506004546001600160a01b03169150633e34e66d9050620009dc6012600a6200111f565b620009ec906323c34600620011de565b60035460405160e084901b6001600160e01b0319168152600481019290925260026024830152600560448301526000606483018190526001600160a01b03909116608483015260a482015260c401602060405180830381600087803b15801562000a5557600080fd5b505af115801562000a6a573d6000803e3d6000fd5b505050506040513d601f19601f8201168201806040525081019062000a90919062001035565b506004546001600160a01b0316633e34e66d62000ab06012600a6200111f565b62000ac090630e4e1c00620011de565b60105460405160e084901b6001600160e01b0319168152600481019290925260026024830152601e60448301524260648301526001600160a01b03166084820152600060a482015260c401602060405180830381600087803b15801562000b2657600080fd5b505af115801562000b3b573d6000803e3d6000fd5b505050506040513d601f19601f8201168201806040525081019062000b61919062001035565b506004546001600160a01b0316633e34e66d62000b816012600a6200111f565b62000b91906305f5e100620011de565b60125460405160e084901b6001600160e01b03191681526004808201939093526024810192909252601e60448301524260648301526001600160a01b03166084820152600060a482015260c401602060405180830381600087803b15801562000bf957600080fd5b505af115801562000c0e573d6000803e3d6000fd5b505050506040513d601f19601f8201168201806040525081019062000c34919062001035565b506004546001600160a01b0316633e34e66d62000c546012600a6200111f565b62000c64906305f5e100620011de565b60135460405160e084901b6001600160e01b03191681526004808201939093526024810192909252601e60448301524260648301526001600160a01b03166084820152600060a482015260c401602060405180830381600087803b15801562000ccc57600080fd5b505af115801562000ce1573d6000803e3d6000fd5b505050506040513d601f19601f8201168201806040525081019062000d07919062001035565b506004546001600160a01b0316633e34e66d62000d276012600a6200111f565b62000d37906301312d00620011de565b6014805460405160e085901b6001600160e01b03191681526004810193909352602483019190915261016d60448301524260648301526001600160a01b03166084820152600060a482015260c401602060405180830381600087803b15801562000da057600080fd5b505af115801562000db5573d6000803e3d6000fd5b505050506040513d601f19601f8201168201806040525081019062000ddb919062001035565b505050506200125d565b60008062000df48385620010a4565b90508381101562000e4c5760405162461bcd60e51b815260206004820152601b60248201527f536166654d6174683a206164646974696f6e206f766572666c6f77000000000060448201526064015b60405180910390fd5b90505b92915050565b600062000e4c83836040518060400160405280601a81526020017f536166654d6174683a206469766973696f6e206279207a65726f00000000000081525062000f7060201b60201c565b600062000e4c83836040518060400160405280601e81526020017f536166654d6174683a207375627472616374696f6e206f766572666c6f77000081525062000fac60201b60201c565b60008262000efa5750600062000e4f565b600062000f088385620011de565b90508262000f178583620010bf565b1462000e4c5760405162461bcd60e51b815260206004820152602160248201527f536166654d6174683a206d756c7469706c69636174696f6e206f766572666c6f6044820152607760f81b606482015260840162000e43565b6000818362000f945760405162461bcd60e51b815260040162000e4391906200104e565b50600062000fa38486620010bf565b95945050505050565b6000818484111562000fd35760405162461bcd60e51b815260040162000e4391906200104e565b50600062000fa3848662001200565b610ed68062003d0683390190565b611b248062004bdc83390190565b612d34806200670083390190565b6000602082840312156200101e578081fd5b81516001600160a01b038116811462000e4c578182fd5b60006020828403121562001047578081fd5b5051919050565b6000602080835283518082850152825b818110156200107c578581018301518582016040015282016200105e565b818111156200108e5783604083870101525b50601f01601f1916929092016040019392505050565b60008219821115620010ba57620010ba62001231565b500190565b600082620010d157620010d162001247565b500490565b600181815b8085111562001117578160001904821115620010fb57620010fb62001231565b808516156200110957918102915b93841c9390800290620010db565b509250929050565b600062000e4c60ff8416836000826200113b5750600162000e4f565b816200114a5750600062000e4f565b81600181146200116357600281146200116e576200118e565b600191505062000e4f565b60ff84111562001182576200118262001231565b50506001821b62000e4f565b5060208310610133831016604e8410600b8410161715620011b3575081810a62000e4f565b620011bf8383620010d6565b8060001904821115620011d657620011d662001231565b029392505050565b6000816000190483118215151615620011fb57620011fb62001231565b500290565b60008282101562001215576200121562001231565b500390565b6000826200122c576200122c62001247565b500690565b634e487b7160e01b600052601160045260246000fd5b634e487b7160e01b600052601260045260246000fd5b612a99806200126d6000396000f3fe6080604052600436106102e85760003560e01c806383ad799411610190578063c31c9c07116100dc578063e0899a9011610095578063f2fde38b1161006f578063f2fde38b14610956578063fb75b2c714610976578063fccc281314610996578063fce589d8146109ac57600080fd5b8063e0899a90146108dd578063e4419f6114610916578063ea2f0b371461093657600080fd5b8063c31c9c0714610800578063c4730d5d14610820578063c49b9a8014610836578063cc32d17614610856578063d543dbeb14610877578063dd62ed3e1461089757600080fd5b80638da5cb5b11610149578063a457c2d711610123578063a457c2d71461078a578063a5041beb146107aa578063a8602fea146107c0578063a9059cbb146107e057600080fd5b80638da5cb5b1461072157806395d89b411461073f57806398118cb41461076b57600080fd5b806383ad79941461065957806388f820201461067357806389a30271146106ac5780638b424267146106d45780638c0b5e22146106f65780638cf8f71d1461070c57600080fd5b80634549b0391161024f5780635bc05e9a11610208578063715018a6116101e2578063715018a6146105ef57806375f0a8741461060457806378a2e1011461062457806381a0b3ff1461063957600080fd5b80635bc05e9a1461058f5780636bcff5b6146105af57806370a08231146105cf57600080fd5b80634549b039146104ce5780634626402b146104ee5780634a74bb021461050e57806352390c021461052f578063560aa4981461054f5780635958621e1461056f57600080fd5b80632d838119116102a15780632d83811914610402578063313ce5671461042257806332fe7b26146104445780633685d4191461046c578063395093511461048e578063437823ec146104ae57600080fd5b806306fdde03146102f4578063095ea7b31461033757806318160ddd1461036757806323b872dd1461038a5780632523fd57146103aa57806326991cc8146103e257600080fd5b366102ef57005b600080fd5b34801561030057600080fd5b5060408051808201909152600881526726b4b72a32b9ba1960c11b60208201525b60405161032e919061278a565b60405180910390f35b34801561034357600080fd5b50610357610352366004612651565b6109cc565b604051901515815260200161032e565b34801561037357600080fd5b5061037c6109e3565b60405190815260200161032e565b34801561039657600080fd5b506103576103a5366004612616565b610a04565b3480156103b657600080fd5b506005546103ca906001600160a01b031681565b6040516001600160a01b03909116815260200161032e565b3480156103ee57600080fd5b506016546103ca906001600160a01b031681565b34801561040e57600080fd5b5061037c61041d3660046126b2565b610a6d565b34801561042e57600080fd5b5060125b60405160ff909116815260200161032e565b34801561045057600080fd5b506103ca73a5e0829caced8ffdd4de3c43696c57f7d7a678ff81565b34801561047857600080fd5b5061048c6104873660046125ca565b610b09565b005b34801561049a57600080fd5b506103576104a9366004612651565b610d40565b3480156104ba57600080fd5b5061048c6104c93660046125ca565b610d76565b3480156104da57600080fd5b5061037c6104e93660046126ca565b610dec565b3480156104fa57600080fd5b506010546103ca906001600160a01b031681565b34801561051a57600080fd5b5060165461035790600160a01b900460ff1681565b34801561053b57600080fd5b5061048c61054a3660046125ca565b610e8e565b34801561055b57600080fd5b506004546103ca906001600160a01b031681565b34801561057b57600080fd5b5061048c61058a3660046125ca565b61101a565b34801561059b57600080fd5b506013546103ca906001600160a01b031681565b3480156105bb57600080fd5b506003546103ca906001600160a01b031681565b3480156105db57600080fd5b5061037c6105ea3660046125ca565b61108c565b3480156105fb57600080fd5b5061048c6110eb565b34801561061057600080fd5b506012546103ca906001600160a01b031681565b34801561063057600080fd5b5061037c61115f565b34801561064557600080fd5b506014546103ca906001600160a01b031681565b34801561066557600080fd5b50600e546104329060ff1681565b34801561067f57600080fd5b5061035761068e3660046125ca565b6001600160a01b03166000908152600a602052604090205460ff1690565b3480156106b857600080fd5b506103ca73d26a9ddc4108a6ccda4e23c87b0fb2bdd875d10081565b3480156106e057600080fd5b50600e5461043290640100000000900460ff1681565b34801561070257600080fd5b5061037c60175481565b34801561071857600080fd5b5061037c61117c565b34801561072d57600080fd5b506000546001600160a01b03166103ca565b34801561074b57600080fd5b5060408051808201909152600381526226aa1960e91b6020820152610321565b34801561077757600080fd5b50600e5461043290610100900460ff1681565b34801561079657600080fd5b506103576107a5366004612651565b611196565b3480156107b657600080fd5b5061037c600f5481565b3480156107cc57600080fd5b5061048c6107db3660046125ca565b6111e5565b3480156107ec57600080fd5b506103576107fb366004612651565b611257565b34801561080c57600080fd5b506015546103ca906001600160a01b031681565b34801561082c57600080fd5b5061037c600d5481565b34801561084257600080fd5b5061048c61085136600461267a565b611264565b34801561086257600080fd5b50600e54610432906301000000900460ff1681565b34801561088357600080fd5b5061048c6108923660046126b2565b6112e6565b3480156108a357600080fd5b5061037c6108b23660046125e4565b6001600160a01b03918216600090815260086020908152604080832093909416825291909152205490565b3480156108e957600080fd5b506103576108f83660046125ca565b6001600160a01b031660009081526009602052604090205460ff1690565b34801561092257600080fd5b5061048c610931366004612726565b6113e4565b34801561094257600080fd5b5061048c6109513660046125ca565b6115a1565b34801561096257600080fd5b5061048c6109713660046125ca565b611614565b34801561098257600080fd5b506011546103ca906001600160a01b031681565b3480156109a257600080fd5b506103ca61dead81565b3480156109b857600080fd5b50600e546104329062010000900460ff1681565b60006109d9338484611860565b5060015b92915050565b60006109f16012600a6128e3565b6109ff90637735940061298e565b905090565b6000610a588433610a5385604051806060016040528060308152602001612a34603091396001600160a01b038a166000908152600860209081526040808320338452909152902054919061199f565b611860565b610a638484846119d9565b5060019392505050565b6000600c54821115610aec5760405162461bcd60e51b815260206004820152603960248201527f4d696e6f72697479546f6b656e3a20416d6f756e74206d757374206265206c6560448201527f7373207468616e20746f74616c207265666c656374696f6e730000000000000060648201526084015b60405180910390fd5b6000610af6611e61565b9050610b02838261175d565b9392505050565b6000546001600160a01b03163314610b335760405162461bcd60e51b8152600401610ae3906127dd565b6001600160a01b0381166000908152600a602052604090205460ff16610bae5760405162461bcd60e51b815260206004820152602a60248201527f4d696e6f72697479546f6b656e3a204163636f756e7420697320616c726561646044820152691e481a5b98db1d59195960b21b6064820152608401610ae3565b60005b600b54811015610d0857816001600160a01b0316600b8281548110610be657634e487b7160e01b600052603260045260246000fd5b6000918252602090912001546001600160a01b03161415610cf657600b8054610c11906001906129ad565b81548110610c2f57634e487b7160e01b600052603260045260246000fd5b600091825260209091200154600b80546001600160a01b039092169183908110610c6957634e487b7160e01b600052603260045260246000fd5b600091825260208083209190910180546001600160a01b0319166001600160a01b039485161790559184168152600782526040808220829055600a90925220805460ff19169055600b805480610ccf57634e487b7160e01b600052603160045260246000fd5b600082815260209020810160001990810180546001600160a01b0319169055019055610d08565b80610d00816129c4565b915050610bb1565b506040516001600160a01b038216907f47ab6b2d1f416edec684889dc42cd04ed7cc6c6244edaa04c4215e107754861490600090a250565b3360008181526008602090815260408083206001600160a01b038716845290915281205490916109d9918590610a5390866116fe565b6000546001600160a01b03163314610da05760405162461bcd60e51b8152600401610ae3906127dd565b6001600160a01b038116600081815260096020526040808220805460ff19166001179055517ff1d6512ec7550bf605a5a38910e48fb6a57938ed74a5afa01753fa023001005c9190a250565b6000610dfa6012600a6128e3565b610e0890637735940061298e565b831115610e575760405162461bcd60e51b815260206004820152601f60248201527f416d6f756e74206d757374206265206c657373207468616e20737570706c79006044820152606401610ae3565b81610e75576000610e6784611e84565b509294506109dd9350505050565b6000610e8084611e84565b509194506109dd9350505050565b6000546001600160a01b03163314610eb85760405162461bcd60e51b8152600401610ae3906127dd565b6001600160a01b0381166000908152600a602052604090205460ff1615610f345760405162461bcd60e51b815260206004820152602a60248201527f4d696e6f72697479546f6b656e3a204163636f756e7420697320616c726561646044820152691e48195e18db1d59195960b21b6064820152608401610ae3565b6001600160a01b03811660009081526006602052604090205415610f8e576001600160a01b038116600090815260066020526040902054610f7490610a6d565b6001600160a01b0382166000908152600760205260409020555b6001600160a01b0381166000818152600a6020526040808220805460ff19166001908117909155600b8054918201815583527f0175b7a638427703f0dbe7bb9bbf987a2551717b34e79f33b5b1008d1fa01db90180546001600160a01b03191684179055517f110b1fbed46dec7bc9019c3fba97541a3d64821a824872bb7b2ad678490855bf9190a250565b6000546001600160a01b031633146110445760405162461bcd60e51b8152600401610ae3906127dd565b6001600160a01b03811661106a5760405162461bcd60e51b8152600401610ae390612812565b601180546001600160a01b0319166001600160a01b0392909216919091179055565b6001600160a01b0381166000908152600a602052604081205460ff16156110c957506001600160a01b031660009081526007602052604090205490565b6001600160a01b0382166000908152600660205260409020546109dd90610a6d565b6000546001600160a01b031633146111155760405162461bcd60e51b8152600401610ae3906127dd565b600080546040516001600160a01b03909116907f8be0079c531659141344cd1fd0a4f28419497f9722a3daafe3b4186f6b6457e0908390a3600080546001600160a01b0319169055565b61116b6012600a6128e3565b611179906305f5e10061298e565b81565b6111886012600a6128e3565b611179906304c4b40061298e565b60006109d93384610a53856040518060600160405280602d8152602001612a07602d91393360009081526008602090815260408083206001600160a01b038d168452909152902054919061199f565b6000546001600160a01b0316331461120f5760405162461bcd60e51b8152600401610ae3906127dd565b6001600160a01b0381166112355760405162461bcd60e51b8152600401610ae390612812565b601080546001600160a01b0319166001600160a01b0392909216919091179055565b60006109d93384846119d9565b6000546001600160a01b0316331461128e5760405162461bcd60e51b8152600401610ae3906127dd565b60168054821515600160a01b0260ff60a01b199091161790556040517f53726dfcaf90650aa7eb35524f4d3220f07413c8d6cb404cc8c18bf5591bc159906112db90831515815260200190565b60405180910390a150565b6000546001600160a01b031633146113105760405162461bcd60e51b8152600401610ae3906127dd565b6064811061136e5760405162461bcd60e51b815260206004820152602560248201527f4d696e6f72697479546f6b656e3a204d61782054782063616e2774206265203e604482015264203130302560d81b6064820152608401610ae3565b600061139f6064611399846113856012600a6128e3565b61139390637735940061298e565b906117e1565b9061175d565b60175460408051918252602082018390529192507fd6f586005531e7d32112f5389278497d656f7ed9029f31f85494a3f58ca18333910160405180910390a160175550565b6000546001600160a01b0316331461140e5760405162461bcd60e51b8152600401610ae3906127dd565b60006114448260ff1661143e8560ff1661143e8860ff1661143e8b60ff168d60ff166116fe90919063ffffffff16565b906116fe565b905060198111156114a25760405162461bcd60e51b815260206004820152602260248201527f4d696e6f72697479546f6b656e3a20546f74616c206665657320746f6f2068696044820152610ced60f31b6064820152608401610ae3565b600e546040805160ff808416825289811660208301526101008085048216838501528982166060840152630100000085048216608084015288821660a0840152620100008504821660c084015287821660e0840152640100000000909404811693820193909352918416610120830152517f8f37fc6afa33aae90a14fdc164ec931dc905ac72f6d86603baff1f9c411dafe3918190036101400190a1600e805460ff9384166401000000000264ff0000000019958516620100000262ff0000199786166301000000029790971663ffff0000199886166101000261ffff1990931695909916949094171795909516959095179290921716179055600f55565b6000546001600160a01b031633146115cb5760405162461bcd60e51b8152600401610ae3906127dd565b6001600160a01b038116600081815260096020526040808220805460ff19169055517f78ce087db51d01d3e32355f2d83455d5a39f99194c8d3d1c2614893695cee4429190a250565b6000546001600160a01b0316331461163e5760405162461bcd60e51b8152600401610ae3906127dd565b6001600160a01b0381166116a35760405162461bcd60e51b815260206004820152602660248201527f4f776e61626c653a206e6577206f776e657220697320746865207a65726f206160448201526564647265737360d01b6064820152608401610ae3565b600080546040516001600160a01b03808516939216917f8be0079c531659141344cd1fd0a4f28419497f9722a3daafe3b4186f6b6457e091a3600080546001600160a01b0319166001600160a01b0392909216919091179055565b60008061170b8385612868565b905083811015610b025760405162461bcd60e51b815260206004820152601b60248201527f536166654d6174683a206164646974696f6e206f766572666c6f7700000000006044820152606401610ae3565b6000610b0283836040518060400160405280601a81526020017f536166654d6174683a206469766973696f6e206279207a65726f000000000000815250611ecf565b6000610b0283836040518060400160405280601e81526020017f536166654d6174683a207375627472616374696f6e206f766572666c6f77000081525061199f565b6000826117f0575060006109dd565b60006117fc838561298e565b9050826118098583612880565b14610b025760405162461bcd60e51b815260206004820152602160248201527f536166654d6174683a206d756c7469706c69636174696f6e206f766572666c6f6044820152607760f81b6064820152608401610ae3565b6001600160a01b0383166118d35760405162461bcd60e51b815260206004820152603460248201527f4d696e6f72697479546f6b656e3a203a2063616e277420617070726f76652066604482015273726f6d20746865207a65726f206164647265737360601b6064820152608401610ae3565b6001600160a01b03821661193e5760405162461bcd60e51b815260206004820152602c60248201527f4d696e6f72697479546f6b656e3a203a20617070726f766520746f207468652060448201526b7a65726f206164647265737360a01b6064820152608401610ae3565b6001600160a01b0383811660008181526008602090815260408083209487168084529482529182902085905590518481527f8c5be1e5ebec7d5bd14f71427d1e84f3dd0314c0f7b2291e5b200ac8c7c3b925910160405180910390a3505050565b600081848411156119c35760405162461bcd60e51b8152600401610ae3919061278a565b5060006119d084866129ad565b95945050505050565b6001600160a01b038316611a455760405162461bcd60e51b815260206004820152602d60248201527f4d696e6f72697479546f6b656e3a207472616e736665722066726f6d2074686560448201526c207a65726f206164647265737360981b6064820152608401610ae3565b6001600160a01b038216611aaf5760405162461bcd60e51b815260206004820152602b60248201527f4d696e6f72697479546f6b656e3a207472616e7366657220746f20746865207a60448201526a65726f206164647265737360a81b6064820152608401610ae3565b60008111611b255760405162461bcd60e51b815260206004820152603860248201527f4d696e6f72697479546f6b656e3a205472616e7366657220616d6f756e74206d60448201527f7573742062652067726561746572207468616e207a65726f00000000000000006064820152608401610ae3565b6000546001600160a01b03848116911614801590611b5157506000546001600160a01b03838116911614155b15611bce57601754811115611bce5760405162461bcd60e51b815260206004820152603860248201527f4d696e6f72697479546f6b656e3a205472616e7366657220616d6f756e74206560448201527f78636565647320746865205f6d61785478416d6f756e742e00000000000000006064820152608401610ae3565b600354600090611be6906001600160a01b031661108c565b90506017548110611bf657506017545b611c026012600a6128e3565b611c0d9060c861298e565b8110158015611c9f5750600360009054906101000a90046001600160a01b03166001600160a01b0316632ae564546040518163ffffffff1660e01b815260040160206040518083038186803b158015611c6557600080fd5b505afa158015611c79573d6000803e3d6000fd5b505050506040513d601f19601f82011682018060405250810190611c9d9190612696565b155b8015611cb957506016546001600160a01b03858116911614155b8015611cce5750601654600160a01b900460ff165b15611da75760035460405163173865ad60e01b815260048101839052600091829182916001600160a01b03169063173865ad90602401606060405180830381600087803b158015611d1e57600080fd5b505af1158015611d32573d6000803e3d6000fd5b505050506040513d601f19601f82011682018060405250810190611d5691906126f9565b604080518481526020810184905290810182905292955090935091507f17bbfb9a6069321b6ded73bd96327c9e6b7212a5cd51ff219cd61370acafb5619060600160405180910390a1505050611e03565b6004805460408051638adc760d60e01b815290516001600160a01b0390921692638adc760d92828201926000929082900301818387803b158015611dea57600080fd5b505af1158015611dfe573d6000803e3d6000fd5b505050505b6001600160a01b03841660009081526009602052604090205460019060ff1680611e4557506001600160a01b03841660009081526009602052604090205460ff165b15611e4e575060005b611e5a85858584611efd565b5050505050565b6000806000611e6e6120d4565b9092509050611e7d828261175d565b9250505090565b600080600080600080600080611e99896122ee565b9250925092506000806000611eb78c8686611eb2611e61565b612360565b919e909d50909b509599509297509395505050505050565b60008183611ef05760405162461bcd60e51b8152600401610ae3919061278a565b5060006119d08486612880565b600080600080600085611f2657611f1387611e84565b50929750879650899450611f3c92505050565b611f2f87611e84565b9398509196509450925090505b6001600160a01b038916600090815260066020526040902054611f5f908661179f565b6001600160a01b03808b1660009081526006602052604080822093909355908a1681522054611f8e90856116fe565b6001600160a01b03808a16600090815260066020908152604080832094909455918c168152600a909152205460ff1615611fff576001600160a01b038916600090815260076020526040902054611fe5908861179f565b6001600160a01b038a166000908152600760205260409020555b6001600160a01b0388166000908152600a602052604090205460ff161561205d576001600160a01b03881660009081526007602052604090205461204390836116fe565b6001600160a01b0389166000908152600760205260409020555b801561206d5761206d818a6123b0565b821561207c5761207c83612493565b876001600160a01b0316896001600160a01b03167fddf252ad1be2c89b69c2b068fc378daa952ba7f163c4a11628f55a4df523b3ef846040516120c191815260200190565b60405180910390a3505050505050505050565b600c546000908190816120e96012600a6128e3565b6120f790637735940061298e565b905060005b600b54811015612290578260066000600b848154811061212c57634e487b7160e01b600052603260045260246000fd5b60009182526020808320909101546001600160a01b0316835282019290925260400190205411806121a557508160076000600b848154811061217e57634e487b7160e01b600052603260045260246000fd5b60009182526020808320909101546001600160a01b03168352820192909252604001902054115b156121d257600c546121b96012600a6128e3565b6121c790637735940061298e565b945094505050509091565b61222660066000600b84815481106121fa57634e487b7160e01b600052603260045260246000fd5b60009182526020808320909101546001600160a01b03168352820192909252604001902054849061179f565b925061227c60076000600b848154811061225057634e487b7160e01b600052603260045260246000fd5b60009182526020808320909101546001600160a01b03168352820192909252604001902054839061179f565b915080612288816129c4565b9150506120fc565b506122b76122a06012600a6128e3565b6122ae90637735940061298e565b600c549061175d565b8210156122e557600c546122cd6012600a6128e3565b6122db90637735940061298e565b9350935050509091565b90939092509050565b600e5460009081908190819061230f9060649061139990889060ff166117e1565b600e54600f5491925060009161233a9160649161139991612333919060ff1661179f565b89906117e1565b905060006123528261234c898661179f565b9061179f565b979296509094509092505050565b600080808061236f88866117e1565b9050600061237d88876117e1565b9050600061238b88886117e1565b9050600061239d8261234c868661179f565b939b939a50919850919650505050505050565b600e54600f546000916123c6919060ff1661179f565b600e549091506123fb906123e9908390611399908790610100900460ff166117e1565b6003546001600160a01b0316846124a6565b600e5461242f9061241d9083906113999087906301000000900460ff166117e1565b6010546001600160a01b0316846124a6565b600e5461246490612452908390611399908790640100000000900460ff166117e1565b6011546001600160a01b0316846124a6565b600e5461248e9061248590839061139990879062010000900460ff166117e1565b61dead846124a6565b505050565b600c546124a0908261179f565b600c5550565b60006124ba6124b3611e61565b85906117e1565b6001600160a01b0384166000908152600660205260409020549091506124e090826116fe565b6001600160a01b038416600090815260066020908152604080832093909355600a9052205460ff161561254a576001600160a01b03831660009081526007602052604090205461253090856116fe565b6001600160a01b0384166000908152600760205260409020555b826001600160a01b0316826001600160a01b03167fddf252ad1be2c89b69c2b068fc378daa952ba7f163c4a11628f55a4df523b3ef8660405161258f91815260200190565b60405180910390a350505050565b80356001600160a01b03811681146125b457600080fd5b919050565b803560ff811681146125b457600080fd5b6000602082840312156125db578081fd5b610b028261259d565b600080604083850312156125f6578081fd5b6125ff8361259d565b915061260d6020840161259d565b90509250929050565b60008060006060848603121561262a578081fd5b6126338461259d565b92506126416020850161259d565b9150604084013590509250925092565b60008060408385031215612663578182fd5b61266c8361259d565b946020939093013593505050565b60006020828403121561268b578081fd5b8135610b02816129f5565b6000602082840312156126a7578081fd5b8151610b02816129f5565b6000602082840312156126c3578081fd5b5035919050565b600080604083850312156126dc578182fd5b8235915060208301356126ee816129f5565b809150509250929050565b60008060006060848603121561270d578283fd5b8351925060208401519150604084015190509250925092565b600080600080600060a0868803121561273d578081fd5b612746866125b9565b9450612754602087016125b9565b9350612762604087016125b9565b9250612770606087016125b9565b915061277e608087016125b9565b90509295509295909350565b6000602080835283518082850152825b818110156127b65785810183015185820160400152820161279a565b818111156127c75783604083870101525b50601f01601f1916929092016040019392505050565b6020808252818101527f4f776e61626c653a2063616c6c6572206973206e6f7420746865206f776e6572604082015260600190565b60208082526036908201527f4d696e6f72697479546f6b656e3a2057616c6c65742063616e27742062652073604082015275657420746f20746865207a65726f206164647265737360501b606082015260800190565b6000821982111561287b5761287b6129df565b500190565b60008261289b57634e487b7160e01b81526012600452602481fd5b500490565b600181815b808511156128db5781600019048211156128c1576128c16129df565b808516156128ce57918102915b93841c93908002906128a5565b509250929050565b6000610b0260ff8416836000826128fc575060016109dd565b81612909575060006109dd565b816001811461291f576002811461292957612945565b60019150506109dd565b60ff84111561293a5761293a6129df565b50506001821b6109dd565b5060208310610133831016604e8410600b8410161715612968575081810a6109dd565b61297283836128a0565b8060001904821115612986576129866129df565b029392505050565b60008160001904831182151516156129a8576129a86129df565b500290565b6000828210156129bf576129bf6129df565b500390565b60006000198214156129d8576129d86129df565b5060010190565b634e487b7160e01b600052601160045260246000fd5b8015158114612a0357600080fd5b5056fe4d696e6f72697479546f6b656e3a2064656372656173656420616c6c6f77616e63652062656c6f77207a65726f4d696e6f72697479546f6b656e3a207472616e7366657220616d6f756e74206578636565647320616c6c6f77616e6365a2646970667358221220643e3a31dece4b5b9ab93023ed231c024d78690da333c75e5c219650b06cb89664736f6c6343000804003360e060405234801561001057600080fd5b50600080546001600160a01b031916339081178255604051909182917f8be0079c531659141344cd1fd0a4f28419497f9722a3daafe3b4186f6b6457e0908290a35033606081901b6080527fd26a9ddc4108a6ccda4e23c87b0fb2bdd875d10000000000000000000000000060a0527fa5e0829caced8ffdd4de3c43696c57f7d7a678ff00000000000000000000000060c05273d26a9ddc4108a6ccda4e23c87b0fb2bdd875d10073a5e0829caced8ffdd4de3c43696c57f7d7a678ff610d9761013f600039600081816101aa0152818161066f01528181610734015281816108660152818161093201526109e501526000818160a8015281816107c7015261096101526000818161014d015281816105b40152818161069e0152818161089c0152610a140152610d976000f3fe608060405234801561001057600080fd5b506004361061009e5760003560e01c8063715018a611610066578063715018a61461016f57806389a30271146101795780638da5cb5b14610194578063c31c9c07146101a5578063f2fde38b146101cc57600080fd5b806311eac855146100a3578063173865ad146100e75780632ae564541461011557806332fe7b261461012d5780635a533efd14610148575b600080fd5b6100ca7f000000000000000000000000000000000000000000000000000000000000000081565b6040516001600160a01b0390911681526020015b60405180910390f35b6100fa6100f5366004610bc9565b6101df565b604080519384526020840192909252908201526060016100de565b61011d6102e7565b60405190151581526020016100de565b6100ca73a5e0829caced8ffdd4de3c43696c57f7d7a678ff81565b6100ca7f000000000000000000000000000000000000000000000000000000000000000081565b61017761031c565b005b6100ca73d26a9ddc4108a6ccda4e23c87b0fb2bdd875d10081565b6000546001600160a01b03166100ca565b6100ca7f000000000000000000000000000000000000000000000000000000000000000081565b6101776101da366004610b82565b610390565b6003805460ff19166001179055600080806101f73390565b6000546001600160a01b0390811691161461022d5760405162461bcd60e51b815260040161022490610c79565b60405180910390fd5b600084116102915760405162461bcd60e51b815260206004820152602b60248201527f4d696e6f726974794c69717569646974794d616e616765723a204e6f20746f6b60448201526a0656e7320746f20737761760ac1b6064820152608401610224565b600061029e85600261047a565b905060006102ac86836104c3565b905060006102b983610505565b905060008060006102ca858561084f565b6003805460ff19169055919c909b50909950975050505050505050565b600080546001600160a01b031633146103125760405162461bcd60e51b815260040161022490610c79565b5060035460ff1690565b6000546001600160a01b031633146103465760405162461bcd60e51b815260040161022490610c79565b600080546040516001600160a01b03909116907f8be0079c531659141344cd1fd0a4f28419497f9722a3daafe3b4186f6b6457e0908390a3600080546001600160a01b0319169055565b6000546001600160a01b031633146103ba5760405162461bcd60e51b815260040161022490610c79565b6001600160a01b03811661041f5760405162461bcd60e51b815260206004820152602660248201527f4f776e61626c653a206e6577206f776e657220697320746865207a65726f206160448201526564647265737360d01b6064820152608401610224565b600080546040516001600160a01b03808516939216917f8be0079c531659141344cd1fd0a4f28419497f9722a3daafe3b4186f6b6457e091a3600080546001600160a01b0319166001600160a01b0392909216919091179055565b60006104bc83836040518060400160405280601a81526020017f536166654d6174683a206469766973696f6e206279207a65726f000000000000815250610b1a565b9392505050565b60006104bc83836040518060400160405280601e81526020017f536166654d6174683a207375627472616374696f6e206f766572666c6f770000815250610b51565b6040516370a0823160e01b8152306004820152600090819073d26a9ddc4108a6ccda4e23c87b0fb2bdd875d100906370a082319060240160206040518083038186803b15801561055457600080fd5b505afa158015610568573d6000803e3d6000fd5b505050506040513d601f19601f8201168201806040525081019061058c9190610be1565b60408051600280825260608201835292935060009290916020830190803683370190505090507f0000000000000000000000000000000000000000000000000000000000000000816000815181106105f457634e487b7160e01b600052603260045260246000fd5b60200260200101906001600160a01b031690816001600160a01b03168152505073d26a9ddc4108a6ccda4e23c87b0fb2bdd875d1008160018151811061064a57634e487b7160e01b600052603260045260246000fd5b6001600160a01b03928316602091820292909201015260405163095ea7b360e01b81527f000000000000000000000000000000000000000000000000000000000000000082166004820152602481018690527f00000000000000000000000000000000000000000000000000000000000000009091169063095ea7b390604401602060405180830381600087803b1580156106e457600080fd5b505af11580156106f8573d6000803e3d6000fd5b505050506040513d601f19601f8201168201806040525081019061071c9190610ba9565b50604051635c11d79560e01b81526001600160a01b037f00000000000000000000000000000000000000000000000000000000000000001690635c11d79590610772908790600090869030904290600401610cae565b600060405180830381600087803b15801561078c57600080fd5b505af11580156107a0573d6000803e3d6000fd5b50506040516370a0823160e01b815230600482015261084792508491506001600160a01b037f000000000000000000000000000000000000000000000000000000000000000016906370a082319060240160206040518083038186803b15801561080957600080fd5b505afa15801561081d573d6000803e3d6000fd5b505050506040513d601f19601f820116820180604052508101906108419190610be1565b906104c3565b949350505050565b60405163095ea7b360e01b81526001600160a01b037f00000000000000000000000000000000000000000000000000000000000000008116600483015260248201849052600091829182917f00000000000000000000000000000000000000000000000000000000000000009091169063095ea7b390604401602060405180830381600087803b1580156108e257600080fd5b505af11580156108f6573d6000803e3d6000fd5b505050506040513d601f19601f8201168201806040525081019061091a9190610ba9565b5060405163095ea7b360e01b81526001600160a01b037f000000000000000000000000000000000000000000000000000000000000000081166004830152602482018690527f0000000000000000000000000000000000000000000000000000000000000000169063095ea7b390604401602060405180830381600087803b1580156109a557600080fd5b505af11580156109b9573d6000803e3d6000fd5b505050506040513d601f19601f820116820180604052508101906109dd9190610ba9565b5060008060007f00000000000000000000000000000000000000000000000000000000000000006001600160a01b031663e8e337007f000000000000000000000000000000000000000000000000000000000000000073d26a9ddc4108a6ccda4e23c87b0fb2bdd875d1008b8b600080610a5f6000546001600160a01b031690565b60405160e089901b6001600160e01b03191681526001600160a01b039788166004820152958716602487015260448601949094526064850192909252608484015260a483015290911660c48201524260e482015261010401606060405180830381600087803b158015610ad157600080fd5b505af1158015610ae5573d6000803e3d6000fd5b505050506040513d601f19601f82011682018060405250810190610b099190610bf9565b919750955093505050509250925092565b60008183610b3b5760405162461bcd60e51b81526004016102249190610c26565b506000610b488486610d1e565b95945050505050565b60008184841115610b755760405162461bcd60e51b81526004016102249190610c26565b506000610b488486610d3e565b600060208284031215610b93578081fd5b81356001600160a01b03811681146104bc578182fd5b600060208284031215610bba578081fd5b815180151581146104bc578182fd5b600060208284031215610bda578081fd5b5035919050565b600060208284031215610bf2578081fd5b5051919050565b600080600060608486031215610c0d578182fd5b8351925060208401519150604084015190509250925092565b6000602080835283518082850152825b81811015610c5257858101830151858201604001528201610c36565b81811115610c635783604083870101525b50601f01601f1916929092016040019392505050565b6020808252818101527f4f776e61626c653a2063616c6c6572206973206e6f7420746865206f776e6572604082015260600190565b600060a082018783526020878185015260a0604085015281875180845260c0860191508289019350845b81811015610cfd5784516001600160a01b031683529383019391830191600101610cd8565b50506001600160a01b03969096166060850152505050608001529392505050565b600082610d3957634e487b7160e01b81526012600452602481fd5b500490565b600082821015610d5c57634e487b7160e01b81526011600452602481fd5b50039056fea26469706673582212206a84a3141f63f196c0acc2e24eb35148a530cfc6849502209df0bdb9326cb53964736f6c6343000804003360a06040523480156200001157600080fd5b5060405162001b2438038062001b248339810160408190526200003491620001da565b600080546001600160a01b031916339081178255604051909182917f8be0079c531659141344cd1fd0a4f28419497f9722a3daafe3b4186f6b6457e0908290a3506001600160a01b038216620000f75760405162461bcd60e51b815260206004820152603a60248201527f4d696e6f7269747956657374696e674d616e616765723a204f70657261746f7260448201527f2063616e277420626520746865207a65726f206164647265737300000000000060648201526084015b60405180910390fd5b6001600160a01b038116620001865760405162461bcd60e51b815260206004820152604860248201527f4d696e6f7269747956657374696e674d616e616765723a204d696e6f7269747960448201527f20746f6b656e20616464726573732063616e277420626520746865207a65726f606482015267206164647265737360c01b608482015260a401620000ee565b600380546001600160a01b0319166001600160a01b03939093169290921790915560601b6001600160601b03191660805262000211565b80516001600160a01b0381168114620001d557600080fd5b919050565b60008060408385031215620001ed578182fd5b620001f883620001bd565b91506200020860208401620001bd565b90509250929050565b60805160601c6118e66200023e600039600081816101c7015281816107d10152610e6a01526118e66000f3fe608060405234801561001057600080fd5b50600436106100f55760003560e01c8063715018a61161009757806398fb7a981161006657806398fb7a98146102265780639c86aee8146102395780639f91d48414610242578063f2fde38b1461025557600080fd5b8063715018a6146101fc57806384f61358146102045780638adc760d1461020d5780638da5cb5b1461021557600080fd5b806356329ee6116100d357806356329ee61461018e578063570ca735146101975780635a533efd146101c25780636d3cbe21146101e957600080fd5b806320f6b0a9146100fa57806322811b9f146101585780633e34e66d1461016d575b600080fd5b61010d6101083660046115c5565b610268565b604080519889526020890197909752958701949094526060860192909252608085015260a08401526001600160a01b031660c0830152151560e0820152610100015b60405180910390f35b61016b6101663660046115f5565b610373565b005b61018061017b36600461165e565b61060f565b60405190815260200161014f565b61018060065481565b6003546101aa906001600160a01b031681565b6040516001600160a01b03909116815260200161014f565b6101aa7f000000000000000000000000000000000000000000000000000000000000000081565b61010d6101f73660046115c5565b610ba5565b61016b610c09565b61018060055481565b61016b610c7d565b6000546001600160a01b03166101aa565b61016b6102343660046115c5565b610f45565b61018060075481565b610180610250366004611616565b61114a565b61016b61026336600461158f565b6111a5565b60008060008060008060008060048054905089106102a15760405162461bcd60e51b81526004016102989061179e565b60405180910390fd5b600060048a815481106102c457634e487b7160e01b600052603260045260246000fd5b600091825260209182902060408051610100810182526007909302909101805480845260018201549484018590526002820154928401839052600382015460608501819052600483015460808601819052600584015460a087018190526006909401546001600160a01b03811660c0880181905260ff600160a01b90920491909116151560e0909701879052929f50959d50929b50919950929750919550909350915050919395975091939597565b6003546001600160a01b031633148061039657506000546001600160a01b031633145b6103b25760405162461bcd60e51b815260040161029890611741565b60045482106103d35760405162461bcd60e51b81526004016102989061179e565b4281116104365760405162461bcd60e51b8152602060048201526038602482015260008051602061189183398151915260448201527f6d75737420737461727420696e207468652066757475726500000000000000006064820152608401610298565b6004828154811061045757634e487b7160e01b600052603260045260246000fd5b906000526020600020906007020160060160149054906101000a900460ff16156104c45760405162461bcd60e51b815260206004820152602a60248201526000805160206118918339815191526044820152691251081c995b5bdd995960b21b6064820152608401610298565b7f2ee9904f2125da26979bf6b3ffdff419c60cd5b2bb1fc5be175f8fc60218ce89826004848154811061050757634e487b7160e01b600052603260045260246000fd5b6000918252602091829020600460079092020101546040805193845291830152810183905260600160405180910390a1600061057e6004848154811061055d57634e487b7160e01b600052603260045260246000fd5b9060005260206000209060070201600301548361128f90919063ffffffff16565b905081600484815481106105a257634e487b7160e01b600052603260045260246000fd5b90600052602060002090600702016004018190555080600484815481106105d957634e487b7160e01b600052603260045260246000fd5b906000526020600020906007020160050181905550826006541415610605576106006112f7565b505050565b61060083826113e0565b600080546001600160a01b0316331461063a5760405162461bcd60e51b81526004016102989061170c565b606486106106b05760405162461bcd60e51b815260206004820152603d60248201527f4d696e6f7269747956657374696e674d616e616765723a2043616e277420766560448201527f7374203e2031303025206f6620746f6b656e73207065722065706f63680000006064820152608401610298565b42841015806106bd575083155b61072f5760405162461bcd60e51b815260206004820152603f60248201527f4d696e6f7269747956657374696e674d616e616765723a20526577617264732060448201527f63616e277420626567696e2076657374696e6720696e207468652070617374006064820152608401610298565b6001600160a01b0383166107a45760405162461bcd60e51b8152602060048201526042602482015260008051602061189183398151915260448201527f72656365697665722063616e277420626520746865207a65726f206164647265606482015261737360f01b608482015260a401610298565b6007546000906107b4908961128f565b905082156108fe576040516370a0823160e01b81523060048201527f00000000000000000000000000000000000000000000000000000000000000006001600160a01b0316906370a082319060240160206040518083038186803b15801561081b57600080fd5b505afa15801561082f573d6000803e3d6000fd5b505050506040513d601f19601f8201168201806040525081019061085391906115dd565b8111156108fe5760405162461bcd60e51b815260206004820152606760248201527f4d696e6f7269747956657374696e674d616e616765723a204e6f7420656e6f7560448201527f676820746f6b656e7320696e20636f6e747261637420746f20766573742e205460648201527f72616e7366657220746f6b656e73206265666f726520616464696e672061207360848201526663686564756c6560c81b60a482015260c401610298565b600085156109225761091d6109168862015180611408565b879061128f565b610924565b855b905060006040518061010001604052808b815260200161095860646109528d8f61140890919063ffffffff16565b90611487565b8152600060208201526040016109718a62015180611408565b815260208082018a905260408083018690526001600160a01b03808b16606080860191909152600060809586018190526004805460018181018355828452895160079283027f8a35acfbc15ff81a39ae7d344fd709f28e8600b4aa8c65c6b64bfe7fe36bd19b810191909155978a01517f8a35acfbc15ff81a39ae7d344fd709f28e8600b4aa8c65c6b64bfe7fe36bd19c890155958901517f8a35acfbc15ff81a39ae7d344fd709f28e8600b4aa8c65c6b64bfe7fe36bd19d880155928801517f8a35acfbc15ff81a39ae7d344fd709f28e8600b4aa8c65c6b64bfe7fe36bd19e870155958701517f8a35acfbc15ff81a39ae7d344fd709f28e8600b4aa8c65c6b64bfe7fe36bd19f86015560a08701517f8a35acfbc15ff81a39ae7d344fd709f28e8600b4aa8c65c6b64bfe7fe36bd1a086015560c08701517f8a35acfbc15ff81a39ae7d344fd709f28e8600b4aa8c65c6b64bfe7fe36bd1a1909501805460e08901511515600160a01b026001600160a81b031990911696909416959095179290921790935591879055915492935091610b0d9190611837565b9050610b1981846113e0565b815160208084015160608086015160808088015160a0808a015160c0808c0151604080518d81529a8b019b909b52898b019890985295880194909452918601528401526001600160a01b039091169082015290517fff7d5b9238fdf530d746ea0e1b517671e3e0fd1414a36e69a57867dc707dc65a9181900360e00190a19a9950505050505050505050565b60048181548110610bb557600080fd5b6000918252602090912060079091020180546001820154600283015460038401546004850154600586015460069096015494965092949193909291906001600160a01b03811690600160a01b900460ff1688565b6000546001600160a01b03163314610c335760405162461bcd60e51b81526004016102989061170c565b600080546040516001600160a01b03909116907f8be0079c531659141344cd1fd0a4f28419497f9722a3daafe3b4186f6b6457e0908390a3600080546001600160a01b0319169055565b4260055411158015610c90575060055415155b15610f43576000600460065481548110610cba57634e487b7160e01b600052603260045260246000fd5b60009182526020808320604080516101008101825260079094029091018054845260018101549284019290925260028201549083015260038101546060830181905260048201546080840152600582015460a08401526006909101546001600160a01b03811660c084015260ff600160a01b90910416151560e0830152909250610d44904261128f565b60058190556020830151835160408501519293509091610d64908361128f565b1115610dbf5760408301518351610d7a916114c9565b90506000600460065481548110610da157634e487b7160e01b600052603260045260246000fd5b60009182526020822060056007909202018101929092559055610df9565b81600460065481548110610de357634e487b7160e01b600052603260045260246000fd5b9060005260206000209060070201600501819055505b6040830151610e08908261128f565b600460065481548110610e2b57634e487b7160e01b600052603260045260246000fd5b600091825260209091206007909102016002015560c083015160405163a9059cbb60e01b81526001600160a01b039182166004820152602481018390527f00000000000000000000000000000000000000000000000000000000000000009091169063a9059cbb90604401602060405180830381600087803b158015610eb057600080fd5b505af1158015610ec4573d6000803e3d6000fd5b505050506040513d601f19601f82011682018060405250810190610ee891906115a9565b508260c001516001600160a01b03167fd02fe226269dcd9a9e174ef0dd99b931a3f1475ce6bceeb671b2f45b4aa1ccce60065483604051610f33929190918252602082015260400190565b60405180910390a26106006112f7565b565b6003546001600160a01b0316331480610f6857506000546001600160a01b031633145b610f845760405162461bcd60e51b815260040161029890611741565b6004548110610fa55760405162461bcd60e51b81526004016102989061179e565b60048181548110610fc657634e487b7160e01b600052603260045260246000fd5b906000526020600020906007020160060160149054906101000a900460ff161561103b5760405162461bcd60e51b81526020600482015260326024820152600080516020611891833981519152604482015271125108185b1c9958591e481c995b5bdd995960721b6064820152608401610298565b60016004828154811061105e57634e487b7160e01b600052603260045260246000fd5b906000526020600020906007020160060160146101000a81548160ff0219169083151502179055506110ff600482815481106110aa57634e487b7160e01b600052603260045260246000fd5b9060005260206000209060070201600201546110f9600484815481106110e057634e487b7160e01b600052603260045260246000fd5b60009182526020909120600791820201549054906114c9565b9061128f565b600755600654811415611114576111146112f7565b6040518181527f3a9782b2e3f78dee6de9b41f31d0f34064ee9d7bd4a79e5e3f7e0c1ca528bba39060200160405180910390a150565b6003546000906001600160a01b031633148061117057506000546001600160a01b031633145b61118c5760405162461bcd60e51b815260040161029890611741565b61119b8686868686600161060f565b9695505050505050565b6000546001600160a01b031633146111cf5760405162461bcd60e51b81526004016102989061170c565b6001600160a01b0381166112345760405162461bcd60e51b815260206004820152602660248201527f4f776e61626c653a206e6577206f776e657220697320746865207a65726f206160448201526564647265737360d01b6064820152608401610298565b600080546040516001600160a01b03808516939216917f8be0079c531659141344cd1fd0a4f28419497f9722a3daafe3b4186f6b6457e091a3600080546001600160a01b0319166001600160a01b0392909216919091179055565b60008061129c83856117e0565b9050838110156112ee5760405162461bcd60e51b815260206004820152601b60248201527f536166654d6174683a206164646974696f6e206f766572666c6f7700000000006044820152606401610298565b90505b92915050565b60045460005b818110156113dc57600654811415801561135457506004818154811061133357634e487b7160e01b600052603260045260246000fd5b906000526020600020906007020160060160149054906101000a900460ff16155b156113ca5760006004828154811061137c57634e487b7160e01b600052603260045260246000fd5b9060005260206000209060070201600501549050806000146113c8574281116113a85760055560065550565b6005548110806113b85750600554155b156113c857600581905560068290555b505b806113d48161184e565b9150506112fd565b5050565b6005548110806113f05750600554155b80156113fb57508015155b156113dc57600555600655565b600082611417575060006112f1565b60006114238385611818565b90508261143085836117f8565b146112ee5760405162461bcd60e51b815260206004820152602160248201527f536166654d6174683a206d756c7469706c69636174696f6e206f766572666c6f6044820152607760f81b6064820152608401610298565b60006112ee83836040518060400160405280601a81526020017f536166654d6174683a206469766973696f6e206279207a65726f00000000000081525061150b565b60006112ee83836040518060400160405280601e81526020017f536166654d6174683a207375627472616374696f6e206f766572666c6f770000815250611542565b6000818361152c5760405162461bcd60e51b815260040161029891906116b9565b50600061153984866117f8565b95945050505050565b600081848411156115665760405162461bcd60e51b815260040161029891906116b9565b5060006115398486611837565b80356001600160a01b038116811461158a57600080fd5b919050565b6000602082840312156115a0578081fd5b6112ee82611573565b6000602082840312156115ba578081fd5b81516112ee8161187f565b6000602082840312156115d6578081fd5b5035919050565b6000602082840312156115ee578081fd5b5051919050565b60008060408385031215611607578081fd5b50508035926020909101359150565b600080600080600060a0868803121561162d578081fd5b8535945060208601359350604086013592506060860135915061165260808701611573565b90509295509295909350565b60008060008060008060c08789031215611676578081fd5b8635955060208701359450604087013593506060870135925061169b60808801611573565b915060a08701356116ab8161187f565b809150509295509295509295565b6000602080835283518082850152825b818110156116e5578581018301518582016040015282016116c9565b818111156116f65783604083870101525b50601f01601f1916929092016040019392505050565b6020808252818101527f4f776e61626c653a2063616c6c6572206973206e6f7420746865206f776e6572604082015260600190565b6020808252603c908201527f4d696e6f7269747956657374696e674d616e616765723a206f6e6c792061636360408201527f65737369626c65206279206f70657261746f72206f72206f776e657200000000606082015260800190565b60208082526022908201527f4d696e6f7269747956657374696e674d616e616765723a20696e76616c696420604082015261125160f21b606082015260800190565b600082198211156117f3576117f3611869565b500190565b60008261181357634e487b7160e01b81526012600452602481fd5b500490565b600081600019048311821515161561183257611832611869565b500290565b60008282101561184957611849611869565b500390565b600060001982141561186257611862611869565b5060010190565b634e487b7160e01b600052601160045260246000fd5b801515811461188d57600080fd5b5056fe4d696e6f7269747956657374696e674d616e616765723a2076657374696e6720a2646970667358221220da48155c03d9b838f3d98686ff66a4657208d7d5ecc042531b109e5f1bc0cb7e64736f6c6343000804003360a06040523480156200001157600080fd5b5060405162002d3438038062002d34833981016040819052620000349162000145565b6001600081815581546001600160a01b031916339081179092556040518291907f8be0079c531659141344cd1fd0a4f28419497f9722a3daafe3b4186f6b6457e0908290a3506001600160a01b038116620000fb5760405162461bcd60e51b815260206004820152603360248201527f4d696e6f7269747950726573616c653a204f70657261746f722063616e27742060448201527f626520746865207a65726f206164647265737300000000000000000000000000606482015260840160405180910390fd5b7fa5e0829caced8ffdd4de3c43696c57f7d7a678ff000000000000000000000000608052600480546001600160a01b0319166001600160a01b039290921691909117905562000175565b60006020828403121562000157578081fd5b81516001600160a01b03811681146200016e578182fd5b9392505050565b60805160601c612b84620001b06000396000818161065b015281816106ed015281816120f5015281816121a101526122920152612b846000f3fe60806040526004361061021e5760003560e01c80635e6911af11610123578063a4399263116100ab578063c31c9c071161006f578063c31c9c0714610649578063d91b3d071461067d578063f2fde38b14610693578063f89be593146106b3578063fc0c546a146106c957600080fd5b8063a4399263146105d3578063b071cbe6146105e8578063b5545a3c146105fe578063b7a8807c14610613578063baac251b1461062957600080fd5b806389a30271116100f257806389a30271146105395780638d167405146105615780638da5cb5b146105765780639a82a09a14610594578063a27aebbc146105b357600080fd5b80635e6911af146104da578063656768fa146104f45780636eb219291461050a578063715018a61461052457600080fd5b80633ca85228116101a657806348c54b9d1161017557806348c54b9d1461045957806349f1026e1461046e5780634b6753bc14610484578063521eb2731461049a578063570ca735146104ba57600080fd5b80633ca85228146103f95780634042b66f14610419578063467e53b11461042f57806347535d7b1461044457600080fd5b806321eff7fc116101ed57806321eff7fc1461033a5780632c4e722e146103705780633013ce291461038657806332fe7b26146103be5780633610724e146103e657600080fd5b80630276650b146102b25780631512fc22146102db5780631515bc2b146102fb578063214bb60f1461032057600080fd5b366102ad5761022b6106e9565b6102a25760405162461bcd60e51b815260206004820152603b60248201527f4d696e6f7269747950726573616c653a2043616e27742062757920627920736560448201527f6e64696e672066756e647320746f20746869732061646472657373000000000060648201526084015b60405180910390fd5b6102ab34610792565b005b600080fd5b3480156102be57600080fd5b506102c8600d5481565b6040519081526020015b60405180910390f35b3480156102e757600080fd5b506102ab6102f636600461293a565b610913565b34801561030757600080fd5b50610310610a89565b60405190151581526020016102d2565b34801561032c57600080fd5b506013546103109060ff1681565b34801561034657600080fd5b506102c861035536600461276e565b6001600160a01b03166000908152600e602052604090205490565b34801561037c57600080fd5b506102c860085481565b34801561039257600080fd5b506006546103a6906001600160a01b031681565b6040516001600160a01b0390911681526020016102d2565b3480156103ca57600080fd5b506103a673a5e0829caced8ffdd4de3c43696c57f7d7a678ff81565b6102ab6103f43660046127c2565b610792565b34801561040557600080fd5b506102ab61041436600461288d565b610aa2565b34801561042557600080fd5b506102c860095481565b34801561043b57600080fd5b506102ab611270565b34801561045057600080fd5b5061031061134d565b34801561046557600080fd5b506102ab611366565b34801561047a57600080fd5b506102c860125481565b34801561049057600080fd5b506102c860105481565b3480156104a657600080fd5b506007546103a6906001600160a01b031681565b3480156104c657600080fd5b506004546103a6906001600160a01b031681565b3480156104e657600080fd5b50600b546009541015610310565b34801561050057600080fd5b506102c860115481565b34801561051657600080fd5b50600c546009541015610310565b34801561053057600080fd5b506102ab611608565b34801561054557600080fd5b506103a673d26a9ddc4108a6ccda4e23c87b0fb2bdd875d10081565b34801561056d57600080fd5b506103106106e9565b34801561058257600080fd5b506001546001600160a01b03166103a6565b3480156105a057600080fd5b5060135461031090610100900460ff1681565b3480156105bf57600080fd5b506102ab6105ce3660046127c2565b61167c565b3480156105df57600080fd5b506102ab6117ca565b3480156105f457600080fd5b506102c8600b5481565b34801561060a57600080fd5b506102ab6118f7565b34801561061f57600080fd5b506102c8600f5481565b34801561063557600080fd5b506102ab6106443660046127f2565b611b32565b34801561065557600080fd5b506103a67f000000000000000000000000000000000000000000000000000000000000000081565b34801561068957600080fd5b506102c8600a5481565b34801561069f57600080fd5b506102ab6106ae36600461276e565b611b93565b3480156106bf57600080fd5b506102c8600c5481565b3480156106d557600080fd5b506005546103a6906001600160a01b031681565b60007f00000000000000000000000000000000000000000000000000000000000000006001600160a01b031663ad5c46486040518163ffffffff1660e01b815260040160206040518083038186803b15801561074457600080fd5b505afa158015610758573d6000803e3d6000fd5b505050506040513d601f19601f8201168201806040525081019061077c919061278a565b6006546001600160a01b03908116911614919050565b600260005414156107e55760405162461bcd60e51b815260206004820152601f60248201527f5265656e7472616e637947756172643a207265656e7472616e742063616c6c006044820152606401610299565b6002600090815533906107f88284611c7e565b90506000811161085c5760405162461bcd60e51b815260206004820152602960248201527f4d696e6f7269747950726573616c653a20697373756520636f6c6c656374696e60448201526819c81c185e5b595b9d60ba1b6064820152608401610299565b600061086782611ec6565b6009549091506108779083611edd565b6009556001600160a01b0383166000908152600e602052604090205461089d9083611edd565b6001600160a01b0384166000818152600e602090815260409182902093909355805185815292830184905290917f8fafebcaf9d154343dad25669bfa277f4fbacd7ac6b0c4fed522580e040a0f33910160405180910390a2600b5460095410610908576109086117ca565b505060016000555050565b6004546001600160a01b031633148061093657506001546001600160a01b031633145b6109525760405162461bcd60e51b815260040161029990612a52565b61095a610a89565b156109a75760405162461bcd60e51b815260206004820152601f60248201527f4d696e6f7269747950726573616c653a20616c726561647920636c6f736564006044820152606401610299565b6109af61134d565b15610a335760405162461bcd60e51b815260206004820152604860248201527f4d696e6f7269747950726573616c653a20616c7265616479206f70656e2c207560448201527f736520657874656e6454696d6520746f206368616e67652074686520636c6f73606482015267696e672074696d6560c01b608482015260a401610299565b600f546010546040805192835260208301859052820152606081018290527fcee39188adaf9a8b11d1c48b0a60f530d2d2923c00d7f9ac4a8294501d77e9ba9060800160405180910390a1600f91909155601055565b600060105442118015610a9d575060105415155b905090565b6001546001600160a01b03163314610acc5760405162461bcd60e51b8152600401610299906129db565b600f541580610aea5750600f54610ae69062015180611f3c565b4211155b610b535760405162461bcd60e51b815260206004820152603460248201527f4d696e6f7269747950726573616c653a2043616e2774206d6f64696679203c206044820152733120646179206265666f7265206f70656e696e6760601b6064820152608401610299565b601354610100900460ff1615610bd15760405162461bcd60e51b815260206004820152603a60248201527f4d696e6f7269747950726573616c653a2043616e27742072652d75736520612060448201527f63616e63656c6c65642070726573616c6520636f6e74726163740000000000006064820152608401610299565b60008c11610c215760405162461bcd60e51b815260206004820181905260248201527f4d696e6f7269747950726573616c653a20726174652063616e277420626520306044820152606401610299565b6001600160a01b038b16610c915760405162461bcd60e51b815260206004820152603160248201527f4d696e6f7269747950726573616c653a2077616c6c65742063616e277420626560448201527020746865207a65726f206164647265737360781b6064820152608401610299565b6001600160a01b038a16610d005760405162461bcd60e51b815260206004820152603060248201527f4d696e6f7269747950726573616c653a20746f6b656e2063616e27742062652060448201526f746865207a65726f206164647265737360801b6064820152608401610299565b6001600160a01b038616610d7c5760405162461bcd60e51b815260206004820152603860248201527f4d696e6f7269747950726573616c653a207061796d656e7420746f6b656e206360448201527f616e277420626520746865207a65726f206164647265737300000000000000006064820152608401610299565b60008911610dd85760405162461bcd60e51b815260206004820152602360248201527f4d696e6f7269747950726573616c653a20686172646361702063616e2774206260448201526206520360ec1b6064820152608401610299565b60008811610e345760405162461bcd60e51b815260206004820152602360248201527f4d696e6f7269747950726573616c653a20736f66746361702063616e2774206260448201526206520360ec1b6064820152608401610299565b888810610e965760405162461bcd60e51b815260206004820152602a60248201527f4d696e6f7269747950726573616c653a20736f6674636170206d7573742062656044820152690203c20686172646361760b41b6064820152608401610299565b60008711610ef95760405162461bcd60e51b815260206004820152602a60248201527f4d696e6f7269747950726573616c653a20696e646976696475616c2063617020604482015269063616e277420626520360b41b6064820152608401610299565b42851015610f645760405162461bcd60e51b815260206004820152603260248201527f4d696e6f7269747950726573616c653a206f70656e696e672074696d652063616044820152711b89dd081899481a5b881d1a19481c185cdd60721b6064820152608401610299565b848411610fd95760405162461bcd60e51b815260206004820152603a60248201527f4d696e6f7269747950726573616c653a20636c6f73696e672074696d6520636160448201527f6e2774206265206265666f7265206f70656e696e672074696d650000000000006064820152608401610299565b6000831161103c5760405162461bcd60e51b815260206004820152602a60248201527f4d696e6f7269747950726573616c653a206d75737420616464203e203020746f60448201526906b656e7320746f204c560b41b6064820152608401610299565b6046821015801561104e575060648211155b6110cb5760405162461bcd60e51b815260206004820152604260248201527f4d696e6f7269747950726573616c653a206d75737420616464203e3d2037302560448201527f20616e64203c3d2031303025206f66207261697365642066756e647320746f2060648201526104c560f41b608482015260a401610299565b8015611208576110e5836110df8b8f611f7e565b90611edd565b6040516370a0823160e01b81523060048201526001600160a01b038c16906370a082319060240160206040518083038186803b15801561112457600080fd5b505afa158015611138573d6000803e3d6000fd5b505050506040513d601f19601f8201168201806040525081019061115c91906127da565b10156112085760405162461bcd60e51b815260206004820152606960248201527f4d696e6f7269747950726573616c653a204e6f7420656e6f75676820746f6b6560448201527f6e73206f776e656420746f20636f6d706c6574652070726573616c652e20446560648201527f706f73697420746f6b656e73206265666f72652063616c6c696e67207468697360848201526810333ab731ba34b7b760b91b60a482015260c401610299565b5060089a909a55600780546001600160a01b03199081166001600160a01b039b8c1617909155600580548216998b1699909917909855600680549098169390981692909217909555600b93909355600c91909155600d55600f91909155601055601155601255565b6004546001600160a01b031633148061129357506001546001600160a01b031633145b6112af5760405162461bcd60e51b815260040161029990612a52565b60135460ff16156112d25760405162461bcd60e51b815260040161029990612a10565b6112da61134d565b806112e857506112e8610a89565b80156112f657506000600954115b1561130b576013805461ff0019166101001790555b60006008819055600780546001600160a01b0319169055600b819055600c819055600d819055600f8190556010819055601181905560125561134b611ffd565b565b6000600f544210158015610a9d57505060105442111590565b60135460ff166113ec5760405162461bcd60e51b8152602060048201526044602482018190527f4d696e6f7269747950726573616c653a206e6f742066696e616c697365642c20908201527f63616c6c2066696e616c697365206265666f726520636c61696d696e6720746f6064820152636b656e7360e01b608482015260a401610299565b600c546009541015611468576040805162461bcd60e51b81526020600482015260248101919091527f4d696e6f7269747950726573616c653a20536f6674636170206e6f74206d657460448201527f2c20636c61696d206120726566756e64206f6620796f7572207061796d656e746064820152608401610299565b336000818152600e602052604081205461148190611ec6565b9050600081116114f15760405162461bcd60e51b815260206004820152603560248201527f4d696e6f7269747950726573616c653a206e6f20746f6b656e7320636c61696d60448201527461626c6520666f722074686973206164647265737360581b6064820152608401610299565b6001600160a01b0382166000908152600e6020526040812055600a546115179082611f3c565b600a5560055460405163a9059cbb60e01b81526001600160a01b038481166004830152602482018490529091169063a9059cbb90604401602060405180830381600087803b15801561156857600080fd5b505af115801561157c573d6000803e3d6000fd5b505050506040513d601f19601f820116820180604052508101906115a091906127a6565b6116045760405162461bcd60e51b815260206004820152602f60248201527f4d696e6f7269747950726573616c653a2069737375652077697468207472616e60448201526e7366657272696e6720746f6b656e7360881b6064820152608401610299565b5050565b6001546001600160a01b031633146116325760405162461bcd60e51b8152600401610299906129db565b6001546040516000916001600160a01b0316907f8be0079c531659141344cd1fd0a4f28419497f9722a3daafe3b4186f6b6457e0908390a3600180546001600160a01b0319169055565b6004546001600160a01b031633148061169f57506001546001600160a01b031633145b6116bb5760405162461bcd60e51b815260040161029990612a52565b6116c3610a89565b156117105760405162461bcd60e51b815260206004820152601f60248201527f4d696e6f7269747950726573616c653a20616c726561647920636c6f736564006044820152606401610299565b6010548111611789576040805162461bcd60e51b81526020600482015260248101919091527f4d696e6f7269747950726573616c653a206e657720636c6f73696e672074696d60448201527f65206973206265666f72652063757272656e7420636c6f73696e672074696d656064820152608401610299565b60105460408051918252602082018390527f36590996dea047dc12d17ec2643248f8b86eb37e78941b43d9e9049180efb7b0910160405180910390a1601055565b60135460ff16156117ed5760405162461bcd60e51b815260040161029990612a10565b6117f5610a89565b806118045750600b5460095410155b6118505760405162461bcd60e51b815260206004820152601b60248201527f4d696e6f7269747950726573616c653a206e6f7420636c6f73656400000000006044820152606401610299565b60085460095461185f91611f7e565b600a556013805460ff191660011790556040517f5a1e9b2ea50ef9aabe4b3c94eb63b2d60debef2647506304fbf79ad4509d1aff90600090a1600b546009541015806118af5750600c5460095410155b156118e3576118bc6120b6565b606460125410156118cf576118cf612370565b600b54600954101561134b5761134b61241e565b600c54600954101561134b5761134b611ffd565b60135460ff168061190f5750601354610100900460ff165b6119a75760405162461bcd60e51b815260206004820152605860248201527f4d696e6f7269747950726573616c653a206e6f742066696e616c69736564206f60448201527f722063616e63656c6c65642c207472792063616c6c696e672066696e616c697360648201527f65206265666f726520636c61696d696e6720726566756e640000000000000000608482015260a401610299565b600c5460095410611a465760405162461bcd60e51b815260206004820152605a60248201527f4d696e6f7269747950726573616c653a20736f6674636170207265616368656460448201527f2c20726566756e64732063616e277420626520636c61696d656420756e6c657360648201527f73207468652070726573616c652069732063616e63656c6c6564000000000000608482015260a401610299565b33611a4f6106e9565b15611a98576001600160a01b0381166000908152600e602052604080822054905133926108fc831502929190818181858888f19350505050158015611604573d6000803e3d6000fd5b6006546001600160a01b038281166000818152600e60205260409081902054905163a9059cbb60e01b81526004810192909252602482015291169063a9059cbb906044015b602060405180830381600087803b158015611af757600080fd5b505af1158015611b0b573d6000803e3d6000fd5b505050506040513d601f19601f8201168201806040525081019061160491906127a6565b50565b6004546001600160a01b0316331480611b5557506001546001600160a01b031633145b611b715760405162461bcd60e51b815260040161029990612a52565b611b868b8b8b8b8b8b8b8b8b8b8b6001610aa2565b5050505050505050505050565b6001546001600160a01b03163314611bbd5760405162461bcd60e51b8152600401610299906129db565b6001600160a01b038116611c225760405162461bcd60e51b815260206004820152602660248201527f4f776e61626c653a206e6577206f776e657220697320746865207a65726f206160448201526564647265737360d01b6064820152608401610299565b6001546040516001600160a01b038084169216907f8be0079c531659141344cd1fd0a4f28419497f9722a3daafe3b4186f6b6457e090600090a3600180546001600160a01b0319166001600160a01b0392909216919091179055565b6000611c8861134d565b611cd45760405162461bcd60e51b815260206004820152601960248201527f4d696e6f7269747950726573616c653a206e6f74206f70656e000000000000006044820152606401610299565b6001600160a01b038316611d435760405162461bcd60e51b815260206004820152603060248201527f4d696e6f7269747950726573616c653a2062656e65666963696172792069732060448201526f746865207a65726f206164647265737360801b6064820152608401610299565b81611d9c5760405162461bcd60e51b8152602060048201526024808201527f4d696e6f7269747950726573616c653a2030207061796d656e74207370656369604482015263199a595960e21b6064820152608401610299565b600b54600954611dac9084611edd565b1115611e2e5760405162461bcd60e51b8152602060048201526044602482018190527f4d696e6f7269747950726573616c653a206861726463617020776f756c642062908201527f652065786365656465642077697468207468697320707572636861736520616d6064820152631bdd5b9d60e21b608482015260a401610299565b600d546001600160a01b0384166000908152600e6020526040902054611e549084611edd565b1115611eb35760405162461bcd60e51b815260206004820152602860248201527f4d696e6f7269747950726573616c653a20696e646976696475616c2063617020604482015267195e18d95959195960c21b6064820152608401610299565b611ebd8383612519565b90505b92915050565b6000611ec060085483611f7e90919063ffffffff16565b600080611eea8385612aa7565b905083811015611ebd5760405162461bcd60e51b815260206004820152601b60248201527f536166654d6174683a206164646974696f6e206f766572666c6f7700000000006044820152606401610299565b6000611ebd83836040518060400160405280601e81526020017f536166654d6174683a207375627472616374696f6e206f766572666c6f7700008152506126c9565b600082611f8d57506000611ec0565b6000611f998385612adf565b905082611fa68583612abf565b14611ebd5760405162461bcd60e51b815260206004820152602160248201527f536166654d6174683a206d756c7469706c69636174696f6e206f766572666c6f6044820152607760f81b6064820152608401610299565b6005546040516370a0823160e01b81523060048201526000916001600160a01b0316906370a082319060240160206040518083038186803b15801561204157600080fd5b505afa158015612055573d6000803e3d6000fd5b505050506040513d601f19601f8201168201806040525081019061207991906127da565b60055460075460405163a9059cbb60e01b81526001600160a01b03918216600482015260248101849052929350169063a9059cbb90604401611add565b60006120db600b546120d5600954601154611f7e90919063ffffffff16565b90612703565b60055460405163095ea7b360e01b81526001600160a01b037f0000000000000000000000000000000000000000000000000000000000000000811660048301526024820184905292935091169063095ea7b390604401602060405180830381600087803b15801561214b57600080fd5b505af115801561215f573d6000803e3d6000fd5b505050506040513d601f19601f8201168201806040525081019061218391906127a6565b5060065460095460405163095ea7b360e01b81526001600160a01b037f000000000000000000000000000000000000000000000000000000000000000081166004830152602482019290925291169063095ea7b390604401602060405180830381600087803b1580156121f557600080fd5b505af1158015612209573d6000803e3d6000fd5b505050506040513d601f19601f8201168201806040525081019061222d91906127a6565b5060055460065460095460075460405162e8e33760e81b81526001600160a01b039485166004820152928416602484015260448301859052606483019190915260006084830181905260a4830181905290831660c48301524260e483015291829182917f0000000000000000000000000000000000000000000000000000000000000000169063e8e337009061010401606060405180830381600087803b1580156122d757600080fd5b505af11580156122eb573d6000803e3d6000fd5b505050506040513d601f19601f8201168201806040525081019061230f919061295b565b600954604080518981526020810186905290810191909152606081018390526080810182905292955090935091507fb141efb20c72d616a1738edf3bfc091e675e9970798c20f084e967372070c25b9060a00160405180910390a150505050565b600061239a61239160646120d5601254600954611f7e90919063ffffffff16565b60095490611f3c565b90506123a46106e9565b156123e3576007546040516001600160a01b039091169082156108fc029083906000818181858888f19350505050158015611604573d6000803e3d6000fd5b60065460075460405163a9059cbb60e01b81526001600160a01b0391821660048201526024810184905291169063a9059cbb90604401611add565b600061244360085461243d600954600b54611f3c90919063ffffffff16565b90611f7e565b90506000612470612467600b546120d5600954601154611f7e90919063ffffffff16565b60115490611f3c565b6005546007549192506001600160a01b039081169163a9059cbb91166124968585611edd565b6040516001600160e01b031960e085901b1681526001600160a01b0390921660048301526024820152604401602060405180830381600087803b1580156124dc57600080fd5b505af11580156124f0573d6000803e3d6000fd5b505050506040513d601f19601f8201168201806040525081019061251491906127a6565b505050565b60006125236106e9565b1561252f575080611ec0565b6006546040516370a0823160e01b81523060048201526000916001600160a01b0316906370a082319060240160206040518083038186803b15801561257357600080fd5b505afa158015612587573d6000803e3d6000fd5b505050506040513d601f19601f820116820180604052508101906125ab91906127da565b6006546040516323b872dd60e01b81526001600160a01b038781166004830152306024830152604482018790529293509116906323b872dd90606401602060405180830381600087803b15801561260157600080fd5b505af1158015612615573d6000803e3d6000fd5b505050506040513d601f19601f8201168201806040525081019061263991906127a6565b506006546040516370a0823160e01b81523060048201526126c19183916001600160a01b03909116906370a082319060240160206040518083038186803b15801561268357600080fd5b505afa158015612697573d6000803e3d6000fd5b505050506040513d601f19601f820116820180604052508101906126bb91906127da565b90611f3c565b915050611ec0565b600081848411156126ed5760405162461bcd60e51b81526004016102999190612988565b5060006126fa8486612afe565b95945050505050565b6000611ebd83836040518060400160405280601a81526020017f536166654d6174683a206469766973696f6e206279207a65726f000000000000815250600081836127615760405162461bcd60e51b81526004016102999190612988565b5060006126fa8486612abf565b60006020828403121561277f578081fd5b8135611ebd81612b2b565b60006020828403121561279b578081fd5b8151611ebd81612b2b565b6000602082840312156127b7578081fd5b8151611ebd81612b40565b6000602082840312156127d3578081fd5b5035919050565b6000602082840312156127eb578081fd5b5051919050565b60008060008060008060008060008060006101608c8e031215612813578687fd5b8b359a5060208c013561282581612b2b565b995060408c013561283581612b2b565b985060608c0135975060808c0135965060a08c0135955060c08c013561285a81612b2b565b8095505060e08c013593506101008c013592506101208c013591506101408c013590509295989b509295989b9093969950565b6000806000806000806000806000806000806101808d8f0312156128af578182fd5b8c359b5060208d01356128c181612b2b565b9a5060408d01356128d181612b2b565b995060608d0135985060808d0135975060a08d0135965060c08d01356128f681612b2b565b955060e08d013594506101008d013593506101208d013592506101408d013591506101608d013561292681612b40565b809150509295989b509295989b509295989b565b6000806040838503121561294c578182fd5b50508035926020909101359150565b60008060006060848603121561296f578283fd5b8351925060208401519150604084015190509250925092565b6000602080835283518082850152825b818110156129b457858101830151858201604001528201612998565b818111156129c55783604083870101525b50601f01601f1916929092016040019392505050565b6020808252818101527f4f776e61626c653a2063616c6c6572206973206e6f7420746865206f776e6572604082015260600190565b60208082526022908201527f4d696e6f7269747950726573616c653a20616c72656164792066696e616c6973604082015261195960f21b606082015260800190565b60208082526035908201527f4d696e6f7269747950726573616c653a206f6e6c792061636365737369626c6560408201527410313c9037b832b930ba37b91037b91037bbb732b960591b606082015260800190565b60008219821115612aba57612aba612b15565b500190565b600082612ada57634e487b7160e01b81526012600452602481fd5b500490565b6000816000190483118215151615612af957612af9612b15565b500290565b600082821015612b1057612b10612b15565b500390565b634e487b7160e01b600052601160045260246000fd5b6001600160a01b0381168114611b2f57600080fd5b8015158114611b2f57600080fdfea2646970667358221220031403367257863ae2e0267224f29dc03c58e555085fe6c4b0db06111f278bea64736f6c63430008040033ddf252ad1be2c89b69c2b068fc378daa952ba7f163c4a11628f55a4df523b3ef",
			"opcodes": "PUSH1 0x80 PUSH1 0x40 MSTORE PUSH3 0x12 PUSH1 0x12 PUSH1 0xA PUSH3 0x111F JUMP JUMPDEST PUSH3 0x22 SWAP1 PUSH4 0x77359400 PUSH3 0x11DE JUMP JUMPDEST PUSH3 0x30 SWAP1 PUSH1 0x0 NOT PUSH3 0x121A JUMP JUMPDEST PUSH3 0x3E SWAP1 PUSH1 0x0 NOT PUSH3 0x1200 JUMP JUMPDEST PUSH1 0xC SSTORE PUSH3 0xFB PUSH3 0x53 PUSH1 0x12 PUSH1 0xA PUSH3 0x111F JUMP JUMPDEST PUSH3 0x63 SWAP1 PUSH4 0x1312D00 PUSH3 0x11DE JUMP JUMPDEST PUSH3 0xE7 PUSH3 0x75 PUSH1 0x12 PUSH1 0xA PUSH3 0x111F JUMP JUMPDEST PUSH3 0x85 SWAP1 PUSH4 0x5F5E100 PUSH3 0x11DE JUMP JUMPDEST PUSH3 0xE7 PUSH3 0x97 PUSH1 0x12 PUSH1 0xA PUSH3 0x111F JUMP JUMPDEST PUSH3 0xA7 SWAP1 PUSH4 0x5F5E100 PUSH3 0x11DE JUMP JUMPDEST PUSH3 0xE7 PUSH3 0xB9 PUSH1 0x12 PUSH1 0xA PUSH3 0x111F JUMP JUMPDEST PUSH3 0xC9 SWAP1 PUSH4 0xE4E1C00 PUSH3 0x11DE JUMP JUMPDEST PUSH3 0xD7 PUSH1 0x12 PUSH1 0xA PUSH3 0x111F JUMP JUMPDEST PUSH3 0xE7 SWAP1 PUSH4 0x23C34600 PUSH3 0x11DE JUMP JUMPDEST PUSH3 0xDE5 PUSH1 0x20 SHL PUSH3 0x16FE OR SWAP1 SWAP2 SWAP1 PUSH1 0x20 SHR JUMP JUMPDEST PUSH1 0xD SSTORE PUSH1 0xE DUP1 SLOAD PUSH5 0xFFFFFFFFFF NOT AND PUSH5 0x202020202 OR SWAP1 DUP2 SWAP1 SSTORE PUSH3 0x15E SWAP1 PUSH1 0xFF PUSH5 0x100000000 DUP3 DIV DUP2 AND SWAP2 PUSH3 0xE7 SWAP2 PUSH4 0x1000000 DUP3 DIV DUP2 AND SWAP2 DUP4 SWAP2 PUSH3 0x10000 DUP3 DIV DUP2 AND SWAP2 DUP4 SWAP2 PUSH1 0x2 SWAP2 PUSH2 0x100 SWAP1 DIV AND PUSH3 0xDE5 PUSH1 0x20 SWAP1 DUP2 SHL PUSH3 0x16FE OR SWAP1 SHR JUMP JUMPDEST PUSH1 0xF SSTORE PUSH1 0x10 DUP1 SLOAD PUSH1 0x1 PUSH1 0x1 PUSH1 0xA0 SHL SUB NOT SWAP1 DUP2 AND PUSH20 0x3B31F5CC5136F859C8C74EC1BF8275A51709952B OR SWAP1 SWAP2 SSTORE PUSH1 0x11 DUP1 SLOAD DUP3 AND PUSH20 0x19D3AE69B2170E9F37E3090D08A13FB2F2F2BE21 OR SWAP1 SSTORE PUSH1 0x12 DUP1 SLOAD DUP3 AND PUSH20 0x7B85CC48CAE1EEAE0C533D717DECAEA8D418D1D3 OR DUP2 SSTORE PUSH1 0x13 DUP1 SLOAD DUP4 AND PUSH20 0x8D8A151ACB9B7556497C27A13BB454299333ABB6 OR SWAP1 SSTORE PUSH1 0x14 DUP1 SLOAD SWAP1 SWAP3 AND PUSH20 0x1B4340F1E1E19C794AE532BE142AD1327C9C4654 OR SWAP1 SWAP2 SSTORE PUSH1 0x16 DUP1 SLOAD PUSH1 0xFF PUSH1 0xA0 SHL NOT AND PUSH1 0x1 PUSH1 0xA0 SHL OR SWAP1 SSTORE PUSH3 0x250 SWAP1 PUSH1 0x64 SWAP1 PUSH3 0x22C SWAP1 PUSH1 0xA PUSH3 0x111F JUMP JUMPDEST PUSH3 0x23C SWAP1 PUSH4 0x77359400 PUSH3 0x11DE JUMP JUMPDEST PUSH3 0xE55 PUSH1 0x20 SHL PUSH3 0x175D OR SWAP1 SWAP2 SWAP1 PUSH1 0x20 SHR JUMP JUMPDEST PUSH1 0x17 SSTORE CALLVALUE DUP1 ISZERO PUSH3 0x260 JUMPI PUSH1 0x0 DUP1 REVERT JUMPDEST POP PUSH1 0x0 DUP1 SLOAD PUSH1 0x1 PUSH1 0x1 PUSH1 0xA0 SHL SUB NOT AND CALLER SWAP1 DUP2 OR DUP3 SSTORE PUSH1 0x40 MLOAD SWAP1 SWAP2 DUP3 SWAP2 PUSH32 0x8BE0079C531659141344CD1FD0A4F28419497F9722A3DAAFE3B4186F6B6457E0 SWAP1 DUP3 SWAP1 LOG3 POP PUSH1 0x15 DUP1 SLOAD PUSH1 0x1 PUSH1 0x1 PUSH1 0xA0 SHL SUB NOT AND PUSH20 0xA5E0829CACED8FFDD4DE3C43696C57F7D7A678FF SWAP1 DUP2 OR SWAP1 SWAP2 SSTORE PUSH1 0x40 DUP1 MLOAD PUSH4 0xC45A0155 PUSH1 0xE0 SHL DUP2 MSTORE SWAP1 MLOAD PUSH4 0xC45A0155 SWAP2 PUSH1 0x4 DUP1 DUP3 ADD SWAP3 PUSH1 0x20 SWAP3 SWAP1 SWAP2 SWAP1 DUP3 SWAP1 SUB ADD DUP2 DUP7 DUP1 EXTCODESIZE ISZERO DUP1 ISZERO PUSH3 0x302 JUMPI PUSH1 0x0 DUP1 REVERT JUMPDEST POP GAS STATICCALL ISZERO DUP1 ISZERO PUSH3 0x317 JUMPI RETURNDATASIZE PUSH1 0x0 DUP1 RETURNDATACOPY RETURNDATASIZE PUSH1 0x0 REVERT JUMPDEST POP POP POP POP PUSH1 0x40 MLOAD RETURNDATASIZE PUSH1 0x1F NOT PUSH1 0x1F DUP3 ADD AND DUP3 ADD DUP1 PUSH1 0x40 MSTORE POP DUP2 ADD SWAP1 PUSH3 0x33D SWAP2 SWAP1 PUSH3 0x100C JUMP JUMPDEST PUSH1 0x40 MLOAD PUSH4 0x64E329CB PUSH1 0xE1 SHL DUP2 MSTORE ADDRESS PUSH1 0x4 DUP3 ADD MSTORE PUSH20 0xD26A9DDC4108A6CCDA4E23C87B0FB2BDD875D100 PUSH1 0x24 DUP3 ADD MSTORE PUSH1 0x1 PUSH1 0x1 PUSH1 0xA0 SHL SUB SWAP2 SWAP1 SWAP2 AND SWAP1 PUSH4 0xC9C65396 SWAP1 PUSH1 0x44 ADD PUSH1 0x20 PUSH1 0x40 MLOAD DUP1 DUP4 SUB DUP2 PUSH1 0x0 DUP8 DUP1 EXTCODESIZE ISZERO DUP1 ISZERO PUSH3 0x39B JUMPI PUSH1 0x0 DUP1 REVERT JUMPDEST POP GAS CALL ISZERO DUP1 ISZERO PUSH3 0x3B0 JUMPI RETURNDATASIZE PUSH1 0x0 DUP1 RETURNDATACOPY RETURNDATASIZE PUSH1 0x0 REVERT JUMPDEST POP POP POP POP PUSH1 0x40 MLOAD RETURNDATASIZE PUSH1 0x1F NOT PUSH1 0x1F DUP3 ADD AND DUP3 ADD DUP1 PUSH1 0x40 MSTORE POP DUP2 ADD SWAP1 PUSH3 0x3D6 SWAP2 SWAP1 PUSH3 0x100C JUMP JUMPDEST PUSH1 0x16 DUP1 SLOAD PUSH1 0x1 PUSH1 0x1 PUSH1 0xA0 SHL SUB NOT AND PUSH1 0x1 PUSH1 0x1 PUSH1 0xA0 SHL SUB SWAP3 SWAP1 SWAP3 AND SWAP2 SWAP1 SWAP2 OR SWAP1 SSTORE PUSH1 0x40 MLOAD PUSH3 0x404 SWAP1 PUSH3 0xFE2 JUMP JUMPDEST PUSH1 0x40 MLOAD DUP1 SWAP2 SUB SWAP1 PUSH1 0x0 CREATE DUP1 ISZERO DUP1 ISZERO PUSH3 0x421 JUMPI RETURNDATASIZE PUSH1 0x0 DUP1 RETURNDATACOPY RETURNDATASIZE PUSH1 0x0 REVERT JUMPDEST POP PUSH1 0x3 DUP1 SLOAD PUSH1 0x1 PUSH1 0x1 PUSH1 0xA0 SHL SUB NOT AND PUSH1 0x1 PUSH1 0x1 PUSH1 0xA0 SHL SUB SWAP3 SWAP1 SWAP3 AND SWAP2 SWAP1 SWAP2 OR SWAP1 SSTORE PUSH3 0x44A CALLER SWAP1 JUMP JUMPDEST ADDRESS PUSH1 0x40 MLOAD PUSH3 0x459 SWAP1 PUSH3 0xFF0 JUMP JUMPDEST PUSH1 0x1 PUSH1 0x1 PUSH1 0xA0 SHL SUB SWAP3 DUP4 AND DUP2 MSTORE SWAP2 AND PUSH1 0x20 DUP3 ADD MSTORE PUSH1 0x40 ADD PUSH1 0x40 MLOAD DUP1 SWAP2 SUB SWAP1 PUSH1 0x0 CREATE DUP1 ISZERO DUP1 ISZERO PUSH3 0x48D JUMPI RETURNDATASIZE PUSH1 0x0 DUP1 RETURNDATACOPY RETURNDATASIZE PUSH1 0x0 REVERT JUMPDEST POP PUSH1 0x4 DUP1 SLOAD PUSH1 0x1 PUSH1 0x1 PUSH1 0xA0 SHL SUB NOT AND PUSH1 0x1 PUSH1 0x1 PUSH1 0xA0 SHL SUB SWAP3 SWAP1 SWAP3 AND SWAP2 SWAP1 SWAP2 OR SWAP1 SSTORE PUSH3 0x4B6 CALLER SWAP1 JUMP JUMPDEST PUSH1 0x40 MLOAD PUSH3 0x4C4 SWAP1 PUSH3 0xFFE JUMP JUMPDEST PUSH1 0x1 PUSH1 0x1 PUSH1 0xA0 SHL SUB SWAP1 SWAP2 AND DUP2 MSTORE PUSH1 0x20 ADD PUSH1 0x40 MLOAD DUP1 SWAP2 SUB SWAP1 PUSH1 0x0 CREATE DUP1 ISZERO DUP1 ISZERO PUSH3 0x4F1 JUMPI RETURNDATASIZE PUSH1 0x0 DUP1 RETURNDATACOPY RETURNDATASIZE PUSH1 0x0 REVERT JUMPDEST POP PUSH1 0x5 DUP1 SLOAD PUSH1 0x1 PUSH1 0x1 PUSH1 0xA0 SHL SUB NOT SWAP1 DUP2 AND PUSH1 0x1 PUSH1 0x1 PUSH1 0xA0 SHL SUB SWAP4 DUP5 AND OR DUP3 SSTORE PUSH1 0x0 DUP1 SLOAD DUP5 AND DUP2 MSTORE PUSH1 0x9 PUSH1 0x20 SWAP1 DUP2 MSTORE PUSH1 0x40 DUP1 DUP4 KECCAK256 DUP1 SLOAD PUSH1 0xFF NOT SWAP1 DUP2 AND PUSH1 0x1 SWAP1 DUP2 OR SWAP1 SWAP3 SSTORE ADDRESS DUP6 MSTORE DUP3 DUP6 KECCAK256 DUP1 SLOAD DUP3 AND DUP4 OR SWAP1 SSTORE PUSH1 0x3 SLOAD DUP9 AND DUP6 MSTORE DUP3 DUP6 KECCAK256 DUP1 SLOAD DUP3 AND DUP4 OR SWAP1 SSTORE PUSH1 0x4 DUP1 SLOAD DUP10 AND DUP7 MSTORE DUP4 DUP7 KECCAK256 DUP1 SLOAD DUP4 AND DUP5 OR SWAP1 SSTORE DUP8 SLOAD DUP10 AND DUP7 MSTORE DUP4 DUP7 KECCAK256 DUP1 SLOAD DUP4 AND DUP5 OR SWAP1 SSTORE PUSH1 0x10 SLOAD DUP10 AND DUP7 MSTORE DUP4 DUP7 KECCAK256 DUP1 SLOAD DUP4 AND DUP5 OR SWAP1 SSTORE PUSH1 0x11 SLOAD DUP10 AND DUP7 MSTORE DUP4 DUP7 KECCAK256 DUP1 SLOAD DUP4 AND DUP5 OR SWAP1 SSTORE PUSH32 0x960B1051749987B45B5679007FFF577A1C2F763EC21C15A6C5EB193075003785 DUP1 SLOAD DUP4 AND DUP5 OR SWAP1 SSTORE PUSH1 0x16 DUP1 SLOAD DUP11 AND DUP8 MSTORE PUSH1 0xA SWAP6 DUP7 SWAP1 MSTORE DUP5 DUP8 KECCAK256 DUP1 SLOAD DUP5 AND DUP6 OR SWAP1 SSTORE SLOAD PUSH1 0xB DUP1 SLOAD DUP1 DUP7 ADD DUP3 SSTORE PUSH32 0x175B7A638427703F0DBE7BB9BBF987A2551717B34E79F33B5B1008D1FA01DB9 SWAP1 DUP2 ADD DUP1 SLOAD DUP12 AND SWAP4 DUP14 AND SWAP4 SWAP1 SWAP4 OR SWAP1 SWAP3 SSTORE DUP3 SLOAD DUP12 AND DUP9 MSTORE DUP6 DUP9 KECCAK256 DUP1 SLOAD DUP6 AND DUP7 OR SWAP1 SSTORE SWAP2 SLOAD DUP3 SLOAD DUP1 DUP7 ADD DUP5 SSTORE DUP3 ADD DUP1 SLOAD DUP11 AND SWAP2 DUP13 AND SWAP2 SWAP1 SWAP2 OR SWAP1 SSTORE DUP9 SLOAD DUP11 AND DUP8 MSTORE SWAP4 DUP7 KECCAK256 DUP1 SLOAD SWAP1 SWAP3 AND DUP4 OR SWAP1 SWAP2 SSTORE SWAP6 SLOAD DUP7 SLOAD SWAP2 DUP3 ADD DUP8 SSTORE SWAP6 DUP5 MSTORE ADD DUP1 SLOAD SWAP1 SWAP4 AND SWAP4 SWAP1 SWAP5 AND SWAP3 SWAP1 SWAP3 OR SWAP1 SSTORE SWAP1 PUSH3 0x6B4 SWAP1 PUSH3 0x686 SWAP1 PUSH1 0x12 SWAP1 PUSH3 0x111F JUMP JUMPDEST PUSH3 0x696 SWAP1 PUSH4 0x4C4B400 PUSH3 0x11DE JUMP JUMPDEST PUSH3 0x6A4 PUSH1 0x12 PUSH1 0xA PUSH3 0x111F JUMP JUMPDEST PUSH3 0xE7 SWAP1 PUSH4 0x5F5E100 PUSH3 0x11DE JUMP JUMPDEST PUSH1 0x5 DUP1 SLOAD PUSH1 0x1 PUSH1 0x1 PUSH1 0xA0 SHL SUB SWAP1 DUP2 AND PUSH1 0x0 SWAP1 DUP2 MSTORE PUSH1 0x7 PUSH1 0x20 MSTORE PUSH1 0x40 DUP1 DUP3 KECCAK256 DUP6 SWAP1 SSTORE SWAP3 SLOAD SWAP3 MLOAD SWAP4 SWAP5 POP SWAP2 AND SWAP2 PUSH1 0x0 DUP1 MLOAD PUSH1 0x20 PUSH3 0x9434 DUP4 CODECOPY DUP2 MLOAD SWAP2 MSTORE SWAP1 PUSH3 0x6FE SWAP1 DUP6 DUP2 MSTORE PUSH1 0x20 ADD SWAP1 JUMP JUMPDEST PUSH1 0x40 MLOAD DUP1 SWAP2 SUB SWAP1 LOG3 PUSH1 0xD SLOAD PUSH1 0x4 DUP1 SLOAD PUSH1 0x1 PUSH1 0x1 PUSH1 0xA0 SHL SUB SWAP1 DUP2 AND PUSH1 0x0 SWAP1 DUP2 MSTORE PUSH1 0x7 PUSH1 0x20 SWAP1 DUP2 MSTORE PUSH1 0x40 DUP1 DUP4 KECCAK256 DUP7 SWAP1 SSTORE SWAP4 SLOAD SWAP4 MLOAD SWAP5 DUP6 MSTORE SWAP3 SWAP1 SWAP2 AND SWAP3 SWAP1 SWAP2 PUSH1 0x0 DUP1 MLOAD PUSH1 0x20 PUSH3 0x9434 DUP4 CODECOPY DUP2 MLOAD SWAP2 MSTORE SWAP2 ADD PUSH1 0x40 MLOAD DUP1 SWAP2 SUB SWAP1 LOG3 PUSH1 0x0 PUSH3 0x7D4 PUSH3 0x768 PUSH1 0x12 PUSH1 0xA PUSH3 0x111F JUMP JUMPDEST PUSH3 0x778 SWAP1 PUSH4 0x4C4B400 PUSH3 0x11DE JUMP JUMPDEST PUSH3 0x7C0 PUSH3 0x78A PUSH1 0x12 PUSH1 0xA PUSH3 0x111F JUMP JUMPDEST PUSH3 0x79A SWAP1 PUSH4 0x5F5E100 PUSH3 0x11DE JUMP JUMPDEST PUSH1 0xD SLOAD PUSH3 0x7C0 SWAP1 PUSH3 0x7B0 PUSH1 0x12 PUSH1 0xA PUSH3 0x111F JUMP JUMPDEST PUSH3 0x7C0 SWAP1 PUSH4 0x77359400 PUSH3 0x11DE JUMP JUMPDEST PUSH3 0xE9F PUSH1 0x20 SHL PUSH3 0x179F OR SWAP1 SWAP2 SWAP1 PUSH1 0x20 SHR JUMP JUMPDEST SWAP1 POP PUSH1 0x0 PUSH3 0x7F4 DUP3 PUSH1 0xC SLOAD PUSH3 0xE55 PUSH1 0x20 SHL PUSH3 0x175D OR SWAP1 SWAP2 SWAP1 PUSH1 0x20 SHR JUMP JUMPDEST SWAP1 POP PUSH3 0x810 DUP2 DUP4 PUSH3 0xEE9 PUSH1 0x20 SHL PUSH3 0x17E1 OR SWAP1 SWAP2 SWAP1 PUSH1 0x20 SHR JUMP JUMPDEST CALLER PUSH1 0x0 DUP2 DUP2 MSTORE PUSH1 0x6 PUSH1 0x20 SWAP1 DUP2 MSTORE PUSH1 0x40 DUP1 DUP4 KECCAK256 SWAP5 SWAP1 SWAP5 SSTORE SWAP3 MLOAD DUP6 DUP2 MSTORE SWAP2 SWAP3 SWAP1 SWAP2 PUSH1 0x0 DUP1 MLOAD PUSH1 0x20 PUSH3 0x9434 DUP4 CODECOPY DUP2 MLOAD SWAP2 MSTORE SWAP2 ADD PUSH1 0x40 MLOAD DUP1 SWAP2 SUB SWAP1 LOG3 PUSH1 0x5 SLOAD PUSH1 0x1 PUSH1 0x1 PUSH1 0xA0 SHL SUB AND PUSH4 0x3CA85228 PUSH1 0x64 PUSH2 0xDEAD ADDRESS PUSH3 0x86E PUSH1 0x12 PUSH1 0xA PUSH3 0x111F JUMP JUMPDEST PUSH3 0x87D SWAP1 PUSH3 0xF4240 PUSH3 0x11DE JUMP JUMPDEST PUSH3 0x88B PUSH1 0x12 PUSH1 0xA PUSH3 0x111F JUMP JUMPDEST PUSH3 0x89A SWAP1 PUSH3 0x7A120 PUSH3 0x11DE JUMP JUMPDEST PUSH3 0x8A8 PUSH1 0x12 PUSH1 0xA PUSH3 0x111F JUMP JUMPDEST PUSH3 0x8B6 SWAP1 PUSH2 0x61A8 PUSH3 0x11DE JUMP JUMPDEST PUSH20 0xD26A9DDC4108A6CCDA4E23C87B0FB2BDD875D100 PUSH3 0x8DB TIMESTAMP PUSH4 0x12CC0300 PUSH3 0x10A4 JUMP JUMPDEST PUSH3 0x8EB TIMESTAMP PUSH4 0x12CD5480 PUSH3 0x10A4 JUMP JUMPDEST PUSH3 0x8F9 PUSH1 0x12 PUSH1 0xA PUSH3 0x111F JUMP JUMPDEST PUSH3 0x909 SWAP1 PUSH4 0x4C4B400 PUSH3 0x11DE JUMP JUMPDEST PUSH1 0x40 MLOAD PUSH1 0xE0 DUP13 SWAP1 SHL PUSH1 0x1 PUSH1 0x1 PUSH1 0xE0 SHL SUB NOT AND DUP2 MSTORE PUSH1 0x4 DUP2 ADD SWAP11 SWAP1 SWAP11 MSTORE PUSH1 0x1 PUSH1 0x1 PUSH1 0xA0 SHL SUB SWAP9 DUP10 AND PUSH1 0x24 DUP12 ADD MSTORE SWAP7 DUP9 AND PUSH1 0x44 DUP11 ADD MSTORE PUSH1 0x64 DUP1 DUP11 ADD SWAP7 SWAP1 SWAP7 MSTORE PUSH1 0x84 DUP10 ADD SWAP5 SWAP1 SWAP5 MSTORE PUSH1 0xA4 DUP9 ADD SWAP3 SWAP1 SWAP3 MSTORE SWAP1 SWAP5 AND PUSH1 0xC4 DUP7 ADD MSTORE PUSH1 0xE4 DUP6 ADD SWAP4 SWAP1 SWAP4 MSTORE PUSH2 0x104 DUP5 ADD SWAP3 SWAP1 SWAP3 MSTORE PUSH2 0x124 DUP4 ADD MSTORE PUSH2 0x144 DUP3 ADD MSTORE PUSH1 0x0 PUSH2 0x164 DUP3 ADD MSTORE PUSH2 0x184 ADD PUSH1 0x0 PUSH1 0x40 MLOAD DUP1 DUP4 SUB DUP2 PUSH1 0x0 DUP8 DUP1 EXTCODESIZE ISZERO DUP1 ISZERO PUSH3 0x9A2 JUMPI PUSH1 0x0 DUP1 REVERT JUMPDEST POP GAS CALL ISZERO DUP1 ISZERO PUSH3 0x9B7 JUMPI RETURNDATASIZE PUSH1 0x0 DUP1 RETURNDATACOPY RETURNDATASIZE PUSH1 0x0 REVERT JUMPDEST POP POP PUSH1 0x4 SLOAD PUSH1 0x1 PUSH1 0x1 PUSH1 0xA0 SHL SUB AND SWAP2 POP PUSH4 0x3E34E66D SWAP1 POP PUSH3 0x9DC PUSH1 0x12 PUSH1 0xA PUSH3 0x111F JUMP JUMPDEST PUSH3 0x9EC SWAP1 PUSH4 0x23C34600 PUSH3 0x11DE JUMP JUMPDEST PUSH1 0x3 SLOAD PUSH1 0x40 MLOAD PUSH1 0xE0 DUP5 SWAP1 SHL PUSH1 0x1 PUSH1 0x1 PUSH1 0xE0 SHL SUB NOT AND DUP2 MSTORE PUSH1 0x4 DUP2 ADD SWAP3 SWAP1 SWAP3 MSTORE PUSH1 0x2 PUSH1 0x24 DUP4 ADD MSTORE PUSH1 0x5 PUSH1 0x44 DUP4 ADD MSTORE PUSH1 0x0 PUSH1 0x64 DUP4 ADD DUP2 SWAP1 MSTORE PUSH1 0x1 PUSH1 0x1 PUSH1 0xA0 SHL SUB SWAP1 SWAP2 AND PUSH1 0x84 DUP4 ADD MSTORE PUSH1 0xA4 DUP3 ADD MSTORE PUSH1 0xC4 ADD PUSH1 0x20 PUSH1 0x40 MLOAD DUP1 DUP4 SUB DUP2 PUSH1 0x0 DUP8 DUP1 EXTCODESIZE ISZERO DUP1 ISZERO PUSH3 0xA55 JUMPI PUSH1 0x0 DUP1 REVERT JUMPDEST POP GAS CALL ISZERO DUP1 ISZERO PUSH3 0xA6A JUMPI RETURNDATASIZE PUSH1 0x0 DUP1 RETURNDATACOPY RETURNDATASIZE PUSH1 0x0 REVERT JUMPDEST POP POP POP POP PUSH1 0x40 MLOAD RETURNDATASIZE PUSH1 0x1F NOT PUSH1 0x1F DUP3 ADD AND DUP3 ADD DUP1 PUSH1 0x40 MSTORE POP DUP2 ADD SWAP1 PUSH3 0xA90 SWAP2 SWAP1 PUSH3 0x1035 JUMP JUMPDEST POP PUSH1 0x4 SLOAD PUSH1 0x1 PUSH1 0x1 PUSH1 0xA0 SHL SUB AND PUSH4 0x3E34E66D PUSH3 0xAB0 PUSH1 0x12 PUSH1 0xA PUSH3 0x111F JUMP JUMPDEST PUSH3 0xAC0 SWAP1 PUSH4 0xE4E1C00 PUSH3 0x11DE JUMP JUMPDEST PUSH1 0x10 SLOAD PUSH1 0x40 MLOAD PUSH1 0xE0 DUP5 SWAP1 SHL PUSH1 0x1 PUSH1 0x1 PUSH1 0xE0 SHL SUB NOT AND DUP2 MSTORE PUSH1 0x4 DUP2 ADD SWAP3 SWAP1 SWAP3 MSTORE PUSH1 0x2 PUSH1 0x24 DUP4 ADD MSTORE PUSH1 0x1E PUSH1 0x44 DUP4 ADD MSTORE TIMESTAMP PUSH1 0x64 DUP4 ADD MSTORE PUSH1 0x1 PUSH1 0x1 PUSH1 0xA0 SHL SUB AND PUSH1 0x84 DUP3 ADD MSTORE PUSH1 0x0 PUSH1 0xA4 DUP3 ADD MSTORE PUSH1 0xC4 ADD PUSH1 0x20 PUSH1 0x40 MLOAD DUP1 DUP4 SUB DUP2 PUSH1 0x0 DUP8 DUP1 EXTCODESIZE ISZERO DUP1 ISZERO PUSH3 0xB26 JUMPI PUSH1 0x0 DUP1 REVERT JUMPDEST POP GAS CALL ISZERO DUP1 ISZERO PUSH3 0xB3B JUMPI RETURNDATASIZE PUSH1 0x0 DUP1 RETURNDATACOPY RETURNDATASIZE PUSH1 0x0 REVERT JUMPDEST POP POP POP POP PUSH1 0x40 MLOAD RETURNDATASIZE PUSH1 0x1F NOT PUSH1 0x1F DUP3 ADD AND DUP3 ADD DUP1 PUSH1 0x40 MSTORE POP DUP2 ADD SWAP1 PUSH3 0xB61 SWAP2 SWAP1 PUSH3 0x1035 JUMP JUMPDEST POP PUSH1 0x4 SLOAD PUSH1 0x1 PUSH1 0x1 PUSH1 0xA0 SHL SUB AND PUSH4 0x3E34E66D PUSH3 0xB81 PUSH1 0x12 PUSH1 0xA PUSH3 0x111F JUMP JUMPDEST PUSH3 0xB91 SWAP1 PUSH4 0x5F5E100 PUSH3 0x11DE JUMP JUMPDEST PUSH1 0x12 SLOAD PUSH1 0x40 MLOAD PUSH1 0xE0 DUP5 SWAP1 SHL PUSH1 0x1 PUSH1 0x1 PUSH1 0xE0 SHL SUB NOT AND DUP2 MSTORE PUSH1 0x4 DUP1 DUP3 ADD SWAP4 SWAP1 SWAP4 MSTORE PUSH1 0x24 DUP2 ADD SWAP3 SWAP1 SWAP3 MSTORE PUSH1 0x1E PUSH1 0x44 DUP4 ADD MSTORE TIMESTAMP PUSH1 0x64 DUP4 ADD MSTORE PUSH1 0x1 PUSH1 0x1 PUSH1 0xA0 SHL SUB AND PUSH1 0x84 DUP3 ADD MSTORE PUSH1 0x0 PUSH1 0xA4 DUP3 ADD MSTORE PUSH1 0xC4 ADD PUSH1 0x20 PUSH1 0x40 MLOAD DUP1 DUP4 SUB DUP2 PUSH1 0x0 DUP8 DUP1 EXTCODESIZE ISZERO DUP1 ISZERO PUSH3 0xBF9 JUMPI PUSH1 0x0 DUP1 REVERT JUMPDEST POP GAS CALL ISZERO DUP1 ISZERO PUSH3 0xC0E JUMPI RETURNDATASIZE PUSH1 0x0 DUP1 RETURNDATACOPY RETURNDATASIZE PUSH1 0x0 REVERT JUMPDEST POP POP POP POP PUSH1 0x40 MLOAD RETURNDATASIZE PUSH1 0x1F NOT PUSH1 0x1F DUP3 ADD AND DUP3 ADD DUP1 PUSH1 0x40 MSTORE POP DUP2 ADD SWAP1 PUSH3 0xC34 SWAP2 SWAP1 PUSH3 0x1035 JUMP JUMPDEST POP PUSH1 0x4 SLOAD PUSH1 0x1 PUSH1 0x1 PUSH1 0xA0 SHL SUB AND PUSH4 0x3E34E66D PUSH3 0xC54 PUSH1 0x12 PUSH1 0xA PUSH3 0x111F JUMP JUMPDEST PUSH3 0xC64 SWAP1 PUSH4 0x5F5E100 PUSH3 0x11DE JUMP JUMPDEST PUSH1 0x13 SLOAD PUSH1 0x40 MLOAD PUSH1 0xE0 DUP5 SWAP1 SHL PUSH1 0x1 PUSH1 0x1 PUSH1 0xE0 SHL SUB NOT AND DUP2 MSTORE PUSH1 0x4 DUP1 DUP3 ADD SWAP4 SWAP1 SWAP4 MSTORE PUSH1 0x24 DUP2 ADD SWAP3 SWAP1 SWAP3 MSTORE PUSH1 0x1E PUSH1 0x44 DUP4 ADD MSTORE TIMESTAMP PUSH1 0x64 DUP4 ADD MSTORE PUSH1 0x1 PUSH1 0x1 PUSH1 0xA0 SHL SUB AND PUSH1 0x84 DUP3 ADD MSTORE PUSH1 0x0 PUSH1 0xA4 DUP3 ADD MSTORE PUSH1 0xC4 ADD PUSH1 0x20 PUSH1 0x40 MLOAD DUP1 DUP4 SUB DUP2 PUSH1 0x0 DUP8 DUP1 EXTCODESIZE ISZERO DUP1 ISZERO PUSH3 0xCCC JUMPI PUSH1 0x0 DUP1 REVERT JUMPDEST POP GAS CALL ISZERO DUP1 ISZERO PUSH3 0xCE1 JUMPI RETURNDATASIZE PUSH1 0x0 DUP1 RETURNDATACOPY RETURNDATASIZE PUSH1 0x0 REVERT JUMPDEST POP POP POP POP PUSH1 0x40 MLOAD RETURNDATASIZE PUSH1 0x1F NOT PUSH1 0x1F DUP3 ADD AND DUP3 ADD DUP1 PUSH1 0x40 MSTORE POP DUP2 ADD SWAP1 PUSH3 0xD07 SWAP2 SWAP1 PUSH3 0x1035 JUMP JUMPDEST POP PUSH1 0x4 SLOAD PUSH1 0x1 PUSH1 0x1 PUSH1 0xA0 SHL SUB AND PUSH4 0x3E34E66D PUSH3 0xD27 PUSH1 0x12 PUSH1 0xA PUSH3 0x111F JUMP JUMPDEST PUSH3 0xD37 SWAP1 PUSH4 0x1312D00 PUSH3 0x11DE JUMP JUMPDEST PUSH1 0x14 DUP1 SLOAD PUSH1 0x40 MLOAD PUSH1 0xE0 DUP6 SWAP1 SHL PUSH1 0x1 PUSH1 0x1 PUSH1 0xE0 SHL SUB NOT AND DUP2 MSTORE PUSH1 0x4 DUP2 ADD SWAP4 SWAP1 SWAP4 MSTORE PUSH1 0x24 DUP4 ADD SWAP2 SWAP1 SWAP2 MSTORE PUSH2 0x16D PUSH1 0x44 DUP4 ADD MSTORE TIMESTAMP PUSH1 0x64 DUP4 ADD MSTORE PUSH1 0x1 PUSH1 0x1 PUSH1 0xA0 SHL SUB AND PUSH1 0x84 DUP3 ADD MSTORE PUSH1 0x0 PUSH1 0xA4 DUP3 ADD MSTORE PUSH1 0xC4 ADD PUSH1 0x20 PUSH1 0x40 MLOAD DUP1 DUP4 SUB DUP2 PUSH1 0x0 DUP8 DUP1 EXTCODESIZE ISZERO DUP1 ISZERO PUSH3 0xDA0 JUMPI PUSH1 0x0 DUP1 REVERT JUMPDEST POP GAS CALL ISZERO DUP1 ISZERO PUSH3 0xDB5 JUMPI RETURNDATASIZE PUSH1 0x0 DUP1 RETURNDATACOPY RETURNDATASIZE PUSH1 0x0 REVERT JUMPDEST POP POP POP POP PUSH1 0x40 MLOAD RETURNDATASIZE PUSH1 0x1F NOT PUSH1 0x1F DUP3 ADD AND DUP3 ADD DUP1 PUSH1 0x40 MSTORE POP DUP2 ADD SWAP1 PUSH3 0xDDB SWAP2 SWAP1 PUSH3 0x1035 JUMP JUMPDEST POP POP POP POP PUSH3 0x125D JUMP JUMPDEST PUSH1 0x0 DUP1 PUSH3 0xDF4 DUP4 DUP6 PUSH3 0x10A4 JUMP JUMPDEST SWAP1 POP DUP4 DUP2 LT ISZERO PUSH3 0xE4C JUMPI PUSH1 0x40 MLOAD PUSH3 0x461BCD PUSH1 0xE5 SHL DUP2 MSTORE PUSH1 0x20 PUSH1 0x4 DUP3 ADD MSTORE PUSH1 0x1B PUSH1 0x24 DUP3 ADD MSTORE PUSH32 0x536166654D6174683A206164646974696F6E206F766572666C6F770000000000 PUSH1 0x44 DUP3 ADD MSTORE PUSH1 0x64 ADD JUMPDEST PUSH1 0x40 MLOAD DUP1 SWAP2 SUB SWAP1 REVERT JUMPDEST SWAP1 POP JUMPDEST SWAP3 SWAP2 POP POP JUMP JUMPDEST PUSH1 0x0 PUSH3 0xE4C DUP4 DUP4 PUSH1 0x40 MLOAD DUP1 PUSH1 0x40 ADD PUSH1 0x40 MSTORE DUP1 PUSH1 0x1A DUP2 MSTORE PUSH1 0x20 ADD PUSH32 0x536166654D6174683A206469766973696F6E206279207A65726F000000000000 DUP2 MSTORE POP PUSH3 0xF70 PUSH1 0x20 SHL PUSH1 0x20 SHR JUMP JUMPDEST PUSH1 0x0 PUSH3 0xE4C DUP4 DUP4 PUSH1 0x40 MLOAD DUP1 PUSH1 0x40 ADD PUSH1 0x40 MSTORE DUP1 PUSH1 0x1E DUP2 MSTORE PUSH1 0x20 ADD PUSH32 0x536166654D6174683A207375627472616374696F6E206F766572666C6F770000 DUP2 MSTORE POP PUSH3 0xFAC PUSH1 0x20 SHL PUSH1 0x20 SHR JUMP JUMPDEST PUSH1 0x0 DUP3 PUSH3 0xEFA JUMPI POP PUSH1 0x0 PUSH3 0xE4F JUMP JUMPDEST PUSH1 0x0 PUSH3 0xF08 DUP4 DUP6 PUSH3 0x11DE JUMP JUMPDEST SWAP1 POP DUP3 PUSH3 0xF17 DUP6 DUP4 PUSH3 0x10BF JUMP JUMPDEST EQ PUSH3 0xE4C JUMPI PUSH1 0x40 MLOAD PUSH3 0x461BCD PUSH1 0xE5 SHL DUP2 MSTORE PUSH1 0x20 PUSH1 0x4 DUP3 ADD MSTORE PUSH1 0x21 PUSH1 0x24 DUP3 ADD MSTORE PUSH32 0x536166654D6174683A206D756C7469706C69636174696F6E206F766572666C6F PUSH1 0x44 DUP3 ADD MSTORE PUSH1 0x77 PUSH1 0xF8 SHL PUSH1 0x64 DUP3 ADD MSTORE PUSH1 0x84 ADD PUSH3 0xE43 JUMP JUMPDEST PUSH1 0x0 DUP2 DUP4 PUSH3 0xF94 JUMPI PUSH1 0x40 MLOAD PUSH3 0x461BCD PUSH1 0xE5 SHL DUP2 MSTORE PUSH1 0x4 ADD PUSH3 0xE43 SWAP2 SWAP1 PUSH3 0x104E JUMP JUMPDEST POP PUSH1 0x0 PUSH3 0xFA3 DUP5 DUP7 PUSH3 0x10BF JUMP JUMPDEST SWAP6 SWAP5 POP POP POP POP POP JUMP JUMPDEST PUSH1 0x0 DUP2 DUP5 DUP5 GT ISZERO PUSH3 0xFD3 JUMPI PUSH1 0x40 MLOAD PUSH3 0x461BCD PUSH1 0xE5 SHL DUP2 MSTORE PUSH1 0x4 ADD PUSH3 0xE43 SWAP2 SWAP1 PUSH3 0x104E JUMP JUMPDEST POP PUSH1 0x0 PUSH3 0xFA3 DUP5 DUP7 PUSH3 0x1200 JUMP JUMPDEST PUSH2 0xED6 DUP1 PUSH3 0x3D06 DUP4 CODECOPY ADD SWAP1 JUMP JUMPDEST PUSH2 0x1B24 DUP1 PUSH3 0x4BDC DUP4 CODECOPY ADD SWAP1 JUMP JUMPDEST PUSH2 0x2D34 DUP1 PUSH3 0x6700 DUP4 CODECOPY ADD SWAP1 JUMP JUMPDEST PUSH1 0x0 PUSH1 0x20 DUP3 DUP5 SUB SLT ISZERO PUSH3 0x101E JUMPI DUP1 DUP2 REVERT JUMPDEST DUP2 MLOAD PUSH1 0x1 PUSH1 0x1 PUSH1 0xA0 SHL SUB DUP2 AND DUP2 EQ PUSH3 0xE4C JUMPI DUP2 DUP3 REVERT JUMPDEST PUSH1 0x0 PUSH1 0x20 DUP3 DUP5 SUB SLT ISZERO PUSH3 0x1047 JUMPI DUP1 DUP2 REVERT JUMPDEST POP MLOAD SWAP2 SWAP1 POP JUMP JUMPDEST PUSH1 0x0 PUSH1 0x20 DUP1 DUP4 MSTORE DUP4 MLOAD DUP1 DUP3 DUP6 ADD MSTORE DUP3 JUMPDEST DUP2 DUP2 LT ISZERO PUSH3 0x107C JUMPI DUP6 DUP2 ADD DUP4 ADD MLOAD DUP6 DUP3 ADD PUSH1 0x40 ADD MSTORE DUP3 ADD PUSH3 0x105E JUMP JUMPDEST DUP2 DUP2 GT ISZERO PUSH3 0x108E JUMPI DUP4 PUSH1 0x40 DUP4 DUP8 ADD ADD MSTORE JUMPDEST POP PUSH1 0x1F ADD PUSH1 0x1F NOT AND SWAP3 SWAP1 SWAP3 ADD PUSH1 0x40 ADD SWAP4 SWAP3 POP POP POP JUMP JUMPDEST PUSH1 0x0 DUP3 NOT DUP3 GT ISZERO PUSH3 0x10BA JUMPI PUSH3 0x10BA PUSH3 0x1231 JUMP JUMPDEST POP ADD SWAP1 JUMP JUMPDEST PUSH1 0x0 DUP3 PUSH3 0x10D1 JUMPI PUSH3 0x10D1 PUSH3 0x1247 JUMP JUMPDEST POP DIV SWAP1 JUMP JUMPDEST PUSH1 0x1 DUP2 DUP2 JUMPDEST DUP1 DUP6 GT ISZERO PUSH3 0x1117 JUMPI DUP2 PUSH1 0x0 NOT DIV DUP3 GT ISZERO PUSH3 0x10FB JUMPI PUSH3 0x10FB PUSH3 0x1231 JUMP JUMPDEST DUP1 DUP6 AND ISZERO PUSH3 0x1109 JUMPI SWAP2 DUP2 MUL SWAP2 JUMPDEST SWAP4 DUP5 SHR SWAP4 SWAP1 DUP1 MUL SWAP1 PUSH3 0x10DB JUMP JUMPDEST POP SWAP3 POP SWAP3 SWAP1 POP JUMP JUMPDEST PUSH1 0x0 PUSH3 0xE4C PUSH1 0xFF DUP5 AND DUP4 PUSH1 0x0 DUP3 PUSH3 0x113B JUMPI POP PUSH1 0x1 PUSH3 0xE4F JUMP JUMPDEST DUP2 PUSH3 0x114A JUMPI POP PUSH1 0x0 PUSH3 0xE4F JUMP JUMPDEST DUP2 PUSH1 0x1 DUP2 EQ PUSH3 0x1163 JUMPI PUSH1 0x2 DUP2 EQ PUSH3 0x116E JUMPI PUSH3 0x118E JUMP JUMPDEST PUSH1 0x1 SWAP2 POP POP PUSH3 0xE4F JUMP JUMPDEST PUSH1 0xFF DUP5 GT ISZERO PUSH3 0x1182 JUMPI PUSH3 0x1182 PUSH3 0x1231 JUMP JUMPDEST POP POP PUSH1 0x1 DUP3 SHL PUSH3 0xE4F JUMP JUMPDEST POP PUSH1 0x20 DUP4 LT PUSH2 0x133 DUP4 LT AND PUSH1 0x4E DUP5 LT PUSH1 0xB DUP5 LT AND OR ISZERO PUSH3 0x11B3 JUMPI POP DUP2 DUP2 EXP PUSH3 0xE4F JUMP JUMPDEST PUSH3 0x11BF DUP4 DUP4 PUSH3 0x10D6 JUMP JUMPDEST DUP1 PUSH1 0x0 NOT DIV DUP3 GT ISZERO PUSH3 0x11D6 JUMPI PUSH3 0x11D6 PUSH3 0x1231 JUMP JUMPDEST MUL SWAP4 SWAP3 POP POP POP JUMP JUMPDEST PUSH1 0x0 DUP2 PUSH1 0x0 NOT DIV DUP4 GT DUP3 ISZERO ISZERO AND ISZERO PUSH3 0x11FB JUMPI PUSH3 0x11FB PUSH3 0x1231 JUMP JUMPDEST POP MUL SWAP1 JUMP JUMPDEST PUSH1 0x0 DUP3 DUP3 LT ISZERO PUSH3 0x1215 JUMPI PUSH3 0x1215 PUSH3 0x1231 JUMP JUMPDEST POP SUB SWAP1 JUMP JUMPDEST PUSH1 0x0 DUP3 PUSH3 0x122C JUMPI PUSH3 0x122C PUSH3 0x1247 JUMP JUMPDEST POP MOD SWAP1 JUMP JUMPDEST PUSH4 0x4E487B71 PUSH1 0xE0 SHL PUSH1 0x0 MSTORE PUSH1 0x11 PUSH1 0x4 MSTORE PUSH1 0x24 PUSH1 0x0 REVERT JUMPDEST PUSH4 0x4E487B71 PUSH1 0xE0 SHL PUSH1 0x0 MSTORE PUSH1 0x12 PUSH1 0x4 MSTORE PUSH1 0x24 PUSH1 0x0 REVERT JUMPDEST PUSH2 0x2A99 DUP1 PUSH3 0x126D PUSH1 0x0 CODECOPY PUSH1 0x0 RETURN INVALID PUSH1 0x80 PUSH1 0x40 MSTORE PUSH1 0x4 CALLDATASIZE LT PUSH2 0x2E8 JUMPI PUSH1 0x0 CALLDATALOAD PUSH1 0xE0 SHR DUP1 PUSH4 0x83AD7994 GT PUSH2 0x190 JUMPI DUP1 PUSH4 0xC31C9C07 GT PUSH2 0xDC JUMPI DUP1 PUSH4 0xE0899A90 GT PUSH2 0x95 JUMPI DUP1 PUSH4 0xF2FDE38B GT PUSH2 0x6F JUMPI DUP1 PUSH4 0xF2FDE38B EQ PUSH2 0x956 JUMPI DUP1 PUSH4 0xFB75B2C7 EQ PUSH2 0x976 JUMPI DUP1 PUSH4 0xFCCC2813 EQ PUSH2 0x996 JUMPI DUP1 PUSH4 0xFCE589D8 EQ PUSH2 0x9AC JUMPI PUSH1 0x0 DUP1 REVERT JUMPDEST DUP1 PUSH4 0xE0899A90 EQ PUSH2 0x8DD JUMPI DUP1 PUSH4 0xE4419F61 EQ PUSH2 0x916 JUMPI DUP1 PUSH4 0xEA2F0B37 EQ PUSH2 0x936 JUMPI PUSH1 0x0 DUP1 REVERT JUMPDEST DUP1 PUSH4 0xC31C9C07 EQ PUSH2 0x800 JUMPI DUP1 PUSH4 0xC4730D5D EQ PUSH2 0x820 JUMPI DUP1 PUSH4 0xC49B9A80 EQ PUSH2 0x836 JUMPI DUP1 PUSH4 0xCC32D176 EQ PUSH2 0x856 JUMPI DUP1 PUSH4 0xD543DBEB EQ PUSH2 0x877 JUMPI DUP1 PUSH4 0xDD62ED3E EQ PUSH2 0x897 JUMPI PUSH1 0x0 DUP1 REVERT JUMPDEST DUP1 PUSH4 0x8DA5CB5B GT PUSH2 0x149 JUMPI DUP1 PUSH4 0xA457C2D7 GT PUSH2 0x123 JUMPI DUP1 PUSH4 0xA457C2D7 EQ PUSH2 0x78A JUMPI DUP1 PUSH4 0xA5041BEB EQ PUSH2 0x7AA JUMPI DUP1 PUSH4 0xA8602FEA EQ PUSH2 0x7C0 JUMPI DUP1 PUSH4 0xA9059CBB EQ PUSH2 0x7E0 JUMPI PUSH1 0x0 DUP1 REVERT JUMPDEST DUP1 PUSH4 0x8DA5CB5B EQ PUSH2 0x721 JUMPI DUP1 PUSH4 0x95D89B41 EQ PUSH2 0x73F JUMPI DUP1 PUSH4 0x98118CB4 EQ PUSH2 0x76B JUMPI PUSH1 0x0 DUP1 REVERT JUMPDEST DUP1 PUSH4 0x83AD7994 EQ PUSH2 0x659 JUMPI DUP1 PUSH4 0x88F82020 EQ PUSH2 0x673 JUMPI DUP1 PUSH4 0x89A30271 EQ PUSH2 0x6AC JUMPI DUP1 PUSH4 0x8B424267 EQ PUSH2 0x6D4 JUMPI DUP1 PUSH4 0x8C0B5E22 EQ PUSH2 0x6F6 JUMPI DUP1 PUSH4 0x8CF8F71D EQ PUSH2 0x70C JUMPI PUSH1 0x0 DUP1 REVERT JUMPDEST DUP1 PUSH4 0x4549B039 GT PUSH2 0x24F JUMPI DUP1 PUSH4 0x5BC05E9A GT PUSH2 0x208 JUMPI DUP1 PUSH4 0x715018A6 GT PUSH2 0x1E2 JUMPI DUP1 PUSH4 0x715018A6 EQ PUSH2 0x5EF JUMPI DUP1 PUSH4 0x75F0A874 EQ PUSH2 0x604 JUMPI DUP1 PUSH4 0x78A2E101 EQ PUSH2 0x624 JUMPI DUP1 PUSH4 0x81A0B3FF EQ PUSH2 0x639 JUMPI PUSH1 0x0 DUP1 REVERT JUMPDEST DUP1 PUSH4 0x5BC05E9A EQ PUSH2 0x58F JUMPI DUP1 PUSH4 0x6BCFF5B6 EQ PUSH2 0x5AF JUMPI DUP1 PUSH4 0x70A08231 EQ PUSH2 0x5CF JUMPI PUSH1 0x0 DUP1 REVERT JUMPDEST DUP1 PUSH4 0x4549B039 EQ PUSH2 0x4CE JUMPI DUP1 PUSH4 0x4626402B EQ PUSH2 0x4EE JUMPI DUP1 PUSH4 0x4A74BB02 EQ PUSH2 0x50E JUMPI DUP1 PUSH4 0x52390C02 EQ PUSH2 0x52F JUMPI DUP1 PUSH4 0x560AA498 EQ PUSH2 0x54F JUMPI DUP1 PUSH4 0x5958621E EQ PUSH2 0x56F JUMPI PUSH1 0x0 DUP1 REVERT JUMPDEST DUP1 PUSH4 0x2D838119 GT PUSH2 0x2A1 JUMPI DUP1 PUSH4 0x2D838119 EQ PUSH2 0x402 JUMPI DUP1 PUSH4 0x313CE567 EQ PUSH2 0x422 JUMPI DUP1 PUSH4 0x32FE7B26 EQ PUSH2 0x444 JUMPI DUP1 PUSH4 0x3685D419 EQ PUSH2 0x46C JUMPI DUP1 PUSH4 0x39509351 EQ PUSH2 0x48E JUMPI DUP1 PUSH4 0x437823EC EQ PUSH2 0x4AE JUMPI PUSH1 0x0 DUP1 REVERT JUMPDEST DUP1 PUSH4 0x6FDDE03 EQ PUSH2 0x2F4 JUMPI DUP1 PUSH4 0x95EA7B3 EQ PUSH2 0x337 JUMPI DUP1 PUSH4 0x18160DDD EQ PUSH2 0x367 JUMPI DUP1 PUSH4 0x23B872DD EQ PUSH2 0x38A JUMPI DUP1 PUSH4 0x2523FD57 EQ PUSH2 0x3AA JUMPI DUP1 PUSH4 0x26991CC8 EQ PUSH2 0x3E2 JUMPI PUSH1 0x0 DUP1 REVERT JUMPDEST CALLDATASIZE PUSH2 0x2EF JUMPI STOP JUMPDEST PUSH1 0x0 DUP1 REVERT JUMPDEST CALLVALUE DUP1 ISZERO PUSH2 0x300 JUMPI PUSH1 0x0 DUP1 REVERT JUMPDEST POP PUSH1 0x40 DUP1 MLOAD DUP1 DUP3 ADD SWAP1 SWAP2 MSTORE PUSH1 0x8 DUP2 MSTORE PUSH8 0x26B4B72A32B9BA19 PUSH1 0xC1 SHL PUSH1 0x20 DUP3 ADD MSTORE JUMPDEST PUSH1 0x40 MLOAD PUSH2 0x32E SWAP2 SWAP1 PUSH2 0x278A JUMP JUMPDEST PUSH1 0x40 MLOAD DUP1 SWAP2 SUB SWAP1 RETURN JUMPDEST CALLVALUE DUP1 ISZERO PUSH2 0x343 JUMPI PUSH1 0x0 DUP1 REVERT JUMPDEST POP PUSH2 0x357 PUSH2 0x352 CALLDATASIZE PUSH1 0x4 PUSH2 0x2651 JUMP JUMPDEST PUSH2 0x9CC JUMP JUMPDEST PUSH1 0x40 MLOAD SWAP1 ISZERO ISZERO DUP2 MSTORE PUSH1 0x20 ADD PUSH2 0x32E JUMP JUMPDEST CALLVALUE DUP1 ISZERO PUSH2 0x373 JUMPI PUSH1 0x0 DUP1 REVERT JUMPDEST POP PUSH2 0x37C PUSH2 0x9E3 JUMP JUMPDEST PUSH1 0x40 MLOAD SWAP1 DUP2 MSTORE PUSH1 0x20 ADD PUSH2 0x32E JUMP JUMPDEST CALLVALUE DUP1 ISZERO PUSH2 0x396 JUMPI PUSH1 0x0 DUP1 REVERT JUMPDEST POP PUSH2 0x357 PUSH2 0x3A5 CALLDATASIZE PUSH1 0x4 PUSH2 0x2616 JUMP JUMPDEST PUSH2 0xA04 JUMP JUMPDEST CALLVALUE DUP1 ISZERO PUSH2 0x3B6 JUMPI PUSH1 0x0 DUP1 REVERT JUMPDEST POP PUSH1 0x5 SLOAD PUSH2 0x3CA SWAP1 PUSH1 0x1 PUSH1 0x1 PUSH1 0xA0 SHL SUB AND DUP2 JUMP JUMPDEST PUSH1 0x40 MLOAD PUSH1 0x1 PUSH1 0x1 PUSH1 0xA0 SHL SUB SWAP1 SWAP2 AND DUP2 MSTORE PUSH1 0x20 ADD PUSH2 0x32E JUMP JUMPDEST CALLVALUE DUP1 ISZERO PUSH2 0x3EE JUMPI PUSH1 0x0 DUP1 REVERT JUMPDEST POP PUSH1 0x16 SLOAD PUSH2 0x3CA SWAP1 PUSH1 0x1 PUSH1 0x1 PUSH1 0xA0 SHL SUB AND DUP2 JUMP JUMPDEST CALLVALUE DUP1 ISZERO PUSH2 0x40E JUMPI PUSH1 0x0 DUP1 REVERT JUMPDEST POP PUSH2 0x37C PUSH2 0x41D CALLDATASIZE PUSH1 0x4 PUSH2 0x26B2 JUMP JUMPDEST PUSH2 0xA6D JUMP JUMPDEST CALLVALUE DUP1 ISZERO PUSH2 0x42E JUMPI PUSH1 0x0 DUP1 REVERT JUMPDEST POP PUSH1 0x12 JUMPDEST PUSH1 0x40 MLOAD PUSH1 0xFF SWAP1 SWAP2 AND DUP2 MSTORE PUSH1 0x20 ADD PUSH2 0x32E JUMP JUMPDEST CALLVALUE DUP1 ISZERO PUSH2 0x450 JUMPI PUSH1 0x0 DUP1 REVERT JUMPDEST POP PUSH2 0x3CA PUSH20 0xA5E0829CACED8FFDD4DE3C43696C57F7D7A678FF DUP2 JUMP JUMPDEST CALLVALUE DUP1 ISZERO PUSH2 0x478 JUMPI PUSH1 0x0 DUP1 REVERT JUMPDEST POP PUSH2 0x48C PUSH2 0x487 CALLDATASIZE PUSH1 0x4 PUSH2 0x25CA JUMP JUMPDEST PUSH2 0xB09 JUMP JUMPDEST STOP JUMPDEST CALLVALUE DUP1 ISZERO PUSH2 0x49A JUMPI PUSH1 0x0 DUP1 REVERT JUMPDEST POP PUSH2 0x357 PUSH2 0x4A9 CALLDATASIZE PUSH1 0x4 PUSH2 0x2651 JUMP JUMPDEST PUSH2 0xD40 JUMP JUMPDEST CALLVALUE DUP1 ISZERO PUSH2 0x4BA JUMPI PUSH1 0x0 DUP1 REVERT JUMPDEST POP PUSH2 0x48C PUSH2 0x4C9 CALLDATASIZE PUSH1 0x4 PUSH2 0x25CA JUMP JUMPDEST PUSH2 0xD76 JUMP JUMPDEST CALLVALUE DUP1 ISZERO PUSH2 0x4DA JUMPI PUSH1 0x0 DUP1 REVERT JUMPDEST POP PUSH2 0x37C PUSH2 0x4E9 CALLDATASIZE PUSH1 0x4 PUSH2 0x26CA JUMP JUMPDEST PUSH2 0xDEC JUMP JUMPDEST CALLVALUE DUP1 ISZERO PUSH2 0x4FA JUMPI PUSH1 0x0 DUP1 REVERT JUMPDEST POP PUSH1 0x10 SLOAD PUSH2 0x3CA SWAP1 PUSH1 0x1 PUSH1 0x1 PUSH1 0xA0 SHL SUB AND DUP2 JUMP JUMPDEST CALLVALUE DUP1 ISZERO PUSH2 0x51A JUMPI PUSH1 0x0 DUP1 REVERT JUMPDEST POP PUSH1 0x16 SLOAD PUSH2 0x357 SWAP1 PUSH1 0x1 PUSH1 0xA0 SHL SWAP1 DIV PUSH1 0xFF AND DUP2 JUMP JUMPDEST CALLVALUE DUP1 ISZERO PUSH2 0x53B JUMPI PUSH1 0x0 DUP1 REVERT JUMPDEST POP PUSH2 0x48C PUSH2 0x54A CALLDATASIZE PUSH1 0x4 PUSH2 0x25CA JUMP JUMPDEST PUSH2 0xE8E JUMP JUMPDEST CALLVALUE DUP1 ISZERO PUSH2 0x55B JUMPI PUSH1 0x0 DUP1 REVERT JUMPDEST POP PUSH1 0x4 SLOAD PUSH2 0x3CA SWAP1 PUSH1 0x1 PUSH1 0x1 PUSH1 0xA0 SHL SUB AND DUP2 JUMP JUMPDEST CALLVALUE DUP1 ISZERO PUSH2 0x57B JUMPI PUSH1 0x0 DUP1 REVERT JUMPDEST POP PUSH2 0x48C PUSH2 0x58A CALLDATASIZE PUSH1 0x4 PUSH2 0x25CA JUMP JUMPDEST PUSH2 0x101A JUMP JUMPDEST CALLVALUE DUP1 ISZERO PUSH2 0x59B JUMPI PUSH1 0x0 DUP1 REVERT JUMPDEST POP PUSH1 0x13 SLOAD PUSH2 0x3CA SWAP1 PUSH1 0x1 PUSH1 0x1 PUSH1 0xA0 SHL SUB AND DUP2 JUMP JUMPDEST CALLVALUE DUP1 ISZERO PUSH2 0x5BB JUMPI PUSH1 0x0 DUP1 REVERT JUMPDEST POP PUSH1 0x3 SLOAD PUSH2 0x3CA SWAP1 PUSH1 0x1 PUSH1 0x1 PUSH1 0xA0 SHL SUB AND DUP2 JUMP JUMPDEST CALLVALUE DUP1 ISZERO PUSH2 0x5DB JUMPI PUSH1 0x0 DUP1 REVERT JUMPDEST POP PUSH2 0x37C PUSH2 0x5EA CALLDATASIZE PUSH1 0x4 PUSH2 0x25CA JUMP JUMPDEST PUSH2 0x108C JUMP JUMPDEST CALLVALUE DUP1 ISZERO PUSH2 0x5FB JUMPI PUSH1 0x0 DUP1 REVERT JUMPDEST POP PUSH2 0x48C PUSH2 0x10EB JUMP JUMPDEST CALLVALUE DUP1 ISZERO PUSH2 0x610 JUMPI PUSH1 0x0 DUP1 REVERT JUMPDEST POP PUSH1 0x12 SLOAD PUSH2 0x3CA SWAP1 PUSH1 0x1 PUSH1 0x1 PUSH1 0xA0 SHL SUB AND DUP2 JUMP JUMPDEST CALLVALUE DUP1 ISZERO PUSH2 0x630 JUMPI PUSH1 0x0 DUP1 REVERT JUMPDEST POP PUSH2 0x37C PUSH2 0x115F JUMP JUMPDEST CALLVALUE DUP1 ISZERO PUSH2 0x645 JUMPI PUSH1 0x0 DUP1 REVERT JUMPDEST POP PUSH1 0x14 SLOAD PUSH2 0x3CA SWAP1 PUSH1 0x1 PUSH1 0x1 PUSH1 0xA0 SHL SUB AND DUP2 JUMP JUMPDEST CALLVALUE DUP1 ISZERO PUSH2 0x665 JUMPI PUSH1 0x0 DUP1 REVERT JUMPDEST POP PUSH1 0xE SLOAD PUSH2 0x432 SWAP1 PUSH1 0xFF AND DUP2 JUMP JUMPDEST CALLVALUE DUP1 ISZERO PUSH2 0x67F JUMPI PUSH1 0x0 DUP1 REVERT JUMPDEST POP PUSH2 0x357 PUSH2 0x68E CALLDATASIZE PUSH1 0x4 PUSH2 0x25CA JUMP JUMPDEST PUSH1 0x1 PUSH1 0x1 PUSH1 0xA0 SHL SUB AND PUSH1 0x0 SWAP1 DUP2 MSTORE PUSH1 0xA PUSH1 0x20 MSTORE PUSH1 0x40 SWAP1 KECCAK256 SLOAD PUSH1 0xFF AND SWAP1 JUMP JUMPDEST CALLVALUE DUP1 ISZERO PUSH2 0x6B8 JUMPI PUSH1 0x0 DUP1 REVERT JUMPDEST POP PUSH2 0x3CA PUSH20 0xD26A9DDC4108A6CCDA4E23C87B0FB2BDD875D100 DUP2 JUMP JUMPDEST CALLVALUE DUP1 ISZERO PUSH2 0x6E0 JUMPI PUSH1 0x0 DUP1 REVERT JUMPDEST POP PUSH1 0xE SLOAD PUSH2 0x432 SWAP1 PUSH5 0x100000000 SWAP1 DIV PUSH1 0xFF AND DUP2 JUMP JUMPDEST CALLVALUE DUP1 ISZERO PUSH2 0x702 JUMPI PUSH1 0x0 DUP1 REVERT JUMPDEST POP PUSH2 0x37C PUSH1 0x17 SLOAD DUP2 JUMP JUMPDEST CALLVALUE DUP1 ISZERO PUSH2 0x718 JUMPI PUSH1 0x0 DUP1 REVERT JUMPDEST POP PUSH2 0x37C PUSH2 0x117C JUMP JUMPDEST CALLVALUE DUP1 ISZERO PUSH2 0x72D JUMPI PUSH1 0x0 DUP1 REVERT JUMPDEST POP PUSH1 0x0 SLOAD PUSH1 0x1 PUSH1 0x1 PUSH1 0xA0 SHL SUB AND PUSH2 0x3CA JUMP JUMPDEST CALLVALUE DUP1 ISZERO PUSH2 0x74B JUMPI PUSH1 0x0 DUP1 REVERT JUMPDEST POP PUSH1 0x40 DUP1 MLOAD DUP1 DUP3 ADD SWAP1 SWAP2 MSTORE PUSH1 0x3 DUP2 MSTORE PUSH3 0x26AA19 PUSH1 0xE9 SHL PUSH1 0x20 DUP3 ADD MSTORE PUSH2 0x321 JUMP JUMPDEST CALLVALUE DUP1 ISZERO PUSH2 0x777 JUMPI PUSH1 0x0 DUP1 REVERT JUMPDEST POP PUSH1 0xE SLOAD PUSH2 0x432 SWAP1 PUSH2 0x100 SWAP1 DIV PUSH1 0xFF AND DUP2 JUMP JUMPDEST CALLVALUE DUP1 ISZERO PUSH2 0x796 JUMPI PUSH1 0x0 DUP1 REVERT JUMPDEST POP PUSH2 0x357 PUSH2 0x7A5 CALLDATASIZE PUSH1 0x4 PUSH2 0x2651 JUMP JUMPDEST PUSH2 0x1196 JUMP JUMPDEST CALLVALUE DUP1 ISZERO PUSH2 0x7B6 JUMPI PUSH1 0x0 DUP1 REVERT JUMPDEST POP PUSH2 0x37C PUSH1 0xF SLOAD DUP2 JUMP JUMPDEST CALLVALUE DUP1 ISZERO PUSH2 0x7CC JUMPI PUSH1 0x0 DUP1 REVERT JUMPDEST POP PUSH2 0x48C PUSH2 0x7DB CALLDATASIZE PUSH1 0x4 PUSH2 0x25CA JUMP JUMPDEST PUSH2 0x11E5 JUMP JUMPDEST CALLVALUE DUP1 ISZERO PUSH2 0x7EC JUMPI PUSH1 0x0 DUP1 REVERT JUMPDEST POP PUSH2 0x357 PUSH2 0x7FB CALLDATASIZE PUSH1 0x4 PUSH2 0x2651 JUMP JUMPDEST PUSH2 0x1257 JUMP JUMPDEST CALLVALUE DUP1 ISZERO PUSH2 0x80C JUMPI PUSH1 0x0 DUP1 REVERT JUMPDEST POP PUSH1 0x15 SLOAD PUSH2 0x3CA SWAP1 PUSH1 0x1 PUSH1 0x1 PUSH1 0xA0 SHL SUB AND DUP2 JUMP JUMPDEST CALLVALUE DUP1 ISZERO PUSH2 0x82C JUMPI PUSH1 0x0 DUP1 REVERT JUMPDEST POP PUSH2 0x37C PUSH1 0xD SLOAD DUP2 JUMP JUMPDEST CALLVALUE DUP1 ISZERO PUSH2 0x842 JUMPI PUSH1 0x0 DUP1 REVERT JUMPDEST POP PUSH2 0x48C PUSH2 0x851 CALLDATASIZE PUSH1 0x4 PUSH2 0x267A JUMP JUMPDEST PUSH2 0x1264 JUMP JUMPDEST CALLVALUE DUP1 ISZERO PUSH2 0x862 JUMPI PUSH1 0x0 DUP1 REVERT JUMPDEST POP PUSH1 0xE SLOAD PUSH2 0x432 SWAP1 PUSH4 0x1000000 SWAP1 DIV PUSH1 0xFF AND DUP2 JUMP JUMPDEST CALLVALUE DUP1 ISZERO PUSH2 0x883 JUMPI PUSH1 0x0 DUP1 REVERT JUMPDEST POP PUSH2 0x48C PUSH2 0x892 CALLDATASIZE PUSH1 0x4 PUSH2 0x26B2 JUMP JUMPDEST PUSH2 0x12E6 JUMP JUMPDEST CALLVALUE DUP1 ISZERO PUSH2 0x8A3 JUMPI PUSH1 0x0 DUP1 REVERT JUMPDEST POP PUSH2 0x37C PUSH2 0x8B2 CALLDATASIZE PUSH1 0x4 PUSH2 0x25E4 JUMP JUMPDEST PUSH1 0x1 PUSH1 0x1 PUSH1 0xA0 SHL SUB SWAP2 DUP3 AND PUSH1 0x0 SWAP1 DUP2 MSTORE PUSH1 0x8 PUSH1 0x20 SWAP1 DUP2 MSTORE PUSH1 0x40 DUP1 DUP4 KECCAK256 SWAP4 SWAP1 SWAP5 AND DUP3 MSTORE SWAP2 SWAP1 SWAP2 MSTORE KECCAK256 SLOAD SWAP1 JUMP JUMPDEST CALLVALUE DUP1 ISZERO PUSH2 0x8E9 JUMPI PUSH1 0x0 DUP1 REVERT JUMPDEST POP PUSH2 0x357 PUSH2 0x8F8 CALLDATASIZE PUSH1 0x4 PUSH2 0x25CA JUMP JUMPDEST PUSH1 0x1 PUSH1 0x1 PUSH1 0xA0 SHL SUB AND PUSH1 0x0 SWAP1 DUP2 MSTORE PUSH1 0x9 PUSH1 0x20 MSTORE PUSH1 0x40 SWAP1 KECCAK256 SLOAD PUSH1 0xFF AND SWAP1 JUMP JUMPDEST CALLVALUE DUP1 ISZERO PUSH2 0x922 JUMPI PUSH1 0x0 DUP1 REVERT JUMPDEST POP PUSH2 0x48C PUSH2 0x931 CALLDATASIZE PUSH1 0x4 PUSH2 0x2726 JUMP JUMPDEST PUSH2 0x13E4 JUMP JUMPDEST CALLVALUE DUP1 ISZERO PUSH2 0x942 JUMPI PUSH1 0x0 DUP1 REVERT JUMPDEST POP PUSH2 0x48C PUSH2 0x951 CALLDATASIZE PUSH1 0x4 PUSH2 0x25CA JUMP JUMPDEST PUSH2 0x15A1 JUMP JUMPDEST CALLVALUE DUP1 ISZERO PUSH2 0x962 JUMPI PUSH1 0x0 DUP1 REVERT JUMPDEST POP PUSH2 0x48C PUSH2 0x971 CALLDATASIZE PUSH1 0x4 PUSH2 0x25CA JUMP JUMPDEST PUSH2 0x1614 JUMP JUMPDEST CALLVALUE DUP1 ISZERO PUSH2 0x982 JUMPI PUSH1 0x0 DUP1 REVERT JUMPDEST POP PUSH1 0x11 SLOAD PUSH2 0x3CA SWAP1 PUSH1 0x1 PUSH1 0x1 PUSH1 0xA0 SHL SUB AND DUP2 JUMP JUMPDEST CALLVALUE DUP1 ISZERO PUSH2 0x9A2 JUMPI PUSH1 0x0 DUP1 REVERT JUMPDEST POP PUSH2 0x3CA PUSH2 0xDEAD DUP2 JUMP JUMPDEST CALLVALUE DUP1 ISZERO PUSH2 0x9B8 JUMPI PUSH1 0x0 DUP1 REVERT JUMPDEST POP PUSH1 0xE SLOAD PUSH2 0x432 SWAP1 PUSH3 0x10000 SWAP1 DIV PUSH1 0xFF AND DUP2 JUMP JUMPDEST PUSH1 0x0 PUSH2 0x9D9 CALLER DUP5 DUP5 PUSH2 0x1860 JUMP JUMPDEST POP PUSH1 0x1 JUMPDEST SWAP3 SWAP2 POP POP JUMP JUMPDEST PUSH1 0x0 PUSH2 0x9F1 PUSH1 0x12 PUSH1 0xA PUSH2 0x28E3 JUMP JUMPDEST PUSH2 0x9FF SWAP1 PUSH4 0x77359400 PUSH2 0x298E JUMP JUMPDEST SWAP1 POP SWAP1 JUMP JUMPDEST PUSH1 0x0 PUSH2 0xA58 DUP5 CALLER PUSH2 0xA53 DUP6 PUSH1 0x40 MLOAD DUP1 PUSH1 0x60 ADD PUSH1 0x40 MSTORE DUP1 PUSH1 0x30 DUP2 MSTORE PUSH1 0x20 ADD PUSH2 0x2A34 PUSH1 0x30 SWAP2 CODECOPY PUSH1 0x1 PUSH1 0x1 PUSH1 0xA0 SHL SUB DUP11 AND PUSH1 0x0 SWAP1 DUP2 MSTORE PUSH1 0x8 PUSH1 0x20 SWAP1 DUP2 MSTORE PUSH1 0x40 DUP1 DUP4 KECCAK256 CALLER DUP5 MSTORE SWAP1 SWAP2 MSTORE SWAP1 KECCAK256 SLOAD SWAP2 SWAP1 PUSH2 0x199F JUMP JUMPDEST PUSH2 0x1860 JUMP JUMPDEST PUSH2 0xA63 DUP5 DUP5 DUP5 PUSH2 0x19D9 JUMP JUMPDEST POP PUSH1 0x1 SWAP4 SWAP3 POP POP POP JUMP JUMPDEST PUSH1 0x0 PUSH1 0xC SLOAD DUP3 GT ISZERO PUSH2 0xAEC JUMPI PUSH1 0x40 MLOAD PUSH3 0x461BCD PUSH1 0xE5 SHL DUP2 MSTORE PUSH1 0x20 PUSH1 0x4 DUP3 ADD MSTORE PUSH1 0x39 PUSH1 0x24 DUP3 ADD MSTORE PUSH32 0x4D696E6F72697479546F6B656E3A20416D6F756E74206D757374206265206C65 PUSH1 0x44 DUP3 ADD MSTORE PUSH32 0x7373207468616E20746F74616C207265666C656374696F6E7300000000000000 PUSH1 0x64 DUP3 ADD MSTORE PUSH1 0x84 ADD JUMPDEST PUSH1 0x40 MLOAD DUP1 SWAP2 SUB SWAP1 REVERT JUMPDEST PUSH1 0x0 PUSH2 0xAF6 PUSH2 0x1E61 JUMP JUMPDEST SWAP1 POP PUSH2 0xB02 DUP4 DUP3 PUSH2 0x175D JUMP JUMPDEST SWAP4 SWAP3 POP POP POP JUMP JUMPDEST PUSH1 0x0 SLOAD PUSH1 0x1 PUSH1 0x1 PUSH1 0xA0 SHL SUB AND CALLER EQ PUSH2 0xB33 JUMPI PUSH1 0x40 MLOAD PUSH3 0x461BCD PUSH1 0xE5 SHL DUP2 MSTORE PUSH1 0x4 ADD PUSH2 0xAE3 SWAP1 PUSH2 0x27DD JUMP JUMPDEST PUSH1 0x1 PUSH1 0x1 PUSH1 0xA0 SHL SUB DUP2 AND PUSH1 0x0 SWAP1 DUP2 MSTORE PUSH1 0xA PUSH1 0x20 MSTORE PUSH1 0x40 SWAP1 KECCAK256 SLOAD PUSH1 0xFF AND PUSH2 0xBAE JUMPI PUSH1 0x40 MLOAD PUSH3 0x461BCD PUSH1 0xE5 SHL DUP2 MSTORE PUSH1 0x20 PUSH1 0x4 DUP3 ADD MSTORE PUSH1 0x2A PUSH1 0x24 DUP3 ADD MSTORE PUSH32 0x4D696E6F72697479546F6B656E3A204163636F756E7420697320616C72656164 PUSH1 0x44 DUP3 ADD MSTORE PUSH10 0x1E481A5B98DB1D591959 PUSH1 0xB2 SHL PUSH1 0x64 DUP3 ADD MSTORE PUSH1 0x84 ADD PUSH2 0xAE3 JUMP JUMPDEST PUSH1 0x0 JUMPDEST PUSH1 0xB SLOAD DUP2 LT ISZERO PUSH2 0xD08 JUMPI DUP2 PUSH1 0x1 PUSH1 0x1 PUSH1 0xA0 SHL SUB AND PUSH1 0xB DUP3 DUP2 SLOAD DUP2 LT PUSH2 0xBE6 JUMPI PUSH4 0x4E487B71 PUSH1 0xE0 SHL PUSH1 0x0 MSTORE PUSH1 0x32 PUSH1 0x4 MSTORE PUSH1 0x24 PUSH1 0x0 REVERT JUMPDEST PUSH1 0x0 SWAP2 DUP3 MSTORE PUSH1 0x20 SWAP1 SWAP2 KECCAK256 ADD SLOAD PUSH1 0x1 PUSH1 0x1 PUSH1 0xA0 SHL SUB AND EQ ISZERO PUSH2 0xCF6 JUMPI PUSH1 0xB DUP1 SLOAD PUSH2 0xC11 SWAP1 PUSH1 0x1 SWAP1 PUSH2 0x29AD JUMP JUMPDEST DUP2 SLOAD DUP2 LT PUSH2 0xC2F JUMPI PUSH4 0x4E487B71 PUSH1 0xE0 SHL PUSH1 0x0 MSTORE PUSH1 0x32 PUSH1 0x4 MSTORE PUSH1 0x24 PUSH1 0x0 REVERT JUMPDEST PUSH1 0x0 SWAP2 DUP3 MSTORE PUSH1 0x20 SWAP1 SWAP2 KECCAK256 ADD SLOAD PUSH1 0xB DUP1 SLOAD PUSH1 0x1 PUSH1 0x1 PUSH1 0xA0 SHL SUB SWAP1 SWAP3 AND SWAP2 DUP4 SWAP1 DUP2 LT PUSH2 0xC69 JUMPI PUSH4 0x4E487B71 PUSH1 0xE0 SHL PUSH1 0x0 MSTORE PUSH1 0x32 PUSH1 0x4 MSTORE PUSH1 0x24 PUSH1 0x0 REVERT JUMPDEST PUSH1 0x0 SWAP2 DUP3 MSTORE PUSH1 0x20 DUP1 DUP4 KECCAK256 SWAP2 SWAP1 SWAP2 ADD DUP1 SLOAD PUSH1 0x1 PUSH1 0x1 PUSH1 0xA0 SHL SUB NOT AND PUSH1 0x1 PUSH1 0x1 PUSH1 0xA0 SHL SUB SWAP5 DUP6 AND OR SWAP1 SSTORE SWAP2 DUP5 AND DUP2 MSTORE PUSH1 0x7 DUP3 MSTORE PUSH1 0x40 DUP1 DUP3 KECCAK256 DUP3 SWAP1 SSTORE PUSH1 0xA SWAP1 SWAP3 MSTORE KECCAK256 DUP1 SLOAD PUSH1 0xFF NOT AND SWAP1 SSTORE PUSH1 0xB DUP1 SLOAD DUP1 PUSH2 0xCCF JUMPI PUSH4 0x4E487B71 PUSH1 0xE0 SHL PUSH1 0x0 MSTORE PUSH1 0x31 PUSH1 0x4 MSTORE PUSH1 0x24 PUSH1 0x0 REVERT JUMPDEST PUSH1 0x0 DUP3 DUP2 MSTORE PUSH1 0x20 SWAP1 KECCAK256 DUP2 ADD PUSH1 0x0 NOT SWAP1 DUP2 ADD DUP1 SLOAD PUSH1 0x1 PUSH1 0x1 PUSH1 0xA0 SHL SUB NOT AND SWAP1 SSTORE ADD SWAP1 SSTORE PUSH2 0xD08 JUMP JUMPDEST DUP1 PUSH2 0xD00 DUP2 PUSH2 0x29C4 JUMP JUMPDEST SWAP2 POP POP PUSH2 0xBB1 JUMP JUMPDEST POP PUSH1 0x40 MLOAD PUSH1 0x1 PUSH1 0x1 PUSH1 0xA0 SHL SUB DUP3 AND SWAP1 PUSH32 0x47AB6B2D1F416EDEC684889DC42CD04ED7CC6C6244EDAA04C4215E1077548614 SWAP1 PUSH1 0x0 SWAP1 LOG2 POP JUMP JUMPDEST CALLER PUSH1 0x0 DUP2 DUP2 MSTORE PUSH1 0x8 PUSH1 0x20 SWAP1 DUP2 MSTORE PUSH1 0x40 DUP1 DUP4 KECCAK256 PUSH1 0x1 PUSH1 0x1 PUSH1 0xA0 SHL SUB DUP8 AND DUP5 MSTORE SWAP1 SWAP2 MSTORE DUP2 KECCAK256 SLOAD SWAP1 SWAP2 PUSH2 0x9D9 SWAP2 DUP6 SWAP1 PUSH2 0xA53 SWAP1 DUP7 PUSH2 0x16FE JUMP JUMPDEST PUSH1 0x0 SLOAD PUSH1 0x1 PUSH1 0x1 PUSH1 0xA0 SHL SUB AND CALLER EQ PUSH2 0xDA0 JUMPI PUSH1 0x40 MLOAD PUSH3 0x461BCD PUSH1 0xE5 SHL DUP2 MSTORE PUSH1 0x4 ADD PUSH2 0xAE3 SWAP1 PUSH2 0x27DD JUMP JUMPDEST PUSH1 0x1 PUSH1 0x1 PUSH1 0xA0 SHL SUB DUP2 AND PUSH1 0x0 DUP2 DUP2 MSTORE PUSH1 0x9 PUSH1 0x20 MSTORE PUSH1 0x40 DUP1 DUP3 KECCAK256 DUP1 SLOAD PUSH1 0xFF NOT AND PUSH1 0x1 OR SWAP1 SSTORE MLOAD PUSH32 0xF1D6512EC7550BF605A5A38910E48FB6A57938ED74A5AFA01753FA023001005C SWAP2 SWAP1 LOG2 POP JUMP JUMPDEST PUSH1 0x0 PUSH2 0xDFA PUSH1 0x12 PUSH1 0xA PUSH2 0x28E3 JUMP JUMPDEST PUSH2 0xE08 SWAP1 PUSH4 0x77359400 PUSH2 0x298E JUMP JUMPDEST DUP4 GT ISZERO PUSH2 0xE57 JUMPI PUSH1 0x40 MLOAD PUSH3 0x461BCD PUSH1 0xE5 SHL DUP2 MSTORE PUSH1 0x20 PUSH1 0x4 DUP3 ADD MSTORE PUSH1 0x1F PUSH1 0x24 DUP3 ADD MSTORE PUSH32 0x416D6F756E74206D757374206265206C657373207468616E20737570706C7900 PUSH1 0x44 DUP3 ADD MSTORE PUSH1 0x64 ADD PUSH2 0xAE3 JUMP JUMPDEST DUP2 PUSH2 0xE75 JUMPI PUSH1 0x0 PUSH2 0xE67 DUP5 PUSH2 0x1E84 JUMP JUMPDEST POP SWAP3 SWAP5 POP PUSH2 0x9DD SWAP4 POP POP POP POP JUMP JUMPDEST PUSH1 0x0 PUSH2 0xE80 DUP5 PUSH2 0x1E84 JUMP JUMPDEST POP SWAP2 SWAP5 POP PUSH2 0x9DD SWAP4 POP POP POP POP JUMP JUMPDEST PUSH1 0x0 SLOAD PUSH1 0x1 PUSH1 0x1 PUSH1 0xA0 SHL SUB AND CALLER EQ PUSH2 0xEB8 JUMPI PUSH1 0x40 MLOAD PUSH3 0x461BCD PUSH1 0xE5 SHL DUP2 MSTORE PUSH1 0x4 ADD PUSH2 0xAE3 SWAP1 PUSH2 0x27DD JUMP JUMPDEST PUSH1 0x1 PUSH1 0x1 PUSH1 0xA0 SHL SUB DUP2 AND PUSH1 0x0 SWAP1 DUP2 MSTORE PUSH1 0xA PUSH1 0x20 MSTORE PUSH1 0x40 SWAP1 KECCAK256 SLOAD PUSH1 0xFF AND ISZERO PUSH2 0xF34 JUMPI PUSH1 0x40 MLOAD PUSH3 0x461BCD PUSH1 0xE5 SHL DUP2 MSTORE PUSH1 0x20 PUSH1 0x4 DUP3 ADD MSTORE PUSH1 0x2A PUSH1 0x24 DUP3 ADD MSTORE PUSH32 0x4D696E6F72697479546F6B656E3A204163636F756E7420697320616C72656164 PUSH1 0x44 DUP3 ADD MSTORE PUSH10 0x1E48195E18DB1D591959 PUSH1 0xB2 SHL PUSH1 0x64 DUP3 ADD MSTORE PUSH1 0x84 ADD PUSH2 0xAE3 JUMP JUMPDEST PUSH1 0x1 PUSH1 0x1 PUSH1 0xA0 SHL SUB DUP2 AND PUSH1 0x0 SWAP1 DUP2 MSTORE PUSH1 0x6 PUSH1 0x20 MSTORE PUSH1 0x40 SWAP1 KECCAK256 SLOAD ISZERO PUSH2 0xF8E JUMPI PUSH1 0x1 PUSH1 0x1 PUSH1 0xA0 SHL SUB DUP2 AND PUSH1 0x0 SWAP1 DUP2 MSTORE PUSH1 0x6 PUSH1 0x20 MSTORE PUSH1 0x40 SWAP1 KECCAK256 SLOAD PUSH2 0xF74 SWAP1 PUSH2 0xA6D JUMP JUMPDEST PUSH1 0x1 PUSH1 0x1 PUSH1 0xA0 SHL SUB DUP3 AND PUSH1 0x0 SWAP1 DUP2 MSTORE PUSH1 0x7 PUSH1 0x20 MSTORE PUSH1 0x40 SWAP1 KECCAK256 SSTORE JUMPDEST PUSH1 0x1 PUSH1 0x1 PUSH1 0xA0 SHL SUB DUP2 AND PUSH1 0x0 DUP2 DUP2 MSTORE PUSH1 0xA PUSH1 0x20 MSTORE PUSH1 0x40 DUP1 DUP3 KECCAK256 DUP1 SLOAD PUSH1 0xFF NOT AND PUSH1 0x1 SWAP1 DUP2 OR SWAP1 SWAP2 SSTORE PUSH1 0xB DUP1 SLOAD SWAP2 DUP3 ADD DUP2 SSTORE DUP4 MSTORE PUSH32 0x175B7A638427703F0DBE7BB9BBF987A2551717B34E79F33B5B1008D1FA01DB9 ADD DUP1 SLOAD PUSH1 0x1 PUSH1 0x1 PUSH1 0xA0 SHL SUB NOT AND DUP5 OR SWAP1 SSTORE MLOAD PUSH32 0x110B1FBED46DEC7BC9019C3FBA97541A3D64821A824872BB7B2AD678490855BF SWAP2 SWAP1 LOG2 POP JUMP JUMPDEST PUSH1 0x0 SLOAD PUSH1 0x1 PUSH1 0x1 PUSH1 0xA0 SHL SUB AND CALLER EQ PUSH2 0x1044 JUMPI PUSH1 0x40 MLOAD PUSH3 0x461BCD PUSH1 0xE5 SHL DUP2 MSTORE PUSH1 0x4 ADD PUSH2 0xAE3 SWAP1 PUSH2 0x27DD JUMP JUMPDEST PUSH1 0x1 PUSH1 0x1 PUSH1 0xA0 SHL SUB DUP2 AND PUSH2 0x106A JUMPI PUSH1 0x40 MLOAD PUSH3 0x461BCD PUSH1 0xE5 SHL DUP2 MSTORE PUSH1 0x4 ADD PUSH2 0xAE3 SWAP1 PUSH2 0x2812 JUMP JUMPDEST PUSH1 0x11 DUP1 SLOAD PUSH1 0x1 PUSH1 0x1 PUSH1 0xA0 SHL SUB NOT AND PUSH1 0x1 PUSH1 0x1 PUSH1 0xA0 SHL SUB SWAP3 SWAP1 SWAP3 AND SWAP2 SWAP1 SWAP2 OR SWAP1 SSTORE JUMP JUMPDEST PUSH1 0x1 PUSH1 0x1 PUSH1 0xA0 SHL SUB DUP2 AND PUSH1 0x0 SWAP1 DUP2 MSTORE PUSH1 0xA PUSH1 0x20 MSTORE PUSH1 0x40 DUP2 KECCAK256 SLOAD PUSH1 0xFF AND ISZERO PUSH2 0x10C9 JUMPI POP PUSH1 0x1 PUSH1 0x1 PUSH1 0xA0 SHL SUB AND PUSH1 0x0 SWAP1 DUP2 MSTORE PUSH1 0x7 PUSH1 0x20 MSTORE PUSH1 0x40 SWAP1 KECCAK256 SLOAD SWAP1 JUMP JUMPDEST PUSH1 0x1 PUSH1 0x1 PUSH1 0xA0 SHL SUB DUP3 AND PUSH1 0x0 SWAP1 DUP2 MSTORE PUSH1 0x6 PUSH1 0x20 MSTORE PUSH1 0x40 SWAP1 KECCAK256 SLOAD PUSH2 0x9DD SWAP1 PUSH2 0xA6D JUMP JUMPDEST PUSH1 0x0 SLOAD PUSH1 0x1 PUSH1 0x1 PUSH1 0xA0 SHL SUB AND CALLER EQ PUSH2 0x1115 JUMPI PUSH1 0x40 MLOAD PUSH3 0x461BCD PUSH1 0xE5 SHL DUP2 MSTORE PUSH1 0x4 ADD PUSH2 0xAE3 SWAP1 PUSH2 0x27DD JUMP JUMPDEST PUSH1 0x0 DUP1 SLOAD PUSH1 0x40 MLOAD PUSH1 0x1 PUSH1 0x1 PUSH1 0xA0 SHL SUB SWAP1 SWAP2 AND SWAP1 PUSH32 0x8BE0079C531659141344CD1FD0A4F28419497F9722A3DAAFE3B4186F6B6457E0 SWAP1 DUP4 SWAP1 LOG3 PUSH1 0x0 DUP1 SLOAD PUSH1 0x1 PUSH1 0x1 PUSH1 0xA0 SHL SUB NOT AND SWAP1 SSTORE JUMP JUMPDEST PUSH2 0x116B PUSH1 0x12 PUSH1 0xA PUSH2 0x28E3 JUMP JUMPDEST PUSH2 0x1179 SWAP1 PUSH4 0x5F5E100 PUSH2 0x298E JUMP JUMPDEST DUP2 JUMP JUMPDEST PUSH2 0x1188 PUSH1 0x12 PUSH1 0xA PUSH2 0x28E3 JUMP JUMPDEST PUSH2 0x1179 SWAP1 PUSH4 0x4C4B400 PUSH2 0x298E JUMP JUMPDEST PUSH1 0x0 PUSH2 0x9D9 CALLER DUP5 PUSH2 0xA53 DUP6 PUSH1 0x40 MLOAD DUP1 PUSH1 0x60 ADD PUSH1 0x40 MSTORE DUP1 PUSH1 0x2D DUP2 MSTORE PUSH1 0x20 ADD PUSH2 0x2A07 PUSH1 0x2D SWAP2 CODECOPY CALLER PUSH1 0x0 SWAP1 DUP2 MSTORE PUSH1 0x8 PUSH1 0x20 SWAP1 DUP2 MSTORE PUSH1 0x40 DUP1 DUP4 KECCAK256 PUSH1 0x1 PUSH1 0x1 PUSH1 0xA0 SHL SUB DUP14 AND DUP5 MSTORE SWAP1 SWAP2 MSTORE SWAP1 KECCAK256 SLOAD SWAP2 SWAP1 PUSH2 0x199F JUMP JUMPDEST PUSH1 0x0 SLOAD PUSH1 0x1 PUSH1 0x1 PUSH1 0xA0 SHL SUB AND CALLER EQ PUSH2 0x120F JUMPI PUSH1 0x40 MLOAD PUSH3 0x461BCD PUSH1 0xE5 SHL DUP2 MSTORE PUSH1 0x4 ADD PUSH2 0xAE3 SWAP1 PUSH2 0x27DD JUMP JUMPDEST PUSH1 0x1 PUSH1 0x1 PUSH1 0xA0 SHL SUB DUP2 AND PUSH2 0x1235 JUMPI PUSH1 0x40 MLOAD PUSH3 0x461BCD PUSH1 0xE5 SHL DUP2 MSTORE PUSH1 0x4 ADD PUSH2 0xAE3 SWAP1 PUSH2 0x2812 JUMP JUMPDEST PUSH1 0x10 DUP1 SLOAD PUSH1 0x1 PUSH1 0x1 PUSH1 0xA0 SHL SUB NOT AND PUSH1 0x1 PUSH1 0x1 PUSH1 0xA0 SHL SUB SWAP3 SWAP1 SWAP3 AND SWAP2 SWAP1 SWAP2 OR SWAP1 SSTORE JUMP JUMPDEST PUSH1 0x0 PUSH2 0x9D9 CALLER DUP5 DUP5 PUSH2 0x19D9 JUMP JUMPDEST PUSH1 0x0 SLOAD PUSH1 0x1 PUSH1 0x1 PUSH1 0xA0 SHL SUB AND CALLER EQ PUSH2 0x128E JUMPI PUSH1 0x40 MLOAD PUSH3 0x461BCD PUSH1 0xE5 SHL DUP2 MSTORE PUSH1 0x4 ADD PUSH2 0xAE3 SWAP1 PUSH2 0x27DD JUMP JUMPDEST PUSH1 0x16 DUP1 SLOAD DUP3 ISZERO ISZERO PUSH1 0x1 PUSH1 0xA0 SHL MUL PUSH1 0xFF PUSH1 0xA0 SHL NOT SWAP1 SWAP2 AND OR SWAP1 SSTORE PUSH1 0x40 MLOAD PUSH32 0x53726DFCAF90650AA7EB35524F4D3220F07413C8D6CB404CC8C18BF5591BC159 SWAP1 PUSH2 0x12DB SWAP1 DUP4 ISZERO ISZERO DUP2 MSTORE PUSH1 0x20 ADD SWAP1 JUMP JUMPDEST PUSH1 0x40 MLOAD DUP1 SWAP2 SUB SWAP1 LOG1 POP JUMP JUMPDEST PUSH1 0x0 SLOAD PUSH1 0x1 PUSH1 0x1 PUSH1 0xA0 SHL SUB AND CALLER EQ PUSH2 0x1310 JUMPI PUSH1 0x40 MLOAD PUSH3 0x461BCD PUSH1 0xE5 SHL DUP2 MSTORE PUSH1 0x4 ADD PUSH2 0xAE3 SWAP1 PUSH2 0x27DD JUMP JUMPDEST PUSH1 0x64 DUP2 LT PUSH2 0x136E JUMPI PUSH1 0x40 MLOAD PUSH3 0x461BCD PUSH1 0xE5 SHL DUP2 MSTORE PUSH1 0x20 PUSH1 0x4 DUP3 ADD MSTORE PUSH1 0x25 PUSH1 0x24 DUP3 ADD MSTORE PUSH32 0x4D696E6F72697479546F6B656E3A204D61782054782063616E2774206265203E PUSH1 0x44 DUP3 ADD MSTORE PUSH5 0x2031303025 PUSH1 0xD8 SHL PUSH1 0x64 DUP3 ADD MSTORE PUSH1 0x84 ADD PUSH2 0xAE3 JUMP JUMPDEST PUSH1 0x0 PUSH2 0x139F PUSH1 0x64 PUSH2 0x1399 DUP5 PUSH2 0x1385 PUSH1 0x12 PUSH1 0xA PUSH2 0x28E3 JUMP JUMPDEST PUSH2 0x1393 SWAP1 PUSH4 0x77359400 PUSH2 0x298E JUMP JUMPDEST SWAP1 PUSH2 0x17E1 JUMP JUMPDEST SWAP1 PUSH2 0x175D JUMP JUMPDEST PUSH1 0x17 SLOAD PUSH1 0x40 DUP1 MLOAD SWAP2 DUP3 MSTORE PUSH1 0x20 DUP3 ADD DUP4 SWAP1 MSTORE SWAP2 SWAP3 POP PUSH32 0xD6F586005531E7D32112F5389278497D656F7ED9029F31F85494A3F58CA18333 SWAP2 ADD PUSH1 0x40 MLOAD DUP1 SWAP2 SUB SWAP1 LOG1 PUSH1 0x17 SSTORE POP JUMP JUMPDEST PUSH1 0x0 SLOAD PUSH1 0x1 PUSH1 0x1 PUSH1 0xA0 SHL SUB AND CALLER EQ PUSH2 0x140E JUMPI PUSH1 0x40 MLOAD PUSH3 0x461BCD PUSH1 0xE5 SHL DUP2 MSTORE PUSH1 0x4 ADD PUSH2 0xAE3 SWAP1 PUSH2 0x27DD JUMP JUMPDEST PUSH1 0x0 PUSH2 0x1444 DUP3 PUSH1 0xFF AND PUSH2 0x143E DUP6 PUSH1 0xFF AND PUSH2 0x143E DUP9 PUSH1 0xFF AND PUSH2 0x143E DUP12 PUSH1 0xFF AND DUP14 PUSH1 0xFF AND PUSH2 0x16FE SWAP1 SWAP2 SWAP1 PUSH4 0xFFFFFFFF AND JUMP JUMPDEST SWAP1 PUSH2 0x16FE JUMP JUMPDEST SWAP1 POP PUSH1 0x19 DUP2 GT ISZERO PUSH2 0x14A2 JUMPI PUSH1 0x40 MLOAD PUSH3 0x461BCD PUSH1 0xE5 SHL DUP2 MSTORE PUSH1 0x20 PUSH1 0x4 DUP3 ADD MSTORE PUSH1 0x22 PUSH1 0x24 DUP3 ADD MSTORE PUSH32 0x4D696E6F72697479546F6B656E3A20546F74616C206665657320746F6F206869 PUSH1 0x44 DUP3 ADD MSTORE PUSH2 0xCED PUSH1 0xF3 SHL PUSH1 0x64 DUP3 ADD MSTORE PUSH1 0x84 ADD PUSH2 0xAE3 JUMP JUMPDEST PUSH1 0xE SLOAD PUSH1 0x40 DUP1 MLOAD PUSH1 0xFF DUP1 DUP5 AND DUP3 MSTORE DUP10 DUP2 AND PUSH1 0x20 DUP4 ADD MSTORE PUSH2 0x100 DUP1 DUP6 DIV DUP3 AND DUP4 DUP6 ADD MSTORE DUP10 DUP3 AND PUSH1 0x60 DUP5 ADD MSTORE PUSH4 0x1000000 DUP6 DIV DUP3 AND PUSH1 0x80 DUP5 ADD MSTORE DUP9 DUP3 AND PUSH1 0xA0 DUP5 ADD MSTORE PUSH3 0x10000 DUP6 DIV DUP3 AND PUSH1 0xC0 DUP5 ADD MSTORE DUP8 DUP3 AND PUSH1 0xE0 DUP5 ADD MSTORE PUSH5 0x100000000 SWAP1 SWAP5 DIV DUP2 AND SWAP4 DUP3 ADD SWAP4 SWAP1 SWAP4 MSTORE SWAP2 DUP5 AND PUSH2 0x120 DUP4 ADD MSTORE MLOAD PUSH32 0x8F37FC6AFA33AAE90A14FDC164EC931DC905AC72F6D86603BAFF1F9C411DAFE3 SWAP2 DUP2 SWAP1 SUB PUSH2 0x140 ADD SWAP1 LOG1 PUSH1 0xE DUP1 SLOAD PUSH1 0xFF SWAP4 DUP5 AND PUSH5 0x100000000 MUL PUSH5 0xFF00000000 NOT SWAP6 DUP6 AND PUSH3 0x10000 MUL PUSH3 0xFF0000 NOT SWAP8 DUP7 AND PUSH4 0x1000000 MUL SWAP8 SWAP1 SWAP8 AND PUSH4 0xFFFF0000 NOT SWAP9 DUP7 AND PUSH2 0x100 MUL PUSH2 0xFFFF NOT SWAP1 SWAP4 AND SWAP6 SWAP1 SWAP10 AND SWAP5 SWAP1 SWAP5 OR OR SWAP6 SWAP1 SWAP6 AND SWAP6 SWAP1 SWAP6 OR SWAP3 SWAP1 SWAP3 OR AND OR SWAP1 SSTORE PUSH1 0xF SSTORE JUMP JUMPDEST PUSH1 0x0 SLOAD PUSH1 0x1 PUSH1 0x1 PUSH1 0xA0 SHL SUB AND CALLER EQ PUSH2 0x15CB JUMPI PUSH1 0x40 MLOAD PUSH3 0x461BCD PUSH1 0xE5 SHL DUP2 MSTORE PUSH1 0x4 ADD PUSH2 0xAE3 SWAP1 PUSH2 0x27DD JUMP JUMPDEST PUSH1 0x1 PUSH1 0x1 PUSH1 0xA0 SHL SUB DUP2 AND PUSH1 0x0 DUP2 DUP2 MSTORE PUSH1 0x9 PUSH1 0x20 MSTORE PUSH1 0x40 DUP1 DUP3 KECCAK256 DUP1 SLOAD PUSH1 0xFF NOT AND SWAP1 SSTORE MLOAD PUSH32 0x78CE087DB51D01D3E32355F2D83455D5A39F99194C8D3D1C2614893695CEE442 SWAP2 SWAP1 LOG2 POP JUMP JUMPDEST PUSH1 0x0 SLOAD PUSH1 0x1 PUSH1 0x1 PUSH1 0xA0 SHL SUB AND CALLER EQ PUSH2 0x163E JUMPI PUSH1 0x40 MLOAD PUSH3 0x461BCD PUSH1 0xE5 SHL DUP2 MSTORE PUSH1 0x4 ADD PUSH2 0xAE3 SWAP1 PUSH2 0x27DD JUMP JUMPDEST PUSH1 0x1 PUSH1 0x1 PUSH1 0xA0 SHL SUB DUP2 AND PUSH2 0x16A3 JUMPI PUSH1 0x40 MLOAD PUSH3 0x461BCD PUSH1 0xE5 SHL DUP2 MSTORE PUSH1 0x20 PUSH1 0x4 DUP3 ADD MSTORE PUSH1 0x26 PUSH1 0x24 DUP3 ADD MSTORE PUSH32 0x4F776E61626C653A206E6577206F776E657220697320746865207A65726F2061 PUSH1 0x44 DUP3 ADD MSTORE PUSH6 0x646472657373 PUSH1 0xD0 SHL PUSH1 0x64 DUP3 ADD MSTORE PUSH1 0x84 ADD PUSH2 0xAE3 JUMP JUMPDEST PUSH1 0x0 DUP1 SLOAD PUSH1 0x40 MLOAD PUSH1 0x1 PUSH1 0x1 PUSH1 0xA0 SHL SUB DUP1 DUP6 AND SWAP4 SWAP3 AND SWAP2 PUSH32 0x8BE0079C531659141344CD1FD0A4F28419497F9722A3DAAFE3B4186F6B6457E0 SWAP2 LOG3 PUSH1 0x0 DUP1 SLOAD PUSH1 0x1 PUSH1 0x1 PUSH1 0xA0 SHL SUB NOT AND PUSH1 0x1 PUSH1 0x1 PUSH1 0xA0 SHL SUB SWAP3 SWAP1 SWAP3 AND SWAP2 SWAP1 SWAP2 OR SWAP1 SSTORE JUMP JUMPDEST PUSH1 0x0 DUP1 PUSH2 0x170B DUP4 DUP6 PUSH2 0x2868 JUMP JUMPDEST SWAP1 POP DUP4 DUP2 LT ISZERO PUSH2 0xB02 JUMPI PUSH1 0x40 MLOAD PUSH3 0x461BCD PUSH1 0xE5 SHL DUP2 MSTORE PUSH1 0x20 PUSH1 0x4 DUP3 ADD MSTORE PUSH1 0x1B PUSH1 0x24 DUP3 ADD MSTORE PUSH32 0x536166654D6174683A206164646974696F6E206F766572666C6F770000000000 PUSH1 0x44 DUP3 ADD MSTORE PUSH1 0x64 ADD PUSH2 0xAE3 JUMP JUMPDEST PUSH1 0x0 PUSH2 0xB02 DUP4 DUP4 PUSH1 0x40 MLOAD DUP1 PUSH1 0x40 ADD PUSH1 0x40 MSTORE DUP1 PUSH1 0x1A DUP2 MSTORE PUSH1 0x20 ADD PUSH32 0x536166654D6174683A206469766973696F6E206279207A65726F000000000000 DUP2 MSTORE POP PUSH2 0x1ECF JUMP JUMPDEST PUSH1 0x0 PUSH2 0xB02 DUP4 DUP4 PUSH1 0x40 MLOAD DUP1 PUSH1 0x40 ADD PUSH1 0x40 MSTORE DUP1 PUSH1 0x1E DUP2 MSTORE PUSH1 0x20 ADD PUSH32 0x536166654D6174683A207375627472616374696F6E206F766572666C6F770000 DUP2 MSTORE POP PUSH2 0x199F JUMP JUMPDEST PUSH1 0x0 DUP3 PUSH2 0x17F0 JUMPI POP PUSH1 0x0 PUSH2 0x9DD JUMP JUMPDEST PUSH1 0x0 PUSH2 0x17FC DUP4 DUP6 PUSH2 0x298E JUMP JUMPDEST SWAP1 POP DUP3 PUSH2 0x1809 DUP6 DUP4 PUSH2 0x2880 JUMP JUMPDEST EQ PUSH2 0xB02 JUMPI PUSH1 0x40 MLOAD PUSH3 0x461BCD PUSH1 0xE5 SHL DUP2 MSTORE PUSH1 0x20 PUSH1 0x4 DUP3 ADD MSTORE PUSH1 0x21 PUSH1 0x24 DUP3 ADD MSTORE PUSH32 0x536166654D6174683A206D756C7469706C69636174696F6E206F766572666C6F PUSH1 0x44 DUP3 ADD MSTORE PUSH1 0x77 PUSH1 0xF8 SHL PUSH1 0x64 DUP3 ADD MSTORE PUSH1 0x84 ADD PUSH2 0xAE3 JUMP JUMPDEST PUSH1 0x1 PUSH1 0x1 PUSH1 0xA0 SHL SUB DUP4 AND PUSH2 0x18D3 JUMPI PUSH1 0x40 MLOAD PUSH3 0x461BCD PUSH1 0xE5 SHL DUP2 MSTORE PUSH1 0x20 PUSH1 0x4 DUP3 ADD MSTORE PUSH1 0x34 PUSH1 0x24 DUP3 ADD MSTORE PUSH32 0x4D696E6F72697479546F6B656E3A203A2063616E277420617070726F76652066 PUSH1 0x44 DUP3 ADD MSTORE PUSH20 0x726F6D20746865207A65726F2061646472657373 PUSH1 0x60 SHL PUSH1 0x64 DUP3 ADD MSTORE PUSH1 0x84 ADD PUSH2 0xAE3 JUMP JUMPDEST PUSH1 0x1 PUSH1 0x1 PUSH1 0xA0 SHL SUB DUP3 AND PUSH2 0x193E JUMPI PUSH1 0x40 MLOAD PUSH3 0x461BCD PUSH1 0xE5 SHL DUP2 MSTORE PUSH1 0x20 PUSH1 0x4 DUP3 ADD MSTORE PUSH1 0x2C PUSH1 0x24 DUP3 ADD MSTORE PUSH32 0x4D696E6F72697479546F6B656E3A203A20617070726F766520746F2074686520 PUSH1 0x44 DUP3 ADD MSTORE PUSH12 0x7A65726F2061646472657373 PUSH1 0xA0 SHL PUSH1 0x64 DUP3 ADD MSTORE PUSH1 0x84 ADD PUSH2 0xAE3 JUMP JUMPDEST PUSH1 0x1 PUSH1 0x1 PUSH1 0xA0 SHL SUB DUP4 DUP2 AND PUSH1 0x0 DUP2 DUP2 MSTORE PUSH1 0x8 PUSH1 0x20 SWAP1 DUP2 MSTORE PUSH1 0x40 DUP1 DUP4 KECCAK256 SWAP5 DUP8 AND DUP1 DUP5 MSTORE SWAP5 DUP3 MSTORE SWAP2 DUP3 SWAP1 KECCAK256 DUP6 SWAP1 SSTORE SWAP1 MLOAD DUP5 DUP2 MSTORE PUSH32 0x8C5BE1E5EBEC7D5BD14F71427D1E84F3DD0314C0F7B2291E5B200AC8C7C3B925 SWAP2 ADD PUSH1 0x40 MLOAD DUP1 SWAP2 SUB SWAP1 LOG3 POP POP POP JUMP JUMPDEST PUSH1 0x0 DUP2 DUP5 DUP5 GT ISZERO PUSH2 0x19C3 JUMPI PUSH1 0x40 MLOAD PUSH3 0x461BCD PUSH1 0xE5 SHL DUP2 MSTORE PUSH1 0x4 ADD PUSH2 0xAE3 SWAP2 SWAP1 PUSH2 0x278A JUMP JUMPDEST POP PUSH1 0x0 PUSH2 0x19D0 DUP5 DUP7 PUSH2 0x29AD JUMP JUMPDEST SWAP6 SWAP5 POP POP POP POP POP JUMP JUMPDEST PUSH1 0x1 PUSH1 0x1 PUSH1 0xA0 SHL SUB DUP4 AND PUSH2 0x1A45 JUMPI PUSH1 0x40 MLOAD PUSH3 0x461BCD PUSH1 0xE5 SHL DUP2 MSTORE PUSH1 0x20 PUSH1 0x4 DUP3 ADD MSTORE PUSH1 0x2D PUSH1 0x24 DUP3 ADD MSTORE PUSH32 0x4D696E6F72697479546F6B656E3A207472616E736665722066726F6D20746865 PUSH1 0x44 DUP3 ADD MSTORE PUSH13 0x207A65726F2061646472657373 PUSH1 0x98 SHL PUSH1 0x64 DUP3 ADD MSTORE PUSH1 0x84 ADD PUSH2 0xAE3 JUMP JUMPDEST PUSH1 0x1 PUSH1 0x1 PUSH1 0xA0 SHL SUB DUP3 AND PUSH2 0x1AAF JUMPI PUSH1 0x40 MLOAD PUSH3 0x461BCD PUSH1 0xE5 SHL DUP2 MSTORE PUSH1 0x20 PUSH1 0x4 DUP3 ADD MSTORE PUSH1 0x2B PUSH1 0x24 DUP3 ADD MSTORE PUSH32 0x4D696E6F72697479546F6B656E3A207472616E7366657220746F20746865207A PUSH1 0x44 DUP3 ADD MSTORE PUSH11 0x65726F2061646472657373 PUSH1 0xA8 SHL PUSH1 0x64 DUP3 ADD MSTORE PUSH1 0x84 ADD PUSH2 0xAE3 JUMP JUMPDEST PUSH1 0x0 DUP2 GT PUSH2 0x1B25 JUMPI PUSH1 0x40 MLOAD PUSH3 0x461BCD PUSH1 0xE5 SHL DUP2 MSTORE PUSH1 0x20 PUSH1 0x4 DUP3 ADD MSTORE PUSH1 0x38 PUSH1 0x24 DUP3 ADD MSTORE PUSH32 0x4D696E6F72697479546F6B656E3A205472616E7366657220616D6F756E74206D PUSH1 0x44 DUP3 ADD MSTORE PUSH32 0x7573742062652067726561746572207468616E207A65726F0000000000000000 PUSH1 0x64 DUP3 ADD MSTORE PUSH1 0x84 ADD PUSH2 0xAE3 JUMP JUMPDEST PUSH1 0x0 SLOAD PUSH1 0x1 PUSH1 0x1 PUSH1 0xA0 SHL SUB DUP5 DUP2 AND SWAP2 AND EQ DUP1 ISZERO SWAP1 PUSH2 0x1B51 JUMPI POP PUSH1 0x0 SLOAD PUSH1 0x1 PUSH1 0x1 PUSH1 0xA0 SHL SUB DUP4 DUP2 AND SWAP2 AND EQ ISZERO JUMPDEST ISZERO PUSH2 0x1BCE JUMPI PUSH1 0x17 SLOAD DUP2 GT ISZERO PUSH2 0x1BCE JUMPI PUSH1 0x40 MLOAD PUSH3 0x461BCD PUSH1 0xE5 SHL DUP2 MSTORE PUSH1 0x20 PUSH1 0x4 DUP3 ADD MSTORE PUSH1 0x38 PUSH1 0x24 DUP3 ADD MSTORE PUSH32 0x4D696E6F72697479546F6B656E3A205472616E7366657220616D6F756E742065 PUSH1 0x44 DUP3 ADD MSTORE PUSH32 0x78636565647320746865205F6D61785478416D6F756E742E0000000000000000 PUSH1 0x64 DUP3 ADD MSTORE PUSH1 0x84 ADD PUSH2 0xAE3 JUMP JUMPDEST PUSH1 0x3 SLOAD PUSH1 0x0 SWAP1 PUSH2 0x1BE6 SWAP1 PUSH1 0x1 PUSH1 0x1 PUSH1 0xA0 SHL SUB AND PUSH2 0x108C JUMP JUMPDEST SWAP1 POP PUSH1 0x17 SLOAD DUP2 LT PUSH2 0x1BF6 JUMPI POP PUSH1 0x17 SLOAD JUMPDEST PUSH2 0x1C02 PUSH1 0x12 PUSH1 0xA PUSH2 0x28E3 JUMP JUMPDEST PUSH2 0x1C0D SWAP1 PUSH1 0xC8 PUSH2 0x298E JUMP JUMPDEST DUP2 LT ISZERO DUP1 ISZERO PUSH2 0x1C9F JUMPI POP PUSH1 0x3 PUSH1 0x0 SWAP1 SLOAD SWAP1 PUSH2 0x100 EXP SWAP1 DIV PUSH1 0x1 PUSH1 0x1 PUSH1 0xA0 SHL SUB AND PUSH1 0x1 PUSH1 0x1 PUSH1 0xA0 SHL SUB AND PUSH4 0x2AE56454 PUSH1 0x40 MLOAD DUP2 PUSH4 0xFFFFFFFF AND PUSH1 0xE0 SHL DUP2 MSTORE PUSH1 0x4 ADD PUSH1 0x20 PUSH1 0x40 MLOAD DUP1 DUP4 SUB DUP2 DUP7 DUP1 EXTCODESIZE ISZERO DUP1 ISZERO PUSH2 0x1C65 JUMPI PUSH1 0x0 DUP1 REVERT JUMPDEST POP GAS STATICCALL ISZERO DUP1 ISZERO PUSH2 0x1C79 JUMPI RETURNDATASIZE PUSH1 0x0 DUP1 RETURNDATACOPY RETURNDATASIZE PUSH1 0x0 REVERT JUMPDEST POP POP POP POP PUSH1 0x40 MLOAD RETURNDATASIZE PUSH1 0x1F NOT PUSH1 0x1F DUP3 ADD AND DUP3 ADD DUP1 PUSH1 0x40 MSTORE POP DUP2 ADD SWAP1 PUSH2 0x1C9D SWAP2 SWAP1 PUSH2 0x2696 JUMP JUMPDEST ISZERO JUMPDEST DUP1 ISZERO PUSH2 0x1CB9 JUMPI POP PUSH1 0x16 SLOAD PUSH1 0x1 PUSH1 0x1 PUSH1 0xA0 SHL SUB DUP6 DUP2 AND SWAP2 AND EQ ISZERO JUMPDEST DUP1 ISZERO PUSH2 0x1CCE JUMPI POP PUSH1 0x16 SLOAD PUSH1 0x1 PUSH1 0xA0 SHL SWAP1 DIV PUSH1 0xFF AND JUMPDEST ISZERO PUSH2 0x1DA7 JUMPI PUSH1 0x3 SLOAD PUSH1 0x40 MLOAD PUSH4 0x173865AD PUSH1 0xE0 SHL DUP2 MSTORE PUSH1 0x4 DUP2 ADD DUP4 SWAP1 MSTORE PUSH1 0x0 SWAP2 DUP3 SWAP2 DUP3 SWAP2 PUSH1 0x1 PUSH1 0x1 PUSH1 0xA0 SHL SUB AND SWAP1 PUSH4 0x173865AD SWAP1 PUSH1 0x24 ADD PUSH1 0x60 PUSH1 0x40 MLOAD DUP1 DUP4 SUB DUP2 PUSH1 0x0 DUP8 DUP1 EXTCODESIZE ISZERO DUP1 ISZERO PUSH2 0x1D1E JUMPI PUSH1 0x0 DUP1 REVERT JUMPDEST POP GAS CALL ISZERO DUP1 ISZERO PUSH2 0x1D32 JUMPI RETURNDATASIZE PUSH1 0x0 DUP1 RETURNDATACOPY RETURNDATASIZE PUSH1 0x0 REVERT JUMPDEST POP POP POP POP PUSH1 0x40 MLOAD RETURNDATASIZE PUSH1 0x1F NOT PUSH1 0x1F DUP3 ADD AND DUP3 ADD DUP1 PUSH1 0x40 MSTORE POP DUP2 ADD SWAP1 PUSH2 0x1D56 SWAP2 SWAP1 PUSH2 0x26F9 JUMP JUMPDEST PUSH1 0x40 DUP1 MLOAD DUP5 DUP2 MSTORE PUSH1 0x20 DUP2 ADD DUP5 SWAP1 MSTORE SWAP1 DUP2 ADD DUP3 SWAP1 MSTORE SWAP3 SWAP6 POP SWAP1 SWAP4 POP SWAP2 POP PUSH32 0x17BBFB9A6069321B6DED73BD96327C9E6B7212A5CD51FF219CD61370ACAFB561 SWAP1 PUSH1 0x60 ADD PUSH1 0x40 MLOAD DUP1 SWAP2 SUB SWAP1 LOG1 POP POP POP PUSH2 0x1E03 JUMP JUMPDEST PUSH1 0x4 DUP1 SLOAD PUSH1 0x40 DUP1 MLOAD PUSH4 0x8ADC760D PUSH1 0xE0 SHL DUP2 MSTORE SWAP1 MLOAD PUSH1 0x1 PUSH1 0x1 PUSH1 0xA0 SHL SUB SWAP1 SWAP3 AND SWAP3 PUSH4 0x8ADC760D SWAP3 DUP3 DUP3 ADD SWAP3 PUSH1 0x0 SWAP3 SWAP1 DUP3 SWAP1 SUB ADD DUP2 DUP4 DUP8 DUP1 EXTCODESIZE ISZERO DUP1 ISZERO PUSH2 0x1DEA JUMPI PUSH1 0x0 DUP1 REVERT JUMPDEST POP GAS CALL ISZERO DUP1 ISZERO PUSH2 0x1DFE JUMPI RETURNDATASIZE PUSH1 0x0 DUP1 RETURNDATACOPY RETURNDATASIZE PUSH1 0x0 REVERT JUMPDEST POP POP POP POP JUMPDEST PUSH1 0x1 PUSH1 0x1 PUSH1 0xA0 SHL SUB DUP5 AND PUSH1 0x0 SWAP1 DUP2 MSTORE PUSH1 0x9 PUSH1 0x20 MSTORE PUSH1 0x40 SWAP1 KECCAK256 SLOAD PUSH1 0x1 SWAP1 PUSH1 0xFF AND DUP1 PUSH2 0x1E45 JUMPI POP PUSH1 0x1 PUSH1 0x1 PUSH1 0xA0 SHL SUB DUP5 AND PUSH1 0x0 SWAP1 DUP2 MSTORE PUSH1 0x9 PUSH1 0x20 MSTORE PUSH1 0x40 SWAP1 KECCAK256 SLOAD PUSH1 0xFF AND JUMPDEST ISZERO PUSH2 0x1E4E JUMPI POP PUSH1 0x0 JUMPDEST PUSH2 0x1E5A DUP6 DUP6 DUP6 DUP5 PUSH2 0x1EFD JUMP JUMPDEST POP POP POP POP POP JUMP JUMPDEST PUSH1 0x0 DUP1 PUSH1 0x0 PUSH2 0x1E6E PUSH2 0x20D4 JUMP JUMPDEST SWAP1 SWAP3 POP SWAP1 POP PUSH2 0x1E7D DUP3 DUP3 PUSH2 0x175D JUMP JUMPDEST SWAP3 POP POP POP SWAP1 JUMP JUMPDEST PUSH1 0x0 DUP1 PUSH1 0x0 DUP1 PUSH1 0x0 DUP1 PUSH1 0x0 DUP1 PUSH2 0x1E99 DUP10 PUSH2 0x22EE JUMP JUMPDEST SWAP3 POP SWAP3 POP SWAP3 POP PUSH1 0x0 DUP1 PUSH1 0x0 PUSH2 0x1EB7 DUP13 DUP7 DUP7 PUSH2 0x1EB2 PUSH2 0x1E61 JUMP JUMPDEST PUSH2 0x2360 JUMP JUMPDEST SWAP2 SWAP15 SWAP1 SWAP14 POP SWAP1 SWAP12 POP SWAP6 SWAP10 POP SWAP3 SWAP8 POP SWAP4 SWAP6 POP POP POP POP POP POP JUMP JUMPDEST PUSH1 0x0 DUP2 DUP4 PUSH2 0x1EF0 JUMPI PUSH1 0x40 MLOAD PUSH3 0x461BCD PUSH1 0xE5 SHL DUP2 MSTORE PUSH1 0x4 ADD PUSH2 0xAE3 SWAP2 SWAP1 PUSH2 0x278A JUMP JUMPDEST POP PUSH1 0x0 PUSH2 0x19D0 DUP5 DUP7 PUSH2 0x2880 JUMP JUMPDEST PUSH1 0x0 DUP1 PUSH1 0x0 DUP1 PUSH1 0x0 DUP6 PUSH2 0x1F26 JUMPI PUSH2 0x1F13 DUP8 PUSH2 0x1E84 JUMP JUMPDEST POP SWAP3 SWAP8 POP DUP8 SWAP7 POP DUP10 SWAP5 POP PUSH2 0x1F3C SWAP3 POP POP POP JUMP JUMPDEST PUSH2 0x1F2F DUP8 PUSH2 0x1E84 JUMP JUMPDEST SWAP4 SWAP9 POP SWAP2 SWAP7 POP SWAP5 POP SWAP3 POP SWAP1 POP JUMPDEST PUSH1 0x1 PUSH1 0x1 PUSH1 0xA0 SHL SUB DUP10 AND PUSH1 0x0 SWAP1 DUP2 MSTORE PUSH1 0x6 PUSH1 0x20 MSTORE PUSH1 0x40 SWAP1 KECCAK256 SLOAD PUSH2 0x1F5F SWAP1 DUP7 PUSH2 0x179F JUMP JUMPDEST PUSH1 0x1 PUSH1 0x1 PUSH1 0xA0 SHL SUB DUP1 DUP12 AND PUSH1 0x0 SWAP1 DUP2 MSTORE PUSH1 0x6 PUSH1 0x20 MSTORE PUSH1 0x40 DUP1 DUP3 KECCAK256 SWAP4 SWAP1 SWAP4 SSTORE SWAP1 DUP11 AND DUP2 MSTORE KECCAK256 SLOAD PUSH2 0x1F8E SWAP1 DUP6 PUSH2 0x16FE JUMP JUMPDEST PUSH1 0x1 PUSH1 0x1 PUSH1 0xA0 SHL SUB DUP1 DUP11 AND PUSH1 0x0 SWAP1 DUP2 MSTORE PUSH1 0x6 PUSH1 0x20 SWAP1 DUP2 MSTORE PUSH1 0x40 DUP1 DUP4 KECCAK256 SWAP5 SWAP1 SWAP5 SSTORE SWAP2 DUP13 AND DUP2 MSTORE PUSH1 0xA SWAP1 SWAP2 MSTORE KECCAK256 SLOAD PUSH1 0xFF AND ISZERO PUSH2 0x1FFF JUMPI PUSH1 0x1 PUSH1 0x1 PUSH1 0xA0 SHL SUB DUP10 AND PUSH1 0x0 SWAP1 DUP2 MSTORE PUSH1 0x7 PUSH1 0x20 MSTORE PUSH1 0x40 SWAP1 KECCAK256 SLOAD PUSH2 0x1FE5 SWAP1 DUP9 PUSH2 0x179F JUMP JUMPDEST PUSH1 0x1 PUSH1 0x1 PUSH1 0xA0 SHL SUB DUP11 AND PUSH1 0x0 SWAP1 DUP2 MSTORE PUSH1 0x7 PUSH1 0x20 MSTORE PUSH1 0x40 SWAP1 KECCAK256 SSTORE JUMPDEST PUSH1 0x1 PUSH1 0x1 PUSH1 0xA0 SHL SUB DUP9 AND PUSH1 0x0 SWAP1 DUP2 MSTORE PUSH1 0xA PUSH1 0x20 MSTORE PUSH1 0x40 SWAP1 KECCAK256 SLOAD PUSH1 0xFF AND ISZERO PUSH2 0x205D JUMPI PUSH1 0x1 PUSH1 0x1 PUSH1 0xA0 SHL SUB DUP9 AND PUSH1 0x0 SWAP1 DUP2 MSTORE PUSH1 0x7 PUSH1 0x20 MSTORE PUSH1 0x40 SWAP1 KECCAK256 SLOAD PUSH2 0x2043 SWAP1 DUP4 PUSH2 0x16FE JUMP JUMPDEST PUSH1 0x1 PUSH1 0x1 PUSH1 0xA0 SHL SUB DUP10 AND PUSH1 0x0 SWAP1 DUP2 MSTORE PUSH1 0x7 PUSH1 0x20 MSTORE PUSH1 0x40 SWAP1 KECCAK256 SSTORE JUMPDEST DUP1 ISZERO PUSH2 0x206D JUMPI PUSH2 0x206D DUP2 DUP11 PUSH2 0x23B0 JUMP JUMPDEST DUP3 ISZERO PUSH2 0x207C JUMPI PUSH2 0x207C DUP4 PUSH2 0x2493 JUMP JUMPDEST DUP8 PUSH1 0x1 PUSH1 0x1 PUSH1 0xA0 SHL SUB AND DUP10 PUSH1 0x1 PUSH1 0x1 PUSH1 0xA0 SHL SUB AND PUSH32 0xDDF252AD1BE2C89B69C2B068FC378DAA952BA7F163C4A11628F55A4DF523B3EF DUP5 PUSH1 0x40 MLOAD PUSH2 0x20C1 SWAP2 DUP2 MSTORE PUSH1 0x20 ADD SWAP1 JUMP JUMPDEST PUSH1 0x40 MLOAD DUP1 SWAP2 SUB SWAP1 LOG3 POP POP POP POP POP POP POP POP POP JUMP JUMPDEST PUSH1 0xC SLOAD PUSH1 0x0 SWAP1 DUP2 SWAP1 DUP2 PUSH2 0x20E9 PUSH1 0x12 PUSH1 0xA PUSH2 0x28E3 JUMP JUMPDEST PUSH2 0x20F7 SWAP1 PUSH4 0x77359400 PUSH2 0x298E JUMP JUMPDEST SWAP1 POP PUSH1 0x0 JUMPDEST PUSH1 0xB SLOAD DUP2 LT ISZERO PUSH2 0x2290 JUMPI DUP3 PUSH1 0x6 PUSH1 0x0 PUSH1 0xB DUP5 DUP2 SLOAD DUP2 LT PUSH2 0x212C JUMPI PUSH4 0x4E487B71 PUSH1 0xE0 SHL PUSH1 0x0 MSTORE PUSH1 0x32 PUSH1 0x4 MSTORE PUSH1 0x24 PUSH1 0x0 REVERT JUMPDEST PUSH1 0x0 SWAP2 DUP3 MSTORE PUSH1 0x20 DUP1 DUP4 KECCAK256 SWAP1 SWAP2 ADD SLOAD PUSH1 0x1 PUSH1 0x1 PUSH1 0xA0 SHL SUB AND DUP4 MSTORE DUP3 ADD SWAP3 SWAP1 SWAP3 MSTORE PUSH1 0x40 ADD SWAP1 KECCAK256 SLOAD GT DUP1 PUSH2 0x21A5 JUMPI POP DUP2 PUSH1 0x7 PUSH1 0x0 PUSH1 0xB DUP5 DUP2 SLOAD DUP2 LT PUSH2 0x217E JUMPI PUSH4 0x4E487B71 PUSH1 0xE0 SHL PUSH1 0x0 MSTORE PUSH1 0x32 PUSH1 0x4 MSTORE PUSH1 0x24 PUSH1 0x0 REVERT JUMPDEST PUSH1 0x0 SWAP2 DUP3 MSTORE PUSH1 0x20 DUP1 DUP4 KECCAK256 SWAP1 SWAP2 ADD SLOAD PUSH1 0x1 PUSH1 0x1 PUSH1 0xA0 SHL SUB AND DUP4 MSTORE DUP3 ADD SWAP3 SWAP1 SWAP3 MSTORE PUSH1 0x40 ADD SWAP1 KECCAK256 SLOAD GT JUMPDEST ISZERO PUSH2 0x21D2 JUMPI PUSH1 0xC SLOAD PUSH2 0x21B9 PUSH1 0x12 PUSH1 0xA PUSH2 0x28E3 JUMP JUMPDEST PUSH2 0x21C7 SWAP1 PUSH4 0x77359400 PUSH2 0x298E JUMP JUMPDEST SWAP5 POP SWAP5 POP POP POP POP SWAP1 SWAP2 JUMP JUMPDEST PUSH2 0x2226 PUSH1 0x6 PUSH1 0x0 PUSH1 0xB DUP5 DUP2 SLOAD DUP2 LT PUSH2 0x21FA JUMPI PUSH4 0x4E487B71 PUSH1 0xE0 SHL PUSH1 0x0 MSTORE PUSH1 0x32 PUSH1 0x4 MSTORE PUSH1 0x24 PUSH1 0x0 REVERT JUMPDEST PUSH1 0x0 SWAP2 DUP3 MSTORE PUSH1 0x20 DUP1 DUP4 KECCAK256 SWAP1 SWAP2 ADD SLOAD PUSH1 0x1 PUSH1 0x1 PUSH1 0xA0 SHL SUB AND DUP4 MSTORE DUP3 ADD SWAP3 SWAP1 SWAP3 MSTORE PUSH1 0x40 ADD SWAP1 KECCAK256 SLOAD DUP5 SWAP1 PUSH2 0x179F JUMP JUMPDEST SWAP3 POP PUSH2 0x227C PUSH1 0x7 PUSH1 0x0 PUSH1 0xB DUP5 DUP2 SLOAD DUP2 LT PUSH2 0x2250 JUMPI PUSH4 0x4E487B71 PUSH1 0xE0 SHL PUSH1 0x0 MSTORE PUSH1 0x32 PUSH1 0x4 MSTORE PUSH1 0x24 PUSH1 0x0 REVERT JUMPDEST PUSH1 0x0 SWAP2 DUP3 MSTORE PUSH1 0x20 DUP1 DUP4 KECCAK256 SWAP1 SWAP2 ADD SLOAD PUSH1 0x1 PUSH1 0x1 PUSH1 0xA0 SHL SUB AND DUP4 MSTORE DUP3 ADD SWAP3 SWAP1 SWAP3 MSTORE PUSH1 0x40 ADD SWAP1 KECCAK256 SLOAD DUP4 SWAP1 PUSH2 0x179F JUMP JUMPDEST SWAP2 POP DUP1 PUSH2 0x2288 DUP2 PUSH2 0x29C4 JUMP JUMPDEST SWAP2 POP POP PUSH2 0x20FC JUMP JUMPDEST POP PUSH2 0x22B7 PUSH2 0x22A0 PUSH1 0x12 PUSH1 0xA PUSH2 0x28E3 JUMP JUMPDEST PUSH2 0x22AE SWAP1 PUSH4 0x77359400 PUSH2 0x298E JUMP JUMPDEST PUSH1 0xC SLOAD SWAP1 PUSH2 0x175D JUMP JUMPDEST DUP3 LT ISZERO PUSH2 0x22E5 JUMPI PUSH1 0xC SLOAD PUSH2 0x22CD PUSH1 0x12 PUSH1 0xA PUSH2 0x28E3 JUMP JUMPDEST PUSH2 0x22DB SWAP1 PUSH4 0x77359400 PUSH2 0x298E JUMP JUMPDEST SWAP4 POP SWAP4 POP POP POP SWAP1 SWAP2 JUMP JUMPDEST SWAP1 SWAP4 SWAP1 SWAP3 POP SWAP1 POP JUMP JUMPDEST PUSH1 0xE SLOAD PUSH1 0x0 SWAP1 DUP2 SWAP1 DUP2 SWAP1 DUP2 SWAP1 PUSH2 0x230F SWAP1 PUSH1 0x64 SWAP1 PUSH2 0x1399 SWAP1 DUP9 SWAP1 PUSH1 0xFF AND PUSH2 0x17E1 JUMP JUMPDEST PUSH1 0xE SLOAD PUSH1 0xF SLOAD SWAP2 SWAP3 POP PUSH1 0x0 SWAP2 PUSH2 0x233A SWAP2 PUSH1 0x64 SWAP2 PUSH2 0x1399 SWAP2 PUSH2 0x2333 SWAP2 SWAP1 PUSH1 0xFF AND PUSH2 0x179F JUMP JUMPDEST DUP10 SWAP1 PUSH2 0x17E1 JUMP JUMPDEST SWAP1 POP PUSH1 0x0 PUSH2 0x2352 DUP3 PUSH2 0x234C DUP10 DUP7 PUSH2 0x179F JUMP JUMPDEST SWAP1 PUSH2 0x179F JUMP JUMPDEST SWAP8 SWAP3 SWAP7 POP SWAP1 SWAP5 POP SWAP1 SWAP3 POP POP POP JUMP JUMPDEST PUSH1 0x0 DUP1 DUP1 DUP1 PUSH2 0x236F DUP9 DUP7 PUSH2 0x17E1 JUMP JUMPDEST SWAP1 POP PUSH1 0x0 PUSH2 0x237D DUP9 DUP8 PUSH2 0x17E1 JUMP JUMPDEST SWAP1 POP PUSH1 0x0 PUSH2 0x238B DUP9 DUP9 PUSH2 0x17E1 JUMP JUMPDEST SWAP1 POP PUSH1 0x0 PUSH2 0x239D DUP3 PUSH2 0x234C DUP7 DUP7 PUSH2 0x179F JUMP JUMPDEST SWAP4 SWAP12 SWAP4 SWAP11 POP SWAP2 SWAP9 POP SWAP2 SWAP7 POP POP POP POP POP POP POP JUMP JUMPDEST PUSH1 0xE SLOAD PUSH1 0xF SLOAD PUSH1 0x0 SWAP2 PUSH2 0x23C6 SWAP2 SWAP1 PUSH1 0xFF AND PUSH2 0x179F JUMP JUMPDEST PUSH1 0xE SLOAD SWAP1 SWAP2 POP PUSH2 0x23FB SWAP1 PUSH2 0x23E9 SWAP1 DUP4 SWAP1 PUSH2 0x1399 SWAP1 DUP8 SWAP1 PUSH2 0x100 SWAP1 DIV PUSH1 0xFF AND PUSH2 0x17E1 JUMP JUMPDEST PUSH1 0x3 SLOAD PUSH1 0x1 PUSH1 0x1 PUSH1 0xA0 SHL SUB AND DUP5 PUSH2 0x24A6 JUMP JUMPDEST PUSH1 0xE SLOAD PUSH2 0x242F SWAP1 PUSH2 0x241D SWAP1 DUP4 SWAP1 PUSH2 0x1399 SWAP1 DUP8 SWAP1 PUSH4 0x1000000 SWAP1 DIV PUSH1 0xFF AND PUSH2 0x17E1 JUMP JUMPDEST PUSH1 0x10 SLOAD PUSH1 0x1 PUSH1 0x1 PUSH1 0xA0 SHL SUB AND DUP5 PUSH2 0x24A6 JUMP JUMPDEST PUSH1 0xE SLOAD PUSH2 0x2464 SWAP1 PUSH2 0x2452 SWAP1 DUP4 SWAP1 PUSH2 0x1399 SWAP1 DUP8 SWAP1 PUSH5 0x100000000 SWAP1 DIV PUSH1 0xFF AND PUSH2 0x17E1 JUMP JUMPDEST PUSH1 0x11 SLOAD PUSH1 0x1 PUSH1 0x1 PUSH1 0xA0 SHL SUB AND DUP5 PUSH2 0x24A6 JUMP JUMPDEST PUSH1 0xE SLOAD PUSH2 0x248E SWAP1 PUSH2 0x2485 SWAP1 DUP4 SWAP1 PUSH2 0x1399 SWAP1 DUP8 SWAP1 PUSH3 0x10000 SWAP1 DIV PUSH1 0xFF AND PUSH2 0x17E1 JUMP JUMPDEST PUSH2 0xDEAD DUP5 PUSH2 0x24A6 JUMP JUMPDEST POP POP POP JUMP JUMPDEST PUSH1 0xC SLOAD PUSH2 0x24A0 SWAP1 DUP3 PUSH2 0x179F JUMP JUMPDEST PUSH1 0xC SSTORE POP JUMP JUMPDEST PUSH1 0x0 PUSH2 0x24BA PUSH2 0x24B3 PUSH2 0x1E61 JUMP JUMPDEST DUP6 SWAP1 PUSH2 0x17E1 JUMP JUMPDEST PUSH1 0x1 PUSH1 0x1 PUSH1 0xA0 SHL SUB DUP5 AND PUSH1 0x0 SWAP1 DUP2 MSTORE PUSH1 0x6 PUSH1 0x20 MSTORE PUSH1 0x40 SWAP1 KECCAK256 SLOAD SWAP1 SWAP2 POP PUSH2 0x24E0 SWAP1 DUP3 PUSH2 0x16FE JUMP JUMPDEST PUSH1 0x1 PUSH1 0x1 PUSH1 0xA0 SHL SUB DUP5 AND PUSH1 0x0 SWAP1 DUP2 MSTORE PUSH1 0x6 PUSH1 0x20 SWAP1 DUP2 MSTORE PUSH1 0x40 DUP1 DUP4 KECCAK256 SWAP4 SWAP1 SWAP4 SSTORE PUSH1 0xA SWAP1 MSTORE KECCAK256 SLOAD PUSH1 0xFF AND ISZERO PUSH2 0x254A JUMPI PUSH1 0x1 PUSH1 0x1 PUSH1 0xA0 SHL SUB DUP4 AND PUSH1 0x0 SWAP1 DUP2 MSTORE PUSH1 0x7 PUSH1 0x20 MSTORE PUSH1 0x40 SWAP1 KECCAK256 SLOAD PUSH2 0x2530 SWAP1 DUP6 PUSH2 0x16FE JUMP JUMPDEST PUSH1 0x1 PUSH1 0x1 PUSH1 0xA0 SHL SUB DUP5 AND PUSH1 0x0 SWAP1 DUP2 MSTORE PUSH1 0x7 PUSH1 0x20 MSTORE PUSH1 0x40 SWAP1 KECCAK256 SSTORE JUMPDEST DUP3 PUSH1 0x1 PUSH1 0x1 PUSH1 0xA0 SHL SUB AND DUP3 PUSH1 0x1 PUSH1 0x1 PUSH1 0xA0 SHL SUB AND PUSH32 0xDDF252AD1BE2C89B69C2B068FC378DAA952BA7F163C4A11628F55A4DF523B3EF DUP7 PUSH1 0x40 MLOAD PUSH2 0x258F SWAP2 DUP2 MSTORE PUSH1 0x20 ADD SWAP1 JUMP JUMPDEST PUSH1 0x40 MLOAD DUP1 SWAP2 SUB SWAP1 LOG3 POP POP POP POP JUMP JUMPDEST DUP1 CALLDATALOAD PUSH1 0x1 PUSH1 0x1 PUSH1 0xA0 SHL SUB DUP2 AND DUP2 EQ PUSH2 0x25B4 JUMPI PUSH1 0x0 DUP1 REVERT JUMPDEST SWAP2 SWAP1 POP JUMP JUMPDEST DUP1 CALLDATALOAD PUSH1 0xFF DUP2 AND DUP2 EQ PUSH2 0x25B4 JUMPI PUSH1 0x0 DUP1 REVERT JUMPDEST PUSH1 0x0 PUSH1 0x20 DUP3 DUP5 SUB SLT ISZERO PUSH2 0x25DB JUMPI DUP1 DUP2 REVERT JUMPDEST PUSH2 0xB02 DUP3 PUSH2 0x259D JUMP JUMPDEST PUSH1 0x0 DUP1 PUSH1 0x40 DUP4 DUP6 SUB SLT ISZERO PUSH2 0x25F6 JUMPI DUP1 DUP2 REVERT JUMPDEST PUSH2 0x25FF DUP4 PUSH2 0x259D JUMP JUMPDEST SWAP2 POP PUSH2 0x260D PUSH1 0x20 DUP5 ADD PUSH2 0x259D JUMP JUMPDEST SWAP1 POP SWAP3 POP SWAP3 SWAP1 POP JUMP JUMPDEST PUSH1 0x0 DUP1 PUSH1 0x0 PUSH1 0x60 DUP5 DUP7 SUB SLT ISZERO PUSH2 0x262A JUMPI DUP1 DUP2 REVERT JUMPDEST PUSH2 0x2633 DUP5 PUSH2 0x259D JUMP JUMPDEST SWAP3 POP PUSH2 0x2641 PUSH1 0x20 DUP6 ADD PUSH2 0x259D JUMP JUMPDEST SWAP2 POP PUSH1 0x40 DUP5 ADD CALLDATALOAD SWAP1 POP SWAP3 POP SWAP3 POP SWAP3 JUMP JUMPDEST PUSH1 0x0 DUP1 PUSH1 0x40 DUP4 DUP6 SUB SLT ISZERO PUSH2 0x2663 JUMPI DUP2 DUP3 REVERT JUMPDEST PUSH2 0x266C DUP4 PUSH2 0x259D JUMP JUMPDEST SWAP5 PUSH1 0x20 SWAP4 SWAP1 SWAP4 ADD CALLDATALOAD SWAP4 POP POP POP JUMP JUMPDEST PUSH1 0x0 PUSH1 0x20 DUP3 DUP5 SUB SLT ISZERO PUSH2 0x268B JUMPI DUP1 DUP2 REVERT JUMPDEST DUP2 CALLDATALOAD PUSH2 0xB02 DUP2 PUSH2 0x29F5 JUMP JUMPDEST PUSH1 0x0 PUSH1 0x20 DUP3 DUP5 SUB SLT ISZERO PUSH2 0x26A7 JUMPI DUP1 DUP2 REVERT JUMPDEST DUP2 MLOAD PUSH2 0xB02 DUP2 PUSH2 0x29F5 JUMP JUMPDEST PUSH1 0x0 PUSH1 0x20 DUP3 DUP5 SUB SLT ISZERO PUSH2 0x26C3 JUMPI DUP1 DUP2 REVERT JUMPDEST POP CALLDATALOAD SWAP2 SWAP1 POP JUMP JUMPDEST PUSH1 0x0 DUP1 PUSH1 0x40 DUP4 DUP6 SUB SLT ISZERO PUSH2 0x26DC JUMPI DUP2 DUP3 REVERT JUMPDEST DUP3 CALLDATALOAD SWAP2 POP PUSH1 0x20 DUP4 ADD CALLDATALOAD PUSH2 0x26EE DUP2 PUSH2 0x29F5 JUMP JUMPDEST DUP1 SWAP2 POP POP SWAP3 POP SWAP3 SWAP1 POP JUMP JUMPDEST PUSH1 0x0 DUP1 PUSH1 0x0 PUSH1 0x60 DUP5 DUP7 SUB SLT ISZERO PUSH2 0x270D JUMPI DUP3 DUP4 REVERT JUMPDEST DUP4 MLOAD SWAP3 POP PUSH1 0x20 DUP5 ADD MLOAD SWAP2 POP PUSH1 0x40 DUP5 ADD MLOAD SWAP1 POP SWAP3 POP SWAP3 POP SWAP3 JUMP JUMPDEST PUSH1 0x0 DUP1 PUSH1 0x0 DUP1 PUSH1 0x0 PUSH1 0xA0 DUP7 DUP9 SUB SLT ISZERO PUSH2 0x273D JUMPI DUP1 DUP2 REVERT JUMPDEST PUSH2 0x2746 DUP7 PUSH2 0x25B9 JUMP JUMPDEST SWAP5 POP PUSH2 0x2754 PUSH1 0x20 DUP8 ADD PUSH2 0x25B9 JUMP JUMPDEST SWAP4 POP PUSH2 0x2762 PUSH1 0x40 DUP8 ADD PUSH2 0x25B9 JUMP JUMPDEST SWAP3 POP PUSH2 0x2770 PUSH1 0x60 DUP8 ADD PUSH2 0x25B9 JUMP JUMPDEST SWAP2 POP PUSH2 0x277E PUSH1 0x80 DUP8 ADD PUSH2 0x25B9 JUMP JUMPDEST SWAP1 POP SWAP3 SWAP6 POP SWAP3 SWAP6 SWAP1 SWAP4 POP JUMP JUMPDEST PUSH1 0x0 PUSH1 0x20 DUP1 DUP4 MSTORE DUP4 MLOAD DUP1 DUP3 DUP6 ADD MSTORE DUP3 JUMPDEST DUP2 DUP2 LT ISZERO PUSH2 0x27B6 JUMPI DUP6 DUP2 ADD DUP4 ADD MLOAD DUP6 DUP3 ADD PUSH1 0x40 ADD MSTORE DUP3 ADD PUSH2 0x279A JUMP JUMPDEST DUP2 DUP2 GT ISZERO PUSH2 0x27C7 JUMPI DUP4 PUSH1 0x40 DUP4 DUP8 ADD ADD MSTORE JUMPDEST POP PUSH1 0x1F ADD PUSH1 0x1F NOT AND SWAP3 SWAP1 SWAP3 ADD PUSH1 0x40 ADD SWAP4 SWAP3 POP POP POP JUMP JUMPDEST PUSH1 0x20 DUP1 DUP3 MSTORE DUP2 DUP2 ADD MSTORE PUSH32 0x4F776E61626C653A2063616C6C6572206973206E6F7420746865206F776E6572 PUSH1 0x40 DUP3 ADD MSTORE PUSH1 0x60 ADD SWAP1 JUMP JUMPDEST PUSH1 0x20 DUP1 DUP3 MSTORE PUSH1 0x36 SWAP1 DUP3 ADD MSTORE PUSH32 0x4D696E6F72697479546F6B656E3A2057616C6C65742063616E27742062652073 PUSH1 0x40 DUP3 ADD MSTORE PUSH22 0x657420746F20746865207A65726F2061646472657373 PUSH1 0x50 SHL PUSH1 0x60 DUP3 ADD MSTORE PUSH1 0x80 ADD SWAP1 JUMP JUMPDEST PUSH1 0x0 DUP3 NOT DUP3 GT ISZERO PUSH2 0x287B JUMPI PUSH2 0x287B PUSH2 0x29DF JUMP JUMPDEST POP ADD SWAP1 JUMP JUMPDEST PUSH1 0x0 DUP3 PUSH2 0x289B JUMPI PUSH4 0x4E487B71 PUSH1 0xE0 SHL DUP2 MSTORE PUSH1 0x12 PUSH1 0x4 MSTORE PUSH1 0x24 DUP2 REVERT JUMPDEST POP DIV SWAP1 JUMP JUMPDEST PUSH1 0x1 DUP2 DUP2 JUMPDEST DUP1 DUP6 GT ISZERO PUSH2 0x28DB JUMPI DUP2 PUSH1 0x0 NOT DIV DUP3 GT ISZERO PUSH2 0x28C1 JUMPI PUSH2 0x28C1 PUSH2 0x29DF JUMP JUMPDEST DUP1 DUP6 AND ISZERO PUSH2 0x28CE JUMPI SWAP2 DUP2 MUL SWAP2 JUMPDEST SWAP4 DUP5 SHR SWAP4 SWAP1 DUP1 MUL SWAP1 PUSH2 0x28A5 JUMP JUMPDEST POP SWAP3 POP SWAP3 SWAP1 POP JUMP JUMPDEST PUSH1 0x0 PUSH2 0xB02 PUSH1 0xFF DUP5 AND DUP4 PUSH1 0x0 DUP3 PUSH2 0x28FC JUMPI POP PUSH1 0x1 PUSH2 0x9DD JUMP JUMPDEST DUP2 PUSH2 0x2909 JUMPI POP PUSH1 0x0 PUSH2 0x9DD JUMP JUMPDEST DUP2 PUSH1 0x1 DUP2 EQ PUSH2 0x291F JUMPI PUSH1 0x2 DUP2 EQ PUSH2 0x2929 JUMPI PUSH2 0x2945 JUMP JUMPDEST PUSH1 0x1 SWAP2 POP POP PUSH2 0x9DD JUMP JUMPDEST PUSH1 0xFF DUP5 GT ISZERO PUSH2 0x293A JUMPI PUSH2 0x293A PUSH2 0x29DF JUMP JUMPDEST POP POP PUSH1 0x1 DUP3 SHL PUSH2 0x9DD JUMP JUMPDEST POP PUSH1 0x20 DUP4 LT PUSH2 0x133 DUP4 LT AND PUSH1 0x4E DUP5 LT PUSH1 0xB DUP5 LT AND OR ISZERO PUSH2 0x2968 JUMPI POP DUP2 DUP2 EXP PUSH2 0x9DD JUMP JUMPDEST PUSH2 0x2972 DUP4 DUP4 PUSH2 0x28A0 JUMP JUMPDEST DUP1 PUSH1 0x0 NOT DIV DUP3 GT ISZERO PUSH2 0x2986 JUMPI PUSH2 0x2986 PUSH2 0x29DF JUMP JUMPDEST MUL SWAP4 SWAP3 POP POP POP JUMP JUMPDEST PUSH1 0x0 DUP2 PUSH1 0x0 NOT DIV DUP4 GT DUP3 ISZERO ISZERO AND ISZERO PUSH2 0x29A8 JUMPI PUSH2 0x29A8 PUSH2 0x29DF JUMP JUMPDEST POP MUL SWAP1 JUMP JUMPDEST PUSH1 0x0 DUP3 DUP3 LT ISZERO PUSH2 0x29BF JUMPI PUSH2 0x29BF PUSH2 0x29DF JUMP JUMPDEST POP SUB SWAP1 JUMP JUMPDEST PUSH1 0x0 PUSH1 0x0 NOT DUP3 EQ ISZERO PUSH2 0x29D8 JUMPI PUSH2 0x29D8 PUSH2 0x29DF JUMP JUMPDEST POP PUSH1 0x1 ADD SWAP1 JUMP JUMPDEST PUSH4 0x4E487B71 PUSH1 0xE0 SHL PUSH1 0x0 MSTORE PUSH1 0x11 PUSH1 0x4 MSTORE PUSH1 0x24 PUSH1 0x0 REVERT JUMPDEST DUP1 ISZERO ISZERO DUP2 EQ PUSH2 0x2A03 JUMPI PUSH1 0x0 DUP1 REVERT JUMPDEST POP JUMP INVALID 0x4D PUSH10 0x6E6F72697479546F6B65 PUSH15 0x3A2064656372656173656420616C6C PUSH16 0x77616E63652062656C6F77207A65726F 0x4D PUSH10 0x6E6F72697479546F6B65 PUSH15 0x3A207472616E7366657220616D6F75 PUSH15 0x74206578636565647320616C6C6F77 PUSH2 0x6E63 PUSH6 0xA26469706673 PC 0x22 SLT KECCAK256 PUSH5 0x3E3A31DECE 0x4B JUMPDEST SWAP11 0xB9 ADDRESS 0x23 0xED 0x23 SHR MUL 0x4D PUSH25 0x690DA333C75E5C219650B06CB89664736F6C63430008040033 PUSH1 0xE0 PUSH1 0x40 MSTORE CALLVALUE DUP1 ISZERO PUSH2 0x10 JUMPI PUSH1 0x0 DUP1 REVERT JUMPDEST POP PUSH1 0x0 DUP1 SLOAD PUSH1 0x1 PUSH1 0x1 PUSH1 0xA0 SHL SUB NOT AND CALLER SWAP1 DUP2 OR DUP3 SSTORE PUSH1 0x40 MLOAD SWAP1 SWAP2 DUP3 SWAP2 PUSH32 0x8BE0079C531659141344CD1FD0A4F28419497F9722A3DAAFE3B4186F6B6457E0 SWAP1 DUP3 SWAP1 LOG3 POP CALLER PUSH1 0x60 DUP2 SWAP1 SHL PUSH1 0x80 MSTORE PUSH32 0xD26A9DDC4108A6CCDA4E23C87B0FB2BDD875D100000000000000000000000000 PUSH1 0xA0 MSTORE PUSH32 0xA5E0829CACED8FFDD4DE3C43696C57F7D7A678FF000000000000000000000000 PUSH1 0xC0 MSTORE PUSH20 0xD26A9DDC4108A6CCDA4E23C87B0FB2BDD875D100 PUSH20 0xA5E0829CACED8FFDD4DE3C43696C57F7D7A678FF PUSH2 0xD97 PUSH2 0x13F PUSH1 0x0 CODECOPY PUSH1 0x0 DUP2 DUP2 PUSH2 0x1AA ADD MSTORE DUP2 DUP2 PUSH2 0x66F ADD MSTORE DUP2 DUP2 PUSH2 0x734 ADD MSTORE DUP2 DUP2 PUSH2 0x866 ADD MSTORE DUP2 DUP2 PUSH2 0x932 ADD MSTORE PUSH2 0x9E5 ADD MSTORE PUSH1 0x0 DUP2 DUP2 PUSH1 0xA8 ADD MSTORE DUP2 DUP2 PUSH2 0x7C7 ADD MSTORE PUSH2 0x961 ADD MSTORE PUSH1 0x0 DUP2 DUP2 PUSH2 0x14D ADD MSTORE DUP2 DUP2 PUSH2 0x5B4 ADD MSTORE DUP2 DUP2 PUSH2 0x69E ADD MSTORE DUP2 DUP2 PUSH2 0x89C ADD MSTORE PUSH2 0xA14 ADD MSTORE PUSH2 0xD97 PUSH1 0x0 RETURN INVALID PUSH1 0x80 PUSH1 0x40 MSTORE CALLVALUE DUP1 ISZERO PUSH2 0x10 JUMPI PUSH1 0x0 DUP1 REVERT JUMPDEST POP PUSH1 0x4 CALLDATASIZE LT PUSH2 0x9E JUMPI PUSH1 0x0 CALLDATALOAD PUSH1 0xE0 SHR DUP1 PUSH4 0x715018A6 GT PUSH2 0x66 JUMPI DUP1 PUSH4 0x715018A6 EQ PUSH2 0x16F JUMPI DUP1 PUSH4 0x89A30271 EQ PUSH2 0x179 JUMPI DUP1 PUSH4 0x8DA5CB5B EQ PUSH2 0x194 JUMPI DUP1 PUSH4 0xC31C9C07 EQ PUSH2 0x1A5 JUMPI DUP1 PUSH4 0xF2FDE38B EQ PUSH2 0x1CC JUMPI PUSH1 0x0 DUP1 REVERT JUMPDEST DUP1 PUSH4 0x11EAC855 EQ PUSH2 0xA3 JUMPI DUP1 PUSH4 0x173865AD EQ PUSH2 0xE7 JUMPI DUP1 PUSH4 0x2AE56454 EQ PUSH2 0x115 JUMPI DUP1 PUSH4 0x32FE7B26 EQ PUSH2 0x12D JUMPI DUP1 PUSH4 0x5A533EFD EQ PUSH2 0x148 JUMPI JUMPDEST PUSH1 0x0 DUP1 REVERT JUMPDEST PUSH2 0xCA PUSH32 0x0 DUP2 JUMP JUMPDEST PUSH1 0x40 MLOAD PUSH1 0x1 PUSH1 0x1 PUSH1 0xA0 SHL SUB SWAP1 SWAP2 AND DUP2 MSTORE PUSH1 0x20 ADD JUMPDEST PUSH1 0x40 MLOAD DUP1 SWAP2 SUB SWAP1 RETURN JUMPDEST PUSH2 0xFA PUSH2 0xF5 CALLDATASIZE PUSH1 0x4 PUSH2 0xBC9 JUMP JUMPDEST PUSH2 0x1DF JUMP JUMPDEST PUSH1 0x40 DUP1 MLOAD SWAP4 DUP5 MSTORE PUSH1 0x20 DUP5 ADD SWAP3 SWAP1 SWAP3 MSTORE SWAP1 DUP3 ADD MSTORE PUSH1 0x60 ADD PUSH2 0xDE JUMP JUMPDEST PUSH2 0x11D PUSH2 0x2E7 JUMP JUMPDEST PUSH1 0x40 MLOAD SWAP1 ISZERO ISZERO DUP2 MSTORE PUSH1 0x20 ADD PUSH2 0xDE JUMP JUMPDEST PUSH2 0xCA PUSH20 0xA5E0829CACED8FFDD4DE3C43696C57F7D7A678FF DUP2 JUMP JUMPDEST PUSH2 0xCA PUSH32 0x0 DUP2 JUMP JUMPDEST PUSH2 0x177 PUSH2 0x31C JUMP JUMPDEST STOP JUMPDEST PUSH2 0xCA PUSH20 0xD26A9DDC4108A6CCDA4E23C87B0FB2BDD875D100 DUP2 JUMP JUMPDEST PUSH1 0x0 SLOAD PUSH1 0x1 PUSH1 0x1 PUSH1 0xA0 SHL SUB AND PUSH2 0xCA JUMP JUMPDEST PUSH2 0xCA PUSH32 0x0 DUP2 JUMP JUMPDEST PUSH2 0x177 PUSH2 0x1DA CALLDATASIZE PUSH1 0x4 PUSH2 0xB82 JUMP JUMPDEST PUSH2 0x390 JUMP JUMPDEST PUSH1 0x3 DUP1 SLOAD PUSH1 0xFF NOT AND PUSH1 0x1 OR SWAP1 SSTORE PUSH1 0x0 DUP1 DUP1 PUSH2 0x1F7 CALLER SWAP1 JUMP JUMPDEST PUSH1 0x0 SLOAD PUSH1 0x1 PUSH1 0x1 PUSH1 0xA0 SHL SUB SWAP1 DUP2 AND SWAP2 AND EQ PUSH2 0x22D JUMPI PUSH1 0x40 MLOAD PUSH3 0x461BCD PUSH1 0xE5 SHL DUP2 MSTORE PUSH1 0x4 ADD PUSH2 0x224 SWAP1 PUSH2 0xC79 JUMP JUMPDEST PUSH1 0x40 MLOAD DUP1 SWAP2 SUB SWAP1 REVERT JUMPDEST PUSH1 0x0 DUP5 GT PUSH2 0x291 JUMPI PUSH1 0x40 MLOAD PUSH3 0x461BCD PUSH1 0xE5 SHL DUP2 MSTORE PUSH1 0x20 PUSH1 0x4 DUP3 ADD MSTORE PUSH1 0x2B PUSH1 0x24 DUP3 ADD MSTORE PUSH32 0x4D696E6F726974794C69717569646974794D616E616765723A204E6F20746F6B PUSH1 0x44 DUP3 ADD MSTORE PUSH11 0x656E7320746F207377617 PUSH1 0xAC SHL PUSH1 0x64 DUP3 ADD MSTORE PUSH1 0x84 ADD PUSH2 0x224 JUMP JUMPDEST PUSH1 0x0 PUSH2 0x29E DUP6 PUSH1 0x2 PUSH2 0x47A JUMP JUMPDEST SWAP1 POP PUSH1 0x0 PUSH2 0x2AC DUP7 DUP4 PUSH2 0x4C3 JUMP JUMPDEST SWAP1 POP PUSH1 0x0 PUSH2 0x2B9 DUP4 PUSH2 0x505 JUMP JUMPDEST SWAP1 POP PUSH1 0x0 DUP1 PUSH1 0x0 PUSH2 0x2CA DUP6 DUP6 PUSH2 0x84F JUMP JUMPDEST PUSH1 0x3 DUP1 SLOAD PUSH1 0xFF NOT AND SWAP1 SSTORE SWAP2 SWAP13 SWAP1 SWAP12 POP SWAP1 SWAP10 POP SWAP8 POP POP POP POP POP POP POP POP JUMP JUMPDEST PUSH1 0x0 DUP1 SLOAD PUSH1 0x1 PUSH1 0x1 PUSH1 0xA0 SHL SUB AND CALLER EQ PUSH2 0x312 JUMPI PUSH1 0x40 MLOAD PUSH3 0x461BCD PUSH1 0xE5 SHL DUP2 MSTORE PUSH1 0x4 ADD PUSH2 0x224 SWAP1 PUSH2 0xC79 JUMP JUMPDEST POP PUSH1 0x3 SLOAD PUSH1 0xFF AND SWAP1 JUMP JUMPDEST PUSH1 0x0 SLOAD PUSH1 0x1 PUSH1 0x1 PUSH1 0xA0 SHL SUB AND CALLER EQ PUSH2 0x346 JUMPI PUSH1 0x40 MLOAD PUSH3 0x461BCD PUSH1 0xE5 SHL DUP2 MSTORE PUSH1 0x4 ADD PUSH2 0x224 SWAP1 PUSH2 0xC79 JUMP JUMPDEST PUSH1 0x0 DUP1 SLOAD PUSH1 0x40 MLOAD PUSH1 0x1 PUSH1 0x1 PUSH1 0xA0 SHL SUB SWAP1 SWAP2 AND SWAP1 PUSH32 0x8BE0079C531659141344CD1FD0A4F28419497F9722A3DAAFE3B4186F6B6457E0 SWAP1 DUP4 SWAP1 LOG3 PUSH1 0x0 DUP1 SLOAD PUSH1 0x1 PUSH1 0x1 PUSH1 0xA0 SHL SUB NOT AND SWAP1 SSTORE JUMP JUMPDEST PUSH1 0x0 SLOAD PUSH1 0x1 PUSH1 0x1 PUSH1 0xA0 SHL SUB AND CALLER EQ PUSH2 0x3BA JUMPI PUSH1 0x40 MLOAD PUSH3 0x461BCD PUSH1 0xE5 SHL DUP2 MSTORE PUSH1 0x4 ADD PUSH2 0x224 SWAP1 PUSH2 0xC79 JUMP JUMPDEST PUSH1 0x1 PUSH1 0x1 PUSH1 0xA0 SHL SUB DUP2 AND PUSH2 0x41F JUMPI PUSH1 0x40 MLOAD PUSH3 0x461BCD PUSH1 0xE5 SHL DUP2 MSTORE PUSH1 0x20 PUSH1 0x4 DUP3 ADD MSTORE PUSH1 0x26 PUSH1 0x24 DUP3 ADD MSTORE PUSH32 0x4F776E61626C653A206E6577206F776E657220697320746865207A65726F2061 PUSH1 0x44 DUP3 ADD MSTORE PUSH6 0x646472657373 PUSH1 0xD0 SHL PUSH1 0x64 DUP3 ADD MSTORE PUSH1 0x84 ADD PUSH2 0x224 JUMP JUMPDEST PUSH1 0x0 DUP1 SLOAD PUSH1 0x40 MLOAD PUSH1 0x1 PUSH1 0x1 PUSH1 0xA0 SHL SUB DUP1 DUP6 AND SWAP4 SWAP3 AND SWAP2 PUSH32 0x8BE0079C531659141344CD1FD0A4F28419497F9722A3DAAFE3B4186F6B6457E0 SWAP2 LOG3 PUSH1 0x0 DUP1 SLOAD PUSH1 0x1 PUSH1 0x1 PUSH1 0xA0 SHL SUB NOT AND PUSH1 0x1 PUSH1 0x1 PUSH1 0xA0 SHL SUB SWAP3 SWAP1 SWAP3 AND SWAP2 SWAP1 SWAP2 OR SWAP1 SSTORE JUMP JUMPDEST PUSH1 0x0 PUSH2 0x4BC DUP4 DUP4 PUSH1 0x40 MLOAD DUP1 PUSH1 0x40 ADD PUSH1 0x40 MSTORE DUP1 PUSH1 0x1A DUP2 MSTORE PUSH1 0x20 ADD PUSH32 0x536166654D6174683A206469766973696F6E206279207A65726F000000000000 DUP2 MSTORE POP PUSH2 0xB1A JUMP JUMPDEST SWAP4 SWAP3 POP POP POP JUMP JUMPDEST PUSH1 0x0 PUSH2 0x4BC DUP4 DUP4 PUSH1 0x40 MLOAD DUP1 PUSH1 0x40 ADD PUSH1 0x40 MSTORE DUP1 PUSH1 0x1E DUP2 MSTORE PUSH1 0x20 ADD PUSH32 0x536166654D6174683A207375627472616374696F6E206F766572666C6F770000 DUP2 MSTORE POP PUSH2 0xB51 JUMP JUMPDEST PUSH1 0x40 MLOAD PUSH4 0x70A08231 PUSH1 0xE0 SHL DUP2 MSTORE ADDRESS PUSH1 0x4 DUP3 ADD MSTORE PUSH1 0x0 SWAP1 DUP2 SWAP1 PUSH20 0xD26A9DDC4108A6CCDA4E23C87B0FB2BDD875D100 SWAP1 PUSH4 0x70A08231 SWAP1 PUSH1 0x24 ADD PUSH1 0x20 PUSH1 0x40 MLOAD DUP1 DUP4 SUB DUP2 DUP7 DUP1 EXTCODESIZE ISZERO DUP1 ISZERO PUSH2 0x554 JUMPI PUSH1 0x0 DUP1 REVERT JUMPDEST POP GAS STATICCALL ISZERO DUP1 ISZERO PUSH2 0x568 JUMPI RETURNDATASIZE PUSH1 0x0 DUP1 RETURNDATACOPY RETURNDATASIZE PUSH1 0x0 REVERT JUMPDEST POP POP POP POP PUSH1 0x40 MLOAD RETURNDATASIZE PUSH1 0x1F NOT PUSH1 0x1F DUP3 ADD AND DUP3 ADD DUP1 PUSH1 0x40 MSTORE POP DUP2 ADD SWAP1 PUSH2 0x58C SWAP2 SWAP1 PUSH2 0xBE1 JUMP JUMPDEST PUSH1 0x40 DUP1 MLOAD PUSH1 0x2 DUP1 DUP3 MSTORE PUSH1 0x60 DUP3 ADD DUP4 MSTORE SWAP3 SWAP4 POP PUSH1 0x0 SWAP3 SWAP1 SWAP2 PUSH1 0x20 DUP4 ADD SWAP1 DUP1 CALLDATASIZE DUP4 CALLDATACOPY ADD SWAP1 POP POP SWAP1 POP PUSH32 0x0 DUP2 PUSH1 0x0 DUP2 MLOAD DUP2 LT PUSH2 0x5F4 JUMPI PUSH4 0x4E487B71 PUSH1 0xE0 SHL PUSH1 0x0 MSTORE PUSH1 0x32 PUSH1 0x4 MSTORE PUSH1 0x24 PUSH1 0x0 REVERT JUMPDEST PUSH1 0x20 MUL PUSH1 0x20 ADD ADD SWAP1 PUSH1 0x1 PUSH1 0x1 PUSH1 0xA0 SHL SUB AND SWAP1 DUP2 PUSH1 0x1 PUSH1 0x1 PUSH1 0xA0 SHL SUB AND DUP2 MSTORE POP POP PUSH20 0xD26A9DDC4108A6CCDA4E23C87B0FB2BDD875D100 DUP2 PUSH1 0x1 DUP2 MLOAD DUP2 LT PUSH2 0x64A JUMPI PUSH4 0x4E487B71 PUSH1 0xE0 SHL PUSH1 0x0 MSTORE PUSH1 0x32 PUSH1 0x4 MSTORE PUSH1 0x24 PUSH1 0x0 REVERT JUMPDEST PUSH1 0x1 PUSH1 0x1 PUSH1 0xA0 SHL SUB SWAP3 DUP4 AND PUSH1 0x20 SWAP2 DUP3 MUL SWAP3 SWAP1 SWAP3 ADD ADD MSTORE PUSH1 0x40 MLOAD PUSH4 0x95EA7B3 PUSH1 0xE0 SHL DUP2 MSTORE PUSH32 0x0 DUP3 AND PUSH1 0x4 DUP3 ADD MSTORE PUSH1 0x24 DUP2 ADD DUP7 SWAP1 MSTORE PUSH32 0x0 SWAP1 SWAP2 AND SWAP1 PUSH4 0x95EA7B3 SWAP1 PUSH1 0x44 ADD PUSH1 0x20 PUSH1 0x40 MLOAD DUP1 DUP4 SUB DUP2 PUSH1 0x0 DUP8 DUP1 EXTCODESIZE ISZERO DUP1 ISZERO PUSH2 0x6E4 JUMPI PUSH1 0x0 DUP1 REVERT JUMPDEST POP GAS CALL ISZERO DUP1 ISZERO PUSH2 0x6F8 JUMPI RETURNDATASIZE PUSH1 0x0 DUP1 RETURNDATACOPY RETURNDATASIZE PUSH1 0x0 REVERT JUMPDEST POP POP POP POP PUSH1 0x40 MLOAD RETURNDATASIZE PUSH1 0x1F NOT PUSH1 0x1F DUP3 ADD AND DUP3 ADD DUP1 PUSH1 0x40 MSTORE POP DUP2 ADD SWAP1 PUSH2 0x71C SWAP2 SWAP1 PUSH2 0xBA9 JUMP JUMPDEST POP PUSH1 0x40 MLOAD PUSH4 0x5C11D795 PUSH1 0xE0 SHL DUP2 MSTORE PUSH1 0x1 PUSH1 0x1 PUSH1 0xA0 SHL SUB PUSH32 0x0 AND SWAP1 PUSH4 0x5C11D795 SWAP1 PUSH2 0x772 SWAP1 DUP8 SWAP1 PUSH1 0x0 SWAP1 DUP7 SWAP1 ADDRESS SWAP1 TIMESTAMP SWAP1 PUSH1 0x4 ADD PUSH2 0xCAE JUMP JUMPDEST PUSH1 0x0 PUSH1 0x40 MLOAD DUP1 DUP4 SUB DUP2 PUSH1 0x0 DUP8 DUP1 EXTCODESIZE ISZERO DUP1 ISZERO PUSH2 0x78C JUMPI PUSH1 0x0 DUP1 REVERT JUMPDEST POP GAS CALL ISZERO DUP1 ISZERO PUSH2 0x7A0 JUMPI RETURNDATASIZE PUSH1 0x0 DUP1 RETURNDATACOPY RETURNDATASIZE PUSH1 0x0 REVERT JUMPDEST POP POP PUSH1 0x40 MLOAD PUSH4 0x70A08231 PUSH1 0xE0 SHL DUP2 MSTORE ADDRESS PUSH1 0x4 DUP3 ADD MSTORE PUSH2 0x847 SWAP3 POP DUP5 SWAP2 POP PUSH1 0x1 PUSH1 0x1 PUSH1 0xA0 SHL SUB PUSH32 0x0 AND SWAP1 PUSH4 0x70A08231 SWAP1 PUSH1 0x24 ADD PUSH1 0x20 PUSH1 0x40 MLOAD DUP1 DUP4 SUB DUP2 DUP7 DUP1 EXTCODESIZE ISZERO DUP1 ISZERO PUSH2 0x809 JUMPI PUSH1 0x0 DUP1 REVERT JUMPDEST POP GAS STATICCALL ISZERO DUP1 ISZERO PUSH2 0x81D JUMPI RETURNDATASIZE PUSH1 0x0 DUP1 RETURNDATACOPY RETURNDATASIZE PUSH1 0x0 REVERT JUMPDEST POP POP POP POP PUSH1 0x40 MLOAD RETURNDATASIZE PUSH1 0x1F NOT PUSH1 0x1F DUP3 ADD AND DUP3 ADD DUP1 PUSH1 0x40 MSTORE POP DUP2 ADD SWAP1 PUSH2 0x841 SWAP2 SWAP1 PUSH2 0xBE1 JUMP JUMPDEST SWAP1 PUSH2 0x4C3 JUMP JUMPDEST SWAP5 SWAP4 POP POP POP POP JUMP JUMPDEST PUSH1 0x40 MLOAD PUSH4 0x95EA7B3 PUSH1 0xE0 SHL DUP2 MSTORE PUSH1 0x1 PUSH1 0x1 PUSH1 0xA0 SHL SUB PUSH32 0x0 DUP2 AND PUSH1 0x4 DUP4 ADD MSTORE PUSH1 0x24 DUP3 ADD DUP5 SWAP1 MSTORE PUSH1 0x0 SWAP2 DUP3 SWAP2 DUP3 SWAP2 PUSH32 0x0 SWAP1 SWAP2 AND SWAP1 PUSH4 0x95EA7B3 SWAP1 PUSH1 0x44 ADD PUSH1 0x20 PUSH1 0x40 MLOAD DUP1 DUP4 SUB DUP2 PUSH1 0x0 DUP8 DUP1 EXTCODESIZE ISZERO DUP1 ISZERO PUSH2 0x8E2 JUMPI PUSH1 0x0 DUP1 REVERT JUMPDEST POP GAS CALL ISZERO DUP1 ISZERO PUSH2 0x8F6 JUMPI RETURNDATASIZE PUSH1 0x0 DUP1 RETURNDATACOPY RETURNDATASIZE PUSH1 0x0 REVERT JUMPDEST POP POP POP POP PUSH1 0x40 MLOAD RETURNDATASIZE PUSH1 0x1F NOT PUSH1 0x1F DUP3 ADD AND DUP3 ADD DUP1 PUSH1 0x40 MSTORE POP DUP2 ADD SWAP1 PUSH2 0x91A SWAP2 SWAP1 PUSH2 0xBA9 JUMP JUMPDEST POP PUSH1 0x40 MLOAD PUSH4 0x95EA7B3 PUSH1 0xE0 SHL DUP2 MSTORE PUSH1 0x1 PUSH1 0x1 PUSH1 0xA0 SHL SUB PUSH32 0x0 DUP2 AND PUSH1 0x4 DUP4 ADD MSTORE PUSH1 0x24 DUP3 ADD DUP7 SWAP1 MSTORE PUSH32 0x0 AND SWAP1 PUSH4 0x95EA7B3 SWAP1 PUSH1 0x44 ADD PUSH1 0x20 PUSH1 0x40 MLOAD DUP1 DUP4 SUB DUP2 PUSH1 0x0 DUP8 DUP1 EXTCODESIZE ISZERO DUP1 ISZERO PUSH2 0x9A5 JUMPI PUSH1 0x0 DUP1 REVERT JUMPDEST POP GAS CALL ISZERO DUP1 ISZERO PUSH2 0x9B9 JUMPI RETURNDATASIZE PUSH1 0x0 DUP1 RETURNDATACOPY RETURNDATASIZE PUSH1 0x0 REVERT JUMPDEST POP POP POP POP PUSH1 0x40 MLOAD RETURNDATASIZE PUSH1 0x1F NOT PUSH1 0x1F DUP3 ADD AND DUP3 ADD DUP1 PUSH1 0x40 MSTORE POP DUP2 ADD SWAP1 PUSH2 0x9DD SWAP2 SWAP1 PUSH2 0xBA9 JUMP JUMPDEST POP PUSH1 0x0 DUP1 PUSH1 0x0 PUSH32 0x0 PUSH1 0x1 PUSH1 0x1 PUSH1 0xA0 SHL SUB AND PUSH4 0xE8E33700 PUSH32 0x0 PUSH20 0xD26A9DDC4108A6CCDA4E23C87B0FB2BDD875D100 DUP12 DUP12 PUSH1 0x0 DUP1 PUSH2 0xA5F PUSH1 0x0 SLOAD PUSH1 0x1 PUSH1 0x1 PUSH1 0xA0 SHL SUB AND SWAP1 JUMP JUMPDEST PUSH1 0x40 MLOAD PUSH1 0xE0 DUP10 SWAP1 SHL PUSH1 0x1 PUSH1 0x1 PUSH1 0xE0 SHL SUB NOT AND DUP2 MSTORE PUSH1 0x1 PUSH1 0x1 PUSH1 0xA0 SHL SUB SWAP8 DUP9 AND PUSH1 0x4 DUP3 ADD MSTORE SWAP6 DUP8 AND PUSH1 0x24 DUP8 ADD MSTORE PUSH1 0x44 DUP7 ADD SWAP5 SWAP1 SWAP5 MSTORE PUSH1 0x64 DUP6 ADD SWAP3 SWAP1 SWAP3 MSTORE PUSH1 0x84 DUP5 ADD MSTORE PUSH1 0xA4 DUP4 ADD MSTORE SWAP1 SWAP2 AND PUSH1 0xC4 DUP3 ADD MSTORE TIMESTAMP PUSH1 0xE4 DUP3 ADD MSTORE PUSH2 0x104 ADD PUSH1 0x60 PUSH1 0x40 MLOAD DUP1 DUP4 SUB DUP2 PUSH1 0x0 DUP8 DUP1 EXTCODESIZE ISZERO DUP1 ISZERO PUSH2 0xAD1 JUMPI PUSH1 0x0 DUP1 REVERT JUMPDEST POP GAS CALL ISZERO DUP1 ISZERO PUSH2 0xAE5 JUMPI RETURNDATASIZE PUSH1 0x0 DUP1 RETURNDATACOPY RETURNDATASIZE PUSH1 0x0 REVERT JUMPDEST POP POP POP POP PUSH1 0x40 MLOAD RETURNDATASIZE PUSH1 0x1F NOT PUSH1 0x1F DUP3 ADD AND DUP3 ADD DUP1 PUSH1 0x40 MSTORE POP DUP2 ADD SWAP1 PUSH2 0xB09 SWAP2 SWAP1 PUSH2 0xBF9 JUMP JUMPDEST SWAP2 SWAP8 POP SWAP6 POP SWAP4 POP POP POP POP SWAP3 POP SWAP3 POP SWAP3 JUMP JUMPDEST PUSH1 0x0 DUP2 DUP4 PUSH2 0xB3B JUMPI PUSH1 0x40 MLOAD PUSH3 0x461BCD PUSH1 0xE5 SHL DUP2 MSTORE PUSH1 0x4 ADD PUSH2 0x224 SWAP2 SWAP1 PUSH2 0xC26 JUMP JUMPDEST POP PUSH1 0x0 PUSH2 0xB48 DUP5 DUP7 PUSH2 0xD1E JUMP JUMPDEST SWAP6 SWAP5 POP POP POP POP POP JUMP JUMPDEST PUSH1 0x0 DUP2 DUP5 DUP5 GT ISZERO PUSH2 0xB75 JUMPI PUSH1 0x40 MLOAD PUSH3 0x461BCD PUSH1 0xE5 SHL DUP2 MSTORE PUSH1 0x4 ADD PUSH2 0x224 SWAP2 SWAP1 PUSH2 0xC26 JUMP JUMPDEST POP PUSH1 0x0 PUSH2 0xB48 DUP5 DUP7 PUSH2 0xD3E JUMP JUMPDEST PUSH1 0x0 PUSH1 0x20 DUP3 DUP5 SUB SLT ISZERO PUSH2 0xB93 JUMPI DUP1 DUP2 REVERT JUMPDEST DUP2 CALLDATALOAD PUSH1 0x1 PUSH1 0x1 PUSH1 0xA0 SHL SUB DUP2 AND DUP2 EQ PUSH2 0x4BC JUMPI DUP2 DUP3 REVERT JUMPDEST PUSH1 0x0 PUSH1 0x20 DUP3 DUP5 SUB SLT ISZERO PUSH2 0xBBA JUMPI DUP1 DUP2 REVERT JUMPDEST DUP2 MLOAD DUP1 ISZERO ISZERO DUP2 EQ PUSH2 0x4BC JUMPI DUP2 DUP3 REVERT JUMPDEST PUSH1 0x0 PUSH1 0x20 DUP3 DUP5 SUB SLT ISZERO PUSH2 0xBDA JUMPI DUP1 DUP2 REVERT JUMPDEST POP CALLDATALOAD SWAP2 SWAP1 POP JUMP JUMPDEST PUSH1 0x0 PUSH1 0x20 DUP3 DUP5 SUB SLT ISZERO PUSH2 0xBF2 JUMPI DUP1 DUP2 REVERT JUMPDEST POP MLOAD SWAP2 SWAP1 POP JUMP JUMPDEST PUSH1 0x0 DUP1 PUSH1 0x0 PUSH1 0x60 DUP5 DUP7 SUB SLT ISZERO PUSH2 0xC0D JUMPI DUP2 DUP3 REVERT JUMPDEST DUP4 MLOAD SWAP3 POP PUSH1 0x20 DUP5 ADD MLOAD SWAP2 POP PUSH1 0x40 DUP5 ADD MLOAD SWAP1 POP SWAP3 POP SWAP3 POP SWAP3 JUMP JUMPDEST PUSH1 0x0 PUSH1 0x20 DUP1 DUP4 MSTORE DUP4 MLOAD DUP1 DUP3 DUP6 ADD MSTORE DUP3 JUMPDEST DUP2 DUP2 LT ISZERO PUSH2 0xC52 JUMPI DUP6 DUP2 ADD DUP4 ADD MLOAD DUP6 DUP3 ADD PUSH1 0x40 ADD MSTORE DUP3 ADD PUSH2 0xC36 JUMP JUMPDEST DUP2 DUP2 GT ISZERO PUSH2 0xC63 JUMPI DUP4 PUSH1 0x40 DUP4 DUP8 ADD ADD MSTORE JUMPDEST POP PUSH1 0x1F ADD PUSH1 0x1F NOT AND SWAP3 SWAP1 SWAP3 ADD PUSH1 0x40 ADD SWAP4 SWAP3 POP POP POP JUMP JUMPDEST PUSH1 0x20 DUP1 DUP3 MSTORE DUP2 DUP2 ADD MSTORE PUSH32 0x4F776E61626C653A2063616C6C6572206973206E6F7420746865206F776E6572 PUSH1 0x40 DUP3 ADD MSTORE PUSH1 0x60 ADD SWAP1 JUMP JUMPDEST PUSH1 0x0 PUSH1 0xA0 DUP3 ADD DUP8 DUP4 MSTORE PUSH1 0x20 DUP8 DUP2 DUP6 ADD MSTORE PUSH1 0xA0 PUSH1 0x40 DUP6 ADD MSTORE DUP2 DUP8 MLOAD DUP1 DUP5 MSTORE PUSH1 0xC0 DUP7 ADD SWAP2 POP DUP3 DUP10 ADD SWAP4 POP DUP5 JUMPDEST DUP2 DUP2 LT ISZERO PUSH2 0xCFD JUMPI DUP5 MLOAD PUSH1 0x1 PUSH1 0x1 PUSH1 0xA0 SHL SUB AND DUP4 MSTORE SWAP4 DUP4 ADD SWAP4 SWAP2 DUP4 ADD SWAP2 PUSH1 0x1 ADD PUSH2 0xCD8 JUMP JUMPDEST POP POP PUSH1 0x1 PUSH1 0x1 PUSH1 0xA0 SHL SUB SWAP7 SWAP1 SWAP7 AND PUSH1 0x60 DUP6 ADD MSTORE POP POP POP PUSH1 0x80 ADD MSTORE SWAP4 SWAP3 POP POP POP JUMP JUMPDEST PUSH1 0x0 DUP3 PUSH2 0xD39 JUMPI PUSH4 0x4E487B71 PUSH1 0xE0 SHL DUP2 MSTORE PUSH1 0x12 PUSH1 0x4 MSTORE PUSH1 0x24 DUP2 REVERT JUMPDEST POP DIV SWAP1 JUMP JUMPDEST PUSH1 0x0 DUP3 DUP3 LT ISZERO PUSH2 0xD5C JUMPI PUSH4 0x4E487B71 PUSH1 0xE0 SHL DUP2 MSTORE PUSH1 0x11 PUSH1 0x4 MSTORE PUSH1 0x24 DUP2 REVERT JUMPDEST POP SUB SWAP1 JUMP INVALID LOG2 PUSH5 0x6970667358 0x22 SLT KECCAK256 PUSH11 0x84A3141F63F196C0ACC2E2 0x4E 0xB3 MLOAD 0x48 0xA5 ADDRESS 0xCF 0xC6 DUP5 SWAP6 MUL KECCAK256 SWAP14 CREATE 0xBD 0xB9 ORIGIN PUSH13 0xB53964736F6C63430008040033 PUSH1 0xA0 PUSH1 0x40 MSTORE CALLVALUE DUP1 ISZERO PUSH3 0x11 JUMPI PUSH1 0x0 DUP1 REVERT JUMPDEST POP PUSH1 0x40 MLOAD PUSH3 0x1B24 CODESIZE SUB DUP1 PUSH3 0x1B24 DUP4 CODECOPY DUP2 ADD PUSH1 0x40 DUP2 SWAP1 MSTORE PUSH3 0x34 SWAP2 PUSH3 0x1DA JUMP JUMPDEST PUSH1 0x0 DUP1 SLOAD PUSH1 0x1 PUSH1 0x1 PUSH1 0xA0 SHL SUB NOT AND CALLER SWAP1 DUP2 OR DUP3 SSTORE PUSH1 0x40 MLOAD SWAP1 SWAP2 DUP3 SWAP2 PUSH32 0x8BE0079C531659141344CD1FD0A4F28419497F9722A3DAAFE3B4186F6B6457E0 SWAP1 DUP3 SWAP1 LOG3 POP PUSH1 0x1 PUSH1 0x1 PUSH1 0xA0 SHL SUB DUP3 AND PUSH3 0xF7 JUMPI PUSH1 0x40 MLOAD PUSH3 0x461BCD PUSH1 0xE5 SHL DUP2 MSTORE PUSH1 0x20 PUSH1 0x4 DUP3 ADD MSTORE PUSH1 0x3A PUSH1 0x24 DUP3 ADD MSTORE PUSH32 0x4D696E6F7269747956657374696E674D616E616765723A204F70657261746F72 PUSH1 0x44 DUP3 ADD MSTORE PUSH32 0x2063616E277420626520746865207A65726F2061646472657373000000000000 PUSH1 0x64 DUP3 ADD MSTORE PUSH1 0x84 ADD JUMPDEST PUSH1 0x40 MLOAD DUP1 SWAP2 SUB SWAP1 REVERT JUMPDEST PUSH1 0x1 PUSH1 0x1 PUSH1 0xA0 SHL SUB DUP2 AND PUSH3 0x186 JUMPI PUSH1 0x40 MLOAD PUSH3 0x461BCD PUSH1 0xE5 SHL DUP2 MSTORE PUSH1 0x20 PUSH1 0x4 DUP3 ADD MSTORE PUSH1 0x48 PUSH1 0x24 DUP3 ADD MSTORE PUSH32 0x4D696E6F7269747956657374696E674D616E616765723A204D696E6F72697479 PUSH1 0x44 DUP3 ADD MSTORE PUSH32 0x20746F6B656E20616464726573732063616E277420626520746865207A65726F PUSH1 0x64 DUP3 ADD MSTORE PUSH8 0x2061646472657373 PUSH1 0xC0 SHL PUSH1 0x84 DUP3 ADD MSTORE PUSH1 0xA4 ADD PUSH3 0xEE JUMP JUMPDEST PUSH1 0x3 DUP1 SLOAD PUSH1 0x1 PUSH1 0x1 PUSH1 0xA0 SHL SUB NOT AND PUSH1 0x1 PUSH1 0x1 PUSH1 0xA0 SHL SUB SWAP4 SWAP1 SWAP4 AND SWAP3 SWAP1 SWAP3 OR SWAP1 SWAP2 SSTORE PUSH1 0x60 SHL PUSH1 0x1 PUSH1 0x1 PUSH1 0x60 SHL SUB NOT AND PUSH1 0x80 MSTORE PUSH3 0x211 JUMP JUMPDEST DUP1 MLOAD PUSH1 0x1 PUSH1 0x1 PUSH1 0xA0 SHL SUB DUP2 AND DUP2 EQ PUSH3 0x1D5 JUMPI PUSH1 0x0 DUP1 REVERT JUMPDEST SWAP2 SWAP1 POP JUMP JUMPDEST PUSH1 0x0 DUP1 PUSH1 0x40 DUP4 DUP6 SUB SLT ISZERO PUSH3 0x1ED JUMPI DUP2 DUP3 REVERT JUMPDEST PUSH3 0x1F8 DUP4 PUSH3 0x1BD JUMP JUMPDEST SWAP2 POP PUSH3 0x208 PUSH1 0x20 DUP5 ADD PUSH3 0x1BD JUMP JUMPDEST SWAP1 POP SWAP3 POP SWAP3 SWAP1 POP JUMP JUMPDEST PUSH1 0x80 MLOAD PUSH1 0x60 SHR PUSH2 0x18E6 PUSH3 0x23E PUSH1 0x0 CODECOPY PUSH1 0x0 DUP2 DUP2 PUSH2 0x1C7 ADD MSTORE DUP2 DUP2 PUSH2 0x7D1 ADD MSTORE PUSH2 0xE6A ADD MSTORE PUSH2 0x18E6 PUSH1 0x0 RETURN INVALID PUSH1 0x80 PUSH1 0x40 MSTORE CALLVALUE DUP1 ISZERO PUSH2 0x10 JUMPI PUSH1 0x0 DUP1 REVERT JUMPDEST POP PUSH1 0x4 CALLDATASIZE LT PUSH2 0xF5 JUMPI PUSH1 0x0 CALLDATALOAD PUSH1 0xE0 SHR DUP1 PUSH4 0x715018A6 GT PUSH2 0x97 JUMPI DUP1 PUSH4 0x98FB7A98 GT PUSH2 0x66 JUMPI DUP1 PUSH4 0x98FB7A98 EQ PUSH2 0x226 JUMPI DUP1 PUSH4 0x9C86AEE8 EQ PUSH2 0x239 JUMPI DUP1 PUSH4 0x9F91D484 EQ PUSH2 0x242 JUMPI DUP1 PUSH4 0xF2FDE38B EQ PUSH2 0x255 JUMPI PUSH1 0x0 DUP1 REVERT JUMPDEST DUP1 PUSH4 0x715018A6 EQ PUSH2 0x1FC JUMPI DUP1 PUSH4 0x84F61358 EQ PUSH2 0x204 JUMPI DUP1 PUSH4 0x8ADC760D EQ PUSH2 0x20D JUMPI DUP1 PUSH4 0x8DA5CB5B EQ PUSH2 0x215 JUMPI PUSH1 0x0 DUP1 REVERT JUMPDEST DUP1 PUSH4 0x56329EE6 GT PUSH2 0xD3 JUMPI DUP1 PUSH4 0x56329EE6 EQ PUSH2 0x18E JUMPI DUP1 PUSH4 0x570CA735 EQ PUSH2 0x197 JUMPI DUP1 PUSH4 0x5A533EFD EQ PUSH2 0x1C2 JUMPI DUP1 PUSH4 0x6D3CBE21 EQ PUSH2 0x1E9 JUMPI PUSH1 0x0 DUP1 REVERT JUMPDEST DUP1 PUSH4 0x20F6B0A9 EQ PUSH2 0xFA JUMPI DUP1 PUSH4 0x22811B9F EQ PUSH2 0x158 JUMPI DUP1 PUSH4 0x3E34E66D EQ PUSH2 0x16D JUMPI JUMPDEST PUSH1 0x0 DUP1 REVERT JUMPDEST PUSH2 0x10D PUSH2 0x108 CALLDATASIZE PUSH1 0x4 PUSH2 0x15C5 JUMP JUMPDEST PUSH2 0x268 JUMP JUMPDEST PUSH1 0x40 DUP1 MLOAD SWAP9 DUP10 MSTORE PUSH1 0x20 DUP10 ADD SWAP8 SWAP1 SWAP8 MSTORE SWAP6 DUP8 ADD SWAP5 SWAP1 SWAP5 MSTORE PUSH1 0x60 DUP7 ADD SWAP3 SWAP1 SWAP3 MSTORE PUSH1 0x80 DUP6 ADD MSTORE PUSH1 0xA0 DUP5 ADD MSTORE PUSH1 0x1 PUSH1 0x1 PUSH1 0xA0 SHL SUB AND PUSH1 0xC0 DUP4 ADD MSTORE ISZERO ISZERO PUSH1 0xE0 DUP3 ADD MSTORE PUSH2 0x100 ADD JUMPDEST PUSH1 0x40 MLOAD DUP1 SWAP2 SUB SWAP1 RETURN JUMPDEST PUSH2 0x16B PUSH2 0x166 CALLDATASIZE PUSH1 0x4 PUSH2 0x15F5 JUMP JUMPDEST PUSH2 0x373 JUMP JUMPDEST STOP JUMPDEST PUSH2 0x180 PUSH2 0x17B CALLDATASIZE PUSH1 0x4 PUSH2 0x165E JUMP JUMPDEST PUSH2 0x60F JUMP JUMPDEST PUSH1 0x40 MLOAD SWAP1 DUP2 MSTORE PUSH1 0x20 ADD PUSH2 0x14F JUMP JUMPDEST PUSH2 0x180 PUSH1 0x6 SLOAD DUP2 JUMP JUMPDEST PUSH1 0x3 SLOAD PUSH2 0x1AA SWAP1 PUSH1 0x1 PUSH1 0x1 PUSH1 0xA0 SHL SUB AND DUP2 JUMP JUMPDEST PUSH1 0x40 MLOAD PUSH1 0x1 PUSH1 0x1 PUSH1 0xA0 SHL SUB SWAP1 SWAP2 AND DUP2 MSTORE PUSH1 0x20 ADD PUSH2 0x14F JUMP JUMPDEST PUSH2 0x1AA PUSH32 0x0 DUP2 JUMP JUMPDEST PUSH2 0x10D PUSH2 0x1F7 CALLDATASIZE PUSH1 0x4 PUSH2 0x15C5 JUMP JUMPDEST PUSH2 0xBA5 JUMP JUMPDEST PUSH2 0x16B PUSH2 0xC09 JUMP JUMPDEST PUSH2 0x180 PUSH1 0x5 SLOAD DUP2 JUMP JUMPDEST PUSH2 0x16B PUSH2 0xC7D JUMP JUMPDEST PUSH1 0x0 SLOAD PUSH1 0x1 PUSH1 0x1 PUSH1 0xA0 SHL SUB AND PUSH2 0x1AA JUMP JUMPDEST PUSH2 0x16B PUSH2 0x234 CALLDATASIZE PUSH1 0x4 PUSH2 0x15C5 JUMP JUMPDEST PUSH2 0xF45 JUMP JUMPDEST PUSH2 0x180 PUSH1 0x7 SLOAD DUP2 JUMP JUMPDEST PUSH2 0x180 PUSH2 0x250 CALLDATASIZE PUSH1 0x4 PUSH2 0x1616 JUMP JUMPDEST PUSH2 0x114A JUMP JUMPDEST PUSH2 0x16B PUSH2 0x263 CALLDATASIZE PUSH1 0x4 PUSH2 0x158F JUMP JUMPDEST PUSH2 0x11A5 JUMP JUMPDEST PUSH1 0x0 DUP1 PUSH1 0x0 DUP1 PUSH1 0x0 DUP1 PUSH1 0x0 DUP1 PUSH1 0x4 DUP1 SLOAD SWAP1 POP DUP10 LT PUSH2 0x2A1 JUMPI PUSH1 0x40 MLOAD PUSH3 0x461BCD PUSH1 0xE5 SHL DUP2 MSTORE PUSH1 0x4 ADD PUSH2 0x298 SWAP1 PUSH2 0x179E JUMP JUMPDEST PUSH1 0x40 MLOAD DUP1 SWAP2 SUB SWAP1 REVERT JUMPDEST PUSH1 0x0 PUSH1 0x4 DUP11 DUP2 SLOAD DUP2 LT PUSH2 0x2C4 JUMPI PUSH4 0x4E487B71 PUSH1 0xE0 SHL PUSH1 0x0 MSTORE PUSH1 0x32 PUSH1 0x4 MSTORE PUSH1 0x24 PUSH1 0x0 REVERT JUMPDEST PUSH1 0x0 SWAP2 DUP3 MSTORE PUSH1 0x20 SWAP2 DUP3 SWAP1 KECCAK256 PUSH1 0x40 DUP1 MLOAD PUSH2 0x100 DUP2 ADD DUP3 MSTORE PUSH1 0x7 SWAP1 SWAP4 MUL SWAP1 SWAP2 ADD DUP1 SLOAD DUP1 DUP5 MSTORE PUSH1 0x1 DUP3 ADD SLOAD SWAP5 DUP5 ADD DUP6 SWAP1 MSTORE PUSH1 0x2 DUP3 ADD SLOAD SWAP3 DUP5 ADD DUP4 SWAP1 MSTORE PUSH1 0x3 DUP3 ADD SLOAD PUSH1 0x60 DUP6 ADD DUP2 SWAP1 MSTORE PUSH1 0x4 DUP4 ADD SLOAD PUSH1 0x80 DUP7 ADD DUP2 SWAP1 MSTORE PUSH1 0x5 DUP5 ADD SLOAD PUSH1 0xA0 DUP8 ADD DUP2 SWAP1 MSTORE PUSH1 0x6 SWAP1 SWAP5 ADD SLOAD PUSH1 0x1 PUSH1 0x1 PUSH1 0xA0 SHL SUB DUP2 AND PUSH1 0xC0 DUP9 ADD DUP2 SWAP1 MSTORE PUSH1 0xFF PUSH1 0x1 PUSH1 0xA0 SHL SWAP1 SWAP3 DIV SWAP2 SWAP1 SWAP2 AND ISZERO ISZERO PUSH1 0xE0 SWAP1 SWAP8 ADD DUP8 SWAP1 MSTORE SWAP3 SWAP16 POP SWAP6 SWAP14 POP SWAP3 SWAP12 POP SWAP2 SWAP10 POP SWAP3 SWAP8 POP SWAP2 SWAP6 POP SWAP1 SWAP4 POP SWAP2 POP POP SWAP2 SWAP4 SWAP6 SWAP8 POP SWAP2 SWAP4 SWAP6 SWAP8 JUMP JUMPDEST PUSH1 0x3 SLOAD PUSH1 0x1 PUSH1 0x1 PUSH1 0xA0 SHL SUB AND CALLER EQ DUP1 PUSH2 0x396 JUMPI POP PUSH1 0x0 SLOAD PUSH1 0x1 PUSH1 0x1 PUSH1 0xA0 SHL SUB AND CALLER EQ JUMPDEST PUSH2 0x3B2 JUMPI PUSH1 0x40 MLOAD PUSH3 0x461BCD PUSH1 0xE5 SHL DUP2 MSTORE PUSH1 0x4 ADD PUSH2 0x298 SWAP1 PUSH2 0x1741 JUMP JUMPDEST PUSH1 0x4 SLOAD DUP3 LT PUSH2 0x3D3 JUMPI PUSH1 0x40 MLOAD PUSH3 0x461BCD PUSH1 0xE5 SHL DUP2 MSTORE PUSH1 0x4 ADD PUSH2 0x298 SWAP1 PUSH2 0x179E JUMP JUMPDEST TIMESTAMP DUP2 GT PUSH2 0x436 JUMPI PUSH1 0x40 MLOAD PUSH3 0x461BCD PUSH1 0xE5 SHL DUP2 MSTORE PUSH1 0x20 PUSH1 0x4 DUP3 ADD MSTORE PUSH1 0x38 PUSH1 0x24 DUP3 ADD MSTORE PUSH1 0x0 DUP1 MLOAD PUSH1 0x20 PUSH2 0x1891 DUP4 CODECOPY DUP2 MLOAD SWAP2 MSTORE PUSH1 0x44 DUP3 ADD MSTORE PUSH32 0x6D75737420737461727420696E20746865206675747572650000000000000000 PUSH1 0x64 DUP3 ADD MSTORE PUSH1 0x84 ADD PUSH2 0x298 JUMP JUMPDEST PUSH1 0x4 DUP3 DUP2 SLOAD DUP2 LT PUSH2 0x457 JUMPI PUSH4 0x4E487B71 PUSH1 0xE0 SHL PUSH1 0x0 MSTORE PUSH1 0x32 PUSH1 0x4 MSTORE PUSH1 0x24 PUSH1 0x0 REVERT JUMPDEST SWAP1 PUSH1 0x0 MSTORE PUSH1 0x20 PUSH1 0x0 KECCAK256 SWAP1 PUSH1 0x7 MUL ADD PUSH1 0x6 ADD PUSH1 0x14 SWAP1 SLOAD SWAP1 PUSH2 0x100 EXP SWAP1 DIV PUSH1 0xFF AND ISZERO PUSH2 0x4C4 JUMPI PUSH1 0x40 MLOAD PUSH3 0x461BCD PUSH1 0xE5 SHL DUP2 MSTORE PUSH1 0x20 PUSH1 0x4 DUP3 ADD MSTORE PUSH1 0x2A PUSH1 0x24 DUP3 ADD MSTORE PUSH1 0x0 DUP1 MLOAD PUSH1 0x20 PUSH2 0x1891 DUP4 CODECOPY DUP2 MLOAD SWAP2 MSTORE PUSH1 0x44 DUP3 ADD MSTORE PUSH10 0x1251081C995B5BDD9959 PUSH1 0xB2 SHL PUSH1 0x64 DUP3 ADD MSTORE PUSH1 0x84 ADD PUSH2 0x298 JUMP JUMPDEST PUSH32 0x2EE9904F2125DA26979BF6B3FFDFF419C60CD5B2BB1FC5BE175F8FC60218CE89 DUP3 PUSH1 0x4 DUP5 DUP2 SLOAD DUP2 LT PUSH2 0x507 JUMPI PUSH4 0x4E487B71 PUSH1 0xE0 SHL PUSH1 0x0 MSTORE PUSH1 0x32 PUSH1 0x4 MSTORE PUSH1 0x24 PUSH1 0x0 REVERT JUMPDEST PUSH1 0x0 SWAP2 DUP3 MSTORE PUSH1 0x20 SWAP2 DUP3 SWAP1 KECCAK256 PUSH1 0x4 PUSH1 0x7 SWAP1 SWAP3 MUL ADD ADD SLOAD PUSH1 0x40 DUP1 MLOAD SWAP4 DUP5 MSTORE SWAP2 DUP4 ADD MSTORE DUP2 ADD DUP4 SWAP1 MSTORE PUSH1 0x60 ADD PUSH1 0x40 MLOAD DUP1 SWAP2 SUB SWAP1 LOG1 PUSH1 0x0 PUSH2 0x57E PUSH1 0x4 DUP5 DUP2 SLOAD DUP2 LT PUSH2 0x55D JUMPI PUSH4 0x4E487B71 PUSH1 0xE0 SHL PUSH1 0x0 MSTORE PUSH1 0x32 PUSH1 0x4 MSTORE PUSH1 0x24 PUSH1 0x0 REVERT JUMPDEST SWAP1 PUSH1 0x0 MSTORE PUSH1 0x20 PUSH1 0x0 KECCAK256 SWAP1 PUSH1 0x7 MUL ADD PUSH1 0x3 ADD SLOAD DUP4 PUSH2 0x128F SWAP1 SWAP2 SWAP1 PUSH4 0xFFFFFFFF AND JUMP JUMPDEST SWAP1 POP DUP2 PUSH1 0x4 DUP5 DUP2 SLOAD DUP2 LT PUSH2 0x5A2 JUMPI PUSH4 0x4E487B71 PUSH1 0xE0 SHL PUSH1 0x0 MSTORE PUSH1 0x32 PUSH1 0x4 MSTORE PUSH1 0x24 PUSH1 0x0 REVERT JUMPDEST SWAP1 PUSH1 0x0 MSTORE PUSH1 0x20 PUSH1 0x0 KECCAK256 SWAP1 PUSH1 0x7 MUL ADD PUSH1 0x4 ADD DUP2 SWAP1 SSTORE POP DUP1 PUSH1 0x4 DUP5 DUP2 SLOAD DUP2 LT PUSH2 0x5D9 JUMPI PUSH4 0x4E487B71 PUSH1 0xE0 SHL PUSH1 0x0 MSTORE PUSH1 0x32 PUSH1 0x4 MSTORE PUSH1 0x24 PUSH1 0x0 REVERT JUMPDEST SWAP1 PUSH1 0x0 MSTORE PUSH1 0x20 PUSH1 0x0 KECCAK256 SWAP1 PUSH1 0x7 MUL ADD PUSH1 0x5 ADD DUP2 SWAP1 SSTORE POP DUP3 PUSH1 0x6 SLOAD EQ ISZERO PUSH2 0x605 JUMPI PUSH2 0x600 PUSH2 0x12F7 JUMP JUMPDEST POP POP POP JUMP JUMPDEST PUSH2 0x600 DUP4 DUP3 PUSH2 0x13E0 JUMP JUMPDEST PUSH1 0x0 DUP1 SLOAD PUSH1 0x1 PUSH1 0x1 PUSH1 0xA0 SHL SUB AND CALLER EQ PUSH2 0x63A JUMPI PUSH1 0x40 MLOAD PUSH3 0x461BCD PUSH1 0xE5 SHL DUP2 MSTORE PUSH1 0x4 ADD PUSH2 0x298 SWAP1 PUSH2 0x170C JUMP JUMPDEST PUSH1 0x64 DUP7 LT PUSH2 0x6B0 JUMPI PUSH1 0x40 MLOAD PUSH3 0x461BCD PUSH1 0xE5 SHL DUP2 MSTORE PUSH1 0x20 PUSH1 0x4 DUP3 ADD MSTORE PUSH1 0x3D PUSH1 0x24 DUP3 ADD MSTORE PUSH32 0x4D696E6F7269747956657374696E674D616E616765723A2043616E2774207665 PUSH1 0x44 DUP3 ADD MSTORE PUSH32 0x7374203E2031303025206F6620746F6B656E73207065722065706F6368000000 PUSH1 0x64 DUP3 ADD MSTORE PUSH1 0x84 ADD PUSH2 0x298 JUMP JUMPDEST TIMESTAMP DUP5 LT ISZERO DUP1 PUSH2 0x6BD JUMPI POP DUP4 ISZERO JUMPDEST PUSH2 0x72F JUMPI PUSH1 0x40 MLOAD PUSH3 0x461BCD PUSH1 0xE5 SHL DUP2 MSTORE PUSH1 0x20 PUSH1 0x4 DUP3 ADD MSTORE PUSH1 0x3F PUSH1 0x24 DUP3 ADD MSTORE PUSH32 0x4D696E6F7269747956657374696E674D616E616765723A205265776172647320 PUSH1 0x44 DUP3 ADD MSTORE PUSH32 0x63616E277420626567696E2076657374696E6720696E20746865207061737400 PUSH1 0x64 DUP3 ADD MSTORE PUSH1 0x84 ADD PUSH2 0x298 JUMP JUMPDEST PUSH1 0x1 PUSH1 0x1 PUSH1 0xA0 SHL SUB DUP4 AND PUSH2 0x7A4 JUMPI PUSH1 0x40 MLOAD PUSH3 0x461BCD PUSH1 0xE5 SHL DUP2 MSTORE PUSH1 0x20 PUSH1 0x4 DUP3 ADD MSTORE PUSH1 0x42 PUSH1 0x24 DUP3 ADD MSTORE PUSH1 0x0 DUP1 MLOAD PUSH1 0x20 PUSH2 0x1891 DUP4 CODECOPY DUP2 MLOAD SWAP2 MSTORE PUSH1 0x44 DUP3 ADD MSTORE PUSH32 0x72656365697665722063616E277420626520746865207A65726F206164647265 PUSH1 0x64 DUP3 ADD MSTORE PUSH2 0x7373 PUSH1 0xF0 SHL PUSH1 0x84 DUP3 ADD MSTORE PUSH1 0xA4 ADD PUSH2 0x298 JUMP JUMPDEST PUSH1 0x7 SLOAD PUSH1 0x0 SWAP1 PUSH2 0x7B4 SWAP1 DUP10 PUSH2 0x128F JUMP JUMPDEST SWAP1 POP DUP3 ISZERO PUSH2 0x8FE JUMPI PUSH1 0x40 MLOAD PUSH4 0x70A08231 PUSH1 0xE0 SHL DUP2 MSTORE ADDRESS PUSH1 0x4 DUP3 ADD MSTORE PUSH32 0x0 PUSH1 0x1 PUSH1 0x1 PUSH1 0xA0 SHL SUB AND SWAP1 PUSH4 0x70A08231 SWAP1 PUSH1 0x24 ADD PUSH1 0x20 PUSH1 0x40 MLOAD DUP1 DUP4 SUB DUP2 DUP7 DUP1 EXTCODESIZE ISZERO DUP1 ISZERO PUSH2 0x81B JUMPI PUSH1 0x0 DUP1 REVERT JUMPDEST POP GAS STATICCALL ISZERO DUP1 ISZERO PUSH2 0x82F JUMPI RETURNDATASIZE PUSH1 0x0 DUP1 RETURNDATACOPY RETURNDATASIZE PUSH1 0x0 REVERT JUMPDEST POP POP POP POP PUSH1 0x40 MLOAD RETURNDATASIZE PUSH1 0x1F NOT PUSH1 0x1F DUP3 ADD AND DUP3 ADD DUP1 PUSH1 0x40 MSTORE POP DUP2 ADD SWAP1 PUSH2 0x853 SWAP2 SWAP1 PUSH2 0x15DD JUMP JUMPDEST DUP2 GT ISZERO PUSH2 0x8FE JUMPI PUSH1 0x40 MLOAD PUSH3 0x461BCD PUSH1 0xE5 SHL DUP2 MSTORE PUSH1 0x20 PUSH1 0x4 DUP3 ADD MSTORE PUSH1 0x67 PUSH1 0x24 DUP3 ADD MSTORE PUSH32 0x4D696E6F7269747956657374696E674D616E616765723A204E6F7420656E6F75 PUSH1 0x44 DUP3 ADD MSTORE PUSH32 0x676820746F6B656E7320696E20636F6E747261637420746F20766573742E2054 PUSH1 0x64 DUP3 ADD MSTORE PUSH32 0x72616E7366657220746F6B656E73206265666F726520616464696E6720612073 PUSH1 0x84 DUP3 ADD MSTORE PUSH7 0x63686564756C65 PUSH1 0xC8 SHL PUSH1 0xA4 DUP3 ADD MSTORE PUSH1 0xC4 ADD PUSH2 0x298 JUMP JUMPDEST PUSH1 0x0 DUP6 ISZERO PUSH2 0x922 JUMPI PUSH2 0x91D PUSH2 0x916 DUP9 PUSH3 0x15180 PUSH2 0x1408 JUMP JUMPDEST DUP8 SWAP1 PUSH2 0x128F JUMP JUMPDEST PUSH2 0x924 JUMP JUMPDEST DUP6 JUMPDEST SWAP1 POP PUSH1 0x0 PUSH1 0x40 MLOAD DUP1 PUSH2 0x100 ADD PUSH1 0x40 MSTORE DUP1 DUP12 DUP2 MSTORE PUSH1 0x20 ADD PUSH2 0x958 PUSH1 0x64 PUSH2 0x952 DUP14 DUP16 PUSH2 0x1408 SWAP1 SWAP2 SWAP1 PUSH4 0xFFFFFFFF AND JUMP JUMPDEST SWAP1 PUSH2 0x1487 JUMP JUMPDEST DUP2 MSTORE PUSH1 0x0 PUSH1 0x20 DUP3 ADD MSTORE PUSH1 0x40 ADD PUSH2 0x971 DUP11 PUSH3 0x15180 PUSH2 0x1408 JUMP JUMPDEST DUP2 MSTORE PUSH1 0x20 DUP1 DUP3 ADD DUP11 SWAP1 MSTORE PUSH1 0x40 DUP1 DUP4 ADD DUP7 SWAP1 MSTORE PUSH1 0x1 PUSH1 0x1 PUSH1 0xA0 SHL SUB DUP1 DUP12 AND PUSH1 0x60 DUP1 DUP7 ADD SWAP2 SWAP1 SWAP2 MSTORE PUSH1 0x0 PUSH1 0x80 SWAP6 DUP7 ADD DUP2 SWAP1 MSTORE PUSH1 0x4 DUP1 SLOAD PUSH1 0x1 DUP2 DUP2 ADD DUP4 SSTORE DUP3 DUP5 MSTORE DUP10 MLOAD PUSH1 0x7 SWAP3 DUP4 MUL PUSH32 0x8A35ACFBC15FF81A39AE7D344FD709F28E8600B4AA8C65C6B64BFE7FE36BD19B DUP2 ADD SWAP2 SWAP1 SWAP2 SSTORE SWAP8 DUP11 ADD MLOAD PUSH32 0x8A35ACFBC15FF81A39AE7D344FD709F28E8600B4AA8C65C6B64BFE7FE36BD19C DUP10 ADD SSTORE SWAP6 DUP10 ADD MLOAD PUSH32 0x8A35ACFBC15FF81A39AE7D344FD709F28E8600B4AA8C65C6B64BFE7FE36BD19D DUP9 ADD SSTORE SWAP3 DUP9 ADD MLOAD PUSH32 0x8A35ACFBC15FF81A39AE7D344FD709F28E8600B4AA8C65C6B64BFE7FE36BD19E DUP8 ADD SSTORE SWAP6 DUP8 ADD MLOAD PUSH32 0x8A35ACFBC15FF81A39AE7D344FD709F28E8600B4AA8C65C6B64BFE7FE36BD19F DUP7 ADD SSTORE PUSH1 0xA0 DUP8 ADD MLOAD PUSH32 0x8A35ACFBC15FF81A39AE7D344FD709F28E8600B4AA8C65C6B64BFE7FE36BD1A0 DUP7 ADD SSTORE PUSH1 0xC0 DUP8 ADD MLOAD PUSH32 0x8A35ACFBC15FF81A39AE7D344FD709F28E8600B4AA8C65C6B64BFE7FE36BD1A1 SWAP1 SWAP6 ADD DUP1 SLOAD PUSH1 0xE0 DUP10 ADD MLOAD ISZERO ISZERO PUSH1 0x1 PUSH1 0xA0 SHL MUL PUSH1 0x1 PUSH1 0x1 PUSH1 0xA8 SHL SUB NOT SWAP1 SWAP2 AND SWAP7 SWAP1 SWAP5 AND SWAP6 SWAP1 SWAP6 OR SWAP3 SWAP1 SWAP3 OR SWAP1 SWAP4 SSTORE SWAP2 DUP8 SWAP1 SSTORE SWAP2 SLOAD SWAP3 SWAP4 POP SWAP2 PUSH2 0xB0D SWAP2 SWAP1 PUSH2 0x1837 JUMP JUMPDEST SWAP1 POP PUSH2 0xB19 DUP2 DUP5 PUSH2 0x13E0 JUMP JUMPDEST DUP2 MLOAD PUSH1 0x20 DUP1 DUP5 ADD MLOAD PUSH1 0x60 DUP1 DUP7 ADD MLOAD PUSH1 0x80 DUP1 DUP9 ADD MLOAD PUSH1 0xA0 DUP1 DUP11 ADD MLOAD PUSH1 0xC0 DUP1 DUP13 ADD MLOAD PUSH1 0x40 DUP1 MLOAD DUP14 DUP2 MSTORE SWAP11 DUP12 ADD SWAP12 SWAP1 SWAP12 MSTORE DUP10 DUP12 ADD SWAP9 SWAP1 SWAP9 MSTORE SWAP6 DUP9 ADD SWAP5 SWAP1 SWAP5 MSTORE SWAP2 DUP7 ADD MSTORE DUP5 ADD MSTORE PUSH1 0x1 PUSH1 0x1 PUSH1 0xA0 SHL SUB SWAP1 SWAP2 AND SWAP1 DUP3 ADD MSTORE SWAP1 MLOAD PUSH32 0xFF7D5B9238FDF530D746EA0E1B517671E3E0FD1414A36E69A57867DC707DC65A SWAP2 DUP2 SWAP1 SUB PUSH1 0xE0 ADD SWAP1 LOG1 SWAP11 SWAP10 POP POP POP POP POP POP POP POP POP POP JUMP JUMPDEST PUSH1 0x4 DUP2 DUP2 SLOAD DUP2 LT PUSH2 0xBB5 JUMPI PUSH1 0x0 DUP1 REVERT JUMPDEST PUSH1 0x0 SWAP2 DUP3 MSTORE PUSH1 0x20 SWAP1 SWAP2 KECCAK256 PUSH1 0x7 SWAP1 SWAP2 MUL ADD DUP1 SLOAD PUSH1 0x1 DUP3 ADD SLOAD PUSH1 0x2 DUP4 ADD SLOAD PUSH1 0x3 DUP5 ADD SLOAD PUSH1 0x4 DUP6 ADD SLOAD PUSH1 0x5 DUP7 ADD SLOAD PUSH1 0x6 SWAP1 SWAP7 ADD SLOAD SWAP5 SWAP7 POP SWAP3 SWAP5 SWAP2 SWAP4 SWAP1 SWAP3 SWAP2 SWAP1 PUSH1 0x1 PUSH1 0x1 PUSH1 0xA0 SHL SUB DUP2 AND SWAP1 PUSH1 0x1 PUSH1 0xA0 SHL SWAP1 DIV PUSH1 0xFF AND DUP9 JUMP JUMPDEST PUSH1 0x0 SLOAD PUSH1 0x1 PUSH1 0x1 PUSH1 0xA0 SHL SUB AND CALLER EQ PUSH2 0xC33 JUMPI PUSH1 0x40 MLOAD PUSH3 0x461BCD PUSH1 0xE5 SHL DUP2 MSTORE PUSH1 0x4 ADD PUSH2 0x298 SWAP1 PUSH2 0x170C JUMP JUMPDEST PUSH1 0x0 DUP1 SLOAD PUSH1 0x40 MLOAD PUSH1 0x1 PUSH1 0x1 PUSH1 0xA0 SHL SUB SWAP1 SWAP2 AND SWAP1 PUSH32 0x8BE0079C531659141344CD1FD0A4F28419497F9722A3DAAFE3B4186F6B6457E0 SWAP1 DUP4 SWAP1 LOG3 PUSH1 0x0 DUP1 SLOAD PUSH1 0x1 PUSH1 0x1 PUSH1 0xA0 SHL SUB NOT AND SWAP1 SSTORE JUMP JUMPDEST TIMESTAMP PUSH1 0x5 SLOAD GT ISZERO DUP1 ISZERO PUSH2 0xC90 JUMPI POP PUSH1 0x5 SLOAD ISZERO ISZERO JUMPDEST ISZERO PUSH2 0xF43 JUMPI PUSH1 0x0 PUSH1 0x4 PUSH1 0x6 SLOAD DUP2 SLOAD DUP2 LT PUSH2 0xCBA JUMPI PUSH4 0x4E487B71 PUSH1 0xE0 SHL PUSH1 0x0 MSTORE PUSH1 0x32 PUSH1 0x4 MSTORE PUSH1 0x24 PUSH1 0x0 REVERT JUMPDEST PUSH1 0x0 SWAP2 DUP3 MSTORE PUSH1 0x20 DUP1 DUP4 KECCAK256 PUSH1 0x40 DUP1 MLOAD PUSH2 0x100 DUP2 ADD DUP3 MSTORE PUSH1 0x7 SWAP1 SWAP5 MUL SWAP1 SWAP2 ADD DUP1 SLOAD DUP5 MSTORE PUSH1 0x1 DUP2 ADD SLOAD SWAP3 DUP5 ADD SWAP3 SWAP1 SWAP3 MSTORE PUSH1 0x2 DUP3 ADD SLOAD SWAP1 DUP4 ADD MSTORE PUSH1 0x3 DUP2 ADD SLOAD PUSH1 0x60 DUP4 ADD DUP2 SWAP1 MSTORE PUSH1 0x4 DUP3 ADD SLOAD PUSH1 0x80 DUP5 ADD MSTORE PUSH1 0x5 DUP3 ADD SLOAD PUSH1 0xA0 DUP5 ADD MSTORE PUSH1 0x6 SWAP1 SWAP2 ADD SLOAD PUSH1 0x1 PUSH1 0x1 PUSH1 0xA0 SHL SUB DUP2 AND PUSH1 0xC0 DUP5 ADD MSTORE PUSH1 0xFF PUSH1 0x1 PUSH1 0xA0 SHL SWAP1 SWAP2 DIV AND ISZERO ISZERO PUSH1 0xE0 DUP4 ADD MSTORE SWAP1 SWAP3 POP PUSH2 0xD44 SWAP1 TIMESTAMP PUSH2 0x128F JUMP JUMPDEST PUSH1 0x5 DUP2 SWAP1 SSTORE PUSH1 0x20 DUP4 ADD MLOAD DUP4 MLOAD PUSH1 0x40 DUP6 ADD MLOAD SWAP3 SWAP4 POP SWAP1 SWAP2 PUSH2 0xD64 SWAP1 DUP4 PUSH2 0x128F JUMP JUMPDEST GT ISZERO PUSH2 0xDBF JUMPI PUSH1 0x40 DUP4 ADD MLOAD DUP4 MLOAD PUSH2 0xD7A SWAP2 PUSH2 0x14C9 JUMP JUMPDEST SWAP1 POP PUSH1 0x0 PUSH1 0x4 PUSH1 0x6 SLOAD DUP2 SLOAD DUP2 LT PUSH2 0xDA1 JUMPI PUSH4 0x4E487B71 PUSH1 0xE0 SHL PUSH1 0x0 MSTORE PUSH1 0x32 PUSH1 0x4 MSTORE PUSH1 0x24 PUSH1 0x0 REVERT JUMPDEST PUSH1 0x0 SWAP2 DUP3 MSTORE PUSH1 0x20 DUP3 KECCAK256 PUSH1 0x5 PUSH1 0x7 SWAP1 SWAP3 MUL ADD DUP2 ADD SWAP3 SWAP1 SWAP3 SSTORE SWAP1 SSTORE PUSH2 0xDF9 JUMP JUMPDEST DUP2 PUSH1 0x4 PUSH1 0x6 SLOAD DUP2 SLOAD DUP2 LT PUSH2 0xDE3 JUMPI PUSH4 0x4E487B71 PUSH1 0xE0 SHL PUSH1 0x0 MSTORE PUSH1 0x32 PUSH1 0x4 MSTORE PUSH1 0x24 PUSH1 0x0 REVERT JUMPDEST SWAP1 PUSH1 0x0 MSTORE PUSH1 0x20 PUSH1 0x0 KECCAK256 SWAP1 PUSH1 0x7 MUL ADD PUSH1 0x5 ADD DUP2 SWAP1 SSTORE POP JUMPDEST PUSH1 0x40 DUP4 ADD MLOAD PUSH2 0xE08 SWAP1 DUP3 PUSH2 0x128F JUMP JUMPDEST PUSH1 0x4 PUSH1 0x6 SLOAD DUP2 SLOAD DUP2 LT PUSH2 0xE2B JUMPI PUSH4 0x4E487B71 PUSH1 0xE0 SHL PUSH1 0x0 MSTORE PUSH1 0x32 PUSH1 0x4 MSTORE PUSH1 0x24 PUSH1 0x0 REVERT JUMPDEST PUSH1 0x0 SWAP2 DUP3 MSTORE PUSH1 0x20 SWAP1 SWAP2 KECCAK256 PUSH1 0x7 SWAP1 SWAP2 MUL ADD PUSH1 0x2 ADD SSTORE PUSH1 0xC0 DUP4 ADD MLOAD PUSH1 0x40 MLOAD PUSH4 0xA9059CBB PUSH1 0xE0 SHL DUP2 MSTORE PUSH1 0x1 PUSH1 0x1 PUSH1 0xA0 SHL SUB SWAP2 DUP3 AND PUSH1 0x4 DUP3 ADD MSTORE PUSH1 0x24 DUP2 ADD DUP4 SWAP1 MSTORE PUSH32 0x0 SWAP1 SWAP2 AND SWAP1 PUSH4 0xA9059CBB SWAP1 PUSH1 0x44 ADD PUSH1 0x20 PUSH1 0x40 MLOAD DUP1 DUP4 SUB DUP2 PUSH1 0x0 DUP8 DUP1 EXTCODESIZE ISZERO DUP1 ISZERO PUSH2 0xEB0 JUMPI PUSH1 0x0 DUP1 REVERT JUMPDEST POP GAS CALL ISZERO DUP1 ISZERO PUSH2 0xEC4 JUMPI RETURNDATASIZE PUSH1 0x0 DUP1 RETURNDATACOPY RETURNDATASIZE PUSH1 0x0 REVERT JUMPDEST POP POP POP POP PUSH1 0x40 MLOAD RETURNDATASIZE PUSH1 0x1F NOT PUSH1 0x1F DUP3 ADD AND DUP3 ADD DUP1 PUSH1 0x40 MSTORE POP DUP2 ADD SWAP1 PUSH2 0xEE8 SWAP2 SWAP1 PUSH2 0x15A9 JUMP JUMPDEST POP DUP3 PUSH1 0xC0 ADD MLOAD PUSH1 0x1 PUSH1 0x1 PUSH1 0xA0 SHL SUB AND PUSH32 0xD02FE226269DCD9A9E174EF0DD99B931A3F1475CE6BCEEB671B2F45B4AA1CCCE PUSH1 0x6 SLOAD DUP4 PUSH1 0x40 MLOAD PUSH2 0xF33 SWAP3 SWAP2 SWAP1 SWAP2 DUP3 MSTORE PUSH1 0x20 DUP3 ADD MSTORE PUSH1 0x40 ADD SWAP1 JUMP JUMPDEST PUSH1 0x40 MLOAD DUP1 SWAP2 SUB SWAP1 LOG2 PUSH2 0x600 PUSH2 0x12F7 JUMP JUMPDEST JUMP JUMPDEST PUSH1 0x3 SLOAD PUSH1 0x1 PUSH1 0x1 PUSH1 0xA0 SHL SUB AND CALLER EQ DUP1 PUSH2 0xF68 JUMPI POP PUSH1 0x0 SLOAD PUSH1 0x1 PUSH1 0x1 PUSH1 0xA0 SHL SUB AND CALLER EQ JUMPDEST PUSH2 0xF84 JUMPI PUSH1 0x40 MLOAD PUSH3 0x461BCD PUSH1 0xE5 SHL DUP2 MSTORE PUSH1 0x4 ADD PUSH2 0x298 SWAP1 PUSH2 0x1741 JUMP JUMPDEST PUSH1 0x4 SLOAD DUP2 LT PUSH2 0xFA5 JUMPI PUSH1 0x40 MLOAD PUSH3 0x461BCD PUSH1 0xE5 SHL DUP2 MSTORE PUSH1 0x4 ADD PUSH2 0x298 SWAP1 PUSH2 0x179E JUMP JUMPDEST PUSH1 0x4 DUP2 DUP2 SLOAD DUP2 LT PUSH2 0xFC6 JUMPI PUSH4 0x4E487B71 PUSH1 0xE0 SHL PUSH1 0x0 MSTORE PUSH1 0x32 PUSH1 0x4 MSTORE PUSH1 0x24 PUSH1 0x0 REVERT JUMPDEST SWAP1 PUSH1 0x0 MSTORE PUSH1 0x20 PUSH1 0x0 KECCAK256 SWAP1 PUSH1 0x7 MUL ADD PUSH1 0x6 ADD PUSH1 0x14 SWAP1 SLOAD SWAP1 PUSH2 0x100 EXP SWAP1 DIV PUSH1 0xFF AND ISZERO PUSH2 0x103B JUMPI PUSH1 0x40 MLOAD PUSH3 0x461BCD PUSH1 0xE5 SHL DUP2 MSTORE PUSH1 0x20 PUSH1 0x4 DUP3 ADD MSTORE PUSH1 0x32 PUSH1 0x24 DUP3 ADD MSTORE PUSH1 0x0 DUP1 MLOAD PUSH1 0x20 PUSH2 0x1891 DUP4 CODECOPY DUP2 MLOAD SWAP2 MSTORE PUSH1 0x44 DUP3 ADD MSTORE PUSH18 0x125108185B1C9958591E481C995B5BDD9959 PUSH1 0x72 SHL PUSH1 0x64 DUP3 ADD MSTORE PUSH1 0x84 ADD PUSH2 0x298 JUMP JUMPDEST PUSH1 0x1 PUSH1 0x4 DUP3 DUP2 SLOAD DUP2 LT PUSH2 0x105E JUMPI PUSH4 0x4E487B71 PUSH1 0xE0 SHL PUSH1 0x0 MSTORE PUSH1 0x32 PUSH1 0x4 MSTORE PUSH1 0x24 PUSH1 0x0 REVERT JUMPDEST SWAP1 PUSH1 0x0 MSTORE PUSH1 0x20 PUSH1 0x0 KECCAK256 SWAP1 PUSH1 0x7 MUL ADD PUSH1 0x6 ADD PUSH1 0x14 PUSH2 0x100 EXP DUP2 SLOAD DUP2 PUSH1 0xFF MUL NOT AND SWAP1 DUP4 ISZERO ISZERO MUL OR SWAP1 SSTORE POP PUSH2 0x10FF PUSH1 0x4 DUP3 DUP2 SLOAD DUP2 LT PUSH2 0x10AA JUMPI PUSH4 0x4E487B71 PUSH1 0xE0 SHL PUSH1 0x0 MSTORE PUSH1 0x32 PUSH1 0x4 MSTORE PUSH1 0x24 PUSH1 0x0 REVERT JUMPDEST SWAP1 PUSH1 0x0 MSTORE PUSH1 0x20 PUSH1 0x0 KECCAK256 SWAP1 PUSH1 0x7 MUL ADD PUSH1 0x2 ADD SLOAD PUSH2 0x10F9 PUSH1 0x4 DUP5 DUP2 SLOAD DUP2 LT PUSH2 0x10E0 JUMPI PUSH4 0x4E487B71 PUSH1 0xE0 SHL PUSH1 0x0 MSTORE PUSH1 0x32 PUSH1 0x4 MSTORE PUSH1 0x24 PUSH1 0x0 REVERT JUMPDEST PUSH1 0x0 SWAP2 DUP3 MSTORE PUSH1 0x20 SWAP1 SWAP2 KECCAK256 PUSH1 0x7 SWAP2 DUP3 MUL ADD SLOAD SWAP1 SLOAD SWAP1 PUSH2 0x14C9 JUMP JUMPDEST SWAP1 PUSH2 0x128F JUMP JUMPDEST PUSH1 0x7 SSTORE PUSH1 0x6 SLOAD DUP2 EQ ISZERO PUSH2 0x1114 JUMPI PUSH2 0x1114 PUSH2 0x12F7 JUMP JUMPDEST PUSH1 0x40 MLOAD DUP2 DUP2 MSTORE PUSH32 0x3A9782B2E3F78DEE6DE9B41F31D0F34064EE9D7BD4A79E5E3F7E0C1CA528BBA3 SWAP1 PUSH1 0x20 ADD PUSH1 0x40 MLOAD DUP1 SWAP2 SUB SWAP1 LOG1 POP JUMP JUMPDEST PUSH1 0x3 SLOAD PUSH1 0x0 SWAP1 PUSH1 0x1 PUSH1 0x1 PUSH1 0xA0 SHL SUB AND CALLER EQ DUP1 PUSH2 0x1170 JUMPI POP PUSH1 0x0 SLOAD PUSH1 0x1 PUSH1 0x1 PUSH1 0xA0 SHL SUB AND CALLER EQ JUMPDEST PUSH2 0x118C JUMPI PUSH1 0x40 MLOAD PUSH3 0x461BCD PUSH1 0xE5 SHL DUP2 MSTORE PUSH1 0x4 ADD PUSH2 0x298 SWAP1 PUSH2 0x1741 JUMP JUMPDEST PUSH2 0x119B DUP7 DUP7 DUP7 DUP7 DUP7 PUSH1 0x1 PUSH2 0x60F JUMP JUMPDEST SWAP7 SWAP6 POP POP POP POP POP POP JUMP JUMPDEST PUSH1 0x0 SLOAD PUSH1 0x1 PUSH1 0x1 PUSH1 0xA0 SHL SUB AND CALLER EQ PUSH2 0x11CF JUMPI PUSH1 0x40 MLOAD PUSH3 0x461BCD PUSH1 0xE5 SHL DUP2 MSTORE PUSH1 0x4 ADD PUSH2 0x298 SWAP1 PUSH2 0x170C JUMP JUMPDEST PUSH1 0x1 PUSH1 0x1 PUSH1 0xA0 SHL SUB DUP2 AND PUSH2 0x1234 JUMPI PUSH1 0x40 MLOAD PUSH3 0x461BCD PUSH1 0xE5 SHL DUP2 MSTORE PUSH1 0x20 PUSH1 0x4 DUP3 ADD MSTORE PUSH1 0x26 PUSH1 0x24 DUP3 ADD MSTORE PUSH32 0x4F776E61626C653A206E6577206F776E657220697320746865207A65726F2061 PUSH1 0x44 DUP3 ADD MSTORE PUSH6 0x646472657373 PUSH1 0xD0 SHL PUSH1 0x64 DUP3 ADD MSTORE PUSH1 0x84 ADD PUSH2 0x298 JUMP JUMPDEST PUSH1 0x0 DUP1 SLOAD PUSH1 0x40 MLOAD PUSH1 0x1 PUSH1 0x1 PUSH1 0xA0 SHL SUB DUP1 DUP6 AND SWAP4 SWAP3 AND SWAP2 PUSH32 0x8BE0079C531659141344CD1FD0A4F28419497F9722A3DAAFE3B4186F6B6457E0 SWAP2 LOG3 PUSH1 0x0 DUP1 SLOAD PUSH1 0x1 PUSH1 0x1 PUSH1 0xA0 SHL SUB NOT AND PUSH1 0x1 PUSH1 0x1 PUSH1 0xA0 SHL SUB SWAP3 SWAP1 SWAP3 AND SWAP2 SWAP1 SWAP2 OR SWAP1 SSTORE JUMP JUMPDEST PUSH1 0x0 DUP1 PUSH2 0x129C DUP4 DUP6 PUSH2 0x17E0 JUMP JUMPDEST SWAP1 POP DUP4 DUP2 LT ISZERO PUSH2 0x12EE JUMPI PUSH1 0x40 MLOAD PUSH3 0x461BCD PUSH1 0xE5 SHL DUP2 MSTORE PUSH1 0x20 PUSH1 0x4 DUP3 ADD MSTORE PUSH1 0x1B PUSH1 0x24 DUP3 ADD MSTORE PUSH32 0x536166654D6174683A206164646974696F6E206F766572666C6F770000000000 PUSH1 0x44 DUP3 ADD MSTORE PUSH1 0x64 ADD PUSH2 0x298 JUMP JUMPDEST SWAP1 POP JUMPDEST SWAP3 SWAP2 POP POP JUMP JUMPDEST PUSH1 0x4 SLOAD PUSH1 0x0 JUMPDEST DUP2 DUP2 LT ISZERO PUSH2 0x13DC JUMPI PUSH1 0x6 SLOAD DUP2 EQ ISZERO DUP1 ISZERO PUSH2 0x1354 JUMPI POP PUSH1 0x4 DUP2 DUP2 SLOAD DUP2 LT PUSH2 0x1333 JUMPI PUSH4 0x4E487B71 PUSH1 0xE0 SHL PUSH1 0x0 MSTORE PUSH1 0x32 PUSH1 0x4 MSTORE PUSH1 0x24 PUSH1 0x0 REVERT JUMPDEST SWAP1 PUSH1 0x0 MSTORE PUSH1 0x20 PUSH1 0x0 KECCAK256 SWAP1 PUSH1 0x7 MUL ADD PUSH1 0x6 ADD PUSH1 0x14 SWAP1 SLOAD SWAP1 PUSH2 0x100 EXP SWAP1 DIV PUSH1 0xFF AND ISZERO JUMPDEST ISZERO PUSH2 0x13CA JUMPI PUSH1 0x0 PUSH1 0x4 DUP3 DUP2 SLOAD DUP2 LT PUSH2 0x137C JUMPI PUSH4 0x4E487B71 PUSH1 0xE0 SHL PUSH1 0x0 MSTORE PUSH1 0x32 PUSH1 0x4 MSTORE PUSH1 0x24 PUSH1 0x0 REVERT JUMPDEST SWAP1 PUSH1 0x0 MSTORE PUSH1 0x20 PUSH1 0x0 KECCAK256 SWAP1 PUSH1 0x7 MUL ADD PUSH1 0x5 ADD SLOAD SWAP1 POP DUP1 PUSH1 0x0 EQ PUSH2 0x13C8 JUMPI TIMESTAMP DUP2 GT PUSH2 0x13A8 JUMPI PUSH1 0x5 SSTORE PUSH1 0x6 SSTORE POP JUMP JUMPDEST PUSH1 0x5 SLOAD DUP2 LT DUP1 PUSH2 0x13B8 JUMPI POP PUSH1 0x5 SLOAD ISZERO JUMPDEST ISZERO PUSH2 0x13C8 JUMPI PUSH1 0x5 DUP2 SWAP1 SSTORE PUSH1 0x6 DUP3 SWAP1 SSTORE JUMPDEST POP JUMPDEST DUP1 PUSH2 0x13D4 DUP2 PUSH2 0x184E JUMP JUMPDEST SWAP2 POP POP PUSH2 0x12FD JUMP JUMPDEST POP POP JUMP JUMPDEST PUSH1 0x5 SLOAD DUP2 LT DUP1 PUSH2 0x13F0 JUMPI POP PUSH1 0x5 SLOAD ISZERO JUMPDEST DUP1 ISZERO PUSH2 0x13FB JUMPI POP DUP1 ISZERO ISZERO JUMPDEST ISZERO PUSH2 0x13DC JUMPI PUSH1 0x5 SSTORE PUSH1 0x6 SSTORE JUMP JUMPDEST PUSH1 0x0 DUP3 PUSH2 0x1417 JUMPI POP PUSH1 0x0 PUSH2 0x12F1 JUMP JUMPDEST PUSH1 0x0 PUSH2 0x1423 DUP4 DUP6 PUSH2 0x1818 JUMP JUMPDEST SWAP1 POP DUP3 PUSH2 0x1430 DUP6 DUP4 PUSH2 0x17F8 JUMP JUMPDEST EQ PUSH2 0x12EE JUMPI PUSH1 0x40 MLOAD PUSH3 0x461BCD PUSH1 0xE5 SHL DUP2 MSTORE PUSH1 0x20 PUSH1 0x4 DUP3 ADD MSTORE PUSH1 0x21 PUSH1 0x24 DUP3 ADD MSTORE PUSH32 0x536166654D6174683A206D756C7469706C69636174696F6E206F766572666C6F PUSH1 0x44 DUP3 ADD MSTORE PUSH1 0x77 PUSH1 0xF8 SHL PUSH1 0x64 DUP3 ADD MSTORE PUSH1 0x84 ADD PUSH2 0x298 JUMP JUMPDEST PUSH1 0x0 PUSH2 0x12EE DUP4 DUP4 PUSH1 0x40 MLOAD DUP1 PUSH1 0x40 ADD PUSH1 0x40 MSTORE DUP1 PUSH1 0x1A DUP2 MSTORE PUSH1 0x20 ADD PUSH32 0x536166654D6174683A206469766973696F6E206279207A65726F000000000000 DUP2 MSTORE POP PUSH2 0x150B JUMP JUMPDEST PUSH1 0x0 PUSH2 0x12EE DUP4 DUP4 PUSH1 0x40 MLOAD DUP1 PUSH1 0x40 ADD PUSH1 0x40 MSTORE DUP1 PUSH1 0x1E DUP2 MSTORE PUSH1 0x20 ADD PUSH32 0x536166654D6174683A207375627472616374696F6E206F766572666C6F770000 DUP2 MSTORE POP PUSH2 0x1542 JUMP JUMPDEST PUSH1 0x0 DUP2 DUP4 PUSH2 0x152C JUMPI PUSH1 0x40 MLOAD PUSH3 0x461BCD PUSH1 0xE5 SHL DUP2 MSTORE PUSH1 0x4 ADD PUSH2 0x298 SWAP2 SWAP1 PUSH2 0x16B9 JUMP JUMPDEST POP PUSH1 0x0 PUSH2 0x1539 DUP5 DUP7 PUSH2 0x17F8 JUMP JUMPDEST SWAP6 SWAP5 POP POP POP POP POP JUMP JUMPDEST PUSH1 0x0 DUP2 DUP5 DUP5 GT ISZERO PUSH2 0x1566 JUMPI PUSH1 0x40 MLOAD PUSH3 0x461BCD PUSH1 0xE5 SHL DUP2 MSTORE PUSH1 0x4 ADD PUSH2 0x298 SWAP2 SWAP1 PUSH2 0x16B9 JUMP JUMPDEST POP PUSH1 0x0 PUSH2 0x1539 DUP5 DUP7 PUSH2 0x1837 JUMP JUMPDEST DUP1 CALLDATALOAD PUSH1 0x1 PUSH1 0x1 PUSH1 0xA0 SHL SUB DUP2 AND DUP2 EQ PUSH2 0x158A JUMPI PUSH1 0x0 DUP1 REVERT JUMPDEST SWAP2 SWAP1 POP JUMP JUMPDEST PUSH1 0x0 PUSH1 0x20 DUP3 DUP5 SUB SLT ISZERO PUSH2 0x15A0 JUMPI DUP1 DUP2 REVERT JUMPDEST PUSH2 0x12EE DUP3 PUSH2 0x1573 JUMP JUMPDEST PUSH1 0x0 PUSH1 0x20 DUP3 DUP5 SUB SLT ISZERO PUSH2 0x15BA JUMPI DUP1 DUP2 REVERT JUMPDEST DUP2 MLOAD PUSH2 0x12EE DUP2 PUSH2 0x187F JUMP JUMPDEST PUSH1 0x0 PUSH1 0x20 DUP3 DUP5 SUB SLT ISZERO PUSH2 0x15D6 JUMPI DUP1 DUP2 REVERT JUMPDEST POP CALLDATALOAD SWAP2 SWAP1 POP JUMP JUMPDEST PUSH1 0x0 PUSH1 0x20 DUP3 DUP5 SUB SLT ISZERO PUSH2 0x15EE JUMPI DUP1 DUP2 REVERT JUMPDEST POP MLOAD SWAP2 SWAP1 POP JUMP JUMPDEST PUSH1 0x0 DUP1 PUSH1 0x40 DUP4 DUP6 SUB SLT ISZERO PUSH2 0x1607 JUMPI DUP1 DUP2 REVERT JUMPDEST POP POP DUP1 CALLDATALOAD SWAP3 PUSH1 0x20 SWAP1 SWAP2 ADD CALLDATALOAD SWAP2 POP JUMP JUMPDEST PUSH1 0x0 DUP1 PUSH1 0x0 DUP1 PUSH1 0x0 PUSH1 0xA0 DUP7 DUP9 SUB SLT ISZERO PUSH2 0x162D JUMPI DUP1 DUP2 REVERT JUMPDEST DUP6 CALLDATALOAD SWAP5 POP PUSH1 0x20 DUP7 ADD CALLDATALOAD SWAP4 POP PUSH1 0x40 DUP7 ADD CALLDATALOAD SWAP3 POP PUSH1 0x60 DUP7 ADD CALLDATALOAD SWAP2 POP PUSH2 0x1652 PUSH1 0x80 DUP8 ADD PUSH2 0x1573 JUMP JUMPDEST SWAP1 POP SWAP3 SWAP6 POP SWAP3 SWAP6 SWAP1 SWAP4 POP JUMP JUMPDEST PUSH1 0x0 DUP1 PUSH1 0x0 DUP1 PUSH1 0x0 DUP1 PUSH1 0xC0 DUP8 DUP10 SUB SLT ISZERO PUSH2 0x1676 JUMPI DUP1 DUP2 REVERT JUMPDEST DUP7 CALLDATALOAD SWAP6 POP PUSH1 0x20 DUP8 ADD CALLDATALOAD SWAP5 POP PUSH1 0x40 DUP8 ADD CALLDATALOAD SWAP4 POP PUSH1 0x60 DUP8 ADD CALLDATALOAD SWAP3 POP PUSH2 0x169B PUSH1 0x80 DUP9 ADD PUSH2 0x1573 JUMP JUMPDEST SWAP2 POP PUSH1 0xA0 DUP8 ADD CALLDATALOAD PUSH2 0x16AB DUP2 PUSH2 0x187F JUMP JUMPDEST DUP1 SWAP2 POP POP SWAP3 SWAP6 POP SWAP3 SWAP6 POP SWAP3 SWAP6 JUMP JUMPDEST PUSH1 0x0 PUSH1 0x20 DUP1 DUP4 MSTORE DUP4 MLOAD DUP1 DUP3 DUP6 ADD MSTORE DUP3 JUMPDEST DUP2 DUP2 LT ISZERO PUSH2 0x16E5 JUMPI DUP6 DUP2 ADD DUP4 ADD MLOAD DUP6 DUP3 ADD PUSH1 0x40 ADD MSTORE DUP3 ADD PUSH2 0x16C9 JUMP JUMPDEST DUP2 DUP2 GT ISZERO PUSH2 0x16F6 JUMPI DUP4 PUSH1 0x40 DUP4 DUP8 ADD ADD MSTORE JUMPDEST POP PUSH1 0x1F ADD PUSH1 0x1F NOT AND SWAP3 SWAP1 SWAP3 ADD PUSH1 0x40 ADD SWAP4 SWAP3 POP POP POP JUMP JUMPDEST PUSH1 0x20 DUP1 DUP3 MSTORE DUP2 DUP2 ADD MSTORE PUSH32 0x4F776E61626C653A2063616C6C6572206973206E6F7420746865206F776E6572 PUSH1 0x40 DUP3 ADD MSTORE PUSH1 0x60 ADD SWAP1 JUMP JUMPDEST PUSH1 0x20 DUP1 DUP3 MSTORE PUSH1 0x3C SWAP1 DUP3 ADD MSTORE PUSH32 0x4D696E6F7269747956657374696E674D616E616765723A206F6E6C7920616363 PUSH1 0x40 DUP3 ADD MSTORE PUSH32 0x65737369626C65206279206F70657261746F72206F72206F776E657200000000 PUSH1 0x60 DUP3 ADD MSTORE PUSH1 0x80 ADD SWAP1 JUMP JUMPDEST PUSH1 0x20 DUP1 DUP3 MSTORE PUSH1 0x22 SWAP1 DUP3 ADD MSTORE PUSH32 0x4D696E6F7269747956657374696E674D616E616765723A20696E76616C696420 PUSH1 0x40 DUP3 ADD MSTORE PUSH2 0x1251 PUSH1 0xF2 SHL PUSH1 0x60 DUP3 ADD MSTORE PUSH1 0x80 ADD SWAP1 JUMP JUMPDEST PUSH1 0x0 DUP3 NOT DUP3 GT ISZERO PUSH2 0x17F3 JUMPI PUSH2 0x17F3 PUSH2 0x1869 JUMP JUMPDEST POP ADD SWAP1 JUMP JUMPDEST PUSH1 0x0 DUP3 PUSH2 0x1813 JUMPI PUSH4 0x4E487B71 PUSH1 0xE0 SHL DUP2 MSTORE PUSH1 0x12 PUSH1 0x4 MSTORE PUSH1 0x24 DUP2 REVERT JUMPDEST POP DIV SWAP1 JUMP JUMPDEST PUSH1 0x0 DUP2 PUSH1 0x0 NOT DIV DUP4 GT DUP3 ISZERO ISZERO AND ISZERO PUSH2 0x1832 JUMPI PUSH2 0x1832 PUSH2 0x1869 JUMP JUMPDEST POP MUL SWAP1 JUMP JUMPDEST PUSH1 0x0 DUP3 DUP3 LT ISZERO PUSH2 0x1849 JUMPI PUSH2 0x1849 PUSH2 0x1869 JUMP JUMPDEST POP SUB SWAP1 JUMP JUMPDEST PUSH1 0x0 PUSH1 0x0 NOT DUP3 EQ ISZERO PUSH2 0x1862 JUMPI PUSH2 0x1862 PUSH2 0x1869 JUMP JUMPDEST POP PUSH1 0x1 ADD SWAP1 JUMP JUMPDEST PUSH4 0x4E487B71 PUSH1 0xE0 SHL PUSH1 0x0 MSTORE PUSH1 0x11 PUSH1 0x4 MSTORE PUSH1 0x24 PUSH1 0x0 REVERT JUMPDEST DUP1 ISZERO ISZERO DUP2 EQ PUSH2 0x188D JUMPI PUSH1 0x0 DUP1 REVERT JUMPDEST POP JUMP INVALID 0x4D PUSH10 0x6E6F7269747956657374 PUSH10 0x6E674D616E616765723A KECCAK256 PUSH23 0x657374696E6720A2646970667358221220DA48155C03D9 0xB8 CODESIZE RETURN 0xD9 DUP7 DUP7 SELFDESTRUCT PUSH7 0xA4657208D7D5EC 0xC0 TIMESTAMP MSTORE8 SHL LT SWAP15 0x5F SHL 0xC0 0xCB PUSH31 0x64736F6C6343000804003360A06040523480156200001157600080FD5B5060 BLOCKHASH MLOAD PUSH3 0x2D34 CODESIZE SUB DUP1 PUSH3 0x2D34 DUP4 CODECOPY DUP2 ADD PUSH1 0x40 DUP2 SWAP1 MSTORE PUSH3 0x34 SWAP2 PUSH3 0x145 JUMP JUMPDEST PUSH1 0x1 PUSH1 0x0 DUP2 DUP2 SSTORE DUP2 SLOAD PUSH1 0x1 PUSH1 0x1 PUSH1 0xA0 SHL SUB NOT AND CALLER SWAP1 DUP2 OR SWAP1 SWAP3 SSTORE PUSH1 0x40 MLOAD DUP3 SWAP2 SWAP1 PUSH32 0x8BE0079C531659141344CD1FD0A4F28419497F9722A3DAAFE3B4186F6B6457E0 SWAP1 DUP3 SWAP1 LOG3 POP PUSH1 0x1 PUSH1 0x1 PUSH1 0xA0 SHL SUB DUP2 AND PUSH3 0xFB JUMPI PUSH1 0x40 MLOAD PUSH3 0x461BCD PUSH1 0xE5 SHL DUP2 MSTORE PUSH1 0x20 PUSH1 0x4 DUP3 ADD MSTORE PUSH1 0x33 PUSH1 0x24 DUP3 ADD MSTORE PUSH32 0x4D696E6F7269747950726573616C653A204F70657261746F722063616E277420 PUSH1 0x44 DUP3 ADD MSTORE PUSH32 0x626520746865207A65726F206164647265737300000000000000000000000000 PUSH1 0x64 DUP3 ADD MSTORE PUSH1 0x84 ADD PUSH1 0x40 MLOAD DUP1 SWAP2 SUB SWAP1 REVERT JUMPDEST PUSH32 0xA5E0829CACED8FFDD4DE3C43696C57F7D7A678FF000000000000000000000000 PUSH1 0x80 MSTORE PUSH1 0x4 DUP1 SLOAD PUSH1 0x1 PUSH1 0x1 PUSH1 0xA0 SHL SUB NOT AND PUSH1 0x1 PUSH1 0x1 PUSH1 0xA0 SHL SUB SWAP3 SWAP1 SWAP3 AND SWAP2 SWAP1 SWAP2 OR SWAP1 SSTORE PUSH3 0x175 JUMP JUMPDEST PUSH1 0x0 PUSH1 0x20 DUP3 DUP5 SUB SLT ISZERO PUSH3 0x157 JUMPI DUP1 DUP2 REVERT JUMPDEST DUP2 MLOAD PUSH1 0x1 PUSH1 0x1 PUSH1 0xA0 SHL SUB DUP2 AND DUP2 EQ PUSH3 0x16E JUMPI DUP2 DUP3 REVERT JUMPDEST SWAP4 SWAP3 POP POP POP JUMP JUMPDEST PUSH1 0x80 MLOAD PUSH1 0x60 SHR PUSH2 0x2B84 PUSH3 0x1B0 PUSH1 0x0 CODECOPY PUSH1 0x0 DUP2 DUP2 PUSH2 0x65B ADD MSTORE DUP2 DUP2 PUSH2 0x6ED ADD MSTORE DUP2 DUP2 PUSH2 0x20F5 ADD MSTORE DUP2 DUP2 PUSH2 0x21A1 ADD MSTORE PUSH2 0x2292 ADD MSTORE PUSH2 0x2B84 PUSH1 0x0 RETURN INVALID PUSH1 0x80 PUSH1 0x40 MSTORE PUSH1 0x4 CALLDATASIZE LT PUSH2 0x21E JUMPI PUSH1 0x0 CALLDATALOAD PUSH1 0xE0 SHR DUP1 PUSH4 0x5E6911AF GT PUSH2 0x123 JUMPI DUP1 PUSH4 0xA4399263 GT PUSH2 0xAB JUMPI DUP1 PUSH4 0xC31C9C07 GT PUSH2 0x6F JUMPI DUP1 PUSH4 0xC31C9C07 EQ PUSH2 0x649 JUMPI DUP1 PUSH4 0xD91B3D07 EQ PUSH2 0x67D JUMPI DUP1 PUSH4 0xF2FDE38B EQ PUSH2 0x693 JUMPI DUP1 PUSH4 0xF89BE593 EQ PUSH2 0x6B3 JUMPI DUP1 PUSH4 0xFC0C546A EQ PUSH2 0x6C9 JUMPI PUSH1 0x0 DUP1 REVERT JUMPDEST DUP1 PUSH4 0xA4399263 EQ PUSH2 0x5D3 JUMPI DUP1 PUSH4 0xB071CBE6 EQ PUSH2 0x5E8 JUMPI DUP1 PUSH4 0xB5545A3C EQ PUSH2 0x5FE JUMPI DUP1 PUSH4 0xB7A8807C EQ PUSH2 0x613 JUMPI DUP1 PUSH4 0xBAAC251B EQ PUSH2 0x629 JUMPI PUSH1 0x0 DUP1 REVERT JUMPDEST DUP1 PUSH4 0x89A30271 GT PUSH2 0xF2 JUMPI DUP1 PUSH4 0x89A30271 EQ PUSH2 0x539 JUMPI DUP1 PUSH4 0x8D167405 EQ PUSH2 0x561 JUMPI DUP1 PUSH4 0x8DA5CB5B EQ PUSH2 0x576 JUMPI DUP1 PUSH4 0x9A82A09A EQ PUSH2 0x594 JUMPI DUP1 PUSH4 0xA27AEBBC EQ PUSH2 0x5B3 JUMPI PUSH1 0x0 DUP1 REVERT JUMPDEST DUP1 PUSH4 0x5E6911AF EQ PUSH2 0x4DA JUMPI DUP1 PUSH4 0x656768FA EQ PUSH2 0x4F4 JUMPI DUP1 PUSH4 0x6EB21929 EQ PUSH2 0x50A JUMPI DUP1 PUSH4 0x715018A6 EQ PUSH2 0x524 JUMPI PUSH1 0x0 DUP1 REVERT JUMPDEST DUP1 PUSH4 0x3CA85228 GT PUSH2 0x1A6 JUMPI DUP1 PUSH4 0x48C54B9D GT PUSH2 0x175 JUMPI DUP1 PUSH4 0x48C54B9D EQ PUSH2 0x459 JUMPI DUP1 PUSH4 0x49F1026E EQ PUSH2 0x46E JUMPI DUP1 PUSH4 0x4B6753BC EQ PUSH2 0x484 JUMPI DUP1 PUSH4 0x521EB273 EQ PUSH2 0x49A JUMPI DUP1 PUSH4 0x570CA735 EQ PUSH2 0x4BA JUMPI PUSH1 0x0 DUP1 REVERT JUMPDEST DUP1 PUSH4 0x3CA85228 EQ PUSH2 0x3F9 JUMPI DUP1 PUSH4 0x4042B66F EQ PUSH2 0x419 JUMPI DUP1 PUSH4 0x467E53B1 EQ PUSH2 0x42F JUMPI DUP1 PUSH4 0x47535D7B EQ PUSH2 0x444 JUMPI PUSH1 0x0 DUP1 REVERT JUMPDEST DUP1 PUSH4 0x21EFF7FC GT PUSH2 0x1ED JUMPI DUP1 PUSH4 0x21EFF7FC EQ PUSH2 0x33A JUMPI DUP1 PUSH4 0x2C4E722E EQ PUSH2 0x370 JUMPI DUP1 PUSH4 0x3013CE29 EQ PUSH2 0x386 JUMPI DUP1 PUSH4 0x32FE7B26 EQ PUSH2 0x3BE JUMPI DUP1 PUSH4 0x3610724E EQ PUSH2 0x3E6 JUMPI PUSH1 0x0 DUP1 REVERT JUMPDEST DUP1 PUSH4 0x276650B EQ PUSH2 0x2B2 JUMPI DUP1 PUSH4 0x1512FC22 EQ PUSH2 0x2DB JUMPI DUP1 PUSH4 0x1515BC2B EQ PUSH2 0x2FB JUMPI DUP1 PUSH4 0x214BB60F EQ PUSH2 0x320 JUMPI PUSH1 0x0 DUP1 REVERT JUMPDEST CALLDATASIZE PUSH2 0x2AD JUMPI PUSH2 0x22B PUSH2 0x6E9 JUMP JUMPDEST PUSH2 0x2A2 JUMPI PUSH1 0x40 MLOAD PUSH3 0x461BCD PUSH1 0xE5 SHL DUP2 MSTORE PUSH1 0x20 PUSH1 0x4 DUP3 ADD MSTORE PUSH1 0x3B PUSH1 0x24 DUP3 ADD MSTORE PUSH32 0x4D696E6F7269747950726573616C653A2043616E277420627579206279207365 PUSH1 0x44 DUP3 ADD MSTORE PUSH32 0x6E64696E672066756E647320746F207468697320616464726573730000000000 PUSH1 0x64 DUP3 ADD MSTORE PUSH1 0x84 ADD JUMPDEST PUSH1 0x40 MLOAD DUP1 SWAP2 SUB SWAP1 REVERT JUMPDEST PUSH2 0x2AB CALLVALUE PUSH2 0x792 JUMP JUMPDEST STOP JUMPDEST PUSH1 0x0 DUP1 REVERT JUMPDEST CALLVALUE DUP1 ISZERO PUSH2 0x2BE JUMPI PUSH1 0x0 DUP1 REVERT JUMPDEST POP PUSH2 0x2C8 PUSH1 0xD SLOAD DUP2 JUMP JUMPDEST PUSH1 0x40 MLOAD SWAP1 DUP2 MSTORE PUSH1 0x20 ADD JUMPDEST PUSH1 0x40 MLOAD DUP1 SWAP2 SUB SWAP1 RETURN JUMPDEST CALLVALUE DUP1 ISZERO PUSH2 0x2E7 JUMPI PUSH1 0x0 DUP1 REVERT JUMPDEST POP PUSH2 0x2AB PUSH2 0x2F6 CALLDATASIZE PUSH1 0x4 PUSH2 0x293A JUMP JUMPDEST PUSH2 0x913 JUMP JUMPDEST CALLVALUE DUP1 ISZERO PUSH2 0x307 JUMPI PUSH1 0x0 DUP1 REVERT JUMPDEST POP PUSH2 0x310 PUSH2 0xA89 JUMP JUMPDEST PUSH1 0x40 MLOAD SWAP1 ISZERO ISZERO DUP2 MSTORE PUSH1 0x20 ADD PUSH2 0x2D2 JUMP JUMPDEST CALLVALUE DUP1 ISZERO PUSH2 0x32C JUMPI PUSH1 0x0 DUP1 REVERT JUMPDEST POP PUSH1 0x13 SLOAD PUSH2 0x310 SWAP1 PUSH1 0xFF AND DUP2 JUMP JUMPDEST CALLVALUE DUP1 ISZERO PUSH2 0x346 JUMPI PUSH1 0x0 DUP1 REVERT JUMPDEST POP PUSH2 0x2C8 PUSH2 0x355 CALLDATASIZE PUSH1 0x4 PUSH2 0x276E JUMP JUMPDEST PUSH1 0x1 PUSH1 0x1 PUSH1 0xA0 SHL SUB AND PUSH1 0x0 SWAP1 DUP2 MSTORE PUSH1 0xE PUSH1 0x20 MSTORE PUSH1 0x40 SWAP1 KECCAK256 SLOAD SWAP1 JUMP JUMPDEST CALLVALUE DUP1 ISZERO PUSH2 0x37C JUMPI PUSH1 0x0 DUP1 REVERT JUMPDEST POP PUSH2 0x2C8 PUSH1 0x8 SLOAD DUP2 JUMP JUMPDEST CALLVALUE DUP1 ISZERO PUSH2 0x392 JUMPI PUSH1 0x0 DUP1 REVERT JUMPDEST POP PUSH1 0x6 SLOAD PUSH2 0x3A6 SWAP1 PUSH1 0x1 PUSH1 0x1 PUSH1 0xA0 SHL SUB AND DUP2 JUMP JUMPDEST PUSH1 0x40 MLOAD PUSH1 0x1 PUSH1 0x1 PUSH1 0xA0 SHL SUB SWAP1 SWAP2 AND DUP2 MSTORE PUSH1 0x20 ADD PUSH2 0x2D2 JUMP JUMPDEST CALLVALUE DUP1 ISZERO PUSH2 0x3CA JUMPI PUSH1 0x0 DUP1 REVERT JUMPDEST POP PUSH2 0x3A6 PUSH20 0xA5E0829CACED8FFDD4DE3C43696C57F7D7A678FF DUP2 JUMP JUMPDEST PUSH2 0x2AB PUSH2 0x3F4 CALLDATASIZE PUSH1 0x4 PUSH2 0x27C2 JUMP JUMPDEST PUSH2 0x792 JUMP JUMPDEST CALLVALUE DUP1 ISZERO PUSH2 0x405 JUMPI PUSH1 0x0 DUP1 REVERT JUMPDEST POP PUSH2 0x2AB PUSH2 0x414 CALLDATASIZE PUSH1 0x4 PUSH2 0x288D JUMP JUMPDEST PUSH2 0xAA2 JUMP JUMPDEST CALLVALUE DUP1 ISZERO PUSH2 0x425 JUMPI PUSH1 0x0 DUP1 REVERT JUMPDEST POP PUSH2 0x2C8 PUSH1 0x9 SLOAD DUP2 JUMP JUMPDEST CALLVALUE DUP1 ISZERO PUSH2 0x43B JUMPI PUSH1 0x0 DUP1 REVERT JUMPDEST POP PUSH2 0x2AB PUSH2 0x1270 JUMP JUMPDEST CALLVALUE DUP1 ISZERO PUSH2 0x450 JUMPI PUSH1 0x0 DUP1 REVERT JUMPDEST POP PUSH2 0x310 PUSH2 0x134D JUMP JUMPDEST CALLVALUE DUP1 ISZERO PUSH2 0x465 JUMPI PUSH1 0x0 DUP1 REVERT JUMPDEST POP PUSH2 0x2AB PUSH2 0x1366 JUMP JUMPDEST CALLVALUE DUP1 ISZERO PUSH2 0x47A JUMPI PUSH1 0x0 DUP1 REVERT JUMPDEST POP PUSH2 0x2C8 PUSH1 0x12 SLOAD DUP2 JUMP JUMPDEST CALLVALUE DUP1 ISZERO PUSH2 0x490 JUMPI PUSH1 0x0 DUP1 REVERT JUMPDEST POP PUSH2 0x2C8 PUSH1 0x10 SLOAD DUP2 JUMP JUMPDEST CALLVALUE DUP1 ISZERO PUSH2 0x4A6 JUMPI PUSH1 0x0 DUP1 REVERT JUMPDEST POP PUSH1 0x7 SLOAD PUSH2 0x3A6 SWAP1 PUSH1 0x1 PUSH1 0x1 PUSH1 0xA0 SHL SUB AND DUP2 JUMP JUMPDEST CALLVALUE DUP1 ISZERO PUSH2 0x4C6 JUMPI PUSH1 0x0 DUP1 REVERT JUMPDEST POP PUSH1 0x4 SLOAD PUSH2 0x3A6 SWAP1 PUSH1 0x1 PUSH1 0x1 PUSH1 0xA0 SHL SUB AND DUP2 JUMP JUMPDEST CALLVALUE DUP1 ISZERO PUSH2 0x4E6 JUMPI PUSH1 0x0 DUP1 REVERT JUMPDEST POP PUSH1 0xB SLOAD PUSH1 0x9 SLOAD LT ISZERO PUSH2 0x310 JUMP JUMPDEST CALLVALUE DUP1 ISZERO PUSH2 0x500 JUMPI PUSH1 0x0 DUP1 REVERT JUMPDEST POP PUSH2 0x2C8 PUSH1 0x11 SLOAD DUP2 JUMP JUMPDEST CALLVALUE DUP1 ISZERO PUSH2 0x516 JUMPI PUSH1 0x0 DUP1 REVERT JUMPDEST POP PUSH1 0xC SLOAD PUSH1 0x9 SLOAD LT ISZERO PUSH2 0x310 JUMP JUMPDEST CALLVALUE DUP1 ISZERO PUSH2 0x530 JUMPI PUSH1 0x0 DUP1 REVERT JUMPDEST POP PUSH2 0x2AB PUSH2 0x1608 JUMP JUMPDEST CALLVALUE DUP1 ISZERO PUSH2 0x545 JUMPI PUSH1 0x0 DUP1 REVERT JUMPDEST POP PUSH2 0x3A6 PUSH20 0xD26A9DDC4108A6CCDA4E23C87B0FB2BDD875D100 DUP2 JUMP JUMPDEST CALLVALUE DUP1 ISZERO PUSH2 0x56D JUMPI PUSH1 0x0 DUP1 REVERT JUMPDEST POP PUSH2 0x310 PUSH2 0x6E9 JUMP JUMPDEST CALLVALUE DUP1 ISZERO PUSH2 0x582 JUMPI PUSH1 0x0 DUP1 REVERT JUMPDEST POP PUSH1 0x1 SLOAD PUSH1 0x1 PUSH1 0x1 PUSH1 0xA0 SHL SUB AND PUSH2 0x3A6 JUMP JUMPDEST CALLVALUE DUP1 ISZERO PUSH2 0x5A0 JUMPI PUSH1 0x0 DUP1 REVERT JUMPDEST POP PUSH1 0x13 SLOAD PUSH2 0x310 SWAP1 PUSH2 0x100 SWAP1 DIV PUSH1 0xFF AND DUP2 JUMP JUMPDEST CALLVALUE DUP1 ISZERO PUSH2 0x5BF JUMPI PUSH1 0x0 DUP1 REVERT JUMPDEST POP PUSH2 0x2AB PUSH2 0x5CE CALLDATASIZE PUSH1 0x4 PUSH2 0x27C2 JUMP JUMPDEST PUSH2 0x167C JUMP JUMPDEST CALLVALUE DUP1 ISZERO PUSH2 0x5DF JUMPI PUSH1 0x0 DUP1 REVERT JUMPDEST POP PUSH2 0x2AB PUSH2 0x17CA JUMP JUMPDEST CALLVALUE DUP1 ISZERO PUSH2 0x5F4 JUMPI PUSH1 0x0 DUP1 REVERT JUMPDEST POP PUSH2 0x2C8 PUSH1 0xB SLOAD DUP2 JUMP JUMPDEST CALLVALUE DUP1 ISZERO PUSH2 0x60A JUMPI PUSH1 0x0 DUP1 REVERT JUMPDEST POP PUSH2 0x2AB PUSH2 0x18F7 JUMP JUMPDEST CALLVALUE DUP1 ISZERO PUSH2 0x61F JUMPI PUSH1 0x0 DUP1 REVERT JUMPDEST POP PUSH2 0x2C8 PUSH1 0xF SLOAD DUP2 JUMP JUMPDEST CALLVALUE DUP1 ISZERO PUSH2 0x635 JUMPI PUSH1 0x0 DUP1 REVERT JUMPDEST POP PUSH2 0x2AB PUSH2 0x644 CALLDATASIZE PUSH1 0x4 PUSH2 0x27F2 JUMP JUMPDEST PUSH2 0x1B32 JUMP JUMPDEST CALLVALUE DUP1 ISZERO PUSH2 0x655 JUMPI PUSH1 0x0 DUP1 REVERT JUMPDEST POP PUSH2 0x3A6 PUSH32 0x0 DUP2 JUMP JUMPDEST CALLVALUE DUP1 ISZERO PUSH2 0x689 JUMPI PUSH1 0x0 DUP1 REVERT JUMPDEST POP PUSH2 0x2C8 PUSH1 0xA SLOAD DUP2 JUMP JUMPDEST CALLVALUE DUP1 ISZERO PUSH2 0x69F JUMPI PUSH1 0x0 DUP1 REVERT JUMPDEST POP PUSH2 0x2AB PUSH2 0x6AE CALLDATASIZE PUSH1 0x4 PUSH2 0x276E JUMP JUMPDEST PUSH2 0x1B93 JUMP JUMPDEST CALLVALUE DUP1 ISZERO PUSH2 0x6BF JUMPI PUSH1 0x0 DUP1 REVERT JUMPDEST POP PUSH2 0x2C8 PUSH1 0xC SLOAD DUP2 JUMP JUMPDEST CALLVALUE DUP1 ISZERO PUSH2 0x6D5 JUMPI PUSH1 0x0 DUP1 REVERT JUMPDEST POP PUSH1 0x5 SLOAD PUSH2 0x3A6 SWAP1 PUSH1 0x1 PUSH1 0x1 PUSH1 0xA0 SHL SUB AND DUP2 JUMP JUMPDEST PUSH1 0x0 PUSH32 0x0 PUSH1 0x1 PUSH1 0x1 PUSH1 0xA0 SHL SUB AND PUSH4 0xAD5C4648 PUSH1 0x40 MLOAD DUP2 PUSH4 0xFFFFFFFF AND PUSH1 0xE0 SHL DUP2 MSTORE PUSH1 0x4 ADD PUSH1 0x20 PUSH1 0x40 MLOAD DUP1 DUP4 SUB DUP2 DUP7 DUP1 EXTCODESIZE ISZERO DUP1 ISZERO PUSH2 0x744 JUMPI PUSH1 0x0 DUP1 REVERT JUMPDEST POP GAS STATICCALL ISZERO DUP1 ISZERO PUSH2 0x758 JUMPI RETURNDATASIZE PUSH1 0x0 DUP1 RETURNDATACOPY RETURNDATASIZE PUSH1 0x0 REVERT JUMPDEST POP POP POP POP PUSH1 0x40 MLOAD RETURNDATASIZE PUSH1 0x1F NOT PUSH1 0x1F DUP3 ADD AND DUP3 ADD DUP1 PUSH1 0x40 MSTORE POP DUP2 ADD SWAP1 PUSH2 0x77C SWAP2 SWAP1 PUSH2 0x278A JUMP JUMPDEST PUSH1 0x6 SLOAD PUSH1 0x1 PUSH1 0x1 PUSH1 0xA0 SHL SUB SWAP1 DUP2 AND SWAP2 AND EQ SWAP2 SWAP1 POP JUMP JUMPDEST PUSH1 0x2 PUSH1 0x0 SLOAD EQ ISZERO PUSH2 0x7E5 JUMPI PUSH1 0x40 MLOAD PUSH3 0x461BCD PUSH1 0xE5 SHL DUP2 MSTORE PUSH1 0x20 PUSH1 0x4 DUP3 ADD MSTORE PUSH1 0x1F PUSH1 0x24 DUP3 ADD MSTORE PUSH32 0x5265656E7472616E637947756172643A207265656E7472616E742063616C6C00 PUSH1 0x44 DUP3 ADD MSTORE PUSH1 0x64 ADD PUSH2 0x299 JUMP JUMPDEST PUSH1 0x2 PUSH1 0x0 SWAP1 DUP2 SSTORE CALLER SWAP1 PUSH2 0x7F8 DUP3 DUP5 PUSH2 0x1C7E JUMP JUMPDEST SWAP1 POP PUSH1 0x0 DUP2 GT PUSH2 0x85C JUMPI PUSH1 0x40 MLOAD PUSH3 0x461BCD PUSH1 0xE5 SHL DUP2 MSTORE PUSH1 0x20 PUSH1 0x4 DUP3 ADD MSTORE PUSH1 0x29 PUSH1 0x24 DUP3 ADD MSTORE PUSH32 0x4D696E6F7269747950726573616C653A20697373756520636F6C6C656374696E PUSH1 0x44 DUP3 ADD MSTORE PUSH9 0x19C81C185E5B595B9D PUSH1 0xBA SHL PUSH1 0x64 DUP3 ADD MSTORE PUSH1 0x84 ADD PUSH2 0x299 JUMP JUMPDEST PUSH1 0x0 PUSH2 0x867 DUP3 PUSH2 0x1EC6 JUMP JUMPDEST PUSH1 0x9 SLOAD SWAP1 SWAP2 POP PUSH2 0x877 SWAP1 DUP4 PUSH2 0x1EDD JUMP JUMPDEST PUSH1 0x9 SSTORE PUSH1 0x1 PUSH1 0x1 PUSH1 0xA0 SHL SUB DUP4 AND PUSH1 0x0 SWAP1 DUP2 MSTORE PUSH1 0xE PUSH1 0x20 MSTORE PUSH1 0x40 SWAP1 KECCAK256 SLOAD PUSH2 0x89D SWAP1 DUP4 PUSH2 0x1EDD JUMP JUMPDEST PUSH1 0x1 PUSH1 0x1 PUSH1 0xA0 SHL SUB DUP5 AND PUSH1 0x0 DUP2 DUP2 MSTORE PUSH1 0xE PUSH1 0x20 SWAP1 DUP2 MSTORE PUSH1 0x40 SWAP2 DUP3 SWAP1 KECCAK256 SWAP4 SWAP1 SWAP4 SSTORE DUP1 MLOAD DUP6 DUP2 MSTORE SWAP3 DUP4 ADD DUP5 SWAP1 MSTORE SWAP1 SWAP2 PUSH32 0x8FAFEBCAF9D154343DAD25669BFA277F4FBACD7AC6B0C4FED522580E040A0F33 SWAP2 ADD PUSH1 0x40 MLOAD DUP1 SWAP2 SUB SWAP1 LOG2 PUSH1 0xB SLOAD PUSH1 0x9 SLOAD LT PUSH2 0x908 JUMPI PUSH2 0x908 PUSH2 0x17CA JUMP JUMPDEST POP POP PUSH1 0x1 PUSH1 0x0 SSTORE POP POP JUMP JUMPDEST PUSH1 0x4 SLOAD PUSH1 0x1 PUSH1 0x1 PUSH1 0xA0 SHL SUB AND CALLER EQ DUP1 PUSH2 0x936 JUMPI POP PUSH1 0x1 SLOAD PUSH1 0x1 PUSH1 0x1 PUSH1 0xA0 SHL SUB AND CALLER EQ JUMPDEST PUSH2 0x952 JUMPI PUSH1 0x40 MLOAD PUSH3 0x461BCD PUSH1 0xE5 SHL DUP2 MSTORE PUSH1 0x4 ADD PUSH2 0x299 SWAP1 PUSH2 0x2A52 JUMP JUMPDEST PUSH2 0x95A PUSH2 0xA89 JUMP JUMPDEST ISZERO PUSH2 0x9A7 JUMPI PUSH1 0x40 MLOAD PUSH3 0x461BCD PUSH1 0xE5 SHL DUP2 MSTORE PUSH1 0x20 PUSH1 0x4 DUP3 ADD MSTORE PUSH1 0x1F PUSH1 0x24 DUP3 ADD MSTORE PUSH32 0x4D696E6F7269747950726573616C653A20616C726561647920636C6F73656400 PUSH1 0x44 DUP3 ADD MSTORE PUSH1 0x64 ADD PUSH2 0x299 JUMP JUMPDEST PUSH2 0x9AF PUSH2 0x134D JUMP JUMPDEST ISZERO PUSH2 0xA33 JUMPI PUSH1 0x40 MLOAD PUSH3 0x461BCD PUSH1 0xE5 SHL DUP2 MSTORE PUSH1 0x20 PUSH1 0x4 DUP3 ADD MSTORE PUSH1 0x48 PUSH1 0x24 DUP3 ADD MSTORE PUSH32 0x4D696E6F7269747950726573616C653A20616C7265616479206F70656E2C2075 PUSH1 0x44 DUP3 ADD MSTORE PUSH32 0x736520657874656E6454696D6520746F206368616E67652074686520636C6F73 PUSH1 0x64 DUP3 ADD MSTORE PUSH8 0x696E672074696D65 PUSH1 0xC0 SHL PUSH1 0x84 DUP3 ADD MSTORE PUSH1 0xA4 ADD PUSH2 0x299 JUMP JUMPDEST PUSH1 0xF SLOAD PUSH1 0x10 SLOAD PUSH1 0x40 DUP1 MLOAD SWAP3 DUP4 MSTORE PUSH1 0x20 DUP4 ADD DUP6 SWAP1 MSTORE DUP3 ADD MSTORE PUSH1 0x60 DUP2 ADD DUP3 SWAP1 MSTORE PUSH32 0xCEE39188ADAF9A8B11D1C48B0A60F530D2D2923C00D7F9AC4A8294501D77E9BA SWAP1 PUSH1 0x80 ADD PUSH1 0x40 MLOAD DUP1 SWAP2 SUB SWAP1 LOG1 PUSH1 0xF SWAP2 SWAP1 SWAP2 SSTORE PUSH1 0x10 SSTORE JUMP JUMPDEST PUSH1 0x0 PUSH1 0x10 SLOAD TIMESTAMP GT DUP1 ISZERO PUSH2 0xA9D JUMPI POP PUSH1 0x10 SLOAD ISZERO ISZERO JUMPDEST SWAP1 POP SWAP1 JUMP JUMPDEST PUSH1 0x1 SLOAD PUSH1 0x1 PUSH1 0x1 PUSH1 0xA0 SHL SUB AND CALLER EQ PUSH2 0xACC JUMPI PUSH1 0x40 MLOAD PUSH3 0x461BCD PUSH1 0xE5 SHL DUP2 MSTORE PUSH1 0x4 ADD PUSH2 0x299 SWAP1 PUSH2 0x29DB JUMP JUMPDEST PUSH1 0xF SLOAD ISZERO DUP1 PUSH2 0xAEA JUMPI POP PUSH1 0xF SLOAD PUSH2 0xAE6 SWAP1 PUSH3 0x15180 PUSH2 0x1F3C JUMP JUMPDEST TIMESTAMP GT ISZERO JUMPDEST PUSH2 0xB53 JUMPI PUSH1 0x40 MLOAD PUSH3 0x461BCD PUSH1 0xE5 SHL DUP2 MSTORE PUSH1 0x20 PUSH1 0x4 DUP3 ADD MSTORE PUSH1 0x34 PUSH1 0x24 DUP3 ADD MSTORE PUSH32 0x4D696E6F7269747950726573616C653A2043616E2774206D6F64696679203C20 PUSH1 0x44 DUP3 ADD MSTORE PUSH20 0x3120646179206265666F7265206F70656E696E67 PUSH1 0x60 SHL PUSH1 0x64 DUP3 ADD MSTORE PUSH1 0x84 ADD PUSH2 0x299 JUMP JUMPDEST PUSH1 0x13 SLOAD PUSH2 0x100 SWAP1 DIV PUSH1 0xFF AND ISZERO PUSH2 0xBD1 JUMPI PUSH1 0x40 MLOAD PUSH3 0x461BCD PUSH1 0xE5 SHL DUP2 MSTORE PUSH1 0x20 PUSH1 0x4 DUP3 ADD MSTORE PUSH1 0x3A PUSH1 0x24 DUP3 ADD MSTORE PUSH32 0x4D696E6F7269747950726573616C653A2043616E27742072652D757365206120 PUSH1 0x44 DUP3 ADD MSTORE PUSH32 0x63616E63656C6C65642070726573616C6520636F6E7472616374000000000000 PUSH1 0x64 DUP3 ADD MSTORE PUSH1 0x84 ADD PUSH2 0x299 JUMP JUMPDEST PUSH1 0x0 DUP13 GT PUSH2 0xC21 JUMPI PUSH1 0x40 MLOAD PUSH3 0x461BCD PUSH1 0xE5 SHL DUP2 MSTORE PUSH1 0x20 PUSH1 0x4 DUP3 ADD DUP2 SWAP1 MSTORE PUSH1 0x24 DUP3 ADD MSTORE PUSH32 0x4D696E6F7269747950726573616C653A20726174652063616E27742062652030 PUSH1 0x44 DUP3 ADD MSTORE PUSH1 0x64 ADD PUSH2 0x299 JUMP JUMPDEST PUSH1 0x1 PUSH1 0x1 PUSH1 0xA0 SHL SUB DUP12 AND PUSH2 0xC91 JUMPI PUSH1 0x40 MLOAD PUSH3 0x461BCD PUSH1 0xE5 SHL DUP2 MSTORE PUSH1 0x20 PUSH1 0x4 DUP3 ADD MSTORE PUSH1 0x31 PUSH1 0x24 DUP3 ADD MSTORE PUSH32 0x4D696E6F7269747950726573616C653A2077616C6C65742063616E2774206265 PUSH1 0x44 DUP3 ADD MSTORE PUSH17 0x20746865207A65726F2061646472657373 PUSH1 0x78 SHL PUSH1 0x64 DUP3 ADD MSTORE PUSH1 0x84 ADD PUSH2 0x299 JUMP JUMPDEST PUSH1 0x1 PUSH1 0x1 PUSH1 0xA0 SHL SUB DUP11 AND PUSH2 0xD00 JUMPI PUSH1 0x40 MLOAD PUSH3 0x461BCD PUSH1 0xE5 SHL DUP2 MSTORE PUSH1 0x20 PUSH1 0x4 DUP3 ADD MSTORE PUSH1 0x30 PUSH1 0x24 DUP3 ADD MSTORE PUSH32 0x4D696E6F7269747950726573616C653A20746F6B656E2063616E277420626520 PUSH1 0x44 DUP3 ADD MSTORE PUSH16 0x746865207A65726F2061646472657373 PUSH1 0x80 SHL PUSH1 0x64 DUP3 ADD MSTORE PUSH1 0x84 ADD PUSH2 0x299 JUMP JUMPDEST PUSH1 0x1 PUSH1 0x1 PUSH1 0xA0 SHL SUB DUP7 AND PUSH2 0xD7C JUMPI PUSH1 0x40 MLOAD PUSH3 0x461BCD PUSH1 0xE5 SHL DUP2 MSTORE PUSH1 0x20 PUSH1 0x4 DUP3 ADD MSTORE PUSH1 0x38 PUSH1 0x24 DUP3 ADD MSTORE PUSH32 0x4D696E6F7269747950726573616C653A207061796D656E7420746F6B656E2063 PUSH1 0x44 DUP3 ADD MSTORE PUSH32 0x616E277420626520746865207A65726F20616464726573730000000000000000 PUSH1 0x64 DUP3 ADD MSTORE PUSH1 0x84 ADD PUSH2 0x299 JUMP JUMPDEST PUSH1 0x0 DUP10 GT PUSH2 0xDD8 JUMPI PUSH1 0x40 MLOAD PUSH3 0x461BCD PUSH1 0xE5 SHL DUP2 MSTORE PUSH1 0x20 PUSH1 0x4 DUP3 ADD MSTORE PUSH1 0x23 PUSH1 0x24 DUP3 ADD MSTORE PUSH32 0x4D696E6F7269747950726573616C653A20686172646361702063616E27742062 PUSH1 0x44 DUP3 ADD MSTORE PUSH3 0x65203 PUSH1 0xEC SHL PUSH1 0x64 DUP3 ADD MSTORE PUSH1 0x84 ADD PUSH2 0x299 JUMP JUMPDEST PUSH1 0x0 DUP9 GT PUSH2 0xE34 JUMPI PUSH1 0x40 MLOAD PUSH3 0x461BCD PUSH1 0xE5 SHL DUP2 MSTORE PUSH1 0x20 PUSH1 0x4 DUP3 ADD MSTORE PUSH1 0x23 PUSH1 0x24 DUP3 ADD MSTORE PUSH32 0x4D696E6F7269747950726573616C653A20736F66746361702063616E27742062 PUSH1 0x44 DUP3 ADD MSTORE PUSH3 0x65203 PUSH1 0xEC SHL PUSH1 0x64 DUP3 ADD MSTORE PUSH1 0x84 ADD PUSH2 0x299 JUMP JUMPDEST DUP9 DUP9 LT PUSH2 0xE96 JUMPI PUSH1 0x40 MLOAD PUSH3 0x461BCD PUSH1 0xE5 SHL DUP2 MSTORE PUSH1 0x20 PUSH1 0x4 DUP3 ADD MSTORE PUSH1 0x2A PUSH1 0x24 DUP3 ADD MSTORE PUSH32 0x4D696E6F7269747950726573616C653A20736F6674636170206D757374206265 PUSH1 0x44 DUP3 ADD MSTORE PUSH10 0x203C206861726463617 PUSH1 0xB4 SHL PUSH1 0x64 DUP3 ADD MSTORE PUSH1 0x84 ADD PUSH2 0x299 JUMP JUMPDEST PUSH1 0x0 DUP8 GT PUSH2 0xEF9 JUMPI PUSH1 0x40 MLOAD PUSH3 0x461BCD PUSH1 0xE5 SHL DUP2 MSTORE PUSH1 0x20 PUSH1 0x4 DUP3 ADD MSTORE PUSH1 0x2A PUSH1 0x24 DUP3 ADD MSTORE PUSH32 0x4D696E6F7269747950726573616C653A20696E646976696475616C2063617020 PUSH1 0x44 DUP3 ADD MSTORE PUSH10 0x63616E2774206265203 PUSH1 0xB4 SHL PUSH1 0x64 DUP3 ADD MSTORE PUSH1 0x84 ADD PUSH2 0x299 JUMP JUMPDEST TIMESTAMP DUP6 LT ISZERO PUSH2 0xF64 JUMPI PUSH1 0x40 MLOAD PUSH3 0x461BCD PUSH1 0xE5 SHL DUP2 MSTORE PUSH1 0x20 PUSH1 0x4 DUP3 ADD MSTORE PUSH1 0x32 PUSH1 0x24 DUP3 ADD MSTORE PUSH32 0x4D696E6F7269747950726573616C653A206F70656E696E672074696D65206361 PUSH1 0x44 DUP3 ADD MSTORE PUSH18 0x1B89DD081899481A5B881D1A19481C185CDD PUSH1 0x72 SHL PUSH1 0x64 DUP3 ADD MSTORE PUSH1 0x84 ADD PUSH2 0x299 JUMP JUMPDEST DUP5 DUP5 GT PUSH2 0xFD9 JUMPI PUSH1 0x40 MLOAD PUSH3 0x461BCD PUSH1 0xE5 SHL DUP2 MSTORE PUSH1 0x20 PUSH1 0x4 DUP3 ADD MSTORE PUSH1 0x3A PUSH1 0x24 DUP3 ADD MSTORE PUSH32 0x4D696E6F7269747950726573616C653A20636C6F73696E672074696D65206361 PUSH1 0x44 DUP3 ADD MSTORE PUSH32 0x6E2774206265206265666F7265206F70656E696E672074696D65000000000000 PUSH1 0x64 DUP3 ADD MSTORE PUSH1 0x84 ADD PUSH2 0x299 JUMP JUMPDEST PUSH1 0x0 DUP4 GT PUSH2 0x103C JUMPI PUSH1 0x40 MLOAD PUSH3 0x461BCD PUSH1 0xE5 SHL DUP2 MSTORE PUSH1 0x20 PUSH1 0x4 DUP3 ADD MSTORE PUSH1 0x2A PUSH1 0x24 DUP3 ADD MSTORE PUSH32 0x4D696E6F7269747950726573616C653A206D75737420616464203E203020746F PUSH1 0x44 DUP3 ADD MSTORE PUSH10 0x6B656E7320746F204C5 PUSH1 0xB4 SHL PUSH1 0x64 DUP3 ADD MSTORE PUSH1 0x84 ADD PUSH2 0x299 JUMP JUMPDEST PUSH1 0x46 DUP3 LT ISZERO DUP1 ISZERO PUSH2 0x104E JUMPI POP PUSH1 0x64 DUP3 GT ISZERO JUMPDEST PUSH2 0x10CB JUMPI PUSH1 0x40 MLOAD PUSH3 0x461BCD PUSH1 0xE5 SHL DUP2 MSTORE PUSH1 0x20 PUSH1 0x4 DUP3 ADD MSTORE PUSH1 0x42 PUSH1 0x24 DUP3 ADD MSTORE PUSH32 0x4D696E6F7269747950726573616C653A206D75737420616464203E3D20373025 PUSH1 0x44 DUP3 ADD MSTORE PUSH32 0x20616E64203C3D2031303025206F66207261697365642066756E647320746F20 PUSH1 0x64 DUP3 ADD MSTORE PUSH2 0x4C5 PUSH1 0xF4 SHL PUSH1 0x84 DUP3 ADD MSTORE PUSH1 0xA4 ADD PUSH2 0x299 JUMP JUMPDEST DUP1 ISZERO PUSH2 0x1208 JUMPI PUSH2 0x10E5 DUP4 PUSH2 0x10DF DUP12 DUP16 PUSH2 0x1F7E JUMP JUMPDEST SWAP1 PUSH2 0x1EDD JUMP JUMPDEST PUSH1 0x40 MLOAD PUSH4 0x70A08231 PUSH1 0xE0 SHL DUP2 MSTORE ADDRESS PUSH1 0x4 DUP3 ADD MSTORE PUSH1 0x1 PUSH1 0x1 PUSH1 0xA0 SHL SUB DUP13 AND SWAP1 PUSH4 0x70A08231 SWAP1 PUSH1 0x24 ADD PUSH1 0x20 PUSH1 0x40 MLOAD DUP1 DUP4 SUB DUP2 DUP7 DUP1 EXTCODESIZE ISZERO DUP1 ISZERO PUSH2 0x1124 JUMPI PUSH1 0x0 DUP1 REVERT JUMPDEST POP GAS STATICCALL ISZERO DUP1 ISZERO PUSH2 0x1138 JUMPI RETURNDATASIZE PUSH1 0x0 DUP1 RETURNDATACOPY RETURNDATASIZE PUSH1 0x0 REVERT JUMPDEST POP POP POP POP PUSH1 0x40 MLOAD RETURNDATASIZE PUSH1 0x1F NOT PUSH1 0x1F DUP3 ADD AND DUP3 ADD DUP1 PUSH1 0x40 MSTORE POP DUP2 ADD SWAP1 PUSH2 0x115C SWAP2 SWAP1 PUSH2 0x27DA JUMP JUMPDEST LT ISZERO PUSH2 0x1208 JUMPI PUSH1 0x40 MLOAD PUSH3 0x461BCD PUSH1 0xE5 SHL DUP2 MSTORE PUSH1 0x20 PUSH1 0x4 DUP3 ADD MSTORE PUSH1 0x69 PUSH1 0x24 DUP3 ADD MSTORE PUSH32 0x4D696E6F7269747950726573616C653A204E6F7420656E6F75676820746F6B65 PUSH1 0x44 DUP3 ADD MSTORE PUSH32 0x6E73206F776E656420746F20636F6D706C6574652070726573616C652E204465 PUSH1 0x64 DUP3 ADD MSTORE PUSH32 0x706F73697420746F6B656E73206265666F72652063616C6C696E672074686973 PUSH1 0x84 DUP3 ADD MSTORE PUSH9 0x10333AB731BA34B7B7 PUSH1 0xB9 SHL PUSH1 0xA4 DUP3 ADD MSTORE PUSH1 0xC4 ADD PUSH2 0x299 JUMP JUMPDEST POP PUSH1 0x8 SWAP11 SWAP1 SWAP11 SSTORE PUSH1 0x7 DUP1 SLOAD PUSH1 0x1 PUSH1 0x1 PUSH1 0xA0 SHL SUB NOT SWAP1 DUP2 AND PUSH1 0x1 PUSH1 0x1 PUSH1 0xA0 SHL SUB SWAP12 DUP13 AND OR SWAP1 SWAP2 SSTORE PUSH1 0x5 DUP1 SLOAD DUP3 AND SWAP10 DUP12 AND SWAP10 SWAP1 SWAP10 OR SWAP1 SWAP9 SSTORE PUSH1 0x6 DUP1 SLOAD SWAP1 SWAP9 AND SWAP4 SWAP1 SWAP9 AND SWAP3 SWAP1 SWAP3 OR SWAP1 SWAP6 SSTORE PUSH1 0xB SWAP4 SWAP1 SWAP4 SSTORE PUSH1 0xC SWAP2 SWAP1 SWAP2 SSTORE PUSH1 0xD SSTORE PUSH1 0xF SWAP2 SWAP1 SWAP2 SSTORE PUSH1 0x10 SSTORE PUSH1 0x11 SSTORE PUSH1 0x12 SSTORE JUMP JUMPDEST PUSH1 0x4 SLOAD PUSH1 0x1 PUSH1 0x1 PUSH1 0xA0 SHL SUB AND CALLER EQ DUP1 PUSH2 0x1293 JUMPI POP PUSH1 0x1 SLOAD PUSH1 0x1 PUSH1 0x1 PUSH1 0xA0 SHL SUB AND CALLER EQ JUMPDEST PUSH2 0x12AF JUMPI PUSH1 0x40 MLOAD PUSH3 0x461BCD PUSH1 0xE5 SHL DUP2 MSTORE PUSH1 0x4 ADD PUSH2 0x299 SWAP1 PUSH2 0x2A52 JUMP JUMPDEST PUSH1 0x13 SLOAD PUSH1 0xFF AND ISZERO PUSH2 0x12D2 JUMPI PUSH1 0x40 MLOAD PUSH3 0x461BCD PUSH1 0xE5 SHL DUP2 MSTORE PUSH1 0x4 ADD PUSH2 0x299 SWAP1 PUSH2 0x2A10 JUMP JUMPDEST PUSH2 0x12DA PUSH2 0x134D JUMP JUMPDEST DUP1 PUSH2 0x12E8 JUMPI POP PUSH2 0x12E8 PUSH2 0xA89 JUMP JUMPDEST DUP1 ISZERO PUSH2 0x12F6 JUMPI POP PUSH1 0x0 PUSH1 0x9 SLOAD GT JUMPDEST ISZERO PUSH2 0x130B JUMPI PUSH1 0x13 DUP1 SLOAD PUSH2 0xFF00 NOT AND PUSH2 0x100 OR SWAP1 SSTORE JUMPDEST PUSH1 0x0 PUSH1 0x8 DUP2 SWAP1 SSTORE PUSH1 0x7 DUP1 SLOAD PUSH1 0x1 PUSH1 0x1 PUSH1 0xA0 SHL SUB NOT AND SWAP1 SSTORE PUSH1 0xB DUP2 SWAP1 SSTORE PUSH1 0xC DUP2 SWAP1 SSTORE PUSH1 0xD DUP2 SWAP1 SSTORE PUSH1 0xF DUP2 SWAP1 SSTORE PUSH1 0x10 DUP2 SWAP1 SSTORE PUSH1 0x11 DUP2 SWAP1 SSTORE PUSH1 0x12 SSTORE PUSH2 0x134B PUSH2 0x1FFD JUMP JUMPDEST JUMP JUMPDEST PUSH1 0x0 PUSH1 0xF SLOAD TIMESTAMP LT ISZERO DUP1 ISZERO PUSH2 0xA9D JUMPI POP POP PUSH1 0x10 SLOAD TIMESTAMP GT ISZERO SWAP1 JUMP JUMPDEST PUSH1 0x13 SLOAD PUSH1 0xFF AND PUSH2 0x13EC JUMPI PUSH1 0x40 MLOAD PUSH3 0x461BCD PUSH1 0xE5 SHL DUP2 MSTORE PUSH1 0x20 PUSH1 0x4 DUP3 ADD MSTORE PUSH1 0x44 PUSH1 0x24 DUP3 ADD DUP2 SWAP1 MSTORE PUSH32 0x4D696E6F7269747950726573616C653A206E6F742066696E616C697365642C20 SWAP1 DUP3 ADD MSTORE PUSH32 0x63616C6C2066696E616C697365206265666F726520636C61696D696E6720746F PUSH1 0x64 DUP3 ADD MSTORE PUSH4 0x6B656E73 PUSH1 0xE0 SHL PUSH1 0x84 DUP3 ADD MSTORE PUSH1 0xA4 ADD PUSH2 0x299 JUMP JUMPDEST PUSH1 0xC SLOAD PUSH1 0x9 SLOAD LT ISZERO PUSH2 0x1468 JUMPI PUSH1 0x40 DUP1 MLOAD PUSH3 0x461BCD PUSH1 0xE5 SHL DUP2 MSTORE PUSH1 0x20 PUSH1 0x4 DUP3 ADD MSTORE PUSH1 0x24 DUP2 ADD SWAP2 SWAP1 SWAP2 MSTORE PUSH32 0x4D696E6F7269747950726573616C653A20536F6674636170206E6F74206D6574 PUSH1 0x44 DUP3 ADD MSTORE PUSH32 0x2C20636C61696D206120726566756E64206F6620796F7572207061796D656E74 PUSH1 0x64 DUP3 ADD MSTORE PUSH1 0x84 ADD PUSH2 0x299 JUMP JUMPDEST CALLER PUSH1 0x0 DUP2 DUP2 MSTORE PUSH1 0xE PUSH1 0x20 MSTORE PUSH1 0x40 DUP2 KECCAK256 SLOAD PUSH2 0x1481 SWAP1 PUSH2 0x1EC6 JUMP JUMPDEST SWAP1 POP PUSH1 0x0 DUP2 GT PUSH2 0x14F1 JUMPI PUSH1 0x40 MLOAD PUSH3 0x461BCD PUSH1 0xE5 SHL DUP2 MSTORE PUSH1 0x20 PUSH1 0x4 DUP3 ADD MSTORE PUSH1 0x35 PUSH1 0x24 DUP3 ADD MSTORE PUSH32 0x4D696E6F7269747950726573616C653A206E6F20746F6B656E7320636C61696D PUSH1 0x44 DUP3 ADD MSTORE PUSH21 0x61626C6520666F7220746869732061646472657373 PUSH1 0x58 SHL PUSH1 0x64 DUP3 ADD MSTORE PUSH1 0x84 ADD PUSH2 0x299 JUMP JUMPDEST PUSH1 0x1 PUSH1 0x1 PUSH1 0xA0 SHL SUB DUP3 AND PUSH1 0x0 SWAP1 DUP2 MSTORE PUSH1 0xE PUSH1 0x20 MSTORE PUSH1 0x40 DUP2 KECCAK256 SSTORE PUSH1 0xA SLOAD PUSH2 0x1517 SWAP1 DUP3 PUSH2 0x1F3C JUMP JUMPDEST PUSH1 0xA SSTORE PUSH1 0x5 SLOAD PUSH1 0x40 MLOAD PUSH4 0xA9059CBB PUSH1 0xE0 SHL DUP2 MSTORE PUSH1 0x1 PUSH1 0x1 PUSH1 0xA0 SHL SUB DUP5 DUP2 AND PUSH1 0x4 DUP4 ADD MSTORE PUSH1 0x24 DUP3 ADD DUP5 SWAP1 MSTORE SWAP1 SWAP2 AND SWAP1 PUSH4 0xA9059CBB SWAP1 PUSH1 0x44 ADD PUSH1 0x20 PUSH1 0x40 MLOAD DUP1 DUP4 SUB DUP2 PUSH1 0x0 DUP8 DUP1 EXTCODESIZE ISZERO DUP1 ISZERO PUSH2 0x1568 JUMPI PUSH1 0x0 DUP1 REVERT JUMPDEST POP GAS CALL ISZERO DUP1 ISZERO PUSH2 0x157C JUMPI RETURNDATASIZE PUSH1 0x0 DUP1 RETURNDATACOPY RETURNDATASIZE PUSH1 0x0 REVERT JUMPDEST POP POP POP POP PUSH1 0x40 MLOAD RETURNDATASIZE PUSH1 0x1F NOT PUSH1 0x1F DUP3 ADD AND DUP3 ADD DUP1 PUSH1 0x40 MSTORE POP DUP2 ADD SWAP1 PUSH2 0x15A0 SWAP2 SWAP1 PUSH2 0x27A6 JUMP JUMPDEST PUSH2 0x1604 JUMPI PUSH1 0x40 MLOAD PUSH3 0x461BCD PUSH1 0xE5 SHL DUP2 MSTORE PUSH1 0x20 PUSH1 0x4 DUP3 ADD MSTORE PUSH1 0x2F PUSH1 0x24 DUP3 ADD MSTORE PUSH32 0x4D696E6F7269747950726573616C653A2069737375652077697468207472616E PUSH1 0x44 DUP3 ADD MSTORE PUSH15 0x7366657272696E6720746F6B656E73 PUSH1 0x88 SHL PUSH1 0x64 DUP3 ADD MSTORE PUSH1 0x84 ADD PUSH2 0x299 JUMP JUMPDEST POP POP JUMP JUMPDEST PUSH1 0x1 SLOAD PUSH1 0x1 PUSH1 0x1 PUSH1 0xA0 SHL SUB AND CALLER EQ PUSH2 0x1632 JUMPI PUSH1 0x40 MLOAD PUSH3 0x461BCD PUSH1 0xE5 SHL DUP2 MSTORE PUSH1 0x4 ADD PUSH2 0x299 SWAP1 PUSH2 0x29DB JUMP JUMPDEST PUSH1 0x1 SLOAD PUSH1 0x40 MLOAD PUSH1 0x0 SWAP2 PUSH1 0x1 PUSH1 0x1 PUSH1 0xA0 SHL SUB AND SWAP1 PUSH32 0x8BE0079C531659141344CD1FD0A4F28419497F9722A3DAAFE3B4186F6B6457E0 SWAP1 DUP4 SWAP1 LOG3 PUSH1 0x1 DUP1 SLOAD PUSH1 0x1 PUSH1 0x1 PUSH1 0xA0 SHL SUB NOT AND SWAP1 SSTORE JUMP JUMPDEST PUSH1 0x4 SLOAD PUSH1 0x1 PUSH1 0x1 PUSH1 0xA0 SHL SUB AND CALLER EQ DUP1 PUSH2 0x169F JUMPI POP PUSH1 0x1 SLOAD PUSH1 0x1 PUSH1 0x1 PUSH1 0xA0 SHL SUB AND CALLER EQ JUMPDEST PUSH2 0x16BB JUMPI PUSH1 0x40 MLOAD PUSH3 0x461BCD PUSH1 0xE5 SHL DUP2 MSTORE PUSH1 0x4 ADD PUSH2 0x299 SWAP1 PUSH2 0x2A52 JUMP JUMPDEST PUSH2 0x16C3 PUSH2 0xA89 JUMP JUMPDEST ISZERO PUSH2 0x1710 JUMPI PUSH1 0x40 MLOAD PUSH3 0x461BCD PUSH1 0xE5 SHL DUP2 MSTORE PUSH1 0x20 PUSH1 0x4 DUP3 ADD MSTORE PUSH1 0x1F PUSH1 0x24 DUP3 ADD MSTORE PUSH32 0x4D696E6F7269747950726573616C653A20616C726561647920636C6F73656400 PUSH1 0x44 DUP3 ADD MSTORE PUSH1 0x64 ADD PUSH2 0x299 JUMP JUMPDEST PUSH1 0x10 SLOAD DUP2 GT PUSH2 0x1789 JUMPI PUSH1 0x40 DUP1 MLOAD PUSH3 0x461BCD PUSH1 0xE5 SHL DUP2 MSTORE PUSH1 0x20 PUSH1 0x4 DUP3 ADD MSTORE PUSH1 0x24 DUP2 ADD SWAP2 SWAP1 SWAP2 MSTORE PUSH32 0x4D696E6F7269747950726573616C653A206E657720636C6F73696E672074696D PUSH1 0x44 DUP3 ADD MSTORE PUSH32 0x65206973206265666F72652063757272656E7420636C6F73696E672074696D65 PUSH1 0x64 DUP3 ADD MSTORE PUSH1 0x84 ADD PUSH2 0x299 JUMP JUMPDEST PUSH1 0x10 SLOAD PUSH1 0x40 DUP1 MLOAD SWAP2 DUP3 MSTORE PUSH1 0x20 DUP3 ADD DUP4 SWAP1 MSTORE PUSH32 0x36590996DEA047DC12D17EC2643248F8B86EB37E78941B43D9E9049180EFB7B0 SWAP2 ADD PUSH1 0x40 MLOAD DUP1 SWAP2 SUB SWAP1 LOG1 PUSH1 0x10 SSTORE JUMP JUMPDEST PUSH1 0x13 SLOAD PUSH1 0xFF AND ISZERO PUSH2 0x17ED JUMPI PUSH1 0x40 MLOAD PUSH3 0x461BCD PUSH1 0xE5 SHL DUP2 MSTORE PUSH1 0x4 ADD PUSH2 0x299 SWAP1 PUSH2 0x2A10 JUMP JUMPDEST PUSH2 0x17F5 PUSH2 0xA89 JUMP JUMPDEST DUP1 PUSH2 0x1804 JUMPI POP PUSH1 0xB SLOAD PUSH1 0x9 SLOAD LT ISZERO JUMPDEST PUSH2 0x1850 JUMPI PUSH1 0x40 MLOAD PUSH3 0x461BCD PUSH1 0xE5 SHL DUP2 MSTORE PUSH1 0x20 PUSH1 0x4 DUP3 ADD MSTORE PUSH1 0x1B PUSH1 0x24 DUP3 ADD MSTORE PUSH32 0x4D696E6F7269747950726573616C653A206E6F7420636C6F7365640000000000 PUSH1 0x44 DUP3 ADD MSTORE PUSH1 0x64 ADD PUSH2 0x299 JUMP JUMPDEST PUSH1 0x8 SLOAD PUSH1 0x9 SLOAD PUSH2 0x185F SWAP2 PUSH2 0x1F7E JUMP JUMPDEST PUSH1 0xA SSTORE PUSH1 0x13 DUP1 SLOAD PUSH1 0xFF NOT AND PUSH1 0x1 OR SWAP1 SSTORE PUSH1 0x40 MLOAD PUSH32 0x5A1E9B2EA50EF9AABE4B3C94EB63B2D60DEBEF2647506304FBF79AD4509D1AFF SWAP1 PUSH1 0x0 SWAP1 LOG1 PUSH1 0xB SLOAD PUSH1 0x9 SLOAD LT ISZERO DUP1 PUSH2 0x18AF JUMPI POP PUSH1 0xC SLOAD PUSH1 0x9 SLOAD LT ISZERO JUMPDEST ISZERO PUSH2 0x18E3 JUMPI PUSH2 0x18BC PUSH2 0x20B6 JUMP JUMPDEST PUSH1 0x64 PUSH1 0x12 SLOAD LT ISZERO PUSH2 0x18CF JUMPI PUSH2 0x18CF PUSH2 0x2370 JUMP JUMPDEST PUSH1 0xB SLOAD PUSH1 0x9 SLOAD LT ISZERO PUSH2 0x134B JUMPI PUSH2 0x134B PUSH2 0x241E JUMP JUMPDEST PUSH1 0xC SLOAD PUSH1 0x9 SLOAD LT ISZERO PUSH2 0x134B JUMPI PUSH2 0x134B PUSH2 0x1FFD JUMP JUMPDEST PUSH1 0x13 SLOAD PUSH1 0xFF AND DUP1 PUSH2 0x190F JUMPI POP PUSH1 0x13 SLOAD PUSH2 0x100 SWAP1 DIV PUSH1 0xFF AND JUMPDEST PUSH2 0x19A7 JUMPI PUSH1 0x40 MLOAD PUSH3 0x461BCD PUSH1 0xE5 SHL DUP2 MSTORE PUSH1 0x20 PUSH1 0x4 DUP3 ADD MSTORE PUSH1 0x58 PUSH1 0x24 DUP3 ADD MSTORE PUSH32 0x4D696E6F7269747950726573616C653A206E6F742066696E616C69736564206F PUSH1 0x44 DUP3 ADD MSTORE PUSH32 0x722063616E63656C6C65642C207472792063616C6C696E672066696E616C6973 PUSH1 0x64 DUP3 ADD MSTORE PUSH32 0x65206265666F726520636C61696D696E6720726566756E640000000000000000 PUSH1 0x84 DUP3 ADD MSTORE PUSH1 0xA4 ADD PUSH2 0x299 JUMP JUMPDEST PUSH1 0xC SLOAD PUSH1 0x9 SLOAD LT PUSH2 0x1A46 JUMPI PUSH1 0x40 MLOAD PUSH3 0x461BCD PUSH1 0xE5 SHL DUP2 MSTORE PUSH1 0x20 PUSH1 0x4 DUP3 ADD MSTORE PUSH1 0x5A PUSH1 0x24 DUP3 ADD MSTORE PUSH32 0x4D696E6F7269747950726573616C653A20736F66746361702072656163686564 PUSH1 0x44 DUP3 ADD MSTORE PUSH32 0x2C20726566756E64732063616E277420626520636C61696D656420756E6C6573 PUSH1 0x64 DUP3 ADD MSTORE PUSH32 0x73207468652070726573616C652069732063616E63656C6C6564000000000000 PUSH1 0x84 DUP3 ADD MSTORE PUSH1 0xA4 ADD PUSH2 0x299 JUMP JUMPDEST CALLER PUSH2 0x1A4F PUSH2 0x6E9 JUMP JUMPDEST ISZERO PUSH2 0x1A98 JUMPI PUSH1 0x1 PUSH1 0x1 PUSH1 0xA0 SHL SUB DUP2 AND PUSH1 0x0 SWAP1 DUP2 MSTORE PUSH1 0xE PUSH1 0x20 MSTORE PUSH1 0x40 DUP1 DUP3 KECCAK256 SLOAD SWAP1 MLOAD CALLER SWAP3 PUSH2 0x8FC DUP4 ISZERO MUL SWAP3 SWAP2 SWAP1 DUP2 DUP2 DUP2 DUP6 DUP9 DUP9 CALL SWAP4 POP POP POP POP ISZERO DUP1 ISZERO PUSH2 0x1604 JUMPI RETURNDATASIZE PUSH1 0x0 DUP1 RETURNDATACOPY RETURNDATASIZE PUSH1 0x0 REVERT JUMPDEST PUSH1 0x6 SLOAD PUSH1 0x1 PUSH1 0x1 PUSH1 0xA0 SHL SUB DUP3 DUP2 AND PUSH1 0x0 DUP2 DUP2 MSTORE PUSH1 0xE PUSH1 0x20 MSTORE PUSH1 0x40 SWAP1 DUP2 SWAP1 KECCAK256 SLOAD SWAP1 MLOAD PUSH4 0xA9059CBB PUSH1 0xE0 SHL DUP2 MSTORE PUSH1 0x4 DUP2 ADD SWAP3 SWAP1 SWAP3 MSTORE PUSH1 0x24 DUP3 ADD MSTORE SWAP2 AND SWAP1 PUSH4 0xA9059CBB SWAP1 PUSH1 0x44 ADD JUMPDEST PUSH1 0x20 PUSH1 0x40 MLOAD DUP1 DUP4 SUB DUP2 PUSH1 0x0 DUP8 DUP1 EXTCODESIZE ISZERO DUP1 ISZERO PUSH2 0x1AF7 JUMPI PUSH1 0x0 DUP1 REVERT JUMPDEST POP GAS CALL ISZERO DUP1 ISZERO PUSH2 0x1B0B JUMPI RETURNDATASIZE PUSH1 0x0 DUP1 RETURNDATACOPY RETURNDATASIZE PUSH1 0x0 REVERT JUMPDEST POP POP POP POP PUSH1 0x40 MLOAD RETURNDATASIZE PUSH1 0x1F NOT PUSH1 0x1F DUP3 ADD AND DUP3 ADD DUP1 PUSH1 0x40 MSTORE POP DUP2 ADD SWAP1 PUSH2 0x1604 SWAP2 SWAP1 PUSH2 0x27A6 JUMP JUMPDEST POP JUMP JUMPDEST PUSH1 0x4 SLOAD PUSH1 0x1 PUSH1 0x1 PUSH1 0xA0 SHL SUB AND CALLER EQ DUP1 PUSH2 0x1B55 JUMPI POP PUSH1 0x1 SLOAD PUSH1 0x1 PUSH1 0x1 PUSH1 0xA0 SHL SUB AND CALLER EQ JUMPDEST PUSH2 0x1B71 JUMPI PUSH1 0x40 MLOAD PUSH3 0x461BCD PUSH1 0xE5 SHL DUP2 MSTORE PUSH1 0x4 ADD PUSH2 0x299 SWAP1 PUSH2 0x2A52 JUMP JUMPDEST PUSH2 0x1B86 DUP12 DUP12 DUP12 DUP12 DUP12 DUP12 DUP12 DUP12 DUP12 DUP12 DUP12 PUSH1 0x1 PUSH2 0xAA2 JUMP JUMPDEST POP POP POP POP POP POP POP POP POP POP POP JUMP JUMPDEST PUSH1 0x1 SLOAD PUSH1 0x1 PUSH1 0x1 PUSH1 0xA0 SHL SUB AND CALLER EQ PUSH2 0x1BBD JUMPI PUSH1 0x40 MLOAD PUSH3 0x461BCD PUSH1 0xE5 SHL DUP2 MSTORE PUSH1 0x4 ADD PUSH2 0x299 SWAP1 PUSH2 0x29DB JUMP JUMPDEST PUSH1 0x1 PUSH1 0x1 PUSH1 0xA0 SHL SUB DUP2 AND PUSH2 0x1C22 JUMPI PUSH1 0x40 MLOAD PUSH3 0x461BCD PUSH1 0xE5 SHL DUP2 MSTORE PUSH1 0x20 PUSH1 0x4 DUP3 ADD MSTORE PUSH1 0x26 PUSH1 0x24 DUP3 ADD MSTORE PUSH32 0x4F776E61626C653A206E6577206F776E657220697320746865207A65726F2061 PUSH1 0x44 DUP3 ADD MSTORE PUSH6 0x646472657373 PUSH1 0xD0 SHL PUSH1 0x64 DUP3 ADD MSTORE PUSH1 0x84 ADD PUSH2 0x299 JUMP JUMPDEST PUSH1 0x1 SLOAD PUSH1 0x40 MLOAD PUSH1 0x1 PUSH1 0x1 PUSH1 0xA0 SHL SUB DUP1 DUP5 AND SWAP3 AND SWAP1 PUSH32 0x8BE0079C531659141344CD1FD0A4F28419497F9722A3DAAFE3B4186F6B6457E0 SWAP1 PUSH1 0x0 SWAP1 LOG3 PUSH1 0x1 DUP1 SLOAD PUSH1 0x1 PUSH1 0x1 PUSH1 0xA0 SHL SUB NOT AND PUSH1 0x1 PUSH1 0x1 PUSH1 0xA0 SHL SUB SWAP3 SWAP1 SWAP3 AND SWAP2 SWAP1 SWAP2 OR SWAP1 SSTORE JUMP JUMPDEST PUSH1 0x0 PUSH2 0x1C88 PUSH2 0x134D JUMP JUMPDEST PUSH2 0x1CD4 JUMPI PUSH1 0x40 MLOAD PUSH3 0x461BCD PUSH1 0xE5 SHL DUP2 MSTORE PUSH1 0x20 PUSH1 0x4 DUP3 ADD MSTORE PUSH1 0x19 PUSH1 0x24 DUP3 ADD MSTORE PUSH32 0x4D696E6F7269747950726573616C653A206E6F74206F70656E00000000000000 PUSH1 0x44 DUP3 ADD MSTORE PUSH1 0x64 ADD PUSH2 0x299 JUMP JUMPDEST PUSH1 0x1 PUSH1 0x1 PUSH1 0xA0 SHL SUB DUP4 AND PUSH2 0x1D43 JUMPI PUSH1 0x40 MLOAD PUSH3 0x461BCD PUSH1 0xE5 SHL DUP2 MSTORE PUSH1 0x20 PUSH1 0x4 DUP3 ADD MSTORE PUSH1 0x30 PUSH1 0x24 DUP3 ADD MSTORE PUSH32 0x4D696E6F7269747950726573616C653A2062656E656669636961727920697320 PUSH1 0x44 DUP3 ADD MSTORE PUSH16 0x746865207A65726F2061646472657373 PUSH1 0x80 SHL PUSH1 0x64 DUP3 ADD MSTORE PUSH1 0x84 ADD PUSH2 0x299 JUMP JUMPDEST DUP2 PUSH2 0x1D9C JUMPI PUSH1 0x40 MLOAD PUSH3 0x461BCD PUSH1 0xE5 SHL DUP2 MSTORE PUSH1 0x20 PUSH1 0x4 DUP3 ADD MSTORE PUSH1 0x24 DUP1 DUP3 ADD MSTORE PUSH32 0x4D696E6F7269747950726573616C653A2030207061796D656E74207370656369 PUSH1 0x44 DUP3 ADD MSTORE PUSH4 0x199A5959 PUSH1 0xE2 SHL PUSH1 0x64 DUP3 ADD MSTORE PUSH1 0x84 ADD PUSH2 0x299 JUMP JUMPDEST PUSH1 0xB SLOAD PUSH1 0x9 SLOAD PUSH2 0x1DAC SWAP1 DUP5 PUSH2 0x1EDD JUMP JUMPDEST GT ISZERO PUSH2 0x1E2E JUMPI PUSH1 0x40 MLOAD PUSH3 0x461BCD PUSH1 0xE5 SHL DUP2 MSTORE PUSH1 0x20 PUSH1 0x4 DUP3 ADD MSTORE PUSH1 0x44 PUSH1 0x24 DUP3 ADD DUP2 SWAP1 MSTORE PUSH32 0x4D696E6F7269747950726573616C653A206861726463617020776F756C642062 SWAP1 DUP3 ADD MSTORE PUSH32 0x652065786365656465642077697468207468697320707572636861736520616D PUSH1 0x64 DUP3 ADD MSTORE PUSH4 0x1BDD5B9D PUSH1 0xE2 SHL PUSH1 0x84 DUP3 ADD MSTORE PUSH1 0xA4 ADD PUSH2 0x299 JUMP JUMPDEST PUSH1 0xD SLOAD PUSH1 0x1 PUSH1 0x1 PUSH1 0xA0 SHL SUB DUP5 AND PUSH1 0x0 SWAP1 DUP2 MSTORE PUSH1 0xE PUSH1 0x20 MSTORE PUSH1 0x40 SWAP1 KECCAK256 SLOAD PUSH2 0x1E54 SWAP1 DUP5 PUSH2 0x1EDD JUMP JUMPDEST GT ISZERO PUSH2 0x1EB3 JUMPI PUSH1 0x40 MLOAD PUSH3 0x461BCD PUSH1 0xE5 SHL DUP2 MSTORE PUSH1 0x20 PUSH1 0x4 DUP3 ADD MSTORE PUSH1 0x28 PUSH1 0x24 DUP3 ADD MSTORE PUSH32 0x4D696E6F7269747950726573616C653A20696E646976696475616C2063617020 PUSH1 0x44 DUP3 ADD MSTORE PUSH8 0x195E18D959591959 PUSH1 0xC2 SHL PUSH1 0x64 DUP3 ADD MSTORE PUSH1 0x84 ADD PUSH2 0x299 JUMP JUMPDEST PUSH2 0x1EBD DUP4 DUP4 PUSH2 0x2519 JUMP JUMPDEST SWAP1 POP JUMPDEST SWAP3 SWAP2 POP POP JUMP JUMPDEST PUSH1 0x0 PUSH2 0x1EC0 PUSH1 0x8 SLOAD DUP4 PUSH2 0x1F7E SWAP1 SWAP2 SWAP1 PUSH4 0xFFFFFFFF AND JUMP JUMPDEST PUSH1 0x0 DUP1 PUSH2 0x1EEA DUP4 DUP6 PUSH2 0x2AA7 JUMP JUMPDEST SWAP1 POP DUP4 DUP2 LT ISZERO PUSH2 0x1EBD JUMPI PUSH1 0x40 MLOAD PUSH3 0x461BCD PUSH1 0xE5 SHL DUP2 MSTORE PUSH1 0x20 PUSH1 0x4 DUP3 ADD MSTORE PUSH1 0x1B PUSH1 0x24 DUP3 ADD MSTORE PUSH32 0x536166654D6174683A206164646974696F6E206F766572666C6F770000000000 PUSH1 0x44 DUP3 ADD MSTORE PUSH1 0x64 ADD PUSH2 0x299 JUMP JUMPDEST PUSH1 0x0 PUSH2 0x1EBD DUP4 DUP4 PUSH1 0x40 MLOAD DUP1 PUSH1 0x40 ADD PUSH1 0x40 MSTORE DUP1 PUSH1 0x1E DUP2 MSTORE PUSH1 0x20 ADD PUSH32 0x536166654D6174683A207375627472616374696F6E206F766572666C6F770000 DUP2 MSTORE POP PUSH2 0x26C9 JUMP JUMPDEST PUSH1 0x0 DUP3 PUSH2 0x1F8D JUMPI POP PUSH1 0x0 PUSH2 0x1EC0 JUMP JUMPDEST PUSH1 0x0 PUSH2 0x1F99 DUP4 DUP6 PUSH2 0x2ADF JUMP JUMPDEST SWAP1 POP DUP3 PUSH2 0x1FA6 DUP6 DUP4 PUSH2 0x2ABF JUMP JUMPDEST EQ PUSH2 0x1EBD JUMPI PUSH1 0x40 MLOAD PUSH3 0x461BCD PUSH1 0xE5 SHL DUP2 MSTORE PUSH1 0x20 PUSH1 0x4 DUP3 ADD MSTORE PUSH1 0x21 PUSH1 0x24 DUP3 ADD MSTORE PUSH32 0x536166654D6174683A206D756C7469706C69636174696F6E206F766572666C6F PUSH1 0x44 DUP3 ADD MSTORE PUSH1 0x77 PUSH1 0xF8 SHL PUSH1 0x64 DUP3 ADD MSTORE PUSH1 0x84 ADD PUSH2 0x299 JUMP JUMPDEST PUSH1 0x5 SLOAD PUSH1 0x40 MLOAD PUSH4 0x70A08231 PUSH1 0xE0 SHL DUP2 MSTORE ADDRESS PUSH1 0x4 DUP3 ADD MSTORE PUSH1 0x0 SWAP2 PUSH1 0x1 PUSH1 0x1 PUSH1 0xA0 SHL SUB AND SWAP1 PUSH4 0x70A08231 SWAP1 PUSH1 0x24 ADD PUSH1 0x20 PUSH1 0x40 MLOAD DUP1 DUP4 SUB DUP2 DUP7 DUP1 EXTCODESIZE ISZERO DUP1 ISZERO PUSH2 0x2041 JUMPI PUSH1 0x0 DUP1 REVERT JUMPDEST POP GAS STATICCALL ISZERO DUP1 ISZERO PUSH2 0x2055 JUMPI RETURNDATASIZE PUSH1 0x0 DUP1 RETURNDATACOPY RETURNDATASIZE PUSH1 0x0 REVERT JUMPDEST POP POP POP POP PUSH1 0x40 MLOAD RETURNDATASIZE PUSH1 0x1F NOT PUSH1 0x1F DUP3 ADD AND DUP3 ADD DUP1 PUSH1 0x40 MSTORE POP DUP2 ADD SWAP1 PUSH2 0x2079 SWAP2 SWAP1 PUSH2 0x27DA JUMP JUMPDEST PUSH1 0x5 SLOAD PUSH1 0x7 SLOAD PUSH1 0x40 MLOAD PUSH4 0xA9059CBB PUSH1 0xE0 SHL DUP2 MSTORE PUSH1 0x1 PUSH1 0x1 PUSH1 0xA0 SHL SUB SWAP2 DUP3 AND PUSH1 0x4 DUP3 ADD MSTORE PUSH1 0x24 DUP2 ADD DUP5 SWAP1 MSTORE SWAP3 SWAP4 POP AND SWAP1 PUSH4 0xA9059CBB SWAP1 PUSH1 0x44 ADD PUSH2 0x1ADD JUMP JUMPDEST PUSH1 0x0 PUSH2 0x20DB PUSH1 0xB SLOAD PUSH2 0x20D5 PUSH1 0x9 SLOAD PUSH1 0x11 SLOAD PUSH2 0x1F7E SWAP1 SWAP2 SWAP1 PUSH4 0xFFFFFFFF AND JUMP JUMPDEST SWAP1 PUSH2 0x2703 JUMP JUMPDEST PUSH1 0x5 SLOAD PUSH1 0x40 MLOAD PUSH4 0x95EA7B3 PUSH1 0xE0 SHL DUP2 MSTORE PUSH1 0x1 PUSH1 0x1 PUSH1 0xA0 SHL SUB PUSH32 0x0 DUP2 AND PUSH1 0x4 DUP4 ADD MSTORE PUSH1 0x24 DUP3 ADD DUP5 SWAP1 MSTORE SWAP3 SWAP4 POP SWAP2 AND SWAP1 PUSH4 0x95EA7B3 SWAP1 PUSH1 0x44 ADD PUSH1 0x20 PUSH1 0x40 MLOAD DUP1 DUP4 SUB DUP2 PUSH1 0x0 DUP8 DUP1 EXTCODESIZE ISZERO DUP1 ISZERO PUSH2 0x214B JUMPI PUSH1 0x0 DUP1 REVERT JUMPDEST POP GAS CALL ISZERO DUP1 ISZERO PUSH2 0x215F JUMPI RETURNDATASIZE PUSH1 0x0 DUP1 RETURNDATACOPY RETURNDATASIZE PUSH1 0x0 REVERT JUMPDEST POP POP POP POP PUSH1 0x40 MLOAD RETURNDATASIZE PUSH1 0x1F NOT PUSH1 0x1F DUP3 ADD AND DUP3 ADD DUP1 PUSH1 0x40 MSTORE POP DUP2 ADD SWAP1 PUSH2 0x2183 SWAP2 SWAP1 PUSH2 0x27A6 JUMP JUMPDEST POP PUSH1 0x6 SLOAD PUSH1 0x9 SLOAD PUSH1 0x40 MLOAD PUSH4 0x95EA7B3 PUSH1 0xE0 SHL DUP2 MSTORE PUSH1 0x1 PUSH1 0x1 PUSH1 0xA0 SHL SUB PUSH32 0x0 DUP2 AND PUSH1 0x4 DUP4 ADD MSTORE PUSH1 0x24 DUP3 ADD SWAP3 SWAP1 SWAP3 MSTORE SWAP2 AND SWAP1 PUSH4 0x95EA7B3 SWAP1 PUSH1 0x44 ADD PUSH1 0x20 PUSH1 0x40 MLOAD DUP1 DUP4 SUB DUP2 PUSH1 0x0 DUP8 DUP1 EXTCODESIZE ISZERO DUP1 ISZERO PUSH2 0x21F5 JUMPI PUSH1 0x0 DUP1 REVERT JUMPDEST POP GAS CALL ISZERO DUP1 ISZERO PUSH2 0x2209 JUMPI RETURNDATASIZE PUSH1 0x0 DUP1 RETURNDATACOPY RETURNDATASIZE PUSH1 0x0 REVERT JUMPDEST POP POP POP POP PUSH1 0x40 MLOAD RETURNDATASIZE PUSH1 0x1F NOT PUSH1 0x1F DUP3 ADD AND DUP3 ADD DUP1 PUSH1 0x40 MSTORE POP DUP2 ADD SWAP1 PUSH2 0x222D SWAP2 SWAP1 PUSH2 0x27A6 JUMP JUMPDEST POP PUSH1 0x5 SLOAD PUSH1 0x6 SLOAD PUSH1 0x9 SLOAD PUSH1 0x7 SLOAD PUSH1 0x40 MLOAD PUSH3 0xE8E337 PUSH1 0xE8 SHL DUP2 MSTORE PUSH1 0x1 PUSH1 0x1 PUSH1 0xA0 SHL SUB SWAP5 DUP6 AND PUSH1 0x4 DUP3 ADD MSTORE SWAP3 DUP5 AND PUSH1 0x24 DUP5 ADD MSTORE PUSH1 0x44 DUP4 ADD DUP6 SWAP1 MSTORE PUSH1 0x64 DUP4 ADD SWAP2 SWAP1 SWAP2 MSTORE PUSH1 0x0 PUSH1 0x84 DUP4 ADD DUP2 SWAP1 MSTORE PUSH1 0xA4 DUP4 ADD DUP2 SWAP1 MSTORE SWAP1 DUP4 AND PUSH1 0xC4 DUP4 ADD MSTORE TIMESTAMP PUSH1 0xE4 DUP4 ADD MSTORE SWAP2 DUP3 SWAP2 DUP3 SWAP2 PUSH32 0x0 AND SWAP1 PUSH4 0xE8E33700 SWAP1 PUSH2 0x104 ADD PUSH1 0x60 PUSH1 0x40 MLOAD DUP1 DUP4 SUB DUP2 PUSH1 0x0 DUP8 DUP1 EXTCODESIZE ISZERO DUP1 ISZERO PUSH2 0x22D7 JUMPI PUSH1 0x0 DUP1 REVERT JUMPDEST POP GAS CALL ISZERO DUP1 ISZERO PUSH2 0x22EB JUMPI RETURNDATASIZE PUSH1 0x0 DUP1 RETURNDATACOPY RETURNDATASIZE PUSH1 0x0 REVERT JUMPDEST POP POP POP POP PUSH1 0x40 MLOAD RETURNDATASIZE PUSH1 0x1F NOT PUSH1 0x1F DUP3 ADD AND DUP3 ADD DUP1 PUSH1 0x40 MSTORE POP DUP2 ADD SWAP1 PUSH2 0x230F SWAP2 SWAP1 PUSH2 0x295B JUMP JUMPDEST PUSH1 0x9 SLOAD PUSH1 0x40 DUP1 MLOAD DUP10 DUP2 MSTORE PUSH1 0x20 DUP2 ADD DUP7 SWAP1 MSTORE SWAP1 DUP2 ADD SWAP2 SWAP1 SWAP2 MSTORE PUSH1 0x60 DUP2 ADD DUP4 SWAP1 MSTORE PUSH1 0x80 DUP2 ADD DUP3 SWAP1 MSTORE SWAP3 SWAP6 POP SWAP1 SWAP4 POP SWAP2 POP PUSH32 0xB141EFB20C72D616A1738EDF3BFC091E675E9970798C20F084E967372070C25B SWAP1 PUSH1 0xA0 ADD PUSH1 0x40 MLOAD DUP1 SWAP2 SUB SWAP1 LOG1 POP POP POP POP JUMP JUMPDEST PUSH1 0x0 PUSH2 0x239A PUSH2 0x2391 PUSH1 0x64 PUSH2 0x20D5 PUSH1 0x12 SLOAD PUSH1 0x9 SLOAD PUSH2 0x1F7E SWAP1 SWAP2 SWAP1 PUSH4 0xFFFFFFFF AND JUMP JUMPDEST PUSH1 0x9 SLOAD SWAP1 PUSH2 0x1F3C JUMP JUMPDEST SWAP1 POP PUSH2 0x23A4 PUSH2 0x6E9 JUMP JUMPDEST ISZERO PUSH2 0x23E3 JUMPI PUSH1 0x7 SLOAD PUSH1 0x40 MLOAD PUSH1 0x1 PUSH1 0x1 PUSH1 0xA0 SHL SUB SWAP1 SWAP2 AND SWAP1 DUP3 ISZERO PUSH2 0x8FC MUL SWAP1 DUP4 SWAP1 PUSH1 0x0 DUP2 DUP2 DUP2 DUP6 DUP9 DUP9 CALL SWAP4 POP POP POP POP ISZERO DUP1 ISZERO PUSH2 0x1604 JUMPI RETURNDATASIZE PUSH1 0x0 DUP1 RETURNDATACOPY RETURNDATASIZE PUSH1 0x0 REVERT JUMPDEST PUSH1 0x6 SLOAD PUSH1 0x7 SLOAD PUSH1 0x40 MLOAD PUSH4 0xA9059CBB PUSH1 0xE0 SHL DUP2 MSTORE PUSH1 0x1 PUSH1 0x1 PUSH1 0xA0 SHL SUB SWAP2 DUP3 AND PUSH1 0x4 DUP3 ADD MSTORE PUSH1 0x24 DUP2 ADD DUP5 SWAP1 MSTORE SWAP2 AND SWAP1 PUSH4 0xA9059CBB SWAP1 PUSH1 0x44 ADD PUSH2 0x1ADD JUMP JUMPDEST PUSH1 0x0 PUSH2 0x2443 PUSH1 0x8 SLOAD PUSH2 0x243D PUSH1 0x9 SLOAD PUSH1 0xB SLOAD PUSH2 0x1F3C SWAP1 SWAP2 SWAP1 PUSH4 0xFFFFFFFF AND JUMP JUMPDEST SWAP1 PUSH2 0x1F7E JUMP JUMPDEST SWAP1 POP PUSH1 0x0 PUSH2 0x2470 PUSH2 0x2467 PUSH1 0xB SLOAD PUSH2 0x20D5 PUSH1 0x9 SLOAD PUSH1 0x11 SLOAD PUSH2 0x1F7E SWAP1 SWAP2 SWAP1 PUSH4 0xFFFFFFFF AND JUMP JUMPDEST PUSH1 0x11 SLOAD SWAP1 PUSH2 0x1F3C JUMP JUMPDEST PUSH1 0x5 SLOAD PUSH1 0x7 SLOAD SWAP2 SWAP3 POP PUSH1 0x1 PUSH1 0x1 PUSH1 0xA0 SHL SUB SWAP1 DUP2 AND SWAP2 PUSH4 0xA9059CBB SWAP2 AND PUSH2 0x2496 DUP6 DUP6 PUSH2 0x1EDD JUMP JUMPDEST PUSH1 0x40 MLOAD PUSH1 0x1 PUSH1 0x1 PUSH1 0xE0 SHL SUB NOT PUSH1 0xE0 DUP6 SWAP1 SHL AND DUP2 MSTORE PUSH1 0x1 PUSH1 0x1 PUSH1 0xA0 SHL SUB SWAP1 SWAP3 AND PUSH1 0x4 DUP4 ADD MSTORE PUSH1 0x24 DUP3 ADD MSTORE PUSH1 0x44 ADD PUSH1 0x20 PUSH1 0x40 MLOAD DUP1 DUP4 SUB DUP2 PUSH1 0x0 DUP8 DUP1 EXTCODESIZE ISZERO DUP1 ISZERO PUSH2 0x24DC JUMPI PUSH1 0x0 DUP1 REVERT JUMPDEST POP GAS CALL ISZERO DUP1 ISZERO PUSH2 0x24F0 JUMPI RETURNDATASIZE PUSH1 0x0 DUP1 RETURNDATACOPY RETURNDATASIZE PUSH1 0x0 REVERT JUMPDEST POP POP POP POP PUSH1 0x40 MLOAD RETURNDATASIZE PUSH1 0x1F NOT PUSH1 0x1F DUP3 ADD AND DUP3 ADD DUP1 PUSH1 0x40 MSTORE POP DUP2 ADD SWAP1 PUSH2 0x2514 SWAP2 SWAP1 PUSH2 0x27A6 JUMP JUMPDEST POP POP POP JUMP JUMPDEST PUSH1 0x0 PUSH2 0x2523 PUSH2 0x6E9 JUMP JUMPDEST ISZERO PUSH2 0x252F JUMPI POP DUP1 PUSH2 0x1EC0 JUMP JUMPDEST PUSH1 0x6 SLOAD PUSH1 0x40 MLOAD PUSH4 0x70A08231 PUSH1 0xE0 SHL DUP2 MSTORE ADDRESS PUSH1 0x4 DUP3 ADD MSTORE PUSH1 0x0 SWAP2 PUSH1 0x1 PUSH1 0x1 PUSH1 0xA0 SHL SUB AND SWAP1 PUSH4 0x70A08231 SWAP1 PUSH1 0x24 ADD PUSH1 0x20 PUSH1 0x40 MLOAD DUP1 DUP4 SUB DUP2 DUP7 DUP1 EXTCODESIZE ISZERO DUP1 ISZERO PUSH2 0x2573 JUMPI PUSH1 0x0 DUP1 REVERT JUMPDEST POP GAS STATICCALL ISZERO DUP1 ISZERO PUSH2 0x2587 JUMPI RETURNDATASIZE PUSH1 0x0 DUP1 RETURNDATACOPY RETURNDATASIZE PUSH1 0x0 REVERT JUMPDEST POP POP POP POP PUSH1 0x40 MLOAD RETURNDATASIZE PUSH1 0x1F NOT PUSH1 0x1F DUP3 ADD AND DUP3 ADD DUP1 PUSH1 0x40 MSTORE POP DUP2 ADD SWAP1 PUSH2 0x25AB SWAP2 SWAP1 PUSH2 0x27DA JUMP JUMPDEST PUSH1 0x6 SLOAD PUSH1 0x40 MLOAD PUSH4 0x23B872DD PUSH1 0xE0 SHL DUP2 MSTORE PUSH1 0x1 PUSH1 0x1 PUSH1 0xA0 SHL SUB DUP8 DUP2 AND PUSH1 0x4 DUP4 ADD MSTORE ADDRESS PUSH1 0x24 DUP4 ADD MSTORE PUSH1 0x44 DUP3 ADD DUP8 SWAP1 MSTORE SWAP3 SWAP4 POP SWAP2 AND SWAP1 PUSH4 0x23B872DD SWAP1 PUSH1 0x64 ADD PUSH1 0x20 PUSH1 0x40 MLOAD DUP1 DUP4 SUB DUP2 PUSH1 0x0 DUP8 DUP1 EXTCODESIZE ISZERO DUP1 ISZERO PUSH2 0x2601 JUMPI PUSH1 0x0 DUP1 REVERT JUMPDEST POP GAS CALL ISZERO DUP1 ISZERO PUSH2 0x2615 JUMPI RETURNDATASIZE PUSH1 0x0 DUP1 RETURNDATACOPY RETURNDATASIZE PUSH1 0x0 REVERT JUMPDEST POP POP POP POP PUSH1 0x40 MLOAD RETURNDATASIZE PUSH1 0x1F NOT PUSH1 0x1F DUP3 ADD AND DUP3 ADD DUP1 PUSH1 0x40 MSTORE POP DUP2 ADD SWAP1 PUSH2 0x2639 SWAP2 SWAP1 PUSH2 0x27A6 JUMP JUMPDEST POP PUSH1 0x6 SLOAD PUSH1 0x40 MLOAD PUSH4 0x70A08231 PUSH1 0xE0 SHL DUP2 MSTORE ADDRESS PUSH1 0x4 DUP3 ADD MSTORE PUSH2 0x26C1 SWAP2 DUP4 SWAP2 PUSH1 0x1 PUSH1 0x1 PUSH1 0xA0 SHL SUB SWAP1 SWAP2 AND SWAP1 PUSH4 0x70A08231 SWAP1 PUSH1 0x24 ADD PUSH1 0x20 PUSH1 0x40 MLOAD DUP1 DUP4 SUB DUP2 DUP7 DUP1 EXTCODESIZE ISZERO DUP1 ISZERO PUSH2 0x2683 JUMPI PUSH1 0x0 DUP1 REVERT JUMPDEST POP GAS STATICCALL ISZERO DUP1 ISZERO PUSH2 0x2697 JUMPI RETURNDATASIZE PUSH1 0x0 DUP1 RETURNDATACOPY RETURNDATASIZE PUSH1 0x0 REVERT JUMPDEST POP POP POP POP PUSH1 0x40 MLOAD RETURNDATASIZE PUSH1 0x1F NOT PUSH1 0x1F DUP3 ADD AND DUP3 ADD DUP1 PUSH1 0x40 MSTORE POP DUP2 ADD SWAP1 PUSH2 0x26BB SWAP2 SWAP1 PUSH2 0x27DA JUMP JUMPDEST SWAP1 PUSH2 0x1F3C JUMP JUMPDEST SWAP2 POP POP PUSH2 0x1EC0 JUMP JUMPDEST PUSH1 0x0 DUP2 DUP5 DUP5 GT ISZERO PUSH2 0x26ED JUMPI PUSH1 0x40 MLOAD PUSH3 0x461BCD PUSH1 0xE5 SHL DUP2 MSTORE PUSH1 0x4 ADD PUSH2 0x299 SWAP2 SWAP1 PUSH2 0x2988 JUMP JUMPDEST POP PUSH1 0x0 PUSH2 0x26FA DUP5 DUP7 PUSH2 0x2AFE JUMP JUMPDEST SWAP6 SWAP5 POP POP POP POP POP JUMP JUMPDEST PUSH1 0x0 PUSH2 0x1EBD DUP4 DUP4 PUSH1 0x40 MLOAD DUP1 PUSH1 0x40 ADD PUSH1 0x40 MSTORE DUP1 PUSH1 0x1A DUP2 MSTORE PUSH1 0x20 ADD PUSH32 0x536166654D6174683A206469766973696F6E206279207A65726F000000000000 DUP2 MSTORE POP PUSH1 0x0 DUP2 DUP4 PUSH2 0x2761 JUMPI PUSH1 0x40 MLOAD PUSH3 0x461BCD PUSH1 0xE5 SHL DUP2 MSTORE PUSH1 0x4 ADD PUSH2 0x299 SWAP2 SWAP1 PUSH2 0x2988 JUMP JUMPDEST POP PUSH1 0x0 PUSH2 0x26FA DUP5 DUP7 PUSH2 0x2ABF JUMP JUMPDEST PUSH1 0x0 PUSH1 0x20 DUP3 DUP5 SUB SLT ISZERO PUSH2 0x277F JUMPI DUP1 DUP2 REVERT JUMPDEST DUP2 CALLDATALOAD PUSH2 0x1EBD DUP2 PUSH2 0x2B2B JUMP JUMPDEST PUSH1 0x0 PUSH1 0x20 DUP3 DUP5 SUB SLT ISZERO PUSH2 0x279B JUMPI DUP1 DUP2 REVERT JUMPDEST DUP2 MLOAD PUSH2 0x1EBD DUP2 PUSH2 0x2B2B JUMP JUMPDEST PUSH1 0x0 PUSH1 0x20 DUP3 DUP5 SUB SLT ISZERO PUSH2 0x27B7 JUMPI DUP1 DUP2 REVERT JUMPDEST DUP2 MLOAD PUSH2 0x1EBD DUP2 PUSH2 0x2B40 JUMP JUMPDEST PUSH1 0x0 PUSH1 0x20 DUP3 DUP5 SUB SLT ISZERO PUSH2 0x27D3 JUMPI DUP1 DUP2 REVERT JUMPDEST POP CALLDATALOAD SWAP2 SWAP1 POP JUMP JUMPDEST PUSH1 0x0 PUSH1 0x20 DUP3 DUP5 SUB SLT ISZERO PUSH2 0x27EB JUMPI DUP1 DUP2 REVERT JUMPDEST POP MLOAD SWAP2 SWAP1 POP JUMP JUMPDEST PUSH1 0x0 DUP1 PUSH1 0x0 DUP1 PUSH1 0x0 DUP1 PUSH1 0x0 DUP1 PUSH1 0x0 DUP1 PUSH1 0x0 PUSH2 0x160 DUP13 DUP15 SUB SLT ISZERO PUSH2 0x2813 JUMPI DUP7 DUP8 REVERT JUMPDEST DUP12 CALLDATALOAD SWAP11 POP PUSH1 0x20 DUP13 ADD CALLDATALOAD PUSH2 0x2825 DUP2 PUSH2 0x2B2B JUMP JUMPDEST SWAP10 POP PUSH1 0x40 DUP13 ADD CALLDATALOAD PUSH2 0x2835 DUP2 PUSH2 0x2B2B JUMP JUMPDEST SWAP9 POP PUSH1 0x60 DUP13 ADD CALLDATALOAD SWAP8 POP PUSH1 0x80 DUP13 ADD CALLDATALOAD SWAP7 POP PUSH1 0xA0 DUP13 ADD CALLDATALOAD SWAP6 POP PUSH1 0xC0 DUP13 ADD CALLDATALOAD PUSH2 0x285A DUP2 PUSH2 0x2B2B JUMP JUMPDEST DUP1 SWAP6 POP POP PUSH1 0xE0 DUP13 ADD CALLDATALOAD SWAP4 POP PUSH2 0x100 DUP13 ADD CALLDATALOAD SWAP3 POP PUSH2 0x120 DUP13 ADD CALLDATALOAD SWAP2 POP PUSH2 0x140 DUP13 ADD CALLDATALOAD SWAP1 POP SWAP3 SWAP6 SWAP9 SWAP12 POP SWAP3 SWAP6 SWAP9 SWAP12 SWAP1 SWAP4 SWAP7 SWAP10 POP JUMP JUMPDEST PUSH1 0x0 DUP1 PUSH1 0x0 DUP1 PUSH1 0x0 DUP1 PUSH1 0x0 DUP1 PUSH1 0x0 DUP1 PUSH1 0x0 DUP1 PUSH2 0x180 DUP14 DUP16 SUB SLT ISZERO PUSH2 0x28AF JUMPI DUP2 DUP3 REVERT JUMPDEST DUP13 CALLDATALOAD SWAP12 POP PUSH1 0x20 DUP14 ADD CALLDATALOAD PUSH2 0x28C1 DUP2 PUSH2 0x2B2B JUMP JUMPDEST SWAP11 POP PUSH1 0x40 DUP14 ADD CALLDATALOAD PUSH2 0x28D1 DUP2 PUSH2 0x2B2B JUMP JUMPDEST SWAP10 POP PUSH1 0x60 DUP14 ADD CALLDATALOAD SWAP9 POP PUSH1 0x80 DUP14 ADD CALLDATALOAD SWAP8 POP PUSH1 0xA0 DUP14 ADD CALLDATALOAD SWAP7 POP PUSH1 0xC0 DUP14 ADD CALLDATALOAD PUSH2 0x28F6 DUP2 PUSH2 0x2B2B JUMP JUMPDEST SWAP6 POP PUSH1 0xE0 DUP14 ADD CALLDATALOAD SWAP5 POP PUSH2 0x100 DUP14 ADD CALLDATALOAD SWAP4 POP PUSH2 0x120 DUP14 ADD CALLDATALOAD SWAP3 POP PUSH2 0x140 DUP14 ADD CALLDATALOAD SWAP2 POP PUSH2 0x160 DUP14 ADD CALLDATALOAD PUSH2 0x2926 DUP2 PUSH2 0x2B40 JUMP JUMPDEST DUP1 SWAP2 POP POP SWAP3 SWAP6 SWAP9 SWAP12 POP SWAP3 SWAP6 SWAP9 SWAP12 POP SWAP3 SWAP6 SWAP9 SWAP12 JUMP JUMPDEST PUSH1 0x0 DUP1 PUSH1 0x40 DUP4 DUP6 SUB SLT ISZERO PUSH2 0x294C JUMPI DUP2 DUP3 REVERT JUMPDEST POP POP DUP1 CALLDATALOAD SWAP3 PUSH1 0x20 SWAP1 SWAP2 ADD CALLDATALOAD SWAP2 POP JUMP JUMPDEST PUSH1 0x0 DUP1 PUSH1 0x0 PUSH1 0x60 DUP5 DUP7 SUB SLT ISZERO PUSH2 0x296F JUMPI DUP3 DUP4 REVERT JUMPDEST DUP4 MLOAD SWAP3 POP PUSH1 0x20 DUP5 ADD MLOAD SWAP2 POP PUSH1 0x40 DUP5 ADD MLOAD SWAP1 POP SWAP3 POP SWAP3 POP SWAP3 JUMP JUMPDEST PUSH1 0x0 PUSH1 0x20 DUP1 DUP4 MSTORE DUP4 MLOAD DUP1 DUP3 DUP6 ADD MSTORE DUP3 JUMPDEST DUP2 DUP2 LT ISZERO PUSH2 0x29B4 JUMPI DUP6 DUP2 ADD DUP4 ADD MLOAD DUP6 DUP3 ADD PUSH1 0x40 ADD MSTORE DUP3 ADD PUSH2 0x2998 JUMP JUMPDEST DUP2 DUP2 GT ISZERO PUSH2 0x29C5 JUMPI DUP4 PUSH1 0x40 DUP4 DUP8 ADD ADD MSTORE JUMPDEST POP PUSH1 0x1F ADD PUSH1 0x1F NOT AND SWAP3 SWAP1 SWAP3 ADD PUSH1 0x40 ADD SWAP4 SWAP3 POP POP POP JUMP JUMPDEST PUSH1 0x20 DUP1 DUP3 MSTORE DUP2 DUP2 ADD MSTORE PUSH32 0x4F776E61626C653A2063616C6C6572206973206E6F7420746865206F776E6572 PUSH1 0x40 DUP3 ADD MSTORE PUSH1 0x60 ADD SWAP1 JUMP JUMPDEST PUSH1 0x20 DUP1 DUP3 MSTORE PUSH1 0x22 SWAP1 DUP3 ADD MSTORE PUSH32 0x4D696E6F7269747950726573616C653A20616C72656164792066696E616C6973 PUSH1 0x40 DUP3 ADD MSTORE PUSH2 0x1959 PUSH1 0xF2 SHL PUSH1 0x60 DUP3 ADD MSTORE PUSH1 0x80 ADD SWAP1 JUMP JUMPDEST PUSH1 0x20 DUP1 DUP3 MSTORE PUSH1 0x35 SWAP1 DUP3 ADD MSTORE PUSH32 0x4D696E6F7269747950726573616C653A206F6E6C792061636365737369626C65 PUSH1 0x40 DUP3 ADD MSTORE PUSH21 0x10313C9037B832B930BA37B91037B91037BBB732B9 PUSH1 0x59 SHL PUSH1 0x60 DUP3 ADD MSTORE PUSH1 0x80 ADD SWAP1 JUMP JUMPDEST PUSH1 0x0 DUP3 NOT DUP3 GT ISZERO PUSH2 0x2ABA JUMPI PUSH2 0x2ABA PUSH2 0x2B15 JUMP JUMPDEST POP ADD SWAP1 JUMP JUMPDEST PUSH1 0x0 DUP3 PUSH2 0x2ADA JUMPI PUSH4 0x4E487B71 PUSH1 0xE0 SHL DUP2 MSTORE PUSH1 0x12 PUSH1 0x4 MSTORE PUSH1 0x24 DUP2 REVERT JUMPDEST POP DIV SWAP1 JUMP JUMPDEST PUSH1 0x0 DUP2 PUSH1 0x0 NOT DIV DUP4 GT DUP3 ISZERO ISZERO AND ISZERO PUSH2 0x2AF9 JUMPI PUSH2 0x2AF9 PUSH2 0x2B15 JUMP JUMPDEST POP MUL SWAP1 JUMP JUMPDEST PUSH1 0x0 DUP3 DUP3 LT ISZERO PUSH2 0x2B10 JUMPI PUSH2 0x2B10 PUSH2 0x2B15 JUMP JUMPDEST POP SUB SWAP1 JUMP JUMPDEST PUSH4 0x4E487B71 PUSH1 0xE0 SHL PUSH1 0x0 MSTORE PUSH1 0x11 PUSH1 0x4 MSTORE PUSH1 0x24 PUSH1 0x0 REVERT JUMPDEST PUSH1 0x1 PUSH1 0x1 PUSH1 0xA0 SHL SUB DUP2 AND DUP2 EQ PUSH2 0x1B2F JUMPI PUSH1 0x0 DUP1 REVERT JUMPDEST DUP1 ISZERO ISZERO DUP2 EQ PUSH2 0x1B2F JUMPI PUSH1 0x0 DUP1 REVERT INVALID LOG2 PUSH5 0x6970667358 0x22 SLT KECCAK256 SUB EQ SUB CALLDATASIZE PUSH19 0x57863AE2E0267224F29DC03C58E555085FE6C4 0xB0 0xDB MOD GT 0x1F 0x27 DUP12 0xEA PUSH5 0x736F6C6343 STOP ADDMOD DIV STOP CALLER 0xDD CALLCODE MSTORE 0xAD SHL 0xE2 0xC8 SWAP12 PUSH10 0xC2B068FC378DAA952BA7 CALL PUSH4 0xC4A11628 CREATE2 GAS 0x4D CREATE2 0x23 0xB3 0xEF "
		},
		"gasEstimates": {
			"creation": {
				"codeDepositCost": "2181000",
				"executionCost": "infinite",
				"totalCost": "infinite"
			},
			"external": {
				"BURN_ADDRESS()": "326",
				"ROUTER()": "306",
				"TOKENS_FOR_POST_PRESALE_LP()": "770",
				"TOKENS_FOR_PRESALE()": "725",
				"USDC()": "306",
				"allowance(address,address)": "infinite",
				"approve(address,uint256)": "22566",
				"balanceOf(address)": "infinite",
				"burnFee()": "1156",
				"checkIfExcludedFromFee(address)": "1316",
				"dappWallet()": "1105",
				"decimals()": "258",
				"decreaseAllowance(address,uint256)": "infinite",
				"excludeFromFee(address)": "23351",
				"excludeFromReward(address)": "infinite",
				"includeInFee(address)": "23300",
				"includeInReward(address)": "infinite",
				"increaseAllowance(address,uint256)": "23745",
				"isExcludedFromReward(address)": "1317",
				"liquidityFee()": "1136",
				"marketingWallet()": "1126",
				"maxTxAmount()": "1129",
				"minorityLiquidityManager()": "1127",
				"minorityPresale()": "1172",
				"minorityVestingManager()": "1171",
				"name()": "infinite",
				"owner()": "1099",
				"reflectionFee()": "1059",
				"reflectionFromToken(uint256,bool)": "infinite",
				"renounceOwnership()": "24232",
				"rewardFee()": "1136",
				"rewardWallet()": "1125",
				"setFeePercentages(uint8,uint8,uint8,uint8,uint8)": "infinite",
				"setMaxTxPercent(uint256)": "infinite",
				"setRewardWallet(address)": "22202",
				"setSwapAndLiquifyEnabled(bool)": "23152",
				"setTreasuryWallet(address)": "22157",
				"swapAndLiquifyEnabled()": "1117",
				"swapPair()": "1194",
				"swapRouter()": "1082",
				"symbol()": "infinite",
				"thinkTankWallet()": "1170",
				"tokenFromReflection(uint256)": "infinite",
				"tokensToVest()": "1062",
				"totalSupply()": "713",
				"totalTxFees()": "1084",
				"transfer(address,uint256)": "infinite",
				"transferFrom(address,address,uint256)": "infinite",
				"transferOwnership(address)": "24466",
				"treasuryFee()": "1135",
				"treasuryWallet()": "1105"
			},
			"internal": {
				"_approve(address,address,uint256)": "infinite",
				"_transfer(address,address,uint256)": "infinite",
				"getCurrentSupply()": "infinite",
				"getRValues(uint256,uint256,uint256,uint256)": "infinite",
				"getRate()": "infinite",
				"getTValues(uint256)": "infinite",
				"getValues(uint256)": "infinite",
				"reflectFee(uint256)": "infinite",
				"takeFee(uint256,address,address)": "infinite",
				"takeOtherFees(uint256,address)": "infinite",
				"tokenTransfer(address,address,uint256,bool)": "infinite"
			}
		},
		"methodIdentifiers": {
			"BURN_ADDRESS()": "fccc2813",
			"ROUTER()": "32fe7b26",
			"TOKENS_FOR_POST_PRESALE_LP()": "8cf8f71d",
			"TOKENS_FOR_PRESALE()": "78a2e101",
			"USDC()": "89a30271",
			"allowance(address,address)": "dd62ed3e",
			"approve(address,uint256)": "095ea7b3",
			"balanceOf(address)": "70a08231",
			"burnFee()": "fce589d8",
			"checkIfExcludedFromFee(address)": "e0899a90",
			"dappWallet()": "5bc05e9a",
			"decimals()": "313ce567",
			"decreaseAllowance(address,uint256)": "a457c2d7",
			"excludeFromFee(address)": "437823ec",
			"excludeFromReward(address)": "52390c02",
			"includeInFee(address)": "ea2f0b37",
			"includeInReward(address)": "3685d419",
			"increaseAllowance(address,uint256)": "39509351",
			"isExcludedFromReward(address)": "88f82020",
			"liquidityFee()": "98118cb4",
			"marketingWallet()": "75f0a874",
			"maxTxAmount()": "8c0b5e22",
			"minorityLiquidityManager()": "6bcff5b6",
			"minorityPresale()": "2523fd57",
			"minorityVestingManager()": "560aa498",
			"name()": "06fdde03",
			"owner()": "8da5cb5b",
			"reflectionFee()": "83ad7994",
			"reflectionFromToken(uint256,bool)": "4549b039",
			"renounceOwnership()": "715018a6",
			"rewardFee()": "8b424267",
			"rewardWallet()": "fb75b2c7",
			"setFeePercentages(uint8,uint8,uint8,uint8,uint8)": "e4419f61",
			"setMaxTxPercent(uint256)": "d543dbeb",
			"setRewardWallet(address)": "5958621e",
			"setSwapAndLiquifyEnabled(bool)": "c49b9a80",
			"setTreasuryWallet(address)": "a8602fea",
			"swapAndLiquifyEnabled()": "4a74bb02",
			"swapPair()": "26991cc8",
			"swapRouter()": "c31c9c07",
			"symbol()": "95d89b41",
			"thinkTankWallet()": "81a0b3ff",
			"tokenFromReflection(uint256)": "2d838119",
			"tokensToVest()": "c4730d5d",
			"totalSupply()": "18160ddd",
			"totalTxFees()": "a5041beb",
			"transfer(address,uint256)": "a9059cbb",
			"transferFrom(address,address,uint256)": "23b872dd",
			"transferOwnership(address)": "f2fde38b",
			"treasuryFee()": "cc32d176",
			"treasuryWallet()": "4626402b"
		}
	},
	"abi": [
		{
			"inputs": [],
			"stateMutability": "nonpayable",
			"type": "constructor"
		},
		{
			"anonymous": false,
			"inputs": [
				{
					"indexed": true,
					"internalType": "address",
					"name": "owner",
					"type": "address"
				},
				{
					"indexed": true,
					"internalType": "address",
					"name": "spender",
					"type": "address"
				},
				{
					"indexed": false,
					"internalType": "uint256",
					"name": "value",
					"type": "uint256"
				}
			],
			"name": "Approval",
			"type": "event"
		},
		{
			"anonymous": false,
			"inputs": [
				{
					"indexed": true,
					"internalType": "address",
					"name": "account",
					"type": "address"
				}
			],
			"name": "ExcludedFromFee",
			"type": "event"
		},
		{
			"anonymous": false,
			"inputs": [
				{
					"indexed": true,
					"internalType": "address",
					"name": "account",
					"type": "address"
				}
			],
			"name": "ExcludedFromReward",
			"type": "event"
		},
		{
			"anonymous": false,
			"inputs": [
				{
					"indexed": false,
					"internalType": "uint256",
					"name": "oldReflectionFee",
					"type": "uint256"
				},
				{
					"indexed": false,
					"internalType": "uint256",
					"name": "newReflectionFee",
					"type": "uint256"
				},
				{
					"indexed": false,
					"internalType": "uint256",
					"name": "oldLiquidityFee",
					"type": "uint256"
				},
				{
					"indexed": false,
					"internalType": "uint256",
					"name": "newLiquidityFee",
					"type": "uint256"
				},
				{
					"indexed": false,
					"internalType": "uint256",
					"name": "oldTreasuryFee",
					"type": "uint256"
				},
				{
					"indexed": false,
					"internalType": "uint256",
					"name": "newTreasuryFee",
					"type": "uint256"
				},
				{
					"indexed": false,
					"internalType": "uint256",
					"name": "oldBurnFee",
					"type": "uint256"
				},
				{
					"indexed": false,
					"internalType": "uint256",
					"name": "newBurnFee",
					"type": "uint256"
				},
				{
					"indexed": false,
					"internalType": "uint256",
					"name": "oldRewardFee",
					"type": "uint256"
				},
				{
					"indexed": false,
					"internalType": "uint256",
					"name": "newRewardFee",
					"type": "uint256"
				}
			],
			"name": "FeesChanged",
			"type": "event"
		},
		{
			"anonymous": false,
			"inputs": [
				{
					"indexed": true,
					"internalType": "address",
					"name": "account",
					"type": "address"
				}
			],
			"name": "IncludedInFee",
			"type": "event"
		},
		{
			"anonymous": false,
			"inputs": [
				{
					"indexed": true,
					"internalType": "address",
					"name": "account",
					"type": "address"
				}
			],
			"name": "IncludedInReward",
			"type": "event"
		},
		{
			"anonymous": false,
			"inputs": [
				{
					"indexed": false,
					"internalType": "uint256",
					"name": "oldMaxTxAmount",
					"type": "uint256"
				},
				{
					"indexed": false,
					"internalType": "uint256",
					"name": "newMaxTxAmount",
					"type": "uint256"
				}
			],
			"name": "MaxTxAmountChanged",
			"type": "event"
		},
		{
			"anonymous": false,
			"inputs": [
				{
					"indexed": false,
					"internalType": "uint256",
					"name": "minTokensBeforeSwap",
					"type": "uint256"
				}
			],
			"name": "MinTokensBeforeSwapUpdated",
			"type": "event"
		},
		{
			"anonymous": false,
			"inputs": [
				{
					"indexed": true,
					"internalType": "address",
					"name": "previousOwner",
					"type": "address"
				},
				{
					"indexed": true,
					"internalType": "address",
					"name": "newOwner",
					"type": "address"
				}
			],
			"name": "OwnershipTransferred",
			"type": "event"
		},
		{
			"anonymous": false,
			"inputs": [
				{
					"indexed": false,
					"internalType": "uint256",
					"name": "minorityTokensAdded",
					"type": "uint256"
				},
				{
					"indexed": false,
					"internalType": "uint256",
					"name": "usdcAdded",
					"type": "uint256"
				},
				{
					"indexed": false,
					"internalType": "uint256",
					"name": "lpTokensCreated",
					"type": "uint256"
				}
			],
			"name": "SwapAndLiquify",
			"type": "event"
		},
		{
			"anonymous": false,
			"inputs": [
				{
					"indexed": false,
					"internalType": "bool",
					"name": "enabled",
					"type": "bool"
				}
			],
			"name": "SwapAndLiquifyEnabledUpdated",
			"type": "event"
		},
		{
			"anonymous": false,
			"inputs": [
				{
					"indexed": true,
					"internalType": "address",
					"name": "from",
					"type": "address"
				},
				{
					"indexed": true,
					"internalType": "address",
					"name": "to",
					"type": "address"
				},
				{
					"indexed": false,
					"internalType": "uint256",
					"name": "value",
					"type": "uint256"
				}
			],
			"name": "Transfer",
			"type": "event"
		},
		{
			"inputs": [],
			"name": "BURN_ADDRESS",
			"outputs": [
				{
					"internalType": "address",
					"name": "",
					"type": "address"
				}
			],
			"stateMutability": "view",
			"type": "function"
		},
		{
			"inputs": [],
			"name": "ROUTER",
			"outputs": [
				{
					"internalType": "address",
					"name": "",
					"type": "address"
				}
			],
			"stateMutability": "view",
			"type": "function"
		},
		{
			"inputs": [],
			"name": "TOKENS_FOR_POST_PRESALE_LP",
			"outputs": [
				{
					"internalType": "uint256",
					"name": "",
					"type": "uint256"
				}
			],
			"stateMutability": "view",
			"type": "function"
		},
		{
			"inputs": [],
			"name": "TOKENS_FOR_PRESALE",
			"outputs": [
				{
					"internalType": "uint256",
					"name": "",
					"type": "uint256"
				}
			],
			"stateMutability": "view",
			"type": "function"
		},
		{
			"inputs": [],
			"name": "USDC",
			"outputs": [
				{
					"internalType": "address",
					"name": "",
					"type": "address"
				}
			],
			"stateMutability": "view",
			"type": "function"
		},
		{
			"inputs": [
				{
					"internalType": "address",
					"name": "owner",
					"type": "address"
				},
				{
					"internalType": "address",
					"name": "spender",
					"type": "address"
				}
			],
			"name": "allowance",
			"outputs": [
				{
					"internalType": "uint256",
					"name": "",
					"type": "uint256"
				}
			],
			"stateMutability": "view",
			"type": "function"
		},
		{
			"inputs": [
				{
					"internalType": "address",
					"name": "spender",
					"type": "address"
				},
				{
					"internalType": "uint256",
					"name": "amount",
					"type": "uint256"
				}
			],
			"name": "approve",
			"outputs": [
				{
					"internalType": "bool",
					"name": "",
					"type": "bool"
				}
			],
			"stateMutability": "nonpayable",
			"type": "function"
		},
		{
			"inputs": [
				{
					"internalType": "address",
					"name": "account",
					"type": "address"
				}
			],
			"name": "balanceOf",
			"outputs": [
				{
					"internalType": "uint256",
					"name": "",
					"type": "uint256"
				}
			],
			"stateMutability": "view",
			"type": "function"
		},
		{
			"inputs": [],
			"name": "burnFee",
			"outputs": [
				{
					"internalType": "uint8",
					"name": "",
					"type": "uint8"
				}
			],
			"stateMutability": "view",
			"type": "function"
		},
		{
			"inputs": [
				{
					"internalType": "address",
					"name": "account",
					"type": "address"
				}
			],
			"name": "checkIfExcludedFromFee",
			"outputs": [
				{
					"internalType": "bool",
					"name": "",
					"type": "bool"
				}
			],
			"stateMutability": "view",
			"type": "function"
		},
		{
			"inputs": [],
			"name": "dappWallet",
			"outputs": [
				{
					"internalType": "address",
					"name": "",
					"type": "address"
				}
			],
			"stateMutability": "view",
			"type": "function"
		},
		{
			"inputs": [],
			"name": "decimals",
			"outputs": [
				{
					"internalType": "uint8",
					"name": "",
					"type": "uint8"
				}
			],
			"stateMutability": "pure",
			"type": "function"
		},
		{
			"inputs": [
				{
					"internalType": "address",
					"name": "spender",
					"type": "address"
				},
				{
					"internalType": "uint256",
					"name": "subtractedValue",
					"type": "uint256"
				}
			],
			"name": "decreaseAllowance",
			"outputs": [
				{
					"internalType": "bool",
					"name": "",
					"type": "bool"
				}
			],
			"stateMutability": "nonpayable",
			"type": "function"
		},
		{
			"inputs": [
				{
					"internalType": "address",
					"name": "account",
					"type": "address"
				}
			],
			"name": "excludeFromFee",
			"outputs": [],
			"stateMutability": "nonpayable",
			"type": "function"
		},
		{
			"inputs": [
				{
					"internalType": "address",
					"name": "account",
					"type": "address"
				}
			],
			"name": "excludeFromReward",
			"outputs": [],
			"stateMutability": "nonpayable",
			"type": "function"
		},
		{
			"inputs": [
				{
					"internalType": "address",
					"name": "account",
					"type": "address"
				}
			],
			"name": "includeInFee",
			"outputs": [],
			"stateMutability": "nonpayable",
			"type": "function"
		},
		{
			"inputs": [
				{
					"internalType": "address",
					"name": "account",
					"type": "address"
				}
			],
			"name": "includeInReward",
			"outputs": [],
			"stateMutability": "nonpayable",
			"type": "function"
		},
		{
			"inputs": [
				{
					"internalType": "address",
					"name": "spender",
					"type": "address"
				},
				{
					"internalType": "uint256",
					"name": "addedValue",
					"type": "uint256"
				}
			],
			"name": "increaseAllowance",
			"outputs": [
				{
					"internalType": "bool",
					"name": "",
					"type": "bool"
				}
			],
			"stateMutability": "nonpayable",
			"type": "function"
		},
		{
			"inputs": [
				{
					"internalType": "address",
					"name": "account",
					"type": "address"
				}
			],
			"name": "isExcludedFromReward",
			"outputs": [
				{
					"internalType": "bool",
					"name": "",
					"type": "bool"
				}
			],
			"stateMutability": "view",
			"type": "function"
		},
		{
			"inputs": [],
			"name": "liquidityFee",
			"outputs": [
				{
					"internalType": "uint8",
					"name": "",
					"type": "uint8"
				}
			],
			"stateMutability": "view",
			"type": "function"
		},
		{
			"inputs": [],
			"name": "marketingWallet",
			"outputs": [
				{
					"internalType": "address",
					"name": "",
					"type": "address"
				}
			],
			"stateMutability": "view",
			"type": "function"
		},
		{
			"inputs": [],
			"name": "maxTxAmount",
			"outputs": [
				{
					"internalType": "uint256",
					"name": "",
					"type": "uint256"
				}
			],
			"stateMutability": "view",
			"type": "function"
		},
		{
			"inputs": [],
			"name": "minorityLiquidityManager",
			"outputs": [
				{
					"internalType": "contract MinorityLiquidityManager",
					"name": "",
					"type": "address"
				}
			],
			"stateMutability": "view",
			"type": "function"
		},
		{
			"inputs": [],
			"name": "minorityPresale",
			"outputs": [
				{
					"internalType": "contract MinorityPresale",
					"name": "",
					"type": "address"
				}
			],
			"stateMutability": "view",
			"type": "function"
		},
		{
			"inputs": [],
			"name": "minorityVestingManager",
			"outputs": [
				{
					"internalType": "contract MinorityVestingManager",
					"name": "",
					"type": "address"
				}
			],
			"stateMutability": "view",
			"type": "function"
		},
		{
			"inputs": [],
			"name": "name",
			"outputs": [
				{
					"internalType": "string",
					"name": "",
					"type": "string"
				}
			],
			"stateMutability": "pure",
			"type": "function"
		},
		{
			"inputs": [],
			"name": "owner",
			"outputs": [
				{
					"internalType": "address",
					"name": "",
					"type": "address"
				}
			],
			"stateMutability": "view",
			"type": "function"
		},
		{
			"inputs": [],
			"name": "reflectionFee",
			"outputs": [
				{
					"internalType": "uint8",
					"name": "",
					"type": "uint8"
				}
			],
			"stateMutability": "view",
			"type": "function"
		},
		{
			"inputs": [
				{
					"internalType": "uint256",
					"name": "amount",
					"type": "uint256"
				},
				{
					"internalType": "bool",
					"name": "deductTransferFee",
					"type": "bool"
				}
			],
			"name": "reflectionFromToken",
			"outputs": [
				{
					"internalType": "uint256",
					"name": "",
					"type": "uint256"
				}
			],
			"stateMutability": "view",
			"type": "function"
		},
		{
			"inputs": [],
			"name": "renounceOwnership",
			"outputs": [],
			"stateMutability": "nonpayable",
			"type": "function"
		},
		{
			"inputs": [],
			"name": "rewardFee",
			"outputs": [
				{
					"internalType": "uint8",
					"name": "",
					"type": "uint8"
				}
			],
			"stateMutability": "view",
			"type": "function"
		},
		{
			"inputs": [],
			"name": "rewardWallet",
			"outputs": [
				{
					"internalType": "address",
					"name": "",
					"type": "address"
				}
			],
			"stateMutability": "view",
			"type": "function"
		},
		{
			"inputs": [
				{
					"internalType": "uint8",
					"name": "_reflectionFee",
					"type": "uint8"
				},
				{
					"internalType": "uint8",
					"name": "_liquidityFee",
					"type": "uint8"
				},
				{
					"internalType": "uint8",
					"name": "_treasuryFee",
					"type": "uint8"
				},
				{
					"internalType": "uint8",
					"name": "_burnFee",
					"type": "uint8"
				},
				{
					"internalType": "uint8",
					"name": "_rewardFee",
					"type": "uint8"
				}
			],
			"name": "setFeePercentages",
			"outputs": [],
			"stateMutability": "nonpayable",
			"type": "function"
		},
		{
			"inputs": [
				{
					"internalType": "uint256",
					"name": "maxTxPercent",
					"type": "uint256"
				}
			],
			"name": "setMaxTxPercent",
			"outputs": [],
			"stateMutability": "nonpayable",
			"type": "function"
		},
		{
			"inputs": [
				{
					"internalType": "address",
					"name": "_rewardWallet",
					"type": "address"
				}
			],
			"name": "setRewardWallet",
			"outputs": [],
			"stateMutability": "nonpayable",
			"type": "function"
		},
		{
			"inputs": [
				{
					"internalType": "bool",
					"name": "_enabled",
					"type": "bool"
				}
			],
			"name": "setSwapAndLiquifyEnabled",
			"outputs": [],
			"stateMutability": "nonpayable",
			"type": "function"
		},
		{
			"inputs": [
				{
					"internalType": "address",
					"name": "_treasuryWallet",
					"type": "address"
				}
			],
			"name": "setTreasuryWallet",
			"outputs": [],
			"stateMutability": "nonpayable",
			"type": "function"
		},
		{
			"inputs": [],
			"name": "swapAndLiquifyEnabled",
			"outputs": [
				{
					"internalType": "bool",
					"name": "",
					"type": "bool"
				}
			],
			"stateMutability": "view",
			"type": "function"
		},
		{
			"inputs": [],
			"name": "swapPair",
			"outputs": [
				{
					"internalType": "address",
					"name": "",
					"type": "address"
				}
			],
			"stateMutability": "view",
			"type": "function"
		},
		{
			"inputs": [],
			"name": "swapRouter",
			"outputs": [
				{
					"internalType": "contract ISwapRouter02",
					"name": "",
					"type": "address"
				}
			],
			"stateMutability": "view",
			"type": "function"
		},
		{
			"inputs": [],
			"name": "symbol",
			"outputs": [
				{
					"internalType": "string",
					"name": "",
					"type": "string"
				}
			],
			"stateMutability": "pure",
			"type": "function"
		},
		{
			"inputs": [],
			"name": "thinkTankWallet",
			"outputs": [
				{
					"internalType": "address",
					"name": "",
					"type": "address"
				}
			],
			"stateMutability": "view",
			"type": "function"
		},
		{
			"inputs": [
				{
					"internalType": "uint256",
					"name": "reflectionAmount",
					"type": "uint256"
				}
			],
			"name": "tokenFromReflection",
			"outputs": [
				{
					"internalType": "uint256",
					"name": "",
					"type": "uint256"
				}
			],
			"stateMutability": "view",
			"type": "function"
		},
		{
			"inputs": [],
			"name": "tokensToVest",
			"outputs": [
				{
					"internalType": "uint256",
					"name": "",
					"type": "uint256"
				}
			],
			"stateMutability": "view",
			"type": "function"
		},
		{
			"inputs": [],
			"name": "totalSupply",
			"outputs": [
				{
					"internalType": "uint256",
					"name": "",
					"type": "uint256"
				}
			],
			"stateMutability": "pure",
			"type": "function"
		},
		{
			"inputs": [],
			"name": "totalTxFees",
			"outputs": [
				{
					"internalType": "uint256",
					"name": "",
					"type": "uint256"
				}
			],
			"stateMutability": "view",
			"type": "function"
		},
		{
			"inputs": [
				{
					"internalType": "address",
					"name": "recipient",
					"type": "address"
				},
				{
					"internalType": "uint256",
					"name": "amount",
					"type": "uint256"
				}
			],
			"name": "transfer",
			"outputs": [
				{
					"internalType": "bool",
					"name": "",
					"type": "bool"
				}
			],
			"stateMutability": "nonpayable",
			"type": "function"
		},
		{
			"inputs": [
				{
					"internalType": "address",
					"name": "sender",
					"type": "address"
				},
				{
					"internalType": "address",
					"name": "recipient",
					"type": "address"
				},
				{
					"internalType": "uint256",
					"name": "amount",
					"type": "uint256"
				}
			],
			"name": "transferFrom",
			"outputs": [
				{
					"internalType": "bool",
					"name": "",
					"type": "bool"
				}
			],
			"stateMutability": "nonpayable",
			"type": "function"
		},
		{
			"inputs": [
				{
					"internalType": "address",
					"name": "newOwner",
					"type": "address"
				}
			],
			"name": "transferOwnership",
			"outputs": [],
			"stateMutability": "nonpayable",
			"type": "function"
		},
		{
			"inputs": [],
			"name": "treasuryFee",
			"outputs": [
				{
					"internalType": "uint8",
					"name": "",
					"type": "uint8"
				}
			],
			"stateMutability": "view",
			"type": "function"
		},
		{
			"inputs": [],
			"name": "treasuryWallet",
			"outputs": [
				{
					"internalType": "address",
					"name": "",
					"type": "address"
				}
			],
			"stateMutability": "view",
			"type": "function"
		},
		{
			"stateMutability": "payable",
			"type": "receive"
		}
	]
}